{"abi":[{"inputs":[{"internalType":"uint256","name":"minContribution","type":"uint256"},{"internalType":"address","name":"newManager","type":"address"}],"stateMutability":"nonpayable","type":"constructor"},{"inputs":[{"internalType":"uint256","name":"index","type":"uint256"}],"name":"approveRequest","outputs":[],"stateMutability":"nonpayable","type":"function"},{"inputs":[],"name":"back","outputs":[],"stateMutability":"payable","type":"function"},{"inputs":[{"internalType":"address","name":"","type":"address"}],"name":"backers","outputs":[{"internalType":"uint256","name":"","type":"uint256"}],"stateMutability":"view","type":"function"},{"inputs":[{"internalType":"uint256","name":"","type":"uint256"}],"name":"backersArr","outputs":[{"internalType":"address payable","name":"","type":"address"}],"stateMutability":"view","type":"function"},{"inputs":[{"internalType":"string","name":"description","type":"string"},{"internalType":"uint256","name":"value","type":"uint256"},{"internalType":"address","name":"recipient","type":"address"}],"name":"createRequest","outputs":[{"components":[{"internalType":"string","name":"description","type":"string"},{"internalType":"uint256","name":"value","type":"uint256"},{"internalType":"address","name":"recipient","type":"address"},{"internalType":"bool","name":"isCompleted","type":"bool"},{"internalType":"bool","name":"isCanceled","type":"bool"},{"internalType":"uint256","name":"approvers","type":"uint256"}],"internalType":"struct campaign.Request","name":"","type":"tuple"}],"stateMutability":"nonpayable","type":"function"},{"inputs":[{"internalType":"uint256","name":"index","type":"uint256"}],"name":"finalizeRequest","outputs":[],"stateMutability":"nonpayable","type":"function"},{"inputs":[{"internalType":"address","name":"backerAddress","type":"address"}],"name":"getBackerApprovedRequests","outputs":[{"components":[{"internalType":"string","name":"description","type":"string"},{"internalType":"uint256","name":"value","type":"uint256"},{"internalType":"address","name":"recipient","type":"address"},{"internalType":"bool","name":"isCompleted","type":"bool"},{"internalType":"bool","name":"isCanceled","type":"bool"},{"internalType":"uint256","name":"approvers","type":"uint256"}],"internalType":"struct campaign.Request[]","name":"","type":"tuple[]"}],"stateMutability":"view","type":"function"},{"inputs":[],"name":"getBackers","outputs":[{"internalType":"address payable[]","name":"","type":"address[]"}],"stateMutability":"view","type":"function"},{"inputs":[],"name":"getRequestCount","outputs":[{"internalType":"uint256","name":"","type":"uint256"}],"stateMutability":"view","type":"function"},{"inputs":[],"name":"getRequests","outputs":[{"components":[{"internalType":"string","name":"description","type":"string"},{"internalType":"uint256","name":"value","type":"uint256"},{"internalType":"address","name":"recipient","type":"address"},{"internalType":"bool","name":"isCompleted","type":"bool"},{"internalType":"bool","name":"isCanceled","type":"bool"},{"internalType":"uint256","name":"approvers","type":"uint256"}],"internalType":"struct campaign.Request[]","name":"","type":"tuple[]"}],"stateMutability":"view","type":"function"},{"inputs":[],"name":"getSummary","outputs":[{"internalType":"uint256","name":"","type":"uint256"},{"internalType":"uint256","name":"","type":"uint256"},{"internalType":"uint256","name":"","type":"uint256"},{"internalType":"uint256","name":"","type":"uint256"},{"internalType":"address","name":"","type":"address"}],"stateMutability":"view","type":"function"},{"inputs":[],"name":"manager","outputs":[{"internalType":"address","name":"","type":"address"}],"stateMutability":"view","type":"function"},{"inputs":[{"internalType":"address","name":"","type":"address"},{"internalType":"uint256","name":"","type":"uint256"}],"name":"requestBackerRelations","outputs":[{"internalType":"string","name":"description","type":"string"},{"internalType":"uint256","name":"value","type":"uint256"},{"internalType":"address","name":"recipient","type":"address"},{"internalType":"bool","name":"isCompleted","type":"bool"},{"internalType":"bool","name":"isCanceled","type":"bool"},{"internalType":"uint256","name":"approvers","type":"uint256"}],"stateMutability":"view","type":"function"},{"inputs":[{"internalType":"uint256","name":"","type":"uint256"}],"name":"requests","outputs":[{"internalType":"string","name":"description","type":"string"},{"internalType":"uint256","name":"value","type":"uint256"},{"internalType":"address","name":"recipient","type":"address"},{"internalType":"bool","name":"isCompleted","type":"bool"},{"internalType":"bool","name":"isCanceled","type":"bool"},{"internalType":"uint256","name":"approvers","type":"uint256"}],"stateMutability":"view","type":"function"},{"inputs":[],"name":"returnBalance","outputs":[{"internalType":"uint256","name":"","type":"uint256"}],"stateMutability":"view","type":"function"},{"stateMutability":"payable","type":"receive"}],"devdoc":{"kind":"dev","methods":{},"version":1},"evm":{"assembly":"    /* \"output\":715:6454  contract campaign {... */\n  mstore(0x40, 0x80)\n    /* \"output\":2428:2570  constructor (uint minContribution, address newManager) {... */\n  callvalue\n  dup1\n  iszero\n  tag_1\n  jumpi\n  0x00\n  dup1\n  revert\ntag_1:\n  pop\n  mload(0x40)\n  sub(codesize, bytecodeSize)\n  dup1\n  bytecodeSize\n  dup4\n  codecopy\n  dup2\n  dup2\n  add\n  0x40\n  mstore\n  dup2\n  add\n  swap1\n  tag_2\n  swap2\n  swap1\n  tag_3\n  jump\t// in\ntag_2:\n    /* \"output\":2504:2514  newManager */\n  dup1\n    /* \"output\":2494:2501  manager */\n  0x01\n  0x00\n    /* \"output\":2494:2514  manager = newManager */\n  0x0100\n  exp\n  dup2\n  sload\n  dup2\n  0xffffffffffffffffffffffffffffffffffffffff\n  mul\n  not\n  and\n  swap1\n  dup4\n  0xffffffffffffffffffffffffffffffffffffffff\n  and\n  mul\n  or\n  swap1\n  sstore\n  pop\n    /* \"output\":2547:2562  minContribution */\n  dup2\n    /* \"output\":2525:2544  minimumContribution */\n  0x03\n    /* \"output\":2525:2562  minimumContribution = minContribution */\n  dup2\n  swap1\n  sstore\n  pop\n    /* \"output\":2428:2570  constructor (uint minContribution, address newManager) {... */\n  pop\n  pop\n    /* \"output\":715:6454  contract campaign {... */\n  jump(tag_6)\n    /* \"#utility.yul\":88:205   */\ntag_8:\n    /* \"#utility.yul\":197:198   */\n  0x00\n    /* \"#utility.yul\":194:195   */\n  dup1\n    /* \"#utility.yul\":187:199   */\n  revert\n    /* \"#utility.yul\":334:411   */\ntag_10:\n    /* \"#utility.yul\":371:378   */\n  0x00\n    /* \"#utility.yul\":400:405   */\n  dup2\n    /* \"#utility.yul\":389:405   */\n  swap1\n  pop\n    /* \"#utility.yul\":334:411   */\n  swap2\n  swap1\n  pop\n  jump\t// out\n    /* \"#utility.yul\":417:539   */\ntag_11:\n    /* \"#utility.yul\":490:514   */\n  tag_23\n    /* \"#utility.yul\":508:513   */\n  dup2\n    /* \"#utility.yul\":490:514   */\n  tag_10\n  jump\t// in\ntag_23:\n    /* \"#utility.yul\":483:488   */\n  dup2\n    /* \"#utility.yul\":480:515   */\n  eq\n    /* \"#utility.yul\":470:533   */\n  tag_24\n  jumpi\n    /* \"#utility.yul\":529:530   */\n  0x00\n    /* \"#utility.yul\":526:527   */\n  dup1\n    /* \"#utility.yul\":519:531   */\n  revert\n    /* \"#utility.yul\":470:533   */\ntag_24:\n    /* \"#utility.yul\":417:539   */\n  pop\n  jump\t// out\n    /* \"#utility.yul\":545:688   */\ntag_12:\n    /* \"#utility.yul\":602:607   */\n  0x00\n    /* \"#utility.yul\":633:639   */\n  dup2\n    /* \"#utility.yul\":627:640   */\n  mload\n    /* \"#utility.yul\":618:640   */\n  swap1\n  pop\n    /* \"#utility.yul\":649:682   */\n  tag_26\n    /* \"#utility.yul\":676:681   */\n  dup2\n    /* \"#utility.yul\":649:682   */\n  tag_11\n  jump\t// in\ntag_26:\n    /* \"#utility.yul\":545:688   */\n  swap3\n  swap2\n  pop\n  pop\n  jump\t// out\n    /* \"#utility.yul\":694:820   */\ntag_13:\n    /* \"#utility.yul\":731:738   */\n  0x00\n    /* \"#utility.yul\":771:813   */\n  0xffffffffffffffffffffffffffffffffffffffff\n    /* \"#utility.yul\":764:769   */\n  dup3\n    /* \"#utility.yul\":760:814   */\n  and\n    /* \"#utility.yul\":749:814   */\n  swap1\n  pop\n    /* \"#utility.yul\":694:820   */\n  swap2\n  swap1\n  pop\n  jump\t// out\n    /* \"#utility.yul\":826:922   */\ntag_14:\n    /* \"#utility.yul\":863:870   */\n  0x00\n    /* \"#utility.yul\":892:916   */\n  tag_29\n    /* \"#utility.yul\":910:915   */\n  dup3\n    /* \"#utility.yul\":892:916   */\n  tag_13\n  jump\t// in\ntag_29:\n    /* \"#utility.yul\":881:916   */\n  swap1\n  pop\n    /* \"#utility.yul\":826:922   */\n  swap2\n  swap1\n  pop\n  jump\t// out\n    /* \"#utility.yul\":928:1050   */\ntag_15:\n    /* \"#utility.yul\":1001:1025   */\n  tag_31\n    /* \"#utility.yul\":1019:1024   */\n  dup2\n    /* \"#utility.yul\":1001:1025   */\n  tag_14\n  jump\t// in\ntag_31:\n    /* \"#utility.yul\":994:999   */\n  dup2\n    /* \"#utility.yul\":991:1026   */\n  eq\n    /* \"#utility.yul\":981:1044   */\n  tag_32\n  jumpi\n    /* \"#utility.yul\":1040:1041   */\n  0x00\n    /* \"#utility.yul\":1037:1038   */\n  dup1\n    /* \"#utility.yul\":1030:1042   */\n  revert\n    /* \"#utility.yul\":981:1044   */\ntag_32:\n    /* \"#utility.yul\":928:1050   */\n  pop\n  jump\t// out\n    /* \"#utility.yul\":1056:1199   */\ntag_16:\n    /* \"#utility.yul\":1113:1118   */\n  0x00\n    /* \"#utility.yul\":1144:1150   */\n  dup2\n    /* \"#utility.yul\":1138:1151   */\n  mload\n    /* \"#utility.yul\":1129:1151   */\n  swap1\n  pop\n    /* \"#utility.yul\":1160:1193   */\n  tag_34\n    /* \"#utility.yul\":1187:1192   */\n  dup2\n    /* \"#utility.yul\":1160:1193   */\n  tag_15\n  jump\t// in\ntag_34:\n    /* \"#utility.yul\":1056:1199   */\n  swap3\n  swap2\n  pop\n  pop\n  jump\t// out\n    /* \"#utility.yul\":1205:1712   */\ntag_3:\n    /* \"#utility.yul\":1284:1290   */\n  0x00\n    /* \"#utility.yul\":1292:1298   */\n  dup1\n    /* \"#utility.yul\":1341:1343   */\n  0x40\n    /* \"#utility.yul\":1329:1338   */\n  dup4\n    /* \"#utility.yul\":1320:1327   */\n  dup6\n    /* \"#utility.yul\":1316:1339   */\n  sub\n    /* \"#utility.yul\":1312:1344   */\n  slt\n    /* \"#utility.yul\":1309:1428   */\n  iszero\n  tag_36\n  jumpi\n    /* \"#utility.yul\":1347:1426   */\n  tag_37\n  tag_8\n  jump\t// in\ntag_37:\n    /* \"#utility.yul\":1309:1428   */\ntag_36:\n    /* \"#utility.yul\":1467:1468   */\n  0x00\n    /* \"#utility.yul\":1492:1556   */\n  tag_38\n    /* \"#utility.yul\":1548:1555   */\n  dup6\n    /* \"#utility.yul\":1539:1545   */\n  dup3\n    /* \"#utility.yul\":1528:1537   */\n  dup7\n    /* \"#utility.yul\":1524:1546   */\n  add\n    /* \"#utility.yul\":1492:1556   */\n  tag_12\n  jump\t// in\ntag_38:\n    /* \"#utility.yul\":1482:1556   */\n  swap3\n  pop\n    /* \"#utility.yul\":1438:1566   */\n  pop\n    /* \"#utility.yul\":1605:1607   */\n  0x20\n    /* \"#utility.yul\":1631:1695   */\n  tag_39\n    /* \"#utility.yul\":1687:1694   */\n  dup6\n    /* \"#utility.yul\":1678:1684   */\n  dup3\n    /* \"#utility.yul\":1667:1676   */\n  dup7\n    /* \"#utility.yul\":1663:1685   */\n  add\n    /* \"#utility.yul\":1631:1695   */\n  tag_16\n  jump\t// in\ntag_39:\n    /* \"#utility.yul\":1621:1695   */\n  swap2\n  pop\n    /* \"#utility.yul\":1576:1705   */\n  pop\n    /* \"#utility.yul\":1205:1712   */\n  swap3\n  pop\n  swap3\n  swap1\n  pop\n  jump\t// out\n    /* \"output\":715:6454  contract campaign {... */\ntag_6:\n  dataSize(sub_0)\n  dup1\n  dataOffset(sub_0)\n  0x00\n  codecopy\n  0x00\n  return\nstop\n\nsub_0: assembly {\n        /* \"output\":715:6454  contract campaign {... */\n      mstore(0x40, 0x80)\n      jumpi(tag_1, lt(calldatasize, 0x04))\n      shr(0xe0, calldataload(0x00))\n      dup1\n      0x8813ce12\n      gt\n      tag_18\n      jumpi\n      dup1\n      0x9213aa33\n      gt\n      tag_19\n      jumpi\n      dup1\n      0x9213aa33\n      eq\n      tag_14\n      jumpi\n      dup1\n      0xb85dfb80\n      eq\n      tag_15\n      jumpi\n      dup1\n      0xb8f4ba03\n      eq\n      tag_16\n      jumpi\n      dup1\n      0xd7d1bbdb\n      eq\n      tag_17\n      jumpi\n      jump(tag_2)\n    tag_19:\n      dup1\n      0x8813ce12\n      eq\n      tag_10\n      jumpi\n      dup1\n      0x8a9cfd55\n      eq\n      tag_11\n      jumpi\n      dup1\n      0x8dde0840\n      eq\n      tag_12\n      jumpi\n      dup1\n      0x900551a8\n      eq\n      tag_13\n      jumpi\n      jump(tag_2)\n    tag_18:\n      dup1\n      0x3fad1834\n      gt\n      tag_20\n      jumpi\n      dup1\n      0x3fad1834\n      eq\n      tag_6\n      jumpi\n      dup1\n      0x4051ddac\n      eq\n      tag_7\n      jumpi\n      dup1\n      0x481c6a75\n      eq\n      tag_8\n      jumpi\n      dup1\n      0x81d12c58\n      eq\n      tag_9\n      jumpi\n      jump(tag_2)\n    tag_20:\n      dup1\n      0x03441006\n      eq\n      tag_3\n      jumpi\n      dup1\n      0x18513993\n      eq\n      tag_4\n      jumpi\n      dup1\n      0x30f3e3da\n      eq\n      tag_5\n      jumpi\n      jump(tag_2)\n    tag_1:\n      jumpi(tag_2, calldatasize)\n      stop\n    tag_2:\n      0x00\n      dup1\n      revert\n        /* \"output\":5042:6073  function finalizeRequest(uint index) public managerOnly {... */\n    tag_3:\n      callvalue\n      dup1\n      iszero\n      tag_23\n      jumpi\n      0x00\n      dup1\n      revert\n    tag_23:\n      pop\n      tag_24\n      0x04\n      dup1\n      calldatasize\n      sub\n      dup2\n      add\n      swap1\n      tag_25\n      swap2\n      swap1\n      tag_26\n      jump\t// in\n    tag_25:\n      tag_27\n      jump\t// in\n    tag_24:\n      stop\n        /* \"output\":4757:5034  function getBackerApprovedRequests(address backerAddress) public view managerOnly returns (Request [] memory) {... */\n    tag_4:\n      callvalue\n      dup1\n      iszero\n      tag_28\n      jumpi\n      0x00\n      dup1\n      revert\n    tag_28:\n      pop\n      tag_29\n      0x04\n      dup1\n      calldatasize\n      sub\n      dup2\n      add\n      swap1\n      tag_30\n      swap2\n      swap1\n      tag_31\n      jump\t// in\n    tag_30:\n      tag_32\n      jump\t// in\n    tag_29:\n      mload(0x40)\n      tag_33\n      swap2\n      swap1\n      tag_34\n      jump\t// in\n    tag_33:\n      mload(0x40)\n      dup1\n      swap2\n      sub\n      swap1\n      return\n        /* \"output\":3695:3801  function getBackers() public view returns (address payable [] memory) {... */\n    tag_5:\n      callvalue\n      dup1\n      iszero\n      tag_35\n      jumpi\n      0x00\n      dup1\n      revert\n    tag_35:\n      pop\n      tag_36\n      tag_37\n      jump\t// in\n    tag_36:\n      mload(0x40)\n      tag_38\n      swap2\n      swap1\n      tag_39\n      jump\t// in\n    tag_38:\n      mload(0x40)\n      dup1\n      swap2\n      sub\n      swap1\n      return\n        /* \"output\":6356:6451  function getRequestCount() public view returns (uint) {... */\n    tag_6:\n      callvalue\n      dup1\n      iszero\n      tag_40\n      jumpi\n      0x00\n      dup1\n      revert\n    tag_40:\n      pop\n      tag_41\n      tag_42\n      jump\t// in\n    tag_41:\n      mload(0x40)\n      tag_43\n      swap2\n      swap1\n      tag_44\n      jump\t// in\n    tag_43:\n      mload(0x40)\n      dup1\n      swap2\n      sub\n      swap1\n      return\n        /* \"output\":6081:6348  function getSummary() public view returns (uint, uint, uint, uint, address) {... */\n    tag_7:\n      callvalue\n      dup1\n      iszero\n      tag_45\n      jumpi\n      0x00\n      dup1\n      revert\n    tag_45:\n      pop\n      tag_46\n      tag_47\n      jump\t// in\n    tag_46:\n      mload(0x40)\n      tag_48\n      swap6\n      swap5\n      swap4\n      swap3\n      swap2\n      swap1\n      tag_49\n      jump\t// in\n    tag_48:\n      mload(0x40)\n      dup1\n      swap2\n      sub\n      swap1\n      return\n        /* \"output\":1236:1258  address public manager */\n    tag_8:\n      callvalue\n      dup1\n      iszero\n      tag_50\n      jumpi\n      0x00\n      dup1\n      revert\n    tag_50:\n      pop\n      tag_51\n      tag_52\n      jump\t// in\n    tag_51:\n      mload(0x40)\n      tag_53\n      swap2\n      swap1\n      tag_54\n      jump\t// in\n    tag_53:\n      mload(0x40)\n      dup1\n      swap2\n      sub\n      swap1\n      return\n        /* \"output\":1203:1229  Request [] public requests */\n    tag_9:\n      callvalue\n      dup1\n      iszero\n      tag_55\n      jumpi\n      0x00\n      dup1\n      revert\n    tag_55:\n      pop\n      tag_56\n      0x04\n      dup1\n      calldatasize\n      sub\n      dup2\n      add\n      swap1\n      tag_57\n      swap2\n      swap1\n      tag_26\n      jump\t// in\n    tag_57:\n      tag_58\n      jump\t// in\n    tag_56:\n      mload(0x40)\n      tag_59\n      swap7\n      swap6\n      swap5\n      swap4\n      swap3\n      swap2\n      swap1\n      tag_60\n      jump\t// in\n    tag_59:\n      mload(0x40)\n      dup1\n      swap2\n      sub\n      swap1\n      return\n        /* \"output\":3846:3943  function getRequests() public view returns (Request [] memory) {... */\n    tag_10:\n      callvalue\n      dup1\n      iszero\n      tag_61\n      jumpi\n      0x00\n      dup1\n      revert\n    tag_61:\n      pop\n      tag_62\n      tag_63\n      jump\t// in\n    tag_62:\n      mload(0x40)\n      tag_64\n      swap2\n      swap1\n      tag_34\n      jump\t// in\n    tag_64:\n      mload(0x40)\n      dup1\n      swap2\n      sub\n      swap1\n      return\n        /* \"output\":2616:3069  function createRequest(string memory description, uint value, address recipient) public managerOnly returns (Request memory){... */\n    tag_11:\n      callvalue\n      dup1\n      iszero\n      tag_65\n      jumpi\n      0x00\n      dup1\n      revert\n    tag_65:\n      pop\n      tag_66\n      0x04\n      dup1\n      calldatasize\n      sub\n      dup2\n      add\n      swap1\n      tag_67\n      swap2\n      swap1\n      tag_68\n      jump\t// in\n    tag_67:\n      tag_69\n      jump\t// in\n    tag_66:\n      mload(0x40)\n      tag_70\n      swap2\n      swap1\n      tag_71\n      jump\t// in\n    tag_70:\n      mload(0x40)\n      dup1\n      swap2\n      sub\n      swap1\n      return\n        /* \"output\":3119:3496  function back() public payable {... */\n    tag_12:\n      tag_72\n      tag_73\n      jump\t// in\n    tag_72:\n      stop\n        /* \"output\":3540:3651  function returnBalance() public managerOnly view returns (uint) {... */\n    tag_13:\n      callvalue\n      dup1\n      iszero\n      tag_74\n      jumpi\n      0x00\n      dup1\n      revert\n    tag_74:\n      pop\n      tag_75\n      tag_76\n      jump\t// in\n    tag_75:\n      mload(0x40)\n      tag_77\n      swap2\n      swap1\n      tag_44\n      jump\t// in\n    tag_77:\n      mload(0x40)\n      dup1\n      swap2\n      sub\n      swap1\n      return\n        /* \"output\":1265:1301  address payable [] public backersArr */\n    tag_14:\n      callvalue\n      dup1\n      iszero\n      tag_78\n      jumpi\n      0x00\n      dup1\n      revert\n    tag_78:\n      pop\n      tag_79\n      0x04\n      dup1\n      calldatasize\n      sub\n      dup2\n      add\n      swap1\n      tag_80\n      swap2\n      swap1\n      tag_26\n      jump\t// in\n    tag_80:\n      tag_81\n      jump\t// in\n    tag_79:\n      mload(0x40)\n      tag_82\n      swap2\n      swap1\n      tag_83\n      jump\t// in\n    tag_82:\n      mload(0x40)\n      dup1\n      swap2\n      sub\n      swap1\n      return\n        /* \"output\":1519:1559  mapping (address => uint) public backers */\n    tag_15:\n      callvalue\n      dup1\n      iszero\n      tag_84\n      jumpi\n      0x00\n      dup1\n      revert\n    tag_84:\n      pop\n      tag_85\n      0x04\n      dup1\n      calldatasize\n      sub\n      dup2\n      add\n      swap1\n      tag_86\n      swap2\n      swap1\n      tag_31\n      jump\t// in\n    tag_86:\n      tag_87\n      jump\t// in\n    tag_85:\n      mload(0x40)\n      tag_88\n      swap2\n      swap1\n      tag_44\n      jump\t// in\n    tag_88:\n      mload(0x40)\n      dup1\n      swap2\n      sub\n      swap1\n      return\n        /* \"output\":1647:1708  mapping (address => Request []) public requestBackerRelations */\n    tag_16:\n      callvalue\n      dup1\n      iszero\n      tag_89\n      jumpi\n      0x00\n      dup1\n      revert\n    tag_89:\n      pop\n      tag_90\n      0x04\n      dup1\n      calldatasize\n      sub\n      dup2\n      add\n      swap1\n      tag_91\n      swap2\n      swap1\n      tag_92\n      jump\t// in\n    tag_91:\n      tag_93\n      jump\t// in\n    tag_90:\n      mload(0x40)\n      tag_94\n      swap7\n      swap6\n      swap5\n      swap4\n      swap3\n      swap2\n      swap1\n      tag_60\n      jump\t// in\n    tag_94:\n      mload(0x40)\n      dup1\n      swap2\n      sub\n      swap1\n      return\n        /* \"output\":4017:4669  function approveRequest(uint index) public backerOnly {... */\n    tag_17:\n      callvalue\n      dup1\n      iszero\n      tag_95\n      jumpi\n      0x00\n      dup1\n      revert\n    tag_95:\n      pop\n      tag_96\n      0x04\n      dup1\n      calldatasize\n      sub\n      dup2\n      add\n      swap1\n      tag_97\n      swap2\n      swap1\n      tag_26\n      jump\t// in\n    tag_97:\n      tag_98\n      jump\t// in\n    tag_96:\n      stop\n        /* \"output\":5042:6073  function finalizeRequest(uint index) public managerOnly {... */\n    tag_27:\n        /* \"output\":1869:1876  manager */\n      0x01\n      0x00\n      swap1\n      sload\n      swap1\n      0x0100\n      exp\n      swap1\n      div\n      0xffffffffffffffffffffffffffffffffffffffff\n      and\n        /* \"output\":1855:1876  msg.sender == manager */\n      0xffffffffffffffffffffffffffffffffffffffff\n      and\n        /* \"output\":1855:1865  msg.sender */\n      caller\n        /* \"output\":1855:1876  msg.sender == manager */\n      0xffffffffffffffffffffffffffffffffffffffff\n      and\n      eq\n        /* \"output\":1847:1928  require(msg.sender == manager, \"This function can only be called by the manager\") */\n      tag_100\n      jumpi\n      mload(0x40)\n      0x08c379a000000000000000000000000000000000000000000000000000000000\n      dup2\n      mstore\n      0x04\n      add\n      tag_101\n      swap1\n      tag_102\n      jump\t// in\n    tag_101:\n      mload(0x40)\n      dup1\n      swap2\n      sub\n      swap1\n      revert\n    tag_100:\n        /* \"output\":5109:5142  Request storage requestToFinalize */\n      0x00\n        /* \"output\":5145:5153  requests */\n      dup1\n        /* \"output\":5154:5159  index */\n      dup3\n        /* \"output\":5145:5160  requests[index] */\n      dup2\n      sload\n      dup2\n      lt\n      tag_104\n      jumpi\n      tag_105\n      tag_106\n      jump\t// in\n    tag_105:\n    tag_104:\n      swap1\n      0x00\n      mstore\n      keccak256(0x00, 0x20)\n      swap1\n      0x04\n      mul\n      add\n        /* \"output\":5109:5160  Request storage requestToFinalize = requests[index] */\n      swap1\n      pop\n        /* \"output\":5340:5341  2 */\n      0x02\n        /* \"output\":5320:5330  backersArr */\n      dup1\n        /* \"output\":5320:5337  backersArr.length */\n      dup1\n      sload\n      swap1\n      pop\n        /* \"output\":5320:5341  backersArr.length / 2 */\n      tag_108\n      swap2\n      swap1\n      tag_109\n      jump\t// in\n    tag_108:\n        /* \"output\":5290:5307  requestToFinalize */\n      dup2\n        /* \"output\":5290:5317  requestToFinalize.approvers */\n      0x03\n      add\n      sload\n        /* \"output\":5290:5341  requestToFinalize.approvers > backersArr.length / 2 */\n      gt\n        /* \"output\":5282:5382  require(requestToFinalize.approvers > backersArr.length / 2, \"There are not enough positives votes\") */\n      tag_110\n      jumpi\n      mload(0x40)\n      0x08c379a000000000000000000000000000000000000000000000000000000000\n      dup2\n      mstore\n      0x04\n      add\n      tag_111\n      swap1\n      tag_112\n      jump\t// in\n    tag_111:\n      mload(0x40)\n      dup1\n      swap2\n      sub\n      swap1\n      revert\n    tag_110:\n        /* \"output\":5466:5483  requestToFinalize */\n      dup1\n        /* \"output\":5466:5495  requestToFinalize.isCompleted */\n      0x02\n      add\n      0x14\n      swap1\n      sload\n      swap1\n      0x0100\n      exp\n      swap1\n      div\n      0xff\n      and\n        /* \"output\":5465:5495  !requestToFinalize.isCompleted */\n      iszero\n        /* \"output\":5457:5539  require(!requestToFinalize.isCompleted, \"This request has already been completed\") */\n      tag_113\n      jumpi\n      mload(0x40)\n      0x08c379a000000000000000000000000000000000000000000000000000000000\n      dup2\n      mstore\n      0x04\n      add\n      tag_114\n      swap1\n      tag_115\n      jump\t// in\n    tag_114:\n      mload(0x40)\n      dup1\n      swap2\n      sub\n      swap1\n      revert\n    tag_113:\n        /* \"output\":5614:5631  requestToFinalize */\n      dup1\n        /* \"output\":5614:5642  requestToFinalize.isCanceled */\n      0x02\n      add\n      0x15\n      swap1\n      sload\n      swap1\n      0x0100\n      exp\n      swap1\n      div\n      0xff\n      and\n        /* \"output\":5613:5642  !requestToFinalize.isCanceled */\n      iszero\n        /* \"output\":5605:5677  require(!requestToFinalize.isCanceled, \"This request has been canceled\") */\n      tag_116\n      jumpi\n      mload(0x40)\n      0x08c379a000000000000000000000000000000000000000000000000000000000\n      dup2\n      mstore\n      0x04\n      add\n      tag_117\n      swap1\n      tag_118\n      jump\t// in\n    tag_117:\n      mload(0x40)\n      dup1\n      swap2\n      sub\n      swap1\n      revert\n    tag_116:\n        /* \"output\":5805:5822  requestToFinalize */\n      dup1\n        /* \"output\":5805:5828  requestToFinalize.value */\n      0x01\n      add\n      sload\n        /* \"output\":5781:5802  address(this).balance */\n      selfbalance\n        /* \"output\":5781:5828  address(this).balance > requestToFinalize.value */\n      gt\n        /* \"output\":5773:5872  require(address(this).balance > requestToFinalize.value, \"The campaign does not have enough funds\") */\n      tag_119\n      jumpi\n      mload(0x40)\n      0x08c379a000000000000000000000000000000000000000000000000000000000\n      dup2\n      mstore\n      0x04\n      add\n      tag_120\n      swap1\n      tag_121\n      jump\t// in\n    tag_120:\n      mload(0x40)\n      dup1\n      swap2\n      sub\n      swap1\n      revert\n    tag_119:\n        /* \"output\":5980:5984  true */\n      0x01\n        /* \"output\":5948:5965  requestToFinalize */\n      dup2\n        /* \"output\":5948:5977  requestToFinalize.isCompleted */\n      0x02\n      add\n      0x14\n        /* \"output\":5948:5984  requestToFinalize.isCompleted = true */\n      0x0100\n      exp\n      dup2\n      sload\n      dup2\n      0xff\n      mul\n      not\n      and\n      swap1\n      dup4\n      iszero\n      iszero\n      mul\n      or\n      swap1\n      sstore\n      pop\n        /* \"output\":6003:6020  requestToFinalize */\n      dup1\n        /* \"output\":6003:6030  requestToFinalize.recipient */\n      0x02\n      add\n      0x00\n      swap1\n      sload\n      swap1\n      0x0100\n      exp\n      swap1\n      div\n      0xffffffffffffffffffffffffffffffffffffffff\n      and\n        /* \"output\":5995:6040  payable(requestToFinalize.recipient).transfer */\n      0xffffffffffffffffffffffffffffffffffffffff\n      and\n        /* \"output\":5995:6065  payable(requestToFinalize.recipient).transfer(requestToFinalize.value) */\n      0x08fc\n        /* \"output\":6041:6058  requestToFinalize */\n      dup3\n        /* \"output\":6041:6064  requestToFinalize.value */\n      0x01\n      add\n      sload\n        /* \"output\":5995:6065  payable(requestToFinalize.recipient).transfer(requestToFinalize.value) */\n      swap1\n      dup2\n      iszero\n      mul\n      swap1\n      mload(0x40)\n      0x00\n      mload(0x40)\n      dup1\n      dup4\n      sub\n      dup2\n      dup6\n      dup9\n      dup9\n      call\n      swap4\n      pop\n      pop\n      pop\n      pop\n      iszero\n      dup1\n      iszero\n      tag_123\n      jumpi\n      returndatasize\n      0x00\n      dup1\n      returndatacopy\n      revert(0x00, returndatasize)\n    tag_123:\n      pop\n        /* \"output\":5098:6073  {... */\n      pop\n        /* \"output\":5042:6073  function finalizeRequest(uint index) public managerOnly {... */\n      pop\n      jump\t// out\n        /* \"output\":4757:5034  function getBackerApprovedRequests(address backerAddress) public view managerOnly returns (Request [] memory) {... */\n    tag_32:\n        /* \"output\":4848:4865  Request [] memory */\n      0x60\n        /* \"output\":1869:1876  manager */\n      0x01\n      0x00\n      swap1\n      sload\n      swap1\n      0x0100\n      exp\n      swap1\n      div\n      0xffffffffffffffffffffffffffffffffffffffff\n      and\n        /* \"output\":1855:1876  msg.sender == manager */\n      0xffffffffffffffffffffffffffffffffffffffff\n      and\n        /* \"output\":1855:1865  msg.sender */\n      caller\n        /* \"output\":1855:1876  msg.sender == manager */\n      0xffffffffffffffffffffffffffffffffffffffff\n      and\n      eq\n        /* \"output\":1847:1928  require(msg.sender == manager, \"This function can only be called by the manager\") */\n      tag_125\n      jumpi\n      mload(0x40)\n      0x08c379a000000000000000000000000000000000000000000000000000000000\n      dup2\n      mstore\n      0x04\n      add\n      tag_126\n      swap1\n      tag_102\n      jump\t// in\n    tag_126:\n      mload(0x40)\n      dup1\n      swap2\n      sub\n      swap1\n      revert\n    tag_125:\n        /* \"output\":4912:4931  minimumContribution */\n      sload(0x03)\n        /* \"output\":4886:4893  backers */\n      0x04\n        /* \"output\":4886:4908  backers[backerAddress] */\n      0x00\n        /* \"output\":4894:4907  backerAddress */\n      dup5\n        /* \"output\":4886:4908  backers[backerAddress] */\n      0xffffffffffffffffffffffffffffffffffffffff\n      and\n      0xffffffffffffffffffffffffffffffffffffffff\n      and\n      dup2\n      mstore\n      0x20\n      add\n      swap1\n      dup2\n      mstore\n      0x20\n      add\n      0x00\n      keccak256\n      sload\n        /* \"output\":4886:4931  backers[backerAddress] >= minimumContribution */\n      lt\n      iszero\n        /* \"output\":4878:4969  require(backers[backerAddress] >= minimumContribution, \"The given address is not a backer\") */\n      tag_128\n      jumpi\n      mload(0x40)\n      0x08c379a000000000000000000000000000000000000000000000000000000000\n      dup2\n      mstore\n      0x04\n      add\n      tag_129\n      swap1\n      tag_130\n      jump\t// in\n    tag_129:\n      mload(0x40)\n      dup1\n      swap2\n      sub\n      swap1\n      revert\n    tag_128:\n        /* \"output\":4989:5011  requestBackerRelations */\n      0x05\n        /* \"output\":4989:5026  requestBackerRelations[backerAddress] */\n      0x00\n        /* \"output\":5012:5025  backerAddress */\n      dup4\n        /* \"output\":4989:5026  requestBackerRelations[backerAddress] */\n      0xffffffffffffffffffffffffffffffffffffffff\n      and\n      0xffffffffffffffffffffffffffffffffffffffff\n      and\n      dup2\n      mstore\n      0x20\n      add\n      swap1\n      dup2\n      mstore\n      0x20\n      add\n      0x00\n      keccak256\n        /* \"output\":4982:5026  return requestBackerRelations[backerAddress] */\n      dup1\n      sload\n      dup1\n      0x20\n      mul\n      0x20\n      add\n      mload(0x40)\n      swap1\n      dup2\n      add\n      0x40\n      mstore\n      dup1\n      swap3\n      swap2\n      swap1\n      dup2\n      dup2\n      mstore\n      0x20\n      add\n      0x00\n      swap1\n    tag_131:\n      dup3\n      dup3\n      lt\n      iszero\n      tag_132\n      jumpi\n      dup4\n      dup3\n      swap1\n      0x00\n      mstore\n      keccak256(0x00, 0x20)\n      swap1\n      0x04\n      mul\n      add\n      mload(0x40)\n      dup1\n      0xc0\n      add\n      0x40\n      mstore\n      swap1\n      dup2\n      0x00\n      dup3\n      add\n      dup1\n      sload\n      tag_134\n      swap1\n      tag_135\n      jump\t// in\n    tag_134:\n      dup1\n      0x1f\n      add\n      0x20\n      dup1\n      swap2\n      div\n      mul\n      0x20\n      add\n      mload(0x40)\n      swap1\n      dup2\n      add\n      0x40\n      mstore\n      dup1\n      swap3\n      swap2\n      swap1\n      dup2\n      dup2\n      mstore\n      0x20\n      add\n      dup3\n      dup1\n      sload\n      tag_136\n      swap1\n      tag_135\n      jump\t// in\n    tag_136:\n      dup1\n      iszero\n      tag_137\n      jumpi\n      dup1\n      0x1f\n      lt\n      tag_138\n      jumpi\n      0x0100\n      dup1\n      dup4\n      sload\n      div\n      mul\n      dup4\n      mstore\n      swap2\n      0x20\n      add\n      swap2\n      jump(tag_137)\n    tag_138:\n      dup3\n      add\n      swap2\n      swap1\n      0x00\n      mstore\n      keccak256(0x00, 0x20)\n      swap1\n    tag_139:\n      dup2\n      sload\n      dup2\n      mstore\n      swap1\n      0x01\n      add\n      swap1\n      0x20\n      add\n      dup1\n      dup4\n      gt\n      tag_139\n      jumpi\n      dup3\n      swap1\n      sub\n      0x1f\n      and\n      dup3\n      add\n      swap2\n    tag_137:\n      pop\n      pop\n      pop\n      pop\n      pop\n      dup2\n      mstore\n      0x20\n      add\n      0x01\n      dup3\n      add\n      sload\n      dup2\n      mstore\n      0x20\n      add\n      0x02\n      dup3\n      add\n      0x00\n      swap1\n      sload\n      swap1\n      0x0100\n      exp\n      swap1\n      div\n      0xffffffffffffffffffffffffffffffffffffffff\n      and\n      0xffffffffffffffffffffffffffffffffffffffff\n      and\n      0xffffffffffffffffffffffffffffffffffffffff\n      and\n      dup2\n      mstore\n      0x20\n      add\n      0x02\n      dup3\n      add\n      0x14\n      swap1\n      sload\n      swap1\n      0x0100\n      exp\n      swap1\n      div\n      0xff\n      and\n      iszero\n      iszero\n      iszero\n      iszero\n      dup2\n      mstore\n      0x20\n      add\n      0x02\n      dup3\n      add\n      0x15\n      swap1\n      sload\n      swap1\n      0x0100\n      exp\n      swap1\n      div\n      0xff\n      and\n      iszero\n      iszero\n      iszero\n      iszero\n      dup2\n      mstore\n      0x20\n      add\n      0x03\n      dup3\n      add\n      sload\n      dup2\n      mstore\n      pop\n      pop\n      dup2\n      mstore\n      0x20\n      add\n      swap1\n      0x01\n      add\n      swap1\n      jump(tag_131)\n    tag_132:\n      pop\n      pop\n      pop\n      pop\n      swap1\n      pop\n        /* \"output\":4757:5034  function getBackerApprovedRequests(address backerAddress) public view managerOnly returns (Request [] memory) {... */\n      swap2\n      swap1\n      pop\n      jump\t// out\n        /* \"output\":3695:3801  function getBackers() public view returns (address payable [] memory) {... */\n    tag_37:\n        /* \"output\":3738:3763  address payable [] memory */\n      0x60\n        /* \"output\":3783:3793  backersArr */\n      0x02\n        /* \"output\":3776:3793  return backersArr */\n      dup1\n      sload\n      dup1\n      0x20\n      mul\n      0x20\n      add\n      mload(0x40)\n      swap1\n      dup2\n      add\n      0x40\n      mstore\n      dup1\n      swap3\n      swap2\n      swap1\n      dup2\n      dup2\n      mstore\n      0x20\n      add\n      dup3\n      dup1\n      sload\n      dup1\n      iszero\n      tag_141\n      jumpi\n      0x20\n      mul\n      dup3\n      add\n      swap2\n      swap1\n      0x00\n      mstore\n      keccak256(0x00, 0x20)\n      swap1\n    tag_142:\n      dup2\n      0x00\n      swap1\n      sload\n      swap1\n      0x0100\n      exp\n      swap1\n      div\n      0xffffffffffffffffffffffffffffffffffffffff\n      and\n      0xffffffffffffffffffffffffffffffffffffffff\n      and\n      dup2\n      mstore\n      0x20\n      add\n      swap1\n      0x01\n      add\n      swap1\n      dup1\n      dup4\n      gt\n      tag_142\n      jumpi\n    tag_141:\n      pop\n      pop\n      pop\n      pop\n      pop\n      swap1\n      pop\n        /* \"output\":3695:3801  function getBackers() public view returns (address payable [] memory) {... */\n      swap1\n      jump\t// out\n        /* \"output\":6356:6451  function getRequestCount() public view returns (uint) {... */\n    tag_42:\n        /* \"output\":6404:6408  uint */\n      0x00\n        /* \"output\":6428:6436  requests */\n      dup1\n        /* \"output\":6428:6443  requests.length */\n      dup1\n      sload\n      swap1\n      pop\n        /* \"output\":6421:6443  return requests.length */\n      swap1\n      pop\n        /* \"output\":6356:6451  function getRequestCount() public view returns (uint) {... */\n      swap1\n      jump\t// out\n        /* \"output\":6081:6348  function getSummary() public view returns (uint, uint, uint, uint, address) {... */\n    tag_47:\n        /* \"output\":6124:6128  uint */\n      0x00\n        /* \"output\":6130:6134  uint */\n      dup1\n        /* \"output\":6136:6140  uint */\n      0x00\n        /* \"output\":6142:6146  uint */\n      dup1\n        /* \"output\":6148:6155  address */\n      0x00\n        /* \"output\":6190:6209  minimumContribution */\n      sload(0x03)\n        /* \"output\":6224:6245  address(this).balance */\n      selfbalance\n        /* \"output\":6260:6268  requests */\n      0x00\n        /* \"output\":6260:6275  requests.length */\n      dup1\n      sload\n      swap1\n      pop\n        /* \"output\":6290:6300  backersArr */\n      0x02\n        /* \"output\":6290:6307  backersArr.length */\n      dup1\n      sload\n      swap1\n      pop\n        /* \"output\":6322:6329  manager */\n      0x01\n      0x00\n      swap1\n      sload\n      swap1\n      0x0100\n      exp\n      swap1\n      div\n      0xffffffffffffffffffffffffffffffffffffffff\n      and\n        /* \"output\":6168:6340  return (... */\n      swap5\n      pop\n      swap5\n      pop\n      swap5\n      pop\n      swap5\n      pop\n      swap5\n      pop\n        /* \"output\":6081:6348  function getSummary() public view returns (uint, uint, uint, uint, address) {... */\n      swap1\n      swap2\n      swap3\n      swap4\n      swap5\n      jump\t// out\n        /* \"output\":1236:1258  address public manager */\n    tag_52:\n      0x01\n      0x00\n      swap1\n      sload\n      swap1\n      0x0100\n      exp\n      swap1\n      div\n      0xffffffffffffffffffffffffffffffffffffffff\n      and\n      dup2\n      jump\t// out\n        /* \"output\":1203:1229  Request [] public requests */\n    tag_58:\n      0x00\n      dup2\n      dup2\n      sload\n      dup2\n      lt\n      tag_145\n      jumpi\n      0x00\n      dup1\n      revert\n    tag_145:\n      swap1\n      0x00\n      mstore\n      keccak256(0x00, 0x20)\n      swap1\n      0x04\n      mul\n      add\n      0x00\n      swap2\n      pop\n      swap1\n      pop\n      dup1\n      0x00\n      add\n      dup1\n      sload\n      tag_147\n      swap1\n      tag_135\n      jump\t// in\n    tag_147:\n      dup1\n      0x1f\n      add\n      0x20\n      dup1\n      swap2\n      div\n      mul\n      0x20\n      add\n      mload(0x40)\n      swap1\n      dup2\n      add\n      0x40\n      mstore\n      dup1\n      swap3\n      swap2\n      swap1\n      dup2\n      dup2\n      mstore\n      0x20\n      add\n      dup3\n      dup1\n      sload\n      tag_148\n      swap1\n      tag_135\n      jump\t// in\n    tag_148:\n      dup1\n      iszero\n      tag_149\n      jumpi\n      dup1\n      0x1f\n      lt\n      tag_150\n      jumpi\n      0x0100\n      dup1\n      dup4\n      sload\n      div\n      mul\n      dup4\n      mstore\n      swap2\n      0x20\n      add\n      swap2\n      jump(tag_149)\n    tag_150:\n      dup3\n      add\n      swap2\n      swap1\n      0x00\n      mstore\n      keccak256(0x00, 0x20)\n      swap1\n    tag_151:\n      dup2\n      sload\n      dup2\n      mstore\n      swap1\n      0x01\n      add\n      swap1\n      0x20\n      add\n      dup1\n      dup4\n      gt\n      tag_151\n      jumpi\n      dup3\n      swap1\n      sub\n      0x1f\n      and\n      dup3\n      add\n      swap2\n    tag_149:\n      pop\n      pop\n      pop\n      pop\n      pop\n      swap1\n      dup1\n      0x01\n      add\n      sload\n      swap1\n      dup1\n      0x02\n      add\n      0x00\n      swap1\n      sload\n      swap1\n      0x0100\n      exp\n      swap1\n      div\n      0xffffffffffffffffffffffffffffffffffffffff\n      and\n      swap1\n      dup1\n      0x02\n      add\n      0x14\n      swap1\n      sload\n      swap1\n      0x0100\n      exp\n      swap1\n      div\n      0xff\n      and\n      swap1\n      dup1\n      0x02\n      add\n      0x15\n      swap1\n      sload\n      swap1\n      0x0100\n      exp\n      swap1\n      div\n      0xff\n      and\n      swap1\n      dup1\n      0x03\n      add\n      sload\n      swap1\n      pop\n      dup7\n      jump\t// out\n        /* \"output\":3846:3943  function getRequests() public view returns (Request [] memory) {... */\n    tag_63:\n        /* \"output\":3890:3907  Request [] memory */\n      0x60\n        /* \"output\":3927:3935  requests */\n      0x00\n        /* \"output\":3920:3935  return requests */\n      dup1\n      sload\n      dup1\n      0x20\n      mul\n      0x20\n      add\n      mload(0x40)\n      swap1\n      dup2\n      add\n      0x40\n      mstore\n      dup1\n      swap3\n      swap2\n      swap1\n      dup2\n      dup2\n      mstore\n      0x20\n      add\n      0x00\n      swap1\n    tag_153:\n      dup3\n      dup3\n      lt\n      iszero\n      tag_154\n      jumpi\n      dup4\n      dup3\n      swap1\n      0x00\n      mstore\n      keccak256(0x00, 0x20)\n      swap1\n      0x04\n      mul\n      add\n      mload(0x40)\n      dup1\n      0xc0\n      add\n      0x40\n      mstore\n      swap1\n      dup2\n      0x00\n      dup3\n      add\n      dup1\n      sload\n      tag_156\n      swap1\n      tag_135\n      jump\t// in\n    tag_156:\n      dup1\n      0x1f\n      add\n      0x20\n      dup1\n      swap2\n      div\n      mul\n      0x20\n      add\n      mload(0x40)\n      swap1\n      dup2\n      add\n      0x40\n      mstore\n      dup1\n      swap3\n      swap2\n      swap1\n      dup2\n      dup2\n      mstore\n      0x20\n      add\n      dup3\n      dup1\n      sload\n      tag_157\n      swap1\n      tag_135\n      jump\t// in\n    tag_157:\n      dup1\n      iszero\n      tag_158\n      jumpi\n      dup1\n      0x1f\n      lt\n      tag_159\n      jumpi\n      0x0100\n      dup1\n      dup4\n      sload\n      div\n      mul\n      dup4\n      mstore\n      swap2\n      0x20\n      add\n      swap2\n      jump(tag_158)\n    tag_159:\n      dup3\n      add\n      swap2\n      swap1\n      0x00\n      mstore\n      keccak256(0x00, 0x20)\n      swap1\n    tag_160:\n      dup2\n      sload\n      dup2\n      mstore\n      swap1\n      0x01\n      add\n      swap1\n      0x20\n      add\n      dup1\n      dup4\n      gt\n      tag_160\n      jumpi\n      dup3\n      swap1\n      sub\n      0x1f\n      and\n      dup3\n      add\n      swap2\n    tag_158:\n      pop\n      pop\n      pop\n      pop\n      pop\n      dup2\n      mstore\n      0x20\n      add\n      0x01\n      dup3\n      add\n      sload\n      dup2\n      mstore\n      0x20\n      add\n      0x02\n      dup3\n      add\n      0x00\n      swap1\n      sload\n      swap1\n      0x0100\n      exp\n      swap1\n      div\n      0xffffffffffffffffffffffffffffffffffffffff\n      and\n      0xffffffffffffffffffffffffffffffffffffffff\n      and\n      0xffffffffffffffffffffffffffffffffffffffff\n      and\n      dup2\n      mstore\n      0x20\n      add\n      0x02\n      dup3\n      add\n      0x14\n      swap1\n      sload\n      swap1\n      0x0100\n      exp\n      swap1\n      div\n      0xff\n      and\n      iszero\n      iszero\n      iszero\n      iszero\n      dup2\n      mstore\n      0x20\n      add\n      0x02\n      dup3\n      add\n      0x15\n      swap1\n      sload\n      swap1\n      0x0100\n      exp\n      swap1\n      div\n      0xff\n      and\n      iszero\n      iszero\n      iszero\n      iszero\n      dup2\n      mstore\n      0x20\n      add\n      0x03\n      dup3\n      add\n      sload\n      dup2\n      mstore\n      pop\n      pop\n      dup2\n      mstore\n      0x20\n      add\n      swap1\n      0x01\n      add\n      swap1\n      jump(tag_153)\n    tag_154:\n      pop\n      pop\n      pop\n      pop\n      swap1\n      pop\n        /* \"output\":3846:3943  function getRequests() public view returns (Request [] memory) {... */\n      swap1\n      jump\t// out\n        /* \"output\":2616:3069  function createRequest(string memory description, uint value, address recipient) public managerOnly returns (Request memory){... */\n    tag_69:\n        /* \"output\":2725:2739  Request memory */\n      tag_161\n      tag_162\n      jump\t// in\n    tag_161:\n        /* \"output\":1869:1876  manager */\n      0x01\n      0x00\n      swap1\n      sload\n      swap1\n      0x0100\n      exp\n      swap1\n      div\n      0xffffffffffffffffffffffffffffffffffffffff\n      and\n        /* \"output\":1855:1876  msg.sender == manager */\n      0xffffffffffffffffffffffffffffffffffffffff\n      and\n        /* \"output\":1855:1865  msg.sender */\n      caller\n        /* \"output\":1855:1876  msg.sender == manager */\n      0xffffffffffffffffffffffffffffffffffffffff\n      and\n      eq\n        /* \"output\":1847:1928  require(msg.sender == manager, \"This function can only be called by the manager\") */\n      tag_164\n      jumpi\n      mload(0x40)\n      0x08c379a000000000000000000000000000000000000000000000000000000000\n      dup2\n      mstore\n      0x04\n      add\n      tag_165\n      swap1\n      tag_102\n      jump\t// in\n    tag_165:\n      mload(0x40)\n      dup1\n      swap2\n      sub\n      swap1\n      revert\n    tag_164:\n        /* \"output\":2751:2776  Request memory newRequest */\n      0x00\n        /* \"output\":2779:2993  Request({... */\n      mload(0x40)\n      dup1\n      0xc0\n      add\n      0x40\n      mstore\n      dup1\n        /* \"output\":2815:2826  description */\n      dup7\n        /* \"output\":2779:2993  Request({... */\n      dup2\n      mstore\n      0x20\n      add\n        /* \"output\":2848:2853  value */\n      dup6\n        /* \"output\":2779:2993  Request({... */\n      dup2\n      mstore\n      0x20\n      add\n        /* \"output\":2879:2888  recipient */\n      dup5\n        /* \"output\":2779:2993  Request({... */\n      0xffffffffffffffffffffffffffffffffffffffff\n      and\n      dup2\n      mstore\n      0x20\n      add\n        /* \"output\":2917:2922  false */\n      0x00\n        /* \"output\":2779:2993  Request({... */\n      iszero\n      iszero\n      dup2\n      mstore\n      0x20\n      add\n        /* \"output\":2949:2954  false */\n      0x00\n        /* \"output\":2779:2993  Request({... */\n      iszero\n      iszero\n      dup2\n      mstore\n      0x20\n      add\n        /* \"output\":2980:2981  0 */\n      0x00\n        /* \"output\":2779:2993  Request({... */\n      dup2\n      mstore\n      pop\n        /* \"output\":2751:2993  Request memory newRequest = Request({... */\n      swap1\n      pop\n        /* \"output\":3006:3014  requests */\n      0x00\n        /* \"output\":3020:3030  newRequest */\n      dup2\n        /* \"output\":3006:3031  requests.push(newRequest) */\n      swap1\n      dup1\n      0x01\n      dup2\n      sload\n      add\n      dup1\n      dup3\n      sstore\n      dup1\n      swap2\n      pop\n      pop\n      0x01\n      swap1\n      sub\n      swap1\n      0x00\n      mstore\n      keccak256(0x00, 0x20)\n      swap1\n      0x04\n      mul\n      add\n      0x00\n      swap1\n      swap2\n      swap1\n      swap2\n      swap1\n      swap2\n      pop\n      0x00\n      dup3\n      add\n      mload\n      dup2\n      0x00\n      add\n      swap1\n      dup1\n      mload\n      swap1\n      0x20\n      add\n      swap1\n      tag_168\n      swap3\n      swap2\n      swap1\n      tag_169\n      jump\t// in\n    tag_168:\n      pop\n      0x20\n      dup3\n      add\n      mload\n      dup2\n      0x01\n      add\n      sstore\n      0x40\n      dup3\n      add\n      mload\n      dup2\n      0x02\n      add\n      exp(0x0100, 0x00)\n      dup2\n      sload\n      dup2\n      0xffffffffffffffffffffffffffffffffffffffff\n      mul\n      not\n      and\n      swap1\n      dup4\n      0xffffffffffffffffffffffffffffffffffffffff\n      and\n      mul\n      or\n      swap1\n      sstore\n      pop\n      0x60\n      dup3\n      add\n      mload\n      dup2\n      0x02\n      add\n      exp(0x0100, 0x14)\n      dup2\n      sload\n      dup2\n      0xff\n      mul\n      not\n      and\n      swap1\n      dup4\n      iszero\n      iszero\n      mul\n      or\n      swap1\n      sstore\n      pop\n      0x80\n      dup3\n      add\n      mload\n      dup2\n      0x02\n      add\n      exp(0x0100, 0x15)\n      dup2\n      sload\n      dup2\n      0xff\n      mul\n      not\n      and\n      swap1\n      dup4\n      iszero\n      iszero\n      mul\n      or\n      swap1\n      sstore\n      pop\n      0xa0\n      dup3\n      add\n      mload\n      dup2\n      0x03\n      add\n      sstore\n      pop\n      pop\n        /* \"output\":3051:3061  newRequest */\n      dup1\n        /* \"output\":3044:3061  return newRequest */\n      swap2\n      pop\n      pop\n        /* \"output\":2616:3069  function createRequest(string memory description, uint value, address recipient) public managerOnly returns (Request memory){... */\n      swap4\n      swap3\n      pop\n      pop\n      pop\n      jump\t// out\n        /* \"output\":3119:3496  function back() public payable {... */\n    tag_73:\n        /* \"output\":3256:3275  minimumContribution */\n      sload(0x03)\n        /* \"output\":3243:3252  msg.value */\n      callvalue\n        /* \"output\":3243:3275  msg.value >= minimumContribution */\n      lt\n      iszero\n        /* \"output\":3235:3330  require(msg.value >= minimumContribution, \"You need to send at least the minimum contribution\") */\n      tag_171\n      jumpi\n      mload(0x40)\n      0x08c379a000000000000000000000000000000000000000000000000000000000\n      dup2\n      mstore\n      0x04\n      add\n      tag_172\n      swap1\n      tag_173\n      jump\t// in\n    tag_172:\n      mload(0x40)\n      dup1\n      swap2\n      sub\n      swap1\n      revert\n    tag_171:\n        /* \"output\":3371:3372  0 */\n      0x00\n        /* \"output\":3348:3355  backers */\n      0x04\n        /* \"output\":3348:3367  backers[msg.sender] */\n      0x00\n        /* \"output\":3356:3366  msg.sender */\n      caller\n        /* \"output\":3348:3367  backers[msg.sender] */\n      0xffffffffffffffffffffffffffffffffffffffff\n      and\n      0xffffffffffffffffffffffffffffffffffffffff\n      and\n      dup2\n      mstore\n      0x20\n      add\n      swap1\n      dup2\n      mstore\n      0x20\n      add\n      0x00\n      keccak256\n      sload\n        /* \"output\":3348:3372  backers[msg.sender] == 0 */\n      sub\n        /* \"output\":3344:3437  if (backers[msg.sender] == 0) {... */\n      tag_174\n      jumpi\n        /* \"output\":3389:3399  backersArr */\n      0x02\n        /* \"output\":3413:3423  msg.sender */\n      caller\n        /* \"output\":3389:3425  backersArr.push(payable(msg.sender)) */\n      swap1\n      dup1\n      0x01\n      dup2\n      sload\n      add\n      dup1\n      dup3\n      sstore\n      dup1\n      swap2\n      pop\n      pop\n      0x01\n      swap1\n      sub\n      swap1\n      0x00\n      mstore\n      keccak256(0x00, 0x20)\n      add\n      0x00\n      swap1\n      swap2\n      swap1\n      swap2\n      swap1\n      swap2\n      0x0100\n      exp\n      dup2\n      sload\n      dup2\n      0xffffffffffffffffffffffffffffffffffffffff\n      mul\n      not\n      and\n      swap1\n      dup4\n      0xffffffffffffffffffffffffffffffffffffffff\n      and\n      mul\n      or\n      swap1\n      sstore\n      pop\n        /* \"output\":3344:3437  if (backers[msg.sender] == 0) {... */\n    tag_174:\n        /* \"output\":3479:3488  msg.value */\n      callvalue\n        /* \"output\":3447:3454  backers */\n      0x04\n        /* \"output\":3447:3475  backers[payable(msg.sender)] */\n      0x00\n        /* \"output\":3463:3473  msg.sender */\n      caller\n        /* \"output\":3447:3475  backers[payable(msg.sender)] */\n      0xffffffffffffffffffffffffffffffffffffffff\n      and\n      0xffffffffffffffffffffffffffffffffffffffff\n      and\n      dup2\n      mstore\n      0x20\n      add\n      swap1\n      dup2\n      mstore\n      0x20\n      add\n      0x00\n      keccak256\n      0x00\n        /* \"output\":3447:3488  backers[payable(msg.sender)] += msg.value */\n      dup3\n      dup3\n      sload\n      tag_176\n      swap2\n      swap1\n      tag_177\n      jump\t// in\n    tag_176:\n      swap3\n      pop\n      pop\n      dup2\n      swap1\n      sstore\n      pop\n        /* \"output\":3119:3496  function back() public payable {... */\n      jump\t// out\n        /* \"output\":3540:3651  function returnBalance() public managerOnly view returns (uint) {... */\n    tag_76:\n        /* \"output\":3598:3602  uint */\n      0x00\n        /* \"output\":1869:1876  manager */\n      0x01\n      0x00\n      swap1\n      sload\n      swap1\n      0x0100\n      exp\n      swap1\n      div\n      0xffffffffffffffffffffffffffffffffffffffff\n      and\n        /* \"output\":1855:1876  msg.sender == manager */\n      0xffffffffffffffffffffffffffffffffffffffff\n      and\n        /* \"output\":1855:1865  msg.sender */\n      caller\n        /* \"output\":1855:1876  msg.sender == manager */\n      0xffffffffffffffffffffffffffffffffffffffff\n      and\n      eq\n        /* \"output\":1847:1928  require(msg.sender == manager, \"This function can only be called by the manager\") */\n      tag_179\n      jumpi\n      mload(0x40)\n      0x08c379a000000000000000000000000000000000000000000000000000000000\n      dup2\n      mstore\n      0x04\n      add\n      tag_180\n      swap1\n      tag_102\n      jump\t// in\n    tag_180:\n      mload(0x40)\n      dup1\n      swap2\n      sub\n      swap1\n      revert\n    tag_179:\n        /* \"output\":3622:3643  address(this).balance */\n      selfbalance\n        /* \"output\":3615:3643  return address(this).balance */\n      swap1\n      pop\n        /* \"output\":3540:3651  function returnBalance() public managerOnly view returns (uint) {... */\n      swap1\n      jump\t// out\n        /* \"output\":1265:1301  address payable [] public backersArr */\n    tag_81:\n      0x02\n      dup2\n      dup2\n      sload\n      dup2\n      lt\n      tag_182\n      jumpi\n      0x00\n      dup1\n      revert\n    tag_182:\n      swap1\n      0x00\n      mstore\n      keccak256(0x00, 0x20)\n      add\n      0x00\n      swap2\n      pop\n      sload\n      swap1\n      0x0100\n      exp\n      swap1\n      div\n      0xffffffffffffffffffffffffffffffffffffffff\n      and\n      dup2\n      jump\t// out\n        /* \"output\":1519:1559  mapping (address => uint) public backers */\n    tag_87:\n      mstore(0x20, 0x04)\n      dup1\n      0x00\n      mstore\n      keccak256(0x00, 0x40)\n      0x00\n      swap2\n      pop\n      swap1\n      pop\n      sload\n      dup2\n      jump\t// out\n        /* \"output\":1647:1708  mapping (address => Request []) public requestBackerRelations */\n    tag_93:\n      mstore(0x20, 0x05)\n      dup2\n      0x00\n      mstore\n      keccak256(0x00, 0x40)\n      dup2\n      dup2\n      sload\n      dup2\n      lt\n      tag_184\n      jumpi\n      0x00\n      dup1\n      revert\n    tag_184:\n      swap1\n      0x00\n      mstore\n      keccak256(0x00, 0x20)\n      swap1\n      0x04\n      mul\n      add\n      0x00\n      swap2\n      pop\n      swap2\n      pop\n      pop\n      dup1\n      0x00\n      add\n      dup1\n      sload\n      tag_186\n      swap1\n      tag_135\n      jump\t// in\n    tag_186:\n      dup1\n      0x1f\n      add\n      0x20\n      dup1\n      swap2\n      div\n      mul\n      0x20\n      add\n      mload(0x40)\n      swap1\n      dup2\n      add\n      0x40\n      mstore\n      dup1\n      swap3\n      swap2\n      swap1\n      dup2\n      dup2\n      mstore\n      0x20\n      add\n      dup3\n      dup1\n      sload\n      tag_187\n      swap1\n      tag_135\n      jump\t// in\n    tag_187:\n      dup1\n      iszero\n      tag_188\n      jumpi\n      dup1\n      0x1f\n      lt\n      tag_189\n      jumpi\n      0x0100\n      dup1\n      dup4\n      sload\n      div\n      mul\n      dup4\n      mstore\n      swap2\n      0x20\n      add\n      swap2\n      jump(tag_188)\n    tag_189:\n      dup3\n      add\n      swap2\n      swap1\n      0x00\n      mstore\n      keccak256(0x00, 0x20)\n      swap1\n    tag_190:\n      dup2\n      sload\n      dup2\n      mstore\n      swap1\n      0x01\n      add\n      swap1\n      0x20\n      add\n      dup1\n      dup4\n      gt\n      tag_190\n      jumpi\n      dup3\n      swap1\n      sub\n      0x1f\n      and\n      dup3\n      add\n      swap2\n    tag_188:\n      pop\n      pop\n      pop\n      pop\n      pop\n      swap1\n      dup1\n      0x01\n      add\n      sload\n      swap1\n      dup1\n      0x02\n      add\n      0x00\n      swap1\n      sload\n      swap1\n      0x0100\n      exp\n      swap1\n      div\n      0xffffffffffffffffffffffffffffffffffffffff\n      and\n      swap1\n      dup1\n      0x02\n      add\n      0x14\n      swap1\n      sload\n      swap1\n      0x0100\n      exp\n      swap1\n      div\n      0xff\n      and\n      swap1\n      dup1\n      0x02\n      add\n      0x15\n      swap1\n      sload\n      swap1\n      0x0100\n      exp\n      swap1\n      div\n      0xff\n      and\n      swap1\n      dup1\n      0x03\n      add\n      sload\n      swap1\n      pop\n      dup7\n      jump\t// out\n        /* \"output\":4017:4669  function approveRequest(uint index) public backerOnly {... */\n    tag_98:\n        /* \"output\":2156:2175  minimumContribution */\n      sload(0x03)\n        /* \"output\":2133:2140  backers */\n      0x04\n        /* \"output\":2133:2152  backers[msg.sender] */\n      0x00\n        /* \"output\":2141:2151  msg.sender */\n      caller\n        /* \"output\":2133:2152  backers[msg.sender] */\n      0xffffffffffffffffffffffffffffffffffffffff\n      and\n      0xffffffffffffffffffffffffffffffffffffffff\n      and\n      dup2\n      mstore\n      0x20\n      add\n      swap1\n      dup2\n      mstore\n      0x20\n      add\n      0x00\n      keccak256\n      sload\n        /* \"output\":2133:2175  backers[msg.sender] >= minimumContribution */\n      lt\n      iszero\n        /* \"output\":2125:2224  require(backers[msg.sender] >= minimumContribution, \"This function can only be called by a backer\") */\n      tag_192\n      jumpi\n      mload(0x40)\n      0x08c379a000000000000000000000000000000000000000000000000000000000\n      dup2\n      mstore\n      0x04\n      add\n      tag_193\n      swap1\n      tag_194\n      jump\t// in\n    tag_193:\n      mload(0x40)\n      dup1\n      swap2\n      sub\n      swap1\n      revert\n    tag_192:\n        /* \"output\":4150:4191  Request [] memory backersApprovedRequests */\n      0x00\n        /* \"output\":4194:4216  requestBackerRelations */\n      0x05\n        /* \"output\":4194:4228  requestBackerRelations[msg.sender] */\n      0x00\n        /* \"output\":4217:4227  msg.sender */\n      caller\n        /* \"output\":4194:4228  requestBackerRelations[msg.sender] */\n      0xffffffffffffffffffffffffffffffffffffffff\n      and\n      0xffffffffffffffffffffffffffffffffffffffff\n      and\n      dup2\n      mstore\n      0x20\n      add\n      swap1\n      dup2\n      mstore\n      0x20\n      add\n      0x00\n      keccak256\n        /* \"output\":4150:4228  Request [] memory backersApprovedRequests = requestBackerRelations[msg.sender] */\n      dup1\n      sload\n      dup1\n      0x20\n      mul\n      0x20\n      add\n      mload(0x40)\n      swap1\n      dup2\n      add\n      0x40\n      mstore\n      dup1\n      swap3\n      swap2\n      swap1\n      dup2\n      dup2\n      mstore\n      0x20\n      add\n      0x00\n      swap1\n    tag_196:\n      dup3\n      dup3\n      lt\n      iszero\n      tag_197\n      jumpi\n      dup4\n      dup3\n      swap1\n      0x00\n      mstore\n      keccak256(0x00, 0x20)\n      swap1\n      0x04\n      mul\n      add\n      mload(0x40)\n      dup1\n      0xc0\n      add\n      0x40\n      mstore\n      swap1\n      dup2\n      0x00\n      dup3\n      add\n      dup1\n      sload\n      tag_199\n      swap1\n      tag_135\n      jump\t// in\n    tag_199:\n      dup1\n      0x1f\n      add\n      0x20\n      dup1\n      swap2\n      div\n      mul\n      0x20\n      add\n      mload(0x40)\n      swap1\n      dup2\n      add\n      0x40\n      mstore\n      dup1\n      swap3\n      swap2\n      swap1\n      dup2\n      dup2\n      mstore\n      0x20\n      add\n      dup3\n      dup1\n      sload\n      tag_200\n      swap1\n      tag_135\n      jump\t// in\n    tag_200:\n      dup1\n      iszero\n      tag_201\n      jumpi\n      dup1\n      0x1f\n      lt\n      tag_202\n      jumpi\n      0x0100\n      dup1\n      dup4\n      sload\n      div\n      mul\n      dup4\n      mstore\n      swap2\n      0x20\n      add\n      swap2\n      jump(tag_201)\n    tag_202:\n      dup3\n      add\n      swap2\n      swap1\n      0x00\n      mstore\n      keccak256(0x00, 0x20)\n      swap1\n    tag_203:\n      dup2\n      sload\n      dup2\n      mstore\n      swap1\n      0x01\n      add\n      swap1\n      0x20\n      add\n      dup1\n      dup4\n      gt\n      tag_203\n      jumpi\n      dup3\n      swap1\n      sub\n      0x1f\n      and\n      dup3\n      add\n      swap2\n    tag_201:\n      pop\n      pop\n      pop\n      pop\n      pop\n      dup2\n      mstore\n      0x20\n      add\n      0x01\n      dup3\n      add\n      sload\n      dup2\n      mstore\n      0x20\n      add\n      0x02\n      dup3\n      add\n      0x00\n      swap1\n      sload\n      swap1\n      0x0100\n      exp\n      swap1\n      div\n      0xffffffffffffffffffffffffffffffffffffffff\n      and\n      0xffffffffffffffffffffffffffffffffffffffff\n      and\n      0xffffffffffffffffffffffffffffffffffffffff\n      and\n      dup2\n      mstore\n      0x20\n      add\n      0x02\n      dup3\n      add\n      0x14\n      swap1\n      sload\n      swap1\n      0x0100\n      exp\n      swap1\n      div\n      0xff\n      and\n      iszero\n      iszero\n      iszero\n      iszero\n      dup2\n      mstore\n      0x20\n      add\n      0x02\n      dup3\n      add\n      0x15\n      swap1\n      sload\n      swap1\n      0x0100\n      exp\n      swap1\n      div\n      0xff\n      and\n      iszero\n      iszero\n      iszero\n      iszero\n      dup2\n      mstore\n      0x20\n      add\n      0x03\n      dup3\n      add\n      sload\n      dup2\n      mstore\n      pop\n      pop\n      dup2\n      mstore\n      0x20\n      add\n      swap1\n      0x01\n      add\n      swap1\n      jump(tag_196)\n    tag_197:\n      pop\n      pop\n      pop\n      pop\n      swap1\n      pop\n        /* \"output\":4244:4250  uint i */\n      0x00\n        /* \"output\":4239:4467  for (uint i = 0; i < backersApprovedRequests.length; i++) {... */\n    tag_204:\n        /* \"output\":4260:4283  backersApprovedRequests */\n      dup2\n        /* \"output\":4260:4290  backersApprovedRequests.length */\n      mload\n        /* \"output\":4256:4257  i */\n      dup2\n        /* \"output\":4256:4290  i < backersApprovedRequests.length */\n      lt\n        /* \"output\":4239:4467  for (uint i = 0; i < backersApprovedRequests.length; i++) {... */\n      iszero\n      tag_205\n      jumpi\n        /* \"output\":4385:4408  backersApprovedRequests */\n      dup2\n        /* \"output\":4409:4410  i */\n      dup2\n        /* \"output\":4385:4411  backersApprovedRequests[i] */\n      dup2\n      mload\n      dup2\n      lt\n      tag_207\n      jumpi\n      tag_208\n      tag_106\n      jump\t// in\n    tag_208:\n    tag_207:\n      0x20\n      mul\n      0x20\n      add\n      add\n      mload\n        /* \"output\":4374:4412  abi.encode(backersApprovedRequests[i]) */\n      add(0x20, mload(0x40))\n      tag_209\n      swap2\n      swap1\n      tag_71\n      jump\t// in\n    tag_209:\n      mload(0x40)\n      0x20\n      dup2\n      dup4\n      sub\n      sub\n      dup2\n      mstore\n      swap1\n      0x40\n      mstore\n        /* \"output\":4364:4413  keccak256(abi.encode(backersApprovedRequests[i])) */\n      dup1\n      mload\n      swap1\n      0x20\n      add\n      keccak256\n        /* \"output\":4343:4351  requests */\n      0x00\n        /* \"output\":4352:4357  index */\n      dup5\n        /* \"output\":4343:4358  requests[index] */\n      dup2\n      sload\n      dup2\n      lt\n      tag_210\n      jumpi\n      tag_211\n      tag_106\n      jump\t// in\n    tag_211:\n    tag_210:\n      swap1\n      0x00\n      mstore\n      keccak256(0x00, 0x20)\n      swap1\n      0x04\n      mul\n      add\n        /* \"output\":4332:4359  abi.encode(requests[index]) */\n      add(0x20, mload(0x40))\n      tag_213\n      swap2\n      swap1\n      tag_214\n      jump\t// in\n    tag_213:\n      mload(0x40)\n      0x20\n      dup2\n      dup4\n      sub\n      sub\n      dup2\n      mstore\n      swap1\n      0x40\n      mstore\n        /* \"output\":4322:4360  keccak256(abi.encode(requests[index])) */\n      dup1\n      mload\n      swap1\n      0x20\n      add\n      keccak256\n        /* \"output\":4322:4413  keccak256(abi.encode(requests[index])) == keccak256(abi.encode(backersApprovedRequests[i])) */\n      sub\n        /* \"output\":4312:4455  require(!(keccak256(abi.encode(requests[index])) == keccak256(abi.encode(backersApprovedRequests[i]))), \"You have already backed this request\") */\n      tag_215\n      jumpi\n      mload(0x40)\n      0x08c379a000000000000000000000000000000000000000000000000000000000\n      dup2\n      mstore\n      0x04\n      add\n      tag_216\n      swap1\n      tag_217\n      jump\t// in\n    tag_216:\n      mload(0x40)\n      dup1\n      swap2\n      sub\n      swap1\n      revert\n    tag_215:\n        /* \"output\":4292:4295  i++ */\n      dup1\n      dup1\n      tag_218\n      swap1\n      tag_219\n      jump\t// in\n    tag_218:\n      swap2\n      pop\n      pop\n        /* \"output\":4239:4467  for (uint i = 0; i < backersApprovedRequests.length; i++) {... */\n      jump(tag_204)\n    tag_205:\n      pop\n        /* \"output\":4593:4594  1 */\n      0x01\n        /* \"output\":4564:4572  requests */\n      0x00\n        /* \"output\":4573:4578  index */\n      dup4\n        /* \"output\":4564:4579  requests[index] */\n      dup2\n      sload\n      dup2\n      lt\n      tag_220\n      jumpi\n      tag_221\n      tag_106\n      jump\t// in\n    tag_221:\n    tag_220:\n      swap1\n      0x00\n      mstore\n      keccak256(0x00, 0x20)\n      swap1\n      0x04\n      mul\n      add\n        /* \"output\":4564:4589  requests[index].approvers */\n      0x03\n      add\n      0x00\n        /* \"output\":4564:4594  requests[index].approvers += 1 */\n      dup3\n      dup3\n      sload\n      tag_223\n      swap2\n      swap1\n      tag_177\n      jump\t// in\n    tag_223:\n      swap3\n      pop\n      pop\n      dup2\n      swap1\n      sstore\n      pop\n        /* \"output\":4605:4627  requestBackerRelations */\n      0x05\n        /* \"output\":4605:4639  requestBackerRelations[msg.sender] */\n      0x00\n        /* \"output\":4628:4638  msg.sender */\n      caller\n        /* \"output\":4605:4639  requestBackerRelations[msg.sender] */\n      0xffffffffffffffffffffffffffffffffffffffff\n      and\n      0xffffffffffffffffffffffffffffffffffffffff\n      and\n      dup2\n      mstore\n      0x20\n      add\n      swap1\n      dup2\n      mstore\n      0x20\n      add\n      0x00\n      keccak256\n        /* \"output\":4645:4653  requests */\n      0x00\n        /* \"output\":4654:4659  index */\n      dup4\n        /* \"output\":4645:4660  requests[index] */\n      dup2\n      sload\n      dup2\n      lt\n      tag_224\n      jumpi\n      tag_225\n      tag_106\n      jump\t// in\n    tag_225:\n    tag_224:\n      swap1\n      0x00\n      mstore\n      keccak256(0x00, 0x20)\n      swap1\n      0x04\n      mul\n      add\n        /* \"output\":4605:4661  requestBackerRelations[msg.sender].push(requests[index]) */\n      swap1\n      dup1\n      0x01\n      dup2\n      sload\n      add\n      dup1\n      dup3\n      sstore\n      dup1\n      swap2\n      pop\n      pop\n      0x01\n      swap1\n      sub\n      swap1\n      0x00\n      mstore\n      keccak256(0x00, 0x20)\n      swap1\n      0x04\n      mul\n      add\n      0x00\n      swap1\n      swap2\n      swap1\n      swap2\n      swap1\n      swap2\n      pop\n      0x00\n      dup3\n      add\n      dup2\n      0x00\n      add\n      swap1\n      dup1\n      sload\n      tag_228\n      swap1\n      tag_135\n      jump\t// in\n    tag_228:\n      tag_229\n      swap3\n      swap2\n      swap1\n      tag_230\n      jump\t// in\n    tag_229:\n      pop\n      0x01\n      dup3\n      add\n      sload\n      dup2\n      0x01\n      add\n      sstore\n      0x02\n      dup3\n      add\n      0x00\n      swap1\n      sload\n      swap1\n      0x0100\n      exp\n      swap1\n      div\n      0xffffffffffffffffffffffffffffffffffffffff\n      and\n      dup2\n      0x02\n      add\n      exp(0x0100, 0x00)\n      dup2\n      sload\n      dup2\n      0xffffffffffffffffffffffffffffffffffffffff\n      mul\n      not\n      and\n      swap1\n      dup4\n      0xffffffffffffffffffffffffffffffffffffffff\n      and\n      mul\n      or\n      swap1\n      sstore\n      pop\n      0x02\n      dup3\n      add\n      0x14\n      swap1\n      sload\n      swap1\n      0x0100\n      exp\n      swap1\n      div\n      0xff\n      and\n      dup2\n      0x02\n      add\n      exp(0x0100, 0x14)\n      dup2\n      sload\n      dup2\n      0xff\n      mul\n      not\n      and\n      swap1\n      dup4\n      iszero\n      iszero\n      mul\n      or\n      swap1\n      sstore\n      pop\n      0x02\n      dup3\n      add\n      0x15\n      swap1\n      sload\n      swap1\n      0x0100\n      exp\n      swap1\n      div\n      0xff\n      and\n      dup2\n      0x02\n      add\n      exp(0x0100, 0x15)\n      dup2\n      sload\n      dup2\n      0xff\n      mul\n      not\n      and\n      swap1\n      dup4\n      iszero\n      iszero\n      mul\n      or\n      swap1\n      sstore\n      pop\n      0x03\n      dup3\n      add\n      sload\n      dup2\n      0x03\n      add\n      sstore\n      pop\n      pop\n        /* \"output\":4071:4669  {... */\n      pop\n        /* \"output\":4017:4669  function approveRequest(uint index) public backerOnly {... */\n      pop\n      jump\t// out\n    tag_162:\n      mload(0x40)\n      dup1\n      0xc0\n      add\n      0x40\n      mstore\n      dup1\n      0x60\n      dup2\n      mstore\n      0x20\n      add\n      0x00\n      dup2\n      mstore\n      0x20\n      add\n      and(0xffffffffffffffffffffffffffffffffffffffff, 0x00)\n      dup2\n      mstore\n      0x20\n      add\n      iszero(iszero(0x00))\n      dup2\n      mstore\n      0x20\n      add\n      iszero(iszero(0x00))\n      dup2\n      mstore\n      0x20\n      add\n      0x00\n      dup2\n      mstore\n      pop\n      swap1\n      jump\t// out\n    tag_169:\n      dup3\n      dup1\n      sload\n      tag_231\n      swap1\n      tag_135\n      jump\t// in\n    tag_231:\n      swap1\n      0x00\n      mstore\n      keccak256(0x00, 0x20)\n      swap1\n      0x1f\n      add\n      0x20\n      swap1\n      div\n      dup2\n      add\n      swap3\n      dup3\n      tag_233\n      jumpi\n      0x00\n      dup6\n      sstore\n      jump(tag_232)\n    tag_233:\n      dup3\n      0x1f\n      lt\n      tag_234\n      jumpi\n      dup1\n      mload\n      not(0xff)\n      and\n      dup4\n      dup1\n      add\n      or\n      dup6\n      sstore\n      jump(tag_232)\n    tag_234:\n      dup3\n      dup1\n      add\n      0x01\n      add\n      dup6\n      sstore\n      dup3\n      iszero\n      tag_232\n      jumpi\n      swap2\n      dup3\n      add\n    tag_235:\n      dup3\n      dup2\n      gt\n      iszero\n      tag_236\n      jumpi\n      dup3\n      mload\n      dup3\n      sstore\n      swap2\n      0x20\n      add\n      swap2\n      swap1\n      0x01\n      add\n      swap1\n      jump(tag_235)\n    tag_236:\n    tag_232:\n      pop\n      swap1\n      pop\n      tag_237\n      swap2\n      swap1\n      tag_238\n      jump\t// in\n    tag_237:\n      pop\n      swap1\n      jump\t// out\n    tag_230:\n      dup3\n      dup1\n      sload\n      tag_239\n      swap1\n      tag_135\n      jump\t// in\n    tag_239:\n      swap1\n      0x00\n      mstore\n      keccak256(0x00, 0x20)\n      swap1\n      0x1f\n      add\n      0x20\n      swap1\n      div\n      dup2\n      add\n      swap3\n      dup3\n      tag_241\n      jumpi\n      0x00\n      dup6\n      sstore\n      jump(tag_240)\n    tag_241:\n      dup3\n      0x1f\n      lt\n      tag_242\n      jumpi\n      dup1\n      sload\n      dup6\n      sstore\n      jump(tag_240)\n    tag_242:\n      dup3\n      dup1\n      add\n      0x01\n      add\n      dup6\n      sstore\n      dup3\n      iszero\n      tag_240\n      jumpi\n      0x00\n      mstore\n      keccak256(0x00, 0x20)\n      swap2\n      0x1f\n      add\n      0x20\n      swap1\n      div\n      dup3\n      add\n    tag_243:\n      dup3\n      dup2\n      gt\n      iszero\n      tag_244\n      jumpi\n      dup3\n      sload\n      dup3\n      sstore\n      swap2\n      0x01\n      add\n      swap2\n      swap1\n      0x01\n      add\n      swap1\n      jump(tag_243)\n    tag_244:\n    tag_240:\n      pop\n      swap1\n      pop\n      tag_245\n      swap2\n      swap1\n      tag_238\n      jump\t// in\n    tag_245:\n      pop\n      swap1\n      jump\t// out\n    tag_238:\n    tag_246:\n      dup1\n      dup3\n      gt\n      iszero\n      tag_247\n      jumpi\n      0x00\n      dup2\n      0x00\n      swap1\n      sstore\n      pop\n      0x01\n      add\n      jump(tag_246)\n    tag_247:\n      pop\n      swap1\n      jump\t// out\n        /* \"#utility.yul\":7:82   */\n    tag_248:\n        /* \"#utility.yul\":40:46   */\n      0x00\n        /* \"#utility.yul\":73:75   */\n      0x40\n        /* \"#utility.yul\":67:76   */\n      mload\n        /* \"#utility.yul\":57:76   */\n      swap1\n      pop\n        /* \"#utility.yul\":7:82   */\n      swap1\n      jump\t// out\n        /* \"#utility.yul\":88:205   */\n    tag_249:\n        /* \"#utility.yul\":197:198   */\n      0x00\n        /* \"#utility.yul\":194:195   */\n      dup1\n        /* \"#utility.yul\":187:199   */\n      revert\n        /* \"#utility.yul\":211:328   */\n    tag_250:\n        /* \"#utility.yul\":320:321   */\n      0x00\n        /* \"#utility.yul\":317:318   */\n      dup1\n        /* \"#utility.yul\":310:322   */\n      revert\n        /* \"#utility.yul\":334:411   */\n    tag_251:\n        /* \"#utility.yul\":371:378   */\n      0x00\n        /* \"#utility.yul\":400:405   */\n      dup2\n        /* \"#utility.yul\":389:405   */\n      swap1\n      pop\n        /* \"#utility.yul\":334:411   */\n      swap2\n      swap1\n      pop\n      jump\t// out\n        /* \"#utility.yul\":417:539   */\n    tag_252:\n        /* \"#utility.yul\":490:514   */\n      tag_338\n        /* \"#utility.yul\":508:513   */\n      dup2\n        /* \"#utility.yul\":490:514   */\n      tag_251\n      jump\t// in\n    tag_338:\n        /* \"#utility.yul\":483:488   */\n      dup2\n        /* \"#utility.yul\":480:515   */\n      eq\n        /* \"#utility.yul\":470:533   */\n      tag_339\n      jumpi\n        /* \"#utility.yul\":529:530   */\n      0x00\n        /* \"#utility.yul\":526:527   */\n      dup1\n        /* \"#utility.yul\":519:531   */\n      revert\n        /* \"#utility.yul\":470:533   */\n    tag_339:\n        /* \"#utility.yul\":417:539   */\n      pop\n      jump\t// out\n        /* \"#utility.yul\":545:684   */\n    tag_253:\n        /* \"#utility.yul\":591:596   */\n      0x00\n        /* \"#utility.yul\":629:635   */\n      dup2\n        /* \"#utility.yul\":616:636   */\n      calldataload\n        /* \"#utility.yul\":607:636   */\n      swap1\n      pop\n        /* \"#utility.yul\":645:678   */\n      tag_341\n        /* \"#utility.yul\":672:677   */\n      dup2\n        /* \"#utility.yul\":645:678   */\n      tag_252\n      jump\t// in\n    tag_341:\n        /* \"#utility.yul\":545:684   */\n      swap3\n      swap2\n      pop\n      pop\n      jump\t// out\n        /* \"#utility.yul\":690:1019   */\n    tag_26:\n        /* \"#utility.yul\":749:755   */\n      0x00\n        /* \"#utility.yul\":798:800   */\n      0x20\n        /* \"#utility.yul\":786:795   */\n      dup3\n        /* \"#utility.yul\":777:784   */\n      dup5\n        /* \"#utility.yul\":773:796   */\n      sub\n        /* \"#utility.yul\":769:801   */\n      slt\n        /* \"#utility.yul\":766:885   */\n      iszero\n      tag_343\n      jumpi\n        /* \"#utility.yul\":804:883   */\n      tag_344\n      tag_249\n      jump\t// in\n    tag_344:\n        /* \"#utility.yul\":766:885   */\n    tag_343:\n        /* \"#utility.yul\":924:925   */\n      0x00\n        /* \"#utility.yul\":949:1002   */\n      tag_345\n        /* \"#utility.yul\":994:1001   */\n      dup5\n        /* \"#utility.yul\":985:991   */\n      dup3\n        /* \"#utility.yul\":974:983   */\n      dup6\n        /* \"#utility.yul\":970:992   */\n      add\n        /* \"#utility.yul\":949:1002   */\n      tag_253\n      jump\t// in\n    tag_345:\n        /* \"#utility.yul\":939:1002   */\n      swap2\n      pop\n        /* \"#utility.yul\":895:1012   */\n      pop\n        /* \"#utility.yul\":690:1019   */\n      swap3\n      swap2\n      pop\n      pop\n      jump\t// out\n        /* \"#utility.yul\":1025:1151   */\n    tag_254:\n        /* \"#utility.yul\":1062:1069   */\n      0x00\n        /* \"#utility.yul\":1102:1144   */\n      0xffffffffffffffffffffffffffffffffffffffff\n        /* \"#utility.yul\":1095:1100   */\n      dup3\n        /* \"#utility.yul\":1091:1145   */\n      and\n        /* \"#utility.yul\":1080:1145   */\n      swap1\n      pop\n        /* \"#utility.yul\":1025:1151   */\n      swap2\n      swap1\n      pop\n      jump\t// out\n        /* \"#utility.yul\":1157:1253   */\n    tag_255:\n        /* \"#utility.yul\":1194:1201   */\n      0x00\n        /* \"#utility.yul\":1223:1247   */\n      tag_348\n        /* \"#utility.yul\":1241:1246   */\n      dup3\n        /* \"#utility.yul\":1223:1247   */\n      tag_254\n      jump\t// in\n    tag_348:\n        /* \"#utility.yul\":1212:1247   */\n      swap1\n      pop\n        /* \"#utility.yul\":1157:1253   */\n      swap2\n      swap1\n      pop\n      jump\t// out\n        /* \"#utility.yul\":1259:1381   */\n    tag_256:\n        /* \"#utility.yul\":1332:1356   */\n      tag_350\n        /* \"#utility.yul\":1350:1355   */\n      dup2\n        /* \"#utility.yul\":1332:1356   */\n      tag_255\n      jump\t// in\n    tag_350:\n        /* \"#utility.yul\":1325:1330   */\n      dup2\n        /* \"#utility.yul\":1322:1357   */\n      eq\n        /* \"#utility.yul\":1312:1375   */\n      tag_351\n      jumpi\n        /* \"#utility.yul\":1371:1372   */\n      0x00\n        /* \"#utility.yul\":1368:1369   */\n      dup1\n        /* \"#utility.yul\":1361:1373   */\n      revert\n        /* \"#utility.yul\":1312:1375   */\n    tag_351:\n        /* \"#utility.yul\":1259:1381   */\n      pop\n      jump\t// out\n        /* \"#utility.yul\":1387:1526   */\n    tag_257:\n        /* \"#utility.yul\":1433:1438   */\n      0x00\n        /* \"#utility.yul\":1471:1477   */\n      dup2\n        /* \"#utility.yul\":1458:1478   */\n      calldataload\n        /* \"#utility.yul\":1449:1478   */\n      swap1\n      pop\n        /* \"#utility.yul\":1487:1520   */\n      tag_353\n        /* \"#utility.yul\":1514:1519   */\n      dup2\n        /* \"#utility.yul\":1487:1520   */\n      tag_256\n      jump\t// in\n    tag_353:\n        /* \"#utility.yul\":1387:1526   */\n      swap3\n      swap2\n      pop\n      pop\n      jump\t// out\n        /* \"#utility.yul\":1532:1861   */\n    tag_31:\n        /* \"#utility.yul\":1591:1597   */\n      0x00\n        /* \"#utility.yul\":1640:1642   */\n      0x20\n        /* \"#utility.yul\":1628:1637   */\n      dup3\n        /* \"#utility.yul\":1619:1626   */\n      dup5\n        /* \"#utility.yul\":1615:1638   */\n      sub\n        /* \"#utility.yul\":1611:1643   */\n      slt\n        /* \"#utility.yul\":1608:1727   */\n      iszero\n      tag_355\n      jumpi\n        /* \"#utility.yul\":1646:1725   */\n      tag_356\n      tag_249\n      jump\t// in\n    tag_356:\n        /* \"#utility.yul\":1608:1727   */\n    tag_355:\n        /* \"#utility.yul\":1766:1767   */\n      0x00\n        /* \"#utility.yul\":1791:1844   */\n      tag_357\n        /* \"#utility.yul\":1836:1843   */\n      dup5\n        /* \"#utility.yul\":1827:1833   */\n      dup3\n        /* \"#utility.yul\":1816:1825   */\n      dup6\n        /* \"#utility.yul\":1812:1834   */\n      add\n        /* \"#utility.yul\":1791:1844   */\n      tag_257\n      jump\t// in\n    tag_357:\n        /* \"#utility.yul\":1781:1844   */\n      swap2\n      pop\n        /* \"#utility.yul\":1737:1854   */\n      pop\n        /* \"#utility.yul\":1532:1861   */\n      swap3\n      swap2\n      pop\n      pop\n      jump\t// out\n        /* \"#utility.yul\":1867:2004   */\n    tag_258:\n        /* \"#utility.yul\":1957:1963   */\n      0x00\n        /* \"#utility.yul\":1991:1996   */\n      dup2\n        /* \"#utility.yul\":1985:1997   */\n      mload\n        /* \"#utility.yul\":1975:1997   */\n      swap1\n      pop\n        /* \"#utility.yul\":1867:2004   */\n      swap2\n      swap1\n      pop\n      jump\t// out\n        /* \"#utility.yul\":2010:2217   */\n    tag_259:\n        /* \"#utility.yul\":2132:2143   */\n      0x00\n        /* \"#utility.yul\":2166:2172   */\n      dup3\n        /* \"#utility.yul\":2161:2164   */\n      dup3\n        /* \"#utility.yul\":2154:2173   */\n      mstore\n        /* \"#utility.yul\":2206:2210   */\n      0x20\n        /* \"#utility.yul\":2201:2204   */\n      dup3\n        /* \"#utility.yul\":2197:2211   */\n      add\n        /* \"#utility.yul\":2182:2211   */\n      swap1\n      pop\n        /* \"#utility.yul\":2010:2217   */\n      swap3\n      swap2\n      pop\n      pop\n      jump\t// out\n        /* \"#utility.yul\":2223:2378   */\n    tag_260:\n        /* \"#utility.yul\":2313:2317   */\n      0x00\n        /* \"#utility.yul\":2336:2339   */\n      dup2\n        /* \"#utility.yul\":2328:2339   */\n      swap1\n      pop\n        /* \"#utility.yul\":2366:2370   */\n      0x20\n        /* \"#utility.yul\":2361:2364   */\n      dup3\n        /* \"#utility.yul\":2357:2371   */\n      add\n        /* \"#utility.yul\":2349:2371   */\n      swap1\n      pop\n        /* \"#utility.yul\":2223:2378   */\n      swap2\n      swap1\n      pop\n      jump\t// out\n        /* \"#utility.yul\":2384:2483   */\n    tag_261:\n        /* \"#utility.yul\":2436:2442   */\n      0x00\n        /* \"#utility.yul\":2470:2475   */\n      dup2\n        /* \"#utility.yul\":2464:2476   */\n      mload\n        /* \"#utility.yul\":2454:2476   */\n      swap1\n      pop\n        /* \"#utility.yul\":2384:2483   */\n      swap2\n      swap1\n      pop\n      jump\t// out\n        /* \"#utility.yul\":2489:2648   */\n    tag_262:\n        /* \"#utility.yul\":2563:2574   */\n      0x00\n        /* \"#utility.yul\":2597:2603   */\n      dup3\n        /* \"#utility.yul\":2592:2595   */\n      dup3\n        /* \"#utility.yul\":2585:2604   */\n      mstore\n        /* \"#utility.yul\":2637:2641   */\n      0x20\n        /* \"#utility.yul\":2632:2635   */\n      dup3\n        /* \"#utility.yul\":2628:2642   */\n      add\n        /* \"#utility.yul\":2613:2642   */\n      swap1\n      pop\n        /* \"#utility.yul\":2489:2648   */\n      swap3\n      swap2\n      pop\n      pop\n      jump\t// out\n        /* \"#utility.yul\":2654:2961   */\n    tag_263:\n        /* \"#utility.yul\":2722:2723   */\n      0x00\n        /* \"#utility.yul\":2732:2845   */\n    tag_364:\n        /* \"#utility.yul\":2746:2752   */\n      dup4\n        /* \"#utility.yul\":2743:2744   */\n      dup2\n        /* \"#utility.yul\":2740:2753   */\n      lt\n        /* \"#utility.yul\":2732:2845   */\n      iszero\n      tag_366\n      jumpi\n        /* \"#utility.yul\":2831:2832   */\n      dup1\n        /* \"#utility.yul\":2826:2829   */\n      dup3\n        /* \"#utility.yul\":2822:2833   */\n      add\n        /* \"#utility.yul\":2816:2834   */\n      mload\n        /* \"#utility.yul\":2812:2813   */\n      dup2\n        /* \"#utility.yul\":2807:2810   */\n      dup5\n        /* \"#utility.yul\":2803:2814   */\n      add\n        /* \"#utility.yul\":2796:2835   */\n      mstore\n        /* \"#utility.yul\":2768:2770   */\n      0x20\n        /* \"#utility.yul\":2765:2766   */\n      dup2\n        /* \"#utility.yul\":2761:2771   */\n      add\n        /* \"#utility.yul\":2756:2771   */\n      swap1\n      pop\n        /* \"#utility.yul\":2732:2845   */\n      jump(tag_364)\n    tag_366:\n        /* \"#utility.yul\":2863:2869   */\n      dup4\n        /* \"#utility.yul\":2860:2861   */\n      dup2\n        /* \"#utility.yul\":2857:2870   */\n      gt\n        /* \"#utility.yul\":2854:2955   */\n      iszero\n      tag_367\n      jumpi\n        /* \"#utility.yul\":2943:2944   */\n      0x00\n        /* \"#utility.yul\":2934:2940   */\n      dup5\n        /* \"#utility.yul\":2929:2932   */\n      dup5\n        /* \"#utility.yul\":2925:2941   */\n      add\n        /* \"#utility.yul\":2918:2945   */\n      mstore\n        /* \"#utility.yul\":2854:2955   */\n    tag_367:\n        /* \"#utility.yul\":2703:2961   */\n      pop\n        /* \"#utility.yul\":2654:2961   */\n      pop\n      pop\n      pop\n      jump\t// out\n        /* \"#utility.yul\":2967:3069   */\n    tag_264:\n        /* \"#utility.yul\":3008:3014   */\n      0x00\n        /* \"#utility.yul\":3059:3061   */\n      0x1f\n        /* \"#utility.yul\":3055:3062   */\n      not\n        /* \"#utility.yul\":3050:3052   */\n      0x1f\n        /* \"#utility.yul\":3043:3048   */\n      dup4\n        /* \"#utility.yul\":3039:3053   */\n      add\n        /* \"#utility.yul\":3035:3063   */\n      and\n        /* \"#utility.yul\":3025:3063   */\n      swap1\n      pop\n        /* \"#utility.yul\":2967:3069   */\n      swap2\n      swap1\n      pop\n      jump\t// out\n        /* \"#utility.yul\":3075:3419   */\n    tag_265:\n        /* \"#utility.yul\":3153:3156   */\n      0x00\n        /* \"#utility.yul\":3181:3220   */\n      tag_370\n        /* \"#utility.yul\":3214:3219   */\n      dup3\n        /* \"#utility.yul\":3181:3220   */\n      tag_261\n      jump\t// in\n    tag_370:\n        /* \"#utility.yul\":3236:3297   */\n      tag_371\n        /* \"#utility.yul\":3290:3296   */\n      dup2\n        /* \"#utility.yul\":3285:3288   */\n      dup6\n        /* \"#utility.yul\":3236:3297   */\n      tag_262\n      jump\t// in\n    tag_371:\n        /* \"#utility.yul\":3229:3297   */\n      swap4\n      pop\n        /* \"#utility.yul\":3306:3358   */\n      tag_372\n        /* \"#utility.yul\":3351:3357   */\n      dup2\n        /* \"#utility.yul\":3346:3349   */\n      dup6\n        /* \"#utility.yul\":3339:3343   */\n      0x20\n        /* \"#utility.yul\":3332:3337   */\n      dup7\n        /* \"#utility.yul\":3328:3344   */\n      add\n        /* \"#utility.yul\":3306:3358   */\n      tag_263\n      jump\t// in\n    tag_372:\n        /* \"#utility.yul\":3383:3412   */\n      tag_373\n        /* \"#utility.yul\":3405:3411   */\n      dup2\n        /* \"#utility.yul\":3383:3412   */\n      tag_264\n      jump\t// in\n    tag_373:\n        /* \"#utility.yul\":3378:3381   */\n      dup5\n        /* \"#utility.yul\":3374:3413   */\n      add\n        /* \"#utility.yul\":3367:3413   */\n      swap2\n      pop\n        /* \"#utility.yul\":3157:3419   */\n      pop\n        /* \"#utility.yul\":3075:3419   */\n      swap3\n      swap2\n      pop\n      pop\n      jump\t// out\n        /* \"#utility.yul\":3425:3533   */\n    tag_266:\n        /* \"#utility.yul\":3502:3526   */\n      tag_375\n        /* \"#utility.yul\":3520:3525   */\n      dup2\n        /* \"#utility.yul\":3502:3526   */\n      tag_251\n      jump\t// in\n    tag_375:\n        /* \"#utility.yul\":3497:3500   */\n      dup3\n        /* \"#utility.yul\":3490:3527   */\n      mstore\n        /* \"#utility.yul\":3425:3533   */\n      pop\n      pop\n      jump\t// out\n        /* \"#utility.yul\":3539:3647   */\n    tag_267:\n        /* \"#utility.yul\":3616:3640   */\n      tag_377\n        /* \"#utility.yul\":3634:3639   */\n      dup2\n        /* \"#utility.yul\":3616:3640   */\n      tag_255\n      jump\t// in\n    tag_377:\n        /* \"#utility.yul\":3611:3614   */\n      dup3\n        /* \"#utility.yul\":3604:3641   */\n      mstore\n        /* \"#utility.yul\":3539:3647   */\n      pop\n      pop\n      jump\t// out\n        /* \"#utility.yul\":3653:3743   */\n    tag_268:\n        /* \"#utility.yul\":3687:3694   */\n      0x00\n        /* \"#utility.yul\":3730:3735   */\n      dup2\n        /* \"#utility.yul\":3723:3736   */\n      iszero\n        /* \"#utility.yul\":3716:3737   */\n      iszero\n        /* \"#utility.yul\":3705:3737   */\n      swap1\n      pop\n        /* \"#utility.yul\":3653:3743   */\n      swap2\n      swap1\n      pop\n      jump\t// out\n        /* \"#utility.yul\":3749:3848   */\n    tag_269:\n        /* \"#utility.yul\":3820:3841   */\n      tag_380\n        /* \"#utility.yul\":3835:3840   */\n      dup2\n        /* \"#utility.yul\":3820:3841   */\n      tag_268\n      jump\t// in\n    tag_380:\n        /* \"#utility.yul\":3815:3818   */\n      dup3\n        /* \"#utility.yul\":3808:3842   */\n      mstore\n        /* \"#utility.yul\":3749:3848   */\n      pop\n      pop\n      jump\t// out\n        /* \"#utility.yul\":3912:5219   */\n    tag_270:\n        /* \"#utility.yul\":4017:4020   */\n      0x00\n        /* \"#utility.yul\":4053:4057   */\n      0xc0\n        /* \"#utility.yul\":4048:4051   */\n      dup4\n        /* \"#utility.yul\":4044:4058   */\n      add\n        /* \"#utility.yul\":4147:4151   */\n      0x00\n        /* \"#utility.yul\":4140:4145   */\n      dup4\n        /* \"#utility.yul\":4136:4152   */\n      add\n        /* \"#utility.yul\":4130:4153   */\n      mload\n        /* \"#utility.yul\":4200:4203   */\n      dup5\n        /* \"#utility.yul\":4194:4198   */\n      dup3\n        /* \"#utility.yul\":4190:4204   */\n      sub\n        /* \"#utility.yul\":4183:4187   */\n      0x00\n        /* \"#utility.yul\":4178:4181   */\n      dup7\n        /* \"#utility.yul\":4174:4188   */\n      add\n        /* \"#utility.yul\":4167:4205   */\n      mstore\n        /* \"#utility.yul\":4226:4299   */\n      tag_382\n        /* \"#utility.yul\":4294:4298   */\n      dup3\n        /* \"#utility.yul\":4280:4292   */\n      dup3\n        /* \"#utility.yul\":4226:4299   */\n      tag_265\n      jump\t// in\n    tag_382:\n        /* \"#utility.yul\":4218:4299   */\n      swap2\n      pop\n        /* \"#utility.yul\":4068:4310   */\n      pop\n        /* \"#utility.yul\":4393:4397   */\n      0x20\n        /* \"#utility.yul\":4386:4391   */\n      dup4\n        /* \"#utility.yul\":4382:4398   */\n      add\n        /* \"#utility.yul\":4376:4399   */\n      mload\n        /* \"#utility.yul\":4412:4475   */\n      tag_383\n        /* \"#utility.yul\":4469:4473   */\n      0x20\n        /* \"#utility.yul\":4464:4467   */\n      dup7\n        /* \"#utility.yul\":4460:4474   */\n      add\n        /* \"#utility.yul\":4446:4458   */\n      dup3\n        /* \"#utility.yul\":4412:4475   */\n      tag_266\n      jump\t// in\n    tag_383:\n        /* \"#utility.yul\":4320:4485   */\n      pop\n        /* \"#utility.yul\":4572:4576   */\n      0x40\n        /* \"#utility.yul\":4565:4570   */\n      dup4\n        /* \"#utility.yul\":4561:4577   */\n      add\n        /* \"#utility.yul\":4555:4578   */\n      mload\n        /* \"#utility.yul\":4591:4654   */\n      tag_384\n        /* \"#utility.yul\":4648:4652   */\n      0x40\n        /* \"#utility.yul\":4643:4646   */\n      dup7\n        /* \"#utility.yul\":4639:4653   */\n      add\n        /* \"#utility.yul\":4625:4637   */\n      dup3\n        /* \"#utility.yul\":4591:4654   */\n      tag_267\n      jump\t// in\n    tag_384:\n        /* \"#utility.yul\":4495:4664   */\n      pop\n        /* \"#utility.yul\":4753:4757   */\n      0x60\n        /* \"#utility.yul\":4746:4751   */\n      dup4\n        /* \"#utility.yul\":4742:4758   */\n      add\n        /* \"#utility.yul\":4736:4759   */\n      mload\n        /* \"#utility.yul\":4772:4829   */\n      tag_385\n        /* \"#utility.yul\":4823:4827   */\n      0x60\n        /* \"#utility.yul\":4818:4821   */\n      dup7\n        /* \"#utility.yul\":4814:4828   */\n      add\n        /* \"#utility.yul\":4800:4812   */\n      dup3\n        /* \"#utility.yul\":4772:4829   */\n      tag_269\n      jump\t// in\n    tag_385:\n        /* \"#utility.yul\":4674:4839   */\n      pop\n        /* \"#utility.yul\":4927:4931   */\n      0x80\n        /* \"#utility.yul\":4920:4925   */\n      dup4\n        /* \"#utility.yul\":4916:4932   */\n      add\n        /* \"#utility.yul\":4910:4933   */\n      mload\n        /* \"#utility.yul\":4946:5003   */\n      tag_386\n        /* \"#utility.yul\":4997:5001   */\n      0x80\n        /* \"#utility.yul\":4992:4995   */\n      dup7\n        /* \"#utility.yul\":4988:5002   */\n      add\n        /* \"#utility.yul\":4974:4986   */\n      dup3\n        /* \"#utility.yul\":4946:5003   */\n      tag_269\n      jump\t// in\n    tag_386:\n        /* \"#utility.yul\":4849:5013   */\n      pop\n        /* \"#utility.yul\":5100:5104   */\n      0xa0\n        /* \"#utility.yul\":5093:5098   */\n      dup4\n        /* \"#utility.yul\":5089:5105   */\n      add\n        /* \"#utility.yul\":5083:5106   */\n      mload\n        /* \"#utility.yul\":5119:5182   */\n      tag_387\n        /* \"#utility.yul\":5176:5180   */\n      0xa0\n        /* \"#utility.yul\":5171:5174   */\n      dup7\n        /* \"#utility.yul\":5167:5181   */\n      add\n        /* \"#utility.yul\":5153:5165   */\n      dup3\n        /* \"#utility.yul\":5119:5182   */\n      tag_266\n      jump\t// in\n    tag_387:\n        /* \"#utility.yul\":5023:5192   */\n      pop\n        /* \"#utility.yul\":5209:5213   */\n      dup1\n        /* \"#utility.yul\":5202:5213   */\n      swap2\n      pop\n        /* \"#utility.yul\":4022:5219   */\n      pop\n        /* \"#utility.yul\":3912:5219   */\n      swap3\n      swap2\n      pop\n      pop\n      jump\t// out\n        /* \"#utility.yul\":5225:5473   */\n    tag_271:\n        /* \"#utility.yul\":5340:5350   */\n      0x00\n        /* \"#utility.yul\":5375:5467   */\n      tag_389\n        /* \"#utility.yul\":5463:5466   */\n      dup4\n        /* \"#utility.yul\":5455:5461   */\n      dup4\n        /* \"#utility.yul\":5375:5467   */\n      tag_270\n      jump\t// in\n    tag_389:\n        /* \"#utility.yul\":5361:5467   */\n      swap1\n      pop\n        /* \"#utility.yul\":5225:5473   */\n      swap3\n      swap2\n      pop\n      pop\n      jump\t// out\n        /* \"#utility.yul\":5479:5615   */\n    tag_272:\n        /* \"#utility.yul\":5572:5576   */\n      0x00\n        /* \"#utility.yul\":5604:5608   */\n      0x20\n        /* \"#utility.yul\":5599:5602   */\n      dup3\n        /* \"#utility.yul\":5595:5609   */\n      add\n        /* \"#utility.yul\":5587:5609   */\n      swap1\n      pop\n        /* \"#utility.yul\":5479:5615   */\n      swap2\n      swap1\n      pop\n      jump\t// out\n        /* \"#utility.yul\":5683:6778   */\n    tag_273:\n        /* \"#utility.yul\":5848:5851   */\n      0x00\n        /* \"#utility.yul\":5877:5954   */\n      tag_392\n        /* \"#utility.yul\":5948:5953   */\n      dup3\n        /* \"#utility.yul\":5877:5954   */\n      tag_258\n      jump\t// in\n    tag_392:\n        /* \"#utility.yul\":5970:6079   */\n      tag_393\n        /* \"#utility.yul\":6072:6078   */\n      dup2\n        /* \"#utility.yul\":6067:6070   */\n      dup6\n        /* \"#utility.yul\":5970:6079   */\n      tag_259\n      jump\t// in\n    tag_393:\n        /* \"#utility.yul\":5963:6079   */\n      swap4\n      pop\n        /* \"#utility.yul\":6105:6108   */\n      dup4\n        /* \"#utility.yul\":6150:6154   */\n      0x20\n        /* \"#utility.yul\":6142:6148   */\n      dup3\n        /* \"#utility.yul\":6138:6155   */\n      mul\n        /* \"#utility.yul\":6133:6136   */\n      dup6\n        /* \"#utility.yul\":6129:6156   */\n      add\n        /* \"#utility.yul\":6180:6259   */\n      tag_394\n        /* \"#utility.yul\":6253:6258   */\n      dup6\n        /* \"#utility.yul\":6180:6259   */\n      tag_260\n      jump\t// in\n    tag_394:\n        /* \"#utility.yul\":6282:6289   */\n      dup1\n        /* \"#utility.yul\":6313:6314   */\n      0x00\n        /* \"#utility.yul\":6298:6733   */\n    tag_395:\n        /* \"#utility.yul\":6323:6329   */\n      dup6\n        /* \"#utility.yul\":6320:6321   */\n      dup2\n        /* \"#utility.yul\":6317:6330   */\n      lt\n        /* \"#utility.yul\":6298:6733   */\n      iszero\n      tag_397\n      jumpi\n        /* \"#utility.yul\":6394:6403   */\n      dup5\n        /* \"#utility.yul\":6388:6392   */\n      dup5\n        /* \"#utility.yul\":6384:6404   */\n      sub\n        /* \"#utility.yul\":6379:6382   */\n      dup10\n        /* \"#utility.yul\":6372:6405   */\n      mstore\n        /* \"#utility.yul\":6445:6451   */\n      dup2\n        /* \"#utility.yul\":6439:6452   */\n      mload\n        /* \"#utility.yul\":6473:6583   */\n      tag_398\n        /* \"#utility.yul\":6578:6582   */\n      dup6\n        /* \"#utility.yul\":6563:6576   */\n      dup3\n        /* \"#utility.yul\":6473:6583   */\n      tag_271\n      jump\t// in\n    tag_398:\n        /* \"#utility.yul\":6465:6583   */\n      swap5\n      pop\n        /* \"#utility.yul\":6606:6689   */\n      tag_399\n        /* \"#utility.yul\":6682:6688   */\n      dup4\n        /* \"#utility.yul\":6606:6689   */\n      tag_272\n      jump\t// in\n    tag_399:\n        /* \"#utility.yul\":6596:6689   */\n      swap3\n      pop\n        /* \"#utility.yul\":6718:6722   */\n      0x20\n        /* \"#utility.yul\":6713:6716   */\n      dup11\n        /* \"#utility.yul\":6709:6723   */\n      add\n        /* \"#utility.yul\":6702:6723   */\n      swap10\n      pop\n        /* \"#utility.yul\":6358:6733   */\n      pop\n        /* \"#utility.yul\":6345:6346   */\n      0x01\n        /* \"#utility.yul\":6342:6343   */\n      dup2\n        /* \"#utility.yul\":6338:6347   */\n      add\n        /* \"#utility.yul\":6333:6347   */\n      swap1\n      pop\n        /* \"#utility.yul\":6298:6733   */\n      jump(tag_395)\n    tag_397:\n        /* \"#utility.yul\":6302:6316   */\n      pop\n        /* \"#utility.yul\":6749:6753   */\n      dup3\n        /* \"#utility.yul\":6742:6753   */\n      swap8\n      pop\n        /* \"#utility.yul\":6769:6772   */\n      dup8\n        /* \"#utility.yul\":6762:6772   */\n      swap6\n      pop\n        /* \"#utility.yul\":5853:6778   */\n      pop\n      pop\n      pop\n      pop\n      pop\n        /* \"#utility.yul\":5683:6778   */\n      swap3\n      swap2\n      pop\n      pop\n      jump\t// out\n        /* \"#utility.yul\":6784:7249   */\n    tag_34:\n        /* \"#utility.yul\":6973:6977   */\n      0x00\n        /* \"#utility.yul\":7011:7013   */\n      0x20\n        /* \"#utility.yul\":7000:7009   */\n      dup3\n        /* \"#utility.yul\":6996:7014   */\n      add\n        /* \"#utility.yul\":6988:7014   */\n      swap1\n      pop\n        /* \"#utility.yul\":7060:7069   */\n      dup2\n        /* \"#utility.yul\":7054:7058   */\n      dup2\n        /* \"#utility.yul\":7050:7070   */\n      sub\n        /* \"#utility.yul\":7046:7047   */\n      0x00\n        /* \"#utility.yul\":7035:7044   */\n      dup4\n        /* \"#utility.yul\":7031:7048   */\n      add\n        /* \"#utility.yul\":7024:7071   */\n      mstore\n        /* \"#utility.yul\":7088:7242   */\n      tag_401\n        /* \"#utility.yul\":7237:7241   */\n      dup2\n        /* \"#utility.yul\":7228:7234   */\n      dup5\n        /* \"#utility.yul\":7088:7242   */\n      tag_273\n      jump\t// in\n    tag_401:\n        /* \"#utility.yul\":7080:7242   */\n      swap1\n      pop\n        /* \"#utility.yul\":6784:7249   */\n      swap3\n      swap2\n      pop\n      pop\n      jump\t// out\n        /* \"#utility.yul\":7255:7377   */\n    tag_274:\n        /* \"#utility.yul\":7330:7336   */\n      0x00\n        /* \"#utility.yul\":7364:7369   */\n      dup2\n        /* \"#utility.yul\":7358:7370   */\n      mload\n        /* \"#utility.yul\":7348:7370   */\n      swap1\n      pop\n        /* \"#utility.yul\":7255:7377   */\n      swap2\n      swap1\n      pop\n      jump\t// out\n        /* \"#utility.yul\":7383:7575   */\n    tag_275:\n        /* \"#utility.yul\":7490:7501   */\n      0x00\n        /* \"#utility.yul\":7524:7530   */\n      dup3\n        /* \"#utility.yul\":7519:7522   */\n      dup3\n        /* \"#utility.yul\":7512:7531   */\n      mstore\n        /* \"#utility.yul\":7564:7568   */\n      0x20\n        /* \"#utility.yul\":7559:7562   */\n      dup3\n        /* \"#utility.yul\":7555:7569   */\n      add\n        /* \"#utility.yul\":7540:7569   */\n      swap1\n      pop\n        /* \"#utility.yul\":7383:7575   */\n      swap3\n      swap2\n      pop\n      pop\n      jump\t// out\n        /* \"#utility.yul\":7581:7721   */\n    tag_276:\n        /* \"#utility.yul\":7656:7660   */\n      0x00\n        /* \"#utility.yul\":7679:7682   */\n      dup2\n        /* \"#utility.yul\":7671:7682   */\n      swap1\n      pop\n        /* \"#utility.yul\":7709:7713   */\n      0x20\n        /* \"#utility.yul\":7704:7707   */\n      dup3\n        /* \"#utility.yul\":7700:7714   */\n      add\n        /* \"#utility.yul\":7692:7714   */\n      swap1\n      pop\n        /* \"#utility.yul\":7581:7721   */\n      swap2\n      swap1\n      pop\n      jump\t// out\n        /* \"#utility.yul\":7727:7831   */\n    tag_277:\n        /* \"#utility.yul\":7772:7779   */\n      0x00\n        /* \"#utility.yul\":7801:7825   */\n      tag_406\n        /* \"#utility.yul\":7819:7824   */\n      dup3\n        /* \"#utility.yul\":7801:7825   */\n      tag_254\n      jump\t// in\n    tag_406:\n        /* \"#utility.yul\":7790:7825   */\n      swap1\n      pop\n        /* \"#utility.yul\":7727:7831   */\n      swap2\n      swap1\n      pop\n      jump\t// out\n        /* \"#utility.yul\":7837:7969   */\n    tag_278:\n        /* \"#utility.yul\":7930:7962   */\n      tag_408\n        /* \"#utility.yul\":7956:7961   */\n      dup2\n        /* \"#utility.yul\":7930:7962   */\n      tag_277\n      jump\t// in\n    tag_408:\n        /* \"#utility.yul\":7925:7928   */\n      dup3\n        /* \"#utility.yul\":7918:7963   */\n      mstore\n        /* \"#utility.yul\":7837:7969   */\n      pop\n      pop\n      jump\t// out\n        /* \"#utility.yul\":7975:8186   */\n    tag_279:\n        /* \"#utility.yul\":8060:8070   */\n      0x00\n        /* \"#utility.yul\":8081:8143   */\n      tag_410\n        /* \"#utility.yul\":8139:8142   */\n      dup4\n        /* \"#utility.yul\":8131:8137   */\n      dup4\n        /* \"#utility.yul\":8081:8143   */\n      tag_278\n      jump\t// in\n    tag_410:\n        /* \"#utility.yul\":8175:8179   */\n      0x20\n        /* \"#utility.yul\":8170:8173   */\n      dup4\n        /* \"#utility.yul\":8166:8180   */\n      add\n        /* \"#utility.yul\":8152:8180   */\n      swap1\n      pop\n        /* \"#utility.yul\":7975:8186   */\n      swap3\n      swap2\n      pop\n      pop\n      jump\t// out\n        /* \"#utility.yul\":8192:8313   */\n    tag_280:\n        /* \"#utility.yul\":8270:8274   */\n      0x00\n        /* \"#utility.yul\":8302:8306   */\n      0x20\n        /* \"#utility.yul\":8297:8300   */\n      dup3\n        /* \"#utility.yul\":8293:8307   */\n      add\n        /* \"#utility.yul\":8285:8307   */\n      swap1\n      pop\n        /* \"#utility.yul\":8192:8313   */\n      swap2\n      swap1\n      pop\n      jump\t// out\n        /* \"#utility.yul\":8365:9161   */\n    tag_281:\n        /* \"#utility.yul\":8500:8503   */\n      0x00\n        /* \"#utility.yul\":8529:8591   */\n      tag_413\n        /* \"#utility.yul\":8585:8590   */\n      dup3\n        /* \"#utility.yul\":8529:8591   */\n      tag_274\n      jump\t// in\n    tag_413:\n        /* \"#utility.yul\":8607:8701   */\n      tag_414\n        /* \"#utility.yul\":8694:8700   */\n      dup2\n        /* \"#utility.yul\":8689:8692   */\n      dup6\n        /* \"#utility.yul\":8607:8701   */\n      tag_275\n      jump\t// in\n    tag_414:\n        /* \"#utility.yul\":8600:8701   */\n      swap4\n      pop\n        /* \"#utility.yul\":8725:8789   */\n      tag_415\n        /* \"#utility.yul\":8783:8788   */\n      dup4\n        /* \"#utility.yul\":8725:8789   */\n      tag_276\n      jump\t// in\n    tag_415:\n        /* \"#utility.yul\":8812:8819   */\n      dup1\n        /* \"#utility.yul\":8843:8844   */\n      0x00\n        /* \"#utility.yul\":8828:9136   */\n    tag_416:\n        /* \"#utility.yul\":8853:8859   */\n      dup4\n        /* \"#utility.yul\":8850:8851   */\n      dup2\n        /* \"#utility.yul\":8847:8860   */\n      lt\n        /* \"#utility.yul\":8828:9136   */\n      iszero\n      tag_418\n      jumpi\n        /* \"#utility.yul\":8929:8935   */\n      dup2\n        /* \"#utility.yul\":8923:8936   */\n      mload\n        /* \"#utility.yul\":8956:9035   */\n      tag_419\n        /* \"#utility.yul\":9031:9034   */\n      dup9\n        /* \"#utility.yul\":9016:9029   */\n      dup3\n        /* \"#utility.yul\":8956:9035   */\n      tag_279\n      jump\t// in\n    tag_419:\n        /* \"#utility.yul\":8949:9035   */\n      swap8\n      pop\n        /* \"#utility.yul\":9058:9126   */\n      tag_420\n        /* \"#utility.yul\":9119:9125   */\n      dup4\n        /* \"#utility.yul\":9058:9126   */\n      tag_280\n      jump\t// in\n    tag_420:\n        /* \"#utility.yul\":9048:9126   */\n      swap3\n      pop\n        /* \"#utility.yul\":8888:9136   */\n      pop\n        /* \"#utility.yul\":8875:8876   */\n      0x01\n        /* \"#utility.yul\":8872:8873   */\n      dup2\n        /* \"#utility.yul\":8868:8877   */\n      add\n        /* \"#utility.yul\":8863:8877   */\n      swap1\n      pop\n        /* \"#utility.yul\":8828:9136   */\n      jump(tag_416)\n    tag_418:\n        /* \"#utility.yul\":8832:8846   */\n      pop\n        /* \"#utility.yul\":9152:9155   */\n      dup6\n        /* \"#utility.yul\":9145:9155   */\n      swap4\n      pop\n        /* \"#utility.yul\":8505:9161   */\n      pop\n      pop\n      pop\n        /* \"#utility.yul\":8365:9161   */\n      swap3\n      swap2\n      pop\n      pop\n      jump\t// out\n        /* \"#utility.yul\":9167:9572   */\n    tag_39:\n        /* \"#utility.yul\":9326:9330   */\n      0x00\n        /* \"#utility.yul\":9364:9366   */\n      0x20\n        /* \"#utility.yul\":9353:9362   */\n      dup3\n        /* \"#utility.yul\":9349:9367   */\n      add\n        /* \"#utility.yul\":9341:9367   */\n      swap1\n      pop\n        /* \"#utility.yul\":9413:9422   */\n      dup2\n        /* \"#utility.yul\":9407:9411   */\n      dup2\n        /* \"#utility.yul\":9403:9423   */\n      sub\n        /* \"#utility.yul\":9399:9400   */\n      0x00\n        /* \"#utility.yul\":9388:9397   */\n      dup4\n        /* \"#utility.yul\":9384:9401   */\n      add\n        /* \"#utility.yul\":9377:9424   */\n      mstore\n        /* \"#utility.yul\":9441:9565   */\n      tag_422\n        /* \"#utility.yul\":9560:9564   */\n      dup2\n        /* \"#utility.yul\":9551:9557   */\n      dup5\n        /* \"#utility.yul\":9441:9565   */\n      tag_281\n      jump\t// in\n    tag_422:\n        /* \"#utility.yul\":9433:9565   */\n      swap1\n      pop\n        /* \"#utility.yul\":9167:9572   */\n      swap3\n      swap2\n      pop\n      pop\n      jump\t// out\n        /* \"#utility.yul\":9578:9696   */\n    tag_282:\n        /* \"#utility.yul\":9665:9689   */\n      tag_424\n        /* \"#utility.yul\":9683:9688   */\n      dup2\n        /* \"#utility.yul\":9665:9689   */\n      tag_251\n      jump\t// in\n    tag_424:\n        /* \"#utility.yul\":9660:9663   */\n      dup3\n        /* \"#utility.yul\":9653:9690   */\n      mstore\n        /* \"#utility.yul\":9578:9696   */\n      pop\n      pop\n      jump\t// out\n        /* \"#utility.yul\":9702:9924   */\n    tag_44:\n        /* \"#utility.yul\":9795:9799   */\n      0x00\n        /* \"#utility.yul\":9833:9835   */\n      0x20\n        /* \"#utility.yul\":9822:9831   */\n      dup3\n        /* \"#utility.yul\":9818:9836   */\n      add\n        /* \"#utility.yul\":9810:9836   */\n      swap1\n      pop\n        /* \"#utility.yul\":9846:9917   */\n      tag_426\n        /* \"#utility.yul\":9914:9915   */\n      0x00\n        /* \"#utility.yul\":9903:9912   */\n      dup4\n        /* \"#utility.yul\":9899:9916   */\n      add\n        /* \"#utility.yul\":9890:9896   */\n      dup5\n        /* \"#utility.yul\":9846:9917   */\n      tag_282\n      jump\t// in\n    tag_426:\n        /* \"#utility.yul\":9702:9924   */\n      swap3\n      swap2\n      pop\n      pop\n      jump\t// out\n        /* \"#utility.yul\":9930:10048   */\n    tag_283:\n        /* \"#utility.yul\":10017:10041   */\n      tag_428\n        /* \"#utility.yul\":10035:10040   */\n      dup2\n        /* \"#utility.yul\":10017:10041   */\n      tag_255\n      jump\t// in\n    tag_428:\n        /* \"#utility.yul\":10012:10015   */\n      dup3\n        /* \"#utility.yul\":10005:10042   */\n      mstore\n        /* \"#utility.yul\":9930:10048   */\n      pop\n      pop\n      jump\t// out\n        /* \"#utility.yul\":10054:10718   */\n    tag_49:\n        /* \"#utility.yul\":10259:10263   */\n      0x00\n        /* \"#utility.yul\":10297:10300   */\n      0xa0\n        /* \"#utility.yul\":10286:10295   */\n      dup3\n        /* \"#utility.yul\":10282:10301   */\n      add\n        /* \"#utility.yul\":10274:10301   */\n      swap1\n      pop\n        /* \"#utility.yul\":10311:10382   */\n      tag_430\n        /* \"#utility.yul\":10379:10380   */\n      0x00\n        /* \"#utility.yul\":10368:10377   */\n      dup4\n        /* \"#utility.yul\":10364:10381   */\n      add\n        /* \"#utility.yul\":10355:10361   */\n      dup9\n        /* \"#utility.yul\":10311:10382   */\n      tag_282\n      jump\t// in\n    tag_430:\n        /* \"#utility.yul\":10392:10464   */\n      tag_431\n        /* \"#utility.yul\":10460:10462   */\n      0x20\n        /* \"#utility.yul\":10449:10458   */\n      dup4\n        /* \"#utility.yul\":10445:10463   */\n      add\n        /* \"#utility.yul\":10436:10442   */\n      dup8\n        /* \"#utility.yul\":10392:10464   */\n      tag_282\n      jump\t// in\n    tag_431:\n        /* \"#utility.yul\":10474:10546   */\n      tag_432\n        /* \"#utility.yul\":10542:10544   */\n      0x40\n        /* \"#utility.yul\":10531:10540   */\n      dup4\n        /* \"#utility.yul\":10527:10545   */\n      add\n        /* \"#utility.yul\":10518:10524   */\n      dup7\n        /* \"#utility.yul\":10474:10546   */\n      tag_282\n      jump\t// in\n    tag_432:\n        /* \"#utility.yul\":10556:10628   */\n      tag_433\n        /* \"#utility.yul\":10624:10626   */\n      0x60\n        /* \"#utility.yul\":10613:10622   */\n      dup4\n        /* \"#utility.yul\":10609:10627   */\n      add\n        /* \"#utility.yul\":10600:10606   */\n      dup6\n        /* \"#utility.yul\":10556:10628   */\n      tag_282\n      jump\t// in\n    tag_433:\n        /* \"#utility.yul\":10638:10711   */\n      tag_434\n        /* \"#utility.yul\":10706:10709   */\n      0x80\n        /* \"#utility.yul\":10695:10704   */\n      dup4\n        /* \"#utility.yul\":10691:10710   */\n      add\n        /* \"#utility.yul\":10682:10688   */\n      dup5\n        /* \"#utility.yul\":10638:10711   */\n      tag_283\n      jump\t// in\n    tag_434:\n        /* \"#utility.yul\":10054:10718   */\n      swap7\n      swap6\n      pop\n      pop\n      pop\n      pop\n      pop\n      pop\n      jump\t// out\n        /* \"#utility.yul\":10724:10946   */\n    tag_54:\n        /* \"#utility.yul\":10817:10821   */\n      0x00\n        /* \"#utility.yul\":10855:10857   */\n      0x20\n        /* \"#utility.yul\":10844:10853   */\n      dup3\n        /* \"#utility.yul\":10840:10858   */\n      add\n        /* \"#utility.yul\":10832:10858   */\n      swap1\n      pop\n        /* \"#utility.yul\":10868:10939   */\n      tag_436\n        /* \"#utility.yul\":10936:10937   */\n      0x00\n        /* \"#utility.yul\":10925:10934   */\n      dup4\n        /* \"#utility.yul\":10921:10938   */\n      add\n        /* \"#utility.yul\":10912:10918   */\n      dup5\n        /* \"#utility.yul\":10868:10939   */\n      tag_283\n      jump\t// in\n    tag_436:\n        /* \"#utility.yul\":10724:10946   */\n      swap3\n      swap2\n      pop\n      pop\n      jump\t// out\n        /* \"#utility.yul\":10952:11121   */\n    tag_284:\n        /* \"#utility.yul\":11036:11047   */\n      0x00\n        /* \"#utility.yul\":11070:11076   */\n      dup3\n        /* \"#utility.yul\":11065:11068   */\n      dup3\n        /* \"#utility.yul\":11058:11077   */\n      mstore\n        /* \"#utility.yul\":11110:11114   */\n      0x20\n        /* \"#utility.yul\":11105:11108   */\n      dup3\n        /* \"#utility.yul\":11101:11115   */\n      add\n        /* \"#utility.yul\":11086:11115   */\n      swap1\n      pop\n        /* \"#utility.yul\":10952:11121   */\n      swap3\n      swap2\n      pop\n      pop\n      jump\t// out\n        /* \"#utility.yul\":11127:11491   */\n    tag_285:\n        /* \"#utility.yul\":11215:11218   */\n      0x00\n        /* \"#utility.yul\":11243:11282   */\n      tag_439\n        /* \"#utility.yul\":11276:11281   */\n      dup3\n        /* \"#utility.yul\":11243:11282   */\n      tag_261\n      jump\t// in\n    tag_439:\n        /* \"#utility.yul\":11298:11369   */\n      tag_440\n        /* \"#utility.yul\":11362:11368   */\n      dup2\n        /* \"#utility.yul\":11357:11360   */\n      dup6\n        /* \"#utility.yul\":11298:11369   */\n      tag_284\n      jump\t// in\n    tag_440:\n        /* \"#utility.yul\":11291:11369   */\n      swap4\n      pop\n        /* \"#utility.yul\":11378:11430   */\n      tag_441\n        /* \"#utility.yul\":11423:11429   */\n      dup2\n        /* \"#utility.yul\":11418:11421   */\n      dup6\n        /* \"#utility.yul\":11411:11415   */\n      0x20\n        /* \"#utility.yul\":11404:11409   */\n      dup7\n        /* \"#utility.yul\":11400:11416   */\n      add\n        /* \"#utility.yul\":11378:11430   */\n      tag_263\n      jump\t// in\n    tag_441:\n        /* \"#utility.yul\":11455:11484   */\n      tag_442\n        /* \"#utility.yul\":11477:11483   */\n      dup2\n        /* \"#utility.yul\":11455:11484   */\n      tag_264\n      jump\t// in\n    tag_442:\n        /* \"#utility.yul\":11450:11453   */\n      dup5\n        /* \"#utility.yul\":11446:11485   */\n      add\n        /* \"#utility.yul\":11439:11485   */\n      swap2\n      pop\n        /* \"#utility.yul\":11219:11491   */\n      pop\n        /* \"#utility.yul\":11127:11491   */\n      swap3\n      swap2\n      pop\n      pop\n      jump\t// out\n        /* \"#utility.yul\":11497:11606   */\n    tag_286:\n        /* \"#utility.yul\":11578:11599   */\n      tag_444\n        /* \"#utility.yul\":11593:11598   */\n      dup2\n        /* \"#utility.yul\":11578:11599   */\n      tag_268\n      jump\t// in\n    tag_444:\n        /* \"#utility.yul\":11573:11576   */\n      dup3\n        /* \"#utility.yul\":11566:11600   */\n      mstore\n        /* \"#utility.yul\":11497:11606   */\n      pop\n      pop\n      jump\t// out\n        /* \"#utility.yul\":11612:12454   */\n    tag_60:\n        /* \"#utility.yul\":11853:11857   */\n      0x00\n        /* \"#utility.yul\":11891:11894   */\n      0xc0\n        /* \"#utility.yul\":11880:11889   */\n      dup3\n        /* \"#utility.yul\":11876:11895   */\n      add\n        /* \"#utility.yul\":11868:11895   */\n      swap1\n      pop\n        /* \"#utility.yul\":11941:11950   */\n      dup2\n        /* \"#utility.yul\":11935:11939   */\n      dup2\n        /* \"#utility.yul\":11931:11951   */\n      sub\n        /* \"#utility.yul\":11927:11928   */\n      0x00\n        /* \"#utility.yul\":11916:11925   */\n      dup4\n        /* \"#utility.yul\":11912:11929   */\n      add\n        /* \"#utility.yul\":11905:11952   */\n      mstore\n        /* \"#utility.yul\":11969:12047   */\n      tag_446\n        /* \"#utility.yul\":12042:12046   */\n      dup2\n        /* \"#utility.yul\":12033:12039   */\n      dup10\n        /* \"#utility.yul\":11969:12047   */\n      tag_285\n      jump\t// in\n    tag_446:\n        /* \"#utility.yul\":11961:12047   */\n      swap1\n      pop\n        /* \"#utility.yul\":12057:12129   */\n      tag_447\n        /* \"#utility.yul\":12125:12127   */\n      0x20\n        /* \"#utility.yul\":12114:12123   */\n      dup4\n        /* \"#utility.yul\":12110:12128   */\n      add\n        /* \"#utility.yul\":12101:12107   */\n      dup9\n        /* \"#utility.yul\":12057:12129   */\n      tag_282\n      jump\t// in\n    tag_447:\n        /* \"#utility.yul\":12139:12211   */\n      tag_448\n        /* \"#utility.yul\":12207:12209   */\n      0x40\n        /* \"#utility.yul\":12196:12205   */\n      dup4\n        /* \"#utility.yul\":12192:12210   */\n      add\n        /* \"#utility.yul\":12183:12189   */\n      dup8\n        /* \"#utility.yul\":12139:12211   */\n      tag_283\n      jump\t// in\n    tag_448:\n        /* \"#utility.yul\":12221:12287   */\n      tag_449\n        /* \"#utility.yul\":12283:12285   */\n      0x60\n        /* \"#utility.yul\":12272:12281   */\n      dup4\n        /* \"#utility.yul\":12268:12286   */\n      add\n        /* \"#utility.yul\":12259:12265   */\n      dup7\n        /* \"#utility.yul\":12221:12287   */\n      tag_286\n      jump\t// in\n    tag_449:\n        /* \"#utility.yul\":12297:12364   */\n      tag_450\n        /* \"#utility.yul\":12359:12362   */\n      0x80\n        /* \"#utility.yul\":12348:12357   */\n      dup4\n        /* \"#utility.yul\":12344:12363   */\n      add\n        /* \"#utility.yul\":12335:12341   */\n      dup6\n        /* \"#utility.yul\":12297:12364   */\n      tag_286\n      jump\t// in\n    tag_450:\n        /* \"#utility.yul\":12374:12447   */\n      tag_451\n        /* \"#utility.yul\":12442:12445   */\n      0xa0\n        /* \"#utility.yul\":12431:12440   */\n      dup4\n        /* \"#utility.yul\":12427:12446   */\n      add\n        /* \"#utility.yul\":12418:12424   */\n      dup5\n        /* \"#utility.yul\":12374:12447   */\n      tag_282\n      jump\t// in\n    tag_451:\n        /* \"#utility.yul\":11612:12454   */\n      swap8\n      swap7\n      pop\n      pop\n      pop\n      pop\n      pop\n      pop\n      pop\n      jump\t// out\n        /* \"#utility.yul\":12460:12577   */\n    tag_287:\n        /* \"#utility.yul\":12569:12570   */\n      0x00\n        /* \"#utility.yul\":12566:12567   */\n      dup1\n        /* \"#utility.yul\":12559:12571   */\n      revert\n        /* \"#utility.yul\":12583:12700   */\n    tag_288:\n        /* \"#utility.yul\":12692:12693   */\n      0x00\n        /* \"#utility.yul\":12689:12690   */\n      dup1\n        /* \"#utility.yul\":12682:12694   */\n      revert\n        /* \"#utility.yul\":12706:12886   */\n    tag_289:\n        /* \"#utility.yul\":12754:12831   */\n      0x4e487b7100000000000000000000000000000000000000000000000000000000\n        /* \"#utility.yul\":12751:12752   */\n      0x00\n        /* \"#utility.yul\":12744:12832   */\n      mstore\n        /* \"#utility.yul\":12851:12855   */\n      0x41\n        /* \"#utility.yul\":12848:12849   */\n      0x04\n        /* \"#utility.yul\":12841:12856   */\n      mstore\n        /* \"#utility.yul\":12875:12879   */\n      0x24\n        /* \"#utility.yul\":12872:12873   */\n      0x00\n        /* \"#utility.yul\":12865:12880   */\n      revert\n        /* \"#utility.yul\":12892:13173   */\n    tag_290:\n        /* \"#utility.yul\":12975:13002   */\n      tag_456\n        /* \"#utility.yul\":12997:13001   */\n      dup3\n        /* \"#utility.yul\":12975:13002   */\n      tag_264\n      jump\t// in\n    tag_456:\n        /* \"#utility.yul\":12967:12973   */\n      dup2\n        /* \"#utility.yul\":12963:13003   */\n      add\n        /* \"#utility.yul\":13105:13111   */\n      dup2\n        /* \"#utility.yul\":13093:13103   */\n      dup2\n        /* \"#utility.yul\":13090:13112   */\n      lt\n        /* \"#utility.yul\":13069:13087   */\n      0xffffffffffffffff\n        /* \"#utility.yul\":13057:13067   */\n      dup3\n        /* \"#utility.yul\":13054:13088   */\n      gt\n        /* \"#utility.yul\":13051:13113   */\n      or\n        /* \"#utility.yul\":13048:13136   */\n      iszero\n      tag_457\n      jumpi\n        /* \"#utility.yul\":13116:13134   */\n      tag_458\n      tag_289\n      jump\t// in\n    tag_458:\n        /* \"#utility.yul\":13048:13136   */\n    tag_457:\n        /* \"#utility.yul\":13156:13166   */\n      dup1\n        /* \"#utility.yul\":13152:13154   */\n      0x40\n        /* \"#utility.yul\":13145:13167   */\n      mstore\n        /* \"#utility.yul\":12935:13173   */\n      pop\n        /* \"#utility.yul\":12892:13173   */\n      pop\n      pop\n      jump\t// out\n        /* \"#utility.yul\":13179:13308   */\n    tag_291:\n        /* \"#utility.yul\":13213:13219   */\n      0x00\n        /* \"#utility.yul\":13240:13260   */\n      tag_460\n      tag_248\n      jump\t// in\n    tag_460:\n        /* \"#utility.yul\":13230:13260   */\n      swap1\n      pop\n        /* \"#utility.yul\":13269:13302   */\n      tag_461\n        /* \"#utility.yul\":13297:13301   */\n      dup3\n        /* \"#utility.yul\":13289:13295   */\n      dup3\n        /* \"#utility.yul\":13269:13302   */\n      tag_290\n      jump\t// in\n    tag_461:\n        /* \"#utility.yul\":13179:13308   */\n      swap2\n      swap1\n      pop\n      jump\t// out\n        /* \"#utility.yul\":13314:13622   */\n    tag_292:\n        /* \"#utility.yul\":13376:13380   */\n      0x00\n        /* \"#utility.yul\":13466:13484   */\n      0xffffffffffffffff\n        /* \"#utility.yul\":13458:13464   */\n      dup3\n        /* \"#utility.yul\":13455:13485   */\n      gt\n        /* \"#utility.yul\":13452:13508   */\n      iszero\n      tag_463\n      jumpi\n        /* \"#utility.yul\":13488:13506   */\n      tag_464\n      tag_289\n      jump\t// in\n    tag_464:\n        /* \"#utility.yul\":13452:13508   */\n    tag_463:\n        /* \"#utility.yul\":13526:13555   */\n      tag_465\n        /* \"#utility.yul\":13548:13554   */\n      dup3\n        /* \"#utility.yul\":13526:13555   */\n      tag_264\n      jump\t// in\n    tag_465:\n        /* \"#utility.yul\":13518:13555   */\n      swap1\n      pop\n        /* \"#utility.yul\":13610:13614   */\n      0x20\n        /* \"#utility.yul\":13604:13608   */\n      dup2\n        /* \"#utility.yul\":13600:13615   */\n      add\n        /* \"#utility.yul\":13592:13615   */\n      swap1\n      pop\n        /* \"#utility.yul\":13314:13622   */\n      swap2\n      swap1\n      pop\n      jump\t// out\n        /* \"#utility.yul\":13628:13782   */\n    tag_293:\n        /* \"#utility.yul\":13712:13718   */\n      dup3\n        /* \"#utility.yul\":13707:13710   */\n      dup2\n        /* \"#utility.yul\":13702:13705   */\n      dup4\n        /* \"#utility.yul\":13689:13719   */\n      calldatacopy\n        /* \"#utility.yul\":13774:13775   */\n      0x00\n        /* \"#utility.yul\":13765:13771   */\n      dup4\n        /* \"#utility.yul\":13760:13763   */\n      dup4\n        /* \"#utility.yul\":13756:13772   */\n      add\n        /* \"#utility.yul\":13749:13776   */\n      mstore\n        /* \"#utility.yul\":13628:13782   */\n      pop\n      pop\n      pop\n      jump\t// out\n        /* \"#utility.yul\":13788:14200   */\n    tag_294:\n        /* \"#utility.yul\":13866:13871   */\n      0x00\n        /* \"#utility.yul\":13891:13957   */\n      tag_468\n        /* \"#utility.yul\":13907:13956   */\n      tag_469\n        /* \"#utility.yul\":13949:13955   */\n      dup5\n        /* \"#utility.yul\":13907:13956   */\n      tag_292\n      jump\t// in\n    tag_469:\n        /* \"#utility.yul\":13891:13957   */\n      tag_291\n      jump\t// in\n    tag_468:\n        /* \"#utility.yul\":13882:13957   */\n      swap1\n      pop\n        /* \"#utility.yul\":13980:13986   */\n      dup3\n        /* \"#utility.yul\":13973:13978   */\n      dup2\n        /* \"#utility.yul\":13966:13987   */\n      mstore\n        /* \"#utility.yul\":14018:14022   */\n      0x20\n        /* \"#utility.yul\":14011:14016   */\n      dup2\n        /* \"#utility.yul\":14007:14023   */\n      add\n        /* \"#utility.yul\":14056:14059   */\n      dup5\n        /* \"#utility.yul\":14047:14053   */\n      dup5\n        /* \"#utility.yul\":14042:14045   */\n      dup5\n        /* \"#utility.yul\":14038:14054   */\n      add\n        /* \"#utility.yul\":14035:14060   */\n      gt\n        /* \"#utility.yul\":14032:14144   */\n      iszero\n      tag_470\n      jumpi\n        /* \"#utility.yul\":14063:14142   */\n      tag_471\n      tag_288\n      jump\t// in\n    tag_471:\n        /* \"#utility.yul\":14032:14144   */\n    tag_470:\n        /* \"#utility.yul\":14153:14194   */\n      tag_472\n        /* \"#utility.yul\":14187:14193   */\n      dup5\n        /* \"#utility.yul\":14182:14185   */\n      dup3\n        /* \"#utility.yul\":14177:14180   */\n      dup6\n        /* \"#utility.yul\":14153:14194   */\n      tag_293\n      jump\t// in\n    tag_472:\n        /* \"#utility.yul\":13872:14200   */\n      pop\n        /* \"#utility.yul\":13788:14200   */\n      swap4\n      swap3\n      pop\n      pop\n      pop\n      jump\t// out\n        /* \"#utility.yul\":14220:14560   */\n    tag_295:\n        /* \"#utility.yul\":14276:14281   */\n      0x00\n        /* \"#utility.yul\":14325:14328   */\n      dup3\n        /* \"#utility.yul\":14318:14322   */\n      0x1f\n        /* \"#utility.yul\":14310:14316   */\n      dup4\n        /* \"#utility.yul\":14306:14323   */\n      add\n        /* \"#utility.yul\":14302:14329   */\n      slt\n        /* \"#utility.yul\":14292:14414   */\n      tag_474\n      jumpi\n        /* \"#utility.yul\":14333:14412   */\n      tag_475\n      tag_287\n      jump\t// in\n    tag_475:\n        /* \"#utility.yul\":14292:14414   */\n    tag_474:\n        /* \"#utility.yul\":14450:14456   */\n      dup2\n        /* \"#utility.yul\":14437:14457   */\n      calldataload\n        /* \"#utility.yul\":14475:14554   */\n      tag_476\n        /* \"#utility.yul\":14550:14553   */\n      dup5\n        /* \"#utility.yul\":14542:14548   */\n      dup3\n        /* \"#utility.yul\":14535:14539   */\n      0x20\n        /* \"#utility.yul\":14527:14533   */\n      dup7\n        /* \"#utility.yul\":14523:14540   */\n      add\n        /* \"#utility.yul\":14475:14554   */\n      tag_294\n      jump\t// in\n    tag_476:\n        /* \"#utility.yul\":14466:14554   */\n      swap2\n      pop\n        /* \"#utility.yul\":14282:14560   */\n      pop\n        /* \"#utility.yul\":14220:14560   */\n      swap3\n      swap2\n      pop\n      pop\n      jump\t// out\n        /* \"#utility.yul\":14566:15365   */\n    tag_68:\n        /* \"#utility.yul\":14653:14659   */\n      0x00\n        /* \"#utility.yul\":14661:14667   */\n      dup1\n        /* \"#utility.yul\":14669:14675   */\n      0x00\n        /* \"#utility.yul\":14718:14720   */\n      0x60\n        /* \"#utility.yul\":14706:14715   */\n      dup5\n        /* \"#utility.yul\":14697:14704   */\n      dup7\n        /* \"#utility.yul\":14693:14716   */\n      sub\n        /* \"#utility.yul\":14689:14721   */\n      slt\n        /* \"#utility.yul\":14686:14805   */\n      iszero\n      tag_478\n      jumpi\n        /* \"#utility.yul\":14724:14803   */\n      tag_479\n      tag_249\n      jump\t// in\n    tag_479:\n        /* \"#utility.yul\":14686:14805   */\n    tag_478:\n        /* \"#utility.yul\":14872:14873   */\n      0x00\n        /* \"#utility.yul\":14861:14870   */\n      dup5\n        /* \"#utility.yul\":14857:14874   */\n      add\n        /* \"#utility.yul\":14844:14875   */\n      calldataload\n        /* \"#utility.yul\":14902:14920   */\n      0xffffffffffffffff\n        /* \"#utility.yul\":14894:14900   */\n      dup2\n        /* \"#utility.yul\":14891:14921   */\n      gt\n        /* \"#utility.yul\":14888:15005   */\n      iszero\n      tag_480\n      jumpi\n        /* \"#utility.yul\":14924:15003   */\n      tag_481\n      tag_250\n      jump\t// in\n    tag_481:\n        /* \"#utility.yul\":14888:15005   */\n    tag_480:\n        /* \"#utility.yul\":15029:15092   */\n      tag_482\n        /* \"#utility.yul\":15084:15091   */\n      dup7\n        /* \"#utility.yul\":15075:15081   */\n      dup3\n        /* \"#utility.yul\":15064:15073   */\n      dup8\n        /* \"#utility.yul\":15060:15082   */\n      add\n        /* \"#utility.yul\":15029:15092   */\n      tag_295\n      jump\t// in\n    tag_482:\n        /* \"#utility.yul\":15019:15092   */\n      swap4\n      pop\n        /* \"#utility.yul\":14815:15102   */\n      pop\n        /* \"#utility.yul\":15141:15143   */\n      0x20\n        /* \"#utility.yul\":15167:15220   */\n      tag_483\n        /* \"#utility.yul\":15212:15219   */\n      dup7\n        /* \"#utility.yul\":15203:15209   */\n      dup3\n        /* \"#utility.yul\":15192:15201   */\n      dup8\n        /* \"#utility.yul\":15188:15210   */\n      add\n        /* \"#utility.yul\":15167:15220   */\n      tag_253\n      jump\t// in\n    tag_483:\n        /* \"#utility.yul\":15157:15220   */\n      swap3\n      pop\n        /* \"#utility.yul\":15112:15230   */\n      pop\n        /* \"#utility.yul\":15269:15271   */\n      0x40\n        /* \"#utility.yul\":15295:15348   */\n      tag_484\n        /* \"#utility.yul\":15340:15347   */\n      dup7\n        /* \"#utility.yul\":15331:15337   */\n      dup3\n        /* \"#utility.yul\":15320:15329   */\n      dup8\n        /* \"#utility.yul\":15316:15338   */\n      add\n        /* \"#utility.yul\":15295:15348   */\n      tag_257\n      jump\t// in\n    tag_484:\n        /* \"#utility.yul\":15285:15348   */\n      swap2\n      pop\n        /* \"#utility.yul\":15240:15358   */\n      pop\n        /* \"#utility.yul\":14566:15365   */\n      swap3\n      pop\n      swap3\n      pop\n      swap3\n      jump\t// out\n        /* \"#utility.yul\":15429:16746   */\n    tag_296:\n        /* \"#utility.yul\":15544:15547   */\n      0x00\n        /* \"#utility.yul\":15580:15584   */\n      0xc0\n        /* \"#utility.yul\":15575:15578   */\n      dup4\n        /* \"#utility.yul\":15571:15585   */\n      add\n        /* \"#utility.yul\":15674:15678   */\n      0x00\n        /* \"#utility.yul\":15667:15672   */\n      dup4\n        /* \"#utility.yul\":15663:15679   */\n      add\n        /* \"#utility.yul\":15657:15680   */\n      mload\n        /* \"#utility.yul\":15727:15730   */\n      dup5\n        /* \"#utility.yul\":15721:15725   */\n      dup3\n        /* \"#utility.yul\":15717:15731   */\n      sub\n        /* \"#utility.yul\":15710:15714   */\n      0x00\n        /* \"#utility.yul\":15705:15708   */\n      dup7\n        /* \"#utility.yul\":15701:15715   */\n      add\n        /* \"#utility.yul\":15694:15732   */\n      mstore\n        /* \"#utility.yul\":15753:15826   */\n      tag_486\n        /* \"#utility.yul\":15821:15825   */\n      dup3\n        /* \"#utility.yul\":15807:15819   */\n      dup3\n        /* \"#utility.yul\":15753:15826   */\n      tag_265\n      jump\t// in\n    tag_486:\n        /* \"#utility.yul\":15745:15826   */\n      swap2\n      pop\n        /* \"#utility.yul\":15595:15837   */\n      pop\n        /* \"#utility.yul\":15920:15924   */\n      0x20\n        /* \"#utility.yul\":15913:15918   */\n      dup4\n        /* \"#utility.yul\":15909:15925   */\n      add\n        /* \"#utility.yul\":15903:15926   */\n      mload\n        /* \"#utility.yul\":15939:16002   */\n      tag_487\n        /* \"#utility.yul\":15996:16000   */\n      0x20\n        /* \"#utility.yul\":15991:15994   */\n      dup7\n        /* \"#utility.yul\":15987:16001   */\n      add\n        /* \"#utility.yul\":15973:15985   */\n      dup3\n        /* \"#utility.yul\":15939:16002   */\n      tag_266\n      jump\t// in\n    tag_487:\n        /* \"#utility.yul\":15847:16012   */\n      pop\n        /* \"#utility.yul\":16099:16103   */\n      0x40\n        /* \"#utility.yul\":16092:16097   */\n      dup4\n        /* \"#utility.yul\":16088:16104   */\n      add\n        /* \"#utility.yul\":16082:16105   */\n      mload\n        /* \"#utility.yul\":16118:16181   */\n      tag_488\n        /* \"#utility.yul\":16175:16179   */\n      0x40\n        /* \"#utility.yul\":16170:16173   */\n      dup7\n        /* \"#utility.yul\":16166:16180   */\n      add\n        /* \"#utility.yul\":16152:16164   */\n      dup3\n        /* \"#utility.yul\":16118:16181   */\n      tag_267\n      jump\t// in\n    tag_488:\n        /* \"#utility.yul\":16022:16191   */\n      pop\n        /* \"#utility.yul\":16280:16284   */\n      0x60\n        /* \"#utility.yul\":16273:16278   */\n      dup4\n        /* \"#utility.yul\":16269:16285   */\n      add\n        /* \"#utility.yul\":16263:16286   */\n      mload\n        /* \"#utility.yul\":16299:16356   */\n      tag_489\n        /* \"#utility.yul\":16350:16354   */\n      0x60\n        /* \"#utility.yul\":16345:16348   */\n      dup7\n        /* \"#utility.yul\":16341:16355   */\n      add\n        /* \"#utility.yul\":16327:16339   */\n      dup3\n        /* \"#utility.yul\":16299:16356   */\n      tag_269\n      jump\t// in\n    tag_489:\n        /* \"#utility.yul\":16201:16366   */\n      pop\n        /* \"#utility.yul\":16454:16458   */\n      0x80\n        /* \"#utility.yul\":16447:16452   */\n      dup4\n        /* \"#utility.yul\":16443:16459   */\n      add\n        /* \"#utility.yul\":16437:16460   */\n      mload\n        /* \"#utility.yul\":16473:16530   */\n      tag_490\n        /* \"#utility.yul\":16524:16528   */\n      0x80\n        /* \"#utility.yul\":16519:16522   */\n      dup7\n        /* \"#utility.yul\":16515:16529   */\n      add\n        /* \"#utility.yul\":16501:16513   */\n      dup3\n        /* \"#utility.yul\":16473:16530   */\n      tag_269\n      jump\t// in\n    tag_490:\n        /* \"#utility.yul\":16376:16540   */\n      pop\n        /* \"#utility.yul\":16627:16631   */\n      0xa0\n        /* \"#utility.yul\":16620:16625   */\n      dup4\n        /* \"#utility.yul\":16616:16632   */\n      add\n        /* \"#utility.yul\":16610:16633   */\n      mload\n        /* \"#utility.yul\":16646:16709   */\n      tag_491\n        /* \"#utility.yul\":16703:16707   */\n      0xa0\n        /* \"#utility.yul\":16698:16701   */\n      dup7\n        /* \"#utility.yul\":16694:16708   */\n      add\n        /* \"#utility.yul\":16680:16692   */\n      dup3\n        /* \"#utility.yul\":16646:16709   */\n      tag_266\n      jump\t// in\n    tag_491:\n        /* \"#utility.yul\":16550:16719   */\n      pop\n        /* \"#utility.yul\":16736:16740   */\n      dup1\n        /* \"#utility.yul\":16729:16740   */\n      swap2\n      pop\n        /* \"#utility.yul\":15549:16746   */\n      pop\n        /* \"#utility.yul\":15429:16746   */\n      swap3\n      swap2\n      pop\n      pop\n      jump\t// out\n        /* \"#utility.yul\":16752:17117   */\n    tag_71:\n        /* \"#utility.yul\":16891:16895   */\n      0x00\n        /* \"#utility.yul\":16929:16931   */\n      0x20\n        /* \"#utility.yul\":16918:16927   */\n      dup3\n        /* \"#utility.yul\":16914:16932   */\n      add\n        /* \"#utility.yul\":16906:16932   */\n      swap1\n      pop\n        /* \"#utility.yul\":16978:16987   */\n      dup2\n        /* \"#utility.yul\":16972:16976   */\n      dup2\n        /* \"#utility.yul\":16968:16988   */\n      sub\n        /* \"#utility.yul\":16964:16965   */\n      0x00\n        /* \"#utility.yul\":16953:16962   */\n      dup4\n        /* \"#utility.yul\":16949:16966   */\n      add\n        /* \"#utility.yul\":16942:16989   */\n      mstore\n        /* \"#utility.yul\":17006:17110   */\n      tag_493\n        /* \"#utility.yul\":17105:17109   */\n      dup2\n        /* \"#utility.yul\":17096:17102   */\n      dup5\n        /* \"#utility.yul\":17006:17110   */\n      tag_296\n      jump\t// in\n    tag_493:\n        /* \"#utility.yul\":16998:17110   */\n      swap1\n      pop\n        /* \"#utility.yul\":16752:17117   */\n      swap3\n      swap2\n      pop\n      pop\n      jump\t// out\n        /* \"#utility.yul\":17123:17265   */\n    tag_297:\n        /* \"#utility.yul\":17226:17258   */\n      tag_495\n        /* \"#utility.yul\":17252:17257   */\n      dup2\n        /* \"#utility.yul\":17226:17258   */\n      tag_277\n      jump\t// in\n    tag_495:\n        /* \"#utility.yul\":17221:17224   */\n      dup3\n        /* \"#utility.yul\":17214:17259   */\n      mstore\n        /* \"#utility.yul\":17123:17265   */\n      pop\n      pop\n      jump\t// out\n        /* \"#utility.yul\":17271:17525   */\n    tag_83:\n        /* \"#utility.yul\":17380:17384   */\n      0x00\n        /* \"#utility.yul\":17418:17420   */\n      0x20\n        /* \"#utility.yul\":17407:17416   */\n      dup3\n        /* \"#utility.yul\":17403:17421   */\n      add\n        /* \"#utility.yul\":17395:17421   */\n      swap1\n      pop\n        /* \"#utility.yul\":17431:17518   */\n      tag_497\n        /* \"#utility.yul\":17515:17516   */\n      0x00\n        /* \"#utility.yul\":17504:17513   */\n      dup4\n        /* \"#utility.yul\":17500:17517   */\n      add\n        /* \"#utility.yul\":17491:17497   */\n      dup5\n        /* \"#utility.yul\":17431:17518   */\n      tag_297\n      jump\t// in\n    tag_497:\n        /* \"#utility.yul\":17271:17525   */\n      swap3\n      swap2\n      pop\n      pop\n      jump\t// out\n        /* \"#utility.yul\":17531:18005   */\n    tag_92:\n        /* \"#utility.yul\":17599:17605   */\n      0x00\n        /* \"#utility.yul\":17607:17613   */\n      dup1\n        /* \"#utility.yul\":17656:17658   */\n      0x40\n        /* \"#utility.yul\":17644:17653   */\n      dup4\n        /* \"#utility.yul\":17635:17642   */\n      dup6\n        /* \"#utility.yul\":17631:17654   */\n      sub\n        /* \"#utility.yul\":17627:17659   */\n      slt\n        /* \"#utility.yul\":17624:17743   */\n      iszero\n      tag_499\n      jumpi\n        /* \"#utility.yul\":17662:17741   */\n      tag_500\n      tag_249\n      jump\t// in\n    tag_500:\n        /* \"#utility.yul\":17624:17743   */\n    tag_499:\n        /* \"#utility.yul\":17782:17783   */\n      0x00\n        /* \"#utility.yul\":17807:17860   */\n      tag_501\n        /* \"#utility.yul\":17852:17859   */\n      dup6\n        /* \"#utility.yul\":17843:17849   */\n      dup3\n        /* \"#utility.yul\":17832:17841   */\n      dup7\n        /* \"#utility.yul\":17828:17850   */\n      add\n        /* \"#utility.yul\":17807:17860   */\n      tag_257\n      jump\t// in\n    tag_501:\n        /* \"#utility.yul\":17797:17860   */\n      swap3\n      pop\n        /* \"#utility.yul\":17753:17870   */\n      pop\n        /* \"#utility.yul\":17909:17911   */\n      0x20\n        /* \"#utility.yul\":17935:17988   */\n      tag_502\n        /* \"#utility.yul\":17980:17987   */\n      dup6\n        /* \"#utility.yul\":17971:17977   */\n      dup3\n        /* \"#utility.yul\":17960:17969   */\n      dup7\n        /* \"#utility.yul\":17956:17978   */\n      add\n        /* \"#utility.yul\":17935:17988   */\n      tag_253\n      jump\t// in\n    tag_502:\n        /* \"#utility.yul\":17925:17988   */\n      swap2\n      pop\n        /* \"#utility.yul\":17880:17998   */\n      pop\n        /* \"#utility.yul\":17531:18005   */\n      swap3\n      pop\n      swap3\n      swap1\n      pop\n      jump\t// out\n        /* \"#utility.yul\":18011:18245   */\n    tag_298:\n        /* \"#utility.yul\":18151:18185   */\n      0x546869732066756e6374696f6e2063616e206f6e6c792062652063616c6c6564\n        /* \"#utility.yul\":18147:18148   */\n      0x00\n        /* \"#utility.yul\":18139:18145   */\n      dup3\n        /* \"#utility.yul\":18135:18149   */\n      add\n        /* \"#utility.yul\":18128:18186   */\n      mstore\n        /* \"#utility.yul\":18220:18237   */\n      0x20627920746865206d616e616765720000000000000000000000000000000000\n        /* \"#utility.yul\":18215:18217   */\n      0x20\n        /* \"#utility.yul\":18207:18213   */\n      dup3\n        /* \"#utility.yul\":18203:18218   */\n      add\n        /* \"#utility.yul\":18196:18238   */\n      mstore\n        /* \"#utility.yul\":18011:18245   */\n      pop\n      jump\t// out\n        /* \"#utility.yul\":18251:18617   */\n    tag_299:\n        /* \"#utility.yul\":18393:18396   */\n      0x00\n        /* \"#utility.yul\":18414:18481   */\n      tag_505\n        /* \"#utility.yul\":18478:18480   */\n      0x2f\n        /* \"#utility.yul\":18473:18476   */\n      dup4\n        /* \"#utility.yul\":18414:18481   */\n      tag_284\n      jump\t// in\n    tag_505:\n        /* \"#utility.yul\":18407:18481   */\n      swap2\n      pop\n        /* \"#utility.yul\":18490:18583   */\n      tag_506\n        /* \"#utility.yul\":18579:18582   */\n      dup3\n        /* \"#utility.yul\":18490:18583   */\n      tag_298\n      jump\t// in\n    tag_506:\n        /* \"#utility.yul\":18608:18610   */\n      0x40\n        /* \"#utility.yul\":18603:18606   */\n      dup3\n        /* \"#utility.yul\":18599:18611   */\n      add\n        /* \"#utility.yul\":18592:18611   */\n      swap1\n      pop\n        /* \"#utility.yul\":18251:18617   */\n      swap2\n      swap1\n      pop\n      jump\t// out\n        /* \"#utility.yul\":18623:19042   */\n    tag_102:\n        /* \"#utility.yul\":18789:18793   */\n      0x00\n        /* \"#utility.yul\":18827:18829   */\n      0x20\n        /* \"#utility.yul\":18816:18825   */\n      dup3\n        /* \"#utility.yul\":18812:18830   */\n      add\n        /* \"#utility.yul\":18804:18830   */\n      swap1\n      pop\n        /* \"#utility.yul\":18876:18885   */\n      dup2\n        /* \"#utility.yul\":18870:18874   */\n      dup2\n        /* \"#utility.yul\":18866:18886   */\n      sub\n        /* \"#utility.yul\":18862:18863   */\n      0x00\n        /* \"#utility.yul\":18851:18860   */\n      dup4\n        /* \"#utility.yul\":18847:18864   */\n      add\n        /* \"#utility.yul\":18840:18887   */\n      mstore\n        /* \"#utility.yul\":18904:19035   */\n      tag_508\n        /* \"#utility.yul\":19030:19034   */\n      dup2\n        /* \"#utility.yul\":18904:19035   */\n      tag_299\n      jump\t// in\n    tag_508:\n        /* \"#utility.yul\":18896:19035   */\n      swap1\n      pop\n        /* \"#utility.yul\":18623:19042   */\n      swap2\n      swap1\n      pop\n      jump\t// out\n        /* \"#utility.yul\":19048:19228   */\n    tag_106:\n        /* \"#utility.yul\":19096:19173   */\n      0x4e487b7100000000000000000000000000000000000000000000000000000000\n        /* \"#utility.yul\":19093:19094   */\n      0x00\n        /* \"#utility.yul\":19086:19174   */\n      mstore\n        /* \"#utility.yul\":19193:19197   */\n      0x32\n        /* \"#utility.yul\":19190:19191   */\n      0x04\n        /* \"#utility.yul\":19183:19198   */\n      mstore\n        /* \"#utility.yul\":19217:19221   */\n      0x24\n        /* \"#utility.yul\":19214:19215   */\n      0x00\n        /* \"#utility.yul\":19207:19222   */\n      revert\n        /* \"#utility.yul\":19234:19414   */\n    tag_300:\n        /* \"#utility.yul\":19282:19359   */\n      0x4e487b7100000000000000000000000000000000000000000000000000000000\n        /* \"#utility.yul\":19279:19280   */\n      0x00\n        /* \"#utility.yul\":19272:19360   */\n      mstore\n        /* \"#utility.yul\":19379:19383   */\n      0x12\n        /* \"#utility.yul\":19376:19377   */\n      0x04\n        /* \"#utility.yul\":19369:19384   */\n      mstore\n        /* \"#utility.yul\":19403:19407   */\n      0x24\n        /* \"#utility.yul\":19400:19401   */\n      0x00\n        /* \"#utility.yul\":19393:19408   */\n      revert\n        /* \"#utility.yul\":19420:19600   */\n    tag_301:\n        /* \"#utility.yul\":19468:19545   */\n      0x4e487b7100000000000000000000000000000000000000000000000000000000\n        /* \"#utility.yul\":19465:19466   */\n      0x00\n        /* \"#utility.yul\":19458:19546   */\n      mstore\n        /* \"#utility.yul\":19565:19569   */\n      0x11\n        /* \"#utility.yul\":19562:19563   */\n      0x04\n        /* \"#utility.yul\":19555:19570   */\n      mstore\n        /* \"#utility.yul\":19589:19593   */\n      0x24\n        /* \"#utility.yul\":19586:19587   */\n      0x00\n        /* \"#utility.yul\":19579:19594   */\n      revert\n        /* \"#utility.yul\":19606:19791   */\n    tag_109:\n        /* \"#utility.yul\":19646:19647   */\n      0x00\n        /* \"#utility.yul\":19663:19683   */\n      tag_513\n        /* \"#utility.yul\":19681:19682   */\n      dup3\n        /* \"#utility.yul\":19663:19683   */\n      tag_251\n      jump\t// in\n    tag_513:\n        /* \"#utility.yul\":19658:19683   */\n      swap2\n      pop\n        /* \"#utility.yul\":19697:19717   */\n      tag_514\n        /* \"#utility.yul\":19715:19716   */\n      dup4\n        /* \"#utility.yul\":19697:19717   */\n      tag_251\n      jump\t// in\n    tag_514:\n        /* \"#utility.yul\":19692:19717   */\n      swap3\n      pop\n        /* \"#utility.yul\":19736:19737   */\n      dup3\n        /* \"#utility.yul\":19726:19761   */\n      tag_515\n      jumpi\n        /* \"#utility.yul\":19741:19759   */\n      tag_516\n      tag_300\n      jump\t// in\n    tag_516:\n        /* \"#utility.yul\":19726:19761   */\n    tag_515:\n        /* \"#utility.yul\":19783:19784   */\n      dup3\n        /* \"#utility.yul\":19780:19781   */\n      dup3\n        /* \"#utility.yul\":19776:19785   */\n      div\n        /* \"#utility.yul\":19771:19785   */\n      swap1\n      pop\n        /* \"#utility.yul\":19606:19791   */\n      swap3\n      swap2\n      pop\n      pop\n      jump\t// out\n        /* \"#utility.yul\":19797:20020   */\n    tag_302:\n        /* \"#utility.yul\":19937:19971   */\n      0x546865726520617265206e6f7420656e6f75676820706f736974697665732076\n        /* \"#utility.yul\":19933:19934   */\n      0x00\n        /* \"#utility.yul\":19925:19931   */\n      dup3\n        /* \"#utility.yul\":19921:19935   */\n      add\n        /* \"#utility.yul\":19914:19972   */\n      mstore\n        /* \"#utility.yul\":20006:20012   */\n      0x6f74657300000000000000000000000000000000000000000000000000000000\n        /* \"#utility.yul\":20001:20003   */\n      0x20\n        /* \"#utility.yul\":19993:19999   */\n      dup3\n        /* \"#utility.yul\":19989:20004   */\n      add\n        /* \"#utility.yul\":19982:20013   */\n      mstore\n        /* \"#utility.yul\":19797:20020   */\n      pop\n      jump\t// out\n        /* \"#utility.yul\":20026:20392   */\n    tag_303:\n        /* \"#utility.yul\":20168:20171   */\n      0x00\n        /* \"#utility.yul\":20189:20256   */\n      tag_519\n        /* \"#utility.yul\":20253:20255   */\n      0x24\n        /* \"#utility.yul\":20248:20251   */\n      dup4\n        /* \"#utility.yul\":20189:20256   */\n      tag_284\n      jump\t// in\n    tag_519:\n        /* \"#utility.yul\":20182:20256   */\n      swap2\n      pop\n        /* \"#utility.yul\":20265:20358   */\n      tag_520\n        /* \"#utility.yul\":20354:20357   */\n      dup3\n        /* \"#utility.yul\":20265:20358   */\n      tag_302\n      jump\t// in\n    tag_520:\n        /* \"#utility.yul\":20383:20385   */\n      0x40\n        /* \"#utility.yul\":20378:20381   */\n      dup3\n        /* \"#utility.yul\":20374:20386   */\n      add\n        /* \"#utility.yul\":20367:20386   */\n      swap1\n      pop\n        /* \"#utility.yul\":20026:20392   */\n      swap2\n      swap1\n      pop\n      jump\t// out\n        /* \"#utility.yul\":20398:20817   */\n    tag_112:\n        /* \"#utility.yul\":20564:20568   */\n      0x00\n        /* \"#utility.yul\":20602:20604   */\n      0x20\n        /* \"#utility.yul\":20591:20600   */\n      dup3\n        /* \"#utility.yul\":20587:20605   */\n      add\n        /* \"#utility.yul\":20579:20605   */\n      swap1\n      pop\n        /* \"#utility.yul\":20651:20660   */\n      dup2\n        /* \"#utility.yul\":20645:20649   */\n      dup2\n        /* \"#utility.yul\":20641:20661   */\n      sub\n        /* \"#utility.yul\":20637:20638   */\n      0x00\n        /* \"#utility.yul\":20626:20635   */\n      dup4\n        /* \"#utility.yul\":20622:20639   */\n      add\n        /* \"#utility.yul\":20615:20662   */\n      mstore\n        /* \"#utility.yul\":20679:20810   */\n      tag_522\n        /* \"#utility.yul\":20805:20809   */\n      dup2\n        /* \"#utility.yul\":20679:20810   */\n      tag_303\n      jump\t// in\n    tag_522:\n        /* \"#utility.yul\":20671:20810   */\n      swap1\n      pop\n        /* \"#utility.yul\":20398:20817   */\n      swap2\n      swap1\n      pop\n      jump\t// out\n        /* \"#utility.yul\":20823:21049   */\n    tag_304:\n        /* \"#utility.yul\":20963:20997   */\n      0x5468697320726571756573742068617320616c7265616479206265656e20636f\n        /* \"#utility.yul\":20959:20960   */\n      0x00\n        /* \"#utility.yul\":20951:20957   */\n      dup3\n        /* \"#utility.yul\":20947:20961   */\n      add\n        /* \"#utility.yul\":20940:20998   */\n      mstore\n        /* \"#utility.yul\":21032:21041   */\n      0x6d706c6574656400000000000000000000000000000000000000000000000000\n        /* \"#utility.yul\":21027:21029   */\n      0x20\n        /* \"#utility.yul\":21019:21025   */\n      dup3\n        /* \"#utility.yul\":21015:21030   */\n      add\n        /* \"#utility.yul\":21008:21042   */\n      mstore\n        /* \"#utility.yul\":20823:21049   */\n      pop\n      jump\t// out\n        /* \"#utility.yul\":21055:21421   */\n    tag_305:\n        /* \"#utility.yul\":21197:21200   */\n      0x00\n        /* \"#utility.yul\":21218:21285   */\n      tag_525\n        /* \"#utility.yul\":21282:21284   */\n      0x27\n        /* \"#utility.yul\":21277:21280   */\n      dup4\n        /* \"#utility.yul\":21218:21285   */\n      tag_284\n      jump\t// in\n    tag_525:\n        /* \"#utility.yul\":21211:21285   */\n      swap2\n      pop\n        /* \"#utility.yul\":21294:21387   */\n      tag_526\n        /* \"#utility.yul\":21383:21386   */\n      dup3\n        /* \"#utility.yul\":21294:21387   */\n      tag_304\n      jump\t// in\n    tag_526:\n        /* \"#utility.yul\":21412:21414   */\n      0x40\n        /* \"#utility.yul\":21407:21410   */\n      dup3\n        /* \"#utility.yul\":21403:21415   */\n      add\n        /* \"#utility.yul\":21396:21415   */\n      swap1\n      pop\n        /* \"#utility.yul\":21055:21421   */\n      swap2\n      swap1\n      pop\n      jump\t// out\n        /* \"#utility.yul\":21427:21846   */\n    tag_115:\n        /* \"#utility.yul\":21593:21597   */\n      0x00\n        /* \"#utility.yul\":21631:21633   */\n      0x20\n        /* \"#utility.yul\":21620:21629   */\n      dup3\n        /* \"#utility.yul\":21616:21634   */\n      add\n        /* \"#utility.yul\":21608:21634   */\n      swap1\n      pop\n        /* \"#utility.yul\":21680:21689   */\n      dup2\n        /* \"#utility.yul\":21674:21678   */\n      dup2\n        /* \"#utility.yul\":21670:21690   */\n      sub\n        /* \"#utility.yul\":21666:21667   */\n      0x00\n        /* \"#utility.yul\":21655:21664   */\n      dup4\n        /* \"#utility.yul\":21651:21668   */\n      add\n        /* \"#utility.yul\":21644:21691   */\n      mstore\n        /* \"#utility.yul\":21708:21839   */\n      tag_528\n        /* \"#utility.yul\":21834:21838   */\n      dup2\n        /* \"#utility.yul\":21708:21839   */\n      tag_305\n      jump\t// in\n    tag_528:\n        /* \"#utility.yul\":21700:21839   */\n      swap1\n      pop\n        /* \"#utility.yul\":21427:21846   */\n      swap2\n      swap1\n      pop\n      jump\t// out\n        /* \"#utility.yul\":21852:22032   */\n    tag_306:\n        /* \"#utility.yul\":21992:22024   */\n      0x54686973207265717565737420686173206265656e2063616e63656c65640000\n        /* \"#utility.yul\":21988:21989   */\n      0x00\n        /* \"#utility.yul\":21980:21986   */\n      dup3\n        /* \"#utility.yul\":21976:21990   */\n      add\n        /* \"#utility.yul\":21969:22025   */\n      mstore\n        /* \"#utility.yul\":21852:22032   */\n      pop\n      jump\t// out\n        /* \"#utility.yul\":22038:22404   */\n    tag_307:\n        /* \"#utility.yul\":22180:22183   */\n      0x00\n        /* \"#utility.yul\":22201:22268   */\n      tag_531\n        /* \"#utility.yul\":22265:22267   */\n      0x1e\n        /* \"#utility.yul\":22260:22263   */\n      dup4\n        /* \"#utility.yul\":22201:22268   */\n      tag_284\n      jump\t// in\n    tag_531:\n        /* \"#utility.yul\":22194:22268   */\n      swap2\n      pop\n        /* \"#utility.yul\":22277:22370   */\n      tag_532\n        /* \"#utility.yul\":22366:22369   */\n      dup3\n        /* \"#utility.yul\":22277:22370   */\n      tag_306\n      jump\t// in\n    tag_532:\n        /* \"#utility.yul\":22395:22397   */\n      0x20\n        /* \"#utility.yul\":22390:22393   */\n      dup3\n        /* \"#utility.yul\":22386:22398   */\n      add\n        /* \"#utility.yul\":22379:22398   */\n      swap1\n      pop\n        /* \"#utility.yul\":22038:22404   */\n      swap2\n      swap1\n      pop\n      jump\t// out\n        /* \"#utility.yul\":22410:22829   */\n    tag_118:\n        /* \"#utility.yul\":22576:22580   */\n      0x00\n        /* \"#utility.yul\":22614:22616   */\n      0x20\n        /* \"#utility.yul\":22603:22612   */\n      dup3\n        /* \"#utility.yul\":22599:22617   */\n      add\n        /* \"#utility.yul\":22591:22617   */\n      swap1\n      pop\n        /* \"#utility.yul\":22663:22672   */\n      dup2\n        /* \"#utility.yul\":22657:22661   */\n      dup2\n        /* \"#utility.yul\":22653:22673   */\n      sub\n        /* \"#utility.yul\":22649:22650   */\n      0x00\n        /* \"#utility.yul\":22638:22647   */\n      dup4\n        /* \"#utility.yul\":22634:22651   */\n      add\n        /* \"#utility.yul\":22627:22674   */\n      mstore\n        /* \"#utility.yul\":22691:22822   */\n      tag_534\n        /* \"#utility.yul\":22817:22821   */\n      dup2\n        /* \"#utility.yul\":22691:22822   */\n      tag_307\n      jump\t// in\n    tag_534:\n        /* \"#utility.yul\":22683:22822   */\n      swap1\n      pop\n        /* \"#utility.yul\":22410:22829   */\n      swap2\n      swap1\n      pop\n      jump\t// out\n        /* \"#utility.yul\":22835:23061   */\n    tag_308:\n        /* \"#utility.yul\":22975:23009   */\n      0x5468652063616d706169676e20646f6573206e6f74206861766520656e6f7567\n        /* \"#utility.yul\":22971:22972   */\n      0x00\n        /* \"#utility.yul\":22963:22969   */\n      dup3\n        /* \"#utility.yul\":22959:22973   */\n      add\n        /* \"#utility.yul\":22952:23010   */\n      mstore\n        /* \"#utility.yul\":23044:23053   */\n      0x682066756e647300000000000000000000000000000000000000000000000000\n        /* \"#utility.yul\":23039:23041   */\n      0x20\n        /* \"#utility.yul\":23031:23037   */\n      dup3\n        /* \"#utility.yul\":23027:23042   */\n      add\n        /* \"#utility.yul\":23020:23054   */\n      mstore\n        /* \"#utility.yul\":22835:23061   */\n      pop\n      jump\t// out\n        /* \"#utility.yul\":23067:23433   */\n    tag_309:\n        /* \"#utility.yul\":23209:23212   */\n      0x00\n        /* \"#utility.yul\":23230:23297   */\n      tag_537\n        /* \"#utility.yul\":23294:23296   */\n      0x27\n        /* \"#utility.yul\":23289:23292   */\n      dup4\n        /* \"#utility.yul\":23230:23297   */\n      tag_284\n      jump\t// in\n    tag_537:\n        /* \"#utility.yul\":23223:23297   */\n      swap2\n      pop\n        /* \"#utility.yul\":23306:23399   */\n      tag_538\n        /* \"#utility.yul\":23395:23398   */\n      dup3\n        /* \"#utility.yul\":23306:23399   */\n      tag_308\n      jump\t// in\n    tag_538:\n        /* \"#utility.yul\":23424:23426   */\n      0x40\n        /* \"#utility.yul\":23419:23422   */\n      dup3\n        /* \"#utility.yul\":23415:23427   */\n      add\n        /* \"#utility.yul\":23408:23427   */\n      swap1\n      pop\n        /* \"#utility.yul\":23067:23433   */\n      swap2\n      swap1\n      pop\n      jump\t// out\n        /* \"#utility.yul\":23439:23858   */\n    tag_121:\n        /* \"#utility.yul\":23605:23609   */\n      0x00\n        /* \"#utility.yul\":23643:23645   */\n      0x20\n        /* \"#utility.yul\":23632:23641   */\n      dup3\n        /* \"#utility.yul\":23628:23646   */\n      add\n        /* \"#utility.yul\":23620:23646   */\n      swap1\n      pop\n        /* \"#utility.yul\":23692:23701   */\n      dup2\n        /* \"#utility.yul\":23686:23690   */\n      dup2\n        /* \"#utility.yul\":23682:23702   */\n      sub\n        /* \"#utility.yul\":23678:23679   */\n      0x00\n        /* \"#utility.yul\":23667:23676   */\n      dup4\n        /* \"#utility.yul\":23663:23680   */\n      add\n        /* \"#utility.yul\":23656:23703   */\n      mstore\n        /* \"#utility.yul\":23720:23851   */\n      tag_540\n        /* \"#utility.yul\":23846:23850   */\n      dup2\n        /* \"#utility.yul\":23720:23851   */\n      tag_309\n      jump\t// in\n    tag_540:\n        /* \"#utility.yul\":23712:23851   */\n      swap1\n      pop\n        /* \"#utility.yul\":23439:23858   */\n      swap2\n      swap1\n      pop\n      jump\t// out\n        /* \"#utility.yul\":23864:24084   */\n    tag_310:\n        /* \"#utility.yul\":24004:24038   */\n      0x54686520676976656e2061646472657373206973206e6f742061206261636b65\n        /* \"#utility.yul\":24000:24001   */\n      0x00\n        /* \"#utility.yul\":23992:23998   */\n      dup3\n        /* \"#utility.yul\":23988:24002   */\n      add\n        /* \"#utility.yul\":23981:24039   */\n      mstore\n        /* \"#utility.yul\":24073:24076   */\n      0x7200000000000000000000000000000000000000000000000000000000000000\n        /* \"#utility.yul\":24068:24070   */\n      0x20\n        /* \"#utility.yul\":24060:24066   */\n      dup3\n        /* \"#utility.yul\":24056:24071   */\n      add\n        /* \"#utility.yul\":24049:24077   */\n      mstore\n        /* \"#utility.yul\":23864:24084   */\n      pop\n      jump\t// out\n        /* \"#utility.yul\":24090:24456   */\n    tag_311:\n        /* \"#utility.yul\":24232:24235   */\n      0x00\n        /* \"#utility.yul\":24253:24320   */\n      tag_543\n        /* \"#utility.yul\":24317:24319   */\n      0x21\n        /* \"#utility.yul\":24312:24315   */\n      dup4\n        /* \"#utility.yul\":24253:24320   */\n      tag_284\n      jump\t// in\n    tag_543:\n        /* \"#utility.yul\":24246:24320   */\n      swap2\n      pop\n        /* \"#utility.yul\":24329:24422   */\n      tag_544\n        /* \"#utility.yul\":24418:24421   */\n      dup3\n        /* \"#utility.yul\":24329:24422   */\n      tag_310\n      jump\t// in\n    tag_544:\n        /* \"#utility.yul\":24447:24449   */\n      0x40\n        /* \"#utility.yul\":24442:24445   */\n      dup3\n        /* \"#utility.yul\":24438:24450   */\n      add\n        /* \"#utility.yul\":24431:24450   */\n      swap1\n      pop\n        /* \"#utility.yul\":24090:24456   */\n      swap2\n      swap1\n      pop\n      jump\t// out\n        /* \"#utility.yul\":24462:24881   */\n    tag_130:\n        /* \"#utility.yul\":24628:24632   */\n      0x00\n        /* \"#utility.yul\":24666:24668   */\n      0x20\n        /* \"#utility.yul\":24655:24664   */\n      dup3\n        /* \"#utility.yul\":24651:24669   */\n      add\n        /* \"#utility.yul\":24643:24669   */\n      swap1\n      pop\n        /* \"#utility.yul\":24715:24724   */\n      dup2\n        /* \"#utility.yul\":24709:24713   */\n      dup2\n        /* \"#utility.yul\":24705:24725   */\n      sub\n        /* \"#utility.yul\":24701:24702   */\n      0x00\n        /* \"#utility.yul\":24690:24699   */\n      dup4\n        /* \"#utility.yul\":24686:24703   */\n      add\n        /* \"#utility.yul\":24679:24726   */\n      mstore\n        /* \"#utility.yul\":24743:24874   */\n      tag_546\n        /* \"#utility.yul\":24869:24873   */\n      dup2\n        /* \"#utility.yul\":24743:24874   */\n      tag_311\n      jump\t// in\n    tag_546:\n        /* \"#utility.yul\":24735:24874   */\n      swap1\n      pop\n        /* \"#utility.yul\":24462:24881   */\n      swap2\n      swap1\n      pop\n      jump\t// out\n        /* \"#utility.yul\":24887:25067   */\n    tag_312:\n        /* \"#utility.yul\":24935:25012   */\n      0x4e487b7100000000000000000000000000000000000000000000000000000000\n        /* \"#utility.yul\":24932:24933   */\n      0x00\n        /* \"#utility.yul\":24925:25013   */\n      mstore\n        /* \"#utility.yul\":25032:25036   */\n      0x22\n        /* \"#utility.yul\":25029:25030   */\n      0x04\n        /* \"#utility.yul\":25022:25037   */\n      mstore\n        /* \"#utility.yul\":25056:25060   */\n      0x24\n        /* \"#utility.yul\":25053:25054   */\n      0x00\n        /* \"#utility.yul\":25046:25061   */\n      revert\n        /* \"#utility.yul\":25073:25393   */\n    tag_135:\n        /* \"#utility.yul\":25117:25123   */\n      0x00\n        /* \"#utility.yul\":25154:25155   */\n      0x02\n        /* \"#utility.yul\":25148:25152   */\n      dup3\n        /* \"#utility.yul\":25144:25156   */\n      div\n        /* \"#utility.yul\":25134:25156   */\n      swap1\n      pop\n        /* \"#utility.yul\":25201:25202   */\n      0x01\n        /* \"#utility.yul\":25195:25199   */\n      dup3\n        /* \"#utility.yul\":25191:25203   */\n      and\n        /* \"#utility.yul\":25222:25240   */\n      dup1\n        /* \"#utility.yul\":25212:25293   */\n      tag_549\n      jumpi\n        /* \"#utility.yul\":25278:25282   */\n      0x7f\n        /* \"#utility.yul\":25270:25276   */\n      dup3\n        /* \"#utility.yul\":25266:25283   */\n      and\n        /* \"#utility.yul\":25256:25283   */\n      swap2\n      pop\n        /* \"#utility.yul\":25212:25293   */\n    tag_549:\n        /* \"#utility.yul\":25340:25342   */\n      0x20\n        /* \"#utility.yul\":25332:25338   */\n      dup3\n        /* \"#utility.yul\":25329:25343   */\n      lt\n        /* \"#utility.yul\":25309:25327   */\n      dup2\n        /* \"#utility.yul\":25306:25344   */\n      sub\n        /* \"#utility.yul\":25303:25387   */\n      tag_550\n      jumpi\n        /* \"#utility.yul\":25359:25377   */\n      tag_551\n      tag_312\n      jump\t// in\n    tag_551:\n        /* \"#utility.yul\":25303:25387   */\n    tag_550:\n        /* \"#utility.yul\":25124:25393   */\n      pop\n        /* \"#utility.yul\":25073:25393   */\n      swap2\n      swap1\n      pop\n      jump\t// out\n        /* \"#utility.yul\":25399:25636   */\n    tag_313:\n        /* \"#utility.yul\":25539:25573   */\n      0x596f75206e65656420746f2073656e64206174206c6561737420746865206d69\n        /* \"#utility.yul\":25535:25536   */\n      0x00\n        /* \"#utility.yul\":25527:25533   */\n      dup3\n        /* \"#utility.yul\":25523:25537   */\n      add\n        /* \"#utility.yul\":25516:25574   */\n      mstore\n        /* \"#utility.yul\":25608:25628   */\n      0x6e696d756d20636f6e747269627574696f6e0000000000000000000000000000\n        /* \"#utility.yul\":25603:25605   */\n      0x20\n        /* \"#utility.yul\":25595:25601   */\n      dup3\n        /* \"#utility.yul\":25591:25606   */\n      add\n        /* \"#utility.yul\":25584:25629   */\n      mstore\n        /* \"#utility.yul\":25399:25636   */\n      pop\n      jump\t// out\n        /* \"#utility.yul\":25642:26008   */\n    tag_314:\n        /* \"#utility.yul\":25784:25787   */\n      0x00\n        /* \"#utility.yul\":25805:25872   */\n      tag_554\n        /* \"#utility.yul\":25869:25871   */\n      0x32\n        /* \"#utility.yul\":25864:25867   */\n      dup4\n        /* \"#utility.yul\":25805:25872   */\n      tag_284\n      jump\t// in\n    tag_554:\n        /* \"#utility.yul\":25798:25872   */\n      swap2\n      pop\n        /* \"#utility.yul\":25881:25974   */\n      tag_555\n        /* \"#utility.yul\":25970:25973   */\n      dup3\n        /* \"#utility.yul\":25881:25974   */\n      tag_313\n      jump\t// in\n    tag_555:\n        /* \"#utility.yul\":25999:26001   */\n      0x40\n        /* \"#utility.yul\":25994:25997   */\n      dup3\n        /* \"#utility.yul\":25990:26002   */\n      add\n        /* \"#utility.yul\":25983:26002   */\n      swap1\n      pop\n        /* \"#utility.yul\":25642:26008   */\n      swap2\n      swap1\n      pop\n      jump\t// out\n        /* \"#utility.yul\":26014:26433   */\n    tag_173:\n        /* \"#utility.yul\":26180:26184   */\n      0x00\n        /* \"#utility.yul\":26218:26220   */\n      0x20\n        /* \"#utility.yul\":26207:26216   */\n      dup3\n        /* \"#utility.yul\":26203:26221   */\n      add\n        /* \"#utility.yul\":26195:26221   */\n      swap1\n      pop\n        /* \"#utility.yul\":26267:26276   */\n      dup2\n        /* \"#utility.yul\":26261:26265   */\n      dup2\n        /* \"#utility.yul\":26257:26277   */\n      sub\n        /* \"#utility.yul\":26253:26254   */\n      0x00\n        /* \"#utility.yul\":26242:26251   */\n      dup4\n        /* \"#utility.yul\":26238:26255   */\n      add\n        /* \"#utility.yul\":26231:26278   */\n      mstore\n        /* \"#utility.yul\":26295:26426   */\n      tag_557\n        /* \"#utility.yul\":26421:26425   */\n      dup2\n        /* \"#utility.yul\":26295:26426   */\n      tag_314\n      jump\t// in\n    tag_557:\n        /* \"#utility.yul\":26287:26426   */\n      swap1\n      pop\n        /* \"#utility.yul\":26014:26433   */\n      swap2\n      swap1\n      pop\n      jump\t// out\n        /* \"#utility.yul\":26439:26744   */\n    tag_177:\n        /* \"#utility.yul\":26479:26482   */\n      0x00\n        /* \"#utility.yul\":26498:26518   */\n      tag_559\n        /* \"#utility.yul\":26516:26517   */\n      dup3\n        /* \"#utility.yul\":26498:26518   */\n      tag_251\n      jump\t// in\n    tag_559:\n        /* \"#utility.yul\":26493:26518   */\n      swap2\n      pop\n        /* \"#utility.yul\":26532:26552   */\n      tag_560\n        /* \"#utility.yul\":26550:26551   */\n      dup4\n        /* \"#utility.yul\":26532:26552   */\n      tag_251\n      jump\t// in\n    tag_560:\n        /* \"#utility.yul\":26527:26552   */\n      swap3\n      pop\n        /* \"#utility.yul\":26686:26687   */\n      dup3\n        /* \"#utility.yul\":26618:26684   */\n      0xffffffffffffffffffffffffffffffffffffffffffffffffffffffffffffffff\n        /* \"#utility.yul\":26614:26688   */\n      sub\n        /* \"#utility.yul\":26611:26612   */\n      dup3\n        /* \"#utility.yul\":26608:26689   */\n      gt\n        /* \"#utility.yul\":26605:26712   */\n      iszero\n      tag_561\n      jumpi\n        /* \"#utility.yul\":26692:26710   */\n      tag_562\n      tag_301\n      jump\t// in\n    tag_562:\n        /* \"#utility.yul\":26605:26712   */\n    tag_561:\n        /* \"#utility.yul\":26736:26737   */\n      dup3\n        /* \"#utility.yul\":26733:26734   */\n      dup3\n        /* \"#utility.yul\":26729:26738   */\n      add\n        /* \"#utility.yul\":26722:26738   */\n      swap1\n      pop\n        /* \"#utility.yul\":26439:26744   */\n      swap3\n      swap2\n      pop\n      pop\n      jump\t// out\n        /* \"#utility.yul\":26750:26981   */\n    tag_315:\n        /* \"#utility.yul\":26890:26924   */\n      0x546869732066756e6374696f6e2063616e206f6e6c792062652063616c6c6564\n        /* \"#utility.yul\":26886:26887   */\n      0x00\n        /* \"#utility.yul\":26878:26884   */\n      dup3\n        /* \"#utility.yul\":26874:26888   */\n      add\n        /* \"#utility.yul\":26867:26925   */\n      mstore\n        /* \"#utility.yul\":26959:26973   */\n      0x2062792061206261636b65720000000000000000000000000000000000000000\n        /* \"#utility.yul\":26954:26956   */\n      0x20\n        /* \"#utility.yul\":26946:26952   */\n      dup3\n        /* \"#utility.yul\":26942:26957   */\n      add\n        /* \"#utility.yul\":26935:26974   */\n      mstore\n        /* \"#utility.yul\":26750:26981   */\n      pop\n      jump\t// out\n        /* \"#utility.yul\":26987:27353   */\n    tag_316:\n        /* \"#utility.yul\":27129:27132   */\n      0x00\n        /* \"#utility.yul\":27150:27217   */\n      tag_565\n        /* \"#utility.yul\":27214:27216   */\n      0x2c\n        /* \"#utility.yul\":27209:27212   */\n      dup4\n        /* \"#utility.yul\":27150:27217   */\n      tag_284\n      jump\t// in\n    tag_565:\n        /* \"#utility.yul\":27143:27217   */\n      swap2\n      pop\n        /* \"#utility.yul\":27226:27319   */\n      tag_566\n        /* \"#utility.yul\":27315:27318   */\n      dup3\n        /* \"#utility.yul\":27226:27319   */\n      tag_315\n      jump\t// in\n    tag_566:\n        /* \"#utility.yul\":27344:27346   */\n      0x40\n        /* \"#utility.yul\":27339:27342   */\n      dup3\n        /* \"#utility.yul\":27335:27347   */\n      add\n        /* \"#utility.yul\":27328:27347   */\n      swap1\n      pop\n        /* \"#utility.yul\":26987:27353   */\n      swap2\n      swap1\n      pop\n      jump\t// out\n        /* \"#utility.yul\":27359:27778   */\n    tag_194:\n        /* \"#utility.yul\":27525:27529   */\n      0x00\n        /* \"#utility.yul\":27563:27565   */\n      0x20\n        /* \"#utility.yul\":27552:27561   */\n      dup3\n        /* \"#utility.yul\":27548:27566   */\n      add\n        /* \"#utility.yul\":27540:27566   */\n      swap1\n      pop\n        /* \"#utility.yul\":27612:27621   */\n      dup2\n        /* \"#utility.yul\":27606:27610   */\n      dup2\n        /* \"#utility.yul\":27602:27622   */\n      sub\n        /* \"#utility.yul\":27598:27599   */\n      0x00\n        /* \"#utility.yul\":27587:27596   */\n      dup4\n        /* \"#utility.yul\":27583:27600   */\n      add\n        /* \"#utility.yul\":27576:27623   */\n      mstore\n        /* \"#utility.yul\":27640:27771   */\n      tag_568\n        /* \"#utility.yul\":27766:27770   */\n      dup2\n        /* \"#utility.yul\":27640:27771   */\n      tag_316\n      jump\t// in\n    tag_568:\n        /* \"#utility.yul\":27632:27771   */\n      swap1\n      pop\n        /* \"#utility.yul\":27359:27778   */\n      swap2\n      swap1\n      pop\n      jump\t// out\n        /* \"#utility.yul\":27784:27925   */\n    tag_317:\n        /* \"#utility.yul\":27833:27837   */\n      0x00\n        /* \"#utility.yul\":27856:27859   */\n      dup2\n        /* \"#utility.yul\":27848:27859   */\n      swap1\n      pop\n        /* \"#utility.yul\":27879:27882   */\n      dup2\n        /* \"#utility.yul\":27876:27877   */\n      0x00\n        /* \"#utility.yul\":27869:27883   */\n      mstore\n        /* \"#utility.yul\":27913:27917   */\n      0x20\n        /* \"#utility.yul\":27910:27911   */\n      0x00\n        /* \"#utility.yul\":27900:27918   */\n      keccak256\n        /* \"#utility.yul\":27892:27918   */\n      swap1\n      pop\n        /* \"#utility.yul\":27784:27925   */\n      swap2\n      swap1\n      pop\n      jump\t// out\n        /* \"#utility.yul\":27955:28737   */\n    tag_318:\n        /* \"#utility.yul\":28030:28033   */\n      0x00\n        /* \"#utility.yul\":28067:28072   */\n      dup2\n        /* \"#utility.yul\":28061:28073   */\n      sload\n        /* \"#utility.yul\":28096:28132   */\n      tag_571\n        /* \"#utility.yul\":28122:28131   */\n      dup2\n        /* \"#utility.yul\":28096:28132   */\n      tag_135\n      jump\t// in\n    tag_571:\n        /* \"#utility.yul\":28148:28209   */\n      tag_572\n        /* \"#utility.yul\":28202:28208   */\n      dup2\n        /* \"#utility.yul\":28197:28200   */\n      dup7\n        /* \"#utility.yul\":28148:28209   */\n      tag_262\n      jump\t// in\n    tag_572:\n        /* \"#utility.yul\":28141:28209   */\n      swap5\n      pop\n        /* \"#utility.yul\":28240:28241   */\n      0x01\n        /* \"#utility.yul\":28229:28238   */\n      dup3\n        /* \"#utility.yul\":28225:28242   */\n      and\n        /* \"#utility.yul\":28256:28257   */\n      0x00\n        /* \"#utility.yul\":28251:28386   */\n      dup2\n      eq\n      tag_574\n      jumpi\n        /* \"#utility.yul\":28400:28401   */\n      0x01\n        /* \"#utility.yul\":28395:28731   */\n      dup2\n      eq\n      tag_575\n      jumpi\n        /* \"#utility.yul\":28218:28731   */\n      jump(tag_573)\n        /* \"#utility.yul\":28251:28386   */\n    tag_574:\n        /* \"#utility.yul\":28335:28339   */\n      0xff\n        /* \"#utility.yul\":28331:28340   */\n      not\n        /* \"#utility.yul\":28320:28329   */\n      dup4\n        /* \"#utility.yul\":28316:28341   */\n      and\n        /* \"#utility.yul\":28311:28314   */\n      dup7\n        /* \"#utility.yul\":28304:28342   */\n      mstore\n        /* \"#utility.yul\":28371:28375   */\n      0x20\n        /* \"#utility.yul\":28366:28369   */\n      dup7\n        /* \"#utility.yul\":28362:28376   */\n      add\n        /* \"#utility.yul\":28355:28376   */\n      swap4\n      pop\n        /* \"#utility.yul\":28251:28386   */\n      jump(tag_573)\n        /* \"#utility.yul\":28395:28731   */\n    tag_575:\n        /* \"#utility.yul\":28462:28500   */\n      tag_576\n        /* \"#utility.yul\":28494:28499   */\n      dup6\n        /* \"#utility.yul\":28462:28500   */\n      tag_317\n      jump\t// in\n    tag_576:\n        /* \"#utility.yul\":28522:28523   */\n      0x00\n        /* \"#utility.yul\":28536:28690   */\n    tag_577:\n        /* \"#utility.yul\":28550:28556   */\n      dup4\n        /* \"#utility.yul\":28547:28548   */\n      dup2\n        /* \"#utility.yul\":28544:28557   */\n      lt\n        /* \"#utility.yul\":28536:28690   */\n      iszero\n      tag_579\n      jumpi\n        /* \"#utility.yul\":28624:28631   */\n      dup2\n        /* \"#utility.yul\":28618:28632   */\n      sload\n        /* \"#utility.yul\":28614:28615   */\n      dup2\n        /* \"#utility.yul\":28609:28612   */\n      dup10\n        /* \"#utility.yul\":28605:28616   */\n      add\n        /* \"#utility.yul\":28598:28633   */\n      mstore\n        /* \"#utility.yul\":28674:28675   */\n      0x01\n        /* \"#utility.yul\":28665:28672   */\n      dup3\n        /* \"#utility.yul\":28661:28676   */\n      add\n        /* \"#utility.yul\":28650:28676   */\n      swap2\n      pop\n        /* \"#utility.yul\":28572:28576   */\n      0x20\n        /* \"#utility.yul\":28569:28570   */\n      dup2\n        /* \"#utility.yul\":28565:28577   */\n      add\n        /* \"#utility.yul\":28560:28577   */\n      swap1\n      pop\n        /* \"#utility.yul\":28536:28690   */\n      jump(tag_577)\n    tag_579:\n        /* \"#utility.yul\":28719:28720   */\n      dup1\n        /* \"#utility.yul\":28714:28717   */\n      dup9\n        /* \"#utility.yul\":28710:28721   */\n      add\n        /* \"#utility.yul\":28703:28721   */\n      swap6\n      pop\n        /* \"#utility.yul\":28402:28731   */\n      pop\n      pop\n        /* \"#utility.yul\":28218:28731   */\n    tag_573:\n      pop\n        /* \"#utility.yul\":28034:28737   */\n      pop\n      pop\n        /* \"#utility.yul\":27955:28737   */\n      swap3\n      swap2\n      pop\n      pop\n      jump\t// out\n        /* \"#utility.yul\":28743:28845   */\n    tag_319:\n        /* \"#utility.yul\":28785:28793   */\n      0x00\n        /* \"#utility.yul\":28832:28837   */\n      dup2\n        /* \"#utility.yul\":28829:28830   */\n      0x00\n        /* \"#utility.yul\":28825:28838   */\n      shr\n        /* \"#utility.yul\":28804:28838   */\n      swap1\n      pop\n        /* \"#utility.yul\":28743:28845   */\n      swap2\n      swap1\n      pop\n      jump\t// out\n        /* \"#utility.yul\":28851:28941   */\n    tag_320:\n        /* \"#utility.yul\":28901:28908   */\n      0x00\n        /* \"#utility.yul\":28930:28935   */\n      dup2\n        /* \"#utility.yul\":28919:28935   */\n      swap1\n      pop\n        /* \"#utility.yul\":28851:28941   */\n      swap2\n      swap1\n      pop\n      jump\t// out\n        /* \"#utility.yul\":28947:29113   */\n    tag_321:\n        /* \"#utility.yul\":29016:29021   */\n      0x00\n        /* \"#utility.yul\":29041:29107   */\n      tag_583\n        /* \"#utility.yul\":29072:29106   */\n      tag_584\n        /* \"#utility.yul\":29095:29105   */\n      dup4\n        /* \"#utility.yul\":29072:29106   */\n      tag_319\n      jump\t// in\n    tag_584:\n        /* \"#utility.yul\":29041:29107   */\n      tag_320\n      jump\t// in\n    tag_583:\n        /* \"#utility.yul\":29032:29107   */\n      swap1\n      pop\n        /* \"#utility.yul\":28947:29113   */\n      swap2\n      swap1\n      pop\n      jump\t// out\n        /* \"#utility.yul\":29119:29258   */\n    tag_322:\n        /* \"#utility.yul\":29169:29176   */\n      0x00\n        /* \"#utility.yul\":29209:29251   */\n      0xffffffffffffffffffffffffffffffffffffffff\n        /* \"#utility.yul\":29202:29207   */\n      dup3\n        /* \"#utility.yul\":29198:29252   */\n      and\n        /* \"#utility.yul\":29187:29252   */\n      swap1\n      pop\n        /* \"#utility.yul\":29119:29258   */\n      swap2\n      swap1\n      pop\n      jump\t// out\n        /* \"#utility.yul\":29264:29430   */\n    tag_323:\n        /* \"#utility.yul\":29333:29338   */\n      0x00\n        /* \"#utility.yul\":29358:29424   */\n      tag_587\n        /* \"#utility.yul\":29389:29423   */\n      tag_588\n        /* \"#utility.yul\":29412:29422   */\n      dup4\n        /* \"#utility.yul\":29389:29423   */\n      tag_319\n      jump\t// in\n    tag_588:\n        /* \"#utility.yul\":29358:29424   */\n      tag_322\n      jump\t// in\n    tag_587:\n        /* \"#utility.yul\":29349:29424   */\n      swap1\n      pop\n        /* \"#utility.yul\":29264:29430   */\n      swap2\n      swap1\n      pop\n      jump\t// out\n        /* \"#utility.yul\":29436:29542   */\n    tag_324:\n        /* \"#utility.yul\":29480:29488   */\n      0x00\n        /* \"#utility.yul\":29529:29534   */\n      dup2\n        /* \"#utility.yul\":29524:29527   */\n      0xa0\n        /* \"#utility.yul\":29520:29535   */\n      shr\n        /* \"#utility.yul\":29499:29535   */\n      swap1\n      pop\n        /* \"#utility.yul\":29436:29542   */\n      swap2\n      swap1\n      pop\n      jump\t// out\n        /* \"#utility.yul\":29548:29646   */\n    tag_325:\n        /* \"#utility.yul\":29595:29602   */\n      0x00\n        /* \"#utility.yul\":29635:29639   */\n      0xff\n        /* \"#utility.yul\":29628:29633   */\n      dup3\n        /* \"#utility.yul\":29624:29640   */\n      and\n        /* \"#utility.yul\":29613:29640   */\n      swap1\n      pop\n        /* \"#utility.yul\":29548:29646   */\n      swap2\n      swap1\n      pop\n      jump\t// out\n        /* \"#utility.yul\":29652:29815   */\n    tag_326:\n        /* \"#utility.yul\":29719:29724   */\n      0x00\n        /* \"#utility.yul\":29744:29809   */\n      tag_592\n        /* \"#utility.yul\":29772:29808   */\n      tag_593\n        /* \"#utility.yul\":29797:29807   */\n      dup4\n        /* \"#utility.yul\":29772:29808   */\n      tag_324\n      jump\t// in\n    tag_593:\n        /* \"#utility.yul\":29744:29809   */\n      tag_325\n      jump\t// in\n    tag_592:\n        /* \"#utility.yul\":29735:29809   */\n      swap1\n      pop\n        /* \"#utility.yul\":29652:29815   */\n      swap2\n      swap1\n      pop\n      jump\t// out\n        /* \"#utility.yul\":29821:29927   */\n    tag_327:\n        /* \"#utility.yul\":29865:29873   */\n      0x00\n        /* \"#utility.yul\":29914:29919   */\n      dup2\n        /* \"#utility.yul\":29909:29912   */\n      0xa8\n        /* \"#utility.yul\":29905:29920   */\n      shr\n        /* \"#utility.yul\":29884:29920   */\n      swap1\n      pop\n        /* \"#utility.yul\":29821:29927   */\n      swap2\n      swap1\n      pop\n      jump\t// out\n        /* \"#utility.yul\":29933:30096   */\n    tag_328:\n        /* \"#utility.yul\":30000:30005   */\n      0x00\n        /* \"#utility.yul\":30025:30090   */\n      tag_596\n        /* \"#utility.yul\":30053:30089   */\n      tag_597\n        /* \"#utility.yul\":30078:30088   */\n      dup4\n        /* \"#utility.yul\":30053:30089   */\n      tag_327\n      jump\t// in\n    tag_597:\n        /* \"#utility.yul\":30025:30090   */\n      tag_325\n      jump\t// in\n    tag_596:\n        /* \"#utility.yul\":30016:30090   */\n      swap1\n      pop\n        /* \"#utility.yul\":29933:30096   */\n      swap2\n      swap1\n      pop\n      jump\t// out\n        /* \"#utility.yul\":30160:31791   */\n    tag_329:\n        /* \"#utility.yul\":30272:30275   */\n      0x00\n        /* \"#utility.yul\":30308:30312   */\n      0xc0\n        /* \"#utility.yul\":30303:30306   */\n      dup4\n        /* \"#utility.yul\":30299:30313   */\n      add\n        /* \"#utility.yul\":30339:30340   */\n      0x00\n        /* \"#utility.yul\":30423:30427   */\n      dup1\n        /* \"#utility.yul\":30416:30421   */\n      dup5\n        /* \"#utility.yul\":30412:30428   */\n      add\n        /* \"#utility.yul\":30475:30478   */\n      dup6\n        /* \"#utility.yul\":30469:30473   */\n      dup4\n        /* \"#utility.yul\":30465:30479   */\n      sub\n        /* \"#utility.yul\":30458:30462   */\n      0x00\n        /* \"#utility.yul\":30453:30456   */\n      dup8\n        /* \"#utility.yul\":30449:30463   */\n      add\n        /* \"#utility.yul\":30442:30480   */\n      mstore\n        /* \"#utility.yul\":30501:30571   */\n      tag_599\n        /* \"#utility.yul\":30566:30570   */\n      dup4\n        /* \"#utility.yul\":30552:30564   */\n      dup3\n        /* \"#utility.yul\":30501:30571   */\n      tag_318\n      jump\t// in\n    tag_599:\n        /* \"#utility.yul\":30493:30571   */\n      swap3\n      pop\n        /* \"#utility.yul\":30350:30582   */\n      pop\n        /* \"#utility.yul\":30657:30661   */\n      0x01\n        /* \"#utility.yul\":30650:30655   */\n      dup5\n        /* \"#utility.yul\":30646:30662   */\n      add\n        /* \"#utility.yul\":30640:30663   */\n      sload\n        /* \"#utility.yul\":30627:30663   */\n      swap1\n      pop\n        /* \"#utility.yul\":30696:30751   */\n      tag_600\n        /* \"#utility.yul\":30741:30750   */\n      dup2\n        /* \"#utility.yul\":30696:30751   */\n      tag_321\n      jump\t// in\n    tag_600:\n        /* \"#utility.yul\":30764:30827   */\n      tag_601\n        /* \"#utility.yul\":30821:30825   */\n      0x20\n        /* \"#utility.yul\":30816:30819   */\n      dup8\n        /* \"#utility.yul\":30812:30826   */\n      add\n        /* \"#utility.yul\":30798:30810   */\n      dup3\n        /* \"#utility.yul\":30764:30827   */\n      tag_266\n      jump\t// in\n    tag_601:\n        /* \"#utility.yul\":30592:30837   */\n      pop\n        /* \"#utility.yul\":30916:30920   */\n      0x02\n        /* \"#utility.yul\":30909:30914   */\n      dup5\n        /* \"#utility.yul\":30905:30921   */\n      add\n        /* \"#utility.yul\":30899:30922   */\n      sload\n        /* \"#utility.yul\":30886:30922   */\n      swap1\n      pop\n        /* \"#utility.yul\":30955:31010   */\n      tag_602\n        /* \"#utility.yul\":31000:31009   */\n      dup2\n        /* \"#utility.yul\":30955:31010   */\n      tag_323\n      jump\t// in\n    tag_602:\n        /* \"#utility.yul\":31023:31086   */\n      tag_603\n        /* \"#utility.yul\":31080:31084   */\n      0x40\n        /* \"#utility.yul\":31075:31078   */\n      dup8\n        /* \"#utility.yul\":31071:31085   */\n      add\n        /* \"#utility.yul\":31057:31069   */\n      dup3\n        /* \"#utility.yul\":31023:31086   */\n      tag_267\n      jump\t// in\n    tag_603:\n        /* \"#utility.yul\":30847:31096   */\n      pop\n        /* \"#utility.yul\":31168:31221   */\n      tag_604\n        /* \"#utility.yul\":31211:31220   */\n      dup2\n        /* \"#utility.yul\":31168:31221   */\n      tag_326\n      jump\t// in\n    tag_604:\n        /* \"#utility.yul\":31234:31291   */\n      tag_605\n        /* \"#utility.yul\":31285:31289   */\n      0x60\n        /* \"#utility.yul\":31280:31283   */\n      dup8\n        /* \"#utility.yul\":31276:31290   */\n      add\n        /* \"#utility.yul\":31262:31274   */\n      dup3\n        /* \"#utility.yul\":31234:31291   */\n      tag_269\n      jump\t// in\n    tag_605:\n        /* \"#utility.yul\":31106:31301   */\n      pop\n        /* \"#utility.yul\":31372:31425   */\n      tag_606\n        /* \"#utility.yul\":31415:31424   */\n      dup2\n        /* \"#utility.yul\":31372:31425   */\n      tag_328\n      jump\t// in\n    tag_606:\n        /* \"#utility.yul\":31438:31495   */\n      tag_607\n        /* \"#utility.yul\":31489:31493   */\n      0x80\n        /* \"#utility.yul\":31484:31487   */\n      dup8\n        /* \"#utility.yul\":31480:31494   */\n      add\n        /* \"#utility.yul\":31466:31478   */\n      dup3\n        /* \"#utility.yul\":31438:31495   */\n      tag_269\n      jump\t// in\n    tag_607:\n        /* \"#utility.yul\":31311:31505   */\n      pop\n        /* \"#utility.yul\":31584:31588   */\n      0x03\n        /* \"#utility.yul\":31577:31582   */\n      dup5\n        /* \"#utility.yul\":31573:31589   */\n      add\n        /* \"#utility.yul\":31567:31590   */\n      sload\n        /* \"#utility.yul\":31554:31590   */\n      swap1\n      pop\n        /* \"#utility.yul\":31623:31678   */\n      tag_608\n        /* \"#utility.yul\":31668:31677   */\n      dup2\n        /* \"#utility.yul\":31623:31678   */\n      tag_321\n      jump\t// in\n    tag_608:\n        /* \"#utility.yul\":31691:31754   */\n      tag_609\n        /* \"#utility.yul\":31748:31752   */\n      0xa0\n        /* \"#utility.yul\":31743:31746   */\n      dup8\n        /* \"#utility.yul\":31739:31753   */\n      add\n        /* \"#utility.yul\":31725:31737   */\n      dup3\n        /* \"#utility.yul\":31691:31754   */\n      tag_266\n      jump\t// in\n    tag_609:\n        /* \"#utility.yul\":31515:31764   */\n      pop\n        /* \"#utility.yul\":31781:31785   */\n      dup2\n        /* \"#utility.yul\":31774:31785   */\n      swap3\n      pop\n        /* \"#utility.yul\":30277:31791   */\n      pop\n      pop\n        /* \"#utility.yul\":30160:31791   */\n      swap3\n      swap2\n      pop\n      pop\n      jump\t// out\n        /* \"#utility.yul\":31797:32156   */\n    tag_214:\n        /* \"#utility.yul\":31933:31937   */\n      0x00\n        /* \"#utility.yul\":31971:31973   */\n      0x20\n        /* \"#utility.yul\":31960:31969   */\n      dup3\n        /* \"#utility.yul\":31956:31974   */\n      add\n        /* \"#utility.yul\":31948:31974   */\n      swap1\n      pop\n        /* \"#utility.yul\":32020:32029   */\n      dup2\n        /* \"#utility.yul\":32014:32018   */\n      dup2\n        /* \"#utility.yul\":32010:32030   */\n      sub\n        /* \"#utility.yul\":32006:32007   */\n      0x00\n        /* \"#utility.yul\":31995:32004   */\n      dup4\n        /* \"#utility.yul\":31991:32008   */\n      add\n        /* \"#utility.yul\":31984:32031   */\n      mstore\n        /* \"#utility.yul\":32048:32149   */\n      tag_611\n        /* \"#utility.yul\":32144:32148   */\n      dup2\n        /* \"#utility.yul\":32135:32141   */\n      dup5\n        /* \"#utility.yul\":32048:32149   */\n      tag_329\n      jump\t// in\n    tag_611:\n        /* \"#utility.yul\":32040:32149   */\n      swap1\n      pop\n        /* \"#utility.yul\":31797:32156   */\n      swap3\n      swap2\n      pop\n      pop\n      jump\t// out\n        /* \"#utility.yul\":32162:32385   */\n    tag_330:\n        /* \"#utility.yul\":32302:32336   */\n      0x596f75206861766520616c7265616479206261636b6564207468697320726571\n        /* \"#utility.yul\":32298:32299   */\n      0x00\n        /* \"#utility.yul\":32290:32296   */\n      dup3\n        /* \"#utility.yul\":32286:32300   */\n      add\n        /* \"#utility.yul\":32279:32337   */\n      mstore\n        /* \"#utility.yul\":32371:32377   */\n      0x7565737400000000000000000000000000000000000000000000000000000000\n        /* \"#utility.yul\":32366:32368   */\n      0x20\n        /* \"#utility.yul\":32358:32364   */\n      dup3\n        /* \"#utility.yul\":32354:32369   */\n      add\n        /* \"#utility.yul\":32347:32378   */\n      mstore\n        /* \"#utility.yul\":32162:32385   */\n      pop\n      jump\t// out\n        /* \"#utility.yul\":32391:32757   */\n    tag_331:\n        /* \"#utility.yul\":32533:32536   */\n      0x00\n        /* \"#utility.yul\":32554:32621   */\n      tag_614\n        /* \"#utility.yul\":32618:32620   */\n      0x24\n        /* \"#utility.yul\":32613:32616   */\n      dup4\n        /* \"#utility.yul\":32554:32621   */\n      tag_284\n      jump\t// in\n    tag_614:\n        /* \"#utility.yul\":32547:32621   */\n      swap2\n      pop\n        /* \"#utility.yul\":32630:32723   */\n      tag_615\n        /* \"#utility.yul\":32719:32722   */\n      dup3\n        /* \"#utility.yul\":32630:32723   */\n      tag_330\n      jump\t// in\n    tag_615:\n        /* \"#utility.yul\":32748:32750   */\n      0x40\n        /* \"#utility.yul\":32743:32746   */\n      dup3\n        /* \"#utility.yul\":32739:32751   */\n      add\n        /* \"#utility.yul\":32732:32751   */\n      swap1\n      pop\n        /* \"#utility.yul\":32391:32757   */\n      swap2\n      swap1\n      pop\n      jump\t// out\n        /* \"#utility.yul\":32763:33182   */\n    tag_217:\n        /* \"#utility.yul\":32929:32933   */\n      0x00\n        /* \"#utility.yul\":32967:32969   */\n      0x20\n        /* \"#utility.yul\":32956:32965   */\n      dup3\n        /* \"#utility.yul\":32952:32970   */\n      add\n        /* \"#utility.yul\":32944:32970   */\n      swap1\n      pop\n        /* \"#utility.yul\":33016:33025   */\n      dup2\n        /* \"#utility.yul\":33010:33014   */\n      dup2\n        /* \"#utility.yul\":33006:33026   */\n      sub\n        /* \"#utility.yul\":33002:33003   */\n      0x00\n        /* \"#utility.yul\":32991:33000   */\n      dup4\n        /* \"#utility.yul\":32987:33004   */\n      add\n        /* \"#utility.yul\":32980:33027   */\n      mstore\n        /* \"#utility.yul\":33044:33175   */\n      tag_617\n        /* \"#utility.yul\":33170:33174   */\n      dup2\n        /* \"#utility.yul\":33044:33175   */\n      tag_331\n      jump\t// in\n    tag_617:\n        /* \"#utility.yul\":33036:33175   */\n      swap1\n      pop\n        /* \"#utility.yul\":32763:33182   */\n      swap2\n      swap1\n      pop\n      jump\t// out\n        /* \"#utility.yul\":33188:33421   */\n    tag_219:\n        /* \"#utility.yul\":33227:33230   */\n      0x00\n        /* \"#utility.yul\":33250:33274   */\n      tag_619\n        /* \"#utility.yul\":33268:33273   */\n      dup3\n        /* \"#utility.yul\":33250:33274   */\n      tag_251\n      jump\t// in\n    tag_619:\n        /* \"#utility.yul\":33241:33274   */\n      swap2\n      pop\n        /* \"#utility.yul\":33296:33362   */\n      0xffffffffffffffffffffffffffffffffffffffffffffffffffffffffffffffff\n        /* \"#utility.yul\":33289:33294   */\n      dup3\n        /* \"#utility.yul\":33286:33363   */\n      sub\n        /* \"#utility.yul\":33283:33386   */\n      tag_620\n      jumpi\n        /* \"#utility.yul\":33366:33384   */\n      tag_621\n      tag_301\n      jump\t// in\n    tag_621:\n        /* \"#utility.yul\":33283:33386   */\n    tag_620:\n        /* \"#utility.yul\":33413:33414   */\n      0x01\n        /* \"#utility.yul\":33406:33411   */\n      dup3\n        /* \"#utility.yul\":33402:33415   */\n      add\n        /* \"#utility.yul\":33395:33415   */\n      swap1\n      pop\n        /* \"#utility.yul\":33188:33421   */\n      swap2\n      swap1\n      pop\n      jump\t// out\n\n    auxdata: 0xa2646970667358221220fe9c3bbf4e2d6e1efc77cd659b3db692fa1200e1f365a7f8181421deb809df4a64736f6c634300080d0033\n}\n","bytecode":{"linkReferences":{},"object":"60806040523480156200001157600080fd5b5060405162002b7e38038062002b7e83398181016040528101906200003791906200012c565b80600160006101000a81548173ffffffffffffffffffffffffffffffffffffffff021916908373ffffffffffffffffffffffffffffffffffffffff16021790555081600381905550505062000173565b600080fd5b6000819050919050565b620000a1816200008c565b8114620000ad57600080fd5b50565b600081519050620000c18162000096565b92915050565b600073ffffffffffffffffffffffffffffffffffffffff82169050919050565b6000620000f482620000c7565b9050919050565b6200010681620000e7565b81146200011257600080fd5b50565b6000815190506200012681620000fb565b92915050565b6000806040838503121562000146576200014562000087565b5b60006200015685828601620000b0565b9250506020620001698582860162000115565b9150509250929050565b6129fb80620001836000396000f3fe6080604052600436106100ec5760003560e01c80638813ce121161008a5780639213aa33116100595780639213aa33146102ed578063b85dfb801461032a578063b8f4ba0314610367578063d7d1bbdb146103a9576100f3565b80638813ce12146102505780638a9cfd551461027b5780638dde0840146102b8578063900551a8146102c2576100f3565b80633fad1834116100c65780633fad1834146101895780634051ddac146101b4578063481c6a75146101e357806381d12c581461020e576100f3565b806303441006146100f8578063185139931461012157806330f3e3da1461015e576100f3565b366100f357005b600080fd5b34801561010457600080fd5b5061011f600480360381019061011a91906118d3565b6103d2565b005b34801561012d57600080fd5b506101486004803603810190610143919061195e565b610657565b6040516101559190611ba8565b60405180910390f35b34801561016a57600080fd5b5061017361093b565b6040516101809190611c9a565b60405180910390f35b34801561019557600080fd5b5061019e6109c9565b6040516101ab9190611ccb565b60405180910390f35b3480156101c057600080fd5b506101c96109d5565b6040516101da959493929190611cf5565b60405180910390f35b3480156101ef57600080fd5b506101f8610a21565b6040516102059190611d48565b60405180910390f35b34801561021a57600080fd5b50610235600480360381019061023091906118d3565b610a47565b60405161024796959493929190611dbc565b60405180910390f35b34801561025c57600080fd5b50610265610b55565b6040516102729190611ba8565b60405180910390f35b34801561028757600080fd5b506102a2600480360381019061029d9190611f59565b610ce6565b6040516102af9190612051565b60405180910390f35b6102c0610ebd565b005b3480156102ce57600080fd5b506102d7611005565b6040516102e49190611ccb565b60405180910390f35b3480156102f957600080fd5b50610314600480360381019061030f91906118d3565b61109d565b6040516103219190612082565b60405180910390f35b34801561033657600080fd5b50610351600480360381019061034c919061195e565b6110dc565b60405161035e9190611ccb565b60405180910390f35b34801561037357600080fd5b5061038e6004803603810190610389919061209d565b6110f4565b6040516103a096959493929190611dbc565b60405180910390f35b3480156103b557600080fd5b506103d060048036038101906103cb91906118d3565b61120f565b005b600160009054906101000a900473ffffffffffffffffffffffffffffffffffffffff1673ffffffffffffffffffffffffffffffffffffffff163373ffffffffffffffffffffffffffffffffffffffff1614610462576040517f08c379a00000000000000000000000000000000000000000000000000000000081526004016104599061214f565b60405180910390fd5b60008082815481106104775761047661216f565b5b906000526020600020906004020190506002808054905061049891906121fc565b8160030154116104dd576040517f08c379a00000000000000000000000000000000000000000000000000000000081526004016104d49061229f565b60405180910390fd5b8060020160149054906101000a900460ff161561052f576040517f08c379a000000000000000000000000000000000000000000000000000000000815260040161052690612331565b60405180910390fd5b8060020160159054906101000a900460ff1615610581576040517f08c379a00000000000000000000000000000000000000000000000000000000081526004016105789061239d565b60405180910390fd5b806001015447116105c7576040517f08c379a00000000000000000000000000000000000000000000000000000000081526004016105be9061242f565b60405180910390fd5b60018160020160146101000a81548160ff0219169083151502179055508060020160009054906101000a900473ffffffffffffffffffffffffffffffffffffffff1673ffffffffffffffffffffffffffffffffffffffff166108fc82600101549081150290604051600060405180830381858888f19350505050158015610652573d6000803e3d6000fd5b505050565b6060600160009054906101000a900473ffffffffffffffffffffffffffffffffffffffff1673ffffffffffffffffffffffffffffffffffffffff163373ffffffffffffffffffffffffffffffffffffffff16146106e9576040517f08c379a00000000000000000000000000000000000000000000000000000000081526004016106e09061214f565b60405180910390fd5b600354600460008473ffffffffffffffffffffffffffffffffffffffff1673ffffffffffffffffffffffffffffffffffffffff16815260200190815260200160002054101561076d576040517f08c379a0000000000000000000000000000000000000000000000000000000008152600401610764906124c1565b60405180910390fd5b600560008373ffffffffffffffffffffffffffffffffffffffff1673ffffffffffffffffffffffffffffffffffffffff168152602001908152602001600020805480602002602001604051908101604052809291908181526020016000905b8282101561093057838290600052602060002090600402016040518060c00160405290816000820180546107ff90612510565b80601f016020809104026020016040519081016040528092919081815260200182805461082b90612510565b80156108785780601f1061084d57610100808354040283529160200191610878565b820191906000526020600020905b81548152906001019060200180831161085b57829003601f168201915b50505050508152602001600182015481526020016002820160009054906101000a900473ffffffffffffffffffffffffffffffffffffffff1673ffffffffffffffffffffffffffffffffffffffff1673ffffffffffffffffffffffffffffffffffffffff1681526020016002820160149054906101000a900460ff161515151581526020016002820160159054906101000a900460ff16151515158152602001600382015481525050815260200190600101906107cc565b505050509050919050565b606060028054806020026020016040519081016040528092919081815260200182805480156109bf57602002820191906000526020600020905b8160009054906101000a900473ffffffffffffffffffffffffffffffffffffffff1673ffffffffffffffffffffffffffffffffffffffff1681526020019060010190808311610975575b5050505050905090565b60008080549050905090565b600080600080600060035447600080549050600280549050600160009054906101000a900473ffffffffffffffffffffffffffffffffffffffff16945094509450945094509091929394565b600160009054906101000a900473ffffffffffffffffffffffffffffffffffffffff1681565b60008181548110610a5757600080fd5b9060005260206000209060040201600091509050806000018054610a7a90612510565b80601f0160208091040260200160405190810160405280929190818152602001828054610aa690612510565b8015610af35780601f10610ac857610100808354040283529160200191610af3565b820191906000526020600020905b815481529060010190602001808311610ad657829003601f168201915b5050505050908060010154908060020160009054906101000a900473ffffffffffffffffffffffffffffffffffffffff16908060020160149054906101000a900460ff16908060020160159054906101000a900460ff16908060030154905086565b60606000805480602002602001604051908101604052809291908181526020016000905b82821015610cdd57838290600052602060002090600402016040518060c0016040529081600082018054610bac90612510565b80601f0160208091040260200160405190810160405280929190818152602001828054610bd890612510565b8015610c255780601f10610bfa57610100808354040283529160200191610c25565b820191906000526020600020905b815481529060010190602001808311610c0857829003601f168201915b50505050508152602001600182015481526020016002820160009054906101000a900473ffffffffffffffffffffffffffffffffffffffff1673ffffffffffffffffffffffffffffffffffffffff1673ffffffffffffffffffffffffffffffffffffffff1681526020016002820160149054906101000a900460ff161515151581526020016002820160159054906101000a900460ff1615151515815260200160038201548152505081526020019060010190610b79565b50505050905090565b610cee611709565b600160009054906101000a900473ffffffffffffffffffffffffffffffffffffffff1673ffffffffffffffffffffffffffffffffffffffff163373ffffffffffffffffffffffffffffffffffffffff1614610d7e576040517f08c379a0000000000000000000000000000000000000000000000000000000008152600401610d759061214f565b60405180910390fd5b60006040518060c001604052808681526020018581526020018473ffffffffffffffffffffffffffffffffffffffff1681526020016000151581526020016000151581526020016000815250905060008190806001815401808255809150506001900390600052602060002090600402016000909190919091506000820151816000019080519060200190610e14929190611759565b506020820151816001015560408201518160020160006101000a81548173ffffffffffffffffffffffffffffffffffffffff021916908373ffffffffffffffffffffffffffffffffffffffff16021790555060608201518160020160146101000a81548160ff02191690831515021790555060808201518160020160156101000a81548160ff02191690831515021790555060a082015181600301555050809150509392505050565b600354341015610f02576040517f08c379a0000000000000000000000000000000000000000000000000000000008152600401610ef9906125b3565b60405180910390fd5b6000600460003373ffffffffffffffffffffffffffffffffffffffff1673ffffffffffffffffffffffffffffffffffffffff1681526020019081526020016000205403610fad576002339080600181540180825580915050600190039060005260206000200160009091909190916101000a81548173ffffffffffffffffffffffffffffffffffffffff021916908373ffffffffffffffffffffffffffffffffffffffff1602179055505b34600460003373ffffffffffffffffffffffffffffffffffffffff1673ffffffffffffffffffffffffffffffffffffffff1681526020019081526020016000206000828254610ffc91906125d3565b92505081905550565b6000600160009054906101000a900473ffffffffffffffffffffffffffffffffffffffff1673ffffffffffffffffffffffffffffffffffffffff163373ffffffffffffffffffffffffffffffffffffffff1614611097576040517f08c379a000000000000000000000000000000000000000000000000000000000815260040161108e9061214f565b60405180910390fd5b47905090565b600281815481106110ad57600080fd5b906000526020600020016000915054906101000a900473ffffffffffffffffffffffffffffffffffffffff1681565b60046020528060005260406000206000915090505481565b6005602052816000526040600020818154811061111057600080fd5b90600052602060002090600402016000915091505080600001805461113490612510565b80601f016020809104026020016040519081016040528092919081815260200182805461116090612510565b80156111ad5780601f10611182576101008083540402835291602001916111ad565b820191906000526020600020905b81548152906001019060200180831161119057829003601f168201915b5050505050908060010154908060020160009054906101000a900473ffffffffffffffffffffffffffffffffffffffff16908060020160149054906101000a900460ff16908060020160159054906101000a900460ff16908060030154905086565b600354600460003373ffffffffffffffffffffffffffffffffffffffff1673ffffffffffffffffffffffffffffffffffffffff168152602001908152602001600020541015611293576040517f08c379a000000000000000000000000000000000000000000000000000000000815260040161128a9061269b565b60405180910390fd5b6000600560003373ffffffffffffffffffffffffffffffffffffffff1673ffffffffffffffffffffffffffffffffffffffff168152602001908152602001600020805480602002602001604051908101604052809291908181526020016000905b8282101561145857838290600052602060002090600402016040518060c001604052908160008201805461132790612510565b80601f016020809104026020016040519081016040528092919081815260200182805461135390612510565b80156113a05780601f10611375576101008083540402835291602001916113a0565b820191906000526020600020905b81548152906001019060200180831161138357829003601f168201915b50505050508152602001600182015481526020016002820160009054906101000a900473ffffffffffffffffffffffffffffffffffffffff1673ffffffffffffffffffffffffffffffffffffffff1673ffffffffffffffffffffffffffffffffffffffff1681526020016002820160149054906101000a900460ff161515151581526020016002820160159054906101000a900460ff16151515158152602001600382015481525050815260200190600101906112f4565b50505050905060005b81518110156115465781818151811061147d5761147c61216f565b5b60200260200101516040516020016114959190612051565b60405160208183030381529060405280519060200120600084815481106114bf576114be61216f565b5b90600052602060002090600402016040516020016114dd91906128c9565b6040516020818303038152906040528051906020012003611533576040517f08c379a000000000000000000000000000000000000000000000000000000000815260040161152a9061295d565b60405180910390fd5b808061153e9061297d565b915050611461565b5060016000838154811061155d5761155c61216f565b5b9060005260206000209060040201600301600082825461157d91906125d3565b92505081905550600560003373ffffffffffffffffffffffffffffffffffffffff1673ffffffffffffffffffffffffffffffffffffffff168152602001908152602001600020600083815481106115d7576115d661216f565b5b90600052602060002090600402019080600181540180825580915050600190039060005260206000209060040201600090919091909150600082018160000190805461162290612510565b61162d9291906117df565b50600182015481600101556002820160009054906101000a900473ffffffffffffffffffffffffffffffffffffffff168160020160006101000a81548173ffffffffffffffffffffffffffffffffffffffff021916908373ffffffffffffffffffffffffffffffffffffffff1602179055506002820160149054906101000a900460ff168160020160146101000a81548160ff0219169083151502179055506002820160159054906101000a900460ff168160020160156101000a81548160ff0219169083151502179055506003820154816003015550505050565b6040518060c001604052806060815260200160008152602001600073ffffffffffffffffffffffffffffffffffffffff168152602001600015158152602001600015158152602001600081525090565b82805461176590612510565b90600052602060002090601f01602090048101928261178757600085556117ce565b82601f106117a057805160ff19168380011785556117ce565b828001600101855582156117ce579182015b828111156117cd5782518255916020019190600101906117b2565b5b5090506117db919061186c565b5090565b8280546117eb90612510565b90600052602060002090601f01602090048101928261180d576000855561185b565b82601f1061181e578054855561185b565b8280016001018555821561185b57600052602060002091601f016020900482015b8281111561185a57825482559160010191906001019061183f565b5b509050611868919061186c565b5090565b5b8082111561188557600081600090555060010161186d565b5090565b6000604051905090565b600080fd5b600080fd5b6000819050919050565b6118b08161189d565b81146118bb57600080fd5b50565b6000813590506118cd816118a7565b92915050565b6000602082840312156118e9576118e8611893565b5b60006118f7848285016118be565b91505092915050565b600073ffffffffffffffffffffffffffffffffffffffff82169050919050565b600061192b82611900565b9050919050565b61193b81611920565b811461194657600080fd5b50565b60008135905061195881611932565b92915050565b60006020828403121561197457611973611893565b5b600061198284828501611949565b91505092915050565b600081519050919050565b600082825260208201905092915050565b6000819050602082019050919050565b600081519050919050565b600082825260208201905092915050565b60005b838110156119f15780820151818401526020810190506119d6565b83811115611a00576000848401525b50505050565b6000601f19601f8301169050919050565b6000611a22826119b7565b611a2c81856119c2565b9350611a3c8185602086016119d3565b611a4581611a06565b840191505092915050565b611a598161189d565b82525050565b611a6881611920565b82525050565b60008115159050919050565b611a8381611a6e565b82525050565b600060c0830160008301518482036000860152611aa68282611a17565b9150506020830151611abb6020860182611a50565b506040830151611ace6040860182611a5f565b506060830151611ae16060860182611a7a565b506080830151611af46080860182611a7a565b5060a0830151611b0760a0860182611a50565b508091505092915050565b6000611b1e8383611a89565b905092915050565b6000602082019050919050565b6000611b3e8261198b565b611b488185611996565b935083602082028501611b5a856119a7565b8060005b85811015611b965784840389528151611b778582611b12565b9450611b8283611b26565b925060208a01995050600181019050611b5e565b50829750879550505050505092915050565b60006020820190508181036000830152611bc28184611b33565b905092915050565b600081519050919050565b600082825260208201905092915050565b6000819050602082019050919050565b6000611c0182611900565b9050919050565b611c1181611bf6565b82525050565b6000611c238383611c08565b60208301905092915050565b6000602082019050919050565b6000611c4782611bca565b611c518185611bd5565b9350611c5c83611be6565b8060005b83811015611c8d578151611c748882611c17565b9750611c7f83611c2f565b925050600181019050611c60565b5085935050505092915050565b60006020820190508181036000830152611cb48184611c3c565b905092915050565b611cc58161189d565b82525050565b6000602082019050611ce06000830184611cbc565b92915050565b611cef81611920565b82525050565b600060a082019050611d0a6000830188611cbc565b611d176020830187611cbc565b611d246040830186611cbc565b611d316060830185611cbc565b611d3e6080830184611ce6565b9695505050505050565b6000602082019050611d5d6000830184611ce6565b92915050565b600082825260208201905092915050565b6000611d7f826119b7565b611d898185611d63565b9350611d998185602086016119d3565b611da281611a06565b840191505092915050565b611db681611a6e565b82525050565b600060c0820190508181036000830152611dd68189611d74565b9050611de56020830188611cbc565b611df26040830187611ce6565b611dff6060830186611dad565b611e0c6080830185611dad565b611e1960a0830184611cbc565b979650505050505050565b600080fd5b600080fd5b7f4e487b7100000000000000000000000000000000000000000000000000000000600052604160045260246000fd5b611e6682611a06565b810181811067ffffffffffffffff82111715611e8557611e84611e2e565b5b80604052505050565b6000611e98611889565b9050611ea48282611e5d565b919050565b600067ffffffffffffffff821115611ec457611ec3611e2e565b5b611ecd82611a06565b9050602081019050919050565b82818337600083830152505050565b6000611efc611ef784611ea9565b611e8e565b905082815260208101848484011115611f1857611f17611e29565b5b611f23848285611eda565b509392505050565b600082601f830112611f4057611f3f611e24565b5b8135611f50848260208601611ee9565b91505092915050565b600080600060608486031215611f7257611f71611893565b5b600084013567ffffffffffffffff811115611f9057611f8f611898565b5b611f9c86828701611f2b565b9350506020611fad868287016118be565b9250506040611fbe86828701611949565b9150509250925092565b600060c0830160008301518482036000860152611fe58282611a17565b9150506020830151611ffa6020860182611a50565b50604083015161200d6040860182611a5f565b5060608301516120206060860182611a7a565b5060808301516120336080860182611a7a565b5060a083015161204660a0860182611a50565b508091505092915050565b6000602082019050818103600083015261206b8184611fc8565b905092915050565b61207c81611bf6565b82525050565b60006020820190506120976000830184612073565b92915050565b600080604083850312156120b4576120b3611893565b5b60006120c285828601611949565b92505060206120d3858286016118be565b9150509250929050565b7f546869732066756e6374696f6e2063616e206f6e6c792062652063616c6c656460008201527f20627920746865206d616e616765720000000000000000000000000000000000602082015250565b6000612139602f83611d63565b9150612144826120dd565b604082019050919050565b600060208201905081810360008301526121688161212c565b9050919050565b7f4e487b7100000000000000000000000000000000000000000000000000000000600052603260045260246000fd5b7f4e487b7100000000000000000000000000000000000000000000000000000000600052601260045260246000fd5b7f4e487b7100000000000000000000000000000000000000000000000000000000600052601160045260246000fd5b60006122078261189d565b91506122128361189d565b9250826122225761222161219e565b5b828204905092915050565b7f546865726520617265206e6f7420656e6f75676820706f73697469766573207660008201527f6f74657300000000000000000000000000000000000000000000000000000000602082015250565b6000612289602483611d63565b91506122948261222d565b604082019050919050565b600060208201905081810360008301526122b88161227c565b9050919050565b7f5468697320726571756573742068617320616c7265616479206265656e20636f60008201527f6d706c6574656400000000000000000000000000000000000000000000000000602082015250565b600061231b602783611d63565b9150612326826122bf565b604082019050919050565b6000602082019050818103600083015261234a8161230e565b9050919050565b7f54686973207265717565737420686173206265656e2063616e63656c65640000600082015250565b6000612387601e83611d63565b915061239282612351565b602082019050919050565b600060208201905081810360008301526123b68161237a565b9050919050565b7f5468652063616d706169676e20646f6573206e6f74206861766520656e6f756760008201527f682066756e647300000000000000000000000000000000000000000000000000602082015250565b6000612419602783611d63565b9150612424826123bd565b604082019050919050565b600060208201905081810360008301526124488161240c565b9050919050565b7f54686520676976656e2061646472657373206973206e6f742061206261636b6560008201527f7200000000000000000000000000000000000000000000000000000000000000602082015250565b60006124ab602183611d63565b91506124b68261244f565b604082019050919050565b600060208201905081810360008301526124da8161249e565b9050919050565b7f4e487b7100000000000000000000000000000000000000000000000000000000600052602260045260246000fd5b6000600282049050600182168061252857607f821691505b60208210810361253b5761253a6124e1565b5b50919050565b7f596f75206e65656420746f2073656e64206174206c6561737420746865206d6960008201527f6e696d756d20636f6e747269627574696f6e0000000000000000000000000000602082015250565b600061259d603283611d63565b91506125a882612541565b604082019050919050565b600060208201905081810360008301526125cc81612590565b9050919050565b60006125de8261189d565b91506125e98361189d565b9250827fffffffffffffffffffffffffffffffffffffffffffffffffffffffffffffffff0382111561261e5761261d6121cd565b5b828201905092915050565b7f546869732066756e6374696f6e2063616e206f6e6c792062652063616c6c656460008201527f2062792061206261636b65720000000000000000000000000000000000000000602082015250565b6000612685602c83611d63565b915061269082612629565b604082019050919050565b600060208201905081810360008301526126b481612678565b9050919050565b60008190508160005260206000209050919050565b600081546126dd81612510565b6126e781866119c2565b94506001821660008114612702576001811461271457612747565b60ff1983168652602086019350612747565b61271d856126bb565b60005b8381101561273f57815481890152600182019150602081019050612720565b808801955050505b50505092915050565b60008160001c9050919050565b6000819050919050565b600061277a61277583612750565b61275d565b9050919050565b600073ffffffffffffffffffffffffffffffffffffffff82169050919050565b60006127b46127af83612750565b612781565b9050919050565b60008160a01c9050919050565b600060ff82169050919050565b60006127e86127e3836127bb565b6127c8565b9050919050565b60008160a81c9050919050565b600061280f61280a836127ef565b6127c8565b9050919050565b600060c083016000808401858303600087015261283383826126d0565b9250506001840154905061284681612767565b6128536020870182611a50565b5060028401549050612864816127a1565b6128716040870182611a5f565b5061287b816127d5565b6128886060870182611a7a565b50612892816127fc565b61289f6080870182611a7a565b50600384015490506128b081612767565b6128bd60a0870182611a50565b50819250505092915050565b600060208201905081810360008301526128e38184612816565b905092915050565b7f596f75206861766520616c7265616479206261636b656420746869732072657160008201527f7565737400000000000000000000000000000000000000000000000000000000602082015250565b6000612947602483611d63565b9150612952826128eb565b604082019050919050565b600060208201905081810360008301526129768161293a565b9050919050565b60006129888261189d565b91507fffffffffffffffffffffffffffffffffffffffffffffffffffffffffffffffff82036129ba576129b96121cd565b5b60018201905091905056fea2646970667358221220fe9c3bbf4e2d6e1efc77cd659b3db692fa1200e1f365a7f8181421deb809df4a64736f6c634300080d0033","opcodes":"PUSH1 0x80 PUSH1 0x40 MSTORE CALLVALUE DUP1 ISZERO PUSH3 0x11 JUMPI PUSH1 0x0 DUP1 REVERT JUMPDEST POP PUSH1 0x40 MLOAD PUSH3 0x2B7E CODESIZE SUB DUP1 PUSH3 0x2B7E DUP4 CODECOPY DUP2 DUP2 ADD PUSH1 0x40 MSTORE DUP2 ADD SWAP1 PUSH3 0x37 SWAP2 SWAP1 PUSH3 0x12C JUMP JUMPDEST DUP1 PUSH1 0x1 PUSH1 0x0 PUSH2 0x100 EXP DUP2 SLOAD DUP2 PUSH20 0xFFFFFFFFFFFFFFFFFFFFFFFFFFFFFFFFFFFFFFFF MUL NOT AND SWAP1 DUP4 PUSH20 0xFFFFFFFFFFFFFFFFFFFFFFFFFFFFFFFFFFFFFFFF AND MUL OR SWAP1 SSTORE POP DUP2 PUSH1 0x3 DUP2 SWAP1 SSTORE POP POP POP PUSH3 0x173 JUMP JUMPDEST PUSH1 0x0 DUP1 REVERT JUMPDEST PUSH1 0x0 DUP2 SWAP1 POP SWAP2 SWAP1 POP JUMP JUMPDEST PUSH3 0xA1 DUP2 PUSH3 0x8C JUMP JUMPDEST DUP2 EQ PUSH3 0xAD JUMPI PUSH1 0x0 DUP1 REVERT JUMPDEST POP JUMP JUMPDEST PUSH1 0x0 DUP2 MLOAD SWAP1 POP PUSH3 0xC1 DUP2 PUSH3 0x96 JUMP JUMPDEST SWAP3 SWAP2 POP POP JUMP JUMPDEST PUSH1 0x0 PUSH20 0xFFFFFFFFFFFFFFFFFFFFFFFFFFFFFFFFFFFFFFFF DUP3 AND SWAP1 POP SWAP2 SWAP1 POP JUMP JUMPDEST PUSH1 0x0 PUSH3 0xF4 DUP3 PUSH3 0xC7 JUMP JUMPDEST SWAP1 POP SWAP2 SWAP1 POP JUMP JUMPDEST PUSH3 0x106 DUP2 PUSH3 0xE7 JUMP JUMPDEST DUP2 EQ PUSH3 0x112 JUMPI PUSH1 0x0 DUP1 REVERT JUMPDEST POP JUMP JUMPDEST PUSH1 0x0 DUP2 MLOAD SWAP1 POP PUSH3 0x126 DUP2 PUSH3 0xFB JUMP JUMPDEST SWAP3 SWAP2 POP POP JUMP JUMPDEST PUSH1 0x0 DUP1 PUSH1 0x40 DUP4 DUP6 SUB SLT ISZERO PUSH3 0x146 JUMPI PUSH3 0x145 PUSH3 0x87 JUMP JUMPDEST JUMPDEST PUSH1 0x0 PUSH3 0x156 DUP6 DUP3 DUP7 ADD PUSH3 0xB0 JUMP JUMPDEST SWAP3 POP POP PUSH1 0x20 PUSH3 0x169 DUP6 DUP3 DUP7 ADD PUSH3 0x115 JUMP JUMPDEST SWAP2 POP POP SWAP3 POP SWAP3 SWAP1 POP JUMP JUMPDEST PUSH2 0x29FB DUP1 PUSH3 0x183 PUSH1 0x0 CODECOPY PUSH1 0x0 RETURN INVALID PUSH1 0x80 PUSH1 0x40 MSTORE PUSH1 0x4 CALLDATASIZE LT PUSH2 0xEC JUMPI PUSH1 0x0 CALLDATALOAD PUSH1 0xE0 SHR DUP1 PUSH4 0x8813CE12 GT PUSH2 0x8A JUMPI DUP1 PUSH4 0x9213AA33 GT PUSH2 0x59 JUMPI DUP1 PUSH4 0x9213AA33 EQ PUSH2 0x2ED JUMPI DUP1 PUSH4 0xB85DFB80 EQ PUSH2 0x32A JUMPI DUP1 PUSH4 0xB8F4BA03 EQ PUSH2 0x367 JUMPI DUP1 PUSH4 0xD7D1BBDB EQ PUSH2 0x3A9 JUMPI PUSH2 0xF3 JUMP JUMPDEST DUP1 PUSH4 0x8813CE12 EQ PUSH2 0x250 JUMPI DUP1 PUSH4 0x8A9CFD55 EQ PUSH2 0x27B JUMPI DUP1 PUSH4 0x8DDE0840 EQ PUSH2 0x2B8 JUMPI DUP1 PUSH4 0x900551A8 EQ PUSH2 0x2C2 JUMPI PUSH2 0xF3 JUMP JUMPDEST DUP1 PUSH4 0x3FAD1834 GT PUSH2 0xC6 JUMPI DUP1 PUSH4 0x3FAD1834 EQ PUSH2 0x189 JUMPI DUP1 PUSH4 0x4051DDAC EQ PUSH2 0x1B4 JUMPI DUP1 PUSH4 0x481C6A75 EQ PUSH2 0x1E3 JUMPI DUP1 PUSH4 0x81D12C58 EQ PUSH2 0x20E JUMPI PUSH2 0xF3 JUMP JUMPDEST DUP1 PUSH4 0x3441006 EQ PUSH2 0xF8 JUMPI DUP1 PUSH4 0x18513993 EQ PUSH2 0x121 JUMPI DUP1 PUSH4 0x30F3E3DA EQ PUSH2 0x15E JUMPI PUSH2 0xF3 JUMP JUMPDEST CALLDATASIZE PUSH2 0xF3 JUMPI STOP JUMPDEST PUSH1 0x0 DUP1 REVERT JUMPDEST CALLVALUE DUP1 ISZERO PUSH2 0x104 JUMPI PUSH1 0x0 DUP1 REVERT JUMPDEST POP PUSH2 0x11F PUSH1 0x4 DUP1 CALLDATASIZE SUB DUP2 ADD SWAP1 PUSH2 0x11A SWAP2 SWAP1 PUSH2 0x18D3 JUMP JUMPDEST PUSH2 0x3D2 JUMP JUMPDEST STOP JUMPDEST CALLVALUE DUP1 ISZERO PUSH2 0x12D JUMPI PUSH1 0x0 DUP1 REVERT JUMPDEST POP PUSH2 0x148 PUSH1 0x4 DUP1 CALLDATASIZE SUB DUP2 ADD SWAP1 PUSH2 0x143 SWAP2 SWAP1 PUSH2 0x195E JUMP JUMPDEST PUSH2 0x657 JUMP JUMPDEST PUSH1 0x40 MLOAD PUSH2 0x155 SWAP2 SWAP1 PUSH2 0x1BA8 JUMP JUMPDEST PUSH1 0x40 MLOAD DUP1 SWAP2 SUB SWAP1 RETURN JUMPDEST CALLVALUE DUP1 ISZERO PUSH2 0x16A JUMPI PUSH1 0x0 DUP1 REVERT JUMPDEST POP PUSH2 0x173 PUSH2 0x93B JUMP JUMPDEST PUSH1 0x40 MLOAD PUSH2 0x180 SWAP2 SWAP1 PUSH2 0x1C9A JUMP JUMPDEST PUSH1 0x40 MLOAD DUP1 SWAP2 SUB SWAP1 RETURN JUMPDEST CALLVALUE DUP1 ISZERO PUSH2 0x195 JUMPI PUSH1 0x0 DUP1 REVERT JUMPDEST POP PUSH2 0x19E PUSH2 0x9C9 JUMP JUMPDEST PUSH1 0x40 MLOAD PUSH2 0x1AB SWAP2 SWAP1 PUSH2 0x1CCB JUMP JUMPDEST PUSH1 0x40 MLOAD DUP1 SWAP2 SUB SWAP1 RETURN JUMPDEST CALLVALUE DUP1 ISZERO PUSH2 0x1C0 JUMPI PUSH1 0x0 DUP1 REVERT JUMPDEST POP PUSH2 0x1C9 PUSH2 0x9D5 JUMP JUMPDEST PUSH1 0x40 MLOAD PUSH2 0x1DA SWAP6 SWAP5 SWAP4 SWAP3 SWAP2 SWAP1 PUSH2 0x1CF5 JUMP JUMPDEST PUSH1 0x40 MLOAD DUP1 SWAP2 SUB SWAP1 RETURN JUMPDEST CALLVALUE DUP1 ISZERO PUSH2 0x1EF JUMPI PUSH1 0x0 DUP1 REVERT JUMPDEST POP PUSH2 0x1F8 PUSH2 0xA21 JUMP JUMPDEST PUSH1 0x40 MLOAD PUSH2 0x205 SWAP2 SWAP1 PUSH2 0x1D48 JUMP JUMPDEST PUSH1 0x40 MLOAD DUP1 SWAP2 SUB SWAP1 RETURN JUMPDEST CALLVALUE DUP1 ISZERO PUSH2 0x21A JUMPI PUSH1 0x0 DUP1 REVERT JUMPDEST POP PUSH2 0x235 PUSH1 0x4 DUP1 CALLDATASIZE SUB DUP2 ADD SWAP1 PUSH2 0x230 SWAP2 SWAP1 PUSH2 0x18D3 JUMP JUMPDEST PUSH2 0xA47 JUMP JUMPDEST PUSH1 0x40 MLOAD PUSH2 0x247 SWAP7 SWAP6 SWAP5 SWAP4 SWAP3 SWAP2 SWAP1 PUSH2 0x1DBC JUMP JUMPDEST PUSH1 0x40 MLOAD DUP1 SWAP2 SUB SWAP1 RETURN JUMPDEST CALLVALUE DUP1 ISZERO PUSH2 0x25C JUMPI PUSH1 0x0 DUP1 REVERT JUMPDEST POP PUSH2 0x265 PUSH2 0xB55 JUMP JUMPDEST PUSH1 0x40 MLOAD PUSH2 0x272 SWAP2 SWAP1 PUSH2 0x1BA8 JUMP JUMPDEST PUSH1 0x40 MLOAD DUP1 SWAP2 SUB SWAP1 RETURN JUMPDEST CALLVALUE DUP1 ISZERO PUSH2 0x287 JUMPI PUSH1 0x0 DUP1 REVERT JUMPDEST POP PUSH2 0x2A2 PUSH1 0x4 DUP1 CALLDATASIZE SUB DUP2 ADD SWAP1 PUSH2 0x29D SWAP2 SWAP1 PUSH2 0x1F59 JUMP JUMPDEST PUSH2 0xCE6 JUMP JUMPDEST PUSH1 0x40 MLOAD PUSH2 0x2AF SWAP2 SWAP1 PUSH2 0x2051 JUMP JUMPDEST PUSH1 0x40 MLOAD DUP1 SWAP2 SUB SWAP1 RETURN JUMPDEST PUSH2 0x2C0 PUSH2 0xEBD JUMP JUMPDEST STOP JUMPDEST CALLVALUE DUP1 ISZERO PUSH2 0x2CE JUMPI PUSH1 0x0 DUP1 REVERT JUMPDEST POP PUSH2 0x2D7 PUSH2 0x1005 JUMP JUMPDEST PUSH1 0x40 MLOAD PUSH2 0x2E4 SWAP2 SWAP1 PUSH2 0x1CCB JUMP JUMPDEST PUSH1 0x40 MLOAD DUP1 SWAP2 SUB SWAP1 RETURN JUMPDEST CALLVALUE DUP1 ISZERO PUSH2 0x2F9 JUMPI PUSH1 0x0 DUP1 REVERT JUMPDEST POP PUSH2 0x314 PUSH1 0x4 DUP1 CALLDATASIZE SUB DUP2 ADD SWAP1 PUSH2 0x30F SWAP2 SWAP1 PUSH2 0x18D3 JUMP JUMPDEST PUSH2 0x109D JUMP JUMPDEST PUSH1 0x40 MLOAD PUSH2 0x321 SWAP2 SWAP1 PUSH2 0x2082 JUMP JUMPDEST PUSH1 0x40 MLOAD DUP1 SWAP2 SUB SWAP1 RETURN JUMPDEST CALLVALUE DUP1 ISZERO PUSH2 0x336 JUMPI PUSH1 0x0 DUP1 REVERT JUMPDEST POP PUSH2 0x351 PUSH1 0x4 DUP1 CALLDATASIZE SUB DUP2 ADD SWAP1 PUSH2 0x34C SWAP2 SWAP1 PUSH2 0x195E JUMP JUMPDEST PUSH2 0x10DC JUMP JUMPDEST PUSH1 0x40 MLOAD PUSH2 0x35E SWAP2 SWAP1 PUSH2 0x1CCB JUMP JUMPDEST PUSH1 0x40 MLOAD DUP1 SWAP2 SUB SWAP1 RETURN JUMPDEST CALLVALUE DUP1 ISZERO PUSH2 0x373 JUMPI PUSH1 0x0 DUP1 REVERT JUMPDEST POP PUSH2 0x38E PUSH1 0x4 DUP1 CALLDATASIZE SUB DUP2 ADD SWAP1 PUSH2 0x389 SWAP2 SWAP1 PUSH2 0x209D JUMP JUMPDEST PUSH2 0x10F4 JUMP JUMPDEST PUSH1 0x40 MLOAD PUSH2 0x3A0 SWAP7 SWAP6 SWAP5 SWAP4 SWAP3 SWAP2 SWAP1 PUSH2 0x1DBC JUMP JUMPDEST PUSH1 0x40 MLOAD DUP1 SWAP2 SUB SWAP1 RETURN JUMPDEST CALLVALUE DUP1 ISZERO PUSH2 0x3B5 JUMPI PUSH1 0x0 DUP1 REVERT JUMPDEST POP PUSH2 0x3D0 PUSH1 0x4 DUP1 CALLDATASIZE SUB DUP2 ADD SWAP1 PUSH2 0x3CB SWAP2 SWAP1 PUSH2 0x18D3 JUMP JUMPDEST PUSH2 0x120F JUMP JUMPDEST STOP JUMPDEST PUSH1 0x1 PUSH1 0x0 SWAP1 SLOAD SWAP1 PUSH2 0x100 EXP SWAP1 DIV PUSH20 0xFFFFFFFFFFFFFFFFFFFFFFFFFFFFFFFFFFFFFFFF AND PUSH20 0xFFFFFFFFFFFFFFFFFFFFFFFFFFFFFFFFFFFFFFFF AND CALLER PUSH20 0xFFFFFFFFFFFFFFFFFFFFFFFFFFFFFFFFFFFFFFFF AND EQ PUSH2 0x462 JUMPI PUSH1 0x40 MLOAD PUSH32 0x8C379A000000000000000000000000000000000000000000000000000000000 DUP2 MSTORE PUSH1 0x4 ADD PUSH2 0x459 SWAP1 PUSH2 0x214F JUMP JUMPDEST PUSH1 0x40 MLOAD DUP1 SWAP2 SUB SWAP1 REVERT JUMPDEST PUSH1 0x0 DUP1 DUP3 DUP2 SLOAD DUP2 LT PUSH2 0x477 JUMPI PUSH2 0x476 PUSH2 0x216F JUMP JUMPDEST JUMPDEST SWAP1 PUSH1 0x0 MSTORE PUSH1 0x20 PUSH1 0x0 KECCAK256 SWAP1 PUSH1 0x4 MUL ADD SWAP1 POP PUSH1 0x2 DUP1 DUP1 SLOAD SWAP1 POP PUSH2 0x498 SWAP2 SWAP1 PUSH2 0x21FC JUMP JUMPDEST DUP2 PUSH1 0x3 ADD SLOAD GT PUSH2 0x4DD JUMPI PUSH1 0x40 MLOAD PUSH32 0x8C379A000000000000000000000000000000000000000000000000000000000 DUP2 MSTORE PUSH1 0x4 ADD PUSH2 0x4D4 SWAP1 PUSH2 0x229F JUMP JUMPDEST PUSH1 0x40 MLOAD DUP1 SWAP2 SUB SWAP1 REVERT JUMPDEST DUP1 PUSH1 0x2 ADD PUSH1 0x14 SWAP1 SLOAD SWAP1 PUSH2 0x100 EXP SWAP1 DIV PUSH1 0xFF AND ISZERO PUSH2 0x52F JUMPI PUSH1 0x40 MLOAD PUSH32 0x8C379A000000000000000000000000000000000000000000000000000000000 DUP2 MSTORE PUSH1 0x4 ADD PUSH2 0x526 SWAP1 PUSH2 0x2331 JUMP JUMPDEST PUSH1 0x40 MLOAD DUP1 SWAP2 SUB SWAP1 REVERT JUMPDEST DUP1 PUSH1 0x2 ADD PUSH1 0x15 SWAP1 SLOAD SWAP1 PUSH2 0x100 EXP SWAP1 DIV PUSH1 0xFF AND ISZERO PUSH2 0x581 JUMPI PUSH1 0x40 MLOAD PUSH32 0x8C379A000000000000000000000000000000000000000000000000000000000 DUP2 MSTORE PUSH1 0x4 ADD PUSH2 0x578 SWAP1 PUSH2 0x239D JUMP JUMPDEST PUSH1 0x40 MLOAD DUP1 SWAP2 SUB SWAP1 REVERT JUMPDEST DUP1 PUSH1 0x1 ADD SLOAD SELFBALANCE GT PUSH2 0x5C7 JUMPI PUSH1 0x40 MLOAD PUSH32 0x8C379A000000000000000000000000000000000000000000000000000000000 DUP2 MSTORE PUSH1 0x4 ADD PUSH2 0x5BE SWAP1 PUSH2 0x242F JUMP JUMPDEST PUSH1 0x40 MLOAD DUP1 SWAP2 SUB SWAP1 REVERT JUMPDEST PUSH1 0x1 DUP2 PUSH1 0x2 ADD PUSH1 0x14 PUSH2 0x100 EXP DUP2 SLOAD DUP2 PUSH1 0xFF MUL NOT AND SWAP1 DUP4 ISZERO ISZERO MUL OR SWAP1 SSTORE POP DUP1 PUSH1 0x2 ADD PUSH1 0x0 SWAP1 SLOAD SWAP1 PUSH2 0x100 EXP SWAP1 DIV PUSH20 0xFFFFFFFFFFFFFFFFFFFFFFFFFFFFFFFFFFFFFFFF AND PUSH20 0xFFFFFFFFFFFFFFFFFFFFFFFFFFFFFFFFFFFFFFFF AND PUSH2 0x8FC DUP3 PUSH1 0x1 ADD SLOAD SWAP1 DUP2 ISZERO MUL SWAP1 PUSH1 0x40 MLOAD PUSH1 0x0 PUSH1 0x40 MLOAD DUP1 DUP4 SUB DUP2 DUP6 DUP9 DUP9 CALL SWAP4 POP POP POP POP ISZERO DUP1 ISZERO PUSH2 0x652 JUMPI RETURNDATASIZE PUSH1 0x0 DUP1 RETURNDATACOPY RETURNDATASIZE PUSH1 0x0 REVERT JUMPDEST POP POP POP JUMP JUMPDEST PUSH1 0x60 PUSH1 0x1 PUSH1 0x0 SWAP1 SLOAD SWAP1 PUSH2 0x100 EXP SWAP1 DIV PUSH20 0xFFFFFFFFFFFFFFFFFFFFFFFFFFFFFFFFFFFFFFFF AND PUSH20 0xFFFFFFFFFFFFFFFFFFFFFFFFFFFFFFFFFFFFFFFF AND CALLER PUSH20 0xFFFFFFFFFFFFFFFFFFFFFFFFFFFFFFFFFFFFFFFF AND EQ PUSH2 0x6E9 JUMPI PUSH1 0x40 MLOAD PUSH32 0x8C379A000000000000000000000000000000000000000000000000000000000 DUP2 MSTORE PUSH1 0x4 ADD PUSH2 0x6E0 SWAP1 PUSH2 0x214F JUMP JUMPDEST PUSH1 0x40 MLOAD DUP1 SWAP2 SUB SWAP1 REVERT JUMPDEST PUSH1 0x3 SLOAD PUSH1 0x4 PUSH1 0x0 DUP5 PUSH20 0xFFFFFFFFFFFFFFFFFFFFFFFFFFFFFFFFFFFFFFFF AND PUSH20 0xFFFFFFFFFFFFFFFFFFFFFFFFFFFFFFFFFFFFFFFF AND DUP2 MSTORE PUSH1 0x20 ADD SWAP1 DUP2 MSTORE PUSH1 0x20 ADD PUSH1 0x0 KECCAK256 SLOAD LT ISZERO PUSH2 0x76D JUMPI PUSH1 0x40 MLOAD PUSH32 0x8C379A000000000000000000000000000000000000000000000000000000000 DUP2 MSTORE PUSH1 0x4 ADD PUSH2 0x764 SWAP1 PUSH2 0x24C1 JUMP JUMPDEST PUSH1 0x40 MLOAD DUP1 SWAP2 SUB SWAP1 REVERT JUMPDEST PUSH1 0x5 PUSH1 0x0 DUP4 PUSH20 0xFFFFFFFFFFFFFFFFFFFFFFFFFFFFFFFFFFFFFFFF AND PUSH20 0xFFFFFFFFFFFFFFFFFFFFFFFFFFFFFFFFFFFFFFFF AND DUP2 MSTORE PUSH1 0x20 ADD SWAP1 DUP2 MSTORE PUSH1 0x20 ADD PUSH1 0x0 KECCAK256 DUP1 SLOAD DUP1 PUSH1 0x20 MUL PUSH1 0x20 ADD PUSH1 0x40 MLOAD SWAP1 DUP2 ADD PUSH1 0x40 MSTORE DUP1 SWAP3 SWAP2 SWAP1 DUP2 DUP2 MSTORE PUSH1 0x20 ADD PUSH1 0x0 SWAP1 JUMPDEST DUP3 DUP3 LT ISZERO PUSH2 0x930 JUMPI DUP4 DUP3 SWAP1 PUSH1 0x0 MSTORE PUSH1 0x20 PUSH1 0x0 KECCAK256 SWAP1 PUSH1 0x4 MUL ADD PUSH1 0x40 MLOAD DUP1 PUSH1 0xC0 ADD PUSH1 0x40 MSTORE SWAP1 DUP2 PUSH1 0x0 DUP3 ADD DUP1 SLOAD PUSH2 0x7FF SWAP1 PUSH2 0x2510 JUMP JUMPDEST DUP1 PUSH1 0x1F ADD PUSH1 0x20 DUP1 SWAP2 DIV MUL PUSH1 0x20 ADD PUSH1 0x40 MLOAD SWAP1 DUP2 ADD PUSH1 0x40 MSTORE DUP1 SWAP3 SWAP2 SWAP1 DUP2 DUP2 MSTORE PUSH1 0x20 ADD DUP3 DUP1 SLOAD PUSH2 0x82B SWAP1 PUSH2 0x2510 JUMP JUMPDEST DUP1 ISZERO PUSH2 0x878 JUMPI DUP1 PUSH1 0x1F LT PUSH2 0x84D JUMPI PUSH2 0x100 DUP1 DUP4 SLOAD DIV MUL DUP4 MSTORE SWAP2 PUSH1 0x20 ADD SWAP2 PUSH2 0x878 JUMP JUMPDEST DUP3 ADD SWAP2 SWAP1 PUSH1 0x0 MSTORE PUSH1 0x20 PUSH1 0x0 KECCAK256 SWAP1 JUMPDEST DUP2 SLOAD DUP2 MSTORE SWAP1 PUSH1 0x1 ADD SWAP1 PUSH1 0x20 ADD DUP1 DUP4 GT PUSH2 0x85B JUMPI DUP3 SWAP1 SUB PUSH1 0x1F AND DUP3 ADD SWAP2 JUMPDEST POP POP POP POP POP DUP2 MSTORE PUSH1 0x20 ADD PUSH1 0x1 DUP3 ADD SLOAD DUP2 MSTORE PUSH1 0x20 ADD PUSH1 0x2 DUP3 ADD PUSH1 0x0 SWAP1 SLOAD SWAP1 PUSH2 0x100 EXP SWAP1 DIV PUSH20 0xFFFFFFFFFFFFFFFFFFFFFFFFFFFFFFFFFFFFFFFF AND PUSH20 0xFFFFFFFFFFFFFFFFFFFFFFFFFFFFFFFFFFFFFFFF AND PUSH20 0xFFFFFFFFFFFFFFFFFFFFFFFFFFFFFFFFFFFFFFFF AND DUP2 MSTORE PUSH1 0x20 ADD PUSH1 0x2 DUP3 ADD PUSH1 0x14 SWAP1 SLOAD SWAP1 PUSH2 0x100 EXP SWAP1 DIV PUSH1 0xFF AND ISZERO ISZERO ISZERO ISZERO DUP2 MSTORE PUSH1 0x20 ADD PUSH1 0x2 DUP3 ADD PUSH1 0x15 SWAP1 SLOAD SWAP1 PUSH2 0x100 EXP SWAP1 DIV PUSH1 0xFF AND ISZERO ISZERO ISZERO ISZERO DUP2 MSTORE PUSH1 0x20 ADD PUSH1 0x3 DUP3 ADD SLOAD DUP2 MSTORE POP POP DUP2 MSTORE PUSH1 0x20 ADD SWAP1 PUSH1 0x1 ADD SWAP1 PUSH2 0x7CC JUMP JUMPDEST POP POP POP POP SWAP1 POP SWAP2 SWAP1 POP JUMP JUMPDEST PUSH1 0x60 PUSH1 0x2 DUP1 SLOAD DUP1 PUSH1 0x20 MUL PUSH1 0x20 ADD PUSH1 0x40 MLOAD SWAP1 DUP2 ADD PUSH1 0x40 MSTORE DUP1 SWAP3 SWAP2 SWAP1 DUP2 DUP2 MSTORE PUSH1 0x20 ADD DUP3 DUP1 SLOAD DUP1 ISZERO PUSH2 0x9BF JUMPI PUSH1 0x20 MUL DUP3 ADD SWAP2 SWAP1 PUSH1 0x0 MSTORE PUSH1 0x20 PUSH1 0x0 KECCAK256 SWAP1 JUMPDEST DUP2 PUSH1 0x0 SWAP1 SLOAD SWAP1 PUSH2 0x100 EXP SWAP1 DIV PUSH20 0xFFFFFFFFFFFFFFFFFFFFFFFFFFFFFFFFFFFFFFFF AND PUSH20 0xFFFFFFFFFFFFFFFFFFFFFFFFFFFFFFFFFFFFFFFF AND DUP2 MSTORE PUSH1 0x20 ADD SWAP1 PUSH1 0x1 ADD SWAP1 DUP1 DUP4 GT PUSH2 0x975 JUMPI JUMPDEST POP POP POP POP POP SWAP1 POP SWAP1 JUMP JUMPDEST PUSH1 0x0 DUP1 DUP1 SLOAD SWAP1 POP SWAP1 POP SWAP1 JUMP JUMPDEST PUSH1 0x0 DUP1 PUSH1 0x0 DUP1 PUSH1 0x0 PUSH1 0x3 SLOAD SELFBALANCE PUSH1 0x0 DUP1 SLOAD SWAP1 POP PUSH1 0x2 DUP1 SLOAD SWAP1 POP PUSH1 0x1 PUSH1 0x0 SWAP1 SLOAD SWAP1 PUSH2 0x100 EXP SWAP1 DIV PUSH20 0xFFFFFFFFFFFFFFFFFFFFFFFFFFFFFFFFFFFFFFFF AND SWAP5 POP SWAP5 POP SWAP5 POP SWAP5 POP SWAP5 POP SWAP1 SWAP2 SWAP3 SWAP4 SWAP5 JUMP JUMPDEST PUSH1 0x1 PUSH1 0x0 SWAP1 SLOAD SWAP1 PUSH2 0x100 EXP SWAP1 DIV PUSH20 0xFFFFFFFFFFFFFFFFFFFFFFFFFFFFFFFFFFFFFFFF AND DUP2 JUMP JUMPDEST PUSH1 0x0 DUP2 DUP2 SLOAD DUP2 LT PUSH2 0xA57 JUMPI PUSH1 0x0 DUP1 REVERT JUMPDEST SWAP1 PUSH1 0x0 MSTORE PUSH1 0x20 PUSH1 0x0 KECCAK256 SWAP1 PUSH1 0x4 MUL ADD PUSH1 0x0 SWAP2 POP SWAP1 POP DUP1 PUSH1 0x0 ADD DUP1 SLOAD PUSH2 0xA7A SWAP1 PUSH2 0x2510 JUMP JUMPDEST DUP1 PUSH1 0x1F ADD PUSH1 0x20 DUP1 SWAP2 DIV MUL PUSH1 0x20 ADD PUSH1 0x40 MLOAD SWAP1 DUP2 ADD PUSH1 0x40 MSTORE DUP1 SWAP3 SWAP2 SWAP1 DUP2 DUP2 MSTORE PUSH1 0x20 ADD DUP3 DUP1 SLOAD PUSH2 0xAA6 SWAP1 PUSH2 0x2510 JUMP JUMPDEST DUP1 ISZERO PUSH2 0xAF3 JUMPI DUP1 PUSH1 0x1F LT PUSH2 0xAC8 JUMPI PUSH2 0x100 DUP1 DUP4 SLOAD DIV MUL DUP4 MSTORE SWAP2 PUSH1 0x20 ADD SWAP2 PUSH2 0xAF3 JUMP JUMPDEST DUP3 ADD SWAP2 SWAP1 PUSH1 0x0 MSTORE PUSH1 0x20 PUSH1 0x0 KECCAK256 SWAP1 JUMPDEST DUP2 SLOAD DUP2 MSTORE SWAP1 PUSH1 0x1 ADD SWAP1 PUSH1 0x20 ADD DUP1 DUP4 GT PUSH2 0xAD6 JUMPI DUP3 SWAP1 SUB PUSH1 0x1F AND DUP3 ADD SWAP2 JUMPDEST POP POP POP POP POP SWAP1 DUP1 PUSH1 0x1 ADD SLOAD SWAP1 DUP1 PUSH1 0x2 ADD PUSH1 0x0 SWAP1 SLOAD SWAP1 PUSH2 0x100 EXP SWAP1 DIV PUSH20 0xFFFFFFFFFFFFFFFFFFFFFFFFFFFFFFFFFFFFFFFF AND SWAP1 DUP1 PUSH1 0x2 ADD PUSH1 0x14 SWAP1 SLOAD SWAP1 PUSH2 0x100 EXP SWAP1 DIV PUSH1 0xFF AND SWAP1 DUP1 PUSH1 0x2 ADD PUSH1 0x15 SWAP1 SLOAD SWAP1 PUSH2 0x100 EXP SWAP1 DIV PUSH1 0xFF AND SWAP1 DUP1 PUSH1 0x3 ADD SLOAD SWAP1 POP DUP7 JUMP JUMPDEST PUSH1 0x60 PUSH1 0x0 DUP1 SLOAD DUP1 PUSH1 0x20 MUL PUSH1 0x20 ADD PUSH1 0x40 MLOAD SWAP1 DUP2 ADD PUSH1 0x40 MSTORE DUP1 SWAP3 SWAP2 SWAP1 DUP2 DUP2 MSTORE PUSH1 0x20 ADD PUSH1 0x0 SWAP1 JUMPDEST DUP3 DUP3 LT ISZERO PUSH2 0xCDD JUMPI DUP4 DUP3 SWAP1 PUSH1 0x0 MSTORE PUSH1 0x20 PUSH1 0x0 KECCAK256 SWAP1 PUSH1 0x4 MUL ADD PUSH1 0x40 MLOAD DUP1 PUSH1 0xC0 ADD PUSH1 0x40 MSTORE SWAP1 DUP2 PUSH1 0x0 DUP3 ADD DUP1 SLOAD PUSH2 0xBAC SWAP1 PUSH2 0x2510 JUMP JUMPDEST DUP1 PUSH1 0x1F ADD PUSH1 0x20 DUP1 SWAP2 DIV MUL PUSH1 0x20 ADD PUSH1 0x40 MLOAD SWAP1 DUP2 ADD PUSH1 0x40 MSTORE DUP1 SWAP3 SWAP2 SWAP1 DUP2 DUP2 MSTORE PUSH1 0x20 ADD DUP3 DUP1 SLOAD PUSH2 0xBD8 SWAP1 PUSH2 0x2510 JUMP JUMPDEST DUP1 ISZERO PUSH2 0xC25 JUMPI DUP1 PUSH1 0x1F LT PUSH2 0xBFA JUMPI PUSH2 0x100 DUP1 DUP4 SLOAD DIV MUL DUP4 MSTORE SWAP2 PUSH1 0x20 ADD SWAP2 PUSH2 0xC25 JUMP JUMPDEST DUP3 ADD SWAP2 SWAP1 PUSH1 0x0 MSTORE PUSH1 0x20 PUSH1 0x0 KECCAK256 SWAP1 JUMPDEST DUP2 SLOAD DUP2 MSTORE SWAP1 PUSH1 0x1 ADD SWAP1 PUSH1 0x20 ADD DUP1 DUP4 GT PUSH2 0xC08 JUMPI DUP3 SWAP1 SUB PUSH1 0x1F AND DUP3 ADD SWAP2 JUMPDEST POP POP POP POP POP DUP2 MSTORE PUSH1 0x20 ADD PUSH1 0x1 DUP3 ADD SLOAD DUP2 MSTORE PUSH1 0x20 ADD PUSH1 0x2 DUP3 ADD PUSH1 0x0 SWAP1 SLOAD SWAP1 PUSH2 0x100 EXP SWAP1 DIV PUSH20 0xFFFFFFFFFFFFFFFFFFFFFFFFFFFFFFFFFFFFFFFF AND PUSH20 0xFFFFFFFFFFFFFFFFFFFFFFFFFFFFFFFFFFFFFFFF AND PUSH20 0xFFFFFFFFFFFFFFFFFFFFFFFFFFFFFFFFFFFFFFFF AND DUP2 MSTORE PUSH1 0x20 ADD PUSH1 0x2 DUP3 ADD PUSH1 0x14 SWAP1 SLOAD SWAP1 PUSH2 0x100 EXP SWAP1 DIV PUSH1 0xFF AND ISZERO ISZERO ISZERO ISZERO DUP2 MSTORE PUSH1 0x20 ADD PUSH1 0x2 DUP3 ADD PUSH1 0x15 SWAP1 SLOAD SWAP1 PUSH2 0x100 EXP SWAP1 DIV PUSH1 0xFF AND ISZERO ISZERO ISZERO ISZERO DUP2 MSTORE PUSH1 0x20 ADD PUSH1 0x3 DUP3 ADD SLOAD DUP2 MSTORE POP POP DUP2 MSTORE PUSH1 0x20 ADD SWAP1 PUSH1 0x1 ADD SWAP1 PUSH2 0xB79 JUMP JUMPDEST POP POP POP POP SWAP1 POP SWAP1 JUMP JUMPDEST PUSH2 0xCEE PUSH2 0x1709 JUMP JUMPDEST PUSH1 0x1 PUSH1 0x0 SWAP1 SLOAD SWAP1 PUSH2 0x100 EXP SWAP1 DIV PUSH20 0xFFFFFFFFFFFFFFFFFFFFFFFFFFFFFFFFFFFFFFFF AND PUSH20 0xFFFFFFFFFFFFFFFFFFFFFFFFFFFFFFFFFFFFFFFF AND CALLER PUSH20 0xFFFFFFFFFFFFFFFFFFFFFFFFFFFFFFFFFFFFFFFF AND EQ PUSH2 0xD7E JUMPI PUSH1 0x40 MLOAD PUSH32 0x8C379A000000000000000000000000000000000000000000000000000000000 DUP2 MSTORE PUSH1 0x4 ADD PUSH2 0xD75 SWAP1 PUSH2 0x214F JUMP JUMPDEST PUSH1 0x40 MLOAD DUP1 SWAP2 SUB SWAP1 REVERT JUMPDEST PUSH1 0x0 PUSH1 0x40 MLOAD DUP1 PUSH1 0xC0 ADD PUSH1 0x40 MSTORE DUP1 DUP7 DUP2 MSTORE PUSH1 0x20 ADD DUP6 DUP2 MSTORE PUSH1 0x20 ADD DUP5 PUSH20 0xFFFFFFFFFFFFFFFFFFFFFFFFFFFFFFFFFFFFFFFF AND DUP2 MSTORE PUSH1 0x20 ADD PUSH1 0x0 ISZERO ISZERO DUP2 MSTORE PUSH1 0x20 ADD PUSH1 0x0 ISZERO ISZERO DUP2 MSTORE PUSH1 0x20 ADD PUSH1 0x0 DUP2 MSTORE POP SWAP1 POP PUSH1 0x0 DUP2 SWAP1 DUP1 PUSH1 0x1 DUP2 SLOAD ADD DUP1 DUP3 SSTORE DUP1 SWAP2 POP POP PUSH1 0x1 SWAP1 SUB SWAP1 PUSH1 0x0 MSTORE PUSH1 0x20 PUSH1 0x0 KECCAK256 SWAP1 PUSH1 0x4 MUL ADD PUSH1 0x0 SWAP1 SWAP2 SWAP1 SWAP2 SWAP1 SWAP2 POP PUSH1 0x0 DUP3 ADD MLOAD DUP2 PUSH1 0x0 ADD SWAP1 DUP1 MLOAD SWAP1 PUSH1 0x20 ADD SWAP1 PUSH2 0xE14 SWAP3 SWAP2 SWAP1 PUSH2 0x1759 JUMP JUMPDEST POP PUSH1 0x20 DUP3 ADD MLOAD DUP2 PUSH1 0x1 ADD SSTORE PUSH1 0x40 DUP3 ADD MLOAD DUP2 PUSH1 0x2 ADD PUSH1 0x0 PUSH2 0x100 EXP DUP2 SLOAD DUP2 PUSH20 0xFFFFFFFFFFFFFFFFFFFFFFFFFFFFFFFFFFFFFFFF MUL NOT AND SWAP1 DUP4 PUSH20 0xFFFFFFFFFFFFFFFFFFFFFFFFFFFFFFFFFFFFFFFF AND MUL OR SWAP1 SSTORE POP PUSH1 0x60 DUP3 ADD MLOAD DUP2 PUSH1 0x2 ADD PUSH1 0x14 PUSH2 0x100 EXP DUP2 SLOAD DUP2 PUSH1 0xFF MUL NOT AND SWAP1 DUP4 ISZERO ISZERO MUL OR SWAP1 SSTORE POP PUSH1 0x80 DUP3 ADD MLOAD DUP2 PUSH1 0x2 ADD PUSH1 0x15 PUSH2 0x100 EXP DUP2 SLOAD DUP2 PUSH1 0xFF MUL NOT AND SWAP1 DUP4 ISZERO ISZERO MUL OR SWAP1 SSTORE POP PUSH1 0xA0 DUP3 ADD MLOAD DUP2 PUSH1 0x3 ADD SSTORE POP POP DUP1 SWAP2 POP POP SWAP4 SWAP3 POP POP POP JUMP JUMPDEST PUSH1 0x3 SLOAD CALLVALUE LT ISZERO PUSH2 0xF02 JUMPI PUSH1 0x40 MLOAD PUSH32 0x8C379A000000000000000000000000000000000000000000000000000000000 DUP2 MSTORE PUSH1 0x4 ADD PUSH2 0xEF9 SWAP1 PUSH2 0x25B3 JUMP JUMPDEST PUSH1 0x40 MLOAD DUP1 SWAP2 SUB SWAP1 REVERT JUMPDEST PUSH1 0x0 PUSH1 0x4 PUSH1 0x0 CALLER PUSH20 0xFFFFFFFFFFFFFFFFFFFFFFFFFFFFFFFFFFFFFFFF AND PUSH20 0xFFFFFFFFFFFFFFFFFFFFFFFFFFFFFFFFFFFFFFFF AND DUP2 MSTORE PUSH1 0x20 ADD SWAP1 DUP2 MSTORE PUSH1 0x20 ADD PUSH1 0x0 KECCAK256 SLOAD SUB PUSH2 0xFAD JUMPI PUSH1 0x2 CALLER SWAP1 DUP1 PUSH1 0x1 DUP2 SLOAD ADD DUP1 DUP3 SSTORE DUP1 SWAP2 POP POP PUSH1 0x1 SWAP1 SUB SWAP1 PUSH1 0x0 MSTORE PUSH1 0x20 PUSH1 0x0 KECCAK256 ADD PUSH1 0x0 SWAP1 SWAP2 SWAP1 SWAP2 SWAP1 SWAP2 PUSH2 0x100 EXP DUP2 SLOAD DUP2 PUSH20 0xFFFFFFFFFFFFFFFFFFFFFFFFFFFFFFFFFFFFFFFF MUL NOT AND SWAP1 DUP4 PUSH20 0xFFFFFFFFFFFFFFFFFFFFFFFFFFFFFFFFFFFFFFFF AND MUL OR SWAP1 SSTORE POP JUMPDEST CALLVALUE PUSH1 0x4 PUSH1 0x0 CALLER PUSH20 0xFFFFFFFFFFFFFFFFFFFFFFFFFFFFFFFFFFFFFFFF AND PUSH20 0xFFFFFFFFFFFFFFFFFFFFFFFFFFFFFFFFFFFFFFFF AND DUP2 MSTORE PUSH1 0x20 ADD SWAP1 DUP2 MSTORE PUSH1 0x20 ADD PUSH1 0x0 KECCAK256 PUSH1 0x0 DUP3 DUP3 SLOAD PUSH2 0xFFC SWAP2 SWAP1 PUSH2 0x25D3 JUMP JUMPDEST SWAP3 POP POP DUP2 SWAP1 SSTORE POP JUMP JUMPDEST PUSH1 0x0 PUSH1 0x1 PUSH1 0x0 SWAP1 SLOAD SWAP1 PUSH2 0x100 EXP SWAP1 DIV PUSH20 0xFFFFFFFFFFFFFFFFFFFFFFFFFFFFFFFFFFFFFFFF AND PUSH20 0xFFFFFFFFFFFFFFFFFFFFFFFFFFFFFFFFFFFFFFFF AND CALLER PUSH20 0xFFFFFFFFFFFFFFFFFFFFFFFFFFFFFFFFFFFFFFFF AND EQ PUSH2 0x1097 JUMPI PUSH1 0x40 MLOAD PUSH32 0x8C379A000000000000000000000000000000000000000000000000000000000 DUP2 MSTORE PUSH1 0x4 ADD PUSH2 0x108E SWAP1 PUSH2 0x214F JUMP JUMPDEST PUSH1 0x40 MLOAD DUP1 SWAP2 SUB SWAP1 REVERT JUMPDEST SELFBALANCE SWAP1 POP SWAP1 JUMP JUMPDEST PUSH1 0x2 DUP2 DUP2 SLOAD DUP2 LT PUSH2 0x10AD JUMPI PUSH1 0x0 DUP1 REVERT JUMPDEST SWAP1 PUSH1 0x0 MSTORE PUSH1 0x20 PUSH1 0x0 KECCAK256 ADD PUSH1 0x0 SWAP2 POP SLOAD SWAP1 PUSH2 0x100 EXP SWAP1 DIV PUSH20 0xFFFFFFFFFFFFFFFFFFFFFFFFFFFFFFFFFFFFFFFF AND DUP2 JUMP JUMPDEST PUSH1 0x4 PUSH1 0x20 MSTORE DUP1 PUSH1 0x0 MSTORE PUSH1 0x40 PUSH1 0x0 KECCAK256 PUSH1 0x0 SWAP2 POP SWAP1 POP SLOAD DUP2 JUMP JUMPDEST PUSH1 0x5 PUSH1 0x20 MSTORE DUP2 PUSH1 0x0 MSTORE PUSH1 0x40 PUSH1 0x0 KECCAK256 DUP2 DUP2 SLOAD DUP2 LT PUSH2 0x1110 JUMPI PUSH1 0x0 DUP1 REVERT JUMPDEST SWAP1 PUSH1 0x0 MSTORE PUSH1 0x20 PUSH1 0x0 KECCAK256 SWAP1 PUSH1 0x4 MUL ADD PUSH1 0x0 SWAP2 POP SWAP2 POP POP DUP1 PUSH1 0x0 ADD DUP1 SLOAD PUSH2 0x1134 SWAP1 PUSH2 0x2510 JUMP JUMPDEST DUP1 PUSH1 0x1F ADD PUSH1 0x20 DUP1 SWAP2 DIV MUL PUSH1 0x20 ADD PUSH1 0x40 MLOAD SWAP1 DUP2 ADD PUSH1 0x40 MSTORE DUP1 SWAP3 SWAP2 SWAP1 DUP2 DUP2 MSTORE PUSH1 0x20 ADD DUP3 DUP1 SLOAD PUSH2 0x1160 SWAP1 PUSH2 0x2510 JUMP JUMPDEST DUP1 ISZERO PUSH2 0x11AD JUMPI DUP1 PUSH1 0x1F LT PUSH2 0x1182 JUMPI PUSH2 0x100 DUP1 DUP4 SLOAD DIV MUL DUP4 MSTORE SWAP2 PUSH1 0x20 ADD SWAP2 PUSH2 0x11AD JUMP JUMPDEST DUP3 ADD SWAP2 SWAP1 PUSH1 0x0 MSTORE PUSH1 0x20 PUSH1 0x0 KECCAK256 SWAP1 JUMPDEST DUP2 SLOAD DUP2 MSTORE SWAP1 PUSH1 0x1 ADD SWAP1 PUSH1 0x20 ADD DUP1 DUP4 GT PUSH2 0x1190 JUMPI DUP3 SWAP1 SUB PUSH1 0x1F AND DUP3 ADD SWAP2 JUMPDEST POP POP POP POP POP SWAP1 DUP1 PUSH1 0x1 ADD SLOAD SWAP1 DUP1 PUSH1 0x2 ADD PUSH1 0x0 SWAP1 SLOAD SWAP1 PUSH2 0x100 EXP SWAP1 DIV PUSH20 0xFFFFFFFFFFFFFFFFFFFFFFFFFFFFFFFFFFFFFFFF AND SWAP1 DUP1 PUSH1 0x2 ADD PUSH1 0x14 SWAP1 SLOAD SWAP1 PUSH2 0x100 EXP SWAP1 DIV PUSH1 0xFF AND SWAP1 DUP1 PUSH1 0x2 ADD PUSH1 0x15 SWAP1 SLOAD SWAP1 PUSH2 0x100 EXP SWAP1 DIV PUSH1 0xFF AND SWAP1 DUP1 PUSH1 0x3 ADD SLOAD SWAP1 POP DUP7 JUMP JUMPDEST PUSH1 0x3 SLOAD PUSH1 0x4 PUSH1 0x0 CALLER PUSH20 0xFFFFFFFFFFFFFFFFFFFFFFFFFFFFFFFFFFFFFFFF AND PUSH20 0xFFFFFFFFFFFFFFFFFFFFFFFFFFFFFFFFFFFFFFFF AND DUP2 MSTORE PUSH1 0x20 ADD SWAP1 DUP2 MSTORE PUSH1 0x20 ADD PUSH1 0x0 KECCAK256 SLOAD LT ISZERO PUSH2 0x1293 JUMPI PUSH1 0x40 MLOAD PUSH32 0x8C379A000000000000000000000000000000000000000000000000000000000 DUP2 MSTORE PUSH1 0x4 ADD PUSH2 0x128A SWAP1 PUSH2 0x269B JUMP JUMPDEST PUSH1 0x40 MLOAD DUP1 SWAP2 SUB SWAP1 REVERT JUMPDEST PUSH1 0x0 PUSH1 0x5 PUSH1 0x0 CALLER PUSH20 0xFFFFFFFFFFFFFFFFFFFFFFFFFFFFFFFFFFFFFFFF AND PUSH20 0xFFFFFFFFFFFFFFFFFFFFFFFFFFFFFFFFFFFFFFFF AND DUP2 MSTORE PUSH1 0x20 ADD SWAP1 DUP2 MSTORE PUSH1 0x20 ADD PUSH1 0x0 KECCAK256 DUP1 SLOAD DUP1 PUSH1 0x20 MUL PUSH1 0x20 ADD PUSH1 0x40 MLOAD SWAP1 DUP2 ADD PUSH1 0x40 MSTORE DUP1 SWAP3 SWAP2 SWAP1 DUP2 DUP2 MSTORE PUSH1 0x20 ADD PUSH1 0x0 SWAP1 JUMPDEST DUP3 DUP3 LT ISZERO PUSH2 0x1458 JUMPI DUP4 DUP3 SWAP1 PUSH1 0x0 MSTORE PUSH1 0x20 PUSH1 0x0 KECCAK256 SWAP1 PUSH1 0x4 MUL ADD PUSH1 0x40 MLOAD DUP1 PUSH1 0xC0 ADD PUSH1 0x40 MSTORE SWAP1 DUP2 PUSH1 0x0 DUP3 ADD DUP1 SLOAD PUSH2 0x1327 SWAP1 PUSH2 0x2510 JUMP JUMPDEST DUP1 PUSH1 0x1F ADD PUSH1 0x20 DUP1 SWAP2 DIV MUL PUSH1 0x20 ADD PUSH1 0x40 MLOAD SWAP1 DUP2 ADD PUSH1 0x40 MSTORE DUP1 SWAP3 SWAP2 SWAP1 DUP2 DUP2 MSTORE PUSH1 0x20 ADD DUP3 DUP1 SLOAD PUSH2 0x1353 SWAP1 PUSH2 0x2510 JUMP JUMPDEST DUP1 ISZERO PUSH2 0x13A0 JUMPI DUP1 PUSH1 0x1F LT PUSH2 0x1375 JUMPI PUSH2 0x100 DUP1 DUP4 SLOAD DIV MUL DUP4 MSTORE SWAP2 PUSH1 0x20 ADD SWAP2 PUSH2 0x13A0 JUMP JUMPDEST DUP3 ADD SWAP2 SWAP1 PUSH1 0x0 MSTORE PUSH1 0x20 PUSH1 0x0 KECCAK256 SWAP1 JUMPDEST DUP2 SLOAD DUP2 MSTORE SWAP1 PUSH1 0x1 ADD SWAP1 PUSH1 0x20 ADD DUP1 DUP4 GT PUSH2 0x1383 JUMPI DUP3 SWAP1 SUB PUSH1 0x1F AND DUP3 ADD SWAP2 JUMPDEST POP POP POP POP POP DUP2 MSTORE PUSH1 0x20 ADD PUSH1 0x1 DUP3 ADD SLOAD DUP2 MSTORE PUSH1 0x20 ADD PUSH1 0x2 DUP3 ADD PUSH1 0x0 SWAP1 SLOAD SWAP1 PUSH2 0x100 EXP SWAP1 DIV PUSH20 0xFFFFFFFFFFFFFFFFFFFFFFFFFFFFFFFFFFFFFFFF AND PUSH20 0xFFFFFFFFFFFFFFFFFFFFFFFFFFFFFFFFFFFFFFFF AND PUSH20 0xFFFFFFFFFFFFFFFFFFFFFFFFFFFFFFFFFFFFFFFF AND DUP2 MSTORE PUSH1 0x20 ADD PUSH1 0x2 DUP3 ADD PUSH1 0x14 SWAP1 SLOAD SWAP1 PUSH2 0x100 EXP SWAP1 DIV PUSH1 0xFF AND ISZERO ISZERO ISZERO ISZERO DUP2 MSTORE PUSH1 0x20 ADD PUSH1 0x2 DUP3 ADD PUSH1 0x15 SWAP1 SLOAD SWAP1 PUSH2 0x100 EXP SWAP1 DIV PUSH1 0xFF AND ISZERO ISZERO ISZERO ISZERO DUP2 MSTORE PUSH1 0x20 ADD PUSH1 0x3 DUP3 ADD SLOAD DUP2 MSTORE POP POP DUP2 MSTORE PUSH1 0x20 ADD SWAP1 PUSH1 0x1 ADD SWAP1 PUSH2 0x12F4 JUMP JUMPDEST POP POP POP POP SWAP1 POP PUSH1 0x0 JUMPDEST DUP2 MLOAD DUP2 LT ISZERO PUSH2 0x1546 JUMPI DUP2 DUP2 DUP2 MLOAD DUP2 LT PUSH2 0x147D JUMPI PUSH2 0x147C PUSH2 0x216F JUMP JUMPDEST JUMPDEST PUSH1 0x20 MUL PUSH1 0x20 ADD ADD MLOAD PUSH1 0x40 MLOAD PUSH1 0x20 ADD PUSH2 0x1495 SWAP2 SWAP1 PUSH2 0x2051 JUMP JUMPDEST PUSH1 0x40 MLOAD PUSH1 0x20 DUP2 DUP4 SUB SUB DUP2 MSTORE SWAP1 PUSH1 0x40 MSTORE DUP1 MLOAD SWAP1 PUSH1 0x20 ADD KECCAK256 PUSH1 0x0 DUP5 DUP2 SLOAD DUP2 LT PUSH2 0x14BF JUMPI PUSH2 0x14BE PUSH2 0x216F JUMP JUMPDEST JUMPDEST SWAP1 PUSH1 0x0 MSTORE PUSH1 0x20 PUSH1 0x0 KECCAK256 SWAP1 PUSH1 0x4 MUL ADD PUSH1 0x40 MLOAD PUSH1 0x20 ADD PUSH2 0x14DD SWAP2 SWAP1 PUSH2 0x28C9 JUMP JUMPDEST PUSH1 0x40 MLOAD PUSH1 0x20 DUP2 DUP4 SUB SUB DUP2 MSTORE SWAP1 PUSH1 0x40 MSTORE DUP1 MLOAD SWAP1 PUSH1 0x20 ADD KECCAK256 SUB PUSH2 0x1533 JUMPI PUSH1 0x40 MLOAD PUSH32 0x8C379A000000000000000000000000000000000000000000000000000000000 DUP2 MSTORE PUSH1 0x4 ADD PUSH2 0x152A SWAP1 PUSH2 0x295D JUMP JUMPDEST PUSH1 0x40 MLOAD DUP1 SWAP2 SUB SWAP1 REVERT JUMPDEST DUP1 DUP1 PUSH2 0x153E SWAP1 PUSH2 0x297D JUMP JUMPDEST SWAP2 POP POP PUSH2 0x1461 JUMP JUMPDEST POP PUSH1 0x1 PUSH1 0x0 DUP4 DUP2 SLOAD DUP2 LT PUSH2 0x155D JUMPI PUSH2 0x155C PUSH2 0x216F JUMP JUMPDEST JUMPDEST SWAP1 PUSH1 0x0 MSTORE PUSH1 0x20 PUSH1 0x0 KECCAK256 SWAP1 PUSH1 0x4 MUL ADD PUSH1 0x3 ADD PUSH1 0x0 DUP3 DUP3 SLOAD PUSH2 0x157D SWAP2 SWAP1 PUSH2 0x25D3 JUMP JUMPDEST SWAP3 POP POP DUP2 SWAP1 SSTORE POP PUSH1 0x5 PUSH1 0x0 CALLER PUSH20 0xFFFFFFFFFFFFFFFFFFFFFFFFFFFFFFFFFFFFFFFF AND PUSH20 0xFFFFFFFFFFFFFFFFFFFFFFFFFFFFFFFFFFFFFFFF AND DUP2 MSTORE PUSH1 0x20 ADD SWAP1 DUP2 MSTORE PUSH1 0x20 ADD PUSH1 0x0 KECCAK256 PUSH1 0x0 DUP4 DUP2 SLOAD DUP2 LT PUSH2 0x15D7 JUMPI PUSH2 0x15D6 PUSH2 0x216F JUMP JUMPDEST JUMPDEST SWAP1 PUSH1 0x0 MSTORE PUSH1 0x20 PUSH1 0x0 KECCAK256 SWAP1 PUSH1 0x4 MUL ADD SWAP1 DUP1 PUSH1 0x1 DUP2 SLOAD ADD DUP1 DUP3 SSTORE DUP1 SWAP2 POP POP PUSH1 0x1 SWAP1 SUB SWAP1 PUSH1 0x0 MSTORE PUSH1 0x20 PUSH1 0x0 KECCAK256 SWAP1 PUSH1 0x4 MUL ADD PUSH1 0x0 SWAP1 SWAP2 SWAP1 SWAP2 SWAP1 SWAP2 POP PUSH1 0x0 DUP3 ADD DUP2 PUSH1 0x0 ADD SWAP1 DUP1 SLOAD PUSH2 0x1622 SWAP1 PUSH2 0x2510 JUMP JUMPDEST PUSH2 0x162D SWAP3 SWAP2 SWAP1 PUSH2 0x17DF JUMP JUMPDEST POP PUSH1 0x1 DUP3 ADD SLOAD DUP2 PUSH1 0x1 ADD SSTORE PUSH1 0x2 DUP3 ADD PUSH1 0x0 SWAP1 SLOAD SWAP1 PUSH2 0x100 EXP SWAP1 DIV PUSH20 0xFFFFFFFFFFFFFFFFFFFFFFFFFFFFFFFFFFFFFFFF AND DUP2 PUSH1 0x2 ADD PUSH1 0x0 PUSH2 0x100 EXP DUP2 SLOAD DUP2 PUSH20 0xFFFFFFFFFFFFFFFFFFFFFFFFFFFFFFFFFFFFFFFF MUL NOT AND SWAP1 DUP4 PUSH20 0xFFFFFFFFFFFFFFFFFFFFFFFFFFFFFFFFFFFFFFFF AND MUL OR SWAP1 SSTORE POP PUSH1 0x2 DUP3 ADD PUSH1 0x14 SWAP1 SLOAD SWAP1 PUSH2 0x100 EXP SWAP1 DIV PUSH1 0xFF AND DUP2 PUSH1 0x2 ADD PUSH1 0x14 PUSH2 0x100 EXP DUP2 SLOAD DUP2 PUSH1 0xFF MUL NOT AND SWAP1 DUP4 ISZERO ISZERO MUL OR SWAP1 SSTORE POP PUSH1 0x2 DUP3 ADD PUSH1 0x15 SWAP1 SLOAD SWAP1 PUSH2 0x100 EXP SWAP1 DIV PUSH1 0xFF AND DUP2 PUSH1 0x2 ADD PUSH1 0x15 PUSH2 0x100 EXP DUP2 SLOAD DUP2 PUSH1 0xFF MUL NOT AND SWAP1 DUP4 ISZERO ISZERO MUL OR SWAP1 SSTORE POP PUSH1 0x3 DUP3 ADD SLOAD DUP2 PUSH1 0x3 ADD SSTORE POP POP POP POP JUMP JUMPDEST PUSH1 0x40 MLOAD DUP1 PUSH1 0xC0 ADD PUSH1 0x40 MSTORE DUP1 PUSH1 0x60 DUP2 MSTORE PUSH1 0x20 ADD PUSH1 0x0 DUP2 MSTORE PUSH1 0x20 ADD PUSH1 0x0 PUSH20 0xFFFFFFFFFFFFFFFFFFFFFFFFFFFFFFFFFFFFFFFF AND DUP2 MSTORE PUSH1 0x20 ADD PUSH1 0x0 ISZERO ISZERO DUP2 MSTORE PUSH1 0x20 ADD PUSH1 0x0 ISZERO ISZERO DUP2 MSTORE PUSH1 0x20 ADD PUSH1 0x0 DUP2 MSTORE POP SWAP1 JUMP JUMPDEST DUP3 DUP1 SLOAD PUSH2 0x1765 SWAP1 PUSH2 0x2510 JUMP JUMPDEST SWAP1 PUSH1 0x0 MSTORE PUSH1 0x20 PUSH1 0x0 KECCAK256 SWAP1 PUSH1 0x1F ADD PUSH1 0x20 SWAP1 DIV DUP2 ADD SWAP3 DUP3 PUSH2 0x1787 JUMPI PUSH1 0x0 DUP6 SSTORE PUSH2 0x17CE JUMP JUMPDEST DUP3 PUSH1 0x1F LT PUSH2 0x17A0 JUMPI DUP1 MLOAD PUSH1 0xFF NOT AND DUP4 DUP1 ADD OR DUP6 SSTORE PUSH2 0x17CE JUMP JUMPDEST DUP3 DUP1 ADD PUSH1 0x1 ADD DUP6 SSTORE DUP3 ISZERO PUSH2 0x17CE JUMPI SWAP2 DUP3 ADD JUMPDEST DUP3 DUP2 GT ISZERO PUSH2 0x17CD JUMPI DUP3 MLOAD DUP3 SSTORE SWAP2 PUSH1 0x20 ADD SWAP2 SWAP1 PUSH1 0x1 ADD SWAP1 PUSH2 0x17B2 JUMP JUMPDEST JUMPDEST POP SWAP1 POP PUSH2 0x17DB SWAP2 SWAP1 PUSH2 0x186C JUMP JUMPDEST POP SWAP1 JUMP JUMPDEST DUP3 DUP1 SLOAD PUSH2 0x17EB SWAP1 PUSH2 0x2510 JUMP JUMPDEST SWAP1 PUSH1 0x0 MSTORE PUSH1 0x20 PUSH1 0x0 KECCAK256 SWAP1 PUSH1 0x1F ADD PUSH1 0x20 SWAP1 DIV DUP2 ADD SWAP3 DUP3 PUSH2 0x180D JUMPI PUSH1 0x0 DUP6 SSTORE PUSH2 0x185B JUMP JUMPDEST DUP3 PUSH1 0x1F LT PUSH2 0x181E JUMPI DUP1 SLOAD DUP6 SSTORE PUSH2 0x185B JUMP JUMPDEST DUP3 DUP1 ADD PUSH1 0x1 ADD DUP6 SSTORE DUP3 ISZERO PUSH2 0x185B JUMPI PUSH1 0x0 MSTORE PUSH1 0x20 PUSH1 0x0 KECCAK256 SWAP2 PUSH1 0x1F ADD PUSH1 0x20 SWAP1 DIV DUP3 ADD JUMPDEST DUP3 DUP2 GT ISZERO PUSH2 0x185A JUMPI DUP3 SLOAD DUP3 SSTORE SWAP2 PUSH1 0x1 ADD SWAP2 SWAP1 PUSH1 0x1 ADD SWAP1 PUSH2 0x183F JUMP JUMPDEST JUMPDEST POP SWAP1 POP PUSH2 0x1868 SWAP2 SWAP1 PUSH2 0x186C JUMP JUMPDEST POP SWAP1 JUMP JUMPDEST JUMPDEST DUP1 DUP3 GT ISZERO PUSH2 0x1885 JUMPI PUSH1 0x0 DUP2 PUSH1 0x0 SWAP1 SSTORE POP PUSH1 0x1 ADD PUSH2 0x186D JUMP JUMPDEST POP SWAP1 JUMP JUMPDEST PUSH1 0x0 PUSH1 0x40 MLOAD SWAP1 POP SWAP1 JUMP JUMPDEST PUSH1 0x0 DUP1 REVERT JUMPDEST PUSH1 0x0 DUP1 REVERT JUMPDEST PUSH1 0x0 DUP2 SWAP1 POP SWAP2 SWAP1 POP JUMP JUMPDEST PUSH2 0x18B0 DUP2 PUSH2 0x189D JUMP JUMPDEST DUP2 EQ PUSH2 0x18BB JUMPI PUSH1 0x0 DUP1 REVERT JUMPDEST POP JUMP JUMPDEST PUSH1 0x0 DUP2 CALLDATALOAD SWAP1 POP PUSH2 0x18CD DUP2 PUSH2 0x18A7 JUMP JUMPDEST SWAP3 SWAP2 POP POP JUMP JUMPDEST PUSH1 0x0 PUSH1 0x20 DUP3 DUP5 SUB SLT ISZERO PUSH2 0x18E9 JUMPI PUSH2 0x18E8 PUSH2 0x1893 JUMP JUMPDEST JUMPDEST PUSH1 0x0 PUSH2 0x18F7 DUP5 DUP3 DUP6 ADD PUSH2 0x18BE JUMP JUMPDEST SWAP2 POP POP SWAP3 SWAP2 POP POP JUMP JUMPDEST PUSH1 0x0 PUSH20 0xFFFFFFFFFFFFFFFFFFFFFFFFFFFFFFFFFFFFFFFF DUP3 AND SWAP1 POP SWAP2 SWAP1 POP JUMP JUMPDEST PUSH1 0x0 PUSH2 0x192B DUP3 PUSH2 0x1900 JUMP JUMPDEST SWAP1 POP SWAP2 SWAP1 POP JUMP JUMPDEST PUSH2 0x193B DUP2 PUSH2 0x1920 JUMP JUMPDEST DUP2 EQ PUSH2 0x1946 JUMPI PUSH1 0x0 DUP1 REVERT JUMPDEST POP JUMP JUMPDEST PUSH1 0x0 DUP2 CALLDATALOAD SWAP1 POP PUSH2 0x1958 DUP2 PUSH2 0x1932 JUMP JUMPDEST SWAP3 SWAP2 POP POP JUMP JUMPDEST PUSH1 0x0 PUSH1 0x20 DUP3 DUP5 SUB SLT ISZERO PUSH2 0x1974 JUMPI PUSH2 0x1973 PUSH2 0x1893 JUMP JUMPDEST JUMPDEST PUSH1 0x0 PUSH2 0x1982 DUP5 DUP3 DUP6 ADD PUSH2 0x1949 JUMP JUMPDEST SWAP2 POP POP SWAP3 SWAP2 POP POP JUMP JUMPDEST PUSH1 0x0 DUP2 MLOAD SWAP1 POP SWAP2 SWAP1 POP JUMP JUMPDEST PUSH1 0x0 DUP3 DUP3 MSTORE PUSH1 0x20 DUP3 ADD SWAP1 POP SWAP3 SWAP2 POP POP JUMP JUMPDEST PUSH1 0x0 DUP2 SWAP1 POP PUSH1 0x20 DUP3 ADD SWAP1 POP SWAP2 SWAP1 POP JUMP JUMPDEST PUSH1 0x0 DUP2 MLOAD SWAP1 POP SWAP2 SWAP1 POP JUMP JUMPDEST PUSH1 0x0 DUP3 DUP3 MSTORE PUSH1 0x20 DUP3 ADD SWAP1 POP SWAP3 SWAP2 POP POP JUMP JUMPDEST PUSH1 0x0 JUMPDEST DUP4 DUP2 LT ISZERO PUSH2 0x19F1 JUMPI DUP1 DUP3 ADD MLOAD DUP2 DUP5 ADD MSTORE PUSH1 0x20 DUP2 ADD SWAP1 POP PUSH2 0x19D6 JUMP JUMPDEST DUP4 DUP2 GT ISZERO PUSH2 0x1A00 JUMPI PUSH1 0x0 DUP5 DUP5 ADD MSTORE JUMPDEST POP POP POP POP JUMP JUMPDEST PUSH1 0x0 PUSH1 0x1F NOT PUSH1 0x1F DUP4 ADD AND SWAP1 POP SWAP2 SWAP1 POP JUMP JUMPDEST PUSH1 0x0 PUSH2 0x1A22 DUP3 PUSH2 0x19B7 JUMP JUMPDEST PUSH2 0x1A2C DUP2 DUP6 PUSH2 0x19C2 JUMP JUMPDEST SWAP4 POP PUSH2 0x1A3C DUP2 DUP6 PUSH1 0x20 DUP7 ADD PUSH2 0x19D3 JUMP JUMPDEST PUSH2 0x1A45 DUP2 PUSH2 0x1A06 JUMP JUMPDEST DUP5 ADD SWAP2 POP POP SWAP3 SWAP2 POP POP JUMP JUMPDEST PUSH2 0x1A59 DUP2 PUSH2 0x189D JUMP JUMPDEST DUP3 MSTORE POP POP JUMP JUMPDEST PUSH2 0x1A68 DUP2 PUSH2 0x1920 JUMP JUMPDEST DUP3 MSTORE POP POP JUMP JUMPDEST PUSH1 0x0 DUP2 ISZERO ISZERO SWAP1 POP SWAP2 SWAP1 POP JUMP JUMPDEST PUSH2 0x1A83 DUP2 PUSH2 0x1A6E JUMP JUMPDEST DUP3 MSTORE POP POP JUMP JUMPDEST PUSH1 0x0 PUSH1 0xC0 DUP4 ADD PUSH1 0x0 DUP4 ADD MLOAD DUP5 DUP3 SUB PUSH1 0x0 DUP7 ADD MSTORE PUSH2 0x1AA6 DUP3 DUP3 PUSH2 0x1A17 JUMP JUMPDEST SWAP2 POP POP PUSH1 0x20 DUP4 ADD MLOAD PUSH2 0x1ABB PUSH1 0x20 DUP7 ADD DUP3 PUSH2 0x1A50 JUMP JUMPDEST POP PUSH1 0x40 DUP4 ADD MLOAD PUSH2 0x1ACE PUSH1 0x40 DUP7 ADD DUP3 PUSH2 0x1A5F JUMP JUMPDEST POP PUSH1 0x60 DUP4 ADD MLOAD PUSH2 0x1AE1 PUSH1 0x60 DUP7 ADD DUP3 PUSH2 0x1A7A JUMP JUMPDEST POP PUSH1 0x80 DUP4 ADD MLOAD PUSH2 0x1AF4 PUSH1 0x80 DUP7 ADD DUP3 PUSH2 0x1A7A JUMP JUMPDEST POP PUSH1 0xA0 DUP4 ADD MLOAD PUSH2 0x1B07 PUSH1 0xA0 DUP7 ADD DUP3 PUSH2 0x1A50 JUMP JUMPDEST POP DUP1 SWAP2 POP POP SWAP3 SWAP2 POP POP JUMP JUMPDEST PUSH1 0x0 PUSH2 0x1B1E DUP4 DUP4 PUSH2 0x1A89 JUMP JUMPDEST SWAP1 POP SWAP3 SWAP2 POP POP JUMP JUMPDEST PUSH1 0x0 PUSH1 0x20 DUP3 ADD SWAP1 POP SWAP2 SWAP1 POP JUMP JUMPDEST PUSH1 0x0 PUSH2 0x1B3E DUP3 PUSH2 0x198B JUMP JUMPDEST PUSH2 0x1B48 DUP2 DUP6 PUSH2 0x1996 JUMP JUMPDEST SWAP4 POP DUP4 PUSH1 0x20 DUP3 MUL DUP6 ADD PUSH2 0x1B5A DUP6 PUSH2 0x19A7 JUMP JUMPDEST DUP1 PUSH1 0x0 JUMPDEST DUP6 DUP2 LT ISZERO PUSH2 0x1B96 JUMPI DUP5 DUP5 SUB DUP10 MSTORE DUP2 MLOAD PUSH2 0x1B77 DUP6 DUP3 PUSH2 0x1B12 JUMP JUMPDEST SWAP5 POP PUSH2 0x1B82 DUP4 PUSH2 0x1B26 JUMP JUMPDEST SWAP3 POP PUSH1 0x20 DUP11 ADD SWAP10 POP POP PUSH1 0x1 DUP2 ADD SWAP1 POP PUSH2 0x1B5E JUMP JUMPDEST POP DUP3 SWAP8 POP DUP8 SWAP6 POP POP POP POP POP POP SWAP3 SWAP2 POP POP JUMP JUMPDEST PUSH1 0x0 PUSH1 0x20 DUP3 ADD SWAP1 POP DUP2 DUP2 SUB PUSH1 0x0 DUP4 ADD MSTORE PUSH2 0x1BC2 DUP2 DUP5 PUSH2 0x1B33 JUMP JUMPDEST SWAP1 POP SWAP3 SWAP2 POP POP JUMP JUMPDEST PUSH1 0x0 DUP2 MLOAD SWAP1 POP SWAP2 SWAP1 POP JUMP JUMPDEST PUSH1 0x0 DUP3 DUP3 MSTORE PUSH1 0x20 DUP3 ADD SWAP1 POP SWAP3 SWAP2 POP POP JUMP JUMPDEST PUSH1 0x0 DUP2 SWAP1 POP PUSH1 0x20 DUP3 ADD SWAP1 POP SWAP2 SWAP1 POP JUMP JUMPDEST PUSH1 0x0 PUSH2 0x1C01 DUP3 PUSH2 0x1900 JUMP JUMPDEST SWAP1 POP SWAP2 SWAP1 POP JUMP JUMPDEST PUSH2 0x1C11 DUP2 PUSH2 0x1BF6 JUMP JUMPDEST DUP3 MSTORE POP POP JUMP JUMPDEST PUSH1 0x0 PUSH2 0x1C23 DUP4 DUP4 PUSH2 0x1C08 JUMP JUMPDEST PUSH1 0x20 DUP4 ADD SWAP1 POP SWAP3 SWAP2 POP POP JUMP JUMPDEST PUSH1 0x0 PUSH1 0x20 DUP3 ADD SWAP1 POP SWAP2 SWAP1 POP JUMP JUMPDEST PUSH1 0x0 PUSH2 0x1C47 DUP3 PUSH2 0x1BCA JUMP JUMPDEST PUSH2 0x1C51 DUP2 DUP6 PUSH2 0x1BD5 JUMP JUMPDEST SWAP4 POP PUSH2 0x1C5C DUP4 PUSH2 0x1BE6 JUMP JUMPDEST DUP1 PUSH1 0x0 JUMPDEST DUP4 DUP2 LT ISZERO PUSH2 0x1C8D JUMPI DUP2 MLOAD PUSH2 0x1C74 DUP9 DUP3 PUSH2 0x1C17 JUMP JUMPDEST SWAP8 POP PUSH2 0x1C7F DUP4 PUSH2 0x1C2F JUMP JUMPDEST SWAP3 POP POP PUSH1 0x1 DUP2 ADD SWAP1 POP PUSH2 0x1C60 JUMP JUMPDEST POP DUP6 SWAP4 POP POP POP POP SWAP3 SWAP2 POP POP JUMP JUMPDEST PUSH1 0x0 PUSH1 0x20 DUP3 ADD SWAP1 POP DUP2 DUP2 SUB PUSH1 0x0 DUP4 ADD MSTORE PUSH2 0x1CB4 DUP2 DUP5 PUSH2 0x1C3C JUMP JUMPDEST SWAP1 POP SWAP3 SWAP2 POP POP JUMP JUMPDEST PUSH2 0x1CC5 DUP2 PUSH2 0x189D JUMP JUMPDEST DUP3 MSTORE POP POP JUMP JUMPDEST PUSH1 0x0 PUSH1 0x20 DUP3 ADD SWAP1 POP PUSH2 0x1CE0 PUSH1 0x0 DUP4 ADD DUP5 PUSH2 0x1CBC JUMP JUMPDEST SWAP3 SWAP2 POP POP JUMP JUMPDEST PUSH2 0x1CEF DUP2 PUSH2 0x1920 JUMP JUMPDEST DUP3 MSTORE POP POP JUMP JUMPDEST PUSH1 0x0 PUSH1 0xA0 DUP3 ADD SWAP1 POP PUSH2 0x1D0A PUSH1 0x0 DUP4 ADD DUP9 PUSH2 0x1CBC JUMP JUMPDEST PUSH2 0x1D17 PUSH1 0x20 DUP4 ADD DUP8 PUSH2 0x1CBC JUMP JUMPDEST PUSH2 0x1D24 PUSH1 0x40 DUP4 ADD DUP7 PUSH2 0x1CBC JUMP JUMPDEST PUSH2 0x1D31 PUSH1 0x60 DUP4 ADD DUP6 PUSH2 0x1CBC JUMP JUMPDEST PUSH2 0x1D3E PUSH1 0x80 DUP4 ADD DUP5 PUSH2 0x1CE6 JUMP JUMPDEST SWAP7 SWAP6 POP POP POP POP POP POP JUMP JUMPDEST PUSH1 0x0 PUSH1 0x20 DUP3 ADD SWAP1 POP PUSH2 0x1D5D PUSH1 0x0 DUP4 ADD DUP5 PUSH2 0x1CE6 JUMP JUMPDEST SWAP3 SWAP2 POP POP JUMP JUMPDEST PUSH1 0x0 DUP3 DUP3 MSTORE PUSH1 0x20 DUP3 ADD SWAP1 POP SWAP3 SWAP2 POP POP JUMP JUMPDEST PUSH1 0x0 PUSH2 0x1D7F DUP3 PUSH2 0x19B7 JUMP JUMPDEST PUSH2 0x1D89 DUP2 DUP6 PUSH2 0x1D63 JUMP JUMPDEST SWAP4 POP PUSH2 0x1D99 DUP2 DUP6 PUSH1 0x20 DUP7 ADD PUSH2 0x19D3 JUMP JUMPDEST PUSH2 0x1DA2 DUP2 PUSH2 0x1A06 JUMP JUMPDEST DUP5 ADD SWAP2 POP POP SWAP3 SWAP2 POP POP JUMP JUMPDEST PUSH2 0x1DB6 DUP2 PUSH2 0x1A6E JUMP JUMPDEST DUP3 MSTORE POP POP JUMP JUMPDEST PUSH1 0x0 PUSH1 0xC0 DUP3 ADD SWAP1 POP DUP2 DUP2 SUB PUSH1 0x0 DUP4 ADD MSTORE PUSH2 0x1DD6 DUP2 DUP10 PUSH2 0x1D74 JUMP JUMPDEST SWAP1 POP PUSH2 0x1DE5 PUSH1 0x20 DUP4 ADD DUP9 PUSH2 0x1CBC JUMP JUMPDEST PUSH2 0x1DF2 PUSH1 0x40 DUP4 ADD DUP8 PUSH2 0x1CE6 JUMP JUMPDEST PUSH2 0x1DFF PUSH1 0x60 DUP4 ADD DUP7 PUSH2 0x1DAD JUMP JUMPDEST PUSH2 0x1E0C PUSH1 0x80 DUP4 ADD DUP6 PUSH2 0x1DAD JUMP JUMPDEST PUSH2 0x1E19 PUSH1 0xA0 DUP4 ADD DUP5 PUSH2 0x1CBC JUMP JUMPDEST SWAP8 SWAP7 POP POP POP POP POP POP POP JUMP JUMPDEST PUSH1 0x0 DUP1 REVERT JUMPDEST PUSH1 0x0 DUP1 REVERT JUMPDEST PUSH32 0x4E487B7100000000000000000000000000000000000000000000000000000000 PUSH1 0x0 MSTORE PUSH1 0x41 PUSH1 0x4 MSTORE PUSH1 0x24 PUSH1 0x0 REVERT JUMPDEST PUSH2 0x1E66 DUP3 PUSH2 0x1A06 JUMP JUMPDEST DUP2 ADD DUP2 DUP2 LT PUSH8 0xFFFFFFFFFFFFFFFF DUP3 GT OR ISZERO PUSH2 0x1E85 JUMPI PUSH2 0x1E84 PUSH2 0x1E2E JUMP JUMPDEST JUMPDEST DUP1 PUSH1 0x40 MSTORE POP POP POP JUMP JUMPDEST PUSH1 0x0 PUSH2 0x1E98 PUSH2 0x1889 JUMP JUMPDEST SWAP1 POP PUSH2 0x1EA4 DUP3 DUP3 PUSH2 0x1E5D JUMP JUMPDEST SWAP2 SWAP1 POP JUMP JUMPDEST PUSH1 0x0 PUSH8 0xFFFFFFFFFFFFFFFF DUP3 GT ISZERO PUSH2 0x1EC4 JUMPI PUSH2 0x1EC3 PUSH2 0x1E2E JUMP JUMPDEST JUMPDEST PUSH2 0x1ECD DUP3 PUSH2 0x1A06 JUMP JUMPDEST SWAP1 POP PUSH1 0x20 DUP2 ADD SWAP1 POP SWAP2 SWAP1 POP JUMP JUMPDEST DUP3 DUP2 DUP4 CALLDATACOPY PUSH1 0x0 DUP4 DUP4 ADD MSTORE POP POP POP JUMP JUMPDEST PUSH1 0x0 PUSH2 0x1EFC PUSH2 0x1EF7 DUP5 PUSH2 0x1EA9 JUMP JUMPDEST PUSH2 0x1E8E JUMP JUMPDEST SWAP1 POP DUP3 DUP2 MSTORE PUSH1 0x20 DUP2 ADD DUP5 DUP5 DUP5 ADD GT ISZERO PUSH2 0x1F18 JUMPI PUSH2 0x1F17 PUSH2 0x1E29 JUMP JUMPDEST JUMPDEST PUSH2 0x1F23 DUP5 DUP3 DUP6 PUSH2 0x1EDA JUMP JUMPDEST POP SWAP4 SWAP3 POP POP POP JUMP JUMPDEST PUSH1 0x0 DUP3 PUSH1 0x1F DUP4 ADD SLT PUSH2 0x1F40 JUMPI PUSH2 0x1F3F PUSH2 0x1E24 JUMP JUMPDEST JUMPDEST DUP2 CALLDATALOAD PUSH2 0x1F50 DUP5 DUP3 PUSH1 0x20 DUP7 ADD PUSH2 0x1EE9 JUMP JUMPDEST SWAP2 POP POP SWAP3 SWAP2 POP POP JUMP JUMPDEST PUSH1 0x0 DUP1 PUSH1 0x0 PUSH1 0x60 DUP5 DUP7 SUB SLT ISZERO PUSH2 0x1F72 JUMPI PUSH2 0x1F71 PUSH2 0x1893 JUMP JUMPDEST JUMPDEST PUSH1 0x0 DUP5 ADD CALLDATALOAD PUSH8 0xFFFFFFFFFFFFFFFF DUP2 GT ISZERO PUSH2 0x1F90 JUMPI PUSH2 0x1F8F PUSH2 0x1898 JUMP JUMPDEST JUMPDEST PUSH2 0x1F9C DUP7 DUP3 DUP8 ADD PUSH2 0x1F2B JUMP JUMPDEST SWAP4 POP POP PUSH1 0x20 PUSH2 0x1FAD DUP7 DUP3 DUP8 ADD PUSH2 0x18BE JUMP JUMPDEST SWAP3 POP POP PUSH1 0x40 PUSH2 0x1FBE DUP7 DUP3 DUP8 ADD PUSH2 0x1949 JUMP JUMPDEST SWAP2 POP POP SWAP3 POP SWAP3 POP SWAP3 JUMP JUMPDEST PUSH1 0x0 PUSH1 0xC0 DUP4 ADD PUSH1 0x0 DUP4 ADD MLOAD DUP5 DUP3 SUB PUSH1 0x0 DUP7 ADD MSTORE PUSH2 0x1FE5 DUP3 DUP3 PUSH2 0x1A17 JUMP JUMPDEST SWAP2 POP POP PUSH1 0x20 DUP4 ADD MLOAD PUSH2 0x1FFA PUSH1 0x20 DUP7 ADD DUP3 PUSH2 0x1A50 JUMP JUMPDEST POP PUSH1 0x40 DUP4 ADD MLOAD PUSH2 0x200D PUSH1 0x40 DUP7 ADD DUP3 PUSH2 0x1A5F JUMP JUMPDEST POP PUSH1 0x60 DUP4 ADD MLOAD PUSH2 0x2020 PUSH1 0x60 DUP7 ADD DUP3 PUSH2 0x1A7A JUMP JUMPDEST POP PUSH1 0x80 DUP4 ADD MLOAD PUSH2 0x2033 PUSH1 0x80 DUP7 ADD DUP3 PUSH2 0x1A7A JUMP JUMPDEST POP PUSH1 0xA0 DUP4 ADD MLOAD PUSH2 0x2046 PUSH1 0xA0 DUP7 ADD DUP3 PUSH2 0x1A50 JUMP JUMPDEST POP DUP1 SWAP2 POP POP SWAP3 SWAP2 POP POP JUMP JUMPDEST PUSH1 0x0 PUSH1 0x20 DUP3 ADD SWAP1 POP DUP2 DUP2 SUB PUSH1 0x0 DUP4 ADD MSTORE PUSH2 0x206B DUP2 DUP5 PUSH2 0x1FC8 JUMP JUMPDEST SWAP1 POP SWAP3 SWAP2 POP POP JUMP JUMPDEST PUSH2 0x207C DUP2 PUSH2 0x1BF6 JUMP JUMPDEST DUP3 MSTORE POP POP JUMP JUMPDEST PUSH1 0x0 PUSH1 0x20 DUP3 ADD SWAP1 POP PUSH2 0x2097 PUSH1 0x0 DUP4 ADD DUP5 PUSH2 0x2073 JUMP JUMPDEST SWAP3 SWAP2 POP POP JUMP JUMPDEST PUSH1 0x0 DUP1 PUSH1 0x40 DUP4 DUP6 SUB SLT ISZERO PUSH2 0x20B4 JUMPI PUSH2 0x20B3 PUSH2 0x1893 JUMP JUMPDEST JUMPDEST PUSH1 0x0 PUSH2 0x20C2 DUP6 DUP3 DUP7 ADD PUSH2 0x1949 JUMP JUMPDEST SWAP3 POP POP PUSH1 0x20 PUSH2 0x20D3 DUP6 DUP3 DUP7 ADD PUSH2 0x18BE JUMP JUMPDEST SWAP2 POP POP SWAP3 POP SWAP3 SWAP1 POP JUMP JUMPDEST PUSH32 0x546869732066756E6374696F6E2063616E206F6E6C792062652063616C6C6564 PUSH1 0x0 DUP3 ADD MSTORE PUSH32 0x20627920746865206D616E616765720000000000000000000000000000000000 PUSH1 0x20 DUP3 ADD MSTORE POP JUMP JUMPDEST PUSH1 0x0 PUSH2 0x2139 PUSH1 0x2F DUP4 PUSH2 0x1D63 JUMP JUMPDEST SWAP2 POP PUSH2 0x2144 DUP3 PUSH2 0x20DD JUMP JUMPDEST PUSH1 0x40 DUP3 ADD SWAP1 POP SWAP2 SWAP1 POP JUMP JUMPDEST PUSH1 0x0 PUSH1 0x20 DUP3 ADD SWAP1 POP DUP2 DUP2 SUB PUSH1 0x0 DUP4 ADD MSTORE PUSH2 0x2168 DUP2 PUSH2 0x212C JUMP JUMPDEST SWAP1 POP SWAP2 SWAP1 POP JUMP JUMPDEST PUSH32 0x4E487B7100000000000000000000000000000000000000000000000000000000 PUSH1 0x0 MSTORE PUSH1 0x32 PUSH1 0x4 MSTORE PUSH1 0x24 PUSH1 0x0 REVERT JUMPDEST PUSH32 0x4E487B7100000000000000000000000000000000000000000000000000000000 PUSH1 0x0 MSTORE PUSH1 0x12 PUSH1 0x4 MSTORE PUSH1 0x24 PUSH1 0x0 REVERT JUMPDEST PUSH32 0x4E487B7100000000000000000000000000000000000000000000000000000000 PUSH1 0x0 MSTORE PUSH1 0x11 PUSH1 0x4 MSTORE PUSH1 0x24 PUSH1 0x0 REVERT JUMPDEST PUSH1 0x0 PUSH2 0x2207 DUP3 PUSH2 0x189D JUMP JUMPDEST SWAP2 POP PUSH2 0x2212 DUP4 PUSH2 0x189D JUMP JUMPDEST SWAP3 POP DUP3 PUSH2 0x2222 JUMPI PUSH2 0x2221 PUSH2 0x219E JUMP JUMPDEST JUMPDEST DUP3 DUP3 DIV SWAP1 POP SWAP3 SWAP2 POP POP JUMP JUMPDEST PUSH32 0x546865726520617265206E6F7420656E6F75676820706F736974697665732076 PUSH1 0x0 DUP3 ADD MSTORE PUSH32 0x6F74657300000000000000000000000000000000000000000000000000000000 PUSH1 0x20 DUP3 ADD MSTORE POP JUMP JUMPDEST PUSH1 0x0 PUSH2 0x2289 PUSH1 0x24 DUP4 PUSH2 0x1D63 JUMP JUMPDEST SWAP2 POP PUSH2 0x2294 DUP3 PUSH2 0x222D JUMP JUMPDEST PUSH1 0x40 DUP3 ADD SWAP1 POP SWAP2 SWAP1 POP JUMP JUMPDEST PUSH1 0x0 PUSH1 0x20 DUP3 ADD SWAP1 POP DUP2 DUP2 SUB PUSH1 0x0 DUP4 ADD MSTORE PUSH2 0x22B8 DUP2 PUSH2 0x227C JUMP JUMPDEST SWAP1 POP SWAP2 SWAP1 POP JUMP JUMPDEST PUSH32 0x5468697320726571756573742068617320616C7265616479206265656E20636F PUSH1 0x0 DUP3 ADD MSTORE PUSH32 0x6D706C6574656400000000000000000000000000000000000000000000000000 PUSH1 0x20 DUP3 ADD MSTORE POP JUMP JUMPDEST PUSH1 0x0 PUSH2 0x231B PUSH1 0x27 DUP4 PUSH2 0x1D63 JUMP JUMPDEST SWAP2 POP PUSH2 0x2326 DUP3 PUSH2 0x22BF JUMP JUMPDEST PUSH1 0x40 DUP3 ADD SWAP1 POP SWAP2 SWAP1 POP JUMP JUMPDEST PUSH1 0x0 PUSH1 0x20 DUP3 ADD SWAP1 POP DUP2 DUP2 SUB PUSH1 0x0 DUP4 ADD MSTORE PUSH2 0x234A DUP2 PUSH2 0x230E JUMP JUMPDEST SWAP1 POP SWAP2 SWAP1 POP JUMP JUMPDEST PUSH32 0x54686973207265717565737420686173206265656E2063616E63656C65640000 PUSH1 0x0 DUP3 ADD MSTORE POP JUMP JUMPDEST PUSH1 0x0 PUSH2 0x2387 PUSH1 0x1E DUP4 PUSH2 0x1D63 JUMP JUMPDEST SWAP2 POP PUSH2 0x2392 DUP3 PUSH2 0x2351 JUMP JUMPDEST PUSH1 0x20 DUP3 ADD SWAP1 POP SWAP2 SWAP1 POP JUMP JUMPDEST PUSH1 0x0 PUSH1 0x20 DUP3 ADD SWAP1 POP DUP2 DUP2 SUB PUSH1 0x0 DUP4 ADD MSTORE PUSH2 0x23B6 DUP2 PUSH2 0x237A JUMP JUMPDEST SWAP1 POP SWAP2 SWAP1 POP JUMP JUMPDEST PUSH32 0x5468652063616D706169676E20646F6573206E6F74206861766520656E6F7567 PUSH1 0x0 DUP3 ADD MSTORE PUSH32 0x682066756E647300000000000000000000000000000000000000000000000000 PUSH1 0x20 DUP3 ADD MSTORE POP JUMP JUMPDEST PUSH1 0x0 PUSH2 0x2419 PUSH1 0x27 DUP4 PUSH2 0x1D63 JUMP JUMPDEST SWAP2 POP PUSH2 0x2424 DUP3 PUSH2 0x23BD JUMP JUMPDEST PUSH1 0x40 DUP3 ADD SWAP1 POP SWAP2 SWAP1 POP JUMP JUMPDEST PUSH1 0x0 PUSH1 0x20 DUP3 ADD SWAP1 POP DUP2 DUP2 SUB PUSH1 0x0 DUP4 ADD MSTORE PUSH2 0x2448 DUP2 PUSH2 0x240C JUMP JUMPDEST SWAP1 POP SWAP2 SWAP1 POP JUMP JUMPDEST PUSH32 0x54686520676976656E2061646472657373206973206E6F742061206261636B65 PUSH1 0x0 DUP3 ADD MSTORE PUSH32 0x7200000000000000000000000000000000000000000000000000000000000000 PUSH1 0x20 DUP3 ADD MSTORE POP JUMP JUMPDEST PUSH1 0x0 PUSH2 0x24AB PUSH1 0x21 DUP4 PUSH2 0x1D63 JUMP JUMPDEST SWAP2 POP PUSH2 0x24B6 DUP3 PUSH2 0x244F JUMP JUMPDEST PUSH1 0x40 DUP3 ADD SWAP1 POP SWAP2 SWAP1 POP JUMP JUMPDEST PUSH1 0x0 PUSH1 0x20 DUP3 ADD SWAP1 POP DUP2 DUP2 SUB PUSH1 0x0 DUP4 ADD MSTORE PUSH2 0x24DA DUP2 PUSH2 0x249E JUMP JUMPDEST SWAP1 POP SWAP2 SWAP1 POP JUMP JUMPDEST PUSH32 0x4E487B7100000000000000000000000000000000000000000000000000000000 PUSH1 0x0 MSTORE PUSH1 0x22 PUSH1 0x4 MSTORE PUSH1 0x24 PUSH1 0x0 REVERT JUMPDEST PUSH1 0x0 PUSH1 0x2 DUP3 DIV SWAP1 POP PUSH1 0x1 DUP3 AND DUP1 PUSH2 0x2528 JUMPI PUSH1 0x7F DUP3 AND SWAP2 POP JUMPDEST PUSH1 0x20 DUP3 LT DUP2 SUB PUSH2 0x253B JUMPI PUSH2 0x253A PUSH2 0x24E1 JUMP JUMPDEST JUMPDEST POP SWAP2 SWAP1 POP JUMP JUMPDEST PUSH32 0x596F75206E65656420746F2073656E64206174206C6561737420746865206D69 PUSH1 0x0 DUP3 ADD MSTORE PUSH32 0x6E696D756D20636F6E747269627574696F6E0000000000000000000000000000 PUSH1 0x20 DUP3 ADD MSTORE POP JUMP JUMPDEST PUSH1 0x0 PUSH2 0x259D PUSH1 0x32 DUP4 PUSH2 0x1D63 JUMP JUMPDEST SWAP2 POP PUSH2 0x25A8 DUP3 PUSH2 0x2541 JUMP JUMPDEST PUSH1 0x40 DUP3 ADD SWAP1 POP SWAP2 SWAP1 POP JUMP JUMPDEST PUSH1 0x0 PUSH1 0x20 DUP3 ADD SWAP1 POP DUP2 DUP2 SUB PUSH1 0x0 DUP4 ADD MSTORE PUSH2 0x25CC DUP2 PUSH2 0x2590 JUMP JUMPDEST SWAP1 POP SWAP2 SWAP1 POP JUMP JUMPDEST PUSH1 0x0 PUSH2 0x25DE DUP3 PUSH2 0x189D JUMP JUMPDEST SWAP2 POP PUSH2 0x25E9 DUP4 PUSH2 0x189D JUMP JUMPDEST SWAP3 POP DUP3 PUSH32 0xFFFFFFFFFFFFFFFFFFFFFFFFFFFFFFFFFFFFFFFFFFFFFFFFFFFFFFFFFFFFFFFF SUB DUP3 GT ISZERO PUSH2 0x261E JUMPI PUSH2 0x261D PUSH2 0x21CD JUMP JUMPDEST JUMPDEST DUP3 DUP3 ADD SWAP1 POP SWAP3 SWAP2 POP POP JUMP JUMPDEST PUSH32 0x546869732066756E6374696F6E2063616E206F6E6C792062652063616C6C6564 PUSH1 0x0 DUP3 ADD MSTORE PUSH32 0x2062792061206261636B65720000000000000000000000000000000000000000 PUSH1 0x20 DUP3 ADD MSTORE POP JUMP JUMPDEST PUSH1 0x0 PUSH2 0x2685 PUSH1 0x2C DUP4 PUSH2 0x1D63 JUMP JUMPDEST SWAP2 POP PUSH2 0x2690 DUP3 PUSH2 0x2629 JUMP JUMPDEST PUSH1 0x40 DUP3 ADD SWAP1 POP SWAP2 SWAP1 POP JUMP JUMPDEST PUSH1 0x0 PUSH1 0x20 DUP3 ADD SWAP1 POP DUP2 DUP2 SUB PUSH1 0x0 DUP4 ADD MSTORE PUSH2 0x26B4 DUP2 PUSH2 0x2678 JUMP JUMPDEST SWAP1 POP SWAP2 SWAP1 POP JUMP JUMPDEST PUSH1 0x0 DUP2 SWAP1 POP DUP2 PUSH1 0x0 MSTORE PUSH1 0x20 PUSH1 0x0 KECCAK256 SWAP1 POP SWAP2 SWAP1 POP JUMP JUMPDEST PUSH1 0x0 DUP2 SLOAD PUSH2 0x26DD DUP2 PUSH2 0x2510 JUMP JUMPDEST PUSH2 0x26E7 DUP2 DUP7 PUSH2 0x19C2 JUMP JUMPDEST SWAP5 POP PUSH1 0x1 DUP3 AND PUSH1 0x0 DUP2 EQ PUSH2 0x2702 JUMPI PUSH1 0x1 DUP2 EQ PUSH2 0x2714 JUMPI PUSH2 0x2747 JUMP JUMPDEST PUSH1 0xFF NOT DUP4 AND DUP7 MSTORE PUSH1 0x20 DUP7 ADD SWAP4 POP PUSH2 0x2747 JUMP JUMPDEST PUSH2 0x271D DUP6 PUSH2 0x26BB JUMP JUMPDEST PUSH1 0x0 JUMPDEST DUP4 DUP2 LT ISZERO PUSH2 0x273F JUMPI DUP2 SLOAD DUP2 DUP10 ADD MSTORE PUSH1 0x1 DUP3 ADD SWAP2 POP PUSH1 0x20 DUP2 ADD SWAP1 POP PUSH2 0x2720 JUMP JUMPDEST DUP1 DUP9 ADD SWAP6 POP POP POP JUMPDEST POP POP POP SWAP3 SWAP2 POP POP JUMP JUMPDEST PUSH1 0x0 DUP2 PUSH1 0x0 SHR SWAP1 POP SWAP2 SWAP1 POP JUMP JUMPDEST PUSH1 0x0 DUP2 SWAP1 POP SWAP2 SWAP1 POP JUMP JUMPDEST PUSH1 0x0 PUSH2 0x277A PUSH2 0x2775 DUP4 PUSH2 0x2750 JUMP JUMPDEST PUSH2 0x275D JUMP JUMPDEST SWAP1 POP SWAP2 SWAP1 POP JUMP JUMPDEST PUSH1 0x0 PUSH20 0xFFFFFFFFFFFFFFFFFFFFFFFFFFFFFFFFFFFFFFFF DUP3 AND SWAP1 POP SWAP2 SWAP1 POP JUMP JUMPDEST PUSH1 0x0 PUSH2 0x27B4 PUSH2 0x27AF DUP4 PUSH2 0x2750 JUMP JUMPDEST PUSH2 0x2781 JUMP JUMPDEST SWAP1 POP SWAP2 SWAP1 POP JUMP JUMPDEST PUSH1 0x0 DUP2 PUSH1 0xA0 SHR SWAP1 POP SWAP2 SWAP1 POP JUMP JUMPDEST PUSH1 0x0 PUSH1 0xFF DUP3 AND SWAP1 POP SWAP2 SWAP1 POP JUMP JUMPDEST PUSH1 0x0 PUSH2 0x27E8 PUSH2 0x27E3 DUP4 PUSH2 0x27BB JUMP JUMPDEST PUSH2 0x27C8 JUMP JUMPDEST SWAP1 POP SWAP2 SWAP1 POP JUMP JUMPDEST PUSH1 0x0 DUP2 PUSH1 0xA8 SHR SWAP1 POP SWAP2 SWAP1 POP JUMP JUMPDEST PUSH1 0x0 PUSH2 0x280F PUSH2 0x280A DUP4 PUSH2 0x27EF JUMP JUMPDEST PUSH2 0x27C8 JUMP JUMPDEST SWAP1 POP SWAP2 SWAP1 POP JUMP JUMPDEST PUSH1 0x0 PUSH1 0xC0 DUP4 ADD PUSH1 0x0 DUP1 DUP5 ADD DUP6 DUP4 SUB PUSH1 0x0 DUP8 ADD MSTORE PUSH2 0x2833 DUP4 DUP3 PUSH2 0x26D0 JUMP JUMPDEST SWAP3 POP POP PUSH1 0x1 DUP5 ADD SLOAD SWAP1 POP PUSH2 0x2846 DUP2 PUSH2 0x2767 JUMP JUMPDEST PUSH2 0x2853 PUSH1 0x20 DUP8 ADD DUP3 PUSH2 0x1A50 JUMP JUMPDEST POP PUSH1 0x2 DUP5 ADD SLOAD SWAP1 POP PUSH2 0x2864 DUP2 PUSH2 0x27A1 JUMP JUMPDEST PUSH2 0x2871 PUSH1 0x40 DUP8 ADD DUP3 PUSH2 0x1A5F JUMP JUMPDEST POP PUSH2 0x287B DUP2 PUSH2 0x27D5 JUMP JUMPDEST PUSH2 0x2888 PUSH1 0x60 DUP8 ADD DUP3 PUSH2 0x1A7A JUMP JUMPDEST POP PUSH2 0x2892 DUP2 PUSH2 0x27FC JUMP JUMPDEST PUSH2 0x289F PUSH1 0x80 DUP8 ADD DUP3 PUSH2 0x1A7A JUMP JUMPDEST POP PUSH1 0x3 DUP5 ADD SLOAD SWAP1 POP PUSH2 0x28B0 DUP2 PUSH2 0x2767 JUMP JUMPDEST PUSH2 0x28BD PUSH1 0xA0 DUP8 ADD DUP3 PUSH2 0x1A50 JUMP JUMPDEST POP DUP2 SWAP3 POP POP POP SWAP3 SWAP2 POP POP JUMP JUMPDEST PUSH1 0x0 PUSH1 0x20 DUP3 ADD SWAP1 POP DUP2 DUP2 SUB PUSH1 0x0 DUP4 ADD MSTORE PUSH2 0x28E3 DUP2 DUP5 PUSH2 0x2816 JUMP JUMPDEST SWAP1 POP SWAP3 SWAP2 POP POP JUMP JUMPDEST PUSH32 0x596F75206861766520616C7265616479206261636B6564207468697320726571 PUSH1 0x0 DUP3 ADD MSTORE PUSH32 0x7565737400000000000000000000000000000000000000000000000000000000 PUSH1 0x20 DUP3 ADD MSTORE POP JUMP JUMPDEST PUSH1 0x0 PUSH2 0x2947 PUSH1 0x24 DUP4 PUSH2 0x1D63 JUMP JUMPDEST SWAP2 POP PUSH2 0x2952 DUP3 PUSH2 0x28EB JUMP JUMPDEST PUSH1 0x40 DUP3 ADD SWAP1 POP SWAP2 SWAP1 POP JUMP JUMPDEST PUSH1 0x0 PUSH1 0x20 DUP3 ADD SWAP1 POP DUP2 DUP2 SUB PUSH1 0x0 DUP4 ADD MSTORE PUSH2 0x2976 DUP2 PUSH2 0x293A JUMP JUMPDEST SWAP1 POP SWAP2 SWAP1 POP JUMP JUMPDEST PUSH1 0x0 PUSH2 0x2988 DUP3 PUSH2 0x189D JUMP JUMPDEST SWAP2 POP PUSH32 0xFFFFFFFFFFFFFFFFFFFFFFFFFFFFFFFFFFFFFFFFFFFFFFFFFFFFFFFFFFFFFFFF DUP3 SUB PUSH2 0x29BA JUMPI PUSH2 0x29B9 PUSH2 0x21CD JUMP JUMPDEST JUMPDEST PUSH1 0x1 DUP3 ADD SWAP1 POP SWAP2 SWAP1 POP JUMP INVALID LOG2 PUSH5 0x6970667358 0x22 SLT KECCAK256 INVALID SWAP13 EXTCODESIZE 0xBF 0x4E 0x2D PUSH15 0x1EFC77CD659B3DB692FA1200E1F365 0xA7 0xF8 XOR EQ 0x21 0xDE 0xB8 MULMOD 0xDF 0x4A PUSH5 0x736F6C6343 STOP ADDMOD 0xD STOP CALLER "},"gasEstimates":{"creation":{"codeDepositCost":"2149400","executionCost":"infinite","totalCost":"infinite"},"external":{"approveRequest(uint256)":"infinite","back()":"infinite","backers(address)":"2858","backersArr(uint256)":"4978","createRequest(string,uint256,address)":"infinite","finalizeRequest(uint256)":"infinite","getBackerApprovedRequests(address)":"infinite","getBackers()":"infinite","getRequestCount()":"2468","getRequests()":"infinite","getSummary()":"infinite","manager()":"2581","requestBackerRelations(address,uint256)":"infinite","requests(uint256)":"infinite","returnBalance()":"2713"}},"methodIdentifiers":{"approveRequest(uint256)":"d7d1bbdb","back()":"8dde0840","backers(address)":"b85dfb80","backersArr(uint256)":"9213aa33","createRequest(string,uint256,address)":"8a9cfd55","finalizeRequest(uint256)":"03441006","getBackerApprovedRequests(address)":"18513993","getBackers()":"30f3e3da","getRequestCount()":"3fad1834","getRequests()":"8813ce12","getSummary()":"4051ddac","manager()":"481c6a75","requestBackerRelations(address,uint256)":"b8f4ba03","requests(uint256)":"81d12c58","returnBalance()":"900551a8"}},"storageLayout":{"storage":[{"astId":65,"contract":"output:campaign","label":"requests","offset":0,"slot":"0","type":"t_array(t_struct(Request)61_storage)dyn_storage"},{"astId":67,"contract":"output:campaign","label":"manager","offset":0,"slot":"1","type":"t_address"},{"astId":70,"contract":"output:campaign","label":"backersArr","offset":0,"slot":"2","type":"t_array(t_address_payable)dyn_storage"},{"astId":72,"contract":"output:campaign","label":"minimumContribution","offset":0,"slot":"3","type":"t_uint256"},{"astId":76,"contract":"output:campaign","label":"backers","offset":0,"slot":"4","type":"t_mapping(t_address,t_uint256)"},{"astId":82,"contract":"output:campaign","label":"requestBackerRelations","offset":0,"slot":"5","type":"t_mapping(t_address,t_array(t_struct(Request)61_storage)dyn_storage)"}],"types":{"t_address":{"encoding":"inplace","label":"address","numberOfBytes":"20"},"t_address_payable":{"encoding":"inplace","label":"address payable","numberOfBytes":"20"},"t_array(t_address_payable)dyn_storage":{"base":"t_address_payable","encoding":"dynamic_array","label":"address payable[]","numberOfBytes":"32"},"t_array(t_struct(Request)61_storage)dyn_storage":{"base":"t_struct(Request)61_storage","encoding":"dynamic_array","label":"struct campaign.Request[]","numberOfBytes":"32"},"t_bool":{"encoding":"inplace","label":"bool","numberOfBytes":"1"},"t_mapping(t_address,t_array(t_struct(Request)61_storage)dyn_storage)":{"encoding":"mapping","key":"t_address","label":"mapping(address => struct campaign.Request[])","numberOfBytes":"32","value":"t_array(t_struct(Request)61_storage)dyn_storage"},"t_mapping(t_address,t_uint256)":{"encoding":"mapping","key":"t_address","label":"mapping(address => uint256)","numberOfBytes":"32","value":"t_uint256"},"t_string_storage":{"encoding":"bytes","label":"string","numberOfBytes":"32"},"t_struct(Request)61_storage":{"encoding":"inplace","label":"struct campaign.Request","members":[{"astId":50,"contract":"output:campaign","label":"description","offset":0,"slot":"0","type":"t_string_storage"},{"astId":52,"contract":"output:campaign","label":"value","offset":0,"slot":"1","type":"t_uint256"},{"astId":54,"contract":"output:campaign","label":"recipient","offset":0,"slot":"2","type":"t_address"},{"astId":56,"contract":"output:campaign","label":"isCompleted","offset":20,"slot":"2","type":"t_bool"},{"astId":58,"contract":"output:campaign","label":"isCanceled","offset":21,"slot":"2","type":"t_bool"},{"astId":60,"contract":"output:campaign","label":"approvers","offset":0,"slot":"3","type":"t_uint256"}],"numberOfBytes":"128"},"t_uint256":{"encoding":"inplace","label":"uint256","numberOfBytes":"32"}}},"userdoc":{"kind":"user","methods":{},"version":1}}