{"abi":[{"inputs":[{"internalType":"uint256","name":"minContribution","type":"uint256"},{"internalType":"address","name":"newManager","type":"address"}],"stateMutability":"nonpayable","type":"constructor"},{"inputs":[{"internalType":"uint256","name":"index","type":"uint256"}],"name":"approveRequest","outputs":[],"stateMutability":"nonpayable","type":"function"},{"inputs":[],"name":"back","outputs":[],"stateMutability":"payable","type":"function"},{"inputs":[{"internalType":"address","name":"","type":"address"}],"name":"backers","outputs":[{"internalType":"uint256","name":"","type":"uint256"}],"stateMutability":"view","type":"function"},{"inputs":[{"internalType":"uint256","name":"","type":"uint256"}],"name":"backersArr","outputs":[{"internalType":"address payable","name":"","type":"address"}],"stateMutability":"view","type":"function"},{"inputs":[{"internalType":"string","name":"description","type":"string"},{"internalType":"uint256","name":"value","type":"uint256"},{"internalType":"address","name":"recipient","type":"address"}],"name":"createRequest","outputs":[],"stateMutability":"nonpayable","type":"function"},{"inputs":[{"internalType":"address","name":"backerAddress","type":"address"}],"name":"getBackerApprovedRequests","outputs":[{"components":[{"internalType":"string","name":"description","type":"string"},{"internalType":"uint256","name":"value","type":"uint256"},{"internalType":"address","name":"recipient","type":"address"},{"internalType":"bool","name":"isCompleted","type":"bool"},{"internalType":"bool","name":"isCanceled","type":"bool"},{"internalType":"uint256","name":"approvers","type":"uint256"}],"internalType":"struct campaign.Request[]","name":"","type":"tuple[]"}],"stateMutability":"view","type":"function"},{"inputs":[],"name":"getBackers","outputs":[{"internalType":"address payable[]","name":"","type":"address[]"}],"stateMutability":"view","type":"function"},{"inputs":[],"name":"getRequests","outputs":[{"components":[{"internalType":"string","name":"description","type":"string"},{"internalType":"uint256","name":"value","type":"uint256"},{"internalType":"address","name":"recipient","type":"address"},{"internalType":"bool","name":"isCompleted","type":"bool"},{"internalType":"bool","name":"isCanceled","type":"bool"},{"internalType":"uint256","name":"approvers","type":"uint256"}],"internalType":"struct campaign.Request[]","name":"","type":"tuple[]"}],"stateMutability":"view","type":"function"},{"inputs":[],"name":"manager","outputs":[{"internalType":"address","name":"","type":"address"}],"stateMutability":"view","type":"function"},{"inputs":[{"internalType":"address","name":"","type":"address"},{"internalType":"uint256","name":"","type":"uint256"}],"name":"requestBackerRelations","outputs":[{"internalType":"string","name":"description","type":"string"},{"internalType":"uint256","name":"value","type":"uint256"},{"internalType":"address","name":"recipient","type":"address"},{"internalType":"bool","name":"isCompleted","type":"bool"},{"internalType":"bool","name":"isCanceled","type":"bool"},{"internalType":"uint256","name":"approvers","type":"uint256"}],"stateMutability":"view","type":"function"},{"inputs":[{"internalType":"uint256","name":"","type":"uint256"}],"name":"requests","outputs":[{"internalType":"string","name":"description","type":"string"},{"internalType":"uint256","name":"value","type":"uint256"},{"internalType":"address","name":"recipient","type":"address"},{"internalType":"bool","name":"isCompleted","type":"bool"},{"internalType":"bool","name":"isCanceled","type":"bool"},{"internalType":"uint256","name":"approvers","type":"uint256"}],"stateMutability":"view","type":"function"},{"inputs":[],"name":"returnBalance","outputs":[{"internalType":"uint256","name":"","type":"uint256"}],"stateMutability":"view","type":"function"}],"devdoc":{"kind":"dev","methods":{},"version":1},"evm":{"assembly":"    /* \"output\":576:4715  contract campaign {... */\n  mstore(0x40, 0x80)\n    /* \"output\":2260:2399  constructor (uint minContribution, address newManager) {... */\n  callvalue\n  dup1\n  iszero\n  tag_1\n  jumpi\n  0x00\n  dup1\n  revert\ntag_1:\n  pop\n  mload(0x40)\n  sub(codesize, bytecodeSize)\n  dup1\n  bytecodeSize\n  dup4\n  codecopy\n  dup2\n  dup2\n  add\n  0x40\n  mstore\n  dup2\n  add\n  swap1\n  tag_2\n  swap2\n  swap1\n  tag_3\n  jump\t// in\ntag_2:\n    /* \"output\":2335:2345  newManager */\n  dup1\n    /* \"output\":2325:2332  manager */\n  0x01\n  0x00\n    /* \"output\":2325:2345  manager = newManager */\n  0x0100\n  exp\n  dup2\n  sload\n  dup2\n  0xffffffffffffffffffffffffffffffffffffffff\n  mul\n  not\n  and\n  swap1\n  dup4\n  0xffffffffffffffffffffffffffffffffffffffff\n  and\n  mul\n  or\n  swap1\n  sstore\n  pop\n    /* \"output\":2377:2392  minContribution */\n  dup2\n    /* \"output\":2355:2374  minimumContribution */\n  0x03\n    /* \"output\":2355:2392  minimumContribution = minContribution */\n  dup2\n  swap1\n  sstore\n  pop\n    /* \"output\":2260:2399  constructor (uint minContribution, address newManager) {... */\n  pop\n  pop\n    /* \"output\":576:4715  contract campaign {... */\n  jump(tag_6)\n    /* \"#utility.yul\":88:205   */\ntag_8:\n    /* \"#utility.yul\":197:198   */\n  0x00\n    /* \"#utility.yul\":194:195   */\n  dup1\n    /* \"#utility.yul\":187:199   */\n  revert\n    /* \"#utility.yul\":334:411   */\ntag_10:\n    /* \"#utility.yul\":371:378   */\n  0x00\n    /* \"#utility.yul\":400:405   */\n  dup2\n    /* \"#utility.yul\":389:405   */\n  swap1\n  pop\n    /* \"#utility.yul\":334:411   */\n  swap2\n  swap1\n  pop\n  jump\t// out\n    /* \"#utility.yul\":417:539   */\ntag_11:\n    /* \"#utility.yul\":490:514   */\n  tag_23\n    /* \"#utility.yul\":508:513   */\n  dup2\n    /* \"#utility.yul\":490:514   */\n  tag_10\n  jump\t// in\ntag_23:\n    /* \"#utility.yul\":483:488   */\n  dup2\n    /* \"#utility.yul\":480:515   */\n  eq\n    /* \"#utility.yul\":470:533   */\n  tag_24\n  jumpi\n    /* \"#utility.yul\":529:530   */\n  0x00\n    /* \"#utility.yul\":526:527   */\n  dup1\n    /* \"#utility.yul\":519:531   */\n  revert\n    /* \"#utility.yul\":470:533   */\ntag_24:\n    /* \"#utility.yul\":417:539   */\n  pop\n  jump\t// out\n    /* \"#utility.yul\":545:688   */\ntag_12:\n    /* \"#utility.yul\":602:607   */\n  0x00\n    /* \"#utility.yul\":633:639   */\n  dup2\n    /* \"#utility.yul\":627:640   */\n  mload\n    /* \"#utility.yul\":618:640   */\n  swap1\n  pop\n    /* \"#utility.yul\":649:682   */\n  tag_26\n    /* \"#utility.yul\":676:681   */\n  dup2\n    /* \"#utility.yul\":649:682   */\n  tag_11\n  jump\t// in\ntag_26:\n    /* \"#utility.yul\":545:688   */\n  swap3\n  swap2\n  pop\n  pop\n  jump\t// out\n    /* \"#utility.yul\":694:820   */\ntag_13:\n    /* \"#utility.yul\":731:738   */\n  0x00\n    /* \"#utility.yul\":771:813   */\n  0xffffffffffffffffffffffffffffffffffffffff\n    /* \"#utility.yul\":764:769   */\n  dup3\n    /* \"#utility.yul\":760:814   */\n  and\n    /* \"#utility.yul\":749:814   */\n  swap1\n  pop\n    /* \"#utility.yul\":694:820   */\n  swap2\n  swap1\n  pop\n  jump\t// out\n    /* \"#utility.yul\":826:922   */\ntag_14:\n    /* \"#utility.yul\":863:870   */\n  0x00\n    /* \"#utility.yul\":892:916   */\n  tag_29\n    /* \"#utility.yul\":910:915   */\n  dup3\n    /* \"#utility.yul\":892:916   */\n  tag_13\n  jump\t// in\ntag_29:\n    /* \"#utility.yul\":881:916   */\n  swap1\n  pop\n    /* \"#utility.yul\":826:922   */\n  swap2\n  swap1\n  pop\n  jump\t// out\n    /* \"#utility.yul\":928:1050   */\ntag_15:\n    /* \"#utility.yul\":1001:1025   */\n  tag_31\n    /* \"#utility.yul\":1019:1024   */\n  dup2\n    /* \"#utility.yul\":1001:1025   */\n  tag_14\n  jump\t// in\ntag_31:\n    /* \"#utility.yul\":994:999   */\n  dup2\n    /* \"#utility.yul\":991:1026   */\n  eq\n    /* \"#utility.yul\":981:1044   */\n  tag_32\n  jumpi\n    /* \"#utility.yul\":1040:1041   */\n  0x00\n    /* \"#utility.yul\":1037:1038   */\n  dup1\n    /* \"#utility.yul\":1030:1042   */\n  revert\n    /* \"#utility.yul\":981:1044   */\ntag_32:\n    /* \"#utility.yul\":928:1050   */\n  pop\n  jump\t// out\n    /* \"#utility.yul\":1056:1199   */\ntag_16:\n    /* \"#utility.yul\":1113:1118   */\n  0x00\n    /* \"#utility.yul\":1144:1150   */\n  dup2\n    /* \"#utility.yul\":1138:1151   */\n  mload\n    /* \"#utility.yul\":1129:1151   */\n  swap1\n  pop\n    /* \"#utility.yul\":1160:1193   */\n  tag_34\n    /* \"#utility.yul\":1187:1192   */\n  dup2\n    /* \"#utility.yul\":1160:1193   */\n  tag_15\n  jump\t// in\ntag_34:\n    /* \"#utility.yul\":1056:1199   */\n  swap3\n  swap2\n  pop\n  pop\n  jump\t// out\n    /* \"#utility.yul\":1205:1712   */\ntag_3:\n    /* \"#utility.yul\":1284:1290   */\n  0x00\n    /* \"#utility.yul\":1292:1298   */\n  dup1\n    /* \"#utility.yul\":1341:1343   */\n  0x40\n    /* \"#utility.yul\":1329:1338   */\n  dup4\n    /* \"#utility.yul\":1320:1327   */\n  dup6\n    /* \"#utility.yul\":1316:1339   */\n  sub\n    /* \"#utility.yul\":1312:1344   */\n  slt\n    /* \"#utility.yul\":1309:1428   */\n  iszero\n  tag_36\n  jumpi\n    /* \"#utility.yul\":1347:1426   */\n  tag_37\n  tag_8\n  jump\t// in\ntag_37:\n    /* \"#utility.yul\":1309:1428   */\ntag_36:\n    /* \"#utility.yul\":1467:1468   */\n  0x00\n    /* \"#utility.yul\":1492:1556   */\n  tag_38\n    /* \"#utility.yul\":1548:1555   */\n  dup6\n    /* \"#utility.yul\":1539:1545   */\n  dup3\n    /* \"#utility.yul\":1528:1537   */\n  dup7\n    /* \"#utility.yul\":1524:1546   */\n  add\n    /* \"#utility.yul\":1492:1556   */\n  tag_12\n  jump\t// in\ntag_38:\n    /* \"#utility.yul\":1482:1556   */\n  swap3\n  pop\n    /* \"#utility.yul\":1438:1566   */\n  pop\n    /* \"#utility.yul\":1605:1607   */\n  0x20\n    /* \"#utility.yul\":1631:1695   */\n  tag_39\n    /* \"#utility.yul\":1687:1694   */\n  dup6\n    /* \"#utility.yul\":1678:1684   */\n  dup3\n    /* \"#utility.yul\":1667:1676   */\n  dup7\n    /* \"#utility.yul\":1663:1685   */\n  add\n    /* \"#utility.yul\":1631:1695   */\n  tag_16\n  jump\t// in\ntag_39:\n    /* \"#utility.yul\":1621:1695   */\n  swap2\n  pop\n    /* \"#utility.yul\":1576:1705   */\n  pop\n    /* \"#utility.yul\":1205:1712   */\n  swap3\n  pop\n  swap3\n  swap1\n  pop\n  jump\t// out\n    /* \"output\":576:4715  contract campaign {... */\ntag_6:\n  dataSize(sub_0)\n  dup1\n  dataOffset(sub_0)\n  0x00\n  codecopy\n  0x00\n  return\nstop\n\nsub_0: assembly {\n        /* \"output\":576:4715  contract campaign {... */\n      mstore(0x40, 0x80)\n      jumpi(tag_1, lt(calldatasize, 0x04))\n      shr(0xe0, calldataload(0x00))\n      dup1\n      0x8dde0840\n      gt\n      tag_14\n      jumpi\n      dup1\n      0x8dde0840\n      eq\n      tag_8\n      jumpi\n      dup1\n      0x900551a8\n      eq\n      tag_9\n      jumpi\n      dup1\n      0x9213aa33\n      eq\n      tag_10\n      jumpi\n      dup1\n      0xb85dfb80\n      eq\n      tag_11\n      jumpi\n      dup1\n      0xb8f4ba03\n      eq\n      tag_12\n      jumpi\n      dup1\n      0xd7d1bbdb\n      eq\n      tag_13\n      jumpi\n      jump(tag_1)\n    tag_14:\n      dup1\n      0x18513993\n      eq\n      tag_2\n      jumpi\n      dup1\n      0x30f3e3da\n      eq\n      tag_3\n      jumpi\n      dup1\n      0x481c6a75\n      eq\n      tag_4\n      jumpi\n      dup1\n      0x81d12c58\n      eq\n      tag_5\n      jumpi\n      dup1\n      0x8813ce12\n      eq\n      tag_6\n      jumpi\n      dup1\n      0x8a9cfd55\n      eq\n      tag_7\n      jumpi\n    tag_1:\n      0x00\n      dup1\n      revert\n        /* \"output\":4440:4713  function getBackerApprovedRequests(address backerAddress) public view managerOnly returns (Request [] memory) {... */\n    tag_2:\n      callvalue\n      dup1\n      iszero\n      tag_15\n      jumpi\n      0x00\n      dup1\n      revert\n    tag_15:\n      pop\n      tag_16\n      0x04\n      dup1\n      calldatasize\n      sub\n      dup2\n      add\n      swap1\n      tag_17\n      swap2\n      swap1\n      tag_18\n      jump\t// in\n    tag_17:\n      tag_19\n      jump\t// in\n    tag_16:\n      mload(0x40)\n      tag_20\n      swap2\n      swap1\n      tag_21\n      jump\t// in\n    tag_20:\n      mload(0x40)\n      dup1\n      swap2\n      sub\n      swap1\n      return\n        /* \"output\":3353:3457  function getBackers() public view returns (address payable [] memory) {... */\n    tag_3:\n      callvalue\n      dup1\n      iszero\n      tag_22\n      jumpi\n      0x00\n      dup1\n      revert\n    tag_22:\n      pop\n      tag_23\n      tag_24\n      jump\t// in\n    tag_23:\n      mload(0x40)\n      tag_25\n      swap2\n      swap1\n      tag_26\n      jump\t// in\n    tag_25:\n      mload(0x40)\n      dup1\n      swap2\n      sub\n      swap1\n      return\n        /* \"output\":1086:1108  address public manager */\n    tag_4:\n      callvalue\n      dup1\n      iszero\n      tag_27\n      jumpi\n      0x00\n      dup1\n      revert\n    tag_27:\n      pop\n      tag_28\n      tag_29\n      jump\t// in\n    tag_28:\n      mload(0x40)\n      tag_30\n      swap2\n      swap1\n      tag_31\n      jump\t// in\n    tag_30:\n      mload(0x40)\n      dup1\n      swap2\n      sub\n      swap1\n      return\n        /* \"output\":1054:1080  Request [] public requests */\n    tag_5:\n      callvalue\n      dup1\n      iszero\n      tag_32\n      jumpi\n      0x00\n      dup1\n      revert\n    tag_32:\n      pop\n      tag_33\n      0x04\n      dup1\n      calldatasize\n      sub\n      dup2\n      add\n      swap1\n      tag_34\n      swap2\n      swap1\n      tag_35\n      jump\t// in\n    tag_34:\n      tag_36\n      jump\t// in\n    tag_33:\n      mload(0x40)\n      tag_37\n      swap7\n      swap6\n      swap5\n      swap4\n      swap3\n      swap2\n      swap1\n      tag_38\n      jump\t// in\n    tag_37:\n      mload(0x40)\n      dup1\n      swap2\n      sub\n      swap1\n      return\n        /* \"output\":3499:3594  function getRequests() public view returns (Request [] memory) {... */\n    tag_6:\n      callvalue\n      dup1\n      iszero\n      tag_39\n      jumpi\n      0x00\n      dup1\n      revert\n    tag_39:\n      pop\n      tag_40\n      tag_41\n      jump\t// in\n    tag_40:\n      mload(0x40)\n      tag_42\n      swap2\n      swap1\n      tag_21\n      jump\t// in\n    tag_42:\n      mload(0x40)\n      dup1\n      swap2\n      sub\n      swap1\n      return\n        /* \"output\":2405:2793  function createRequest(string memory description, uint value, address recipient) public managerOnly {... */\n    tag_7:\n      callvalue\n      dup1\n      iszero\n      tag_43\n      jumpi\n      0x00\n      dup1\n      revert\n    tag_43:\n      pop\n      tag_44\n      0x04\n      dup1\n      calldatasize\n      sub\n      dup2\n      add\n      swap1\n      tag_45\n      swap2\n      swap1\n      tag_46\n      jump\t// in\n    tag_45:\n      tag_47\n      jump\t// in\n    tag_44:\n      stop\n        /* \"output\":2840:3162  function back() public payable {... */\n    tag_8:\n      tag_48\n      tag_49\n      jump\t// in\n    tag_48:\n      stop\n        /* \"output\":3203:3312  function returnBalance() public managerOnly view returns (uint) {... */\n    tag_9:\n      callvalue\n      dup1\n      iszero\n      tag_50\n      jumpi\n      0x00\n      dup1\n      revert\n    tag_50:\n      pop\n      tag_51\n      tag_52\n      jump\t// in\n    tag_51:\n      mload(0x40)\n      tag_53\n      swap2\n      swap1\n      tag_54\n      jump\t// in\n    tag_53:\n      mload(0x40)\n      dup1\n      swap2\n      sub\n      swap1\n      return\n        /* \"output\":1114:1150  address payable [] public backersArr */\n    tag_10:\n      callvalue\n      dup1\n      iszero\n      tag_55\n      jumpi\n      0x00\n      dup1\n      revert\n    tag_55:\n      pop\n      tag_56\n      0x04\n      dup1\n      calldatasize\n      sub\n      dup2\n      add\n      swap1\n      tag_57\n      swap2\n      swap1\n      tag_35\n      jump\t// in\n    tag_57:\n      tag_58\n      jump\t// in\n    tag_56:\n      mload(0x40)\n      tag_59\n      swap2\n      swap1\n      tag_60\n      jump\t// in\n    tag_59:\n      mload(0x40)\n      dup1\n      swap2\n      sub\n      swap1\n      return\n        /* \"output\":1366:1406  mapping (address => uint) public backers */\n    tag_11:\n      callvalue\n      dup1\n      iszero\n      tag_61\n      jumpi\n      0x00\n      dup1\n      revert\n    tag_61:\n      pop\n      tag_62\n      0x04\n      dup1\n      calldatasize\n      sub\n      dup2\n      add\n      swap1\n      tag_63\n      swap2\n      swap1\n      tag_18\n      jump\t// in\n    tag_63:\n      tag_64\n      jump\t// in\n    tag_62:\n      mload(0x40)\n      tag_65\n      swap2\n      swap1\n      tag_54\n      jump\t// in\n    tag_65:\n      mload(0x40)\n      dup1\n      swap2\n      sub\n      swap1\n      return\n        /* \"output\":1493:1554  mapping (address => Request []) public requestBackerRelations */\n    tag_12:\n      callvalue\n      dup1\n      iszero\n      tag_66\n      jumpi\n      0x00\n      dup1\n      revert\n    tag_66:\n      pop\n      tag_67\n      0x04\n      dup1\n      calldatasize\n      sub\n      dup2\n      add\n      swap1\n      tag_68\n      swap2\n      swap1\n      tag_69\n      jump\t// in\n    tag_68:\n      tag_70\n      jump\t// in\n    tag_67:\n      mload(0x40)\n      tag_71\n      swap7\n      swap6\n      swap5\n      swap4\n      swap3\n      swap2\n      swap1\n      tag_38\n      jump\t// in\n    tag_71:\n      mload(0x40)\n      dup1\n      swap2\n      sub\n      swap1\n      return\n        /* \"output\":3665:4355  function approveRequest(uint index) public backerOnly {... */\n    tag_13:\n      callvalue\n      dup1\n      iszero\n      tag_72\n      jumpi\n      0x00\n      dup1\n      revert\n    tag_72:\n      pop\n      tag_73\n      0x04\n      dup1\n      calldatasize\n      sub\n      dup2\n      add\n      swap1\n      tag_74\n      swap2\n      swap1\n      tag_35\n      jump\t// in\n    tag_74:\n      tag_75\n      jump\t// in\n    tag_73:\n      stop\n        /* \"output\":4440:4713  function getBackerApprovedRequests(address backerAddress) public view managerOnly returns (Request [] memory) {... */\n    tag_19:\n        /* \"output\":4531:4548  Request [] memory */\n      0x60\n        /* \"output\":1711:1718  manager */\n      0x01\n      0x00\n      swap1\n      sload\n      swap1\n      0x0100\n      exp\n      swap1\n      div\n      0xffffffffffffffffffffffffffffffffffffffff\n      and\n        /* \"output\":1697:1718  msg.sender == manager */\n      0xffffffffffffffffffffffffffffffffffffffff\n      and\n        /* \"output\":1697:1707  msg.sender */\n      caller\n        /* \"output\":1697:1718  msg.sender == manager */\n      0xffffffffffffffffffffffffffffffffffffffff\n      and\n      eq\n        /* \"output\":1689:1770  require(msg.sender == manager, \"This function can only be called by the manager\") */\n      tag_77\n      jumpi\n      mload(0x40)\n      0x08c379a000000000000000000000000000000000000000000000000000000000\n      dup2\n      mstore\n      0x04\n      add\n      tag_78\n      swap1\n      tag_79\n      jump\t// in\n    tag_78:\n      mload(0x40)\n      dup1\n      swap2\n      sub\n      swap1\n      revert\n    tag_77:\n        /* \"output\":4594:4613  minimumContribution */\n      sload(0x03)\n        /* \"output\":4568:4575  backers */\n      0x04\n        /* \"output\":4568:4590  backers[backerAddress] */\n      0x00\n        /* \"output\":4576:4589  backerAddress */\n      dup5\n        /* \"output\":4568:4590  backers[backerAddress] */\n      0xffffffffffffffffffffffffffffffffffffffff\n      and\n      0xffffffffffffffffffffffffffffffffffffffff\n      and\n      dup2\n      mstore\n      0x20\n      add\n      swap1\n      dup2\n      mstore\n      0x20\n      add\n      0x00\n      keccak256\n      sload\n        /* \"output\":4568:4613  backers[backerAddress] >= minimumContribution */\n      lt\n      iszero\n        /* \"output\":4560:4651  require(backers[backerAddress] >= minimumContribution, \"The given address is not a backer\") */\n      tag_81\n      jumpi\n      mload(0x40)\n      0x08c379a000000000000000000000000000000000000000000000000000000000\n      dup2\n      mstore\n      0x04\n      add\n      tag_82\n      swap1\n      tag_83\n      jump\t// in\n    tag_82:\n      mload(0x40)\n      dup1\n      swap2\n      sub\n      swap1\n      revert\n    tag_81:\n        /* \"output\":4669:4691  requestBackerRelations */\n      0x05\n        /* \"output\":4669:4706  requestBackerRelations[backerAddress] */\n      0x00\n        /* \"output\":4692:4705  backerAddress */\n      dup4\n        /* \"output\":4669:4706  requestBackerRelations[backerAddress] */\n      0xffffffffffffffffffffffffffffffffffffffff\n      and\n      0xffffffffffffffffffffffffffffffffffffffff\n      and\n      dup2\n      mstore\n      0x20\n      add\n      swap1\n      dup2\n      mstore\n      0x20\n      add\n      0x00\n      keccak256\n        /* \"output\":4662:4706  return requestBackerRelations[backerAddress] */\n      dup1\n      sload\n      dup1\n      0x20\n      mul\n      0x20\n      add\n      mload(0x40)\n      swap1\n      dup2\n      add\n      0x40\n      mstore\n      dup1\n      swap3\n      swap2\n      swap1\n      dup2\n      dup2\n      mstore\n      0x20\n      add\n      0x00\n      swap1\n    tag_84:\n      dup3\n      dup3\n      lt\n      iszero\n      tag_85\n      jumpi\n      dup4\n      dup3\n      swap1\n      0x00\n      mstore\n      keccak256(0x00, 0x20)\n      swap1\n      0x04\n      mul\n      add\n      mload(0x40)\n      dup1\n      0xc0\n      add\n      0x40\n      mstore\n      swap1\n      dup2\n      0x00\n      dup3\n      add\n      dup1\n      sload\n      tag_87\n      swap1\n      tag_88\n      jump\t// in\n    tag_87:\n      dup1\n      0x1f\n      add\n      0x20\n      dup1\n      swap2\n      div\n      mul\n      0x20\n      add\n      mload(0x40)\n      swap1\n      dup2\n      add\n      0x40\n      mstore\n      dup1\n      swap3\n      swap2\n      swap1\n      dup2\n      dup2\n      mstore\n      0x20\n      add\n      dup3\n      dup1\n      sload\n      tag_89\n      swap1\n      tag_88\n      jump\t// in\n    tag_89:\n      dup1\n      iszero\n      tag_90\n      jumpi\n      dup1\n      0x1f\n      lt\n      tag_91\n      jumpi\n      0x0100\n      dup1\n      dup4\n      sload\n      div\n      mul\n      dup4\n      mstore\n      swap2\n      0x20\n      add\n      swap2\n      jump(tag_90)\n    tag_91:\n      dup3\n      add\n      swap2\n      swap1\n      0x00\n      mstore\n      keccak256(0x00, 0x20)\n      swap1\n    tag_92:\n      dup2\n      sload\n      dup2\n      mstore\n      swap1\n      0x01\n      add\n      swap1\n      0x20\n      add\n      dup1\n      dup4\n      gt\n      tag_92\n      jumpi\n      dup3\n      swap1\n      sub\n      0x1f\n      and\n      dup3\n      add\n      swap2\n    tag_90:\n      pop\n      pop\n      pop\n      pop\n      pop\n      dup2\n      mstore\n      0x20\n      add\n      0x01\n      dup3\n      add\n      sload\n      dup2\n      mstore\n      0x20\n      add\n      0x02\n      dup3\n      add\n      0x00\n      swap1\n      sload\n      swap1\n      0x0100\n      exp\n      swap1\n      div\n      0xffffffffffffffffffffffffffffffffffffffff\n      and\n      0xffffffffffffffffffffffffffffffffffffffff\n      and\n      0xffffffffffffffffffffffffffffffffffffffff\n      and\n      dup2\n      mstore\n      0x20\n      add\n      0x02\n      dup3\n      add\n      0x14\n      swap1\n      sload\n      swap1\n      0x0100\n      exp\n      swap1\n      div\n      0xff\n      and\n      iszero\n      iszero\n      iszero\n      iszero\n      dup2\n      mstore\n      0x20\n      add\n      0x02\n      dup3\n      add\n      0x15\n      swap1\n      sload\n      swap1\n      0x0100\n      exp\n      swap1\n      div\n      0xff\n      and\n      iszero\n      iszero\n      iszero\n      iszero\n      dup2\n      mstore\n      0x20\n      add\n      0x03\n      dup3\n      add\n      sload\n      dup2\n      mstore\n      pop\n      pop\n      dup2\n      mstore\n      0x20\n      add\n      swap1\n      0x01\n      add\n      swap1\n      jump(tag_84)\n    tag_85:\n      pop\n      pop\n      pop\n      pop\n      swap1\n      pop\n        /* \"output\":4440:4713  function getBackerApprovedRequests(address backerAddress) public view managerOnly returns (Request [] memory) {... */\n      swap2\n      swap1\n      pop\n      jump\t// out\n        /* \"output\":3353:3457  function getBackers() public view returns (address payable [] memory) {... */\n    tag_24:\n        /* \"output\":3396:3421  address payable [] memory */\n      0x60\n        /* \"output\":3440:3450  backersArr */\n      0x02\n        /* \"output\":3433:3450  return backersArr */\n      dup1\n      sload\n      dup1\n      0x20\n      mul\n      0x20\n      add\n      mload(0x40)\n      swap1\n      dup2\n      add\n      0x40\n      mstore\n      dup1\n      swap3\n      swap2\n      swap1\n      dup2\n      dup2\n      mstore\n      0x20\n      add\n      dup3\n      dup1\n      sload\n      dup1\n      iszero\n      tag_94\n      jumpi\n      0x20\n      mul\n      dup3\n      add\n      swap2\n      swap1\n      0x00\n      mstore\n      keccak256(0x00, 0x20)\n      swap1\n    tag_95:\n      dup2\n      0x00\n      swap1\n      sload\n      swap1\n      0x0100\n      exp\n      swap1\n      div\n      0xffffffffffffffffffffffffffffffffffffffff\n      and\n      0xffffffffffffffffffffffffffffffffffffffff\n      and\n      dup2\n      mstore\n      0x20\n      add\n      swap1\n      0x01\n      add\n      swap1\n      dup1\n      dup4\n      gt\n      tag_95\n      jumpi\n    tag_94:\n      pop\n      pop\n      pop\n      pop\n      pop\n      swap1\n      pop\n        /* \"output\":3353:3457  function getBackers() public view returns (address payable [] memory) {... */\n      swap1\n      jump\t// out\n        /* \"output\":1086:1108  address public manager */\n    tag_29:\n      0x01\n      0x00\n      swap1\n      sload\n      swap1\n      0x0100\n      exp\n      swap1\n      div\n      0xffffffffffffffffffffffffffffffffffffffff\n      and\n      dup2\n      jump\t// out\n        /* \"output\":1054:1080  Request [] public requests */\n    tag_36:\n      0x00\n      dup2\n      dup2\n      sload\n      dup2\n      lt\n      tag_96\n      jumpi\n      0x00\n      dup1\n      revert\n    tag_96:\n      swap1\n      0x00\n      mstore\n      keccak256(0x00, 0x20)\n      swap1\n      0x04\n      mul\n      add\n      0x00\n      swap2\n      pop\n      swap1\n      pop\n      dup1\n      0x00\n      add\n      dup1\n      sload\n      tag_98\n      swap1\n      tag_88\n      jump\t// in\n    tag_98:\n      dup1\n      0x1f\n      add\n      0x20\n      dup1\n      swap2\n      div\n      mul\n      0x20\n      add\n      mload(0x40)\n      swap1\n      dup2\n      add\n      0x40\n      mstore\n      dup1\n      swap3\n      swap2\n      swap1\n      dup2\n      dup2\n      mstore\n      0x20\n      add\n      dup3\n      dup1\n      sload\n      tag_99\n      swap1\n      tag_88\n      jump\t// in\n    tag_99:\n      dup1\n      iszero\n      tag_100\n      jumpi\n      dup1\n      0x1f\n      lt\n      tag_101\n      jumpi\n      0x0100\n      dup1\n      dup4\n      sload\n      div\n      mul\n      dup4\n      mstore\n      swap2\n      0x20\n      add\n      swap2\n      jump(tag_100)\n    tag_101:\n      dup3\n      add\n      swap2\n      swap1\n      0x00\n      mstore\n      keccak256(0x00, 0x20)\n      swap1\n    tag_102:\n      dup2\n      sload\n      dup2\n      mstore\n      swap1\n      0x01\n      add\n      swap1\n      0x20\n      add\n      dup1\n      dup4\n      gt\n      tag_102\n      jumpi\n      dup3\n      swap1\n      sub\n      0x1f\n      and\n      dup3\n      add\n      swap2\n    tag_100:\n      pop\n      pop\n      pop\n      pop\n      pop\n      swap1\n      dup1\n      0x01\n      add\n      sload\n      swap1\n      dup1\n      0x02\n      add\n      0x00\n      swap1\n      sload\n      swap1\n      0x0100\n      exp\n      swap1\n      div\n      0xffffffffffffffffffffffffffffffffffffffff\n      and\n      swap1\n      dup1\n      0x02\n      add\n      0x14\n      swap1\n      sload\n      swap1\n      0x0100\n      exp\n      swap1\n      div\n      0xff\n      and\n      swap1\n      dup1\n      0x02\n      add\n      0x15\n      swap1\n      sload\n      swap1\n      0x0100\n      exp\n      swap1\n      div\n      0xff\n      and\n      swap1\n      dup1\n      0x03\n      add\n      sload\n      swap1\n      pop\n      dup7\n      jump\t// out\n        /* \"output\":3499:3594  function getRequests() public view returns (Request [] memory) {... */\n    tag_41:\n        /* \"output\":3543:3560  Request [] memory */\n      0x60\n        /* \"output\":3579:3587  requests */\n      0x00\n        /* \"output\":3572:3587  return requests */\n      dup1\n      sload\n      dup1\n      0x20\n      mul\n      0x20\n      add\n      mload(0x40)\n      swap1\n      dup2\n      add\n      0x40\n      mstore\n      dup1\n      swap3\n      swap2\n      swap1\n      dup2\n      dup2\n      mstore\n      0x20\n      add\n      0x00\n      swap1\n    tag_104:\n      dup3\n      dup3\n      lt\n      iszero\n      tag_105\n      jumpi\n      dup4\n      dup3\n      swap1\n      0x00\n      mstore\n      keccak256(0x00, 0x20)\n      swap1\n      0x04\n      mul\n      add\n      mload(0x40)\n      dup1\n      0xc0\n      add\n      0x40\n      mstore\n      swap1\n      dup2\n      0x00\n      dup3\n      add\n      dup1\n      sload\n      tag_107\n      swap1\n      tag_88\n      jump\t// in\n    tag_107:\n      dup1\n      0x1f\n      add\n      0x20\n      dup1\n      swap2\n      div\n      mul\n      0x20\n      add\n      mload(0x40)\n      swap1\n      dup2\n      add\n      0x40\n      mstore\n      dup1\n      swap3\n      swap2\n      swap1\n      dup2\n      dup2\n      mstore\n      0x20\n      add\n      dup3\n      dup1\n      sload\n      tag_108\n      swap1\n      tag_88\n      jump\t// in\n    tag_108:\n      dup1\n      iszero\n      tag_109\n      jumpi\n      dup1\n      0x1f\n      lt\n      tag_110\n      jumpi\n      0x0100\n      dup1\n      dup4\n      sload\n      div\n      mul\n      dup4\n      mstore\n      swap2\n      0x20\n      add\n      swap2\n      jump(tag_109)\n    tag_110:\n      dup3\n      add\n      swap2\n      swap1\n      0x00\n      mstore\n      keccak256(0x00, 0x20)\n      swap1\n    tag_111:\n      dup2\n      sload\n      dup2\n      mstore\n      swap1\n      0x01\n      add\n      swap1\n      0x20\n      add\n      dup1\n      dup4\n      gt\n      tag_111\n      jumpi\n      dup3\n      swap1\n      sub\n      0x1f\n      and\n      dup3\n      add\n      swap2\n    tag_109:\n      pop\n      pop\n      pop\n      pop\n      pop\n      dup2\n      mstore\n      0x20\n      add\n      0x01\n      dup3\n      add\n      sload\n      dup2\n      mstore\n      0x20\n      add\n      0x02\n      dup3\n      add\n      0x00\n      swap1\n      sload\n      swap1\n      0x0100\n      exp\n      swap1\n      div\n      0xffffffffffffffffffffffffffffffffffffffff\n      and\n      0xffffffffffffffffffffffffffffffffffffffff\n      and\n      0xffffffffffffffffffffffffffffffffffffffff\n      and\n      dup2\n      mstore\n      0x20\n      add\n      0x02\n      dup3\n      add\n      0x14\n      swap1\n      sload\n      swap1\n      0x0100\n      exp\n      swap1\n      div\n      0xff\n      and\n      iszero\n      iszero\n      iszero\n      iszero\n      dup2\n      mstore\n      0x20\n      add\n      0x02\n      dup3\n      add\n      0x15\n      swap1\n      sload\n      swap1\n      0x0100\n      exp\n      swap1\n      div\n      0xff\n      and\n      iszero\n      iszero\n      iszero\n      iszero\n      dup2\n      mstore\n      0x20\n      add\n      0x03\n      dup3\n      add\n      sload\n      dup2\n      mstore\n      pop\n      pop\n      dup2\n      mstore\n      0x20\n      add\n      swap1\n      0x01\n      add\n      swap1\n      jump(tag_104)\n    tag_105:\n      pop\n      pop\n      pop\n      pop\n      swap1\n      pop\n        /* \"output\":3499:3594  function getRequests() public view returns (Request [] memory) {... */\n      swap1\n      jump\t// out\n        /* \"output\":2405:2793  function createRequest(string memory description, uint value, address recipient) public managerOnly {... */\n    tag_47:\n        /* \"output\":1711:1718  manager */\n      0x01\n      0x00\n      swap1\n      sload\n      swap1\n      0x0100\n      exp\n      swap1\n      div\n      0xffffffffffffffffffffffffffffffffffffffff\n      and\n        /* \"output\":1697:1718  msg.sender == manager */\n      0xffffffffffffffffffffffffffffffffffffffff\n      and\n        /* \"output\":1697:1707  msg.sender */\n      caller\n        /* \"output\":1697:1718  msg.sender == manager */\n      0xffffffffffffffffffffffffffffffffffffffff\n      and\n      eq\n        /* \"output\":1689:1770  require(msg.sender == manager, \"This function can only be called by the manager\") */\n      tag_113\n      jumpi\n      mload(0x40)\n      0x08c379a000000000000000000000000000000000000000000000000000000000\n      dup2\n      mstore\n      0x04\n      add\n      tag_114\n      swap1\n      tag_79\n      jump\t// in\n    tag_114:\n      mload(0x40)\n      dup1\n      swap2\n      sub\n      swap1\n      revert\n    tag_113:\n        /* \"output\":2515:2540  Request memory newRequest */\n      0x00\n        /* \"output\":2543:2750  Request({... */\n      mload(0x40)\n      dup1\n      0xc0\n      add\n      0x40\n      mstore\n      dup1\n        /* \"output\":2578:2589  description */\n      dup6\n        /* \"output\":2543:2750  Request({... */\n      dup2\n      mstore\n      0x20\n      add\n        /* \"output\":2610:2615  value */\n      dup5\n        /* \"output\":2543:2750  Request({... */\n      dup2\n      mstore\n      0x20\n      add\n        /* \"output\":2640:2649  recipient */\n      dup4\n        /* \"output\":2543:2750  Request({... */\n      0xffffffffffffffffffffffffffffffffffffffff\n      and\n      dup2\n      mstore\n      0x20\n      add\n        /* \"output\":2677:2682  false */\n      0x00\n        /* \"output\":2543:2750  Request({... */\n      iszero\n      iszero\n      dup2\n      mstore\n      0x20\n      add\n        /* \"output\":2708:2713  false */\n      0x00\n        /* \"output\":2543:2750  Request({... */\n      iszero\n      iszero\n      dup2\n      mstore\n      0x20\n      add\n        /* \"output\":2738:2739  0 */\n      0x00\n        /* \"output\":2543:2750  Request({... */\n      dup2\n      mstore\n      pop\n        /* \"output\":2515:2750  Request memory newRequest = Request({... */\n      swap1\n      pop\n        /* \"output\":2761:2769  requests */\n      0x00\n        /* \"output\":2775:2785  newRequest */\n      dup2\n        /* \"output\":2761:2786  requests.push(newRequest) */\n      swap1\n      dup1\n      0x01\n      dup2\n      sload\n      add\n      dup1\n      dup3\n      sstore\n      dup1\n      swap2\n      pop\n      pop\n      0x01\n      swap1\n      sub\n      swap1\n      0x00\n      mstore\n      keccak256(0x00, 0x20)\n      swap1\n      0x04\n      mul\n      add\n      0x00\n      swap1\n      swap2\n      swap1\n      swap2\n      swap1\n      swap2\n      pop\n      0x00\n      dup3\n      add\n      mload\n      dup2\n      0x00\n      add\n      swap1\n      dup1\n      mload\n      swap1\n      0x20\n      add\n      swap1\n      tag_117\n      swap3\n      swap2\n      swap1\n      tag_118\n      jump\t// in\n    tag_117:\n      pop\n      0x20\n      dup3\n      add\n      mload\n      dup2\n      0x01\n      add\n      sstore\n      0x40\n      dup3\n      add\n      mload\n      dup2\n      0x02\n      add\n      exp(0x0100, 0x00)\n      dup2\n      sload\n      dup2\n      0xffffffffffffffffffffffffffffffffffffffff\n      mul\n      not\n      and\n      swap1\n      dup4\n      0xffffffffffffffffffffffffffffffffffffffff\n      and\n      mul\n      or\n      swap1\n      sstore\n      pop\n      0x60\n      dup3\n      add\n      mload\n      dup2\n      0x02\n      add\n      exp(0x0100, 0x14)\n      dup2\n      sload\n      dup2\n      0xff\n      mul\n      not\n      and\n      swap1\n      dup4\n      iszero\n      iszero\n      mul\n      or\n      swap1\n      sstore\n      pop\n      0x80\n      dup3\n      add\n      mload\n      dup2\n      0x02\n      add\n      exp(0x0100, 0x15)\n      dup2\n      sload\n      dup2\n      0xff\n      mul\n      not\n      and\n      swap1\n      dup4\n      iszero\n      iszero\n      mul\n      or\n      swap1\n      sstore\n      pop\n      0xa0\n      dup3\n      add\n      mload\n      dup2\n      0x03\n      add\n      sstore\n      pop\n      pop\n        /* \"output\":2505:2793  {... */\n      pop\n        /* \"output\":2405:2793  function createRequest(string memory description, uint value, address recipient) public managerOnly {... */\n      pop\n      pop\n      pop\n      jump\t// out\n        /* \"output\":2840:3162  function back() public payable {... */\n    tag_49:\n        /* \"output\":2982:3001  minimumContribution */\n      sload(0x03)\n        /* \"output\":2969:2978  msg.value */\n      callvalue\n        /* \"output\":2969:3001  msg.value >= minimumContribution */\n      lt\n      iszero\n        /* \"output\":2961:3056  require(msg.value >= minimumContribution, \"You need to send at least the minimum contribution\") */\n      tag_120\n      jumpi\n      mload(0x40)\n      0x08c379a000000000000000000000000000000000000000000000000000000000\n      dup2\n      mstore\n      0x04\n      add\n      tag_121\n      swap1\n      tag_122\n      jump\t// in\n    tag_121:\n      mload(0x40)\n      dup1\n      swap2\n      sub\n      swap1\n      revert\n    tag_120:\n        /* \"output\":3068:3078  backersArr */\n      0x02\n        /* \"output\":3092:3102  msg.sender */\n      caller\n        /* \"output\":3068:3104  backersArr.push(payable(msg.sender)) */\n      swap1\n      dup1\n      0x01\n      dup2\n      sload\n      add\n      dup1\n      dup3\n      sstore\n      dup1\n      swap2\n      pop\n      pop\n      0x01\n      swap1\n      sub\n      swap1\n      0x00\n      mstore\n      keccak256(0x00, 0x20)\n      add\n      0x00\n      swap1\n      swap2\n      swap1\n      swap2\n      swap1\n      swap2\n      0x0100\n      exp\n      dup2\n      sload\n      dup2\n      0xffffffffffffffffffffffffffffffffffffffff\n      mul\n      not\n      and\n      swap1\n      dup4\n      0xffffffffffffffffffffffffffffffffffffffff\n      and\n      mul\n      or\n      swap1\n      sstore\n      pop\n        /* \"output\":3146:3155  msg.value */\n      callvalue\n        /* \"output\":3114:3121  backers */\n      0x04\n        /* \"output\":3114:3142  backers[payable(msg.sender)] */\n      0x00\n        /* \"output\":3130:3140  msg.sender */\n      caller\n        /* \"output\":3114:3142  backers[payable(msg.sender)] */\n      0xffffffffffffffffffffffffffffffffffffffff\n      and\n      0xffffffffffffffffffffffffffffffffffffffff\n      and\n      dup2\n      mstore\n      0x20\n      add\n      swap1\n      dup2\n      mstore\n      0x20\n      add\n      0x00\n      keccak256\n      0x00\n        /* \"output\":3114:3155  backers[payable(msg.sender)] += msg.value */\n      dup3\n      dup3\n      sload\n      tag_124\n      swap2\n      swap1\n      tag_125\n      jump\t// in\n    tag_124:\n      swap3\n      pop\n      pop\n      dup2\n      swap1\n      sstore\n      pop\n        /* \"output\":2840:3162  function back() public payable {... */\n      jump\t// out\n        /* \"output\":3203:3312  function returnBalance() public managerOnly view returns (uint) {... */\n    tag_52:\n        /* \"output\":3261:3265  uint */\n      0x00\n        /* \"output\":1711:1718  manager */\n      0x01\n      0x00\n      swap1\n      sload\n      swap1\n      0x0100\n      exp\n      swap1\n      div\n      0xffffffffffffffffffffffffffffffffffffffff\n      and\n        /* \"output\":1697:1718  msg.sender == manager */\n      0xffffffffffffffffffffffffffffffffffffffff\n      and\n        /* \"output\":1697:1707  msg.sender */\n      caller\n        /* \"output\":1697:1718  msg.sender == manager */\n      0xffffffffffffffffffffffffffffffffffffffff\n      and\n      eq\n        /* \"output\":1689:1770  require(msg.sender == manager, \"This function can only be called by the manager\") */\n      tag_127\n      jumpi\n      mload(0x40)\n      0x08c379a000000000000000000000000000000000000000000000000000000000\n      dup2\n      mstore\n      0x04\n      add\n      tag_128\n      swap1\n      tag_79\n      jump\t// in\n    tag_128:\n      mload(0x40)\n      dup1\n      swap2\n      sub\n      swap1\n      revert\n    tag_127:\n        /* \"output\":3284:3305  address(this).balance */\n      selfbalance\n        /* \"output\":3277:3305  return address(this).balance */\n      swap1\n      pop\n        /* \"output\":3203:3312  function returnBalance() public managerOnly view returns (uint) {... */\n      swap1\n      jump\t// out\n        /* \"output\":1114:1150  address payable [] public backersArr */\n    tag_58:\n      0x02\n      dup2\n      dup2\n      sload\n      dup2\n      lt\n      tag_130\n      jumpi\n      0x00\n      dup1\n      revert\n    tag_130:\n      swap1\n      0x00\n      mstore\n      keccak256(0x00, 0x20)\n      add\n      0x00\n      swap2\n      pop\n      sload\n      swap1\n      0x0100\n      exp\n      swap1\n      div\n      0xffffffffffffffffffffffffffffffffffffffff\n      and\n      dup2\n      jump\t// out\n        /* \"output\":1366:1406  mapping (address => uint) public backers */\n    tag_64:\n      mstore(0x20, 0x04)\n      dup1\n      0x00\n      mstore\n      keccak256(0x00, 0x40)\n      0x00\n      swap2\n      pop\n      swap1\n      pop\n      sload\n      dup2\n      jump\t// out\n        /* \"output\":1493:1554  mapping (address => Request []) public requestBackerRelations */\n    tag_70:\n      mstore(0x20, 0x05)\n      dup2\n      0x00\n      mstore\n      keccak256(0x00, 0x40)\n      dup2\n      dup2\n      sload\n      dup2\n      lt\n      tag_132\n      jumpi\n      0x00\n      dup1\n      revert\n    tag_132:\n      swap1\n      0x00\n      mstore\n      keccak256(0x00, 0x20)\n      swap1\n      0x04\n      mul\n      add\n      0x00\n      swap2\n      pop\n      swap2\n      pop\n      pop\n      dup1\n      0x00\n      add\n      dup1\n      sload\n      tag_134\n      swap1\n      tag_88\n      jump\t// in\n    tag_134:\n      dup1\n      0x1f\n      add\n      0x20\n      dup1\n      swap2\n      div\n      mul\n      0x20\n      add\n      mload(0x40)\n      swap1\n      dup2\n      add\n      0x40\n      mstore\n      dup1\n      swap3\n      swap2\n      swap1\n      dup2\n      dup2\n      mstore\n      0x20\n      add\n      dup3\n      dup1\n      sload\n      tag_135\n      swap1\n      tag_88\n      jump\t// in\n    tag_135:\n      dup1\n      iszero\n      tag_136\n      jumpi\n      dup1\n      0x1f\n      lt\n      tag_137\n      jumpi\n      0x0100\n      dup1\n      dup4\n      sload\n      div\n      mul\n      dup4\n      mstore\n      swap2\n      0x20\n      add\n      swap2\n      jump(tag_136)\n    tag_137:\n      dup3\n      add\n      swap2\n      swap1\n      0x00\n      mstore\n      keccak256(0x00, 0x20)\n      swap1\n    tag_138:\n      dup2\n      sload\n      dup2\n      mstore\n      swap1\n      0x01\n      add\n      swap1\n      0x20\n      add\n      dup1\n      dup4\n      gt\n      tag_138\n      jumpi\n      dup3\n      swap1\n      sub\n      0x1f\n      and\n      dup3\n      add\n      swap2\n    tag_136:\n      pop\n      pop\n      pop\n      pop\n      pop\n      swap1\n      dup1\n      0x01\n      add\n      sload\n      swap1\n      dup1\n      0x02\n      add\n      0x00\n      swap1\n      sload\n      swap1\n      0x0100\n      exp\n      swap1\n      div\n      0xffffffffffffffffffffffffffffffffffffffff\n      and\n      swap1\n      dup1\n      0x02\n      add\n      0x14\n      swap1\n      sload\n      swap1\n      0x0100\n      exp\n      swap1\n      div\n      0xff\n      and\n      swap1\n      dup1\n      0x02\n      add\n      0x15\n      swap1\n      sload\n      swap1\n      0x0100\n      exp\n      swap1\n      div\n      0xff\n      and\n      swap1\n      dup1\n      0x03\n      add\n      sload\n      swap1\n      pop\n      dup7\n      jump\t// out\n        /* \"output\":3665:4355  function approveRequest(uint index) public backerOnly {... */\n    tag_75:\n        /* \"output\":1993:2012  minimumContribution */\n      sload(0x03)\n        /* \"output\":1970:1977  backers */\n      0x04\n        /* \"output\":1970:1989  backers[msg.sender] */\n      0x00\n        /* \"output\":1978:1988  msg.sender */\n      caller\n        /* \"output\":1970:1989  backers[msg.sender] */\n      0xffffffffffffffffffffffffffffffffffffffff\n      and\n      0xffffffffffffffffffffffffffffffffffffffff\n      and\n      dup2\n      mstore\n      0x20\n      add\n      swap1\n      dup2\n      mstore\n      0x20\n      add\n      0x00\n      keccak256\n      sload\n        /* \"output\":1970:2012  backers[msg.sender] >= minimumContribution */\n      lt\n      iszero\n        /* \"output\":1962:2061  require(backers[msg.sender] >= minimumContribution, \"This function can only be called by a backer\") */\n      tag_140\n      jumpi\n      mload(0x40)\n      0x08c379a000000000000000000000000000000000000000000000000000000000\n      dup2\n      mstore\n      0x04\n      add\n      tag_141\n      swap1\n      tag_142\n      jump\t// in\n    tag_141:\n      mload(0x40)\n      dup1\n      swap2\n      sub\n      swap1\n      revert\n    tag_140:\n        /* \"output\":3796:3825  Request storage requestToBack */\n      0x00\n        /* \"output\":3828:3836  requests */\n      dup1\n        /* \"output\":3837:3842  index */\n      dup3\n        /* \"output\":3828:3843  requests[index] */\n      dup2\n      sload\n      dup2\n      lt\n      tag_144\n      jumpi\n      tag_145\n      tag_146\n      jump\t// in\n    tag_145:\n    tag_144:\n      swap1\n      0x00\n      mstore\n      keccak256(0x00, 0x20)\n      swap1\n      0x04\n      mul\n      add\n        /* \"output\":3796:3843  Request storage requestToBack = requests[index] */\n      swap1\n      pop\n        /* \"output\":3853:3894  Request [] memory backersApprovedRequests */\n      0x00\n        /* \"output\":3897:3919  requestBackerRelations */\n      0x05\n        /* \"output\":3897:3931  requestBackerRelations[msg.sender] */\n      0x00\n        /* \"output\":3920:3930  msg.sender */\n      caller\n        /* \"output\":3897:3931  requestBackerRelations[msg.sender] */\n      0xffffffffffffffffffffffffffffffffffffffff\n      and\n      0xffffffffffffffffffffffffffffffffffffffff\n      and\n      dup2\n      mstore\n      0x20\n      add\n      swap1\n      dup2\n      mstore\n      0x20\n      add\n      0x00\n      keccak256\n        /* \"output\":3853:3931  Request [] memory backersApprovedRequests = requestBackerRelations[msg.sender] */\n      dup1\n      sload\n      dup1\n      0x20\n      mul\n      0x20\n      add\n      mload(0x40)\n      swap1\n      dup2\n      add\n      0x40\n      mstore\n      dup1\n      swap3\n      swap2\n      swap1\n      dup2\n      dup2\n      mstore\n      0x20\n      add\n      0x00\n      swap1\n    tag_148:\n      dup3\n      dup3\n      lt\n      iszero\n      tag_149\n      jumpi\n      dup4\n      dup3\n      swap1\n      0x00\n      mstore\n      keccak256(0x00, 0x20)\n      swap1\n      0x04\n      mul\n      add\n      mload(0x40)\n      dup1\n      0xc0\n      add\n      0x40\n      mstore\n      swap1\n      dup2\n      0x00\n      dup3\n      add\n      dup1\n      sload\n      tag_151\n      swap1\n      tag_88\n      jump\t// in\n    tag_151:\n      dup1\n      0x1f\n      add\n      0x20\n      dup1\n      swap2\n      div\n      mul\n      0x20\n      add\n      mload(0x40)\n      swap1\n      dup2\n      add\n      0x40\n      mstore\n      dup1\n      swap3\n      swap2\n      swap1\n      dup2\n      dup2\n      mstore\n      0x20\n      add\n      dup3\n      dup1\n      sload\n      tag_152\n      swap1\n      tag_88\n      jump\t// in\n    tag_152:\n      dup1\n      iszero\n      tag_153\n      jumpi\n      dup1\n      0x1f\n      lt\n      tag_154\n      jumpi\n      0x0100\n      dup1\n      dup4\n      sload\n      div\n      mul\n      dup4\n      mstore\n      swap2\n      0x20\n      add\n      swap2\n      jump(tag_153)\n    tag_154:\n      dup3\n      add\n      swap2\n      swap1\n      0x00\n      mstore\n      keccak256(0x00, 0x20)\n      swap1\n    tag_155:\n      dup2\n      sload\n      dup2\n      mstore\n      swap1\n      0x01\n      add\n      swap1\n      0x20\n      add\n      dup1\n      dup4\n      gt\n      tag_155\n      jumpi\n      dup3\n      swap1\n      sub\n      0x1f\n      and\n      dup3\n      add\n      swap2\n    tag_153:\n      pop\n      pop\n      pop\n      pop\n      pop\n      dup2\n      mstore\n      0x20\n      add\n      0x01\n      dup3\n      add\n      sload\n      dup2\n      mstore\n      0x20\n      add\n      0x02\n      dup3\n      add\n      0x00\n      swap1\n      sload\n      swap1\n      0x0100\n      exp\n      swap1\n      div\n      0xffffffffffffffffffffffffffffffffffffffff\n      and\n      0xffffffffffffffffffffffffffffffffffffffff\n      and\n      0xffffffffffffffffffffffffffffffffffffffff\n      and\n      dup2\n      mstore\n      0x20\n      add\n      0x02\n      dup3\n      add\n      0x14\n      swap1\n      sload\n      swap1\n      0x0100\n      exp\n      swap1\n      div\n      0xff\n      and\n      iszero\n      iszero\n      iszero\n      iszero\n      dup2\n      mstore\n      0x20\n      add\n      0x02\n      dup3\n      add\n      0x15\n      swap1\n      sload\n      swap1\n      0x0100\n      exp\n      swap1\n      div\n      0xff\n      and\n      iszero\n      iszero\n      iszero\n      iszero\n      dup2\n      mstore\n      0x20\n      add\n      0x03\n      dup3\n      add\n      sload\n      dup2\n      mstore\n      pop\n      pop\n      dup2\n      mstore\n      0x20\n      add\n      swap1\n      0x01\n      add\n      swap1\n      jump(tag_148)\n    tag_149:\n      pop\n      pop\n      pop\n      pop\n      swap1\n      pop\n        /* \"output\":3946:3952  uint i */\n      0x00\n        /* \"output\":3941:4162  for (uint i = 0; i < backersApprovedRequests.length; i++) {... */\n    tag_156:\n        /* \"output\":3962:3985  backersApprovedRequests */\n      dup2\n        /* \"output\":3962:3992  backersApprovedRequests.length */\n      mload\n        /* \"output\":3958:3959  i */\n      dup2\n        /* \"output\":3958:3992  i < backersApprovedRequests.length */\n      lt\n        /* \"output\":3941:4162  for (uint i = 0; i < backersApprovedRequests.length; i++) {... */\n      iszero\n      tag_157\n      jumpi\n        /* \"output\":4082:4105  backersApprovedRequests */\n      dup2\n        /* \"output\":4106:4107  i */\n      dup2\n        /* \"output\":4082:4108  backersApprovedRequests[i] */\n      dup2\n      mload\n      dup2\n      lt\n      tag_159\n      jumpi\n      tag_160\n      tag_146\n      jump\t// in\n    tag_160:\n    tag_159:\n      0x20\n      mul\n      0x20\n      add\n      add\n      mload\n        /* \"output\":4071:4109  abi.encode(backersApprovedRequests[i]) */\n      add(0x20, mload(0x40))\n      tag_161\n      swap2\n      swap1\n      tag_162\n      jump\t// in\n    tag_161:\n      mload(0x40)\n      0x20\n      dup2\n      dup4\n      sub\n      sub\n      dup2\n      mstore\n      swap1\n      0x40\n      mstore\n        /* \"output\":4061:4110  keccak256(abi.encode(backersApprovedRequests[i])) */\n      dup1\n      mload\n      swap1\n      0x20\n      add\n      keccak256\n        /* \"output\":4042:4055  requestToBack */\n      dup4\n        /* \"output\":4031:4056  abi.encode(requestToBack) */\n      add(0x20, mload(0x40))\n      tag_163\n      swap2\n      swap1\n      tag_164\n      jump\t// in\n    tag_163:\n      mload(0x40)\n      0x20\n      dup2\n      dup4\n      sub\n      sub\n      dup2\n      mstore\n      swap1\n      0x40\n      mstore\n        /* \"output\":4021:4057  keccak256(abi.encode(requestToBack)) */\n      dup1\n      mload\n      swap1\n      0x20\n      add\n      keccak256\n        /* \"output\":4021:4110  keccak256(abi.encode(requestToBack)) == keccak256(abi.encode(backersApprovedRequests[i])) */\n      eq\n        /* \"output\":4013:4151  require(keccak256(abi.encode(requestToBack)) == keccak256(abi.encode(backersApprovedRequests[i])), \"You have already backed this request\") */\n      tag_165\n      jumpi\n      mload(0x40)\n      0x08c379a000000000000000000000000000000000000000000000000000000000\n      dup2\n      mstore\n      0x04\n      add\n      tag_166\n      swap1\n      tag_167\n      jump\t// in\n    tag_166:\n      mload(0x40)\n      dup1\n      swap2\n      sub\n      swap1\n      revert\n    tag_165:\n        /* \"output\":3994:3997  i++ */\n      dup1\n      dup1\n      tag_168\n      swap1\n      tag_169\n      jump\t// in\n    tag_168:\n      swap2\n      pop\n      pop\n        /* \"output\":3941:4162  for (uint i = 0; i < backersApprovedRequests.length; i++) {... */\n      jump(tag_156)\n    tag_157:\n      pop\n        /* \"output\":4283:4284  1 */\n      0x01\n        /* \"output\":4256:4269  requestToBack */\n      dup3\n        /* \"output\":4256:4279  requestToBack.approvers */\n      0x03\n      add\n      0x00\n        /* \"output\":4256:4284  requestToBack.approvers += 1 */\n      dup3\n      dup3\n      sload\n      tag_170\n      swap2\n      swap1\n      tag_125\n      jump\t// in\n    tag_170:\n      swap3\n      pop\n      pop\n      dup2\n      swap1\n      sstore\n      pop\n        /* \"output\":4294:4316  requestBackerRelations */\n      0x05\n        /* \"output\":4294:4328  requestBackerRelations[msg.sender] */\n      0x00\n        /* \"output\":4317:4327  msg.sender */\n      caller\n        /* \"output\":4294:4328  requestBackerRelations[msg.sender] */\n      0xffffffffffffffffffffffffffffffffffffffff\n      and\n      0xffffffffffffffffffffffffffffffffffffffff\n      and\n      dup2\n      mstore\n      0x20\n      add\n      swap1\n      dup2\n      mstore\n      0x20\n      add\n      0x00\n      keccak256\n        /* \"output\":4334:4347  requestToBack */\n      dup3\n        /* \"output\":4294:4348  requestBackerRelations[msg.sender].push(requestToBack) */\n      swap1\n      dup1\n      0x01\n      dup2\n      sload\n      add\n      dup1\n      dup3\n      sstore\n      dup1\n      swap2\n      pop\n      pop\n      0x01\n      swap1\n      sub\n      swap1\n      0x00\n      mstore\n      keccak256(0x00, 0x20)\n      swap1\n      0x04\n      mul\n      add\n      0x00\n      swap1\n      swap2\n      swap1\n      swap2\n      swap1\n      swap2\n      pop\n      0x00\n      dup3\n      add\n      dup2\n      0x00\n      add\n      swap1\n      dup1\n      sload\n      tag_172\n      swap1\n      tag_88\n      jump\t// in\n    tag_172:\n      tag_173\n      swap3\n      swap2\n      swap1\n      tag_174\n      jump\t// in\n    tag_173:\n      pop\n      0x01\n      dup3\n      add\n      sload\n      dup2\n      0x01\n      add\n      sstore\n      0x02\n      dup3\n      add\n      0x00\n      swap1\n      sload\n      swap1\n      0x0100\n      exp\n      swap1\n      div\n      0xffffffffffffffffffffffffffffffffffffffff\n      and\n      dup2\n      0x02\n      add\n      exp(0x0100, 0x00)\n      dup2\n      sload\n      dup2\n      0xffffffffffffffffffffffffffffffffffffffff\n      mul\n      not\n      and\n      swap1\n      dup4\n      0xffffffffffffffffffffffffffffffffffffffff\n      and\n      mul\n      or\n      swap1\n      sstore\n      pop\n      0x02\n      dup3\n      add\n      0x14\n      swap1\n      sload\n      swap1\n      0x0100\n      exp\n      swap1\n      div\n      0xff\n      and\n      dup2\n      0x02\n      add\n      exp(0x0100, 0x14)\n      dup2\n      sload\n      dup2\n      0xff\n      mul\n      not\n      and\n      swap1\n      dup4\n      iszero\n      iszero\n      mul\n      or\n      swap1\n      sstore\n      pop\n      0x02\n      dup3\n      add\n      0x15\n      swap1\n      sload\n      swap1\n      0x0100\n      exp\n      swap1\n      div\n      0xff\n      and\n      dup2\n      0x02\n      add\n      exp(0x0100, 0x15)\n      dup2\n      sload\n      dup2\n      0xff\n      mul\n      not\n      and\n      swap1\n      dup4\n      iszero\n      iszero\n      mul\n      or\n      swap1\n      sstore\n      pop\n      0x03\n      dup3\n      add\n      sload\n      dup2\n      0x03\n      add\n      sstore\n      pop\n      pop\n        /* \"output\":3719:4355  {... */\n      pop\n      pop\n        /* \"output\":3665:4355  function approveRequest(uint index) public backerOnly {... */\n      pop\n      jump\t// out\n    tag_118:\n      dup3\n      dup1\n      sload\n      tag_175\n      swap1\n      tag_88\n      jump\t// in\n    tag_175:\n      swap1\n      0x00\n      mstore\n      keccak256(0x00, 0x20)\n      swap1\n      0x1f\n      add\n      0x20\n      swap1\n      div\n      dup2\n      add\n      swap3\n      dup3\n      tag_177\n      jumpi\n      0x00\n      dup6\n      sstore\n      jump(tag_176)\n    tag_177:\n      dup3\n      0x1f\n      lt\n      tag_178\n      jumpi\n      dup1\n      mload\n      not(0xff)\n      and\n      dup4\n      dup1\n      add\n      or\n      dup6\n      sstore\n      jump(tag_176)\n    tag_178:\n      dup3\n      dup1\n      add\n      0x01\n      add\n      dup6\n      sstore\n      dup3\n      iszero\n      tag_176\n      jumpi\n      swap2\n      dup3\n      add\n    tag_179:\n      dup3\n      dup2\n      gt\n      iszero\n      tag_180\n      jumpi\n      dup3\n      mload\n      dup3\n      sstore\n      swap2\n      0x20\n      add\n      swap2\n      swap1\n      0x01\n      add\n      swap1\n      jump(tag_179)\n    tag_180:\n    tag_176:\n      pop\n      swap1\n      pop\n      tag_181\n      swap2\n      swap1\n      tag_182\n      jump\t// in\n    tag_181:\n      pop\n      swap1\n      jump\t// out\n    tag_174:\n      dup3\n      dup1\n      sload\n      tag_183\n      swap1\n      tag_88\n      jump\t// in\n    tag_183:\n      swap1\n      0x00\n      mstore\n      keccak256(0x00, 0x20)\n      swap1\n      0x1f\n      add\n      0x20\n      swap1\n      div\n      dup2\n      add\n      swap3\n      dup3\n      tag_185\n      jumpi\n      0x00\n      dup6\n      sstore\n      jump(tag_184)\n    tag_185:\n      dup3\n      0x1f\n      lt\n      tag_186\n      jumpi\n      dup1\n      sload\n      dup6\n      sstore\n      jump(tag_184)\n    tag_186:\n      dup3\n      dup1\n      add\n      0x01\n      add\n      dup6\n      sstore\n      dup3\n      iszero\n      tag_184\n      jumpi\n      0x00\n      mstore\n      keccak256(0x00, 0x20)\n      swap2\n      0x1f\n      add\n      0x20\n      swap1\n      div\n      dup3\n      add\n    tag_187:\n      dup3\n      dup2\n      gt\n      iszero\n      tag_188\n      jumpi\n      dup3\n      sload\n      dup3\n      sstore\n      swap2\n      0x01\n      add\n      swap2\n      swap1\n      0x01\n      add\n      swap1\n      jump(tag_187)\n    tag_188:\n    tag_184:\n      pop\n      swap1\n      pop\n      tag_189\n      swap2\n      swap1\n      tag_182\n      jump\t// in\n    tag_189:\n      pop\n      swap1\n      jump\t// out\n    tag_182:\n    tag_190:\n      dup1\n      dup3\n      gt\n      iszero\n      tag_191\n      jumpi\n      0x00\n      dup2\n      0x00\n      swap1\n      sstore\n      pop\n      0x01\n      add\n      jump(tag_190)\n    tag_191:\n      pop\n      swap1\n      jump\t// out\n        /* \"#utility.yul\":7:82   */\n    tag_192:\n        /* \"#utility.yul\":40:46   */\n      0x00\n        /* \"#utility.yul\":73:75   */\n      0x40\n        /* \"#utility.yul\":67:76   */\n      mload\n        /* \"#utility.yul\":57:76   */\n      swap1\n      pop\n        /* \"#utility.yul\":7:82   */\n      swap1\n      jump\t// out\n        /* \"#utility.yul\":88:205   */\n    tag_193:\n        /* \"#utility.yul\":197:198   */\n      0x00\n        /* \"#utility.yul\":194:195   */\n      dup1\n        /* \"#utility.yul\":187:199   */\n      revert\n        /* \"#utility.yul\":211:328   */\n    tag_194:\n        /* \"#utility.yul\":320:321   */\n      0x00\n        /* \"#utility.yul\":317:318   */\n      dup1\n        /* \"#utility.yul\":310:322   */\n      revert\n        /* \"#utility.yul\":334:460   */\n    tag_195:\n        /* \"#utility.yul\":371:378   */\n      0x00\n        /* \"#utility.yul\":411:453   */\n      0xffffffffffffffffffffffffffffffffffffffff\n        /* \"#utility.yul\":404:409   */\n      dup3\n        /* \"#utility.yul\":400:454   */\n      and\n        /* \"#utility.yul\":389:454   */\n      swap1\n      pop\n        /* \"#utility.yul\":334:460   */\n      swap2\n      swap1\n      pop\n      jump\t// out\n        /* \"#utility.yul\":466:562   */\n    tag_196:\n        /* \"#utility.yul\":503:510   */\n      0x00\n        /* \"#utility.yul\":532:556   */\n      tag_273\n        /* \"#utility.yul\":550:555   */\n      dup3\n        /* \"#utility.yul\":532:556   */\n      tag_195\n      jump\t// in\n    tag_273:\n        /* \"#utility.yul\":521:556   */\n      swap1\n      pop\n        /* \"#utility.yul\":466:562   */\n      swap2\n      swap1\n      pop\n      jump\t// out\n        /* \"#utility.yul\":568:690   */\n    tag_197:\n        /* \"#utility.yul\":641:665   */\n      tag_275\n        /* \"#utility.yul\":659:664   */\n      dup2\n        /* \"#utility.yul\":641:665   */\n      tag_196\n      jump\t// in\n    tag_275:\n        /* \"#utility.yul\":634:639   */\n      dup2\n        /* \"#utility.yul\":631:666   */\n      eq\n        /* \"#utility.yul\":621:684   */\n      tag_276\n      jumpi\n        /* \"#utility.yul\":680:681   */\n      0x00\n        /* \"#utility.yul\":677:678   */\n      dup1\n        /* \"#utility.yul\":670:682   */\n      revert\n        /* \"#utility.yul\":621:684   */\n    tag_276:\n        /* \"#utility.yul\":568:690   */\n      pop\n      jump\t// out\n        /* \"#utility.yul\":696:835   */\n    tag_198:\n        /* \"#utility.yul\":742:747   */\n      0x00\n        /* \"#utility.yul\":780:786   */\n      dup2\n        /* \"#utility.yul\":767:787   */\n      calldataload\n        /* \"#utility.yul\":758:787   */\n      swap1\n      pop\n        /* \"#utility.yul\":796:829   */\n      tag_278\n        /* \"#utility.yul\":823:828   */\n      dup2\n        /* \"#utility.yul\":796:829   */\n      tag_197\n      jump\t// in\n    tag_278:\n        /* \"#utility.yul\":696:835   */\n      swap3\n      swap2\n      pop\n      pop\n      jump\t// out\n        /* \"#utility.yul\":841:1170   */\n    tag_18:\n        /* \"#utility.yul\":900:906   */\n      0x00\n        /* \"#utility.yul\":949:951   */\n      0x20\n        /* \"#utility.yul\":937:946   */\n      dup3\n        /* \"#utility.yul\":928:935   */\n      dup5\n        /* \"#utility.yul\":924:947   */\n      sub\n        /* \"#utility.yul\":920:952   */\n      slt\n        /* \"#utility.yul\":917:1036   */\n      iszero\n      tag_280\n      jumpi\n        /* \"#utility.yul\":955:1034   */\n      tag_281\n      tag_193\n      jump\t// in\n    tag_281:\n        /* \"#utility.yul\":917:1036   */\n    tag_280:\n        /* \"#utility.yul\":1075:1076   */\n      0x00\n        /* \"#utility.yul\":1100:1153   */\n      tag_282\n        /* \"#utility.yul\":1145:1152   */\n      dup5\n        /* \"#utility.yul\":1136:1142   */\n      dup3\n        /* \"#utility.yul\":1125:1134   */\n      dup6\n        /* \"#utility.yul\":1121:1143   */\n      add\n        /* \"#utility.yul\":1100:1153   */\n      tag_198\n      jump\t// in\n    tag_282:\n        /* \"#utility.yul\":1090:1153   */\n      swap2\n      pop\n        /* \"#utility.yul\":1046:1163   */\n      pop\n        /* \"#utility.yul\":841:1170   */\n      swap3\n      swap2\n      pop\n      pop\n      jump\t// out\n        /* \"#utility.yul\":1176:1313   */\n    tag_199:\n        /* \"#utility.yul\":1266:1272   */\n      0x00\n        /* \"#utility.yul\":1300:1305   */\n      dup2\n        /* \"#utility.yul\":1294:1306   */\n      mload\n        /* \"#utility.yul\":1284:1306   */\n      swap1\n      pop\n        /* \"#utility.yul\":1176:1313   */\n      swap2\n      swap1\n      pop\n      jump\t// out\n        /* \"#utility.yul\":1319:1526   */\n    tag_200:\n        /* \"#utility.yul\":1441:1452   */\n      0x00\n        /* \"#utility.yul\":1475:1481   */\n      dup3\n        /* \"#utility.yul\":1470:1473   */\n      dup3\n        /* \"#utility.yul\":1463:1482   */\n      mstore\n        /* \"#utility.yul\":1515:1519   */\n      0x20\n        /* \"#utility.yul\":1510:1513   */\n      dup3\n        /* \"#utility.yul\":1506:1520   */\n      add\n        /* \"#utility.yul\":1491:1520   */\n      swap1\n      pop\n        /* \"#utility.yul\":1319:1526   */\n      swap3\n      swap2\n      pop\n      pop\n      jump\t// out\n        /* \"#utility.yul\":1532:1687   */\n    tag_201:\n        /* \"#utility.yul\":1622:1626   */\n      0x00\n        /* \"#utility.yul\":1645:1648   */\n      dup2\n        /* \"#utility.yul\":1637:1648   */\n      swap1\n      pop\n        /* \"#utility.yul\":1675:1679   */\n      0x20\n        /* \"#utility.yul\":1670:1673   */\n      dup3\n        /* \"#utility.yul\":1666:1680   */\n      add\n        /* \"#utility.yul\":1658:1680   */\n      swap1\n      pop\n        /* \"#utility.yul\":1532:1687   */\n      swap2\n      swap1\n      pop\n      jump\t// out\n        /* \"#utility.yul\":1693:1792   */\n    tag_202:\n        /* \"#utility.yul\":1745:1751   */\n      0x00\n        /* \"#utility.yul\":1779:1784   */\n      dup2\n        /* \"#utility.yul\":1773:1785   */\n      mload\n        /* \"#utility.yul\":1763:1785   */\n      swap1\n      pop\n        /* \"#utility.yul\":1693:1792   */\n      swap2\n      swap1\n      pop\n      jump\t// out\n        /* \"#utility.yul\":1798:1957   */\n    tag_203:\n        /* \"#utility.yul\":1872:1883   */\n      0x00\n        /* \"#utility.yul\":1906:1912   */\n      dup3\n        /* \"#utility.yul\":1901:1904   */\n      dup3\n        /* \"#utility.yul\":1894:1913   */\n      mstore\n        /* \"#utility.yul\":1946:1950   */\n      0x20\n        /* \"#utility.yul\":1941:1944   */\n      dup3\n        /* \"#utility.yul\":1937:1951   */\n      add\n        /* \"#utility.yul\":1922:1951   */\n      swap1\n      pop\n        /* \"#utility.yul\":1798:1957   */\n      swap3\n      swap2\n      pop\n      pop\n      jump\t// out\n        /* \"#utility.yul\":1963:2270   */\n    tag_204:\n        /* \"#utility.yul\":2031:2032   */\n      0x00\n        /* \"#utility.yul\":2041:2154   */\n    tag_289:\n        /* \"#utility.yul\":2055:2061   */\n      dup4\n        /* \"#utility.yul\":2052:2053   */\n      dup2\n        /* \"#utility.yul\":2049:2062   */\n      lt\n        /* \"#utility.yul\":2041:2154   */\n      iszero\n      tag_291\n      jumpi\n        /* \"#utility.yul\":2140:2141   */\n      dup1\n        /* \"#utility.yul\":2135:2138   */\n      dup3\n        /* \"#utility.yul\":2131:2142   */\n      add\n        /* \"#utility.yul\":2125:2143   */\n      mload\n        /* \"#utility.yul\":2121:2122   */\n      dup2\n        /* \"#utility.yul\":2116:2119   */\n      dup5\n        /* \"#utility.yul\":2112:2123   */\n      add\n        /* \"#utility.yul\":2105:2144   */\n      mstore\n        /* \"#utility.yul\":2077:2079   */\n      0x20\n        /* \"#utility.yul\":2074:2075   */\n      dup2\n        /* \"#utility.yul\":2070:2080   */\n      add\n        /* \"#utility.yul\":2065:2080   */\n      swap1\n      pop\n        /* \"#utility.yul\":2041:2154   */\n      jump(tag_289)\n    tag_291:\n        /* \"#utility.yul\":2172:2178   */\n      dup4\n        /* \"#utility.yul\":2169:2170   */\n      dup2\n        /* \"#utility.yul\":2166:2179   */\n      gt\n        /* \"#utility.yul\":2163:2264   */\n      iszero\n      tag_292\n      jumpi\n        /* \"#utility.yul\":2252:2253   */\n      0x00\n        /* \"#utility.yul\":2243:2249   */\n      dup5\n        /* \"#utility.yul\":2238:2241   */\n      dup5\n        /* \"#utility.yul\":2234:2250   */\n      add\n        /* \"#utility.yul\":2227:2254   */\n      mstore\n        /* \"#utility.yul\":2163:2264   */\n    tag_292:\n        /* \"#utility.yul\":2012:2270   */\n      pop\n        /* \"#utility.yul\":1963:2270   */\n      pop\n      pop\n      pop\n      jump\t// out\n        /* \"#utility.yul\":2276:2378   */\n    tag_205:\n        /* \"#utility.yul\":2317:2323   */\n      0x00\n        /* \"#utility.yul\":2368:2370   */\n      0x1f\n        /* \"#utility.yul\":2364:2371   */\n      not\n        /* \"#utility.yul\":2359:2361   */\n      0x1f\n        /* \"#utility.yul\":2352:2357   */\n      dup4\n        /* \"#utility.yul\":2348:2362   */\n      add\n        /* \"#utility.yul\":2344:2372   */\n      and\n        /* \"#utility.yul\":2334:2372   */\n      swap1\n      pop\n        /* \"#utility.yul\":2276:2378   */\n      swap2\n      swap1\n      pop\n      jump\t// out\n        /* \"#utility.yul\":2384:2728   */\n    tag_206:\n        /* \"#utility.yul\":2462:2465   */\n      0x00\n        /* \"#utility.yul\":2490:2529   */\n      tag_295\n        /* \"#utility.yul\":2523:2528   */\n      dup3\n        /* \"#utility.yul\":2490:2529   */\n      tag_202\n      jump\t// in\n    tag_295:\n        /* \"#utility.yul\":2545:2606   */\n      tag_296\n        /* \"#utility.yul\":2599:2605   */\n      dup2\n        /* \"#utility.yul\":2594:2597   */\n      dup6\n        /* \"#utility.yul\":2545:2606   */\n      tag_203\n      jump\t// in\n    tag_296:\n        /* \"#utility.yul\":2538:2606   */\n      swap4\n      pop\n        /* \"#utility.yul\":2615:2667   */\n      tag_297\n        /* \"#utility.yul\":2660:2666   */\n      dup2\n        /* \"#utility.yul\":2655:2658   */\n      dup6\n        /* \"#utility.yul\":2648:2652   */\n      0x20\n        /* \"#utility.yul\":2641:2646   */\n      dup7\n        /* \"#utility.yul\":2637:2653   */\n      add\n        /* \"#utility.yul\":2615:2667   */\n      tag_204\n      jump\t// in\n    tag_297:\n        /* \"#utility.yul\":2692:2721   */\n      tag_298\n        /* \"#utility.yul\":2714:2720   */\n      dup2\n        /* \"#utility.yul\":2692:2721   */\n      tag_205\n      jump\t// in\n    tag_298:\n        /* \"#utility.yul\":2687:2690   */\n      dup5\n        /* \"#utility.yul\":2683:2722   */\n      add\n        /* \"#utility.yul\":2676:2722   */\n      swap2\n      pop\n        /* \"#utility.yul\":2466:2728   */\n      pop\n        /* \"#utility.yul\":2384:2728   */\n      swap3\n      swap2\n      pop\n      pop\n      jump\t// out\n        /* \"#utility.yul\":2734:2811   */\n    tag_207:\n        /* \"#utility.yul\":2771:2778   */\n      0x00\n        /* \"#utility.yul\":2800:2805   */\n      dup2\n        /* \"#utility.yul\":2789:2805   */\n      swap1\n      pop\n        /* \"#utility.yul\":2734:2811   */\n      swap2\n      swap1\n      pop\n      jump\t// out\n        /* \"#utility.yul\":2817:2925   */\n    tag_208:\n        /* \"#utility.yul\":2894:2918   */\n      tag_301\n        /* \"#utility.yul\":2912:2917   */\n      dup2\n        /* \"#utility.yul\":2894:2918   */\n      tag_207\n      jump\t// in\n    tag_301:\n        /* \"#utility.yul\":2889:2892   */\n      dup3\n        /* \"#utility.yul\":2882:2919   */\n      mstore\n        /* \"#utility.yul\":2817:2925   */\n      pop\n      pop\n      jump\t// out\n        /* \"#utility.yul\":2931:3039   */\n    tag_209:\n        /* \"#utility.yul\":3008:3032   */\n      tag_303\n        /* \"#utility.yul\":3026:3031   */\n      dup2\n        /* \"#utility.yul\":3008:3032   */\n      tag_196\n      jump\t// in\n    tag_303:\n        /* \"#utility.yul\":3003:3006   */\n      dup3\n        /* \"#utility.yul\":2996:3033   */\n      mstore\n        /* \"#utility.yul\":2931:3039   */\n      pop\n      pop\n      jump\t// out\n        /* \"#utility.yul\":3045:3135   */\n    tag_210:\n        /* \"#utility.yul\":3079:3086   */\n      0x00\n        /* \"#utility.yul\":3122:3127   */\n      dup2\n        /* \"#utility.yul\":3115:3128   */\n      iszero\n        /* \"#utility.yul\":3108:3129   */\n      iszero\n        /* \"#utility.yul\":3097:3129   */\n      swap1\n      pop\n        /* \"#utility.yul\":3045:3135   */\n      swap2\n      swap1\n      pop\n      jump\t// out\n        /* \"#utility.yul\":3141:3240   */\n    tag_211:\n        /* \"#utility.yul\":3212:3233   */\n      tag_306\n        /* \"#utility.yul\":3227:3232   */\n      dup2\n        /* \"#utility.yul\":3212:3233   */\n      tag_210\n      jump\t// in\n    tag_306:\n        /* \"#utility.yul\":3207:3210   */\n      dup3\n        /* \"#utility.yul\":3200:3234   */\n      mstore\n        /* \"#utility.yul\":3141:3240   */\n      pop\n      pop\n      jump\t// out\n        /* \"#utility.yul\":3304:4611   */\n    tag_212:\n        /* \"#utility.yul\":3409:3412   */\n      0x00\n        /* \"#utility.yul\":3445:3449   */\n      0xc0\n        /* \"#utility.yul\":3440:3443   */\n      dup4\n        /* \"#utility.yul\":3436:3450   */\n      add\n        /* \"#utility.yul\":3539:3543   */\n      0x00\n        /* \"#utility.yul\":3532:3537   */\n      dup4\n        /* \"#utility.yul\":3528:3544   */\n      add\n        /* \"#utility.yul\":3522:3545   */\n      mload\n        /* \"#utility.yul\":3592:3595   */\n      dup5\n        /* \"#utility.yul\":3586:3590   */\n      dup3\n        /* \"#utility.yul\":3582:3596   */\n      sub\n        /* \"#utility.yul\":3575:3579   */\n      0x00\n        /* \"#utility.yul\":3570:3573   */\n      dup7\n        /* \"#utility.yul\":3566:3580   */\n      add\n        /* \"#utility.yul\":3559:3597   */\n      mstore\n        /* \"#utility.yul\":3618:3691   */\n      tag_308\n        /* \"#utility.yul\":3686:3690   */\n      dup3\n        /* \"#utility.yul\":3672:3684   */\n      dup3\n        /* \"#utility.yul\":3618:3691   */\n      tag_206\n      jump\t// in\n    tag_308:\n        /* \"#utility.yul\":3610:3691   */\n      swap2\n      pop\n        /* \"#utility.yul\":3460:3702   */\n      pop\n        /* \"#utility.yul\":3785:3789   */\n      0x20\n        /* \"#utility.yul\":3778:3783   */\n      dup4\n        /* \"#utility.yul\":3774:3790   */\n      add\n        /* \"#utility.yul\":3768:3791   */\n      mload\n        /* \"#utility.yul\":3804:3867   */\n      tag_309\n        /* \"#utility.yul\":3861:3865   */\n      0x20\n        /* \"#utility.yul\":3856:3859   */\n      dup7\n        /* \"#utility.yul\":3852:3866   */\n      add\n        /* \"#utility.yul\":3838:3850   */\n      dup3\n        /* \"#utility.yul\":3804:3867   */\n      tag_208\n      jump\t// in\n    tag_309:\n        /* \"#utility.yul\":3712:3877   */\n      pop\n        /* \"#utility.yul\":3964:3968   */\n      0x40\n        /* \"#utility.yul\":3957:3962   */\n      dup4\n        /* \"#utility.yul\":3953:3969   */\n      add\n        /* \"#utility.yul\":3947:3970   */\n      mload\n        /* \"#utility.yul\":3983:4046   */\n      tag_310\n        /* \"#utility.yul\":4040:4044   */\n      0x40\n        /* \"#utility.yul\":4035:4038   */\n      dup7\n        /* \"#utility.yul\":4031:4045   */\n      add\n        /* \"#utility.yul\":4017:4029   */\n      dup3\n        /* \"#utility.yul\":3983:4046   */\n      tag_209\n      jump\t// in\n    tag_310:\n        /* \"#utility.yul\":3887:4056   */\n      pop\n        /* \"#utility.yul\":4145:4149   */\n      0x60\n        /* \"#utility.yul\":4138:4143   */\n      dup4\n        /* \"#utility.yul\":4134:4150   */\n      add\n        /* \"#utility.yul\":4128:4151   */\n      mload\n        /* \"#utility.yul\":4164:4221   */\n      tag_311\n        /* \"#utility.yul\":4215:4219   */\n      0x60\n        /* \"#utility.yul\":4210:4213   */\n      dup7\n        /* \"#utility.yul\":4206:4220   */\n      add\n        /* \"#utility.yul\":4192:4204   */\n      dup3\n        /* \"#utility.yul\":4164:4221   */\n      tag_211\n      jump\t// in\n    tag_311:\n        /* \"#utility.yul\":4066:4231   */\n      pop\n        /* \"#utility.yul\":4319:4323   */\n      0x80\n        /* \"#utility.yul\":4312:4317   */\n      dup4\n        /* \"#utility.yul\":4308:4324   */\n      add\n        /* \"#utility.yul\":4302:4325   */\n      mload\n        /* \"#utility.yul\":4338:4395   */\n      tag_312\n        /* \"#utility.yul\":4389:4393   */\n      0x80\n        /* \"#utility.yul\":4384:4387   */\n      dup7\n        /* \"#utility.yul\":4380:4394   */\n      add\n        /* \"#utility.yul\":4366:4378   */\n      dup3\n        /* \"#utility.yul\":4338:4395   */\n      tag_211\n      jump\t// in\n    tag_312:\n        /* \"#utility.yul\":4241:4405   */\n      pop\n        /* \"#utility.yul\":4492:4496   */\n      0xa0\n        /* \"#utility.yul\":4485:4490   */\n      dup4\n        /* \"#utility.yul\":4481:4497   */\n      add\n        /* \"#utility.yul\":4475:4498   */\n      mload\n        /* \"#utility.yul\":4511:4574   */\n      tag_313\n        /* \"#utility.yul\":4568:4572   */\n      0xa0\n        /* \"#utility.yul\":4563:4566   */\n      dup7\n        /* \"#utility.yul\":4559:4573   */\n      add\n        /* \"#utility.yul\":4545:4557   */\n      dup3\n        /* \"#utility.yul\":4511:4574   */\n      tag_208\n      jump\t// in\n    tag_313:\n        /* \"#utility.yul\":4415:4584   */\n      pop\n        /* \"#utility.yul\":4601:4605   */\n      dup1\n        /* \"#utility.yul\":4594:4605   */\n      swap2\n      pop\n        /* \"#utility.yul\":3414:4611   */\n      pop\n        /* \"#utility.yul\":3304:4611   */\n      swap3\n      swap2\n      pop\n      pop\n      jump\t// out\n        /* \"#utility.yul\":4617:4865   */\n    tag_213:\n        /* \"#utility.yul\":4732:4742   */\n      0x00\n        /* \"#utility.yul\":4767:4859   */\n      tag_315\n        /* \"#utility.yul\":4855:4858   */\n      dup4\n        /* \"#utility.yul\":4847:4853   */\n      dup4\n        /* \"#utility.yul\":4767:4859   */\n      tag_212\n      jump\t// in\n    tag_315:\n        /* \"#utility.yul\":4753:4859   */\n      swap1\n      pop\n        /* \"#utility.yul\":4617:4865   */\n      swap3\n      swap2\n      pop\n      pop\n      jump\t// out\n        /* \"#utility.yul\":4871:5007   */\n    tag_214:\n        /* \"#utility.yul\":4964:4968   */\n      0x00\n        /* \"#utility.yul\":4996:5000   */\n      0x20\n        /* \"#utility.yul\":4991:4994   */\n      dup3\n        /* \"#utility.yul\":4987:5001   */\n      add\n        /* \"#utility.yul\":4979:5001   */\n      swap1\n      pop\n        /* \"#utility.yul\":4871:5007   */\n      swap2\n      swap1\n      pop\n      jump\t// out\n        /* \"#utility.yul\":5075:6170   */\n    tag_215:\n        /* \"#utility.yul\":5240:5243   */\n      0x00\n        /* \"#utility.yul\":5269:5346   */\n      tag_318\n        /* \"#utility.yul\":5340:5345   */\n      dup3\n        /* \"#utility.yul\":5269:5346   */\n      tag_199\n      jump\t// in\n    tag_318:\n        /* \"#utility.yul\":5362:5471   */\n      tag_319\n        /* \"#utility.yul\":5464:5470   */\n      dup2\n        /* \"#utility.yul\":5459:5462   */\n      dup6\n        /* \"#utility.yul\":5362:5471   */\n      tag_200\n      jump\t// in\n    tag_319:\n        /* \"#utility.yul\":5355:5471   */\n      swap4\n      pop\n        /* \"#utility.yul\":5497:5500   */\n      dup4\n        /* \"#utility.yul\":5542:5546   */\n      0x20\n        /* \"#utility.yul\":5534:5540   */\n      dup3\n        /* \"#utility.yul\":5530:5547   */\n      mul\n        /* \"#utility.yul\":5525:5528   */\n      dup6\n        /* \"#utility.yul\":5521:5548   */\n      add\n        /* \"#utility.yul\":5572:5651   */\n      tag_320\n        /* \"#utility.yul\":5645:5650   */\n      dup6\n        /* \"#utility.yul\":5572:5651   */\n      tag_201\n      jump\t// in\n    tag_320:\n        /* \"#utility.yul\":5674:5681   */\n      dup1\n        /* \"#utility.yul\":5705:5706   */\n      0x00\n        /* \"#utility.yul\":5690:6125   */\n    tag_321:\n        /* \"#utility.yul\":5715:5721   */\n      dup6\n        /* \"#utility.yul\":5712:5713   */\n      dup2\n        /* \"#utility.yul\":5709:5722   */\n      lt\n        /* \"#utility.yul\":5690:6125   */\n      iszero\n      tag_323\n      jumpi\n        /* \"#utility.yul\":5786:5795   */\n      dup5\n        /* \"#utility.yul\":5780:5784   */\n      dup5\n        /* \"#utility.yul\":5776:5796   */\n      sub\n        /* \"#utility.yul\":5771:5774   */\n      dup10\n        /* \"#utility.yul\":5764:5797   */\n      mstore\n        /* \"#utility.yul\":5837:5843   */\n      dup2\n        /* \"#utility.yul\":5831:5844   */\n      mload\n        /* \"#utility.yul\":5865:5975   */\n      tag_324\n        /* \"#utility.yul\":5970:5974   */\n      dup6\n        /* \"#utility.yul\":5955:5968   */\n      dup3\n        /* \"#utility.yul\":5865:5975   */\n      tag_213\n      jump\t// in\n    tag_324:\n        /* \"#utility.yul\":5857:5975   */\n      swap5\n      pop\n        /* \"#utility.yul\":5998:6081   */\n      tag_325\n        /* \"#utility.yul\":6074:6080   */\n      dup4\n        /* \"#utility.yul\":5998:6081   */\n      tag_214\n      jump\t// in\n    tag_325:\n        /* \"#utility.yul\":5988:6081   */\n      swap3\n      pop\n        /* \"#utility.yul\":6110:6114   */\n      0x20\n        /* \"#utility.yul\":6105:6108   */\n      dup11\n        /* \"#utility.yul\":6101:6115   */\n      add\n        /* \"#utility.yul\":6094:6115   */\n      swap10\n      pop\n        /* \"#utility.yul\":5750:6125   */\n      pop\n        /* \"#utility.yul\":5737:5738   */\n      0x01\n        /* \"#utility.yul\":5734:5735   */\n      dup2\n        /* \"#utility.yul\":5730:5739   */\n      add\n        /* \"#utility.yul\":5725:5739   */\n      swap1\n      pop\n        /* \"#utility.yul\":5690:6125   */\n      jump(tag_321)\n    tag_323:\n        /* \"#utility.yul\":5694:5708   */\n      pop\n        /* \"#utility.yul\":6141:6145   */\n      dup3\n        /* \"#utility.yul\":6134:6145   */\n      swap8\n      pop\n        /* \"#utility.yul\":6161:6164   */\n      dup8\n        /* \"#utility.yul\":6154:6164   */\n      swap6\n      pop\n        /* \"#utility.yul\":5245:6170   */\n      pop\n      pop\n      pop\n      pop\n      pop\n        /* \"#utility.yul\":5075:6170   */\n      swap3\n      swap2\n      pop\n      pop\n      jump\t// out\n        /* \"#utility.yul\":6176:6641   */\n    tag_21:\n        /* \"#utility.yul\":6365:6369   */\n      0x00\n        /* \"#utility.yul\":6403:6405   */\n      0x20\n        /* \"#utility.yul\":6392:6401   */\n      dup3\n        /* \"#utility.yul\":6388:6406   */\n      add\n        /* \"#utility.yul\":6380:6406   */\n      swap1\n      pop\n        /* \"#utility.yul\":6452:6461   */\n      dup2\n        /* \"#utility.yul\":6446:6450   */\n      dup2\n        /* \"#utility.yul\":6442:6462   */\n      sub\n        /* \"#utility.yul\":6438:6439   */\n      0x00\n        /* \"#utility.yul\":6427:6436   */\n      dup4\n        /* \"#utility.yul\":6423:6440   */\n      add\n        /* \"#utility.yul\":6416:6463   */\n      mstore\n        /* \"#utility.yul\":6480:6634   */\n      tag_327\n        /* \"#utility.yul\":6629:6633   */\n      dup2\n        /* \"#utility.yul\":6620:6626   */\n      dup5\n        /* \"#utility.yul\":6480:6634   */\n      tag_215\n      jump\t// in\n    tag_327:\n        /* \"#utility.yul\":6472:6634   */\n      swap1\n      pop\n        /* \"#utility.yul\":6176:6641   */\n      swap3\n      swap2\n      pop\n      pop\n      jump\t// out\n        /* \"#utility.yul\":6647:6769   */\n    tag_216:\n        /* \"#utility.yul\":6722:6728   */\n      0x00\n        /* \"#utility.yul\":6756:6761   */\n      dup2\n        /* \"#utility.yul\":6750:6762   */\n      mload\n        /* \"#utility.yul\":6740:6762   */\n      swap1\n      pop\n        /* \"#utility.yul\":6647:6769   */\n      swap2\n      swap1\n      pop\n      jump\t// out\n        /* \"#utility.yul\":6775:6967   */\n    tag_217:\n        /* \"#utility.yul\":6882:6893   */\n      0x00\n        /* \"#utility.yul\":6916:6922   */\n      dup3\n        /* \"#utility.yul\":6911:6914   */\n      dup3\n        /* \"#utility.yul\":6904:6923   */\n      mstore\n        /* \"#utility.yul\":6956:6960   */\n      0x20\n        /* \"#utility.yul\":6951:6954   */\n      dup3\n        /* \"#utility.yul\":6947:6961   */\n      add\n        /* \"#utility.yul\":6932:6961   */\n      swap1\n      pop\n        /* \"#utility.yul\":6775:6967   */\n      swap3\n      swap2\n      pop\n      pop\n      jump\t// out\n        /* \"#utility.yul\":6973:7113   */\n    tag_218:\n        /* \"#utility.yul\":7048:7052   */\n      0x00\n        /* \"#utility.yul\":7071:7074   */\n      dup2\n        /* \"#utility.yul\":7063:7074   */\n      swap1\n      pop\n        /* \"#utility.yul\":7101:7105   */\n      0x20\n        /* \"#utility.yul\":7096:7099   */\n      dup3\n        /* \"#utility.yul\":7092:7106   */\n      add\n        /* \"#utility.yul\":7084:7106   */\n      swap1\n      pop\n        /* \"#utility.yul\":6973:7113   */\n      swap2\n      swap1\n      pop\n      jump\t// out\n        /* \"#utility.yul\":7119:7223   */\n    tag_219:\n        /* \"#utility.yul\":7164:7171   */\n      0x00\n        /* \"#utility.yul\":7193:7217   */\n      tag_332\n        /* \"#utility.yul\":7211:7216   */\n      dup3\n        /* \"#utility.yul\":7193:7217   */\n      tag_195\n      jump\t// in\n    tag_332:\n        /* \"#utility.yul\":7182:7217   */\n      swap1\n      pop\n        /* \"#utility.yul\":7119:7223   */\n      swap2\n      swap1\n      pop\n      jump\t// out\n        /* \"#utility.yul\":7229:7361   */\n    tag_220:\n        /* \"#utility.yul\":7322:7354   */\n      tag_334\n        /* \"#utility.yul\":7348:7353   */\n      dup2\n        /* \"#utility.yul\":7322:7354   */\n      tag_219\n      jump\t// in\n    tag_334:\n        /* \"#utility.yul\":7317:7320   */\n      dup3\n        /* \"#utility.yul\":7310:7355   */\n      mstore\n        /* \"#utility.yul\":7229:7361   */\n      pop\n      pop\n      jump\t// out\n        /* \"#utility.yul\":7367:7578   */\n    tag_221:\n        /* \"#utility.yul\":7452:7462   */\n      0x00\n        /* \"#utility.yul\":7473:7535   */\n      tag_336\n        /* \"#utility.yul\":7531:7534   */\n      dup4\n        /* \"#utility.yul\":7523:7529   */\n      dup4\n        /* \"#utility.yul\":7473:7535   */\n      tag_220\n      jump\t// in\n    tag_336:\n        /* \"#utility.yul\":7567:7571   */\n      0x20\n        /* \"#utility.yul\":7562:7565   */\n      dup4\n        /* \"#utility.yul\":7558:7572   */\n      add\n        /* \"#utility.yul\":7544:7572   */\n      swap1\n      pop\n        /* \"#utility.yul\":7367:7578   */\n      swap3\n      swap2\n      pop\n      pop\n      jump\t// out\n        /* \"#utility.yul\":7584:7705   */\n    tag_222:\n        /* \"#utility.yul\":7662:7666   */\n      0x00\n        /* \"#utility.yul\":7694:7698   */\n      0x20\n        /* \"#utility.yul\":7689:7692   */\n      dup3\n        /* \"#utility.yul\":7685:7699   */\n      add\n        /* \"#utility.yul\":7677:7699   */\n      swap1\n      pop\n        /* \"#utility.yul\":7584:7705   */\n      swap2\n      swap1\n      pop\n      jump\t// out\n        /* \"#utility.yul\":7757:8553   */\n    tag_223:\n        /* \"#utility.yul\":7892:7895   */\n      0x00\n        /* \"#utility.yul\":7921:7983   */\n      tag_339\n        /* \"#utility.yul\":7977:7982   */\n      dup3\n        /* \"#utility.yul\":7921:7983   */\n      tag_216\n      jump\t// in\n    tag_339:\n        /* \"#utility.yul\":7999:8093   */\n      tag_340\n        /* \"#utility.yul\":8086:8092   */\n      dup2\n        /* \"#utility.yul\":8081:8084   */\n      dup6\n        /* \"#utility.yul\":7999:8093   */\n      tag_217\n      jump\t// in\n    tag_340:\n        /* \"#utility.yul\":7992:8093   */\n      swap4\n      pop\n        /* \"#utility.yul\":8117:8181   */\n      tag_341\n        /* \"#utility.yul\":8175:8180   */\n      dup4\n        /* \"#utility.yul\":8117:8181   */\n      tag_218\n      jump\t// in\n    tag_341:\n        /* \"#utility.yul\":8204:8211   */\n      dup1\n        /* \"#utility.yul\":8235:8236   */\n      0x00\n        /* \"#utility.yul\":8220:8528   */\n    tag_342:\n        /* \"#utility.yul\":8245:8251   */\n      dup4\n        /* \"#utility.yul\":8242:8243   */\n      dup2\n        /* \"#utility.yul\":8239:8252   */\n      lt\n        /* \"#utility.yul\":8220:8528   */\n      iszero\n      tag_344\n      jumpi\n        /* \"#utility.yul\":8321:8327   */\n      dup2\n        /* \"#utility.yul\":8315:8328   */\n      mload\n        /* \"#utility.yul\":8348:8427   */\n      tag_345\n        /* \"#utility.yul\":8423:8426   */\n      dup9\n        /* \"#utility.yul\":8408:8421   */\n      dup3\n        /* \"#utility.yul\":8348:8427   */\n      tag_221\n      jump\t// in\n    tag_345:\n        /* \"#utility.yul\":8341:8427   */\n      swap8\n      pop\n        /* \"#utility.yul\":8450:8518   */\n      tag_346\n        /* \"#utility.yul\":8511:8517   */\n      dup4\n        /* \"#utility.yul\":8450:8518   */\n      tag_222\n      jump\t// in\n    tag_346:\n        /* \"#utility.yul\":8440:8518   */\n      swap3\n      pop\n        /* \"#utility.yul\":8280:8528   */\n      pop\n        /* \"#utility.yul\":8267:8268   */\n      0x01\n        /* \"#utility.yul\":8264:8265   */\n      dup2\n        /* \"#utility.yul\":8260:8269   */\n      add\n        /* \"#utility.yul\":8255:8269   */\n      swap1\n      pop\n        /* \"#utility.yul\":8220:8528   */\n      jump(tag_342)\n    tag_344:\n        /* \"#utility.yul\":8224:8238   */\n      pop\n        /* \"#utility.yul\":8544:8547   */\n      dup6\n        /* \"#utility.yul\":8537:8547   */\n      swap4\n      pop\n        /* \"#utility.yul\":7897:8553   */\n      pop\n      pop\n      pop\n        /* \"#utility.yul\":7757:8553   */\n      swap3\n      swap2\n      pop\n      pop\n      jump\t// out\n        /* \"#utility.yul\":8559:8964   */\n    tag_26:\n        /* \"#utility.yul\":8718:8722   */\n      0x00\n        /* \"#utility.yul\":8756:8758   */\n      0x20\n        /* \"#utility.yul\":8745:8754   */\n      dup3\n        /* \"#utility.yul\":8741:8759   */\n      add\n        /* \"#utility.yul\":8733:8759   */\n      swap1\n      pop\n        /* \"#utility.yul\":8805:8814   */\n      dup2\n        /* \"#utility.yul\":8799:8803   */\n      dup2\n        /* \"#utility.yul\":8795:8815   */\n      sub\n        /* \"#utility.yul\":8791:8792   */\n      0x00\n        /* \"#utility.yul\":8780:8789   */\n      dup4\n        /* \"#utility.yul\":8776:8793   */\n      add\n        /* \"#utility.yul\":8769:8816   */\n      mstore\n        /* \"#utility.yul\":8833:8957   */\n      tag_348\n        /* \"#utility.yul\":8952:8956   */\n      dup2\n        /* \"#utility.yul\":8943:8949   */\n      dup5\n        /* \"#utility.yul\":8833:8957   */\n      tag_223\n      jump\t// in\n    tag_348:\n        /* \"#utility.yul\":8825:8957   */\n      swap1\n      pop\n        /* \"#utility.yul\":8559:8964   */\n      swap3\n      swap2\n      pop\n      pop\n      jump\t// out\n        /* \"#utility.yul\":8970:9088   */\n    tag_224:\n        /* \"#utility.yul\":9057:9081   */\n      tag_350\n        /* \"#utility.yul\":9075:9080   */\n      dup2\n        /* \"#utility.yul\":9057:9081   */\n      tag_196\n      jump\t// in\n    tag_350:\n        /* \"#utility.yul\":9052:9055   */\n      dup3\n        /* \"#utility.yul\":9045:9082   */\n      mstore\n        /* \"#utility.yul\":8970:9088   */\n      pop\n      pop\n      jump\t// out\n        /* \"#utility.yul\":9094:9316   */\n    tag_31:\n        /* \"#utility.yul\":9187:9191   */\n      0x00\n        /* \"#utility.yul\":9225:9227   */\n      0x20\n        /* \"#utility.yul\":9214:9223   */\n      dup3\n        /* \"#utility.yul\":9210:9228   */\n      add\n        /* \"#utility.yul\":9202:9228   */\n      swap1\n      pop\n        /* \"#utility.yul\":9238:9309   */\n      tag_352\n        /* \"#utility.yul\":9306:9307   */\n      0x00\n        /* \"#utility.yul\":9295:9304   */\n      dup4\n        /* \"#utility.yul\":9291:9308   */\n      add\n        /* \"#utility.yul\":9282:9288   */\n      dup5\n        /* \"#utility.yul\":9238:9309   */\n      tag_224\n      jump\t// in\n    tag_352:\n        /* \"#utility.yul\":9094:9316   */\n      swap3\n      swap2\n      pop\n      pop\n      jump\t// out\n        /* \"#utility.yul\":9322:9444   */\n    tag_225:\n        /* \"#utility.yul\":9395:9419   */\n      tag_354\n        /* \"#utility.yul\":9413:9418   */\n      dup2\n        /* \"#utility.yul\":9395:9419   */\n      tag_207\n      jump\t// in\n    tag_354:\n        /* \"#utility.yul\":9388:9393   */\n      dup2\n        /* \"#utility.yul\":9385:9420   */\n      eq\n        /* \"#utility.yul\":9375:9438   */\n      tag_355\n      jumpi\n        /* \"#utility.yul\":9434:9435   */\n      0x00\n        /* \"#utility.yul\":9431:9432   */\n      dup1\n        /* \"#utility.yul\":9424:9436   */\n      revert\n        /* \"#utility.yul\":9375:9438   */\n    tag_355:\n        /* \"#utility.yul\":9322:9444   */\n      pop\n      jump\t// out\n        /* \"#utility.yul\":9450:9589   */\n    tag_226:\n        /* \"#utility.yul\":9496:9501   */\n      0x00\n        /* \"#utility.yul\":9534:9540   */\n      dup2\n        /* \"#utility.yul\":9521:9541   */\n      calldataload\n        /* \"#utility.yul\":9512:9541   */\n      swap1\n      pop\n        /* \"#utility.yul\":9550:9583   */\n      tag_357\n        /* \"#utility.yul\":9577:9582   */\n      dup2\n        /* \"#utility.yul\":9550:9583   */\n      tag_225\n      jump\t// in\n    tag_357:\n        /* \"#utility.yul\":9450:9589   */\n      swap3\n      swap2\n      pop\n      pop\n      jump\t// out\n        /* \"#utility.yul\":9595:9924   */\n    tag_35:\n        /* \"#utility.yul\":9654:9660   */\n      0x00\n        /* \"#utility.yul\":9703:9705   */\n      0x20\n        /* \"#utility.yul\":9691:9700   */\n      dup3\n        /* \"#utility.yul\":9682:9689   */\n      dup5\n        /* \"#utility.yul\":9678:9701   */\n      sub\n        /* \"#utility.yul\":9674:9706   */\n      slt\n        /* \"#utility.yul\":9671:9790   */\n      iszero\n      tag_359\n      jumpi\n        /* \"#utility.yul\":9709:9788   */\n      tag_360\n      tag_193\n      jump\t// in\n    tag_360:\n        /* \"#utility.yul\":9671:9790   */\n    tag_359:\n        /* \"#utility.yul\":9829:9830   */\n      0x00\n        /* \"#utility.yul\":9854:9907   */\n      tag_361\n        /* \"#utility.yul\":9899:9906   */\n      dup5\n        /* \"#utility.yul\":9890:9896   */\n      dup3\n        /* \"#utility.yul\":9879:9888   */\n      dup6\n        /* \"#utility.yul\":9875:9897   */\n      add\n        /* \"#utility.yul\":9854:9907   */\n      tag_226\n      jump\t// in\n    tag_361:\n        /* \"#utility.yul\":9844:9907   */\n      swap2\n      pop\n        /* \"#utility.yul\":9800:9917   */\n      pop\n        /* \"#utility.yul\":9595:9924   */\n      swap3\n      swap2\n      pop\n      pop\n      jump\t// out\n        /* \"#utility.yul\":9930:10099   */\n    tag_227:\n        /* \"#utility.yul\":10014:10025   */\n      0x00\n        /* \"#utility.yul\":10048:10054   */\n      dup3\n        /* \"#utility.yul\":10043:10046   */\n      dup3\n        /* \"#utility.yul\":10036:10055   */\n      mstore\n        /* \"#utility.yul\":10088:10092   */\n      0x20\n        /* \"#utility.yul\":10083:10086   */\n      dup3\n        /* \"#utility.yul\":10079:10093   */\n      add\n        /* \"#utility.yul\":10064:10093   */\n      swap1\n      pop\n        /* \"#utility.yul\":9930:10099   */\n      swap3\n      swap2\n      pop\n      pop\n      jump\t// out\n        /* \"#utility.yul\":10105:10469   */\n    tag_228:\n        /* \"#utility.yul\":10193:10196   */\n      0x00\n        /* \"#utility.yul\":10221:10260   */\n      tag_364\n        /* \"#utility.yul\":10254:10259   */\n      dup3\n        /* \"#utility.yul\":10221:10260   */\n      tag_202\n      jump\t// in\n    tag_364:\n        /* \"#utility.yul\":10276:10347   */\n      tag_365\n        /* \"#utility.yul\":10340:10346   */\n      dup2\n        /* \"#utility.yul\":10335:10338   */\n      dup6\n        /* \"#utility.yul\":10276:10347   */\n      tag_227\n      jump\t// in\n    tag_365:\n        /* \"#utility.yul\":10269:10347   */\n      swap4\n      pop\n        /* \"#utility.yul\":10356:10408   */\n      tag_366\n        /* \"#utility.yul\":10401:10407   */\n      dup2\n        /* \"#utility.yul\":10396:10399   */\n      dup6\n        /* \"#utility.yul\":10389:10393   */\n      0x20\n        /* \"#utility.yul\":10382:10387   */\n      dup7\n        /* \"#utility.yul\":10378:10394   */\n      add\n        /* \"#utility.yul\":10356:10408   */\n      tag_204\n      jump\t// in\n    tag_366:\n        /* \"#utility.yul\":10433:10462   */\n      tag_367\n        /* \"#utility.yul\":10455:10461   */\n      dup2\n        /* \"#utility.yul\":10433:10462   */\n      tag_205\n      jump\t// in\n    tag_367:\n        /* \"#utility.yul\":10428:10431   */\n      dup5\n        /* \"#utility.yul\":10424:10463   */\n      add\n        /* \"#utility.yul\":10417:10463   */\n      swap2\n      pop\n        /* \"#utility.yul\":10197:10469   */\n      pop\n        /* \"#utility.yul\":10105:10469   */\n      swap3\n      swap2\n      pop\n      pop\n      jump\t// out\n        /* \"#utility.yul\":10475:10593   */\n    tag_229:\n        /* \"#utility.yul\":10562:10586   */\n      tag_369\n        /* \"#utility.yul\":10580:10585   */\n      dup2\n        /* \"#utility.yul\":10562:10586   */\n      tag_207\n      jump\t// in\n    tag_369:\n        /* \"#utility.yul\":10557:10560   */\n      dup3\n        /* \"#utility.yul\":10550:10587   */\n      mstore\n        /* \"#utility.yul\":10475:10593   */\n      pop\n      pop\n      jump\t// out\n        /* \"#utility.yul\":10599:10708   */\n    tag_230:\n        /* \"#utility.yul\":10680:10701   */\n      tag_371\n        /* \"#utility.yul\":10695:10700   */\n      dup2\n        /* \"#utility.yul\":10680:10701   */\n      tag_210\n      jump\t// in\n    tag_371:\n        /* \"#utility.yul\":10675:10678   */\n      dup3\n        /* \"#utility.yul\":10668:10702   */\n      mstore\n        /* \"#utility.yul\":10599:10708   */\n      pop\n      pop\n      jump\t// out\n        /* \"#utility.yul\":10714:11556   */\n    tag_38:\n        /* \"#utility.yul\":10955:10959   */\n      0x00\n        /* \"#utility.yul\":10993:10996   */\n      0xc0\n        /* \"#utility.yul\":10982:10991   */\n      dup3\n        /* \"#utility.yul\":10978:10997   */\n      add\n        /* \"#utility.yul\":10970:10997   */\n      swap1\n      pop\n        /* \"#utility.yul\":11043:11052   */\n      dup2\n        /* \"#utility.yul\":11037:11041   */\n      dup2\n        /* \"#utility.yul\":11033:11053   */\n      sub\n        /* \"#utility.yul\":11029:11030   */\n      0x00\n        /* \"#utility.yul\":11018:11027   */\n      dup4\n        /* \"#utility.yul\":11014:11031   */\n      add\n        /* \"#utility.yul\":11007:11054   */\n      mstore\n        /* \"#utility.yul\":11071:11149   */\n      tag_373\n        /* \"#utility.yul\":11144:11148   */\n      dup2\n        /* \"#utility.yul\":11135:11141   */\n      dup10\n        /* \"#utility.yul\":11071:11149   */\n      tag_228\n      jump\t// in\n    tag_373:\n        /* \"#utility.yul\":11063:11149   */\n      swap1\n      pop\n        /* \"#utility.yul\":11159:11231   */\n      tag_374\n        /* \"#utility.yul\":11227:11229   */\n      0x20\n        /* \"#utility.yul\":11216:11225   */\n      dup4\n        /* \"#utility.yul\":11212:11230   */\n      add\n        /* \"#utility.yul\":11203:11209   */\n      dup9\n        /* \"#utility.yul\":11159:11231   */\n      tag_229\n      jump\t// in\n    tag_374:\n        /* \"#utility.yul\":11241:11313   */\n      tag_375\n        /* \"#utility.yul\":11309:11311   */\n      0x40\n        /* \"#utility.yul\":11298:11307   */\n      dup4\n        /* \"#utility.yul\":11294:11312   */\n      add\n        /* \"#utility.yul\":11285:11291   */\n      dup8\n        /* \"#utility.yul\":11241:11313   */\n      tag_224\n      jump\t// in\n    tag_375:\n        /* \"#utility.yul\":11323:11389   */\n      tag_376\n        /* \"#utility.yul\":11385:11387   */\n      0x60\n        /* \"#utility.yul\":11374:11383   */\n      dup4\n        /* \"#utility.yul\":11370:11388   */\n      add\n        /* \"#utility.yul\":11361:11367   */\n      dup7\n        /* \"#utility.yul\":11323:11389   */\n      tag_230\n      jump\t// in\n    tag_376:\n        /* \"#utility.yul\":11399:11466   */\n      tag_377\n        /* \"#utility.yul\":11461:11464   */\n      0x80\n        /* \"#utility.yul\":11450:11459   */\n      dup4\n        /* \"#utility.yul\":11446:11465   */\n      add\n        /* \"#utility.yul\":11437:11443   */\n      dup6\n        /* \"#utility.yul\":11399:11466   */\n      tag_230\n      jump\t// in\n    tag_377:\n        /* \"#utility.yul\":11476:11549   */\n      tag_378\n        /* \"#utility.yul\":11544:11547   */\n      0xa0\n        /* \"#utility.yul\":11533:11542   */\n      dup4\n        /* \"#utility.yul\":11529:11548   */\n      add\n        /* \"#utility.yul\":11520:11526   */\n      dup5\n        /* \"#utility.yul\":11476:11549   */\n      tag_229\n      jump\t// in\n    tag_378:\n        /* \"#utility.yul\":10714:11556   */\n      swap8\n      swap7\n      pop\n      pop\n      pop\n      pop\n      pop\n      pop\n      pop\n      jump\t// out\n        /* \"#utility.yul\":11562:11679   */\n    tag_231:\n        /* \"#utility.yul\":11671:11672   */\n      0x00\n        /* \"#utility.yul\":11668:11669   */\n      dup1\n        /* \"#utility.yul\":11661:11673   */\n      revert\n        /* \"#utility.yul\":11685:11802   */\n    tag_232:\n        /* \"#utility.yul\":11794:11795   */\n      0x00\n        /* \"#utility.yul\":11791:11792   */\n      dup1\n        /* \"#utility.yul\":11784:11796   */\n      revert\n        /* \"#utility.yul\":11808:11988   */\n    tag_233:\n        /* \"#utility.yul\":11856:11933   */\n      0x4e487b7100000000000000000000000000000000000000000000000000000000\n        /* \"#utility.yul\":11853:11854   */\n      0x00\n        /* \"#utility.yul\":11846:11934   */\n      mstore\n        /* \"#utility.yul\":11953:11957   */\n      0x41\n        /* \"#utility.yul\":11950:11951   */\n      0x04\n        /* \"#utility.yul\":11943:11958   */\n      mstore\n        /* \"#utility.yul\":11977:11981   */\n      0x24\n        /* \"#utility.yul\":11974:11975   */\n      0x00\n        /* \"#utility.yul\":11967:11982   */\n      revert\n        /* \"#utility.yul\":11994:12275   */\n    tag_234:\n        /* \"#utility.yul\":12077:12104   */\n      tag_383\n        /* \"#utility.yul\":12099:12103   */\n      dup3\n        /* \"#utility.yul\":12077:12104   */\n      tag_205\n      jump\t// in\n    tag_383:\n        /* \"#utility.yul\":12069:12075   */\n      dup2\n        /* \"#utility.yul\":12065:12105   */\n      add\n        /* \"#utility.yul\":12207:12213   */\n      dup2\n        /* \"#utility.yul\":12195:12205   */\n      dup2\n        /* \"#utility.yul\":12192:12214   */\n      lt\n        /* \"#utility.yul\":12171:12189   */\n      0xffffffffffffffff\n        /* \"#utility.yul\":12159:12169   */\n      dup3\n        /* \"#utility.yul\":12156:12190   */\n      gt\n        /* \"#utility.yul\":12153:12215   */\n      or\n        /* \"#utility.yul\":12150:12238   */\n      iszero\n      tag_384\n      jumpi\n        /* \"#utility.yul\":12218:12236   */\n      tag_385\n      tag_233\n      jump\t// in\n    tag_385:\n        /* \"#utility.yul\":12150:12238   */\n    tag_384:\n        /* \"#utility.yul\":12258:12268   */\n      dup1\n        /* \"#utility.yul\":12254:12256   */\n      0x40\n        /* \"#utility.yul\":12247:12269   */\n      mstore\n        /* \"#utility.yul\":12037:12275   */\n      pop\n        /* \"#utility.yul\":11994:12275   */\n      pop\n      pop\n      jump\t// out\n        /* \"#utility.yul\":12281:12410   */\n    tag_235:\n        /* \"#utility.yul\":12315:12321   */\n      0x00\n        /* \"#utility.yul\":12342:12362   */\n      tag_387\n      tag_192\n      jump\t// in\n    tag_387:\n        /* \"#utility.yul\":12332:12362   */\n      swap1\n      pop\n        /* \"#utility.yul\":12371:12404   */\n      tag_388\n        /* \"#utility.yul\":12399:12403   */\n      dup3\n        /* \"#utility.yul\":12391:12397   */\n      dup3\n        /* \"#utility.yul\":12371:12404   */\n      tag_234\n      jump\t// in\n    tag_388:\n        /* \"#utility.yul\":12281:12410   */\n      swap2\n      swap1\n      pop\n      jump\t// out\n        /* \"#utility.yul\":12416:12724   */\n    tag_236:\n        /* \"#utility.yul\":12478:12482   */\n      0x00\n        /* \"#utility.yul\":12568:12586   */\n      0xffffffffffffffff\n        /* \"#utility.yul\":12560:12566   */\n      dup3\n        /* \"#utility.yul\":12557:12587   */\n      gt\n        /* \"#utility.yul\":12554:12610   */\n      iszero\n      tag_390\n      jumpi\n        /* \"#utility.yul\":12590:12608   */\n      tag_391\n      tag_233\n      jump\t// in\n    tag_391:\n        /* \"#utility.yul\":12554:12610   */\n    tag_390:\n        /* \"#utility.yul\":12628:12657   */\n      tag_392\n        /* \"#utility.yul\":12650:12656   */\n      dup3\n        /* \"#utility.yul\":12628:12657   */\n      tag_205\n      jump\t// in\n    tag_392:\n        /* \"#utility.yul\":12620:12657   */\n      swap1\n      pop\n        /* \"#utility.yul\":12712:12716   */\n      0x20\n        /* \"#utility.yul\":12706:12710   */\n      dup2\n        /* \"#utility.yul\":12702:12717   */\n      add\n        /* \"#utility.yul\":12694:12717   */\n      swap1\n      pop\n        /* \"#utility.yul\":12416:12724   */\n      swap2\n      swap1\n      pop\n      jump\t// out\n        /* \"#utility.yul\":12730:12884   */\n    tag_237:\n        /* \"#utility.yul\":12814:12820   */\n      dup3\n        /* \"#utility.yul\":12809:12812   */\n      dup2\n        /* \"#utility.yul\":12804:12807   */\n      dup4\n        /* \"#utility.yul\":12791:12821   */\n      calldatacopy\n        /* \"#utility.yul\":12876:12877   */\n      0x00\n        /* \"#utility.yul\":12867:12873   */\n      dup4\n        /* \"#utility.yul\":12862:12865   */\n      dup4\n        /* \"#utility.yul\":12858:12874   */\n      add\n        /* \"#utility.yul\":12851:12878   */\n      mstore\n        /* \"#utility.yul\":12730:12884   */\n      pop\n      pop\n      pop\n      jump\t// out\n        /* \"#utility.yul\":12890:13302   */\n    tag_238:\n        /* \"#utility.yul\":12968:12973   */\n      0x00\n        /* \"#utility.yul\":12993:13059   */\n      tag_395\n        /* \"#utility.yul\":13009:13058   */\n      tag_396\n        /* \"#utility.yul\":13051:13057   */\n      dup5\n        /* \"#utility.yul\":13009:13058   */\n      tag_236\n      jump\t// in\n    tag_396:\n        /* \"#utility.yul\":12993:13059   */\n      tag_235\n      jump\t// in\n    tag_395:\n        /* \"#utility.yul\":12984:13059   */\n      swap1\n      pop\n        /* \"#utility.yul\":13082:13088   */\n      dup3\n        /* \"#utility.yul\":13075:13080   */\n      dup2\n        /* \"#utility.yul\":13068:13089   */\n      mstore\n        /* \"#utility.yul\":13120:13124   */\n      0x20\n        /* \"#utility.yul\":13113:13118   */\n      dup2\n        /* \"#utility.yul\":13109:13125   */\n      add\n        /* \"#utility.yul\":13158:13161   */\n      dup5\n        /* \"#utility.yul\":13149:13155   */\n      dup5\n        /* \"#utility.yul\":13144:13147   */\n      dup5\n        /* \"#utility.yul\":13140:13156   */\n      add\n        /* \"#utility.yul\":13137:13162   */\n      gt\n        /* \"#utility.yul\":13134:13246   */\n      iszero\n      tag_397\n      jumpi\n        /* \"#utility.yul\":13165:13244   */\n      tag_398\n      tag_232\n      jump\t// in\n    tag_398:\n        /* \"#utility.yul\":13134:13246   */\n    tag_397:\n        /* \"#utility.yul\":13255:13296   */\n      tag_399\n        /* \"#utility.yul\":13289:13295   */\n      dup5\n        /* \"#utility.yul\":13284:13287   */\n      dup3\n        /* \"#utility.yul\":13279:13282   */\n      dup6\n        /* \"#utility.yul\":13255:13296   */\n      tag_237\n      jump\t// in\n    tag_399:\n        /* \"#utility.yul\":12974:13302   */\n      pop\n        /* \"#utility.yul\":12890:13302   */\n      swap4\n      swap3\n      pop\n      pop\n      pop\n      jump\t// out\n        /* \"#utility.yul\":13322:13662   */\n    tag_239:\n        /* \"#utility.yul\":13378:13383   */\n      0x00\n        /* \"#utility.yul\":13427:13430   */\n      dup3\n        /* \"#utility.yul\":13420:13424   */\n      0x1f\n        /* \"#utility.yul\":13412:13418   */\n      dup4\n        /* \"#utility.yul\":13408:13425   */\n      add\n        /* \"#utility.yul\":13404:13431   */\n      slt\n        /* \"#utility.yul\":13394:13516   */\n      tag_401\n      jumpi\n        /* \"#utility.yul\":13435:13514   */\n      tag_402\n      tag_231\n      jump\t// in\n    tag_402:\n        /* \"#utility.yul\":13394:13516   */\n    tag_401:\n        /* \"#utility.yul\":13552:13558   */\n      dup2\n        /* \"#utility.yul\":13539:13559   */\n      calldataload\n        /* \"#utility.yul\":13577:13656   */\n      tag_403\n        /* \"#utility.yul\":13652:13655   */\n      dup5\n        /* \"#utility.yul\":13644:13650   */\n      dup3\n        /* \"#utility.yul\":13637:13641   */\n      0x20\n        /* \"#utility.yul\":13629:13635   */\n      dup7\n        /* \"#utility.yul\":13625:13642   */\n      add\n        /* \"#utility.yul\":13577:13656   */\n      tag_238\n      jump\t// in\n    tag_403:\n        /* \"#utility.yul\":13568:13656   */\n      swap2\n      pop\n        /* \"#utility.yul\":13384:13662   */\n      pop\n        /* \"#utility.yul\":13322:13662   */\n      swap3\n      swap2\n      pop\n      pop\n      jump\t// out\n        /* \"#utility.yul\":13668:14467   */\n    tag_46:\n        /* \"#utility.yul\":13755:13761   */\n      0x00\n        /* \"#utility.yul\":13763:13769   */\n      dup1\n        /* \"#utility.yul\":13771:13777   */\n      0x00\n        /* \"#utility.yul\":13820:13822   */\n      0x60\n        /* \"#utility.yul\":13808:13817   */\n      dup5\n        /* \"#utility.yul\":13799:13806   */\n      dup7\n        /* \"#utility.yul\":13795:13818   */\n      sub\n        /* \"#utility.yul\":13791:13823   */\n      slt\n        /* \"#utility.yul\":13788:13907   */\n      iszero\n      tag_405\n      jumpi\n        /* \"#utility.yul\":13826:13905   */\n      tag_406\n      tag_193\n      jump\t// in\n    tag_406:\n        /* \"#utility.yul\":13788:13907   */\n    tag_405:\n        /* \"#utility.yul\":13974:13975   */\n      0x00\n        /* \"#utility.yul\":13963:13972   */\n      dup5\n        /* \"#utility.yul\":13959:13976   */\n      add\n        /* \"#utility.yul\":13946:13977   */\n      calldataload\n        /* \"#utility.yul\":14004:14022   */\n      0xffffffffffffffff\n        /* \"#utility.yul\":13996:14002   */\n      dup2\n        /* \"#utility.yul\":13993:14023   */\n      gt\n        /* \"#utility.yul\":13990:14107   */\n      iszero\n      tag_407\n      jumpi\n        /* \"#utility.yul\":14026:14105   */\n      tag_408\n      tag_194\n      jump\t// in\n    tag_408:\n        /* \"#utility.yul\":13990:14107   */\n    tag_407:\n        /* \"#utility.yul\":14131:14194   */\n      tag_409\n        /* \"#utility.yul\":14186:14193   */\n      dup7\n        /* \"#utility.yul\":14177:14183   */\n      dup3\n        /* \"#utility.yul\":14166:14175   */\n      dup8\n        /* \"#utility.yul\":14162:14184   */\n      add\n        /* \"#utility.yul\":14131:14194   */\n      tag_239\n      jump\t// in\n    tag_409:\n        /* \"#utility.yul\":14121:14194   */\n      swap4\n      pop\n        /* \"#utility.yul\":13917:14204   */\n      pop\n        /* \"#utility.yul\":14243:14245   */\n      0x20\n        /* \"#utility.yul\":14269:14322   */\n      tag_410\n        /* \"#utility.yul\":14314:14321   */\n      dup7\n        /* \"#utility.yul\":14305:14311   */\n      dup3\n        /* \"#utility.yul\":14294:14303   */\n      dup8\n        /* \"#utility.yul\":14290:14312   */\n      add\n        /* \"#utility.yul\":14269:14322   */\n      tag_226\n      jump\t// in\n    tag_410:\n        /* \"#utility.yul\":14259:14322   */\n      swap3\n      pop\n        /* \"#utility.yul\":14214:14332   */\n      pop\n        /* \"#utility.yul\":14371:14373   */\n      0x40\n        /* \"#utility.yul\":14397:14450   */\n      tag_411\n        /* \"#utility.yul\":14442:14449   */\n      dup7\n        /* \"#utility.yul\":14433:14439   */\n      dup3\n        /* \"#utility.yul\":14422:14431   */\n      dup8\n        /* \"#utility.yul\":14418:14440   */\n      add\n        /* \"#utility.yul\":14397:14450   */\n      tag_198\n      jump\t// in\n    tag_411:\n        /* \"#utility.yul\":14387:14450   */\n      swap2\n      pop\n        /* \"#utility.yul\":14342:14460   */\n      pop\n        /* \"#utility.yul\":13668:14467   */\n      swap3\n      pop\n      swap3\n      pop\n      swap3\n      jump\t// out\n        /* \"#utility.yul\":14473:14695   */\n    tag_54:\n        /* \"#utility.yul\":14566:14570   */\n      0x00\n        /* \"#utility.yul\":14604:14606   */\n      0x20\n        /* \"#utility.yul\":14593:14602   */\n      dup3\n        /* \"#utility.yul\":14589:14607   */\n      add\n        /* \"#utility.yul\":14581:14607   */\n      swap1\n      pop\n        /* \"#utility.yul\":14617:14688   */\n      tag_413\n        /* \"#utility.yul\":14685:14686   */\n      0x00\n        /* \"#utility.yul\":14674:14683   */\n      dup4\n        /* \"#utility.yul\":14670:14687   */\n      add\n        /* \"#utility.yul\":14661:14667   */\n      dup5\n        /* \"#utility.yul\":14617:14688   */\n      tag_229\n      jump\t// in\n    tag_413:\n        /* \"#utility.yul\":14473:14695   */\n      swap3\n      swap2\n      pop\n      pop\n      jump\t// out\n        /* \"#utility.yul\":14701:14843   */\n    tag_240:\n        /* \"#utility.yul\":14804:14836   */\n      tag_415\n        /* \"#utility.yul\":14830:14835   */\n      dup2\n        /* \"#utility.yul\":14804:14836   */\n      tag_219\n      jump\t// in\n    tag_415:\n        /* \"#utility.yul\":14799:14802   */\n      dup3\n        /* \"#utility.yul\":14792:14837   */\n      mstore\n        /* \"#utility.yul\":14701:14843   */\n      pop\n      pop\n      jump\t// out\n        /* \"#utility.yul\":14849:15103   */\n    tag_60:\n        /* \"#utility.yul\":14958:14962   */\n      0x00\n        /* \"#utility.yul\":14996:14998   */\n      0x20\n        /* \"#utility.yul\":14985:14994   */\n      dup3\n        /* \"#utility.yul\":14981:14999   */\n      add\n        /* \"#utility.yul\":14973:14999   */\n      swap1\n      pop\n        /* \"#utility.yul\":15009:15096   */\n      tag_417\n        /* \"#utility.yul\":15093:15094   */\n      0x00\n        /* \"#utility.yul\":15082:15091   */\n      dup4\n        /* \"#utility.yul\":15078:15095   */\n      add\n        /* \"#utility.yul\":15069:15075   */\n      dup5\n        /* \"#utility.yul\":15009:15096   */\n      tag_240\n      jump\t// in\n    tag_417:\n        /* \"#utility.yul\":14849:15103   */\n      swap3\n      swap2\n      pop\n      pop\n      jump\t// out\n        /* \"#utility.yul\":15109:15583   */\n    tag_69:\n        /* \"#utility.yul\":15177:15183   */\n      0x00\n        /* \"#utility.yul\":15185:15191   */\n      dup1\n        /* \"#utility.yul\":15234:15236   */\n      0x40\n        /* \"#utility.yul\":15222:15231   */\n      dup4\n        /* \"#utility.yul\":15213:15220   */\n      dup6\n        /* \"#utility.yul\":15209:15232   */\n      sub\n        /* \"#utility.yul\":15205:15237   */\n      slt\n        /* \"#utility.yul\":15202:15321   */\n      iszero\n      tag_419\n      jumpi\n        /* \"#utility.yul\":15240:15319   */\n      tag_420\n      tag_193\n      jump\t// in\n    tag_420:\n        /* \"#utility.yul\":15202:15321   */\n    tag_419:\n        /* \"#utility.yul\":15360:15361   */\n      0x00\n        /* \"#utility.yul\":15385:15438   */\n      tag_421\n        /* \"#utility.yul\":15430:15437   */\n      dup6\n        /* \"#utility.yul\":15421:15427   */\n      dup3\n        /* \"#utility.yul\":15410:15419   */\n      dup7\n        /* \"#utility.yul\":15406:15428   */\n      add\n        /* \"#utility.yul\":15385:15438   */\n      tag_198\n      jump\t// in\n    tag_421:\n        /* \"#utility.yul\":15375:15438   */\n      swap3\n      pop\n        /* \"#utility.yul\":15331:15448   */\n      pop\n        /* \"#utility.yul\":15487:15489   */\n      0x20\n        /* \"#utility.yul\":15513:15566   */\n      tag_422\n        /* \"#utility.yul\":15558:15565   */\n      dup6\n        /* \"#utility.yul\":15549:15555   */\n      dup3\n        /* \"#utility.yul\":15538:15547   */\n      dup7\n        /* \"#utility.yul\":15534:15556   */\n      add\n        /* \"#utility.yul\":15513:15566   */\n      tag_226\n      jump\t// in\n    tag_422:\n        /* \"#utility.yul\":15503:15566   */\n      swap2\n      pop\n        /* \"#utility.yul\":15458:15576   */\n      pop\n        /* \"#utility.yul\":15109:15583   */\n      swap3\n      pop\n      swap3\n      swap1\n      pop\n      jump\t// out\n        /* \"#utility.yul\":15589:15823   */\n    tag_241:\n        /* \"#utility.yul\":15729:15763   */\n      0x546869732066756e6374696f6e2063616e206f6e6c792062652063616c6c6564\n        /* \"#utility.yul\":15725:15726   */\n      0x00\n        /* \"#utility.yul\":15717:15723   */\n      dup3\n        /* \"#utility.yul\":15713:15727   */\n      add\n        /* \"#utility.yul\":15706:15764   */\n      mstore\n        /* \"#utility.yul\":15798:15815   */\n      0x20627920746865206d616e616765720000000000000000000000000000000000\n        /* \"#utility.yul\":15793:15795   */\n      0x20\n        /* \"#utility.yul\":15785:15791   */\n      dup3\n        /* \"#utility.yul\":15781:15796   */\n      add\n        /* \"#utility.yul\":15774:15816   */\n      mstore\n        /* \"#utility.yul\":15589:15823   */\n      pop\n      jump\t// out\n        /* \"#utility.yul\":15829:16195   */\n    tag_242:\n        /* \"#utility.yul\":15971:15974   */\n      0x00\n        /* \"#utility.yul\":15992:16059   */\n      tag_425\n        /* \"#utility.yul\":16056:16058   */\n      0x2f\n        /* \"#utility.yul\":16051:16054   */\n      dup4\n        /* \"#utility.yul\":15992:16059   */\n      tag_227\n      jump\t// in\n    tag_425:\n        /* \"#utility.yul\":15985:16059   */\n      swap2\n      pop\n        /* \"#utility.yul\":16068:16161   */\n      tag_426\n        /* \"#utility.yul\":16157:16160   */\n      dup3\n        /* \"#utility.yul\":16068:16161   */\n      tag_241\n      jump\t// in\n    tag_426:\n        /* \"#utility.yul\":16186:16188   */\n      0x40\n        /* \"#utility.yul\":16181:16184   */\n      dup3\n        /* \"#utility.yul\":16177:16189   */\n      add\n        /* \"#utility.yul\":16170:16189   */\n      swap1\n      pop\n        /* \"#utility.yul\":15829:16195   */\n      swap2\n      swap1\n      pop\n      jump\t// out\n        /* \"#utility.yul\":16201:16620   */\n    tag_79:\n        /* \"#utility.yul\":16367:16371   */\n      0x00\n        /* \"#utility.yul\":16405:16407   */\n      0x20\n        /* \"#utility.yul\":16394:16403   */\n      dup3\n        /* \"#utility.yul\":16390:16408   */\n      add\n        /* \"#utility.yul\":16382:16408   */\n      swap1\n      pop\n        /* \"#utility.yul\":16454:16463   */\n      dup2\n        /* \"#utility.yul\":16448:16452   */\n      dup2\n        /* \"#utility.yul\":16444:16464   */\n      sub\n        /* \"#utility.yul\":16440:16441   */\n      0x00\n        /* \"#utility.yul\":16429:16438   */\n      dup4\n        /* \"#utility.yul\":16425:16442   */\n      add\n        /* \"#utility.yul\":16418:16465   */\n      mstore\n        /* \"#utility.yul\":16482:16613   */\n      tag_428\n        /* \"#utility.yul\":16608:16612   */\n      dup2\n        /* \"#utility.yul\":16482:16613   */\n      tag_242\n      jump\t// in\n    tag_428:\n        /* \"#utility.yul\":16474:16613   */\n      swap1\n      pop\n        /* \"#utility.yul\":16201:16620   */\n      swap2\n      swap1\n      pop\n      jump\t// out\n        /* \"#utility.yul\":16626:16846   */\n    tag_243:\n        /* \"#utility.yul\":16766:16800   */\n      0x54686520676976656e2061646472657373206973206e6f742061206261636b65\n        /* \"#utility.yul\":16762:16763   */\n      0x00\n        /* \"#utility.yul\":16754:16760   */\n      dup3\n        /* \"#utility.yul\":16750:16764   */\n      add\n        /* \"#utility.yul\":16743:16801   */\n      mstore\n        /* \"#utility.yul\":16835:16838   */\n      0x7200000000000000000000000000000000000000000000000000000000000000\n        /* \"#utility.yul\":16830:16832   */\n      0x20\n        /* \"#utility.yul\":16822:16828   */\n      dup3\n        /* \"#utility.yul\":16818:16833   */\n      add\n        /* \"#utility.yul\":16811:16839   */\n      mstore\n        /* \"#utility.yul\":16626:16846   */\n      pop\n      jump\t// out\n        /* \"#utility.yul\":16852:17218   */\n    tag_244:\n        /* \"#utility.yul\":16994:16997   */\n      0x00\n        /* \"#utility.yul\":17015:17082   */\n      tag_431\n        /* \"#utility.yul\":17079:17081   */\n      0x21\n        /* \"#utility.yul\":17074:17077   */\n      dup4\n        /* \"#utility.yul\":17015:17082   */\n      tag_227\n      jump\t// in\n    tag_431:\n        /* \"#utility.yul\":17008:17082   */\n      swap2\n      pop\n        /* \"#utility.yul\":17091:17184   */\n      tag_432\n        /* \"#utility.yul\":17180:17183   */\n      dup3\n        /* \"#utility.yul\":17091:17184   */\n      tag_243\n      jump\t// in\n    tag_432:\n        /* \"#utility.yul\":17209:17211   */\n      0x40\n        /* \"#utility.yul\":17204:17207   */\n      dup3\n        /* \"#utility.yul\":17200:17212   */\n      add\n        /* \"#utility.yul\":17193:17212   */\n      swap1\n      pop\n        /* \"#utility.yul\":16852:17218   */\n      swap2\n      swap1\n      pop\n      jump\t// out\n        /* \"#utility.yul\":17224:17643   */\n    tag_83:\n        /* \"#utility.yul\":17390:17394   */\n      0x00\n        /* \"#utility.yul\":17428:17430   */\n      0x20\n        /* \"#utility.yul\":17417:17426   */\n      dup3\n        /* \"#utility.yul\":17413:17431   */\n      add\n        /* \"#utility.yul\":17405:17431   */\n      swap1\n      pop\n        /* \"#utility.yul\":17477:17486   */\n      dup2\n        /* \"#utility.yul\":17471:17475   */\n      dup2\n        /* \"#utility.yul\":17467:17487   */\n      sub\n        /* \"#utility.yul\":17463:17464   */\n      0x00\n        /* \"#utility.yul\":17452:17461   */\n      dup4\n        /* \"#utility.yul\":17448:17465   */\n      add\n        /* \"#utility.yul\":17441:17488   */\n      mstore\n        /* \"#utility.yul\":17505:17636   */\n      tag_434\n        /* \"#utility.yul\":17631:17635   */\n      dup2\n        /* \"#utility.yul\":17505:17636   */\n      tag_244\n      jump\t// in\n    tag_434:\n        /* \"#utility.yul\":17497:17636   */\n      swap1\n      pop\n        /* \"#utility.yul\":17224:17643   */\n      swap2\n      swap1\n      pop\n      jump\t// out\n        /* \"#utility.yul\":17649:17829   */\n    tag_245:\n        /* \"#utility.yul\":17697:17774   */\n      0x4e487b7100000000000000000000000000000000000000000000000000000000\n        /* \"#utility.yul\":17694:17695   */\n      0x00\n        /* \"#utility.yul\":17687:17775   */\n      mstore\n        /* \"#utility.yul\":17794:17798   */\n      0x22\n        /* \"#utility.yul\":17791:17792   */\n      0x04\n        /* \"#utility.yul\":17784:17799   */\n      mstore\n        /* \"#utility.yul\":17818:17822   */\n      0x24\n        /* \"#utility.yul\":17815:17816   */\n      0x00\n        /* \"#utility.yul\":17808:17823   */\n      revert\n        /* \"#utility.yul\":17835:18155   */\n    tag_88:\n        /* \"#utility.yul\":17879:17885   */\n      0x00\n        /* \"#utility.yul\":17916:17917   */\n      0x02\n        /* \"#utility.yul\":17910:17914   */\n      dup3\n        /* \"#utility.yul\":17906:17918   */\n      div\n        /* \"#utility.yul\":17896:17918   */\n      swap1\n      pop\n        /* \"#utility.yul\":17963:17964   */\n      0x01\n        /* \"#utility.yul\":17957:17961   */\n      dup3\n        /* \"#utility.yul\":17953:17965   */\n      and\n        /* \"#utility.yul\":17984:18002   */\n      dup1\n        /* \"#utility.yul\":17974:18055   */\n      tag_437\n      jumpi\n        /* \"#utility.yul\":18040:18044   */\n      0x7f\n        /* \"#utility.yul\":18032:18038   */\n      dup3\n        /* \"#utility.yul\":18028:18045   */\n      and\n        /* \"#utility.yul\":18018:18045   */\n      swap2\n      pop\n        /* \"#utility.yul\":17974:18055   */\n    tag_437:\n        /* \"#utility.yul\":18102:18104   */\n      0x20\n        /* \"#utility.yul\":18094:18100   */\n      dup3\n        /* \"#utility.yul\":18091:18105   */\n      lt\n        /* \"#utility.yul\":18071:18089   */\n      dup2\n        /* \"#utility.yul\":18068:18106   */\n      sub\n        /* \"#utility.yul\":18065:18149   */\n      tag_438\n      jumpi\n        /* \"#utility.yul\":18121:18139   */\n      tag_439\n      tag_245\n      jump\t// in\n    tag_439:\n        /* \"#utility.yul\":18065:18149   */\n    tag_438:\n        /* \"#utility.yul\":17886:18155   */\n      pop\n        /* \"#utility.yul\":17835:18155   */\n      swap2\n      swap1\n      pop\n      jump\t// out\n        /* \"#utility.yul\":18161:18398   */\n    tag_246:\n        /* \"#utility.yul\":18301:18335   */\n      0x596f75206e65656420746f2073656e64206174206c6561737420746865206d69\n        /* \"#utility.yul\":18297:18298   */\n      0x00\n        /* \"#utility.yul\":18289:18295   */\n      dup3\n        /* \"#utility.yul\":18285:18299   */\n      add\n        /* \"#utility.yul\":18278:18336   */\n      mstore\n        /* \"#utility.yul\":18370:18390   */\n      0x6e696d756d20636f6e747269627574696f6e0000000000000000000000000000\n        /* \"#utility.yul\":18365:18367   */\n      0x20\n        /* \"#utility.yul\":18357:18363   */\n      dup3\n        /* \"#utility.yul\":18353:18368   */\n      add\n        /* \"#utility.yul\":18346:18391   */\n      mstore\n        /* \"#utility.yul\":18161:18398   */\n      pop\n      jump\t// out\n        /* \"#utility.yul\":18404:18770   */\n    tag_247:\n        /* \"#utility.yul\":18546:18549   */\n      0x00\n        /* \"#utility.yul\":18567:18634   */\n      tag_442\n        /* \"#utility.yul\":18631:18633   */\n      0x32\n        /* \"#utility.yul\":18626:18629   */\n      dup4\n        /* \"#utility.yul\":18567:18634   */\n      tag_227\n      jump\t// in\n    tag_442:\n        /* \"#utility.yul\":18560:18634   */\n      swap2\n      pop\n        /* \"#utility.yul\":18643:18736   */\n      tag_443\n        /* \"#utility.yul\":18732:18735   */\n      dup3\n        /* \"#utility.yul\":18643:18736   */\n      tag_246\n      jump\t// in\n    tag_443:\n        /* \"#utility.yul\":18761:18763   */\n      0x40\n        /* \"#utility.yul\":18756:18759   */\n      dup3\n        /* \"#utility.yul\":18752:18764   */\n      add\n        /* \"#utility.yul\":18745:18764   */\n      swap1\n      pop\n        /* \"#utility.yul\":18404:18770   */\n      swap2\n      swap1\n      pop\n      jump\t// out\n        /* \"#utility.yul\":18776:19195   */\n    tag_122:\n        /* \"#utility.yul\":18942:18946   */\n      0x00\n        /* \"#utility.yul\":18980:18982   */\n      0x20\n        /* \"#utility.yul\":18969:18978   */\n      dup3\n        /* \"#utility.yul\":18965:18983   */\n      add\n        /* \"#utility.yul\":18957:18983   */\n      swap1\n      pop\n        /* \"#utility.yul\":19029:19038   */\n      dup2\n        /* \"#utility.yul\":19023:19027   */\n      dup2\n        /* \"#utility.yul\":19019:19039   */\n      sub\n        /* \"#utility.yul\":19015:19016   */\n      0x00\n        /* \"#utility.yul\":19004:19013   */\n      dup4\n        /* \"#utility.yul\":19000:19017   */\n      add\n        /* \"#utility.yul\":18993:19040   */\n      mstore\n        /* \"#utility.yul\":19057:19188   */\n      tag_445\n        /* \"#utility.yul\":19183:19187   */\n      dup2\n        /* \"#utility.yul\":19057:19188   */\n      tag_247\n      jump\t// in\n    tag_445:\n        /* \"#utility.yul\":19049:19188   */\n      swap1\n      pop\n        /* \"#utility.yul\":18776:19195   */\n      swap2\n      swap1\n      pop\n      jump\t// out\n        /* \"#utility.yul\":19201:19381   */\n    tag_248:\n        /* \"#utility.yul\":19249:19326   */\n      0x4e487b7100000000000000000000000000000000000000000000000000000000\n        /* \"#utility.yul\":19246:19247   */\n      0x00\n        /* \"#utility.yul\":19239:19327   */\n      mstore\n        /* \"#utility.yul\":19346:19350   */\n      0x11\n        /* \"#utility.yul\":19343:19344   */\n      0x04\n        /* \"#utility.yul\":19336:19351   */\n      mstore\n        /* \"#utility.yul\":19370:19374   */\n      0x24\n        /* \"#utility.yul\":19367:19368   */\n      0x00\n        /* \"#utility.yul\":19360:19375   */\n      revert\n        /* \"#utility.yul\":19387:19692   */\n    tag_125:\n        /* \"#utility.yul\":19427:19430   */\n      0x00\n        /* \"#utility.yul\":19446:19466   */\n      tag_448\n        /* \"#utility.yul\":19464:19465   */\n      dup3\n        /* \"#utility.yul\":19446:19466   */\n      tag_207\n      jump\t// in\n    tag_448:\n        /* \"#utility.yul\":19441:19466   */\n      swap2\n      pop\n        /* \"#utility.yul\":19480:19500   */\n      tag_449\n        /* \"#utility.yul\":19498:19499   */\n      dup4\n        /* \"#utility.yul\":19480:19500   */\n      tag_207\n      jump\t// in\n    tag_449:\n        /* \"#utility.yul\":19475:19500   */\n      swap3\n      pop\n        /* \"#utility.yul\":19634:19635   */\n      dup3\n        /* \"#utility.yul\":19566:19632   */\n      0xffffffffffffffffffffffffffffffffffffffffffffffffffffffffffffffff\n        /* \"#utility.yul\":19562:19636   */\n      sub\n        /* \"#utility.yul\":19559:19560   */\n      dup3\n        /* \"#utility.yul\":19556:19637   */\n      gt\n        /* \"#utility.yul\":19553:19660   */\n      iszero\n      tag_450\n      jumpi\n        /* \"#utility.yul\":19640:19658   */\n      tag_451\n      tag_248\n      jump\t// in\n    tag_451:\n        /* \"#utility.yul\":19553:19660   */\n    tag_450:\n        /* \"#utility.yul\":19684:19685   */\n      dup3\n        /* \"#utility.yul\":19681:19682   */\n      dup3\n        /* \"#utility.yul\":19677:19686   */\n      add\n        /* \"#utility.yul\":19670:19686   */\n      swap1\n      pop\n        /* \"#utility.yul\":19387:19692   */\n      swap3\n      swap2\n      pop\n      pop\n      jump\t// out\n        /* \"#utility.yul\":19698:19929   */\n    tag_249:\n        /* \"#utility.yul\":19838:19872   */\n      0x546869732066756e6374696f6e2063616e206f6e6c792062652063616c6c6564\n        /* \"#utility.yul\":19834:19835   */\n      0x00\n        /* \"#utility.yul\":19826:19832   */\n      dup3\n        /* \"#utility.yul\":19822:19836   */\n      add\n        /* \"#utility.yul\":19815:19873   */\n      mstore\n        /* \"#utility.yul\":19907:19921   */\n      0x2062792061206261636b65720000000000000000000000000000000000000000\n        /* \"#utility.yul\":19902:19904   */\n      0x20\n        /* \"#utility.yul\":19894:19900   */\n      dup3\n        /* \"#utility.yul\":19890:19905   */\n      add\n        /* \"#utility.yul\":19883:19922   */\n      mstore\n        /* \"#utility.yul\":19698:19929   */\n      pop\n      jump\t// out\n        /* \"#utility.yul\":19935:20301   */\n    tag_250:\n        /* \"#utility.yul\":20077:20080   */\n      0x00\n        /* \"#utility.yul\":20098:20165   */\n      tag_454\n        /* \"#utility.yul\":20162:20164   */\n      0x2c\n        /* \"#utility.yul\":20157:20160   */\n      dup4\n        /* \"#utility.yul\":20098:20165   */\n      tag_227\n      jump\t// in\n    tag_454:\n        /* \"#utility.yul\":20091:20165   */\n      swap2\n      pop\n        /* \"#utility.yul\":20174:20267   */\n      tag_455\n        /* \"#utility.yul\":20263:20266   */\n      dup3\n        /* \"#utility.yul\":20174:20267   */\n      tag_249\n      jump\t// in\n    tag_455:\n        /* \"#utility.yul\":20292:20294   */\n      0x40\n        /* \"#utility.yul\":20287:20290   */\n      dup3\n        /* \"#utility.yul\":20283:20295   */\n      add\n        /* \"#utility.yul\":20276:20295   */\n      swap1\n      pop\n        /* \"#utility.yul\":19935:20301   */\n      swap2\n      swap1\n      pop\n      jump\t// out\n        /* \"#utility.yul\":20307:20726   */\n    tag_142:\n        /* \"#utility.yul\":20473:20477   */\n      0x00\n        /* \"#utility.yul\":20511:20513   */\n      0x20\n        /* \"#utility.yul\":20500:20509   */\n      dup3\n        /* \"#utility.yul\":20496:20514   */\n      add\n        /* \"#utility.yul\":20488:20514   */\n      swap1\n      pop\n        /* \"#utility.yul\":20560:20569   */\n      dup2\n        /* \"#utility.yul\":20554:20558   */\n      dup2\n        /* \"#utility.yul\":20550:20570   */\n      sub\n        /* \"#utility.yul\":20546:20547   */\n      0x00\n        /* \"#utility.yul\":20535:20544   */\n      dup4\n        /* \"#utility.yul\":20531:20548   */\n      add\n        /* \"#utility.yul\":20524:20571   */\n      mstore\n        /* \"#utility.yul\":20588:20719   */\n      tag_457\n        /* \"#utility.yul\":20714:20718   */\n      dup2\n        /* \"#utility.yul\":20588:20719   */\n      tag_250\n      jump\t// in\n    tag_457:\n        /* \"#utility.yul\":20580:20719   */\n      swap1\n      pop\n        /* \"#utility.yul\":20307:20726   */\n      swap2\n      swap1\n      pop\n      jump\t// out\n        /* \"#utility.yul\":20732:20912   */\n    tag_146:\n        /* \"#utility.yul\":20780:20857   */\n      0x4e487b7100000000000000000000000000000000000000000000000000000000\n        /* \"#utility.yul\":20777:20778   */\n      0x00\n        /* \"#utility.yul\":20770:20858   */\n      mstore\n        /* \"#utility.yul\":20877:20881   */\n      0x32\n        /* \"#utility.yul\":20874:20875   */\n      0x04\n        /* \"#utility.yul\":20867:20882   */\n      mstore\n        /* \"#utility.yul\":20901:20905   */\n      0x24\n        /* \"#utility.yul\":20898:20899   */\n      0x00\n        /* \"#utility.yul\":20891:20906   */\n      revert\n        /* \"#utility.yul\":20976:22293   */\n    tag_251:\n        /* \"#utility.yul\":21091:21094   */\n      0x00\n        /* \"#utility.yul\":21127:21131   */\n      0xc0\n        /* \"#utility.yul\":21122:21125   */\n      dup4\n        /* \"#utility.yul\":21118:21132   */\n      add\n        /* \"#utility.yul\":21221:21225   */\n      0x00\n        /* \"#utility.yul\":21214:21219   */\n      dup4\n        /* \"#utility.yul\":21210:21226   */\n      add\n        /* \"#utility.yul\":21204:21227   */\n      mload\n        /* \"#utility.yul\":21274:21277   */\n      dup5\n        /* \"#utility.yul\":21268:21272   */\n      dup3\n        /* \"#utility.yul\":21264:21278   */\n      sub\n        /* \"#utility.yul\":21257:21261   */\n      0x00\n        /* \"#utility.yul\":21252:21255   */\n      dup7\n        /* \"#utility.yul\":21248:21262   */\n      add\n        /* \"#utility.yul\":21241:21279   */\n      mstore\n        /* \"#utility.yul\":21300:21373   */\n      tag_460\n        /* \"#utility.yul\":21368:21372   */\n      dup3\n        /* \"#utility.yul\":21354:21366   */\n      dup3\n        /* \"#utility.yul\":21300:21373   */\n      tag_206\n      jump\t// in\n    tag_460:\n        /* \"#utility.yul\":21292:21373   */\n      swap2\n      pop\n        /* \"#utility.yul\":21142:21384   */\n      pop\n        /* \"#utility.yul\":21467:21471   */\n      0x20\n        /* \"#utility.yul\":21460:21465   */\n      dup4\n        /* \"#utility.yul\":21456:21472   */\n      add\n        /* \"#utility.yul\":21450:21473   */\n      mload\n        /* \"#utility.yul\":21486:21549   */\n      tag_461\n        /* \"#utility.yul\":21543:21547   */\n      0x20\n        /* \"#utility.yul\":21538:21541   */\n      dup7\n        /* \"#utility.yul\":21534:21548   */\n      add\n        /* \"#utility.yul\":21520:21532   */\n      dup3\n        /* \"#utility.yul\":21486:21549   */\n      tag_208\n      jump\t// in\n    tag_461:\n        /* \"#utility.yul\":21394:21559   */\n      pop\n        /* \"#utility.yul\":21646:21650   */\n      0x40\n        /* \"#utility.yul\":21639:21644   */\n      dup4\n        /* \"#utility.yul\":21635:21651   */\n      add\n        /* \"#utility.yul\":21629:21652   */\n      mload\n        /* \"#utility.yul\":21665:21728   */\n      tag_462\n        /* \"#utility.yul\":21722:21726   */\n      0x40\n        /* \"#utility.yul\":21717:21720   */\n      dup7\n        /* \"#utility.yul\":21713:21727   */\n      add\n        /* \"#utility.yul\":21699:21711   */\n      dup3\n        /* \"#utility.yul\":21665:21728   */\n      tag_209\n      jump\t// in\n    tag_462:\n        /* \"#utility.yul\":21569:21738   */\n      pop\n        /* \"#utility.yul\":21827:21831   */\n      0x60\n        /* \"#utility.yul\":21820:21825   */\n      dup4\n        /* \"#utility.yul\":21816:21832   */\n      add\n        /* \"#utility.yul\":21810:21833   */\n      mload\n        /* \"#utility.yul\":21846:21903   */\n      tag_463\n        /* \"#utility.yul\":21897:21901   */\n      0x60\n        /* \"#utility.yul\":21892:21895   */\n      dup7\n        /* \"#utility.yul\":21888:21902   */\n      add\n        /* \"#utility.yul\":21874:21886   */\n      dup3\n        /* \"#utility.yul\":21846:21903   */\n      tag_211\n      jump\t// in\n    tag_463:\n        /* \"#utility.yul\":21748:21913   */\n      pop\n        /* \"#utility.yul\":22001:22005   */\n      0x80\n        /* \"#utility.yul\":21994:21999   */\n      dup4\n        /* \"#utility.yul\":21990:22006   */\n      add\n        /* \"#utility.yul\":21984:22007   */\n      mload\n        /* \"#utility.yul\":22020:22077   */\n      tag_464\n        /* \"#utility.yul\":22071:22075   */\n      0x80\n        /* \"#utility.yul\":22066:22069   */\n      dup7\n        /* \"#utility.yul\":22062:22076   */\n      add\n        /* \"#utility.yul\":22048:22060   */\n      dup3\n        /* \"#utility.yul\":22020:22077   */\n      tag_211\n      jump\t// in\n    tag_464:\n        /* \"#utility.yul\":21923:22087   */\n      pop\n        /* \"#utility.yul\":22174:22178   */\n      0xa0\n        /* \"#utility.yul\":22167:22172   */\n      dup4\n        /* \"#utility.yul\":22163:22179   */\n      add\n        /* \"#utility.yul\":22157:22180   */\n      mload\n        /* \"#utility.yul\":22193:22256   */\n      tag_465\n        /* \"#utility.yul\":22250:22254   */\n      0xa0\n        /* \"#utility.yul\":22245:22248   */\n      dup7\n        /* \"#utility.yul\":22241:22255   */\n      add\n        /* \"#utility.yul\":22227:22239   */\n      dup3\n        /* \"#utility.yul\":22193:22256   */\n      tag_208\n      jump\t// in\n    tag_465:\n        /* \"#utility.yul\":22097:22266   */\n      pop\n        /* \"#utility.yul\":22283:22287   */\n      dup1\n        /* \"#utility.yul\":22276:22287   */\n      swap2\n      pop\n        /* \"#utility.yul\":21096:22293   */\n      pop\n        /* \"#utility.yul\":20976:22293   */\n      swap3\n      swap2\n      pop\n      pop\n      jump\t// out\n        /* \"#utility.yul\":22299:22664   */\n    tag_162:\n        /* \"#utility.yul\":22438:22442   */\n      0x00\n        /* \"#utility.yul\":22476:22478   */\n      0x20\n        /* \"#utility.yul\":22465:22474   */\n      dup3\n        /* \"#utility.yul\":22461:22479   */\n      add\n        /* \"#utility.yul\":22453:22479   */\n      swap1\n      pop\n        /* \"#utility.yul\":22525:22534   */\n      dup2\n        /* \"#utility.yul\":22519:22523   */\n      dup2\n        /* \"#utility.yul\":22515:22535   */\n      sub\n        /* \"#utility.yul\":22511:22512   */\n      0x00\n        /* \"#utility.yul\":22500:22509   */\n      dup4\n        /* \"#utility.yul\":22496:22513   */\n      add\n        /* \"#utility.yul\":22489:22536   */\n      mstore\n        /* \"#utility.yul\":22553:22657   */\n      tag_467\n        /* \"#utility.yul\":22652:22656   */\n      dup2\n        /* \"#utility.yul\":22643:22649   */\n      dup5\n        /* \"#utility.yul\":22553:22657   */\n      tag_251\n      jump\t// in\n    tag_467:\n        /* \"#utility.yul\":22545:22657   */\n      swap1\n      pop\n        /* \"#utility.yul\":22299:22664   */\n      swap3\n      swap2\n      pop\n      pop\n      jump\t// out\n        /* \"#utility.yul\":22670:22811   */\n    tag_252:\n        /* \"#utility.yul\":22719:22723   */\n      0x00\n        /* \"#utility.yul\":22742:22745   */\n      dup2\n        /* \"#utility.yul\":22734:22745   */\n      swap1\n      pop\n        /* \"#utility.yul\":22765:22768   */\n      dup2\n        /* \"#utility.yul\":22762:22763   */\n      0x00\n        /* \"#utility.yul\":22755:22769   */\n      mstore\n        /* \"#utility.yul\":22799:22803   */\n      0x20\n        /* \"#utility.yul\":22796:22797   */\n      0x00\n        /* \"#utility.yul\":22786:22804   */\n      keccak256\n        /* \"#utility.yul\":22778:22804   */\n      swap1\n      pop\n        /* \"#utility.yul\":22670:22811   */\n      swap2\n      swap1\n      pop\n      jump\t// out\n        /* \"#utility.yul\":22841:23623   */\n    tag_253:\n        /* \"#utility.yul\":22916:22919   */\n      0x00\n        /* \"#utility.yul\":22953:22958   */\n      dup2\n        /* \"#utility.yul\":22947:22959   */\n      sload\n        /* \"#utility.yul\":22982:23018   */\n      tag_470\n        /* \"#utility.yul\":23008:23017   */\n      dup2\n        /* \"#utility.yul\":22982:23018   */\n      tag_88\n      jump\t// in\n    tag_470:\n        /* \"#utility.yul\":23034:23095   */\n      tag_471\n        /* \"#utility.yul\":23088:23094   */\n      dup2\n        /* \"#utility.yul\":23083:23086   */\n      dup7\n        /* \"#utility.yul\":23034:23095   */\n      tag_203\n      jump\t// in\n    tag_471:\n        /* \"#utility.yul\":23027:23095   */\n      swap5\n      pop\n        /* \"#utility.yul\":23126:23127   */\n      0x01\n        /* \"#utility.yul\":23115:23124   */\n      dup3\n        /* \"#utility.yul\":23111:23128   */\n      and\n        /* \"#utility.yul\":23142:23143   */\n      0x00\n        /* \"#utility.yul\":23137:23272   */\n      dup2\n      eq\n      tag_473\n      jumpi\n        /* \"#utility.yul\":23286:23287   */\n      0x01\n        /* \"#utility.yul\":23281:23617   */\n      dup2\n      eq\n      tag_474\n      jumpi\n        /* \"#utility.yul\":23104:23617   */\n      jump(tag_472)\n        /* \"#utility.yul\":23137:23272   */\n    tag_473:\n        /* \"#utility.yul\":23221:23225   */\n      0xff\n        /* \"#utility.yul\":23217:23226   */\n      not\n        /* \"#utility.yul\":23206:23215   */\n      dup4\n        /* \"#utility.yul\":23202:23227   */\n      and\n        /* \"#utility.yul\":23197:23200   */\n      dup7\n        /* \"#utility.yul\":23190:23228   */\n      mstore\n        /* \"#utility.yul\":23257:23261   */\n      0x20\n        /* \"#utility.yul\":23252:23255   */\n      dup7\n        /* \"#utility.yul\":23248:23262   */\n      add\n        /* \"#utility.yul\":23241:23262   */\n      swap4\n      pop\n        /* \"#utility.yul\":23137:23272   */\n      jump(tag_472)\n        /* \"#utility.yul\":23281:23617   */\n    tag_474:\n        /* \"#utility.yul\":23348:23386   */\n      tag_475\n        /* \"#utility.yul\":23380:23385   */\n      dup6\n        /* \"#utility.yul\":23348:23386   */\n      tag_252\n      jump\t// in\n    tag_475:\n        /* \"#utility.yul\":23408:23409   */\n      0x00\n        /* \"#utility.yul\":23422:23576   */\n    tag_476:\n        /* \"#utility.yul\":23436:23442   */\n      dup4\n        /* \"#utility.yul\":23433:23434   */\n      dup2\n        /* \"#utility.yul\":23430:23443   */\n      lt\n        /* \"#utility.yul\":23422:23576   */\n      iszero\n      tag_478\n      jumpi\n        /* \"#utility.yul\":23510:23517   */\n      dup2\n        /* \"#utility.yul\":23504:23518   */\n      sload\n        /* \"#utility.yul\":23500:23501   */\n      dup2\n        /* \"#utility.yul\":23495:23498   */\n      dup10\n        /* \"#utility.yul\":23491:23502   */\n      add\n        /* \"#utility.yul\":23484:23519   */\n      mstore\n        /* \"#utility.yul\":23560:23561   */\n      0x01\n        /* \"#utility.yul\":23551:23558   */\n      dup3\n        /* \"#utility.yul\":23547:23562   */\n      add\n        /* \"#utility.yul\":23536:23562   */\n      swap2\n      pop\n        /* \"#utility.yul\":23458:23462   */\n      0x20\n        /* \"#utility.yul\":23455:23456   */\n      dup2\n        /* \"#utility.yul\":23451:23463   */\n      add\n        /* \"#utility.yul\":23446:23463   */\n      swap1\n      pop\n        /* \"#utility.yul\":23422:23576   */\n      jump(tag_476)\n    tag_478:\n        /* \"#utility.yul\":23605:23606   */\n      dup1\n        /* \"#utility.yul\":23600:23603   */\n      dup9\n        /* \"#utility.yul\":23596:23607   */\n      add\n        /* \"#utility.yul\":23589:23607   */\n      swap6\n      pop\n        /* \"#utility.yul\":23288:23617   */\n      pop\n      pop\n        /* \"#utility.yul\":23104:23617   */\n    tag_472:\n      pop\n        /* \"#utility.yul\":22920:23623   */\n      pop\n      pop\n        /* \"#utility.yul\":22841:23623   */\n      swap3\n      swap2\n      pop\n      pop\n      jump\t// out\n        /* \"#utility.yul\":23629:23731   */\n    tag_254:\n        /* \"#utility.yul\":23671:23679   */\n      0x00\n        /* \"#utility.yul\":23718:23723   */\n      dup2\n        /* \"#utility.yul\":23715:23716   */\n      0x00\n        /* \"#utility.yul\":23711:23724   */\n      shr\n        /* \"#utility.yul\":23690:23724   */\n      swap1\n      pop\n        /* \"#utility.yul\":23629:23731   */\n      swap2\n      swap1\n      pop\n      jump\t// out\n        /* \"#utility.yul\":23737:23827   */\n    tag_255:\n        /* \"#utility.yul\":23787:23794   */\n      0x00\n        /* \"#utility.yul\":23816:23821   */\n      dup2\n        /* \"#utility.yul\":23805:23821   */\n      swap1\n      pop\n        /* \"#utility.yul\":23737:23827   */\n      swap2\n      swap1\n      pop\n      jump\t// out\n        /* \"#utility.yul\":23833:23999   */\n    tag_256:\n        /* \"#utility.yul\":23902:23907   */\n      0x00\n        /* \"#utility.yul\":23927:23993   */\n      tag_482\n        /* \"#utility.yul\":23958:23992   */\n      tag_483\n        /* \"#utility.yul\":23981:23991   */\n      dup4\n        /* \"#utility.yul\":23958:23992   */\n      tag_254\n      jump\t// in\n    tag_483:\n        /* \"#utility.yul\":23927:23993   */\n      tag_255\n      jump\t// in\n    tag_482:\n        /* \"#utility.yul\":23918:23993   */\n      swap1\n      pop\n        /* \"#utility.yul\":23833:23999   */\n      swap2\n      swap1\n      pop\n      jump\t// out\n        /* \"#utility.yul\":24005:24144   */\n    tag_257:\n        /* \"#utility.yul\":24055:24062   */\n      0x00\n        /* \"#utility.yul\":24095:24137   */\n      0xffffffffffffffffffffffffffffffffffffffff\n        /* \"#utility.yul\":24088:24093   */\n      dup3\n        /* \"#utility.yul\":24084:24138   */\n      and\n        /* \"#utility.yul\":24073:24138   */\n      swap1\n      pop\n        /* \"#utility.yul\":24005:24144   */\n      swap2\n      swap1\n      pop\n      jump\t// out\n        /* \"#utility.yul\":24150:24316   */\n    tag_258:\n        /* \"#utility.yul\":24219:24224   */\n      0x00\n        /* \"#utility.yul\":24244:24310   */\n      tag_486\n        /* \"#utility.yul\":24275:24309   */\n      tag_487\n        /* \"#utility.yul\":24298:24308   */\n      dup4\n        /* \"#utility.yul\":24275:24309   */\n      tag_254\n      jump\t// in\n    tag_487:\n        /* \"#utility.yul\":24244:24310   */\n      tag_257\n      jump\t// in\n    tag_486:\n        /* \"#utility.yul\":24235:24310   */\n      swap1\n      pop\n        /* \"#utility.yul\":24150:24316   */\n      swap2\n      swap1\n      pop\n      jump\t// out\n        /* \"#utility.yul\":24322:24428   */\n    tag_259:\n        /* \"#utility.yul\":24366:24374   */\n      0x00\n        /* \"#utility.yul\":24415:24420   */\n      dup2\n        /* \"#utility.yul\":24410:24413   */\n      0xa0\n        /* \"#utility.yul\":24406:24421   */\n      shr\n        /* \"#utility.yul\":24385:24421   */\n      swap1\n      pop\n        /* \"#utility.yul\":24322:24428   */\n      swap2\n      swap1\n      pop\n      jump\t// out\n        /* \"#utility.yul\":24434:24532   */\n    tag_260:\n        /* \"#utility.yul\":24481:24488   */\n      0x00\n        /* \"#utility.yul\":24521:24525   */\n      0xff\n        /* \"#utility.yul\":24514:24519   */\n      dup3\n        /* \"#utility.yul\":24510:24526   */\n      and\n        /* \"#utility.yul\":24499:24526   */\n      swap1\n      pop\n        /* \"#utility.yul\":24434:24532   */\n      swap2\n      swap1\n      pop\n      jump\t// out\n        /* \"#utility.yul\":24538:24701   */\n    tag_261:\n        /* \"#utility.yul\":24605:24610   */\n      0x00\n        /* \"#utility.yul\":24630:24695   */\n      tag_491\n        /* \"#utility.yul\":24658:24694   */\n      tag_492\n        /* \"#utility.yul\":24683:24693   */\n      dup4\n        /* \"#utility.yul\":24658:24694   */\n      tag_259\n      jump\t// in\n    tag_492:\n        /* \"#utility.yul\":24630:24695   */\n      tag_260\n      jump\t// in\n    tag_491:\n        /* \"#utility.yul\":24621:24695   */\n      swap1\n      pop\n        /* \"#utility.yul\":24538:24701   */\n      swap2\n      swap1\n      pop\n      jump\t// out\n        /* \"#utility.yul\":24707:24813   */\n    tag_262:\n        /* \"#utility.yul\":24751:24759   */\n      0x00\n        /* \"#utility.yul\":24800:24805   */\n      dup2\n        /* \"#utility.yul\":24795:24798   */\n      0xa8\n        /* \"#utility.yul\":24791:24806   */\n      shr\n        /* \"#utility.yul\":24770:24806   */\n      swap1\n      pop\n        /* \"#utility.yul\":24707:24813   */\n      swap2\n      swap1\n      pop\n      jump\t// out\n        /* \"#utility.yul\":24819:24982   */\n    tag_263:\n        /* \"#utility.yul\":24886:24891   */\n      0x00\n        /* \"#utility.yul\":24911:24976   */\n      tag_495\n        /* \"#utility.yul\":24939:24975   */\n      tag_496\n        /* \"#utility.yul\":24964:24974   */\n      dup4\n        /* \"#utility.yul\":24939:24975   */\n      tag_262\n      jump\t// in\n    tag_496:\n        /* \"#utility.yul\":24911:24976   */\n      tag_260\n      jump\t// in\n    tag_495:\n        /* \"#utility.yul\":24902:24976   */\n      swap1\n      pop\n        /* \"#utility.yul\":24819:24982   */\n      swap2\n      swap1\n      pop\n      jump\t// out\n        /* \"#utility.yul\":25046:26681   */\n    tag_264:\n        /* \"#utility.yul\":25162:25165   */\n      0x00\n        /* \"#utility.yul\":25198:25202   */\n      0xc0\n        /* \"#utility.yul\":25193:25196   */\n      dup4\n        /* \"#utility.yul\":25189:25203   */\n      add\n        /* \"#utility.yul\":25229:25230   */\n      0x00\n        /* \"#utility.yul\":25313:25317   */\n      dup1\n        /* \"#utility.yul\":25306:25311   */\n      dup5\n        /* \"#utility.yul\":25302:25318   */\n      add\n        /* \"#utility.yul\":25365:25368   */\n      dup6\n        /* \"#utility.yul\":25359:25363   */\n      dup4\n        /* \"#utility.yul\":25355:25369   */\n      sub\n        /* \"#utility.yul\":25348:25352   */\n      0x00\n        /* \"#utility.yul\":25343:25346   */\n      dup8\n        /* \"#utility.yul\":25339:25353   */\n      add\n        /* \"#utility.yul\":25332:25370   */\n      mstore\n        /* \"#utility.yul\":25391:25461   */\n      tag_498\n        /* \"#utility.yul\":25456:25460   */\n      dup4\n        /* \"#utility.yul\":25442:25454   */\n      dup3\n        /* \"#utility.yul\":25391:25461   */\n      tag_253\n      jump\t// in\n    tag_498:\n        /* \"#utility.yul\":25383:25461   */\n      swap3\n      pop\n        /* \"#utility.yul\":25240:25472   */\n      pop\n        /* \"#utility.yul\":25547:25551   */\n      0x01\n        /* \"#utility.yul\":25540:25545   */\n      dup5\n        /* \"#utility.yul\":25536:25552   */\n      add\n        /* \"#utility.yul\":25530:25553   */\n      sload\n        /* \"#utility.yul\":25517:25553   */\n      swap1\n      pop\n        /* \"#utility.yul\":25586:25641   */\n      tag_499\n        /* \"#utility.yul\":25631:25640   */\n      dup2\n        /* \"#utility.yul\":25586:25641   */\n      tag_256\n      jump\t// in\n    tag_499:\n        /* \"#utility.yul\":25654:25717   */\n      tag_500\n        /* \"#utility.yul\":25711:25715   */\n      0x20\n        /* \"#utility.yul\":25706:25709   */\n      dup8\n        /* \"#utility.yul\":25702:25716   */\n      add\n        /* \"#utility.yul\":25688:25700   */\n      dup3\n        /* \"#utility.yul\":25654:25717   */\n      tag_208\n      jump\t// in\n    tag_500:\n        /* \"#utility.yul\":25482:25727   */\n      pop\n        /* \"#utility.yul\":25806:25810   */\n      0x02\n        /* \"#utility.yul\":25799:25804   */\n      dup5\n        /* \"#utility.yul\":25795:25811   */\n      add\n        /* \"#utility.yul\":25789:25812   */\n      sload\n        /* \"#utility.yul\":25776:25812   */\n      swap1\n      pop\n        /* \"#utility.yul\":25845:25900   */\n      tag_501\n        /* \"#utility.yul\":25890:25899   */\n      dup2\n        /* \"#utility.yul\":25845:25900   */\n      tag_258\n      jump\t// in\n    tag_501:\n        /* \"#utility.yul\":25913:25976   */\n      tag_502\n        /* \"#utility.yul\":25970:25974   */\n      0x40\n        /* \"#utility.yul\":25965:25968   */\n      dup8\n        /* \"#utility.yul\":25961:25975   */\n      add\n        /* \"#utility.yul\":25947:25959   */\n      dup3\n        /* \"#utility.yul\":25913:25976   */\n      tag_209\n      jump\t// in\n    tag_502:\n        /* \"#utility.yul\":25737:25986   */\n      pop\n        /* \"#utility.yul\":26058:26111   */\n      tag_503\n        /* \"#utility.yul\":26101:26110   */\n      dup2\n        /* \"#utility.yul\":26058:26111   */\n      tag_261\n      jump\t// in\n    tag_503:\n        /* \"#utility.yul\":26124:26181   */\n      tag_504\n        /* \"#utility.yul\":26175:26179   */\n      0x60\n        /* \"#utility.yul\":26170:26173   */\n      dup8\n        /* \"#utility.yul\":26166:26180   */\n      add\n        /* \"#utility.yul\":26152:26164   */\n      dup3\n        /* \"#utility.yul\":26124:26181   */\n      tag_211\n      jump\t// in\n    tag_504:\n        /* \"#utility.yul\":25996:26191   */\n      pop\n        /* \"#utility.yul\":26262:26315   */\n      tag_505\n        /* \"#utility.yul\":26305:26314   */\n      dup2\n        /* \"#utility.yul\":26262:26315   */\n      tag_263\n      jump\t// in\n    tag_505:\n        /* \"#utility.yul\":26328:26385   */\n      tag_506\n        /* \"#utility.yul\":26379:26383   */\n      0x80\n        /* \"#utility.yul\":26374:26377   */\n      dup8\n        /* \"#utility.yul\":26370:26384   */\n      add\n        /* \"#utility.yul\":26356:26368   */\n      dup3\n        /* \"#utility.yul\":26328:26385   */\n      tag_211\n      jump\t// in\n    tag_506:\n        /* \"#utility.yul\":26201:26395   */\n      pop\n        /* \"#utility.yul\":26474:26478   */\n      0x03\n        /* \"#utility.yul\":26467:26472   */\n      dup5\n        /* \"#utility.yul\":26463:26479   */\n      add\n        /* \"#utility.yul\":26457:26480   */\n      sload\n        /* \"#utility.yul\":26444:26480   */\n      swap1\n      pop\n        /* \"#utility.yul\":26513:26568   */\n      tag_507\n        /* \"#utility.yul\":26558:26567   */\n      dup2\n        /* \"#utility.yul\":26513:26568   */\n      tag_256\n      jump\t// in\n    tag_507:\n        /* \"#utility.yul\":26581:26644   */\n      tag_508\n        /* \"#utility.yul\":26638:26642   */\n      0xa0\n        /* \"#utility.yul\":26633:26636   */\n      dup8\n        /* \"#utility.yul\":26629:26643   */\n      add\n        /* \"#utility.yul\":26615:26627   */\n      dup3\n        /* \"#utility.yul\":26581:26644   */\n      tag_208\n      jump\t// in\n    tag_508:\n        /* \"#utility.yul\":26405:26654   */\n      pop\n        /* \"#utility.yul\":26671:26675   */\n      dup2\n        /* \"#utility.yul\":26664:26675   */\n      swap3\n      pop\n        /* \"#utility.yul\":25167:26681   */\n      pop\n      pop\n        /* \"#utility.yul\":25046:26681   */\n      swap3\n      swap2\n      pop\n      pop\n      jump\t// out\n        /* \"#utility.yul\":26687:27054   */\n    tag_164:\n        /* \"#utility.yul\":26827:26831   */\n      0x00\n        /* \"#utility.yul\":26865:26867   */\n      0x20\n        /* \"#utility.yul\":26854:26863   */\n      dup3\n        /* \"#utility.yul\":26850:26868   */\n      add\n        /* \"#utility.yul\":26842:26868   */\n      swap1\n      pop\n        /* \"#utility.yul\":26914:26923   */\n      dup2\n        /* \"#utility.yul\":26908:26912   */\n      dup2\n        /* \"#utility.yul\":26904:26924   */\n      sub\n        /* \"#utility.yul\":26900:26901   */\n      0x00\n        /* \"#utility.yul\":26889:26898   */\n      dup4\n        /* \"#utility.yul\":26885:26902   */\n      add\n        /* \"#utility.yul\":26878:26925   */\n      mstore\n        /* \"#utility.yul\":26942:27047   */\n      tag_510\n        /* \"#utility.yul\":27042:27046   */\n      dup2\n        /* \"#utility.yul\":27033:27039   */\n      dup5\n        /* \"#utility.yul\":26942:27047   */\n      tag_264\n      jump\t// in\n    tag_510:\n        /* \"#utility.yul\":26934:27047   */\n      swap1\n      pop\n        /* \"#utility.yul\":26687:27054   */\n      swap3\n      swap2\n      pop\n      pop\n      jump\t// out\n        /* \"#utility.yul\":27060:27283   */\n    tag_265:\n        /* \"#utility.yul\":27200:27234   */\n      0x596f75206861766520616c7265616479206261636b6564207468697320726571\n        /* \"#utility.yul\":27196:27197   */\n      0x00\n        /* \"#utility.yul\":27188:27194   */\n      dup3\n        /* \"#utility.yul\":27184:27198   */\n      add\n        /* \"#utility.yul\":27177:27235   */\n      mstore\n        /* \"#utility.yul\":27269:27275   */\n      0x7565737400000000000000000000000000000000000000000000000000000000\n        /* \"#utility.yul\":27264:27266   */\n      0x20\n        /* \"#utility.yul\":27256:27262   */\n      dup3\n        /* \"#utility.yul\":27252:27267   */\n      add\n        /* \"#utility.yul\":27245:27276   */\n      mstore\n        /* \"#utility.yul\":27060:27283   */\n      pop\n      jump\t// out\n        /* \"#utility.yul\":27289:27655   */\n    tag_266:\n        /* \"#utility.yul\":27431:27434   */\n      0x00\n        /* \"#utility.yul\":27452:27519   */\n      tag_513\n        /* \"#utility.yul\":27516:27518   */\n      0x24\n        /* \"#utility.yul\":27511:27514   */\n      dup4\n        /* \"#utility.yul\":27452:27519   */\n      tag_227\n      jump\t// in\n    tag_513:\n        /* \"#utility.yul\":27445:27519   */\n      swap2\n      pop\n        /* \"#utility.yul\":27528:27621   */\n      tag_514\n        /* \"#utility.yul\":27617:27620   */\n      dup3\n        /* \"#utility.yul\":27528:27621   */\n      tag_265\n      jump\t// in\n    tag_514:\n        /* \"#utility.yul\":27646:27648   */\n      0x40\n        /* \"#utility.yul\":27641:27644   */\n      dup3\n        /* \"#utility.yul\":27637:27649   */\n      add\n        /* \"#utility.yul\":27630:27649   */\n      swap1\n      pop\n        /* \"#utility.yul\":27289:27655   */\n      swap2\n      swap1\n      pop\n      jump\t// out\n        /* \"#utility.yul\":27661:28080   */\n    tag_167:\n        /* \"#utility.yul\":27827:27831   */\n      0x00\n        /* \"#utility.yul\":27865:27867   */\n      0x20\n        /* \"#utility.yul\":27854:27863   */\n      dup3\n        /* \"#utility.yul\":27850:27868   */\n      add\n        /* \"#utility.yul\":27842:27868   */\n      swap1\n      pop\n        /* \"#utility.yul\":27914:27923   */\n      dup2\n        /* \"#utility.yul\":27908:27912   */\n      dup2\n        /* \"#utility.yul\":27904:27924   */\n      sub\n        /* \"#utility.yul\":27900:27901   */\n      0x00\n        /* \"#utility.yul\":27889:27898   */\n      dup4\n        /* \"#utility.yul\":27885:27902   */\n      add\n        /* \"#utility.yul\":27878:27925   */\n      mstore\n        /* \"#utility.yul\":27942:28073   */\n      tag_516\n        /* \"#utility.yul\":28068:28072   */\n      dup2\n        /* \"#utility.yul\":27942:28073   */\n      tag_266\n      jump\t// in\n    tag_516:\n        /* \"#utility.yul\":27934:28073   */\n      swap1\n      pop\n        /* \"#utility.yul\":27661:28080   */\n      swap2\n      swap1\n      pop\n      jump\t// out\n        /* \"#utility.yul\":28086:28319   */\n    tag_169:\n        /* \"#utility.yul\":28125:28128   */\n      0x00\n        /* \"#utility.yul\":28148:28172   */\n      tag_518\n        /* \"#utility.yul\":28166:28171   */\n      dup3\n        /* \"#utility.yul\":28148:28172   */\n      tag_207\n      jump\t// in\n    tag_518:\n        /* \"#utility.yul\":28139:28172   */\n      swap2\n      pop\n        /* \"#utility.yul\":28194:28260   */\n      0xffffffffffffffffffffffffffffffffffffffffffffffffffffffffffffffff\n        /* \"#utility.yul\":28187:28192   */\n      dup3\n        /* \"#utility.yul\":28184:28261   */\n      sub\n        /* \"#utility.yul\":28181:28284   */\n      tag_519\n      jumpi\n        /* \"#utility.yul\":28264:28282   */\n      tag_520\n      tag_248\n      jump\t// in\n    tag_520:\n        /* \"#utility.yul\":28181:28284   */\n    tag_519:\n        /* \"#utility.yul\":28311:28312   */\n      0x01\n        /* \"#utility.yul\":28304:28309   */\n      dup3\n        /* \"#utility.yul\":28300:28313   */\n      add\n        /* \"#utility.yul\":28293:28313   */\n      swap1\n      pop\n        /* \"#utility.yul\":28086:28319   */\n      swap2\n      swap1\n      pop\n      jump\t// out\n\n    auxdata: 0xa2646970667358221220317605c3cecd6d05e4e94f2051234c22ba10c6dd1103829fed6941d87ad148c364736f6c634300080d0033\n}\n","bytecode":{"linkReferences":{},"object":"60806040523480156200001157600080fd5b50604051620024073803806200240783398181016040528101906200003791906200012c565b80600160006101000a81548173ffffffffffffffffffffffffffffffffffffffff021916908373ffffffffffffffffffffffffffffffffffffffff16021790555081600381905550505062000173565b600080fd5b6000819050919050565b620000a1816200008c565b8114620000ad57600080fd5b50565b600081519050620000c18162000096565b92915050565b600073ffffffffffffffffffffffffffffffffffffffff82169050919050565b6000620000f482620000c7565b9050919050565b6200010681620000e7565b81146200011257600080fd5b50565b6000815190506200012681620000fb565b92915050565b6000806040838503121562000146576200014562000087565b5b60006200015685828601620000b0565b9250506020620001698582860162000115565b9150509250929050565b61228480620001836000396000f3fe6080604052600436106100a75760003560e01c80638dde0840116100645780638dde0840146101d5578063900551a8146101df5780639213aa331461020a578063b85dfb8014610247578063b8f4ba0314610284578063d7d1bbdb146102c6576100a7565b806318513993146100ac57806330f3e3da146100e9578063481c6a751461011457806381d12c581461013f5780638813ce12146101815780638a9cfd55146101ac575b600080fd5b3480156100b857600080fd5b506100d360048036038101906100ce9190611459565b6102ef565b6040516100e091906116ad565b60405180910390f35b3480156100f557600080fd5b506100fe6105d3565b60405161010b919061179f565b60405180910390f35b34801561012057600080fd5b50610129610661565b60405161013691906117d0565b60405180910390f35b34801561014b57600080fd5b5061016660048036038101906101619190611817565b610687565b604051610178969594939291906118ac565b60405180910390f35b34801561018d57600080fd5b50610196610795565b6040516101a391906116ad565b60405180910390f35b3480156101b857600080fd5b506101d360048036038101906101ce9190611a49565b610926565b005b6101dd610af0565b005b3480156101eb57600080fd5b506101f4610bf0565b6040516102019190611ab8565b60405180910390f35b34801561021657600080fd5b50610231600480360381019061022c9190611817565b610c88565b60405161023e9190611ae2565b60405180910390f35b34801561025357600080fd5b5061026e60048036038101906102699190611459565b610cc7565b60405161027b9190611ab8565b60405180910390f35b34801561029057600080fd5b506102ab60048036038101906102a69190611afd565b610cdf565b6040516102bd969594939291906118ac565b60405180910390f35b3480156102d257600080fd5b506102ed60048036038101906102e89190611817565b610dfa565b005b6060600160009054906101000a900473ffffffffffffffffffffffffffffffffffffffff1673ffffffffffffffffffffffffffffffffffffffff163373ffffffffffffffffffffffffffffffffffffffff1614610381576040517f08c379a000000000000000000000000000000000000000000000000000000000815260040161037890611baf565b60405180910390fd5b600354600460008473ffffffffffffffffffffffffffffffffffffffff1673ffffffffffffffffffffffffffffffffffffffff168152602001908152602001600020541015610405576040517f08c379a00000000000000000000000000000000000000000000000000000000081526004016103fc90611c41565b60405180910390fd5b600560008373ffffffffffffffffffffffffffffffffffffffff1673ffffffffffffffffffffffffffffffffffffffff168152602001908152602001600020805480602002602001604051908101604052809291908181526020016000905b828210156105c857838290600052602060002090600402016040518060c001604052908160008201805461049790611c90565b80601f01602080910402602001604051908101604052809291908181526020018280546104c390611c90565b80156105105780601f106104e557610100808354040283529160200191610510565b820191906000526020600020905b8154815290600101906020018083116104f357829003601f168201915b50505050508152602001600182015481526020016002820160009054906101000a900473ffffffffffffffffffffffffffffffffffffffff1673ffffffffffffffffffffffffffffffffffffffff1673ffffffffffffffffffffffffffffffffffffffff1681526020016002820160149054906101000a900460ff161515151581526020016002820160159054906101000a900460ff1615151515815260200160038201548152505081526020019060010190610464565b505050509050919050565b6060600280548060200260200160405190810160405280929190818152602001828054801561065757602002820191906000526020600020905b8160009054906101000a900473ffffffffffffffffffffffffffffffffffffffff1673ffffffffffffffffffffffffffffffffffffffff168152602001906001019080831161060d575b5050505050905090565b600160009054906101000a900473ffffffffffffffffffffffffffffffffffffffff1681565b6000818154811061069757600080fd5b90600052602060002090600402016000915090508060000180546106ba90611c90565b80601f01602080910402602001604051908101604052809291908181526020018280546106e690611c90565b80156107335780601f1061070857610100808354040283529160200191610733565b820191906000526020600020905b81548152906001019060200180831161071657829003601f168201915b5050505050908060010154908060020160009054906101000a900473ffffffffffffffffffffffffffffffffffffffff16908060020160149054906101000a900460ff16908060020160159054906101000a900460ff16908060030154905086565b60606000805480602002602001604051908101604052809291908181526020016000905b8282101561091d57838290600052602060002090600402016040518060c00160405290816000820180546107ec90611c90565b80601f016020809104026020016040519081016040528092919081815260200182805461081890611c90565b80156108655780601f1061083a57610100808354040283529160200191610865565b820191906000526020600020905b81548152906001019060200180831161084857829003601f168201915b50505050508152602001600182015481526020016002820160009054906101000a900473ffffffffffffffffffffffffffffffffffffffff1673ffffffffffffffffffffffffffffffffffffffff1673ffffffffffffffffffffffffffffffffffffffff1681526020016002820160149054906101000a900460ff161515151581526020016002820160159054906101000a900460ff16151515158152602001600382015481525050815260200190600101906107b9565b50505050905090565b600160009054906101000a900473ffffffffffffffffffffffffffffffffffffffff1673ffffffffffffffffffffffffffffffffffffffff163373ffffffffffffffffffffffffffffffffffffffff16146109b6576040517f08c379a00000000000000000000000000000000000000000000000000000000081526004016109ad90611baf565b60405180910390fd5b60006040518060c001604052808581526020018481526020018373ffffffffffffffffffffffffffffffffffffffff1681526020016000151581526020016000151581526020016000815250905060008190806001815401808255809150506001900390600052602060002090600402016000909190919091506000820151816000019080519060200190610a4c9291906112b7565b506020820151816001015560408201518160020160006101000a81548173ffffffffffffffffffffffffffffffffffffffff021916908373ffffffffffffffffffffffffffffffffffffffff16021790555060608201518160020160146101000a81548160ff02191690831515021790555060808201518160020160156101000a81548160ff02191690831515021790555060a08201518160030155505050505050565b600354341015610b35576040517f08c379a0000000000000000000000000000000000000000000000000000000008152600401610b2c90611d33565b60405180910390fd5b6002339080600181540180825580915050600190039060005260206000200160009091909190916101000a81548173ffffffffffffffffffffffffffffffffffffffff021916908373ffffffffffffffffffffffffffffffffffffffff16021790555034600460003373ffffffffffffffffffffffffffffffffffffffff1673ffffffffffffffffffffffffffffffffffffffff1681526020019081526020016000206000828254610be79190611d82565b92505081905550565b6000600160009054906101000a900473ffffffffffffffffffffffffffffffffffffffff1673ffffffffffffffffffffffffffffffffffffffff163373ffffffffffffffffffffffffffffffffffffffff1614610c82576040517f08c379a0000000000000000000000000000000000000000000000000000000008152600401610c7990611baf565b60405180910390fd5b47905090565b60028181548110610c9857600080fd5b906000526020600020016000915054906101000a900473ffffffffffffffffffffffffffffffffffffffff1681565b60046020528060005260406000206000915090505481565b60056020528160005260406000208181548110610cfb57600080fd5b906000526020600020906004020160009150915050806000018054610d1f90611c90565b80601f0160208091040260200160405190810160405280929190818152602001828054610d4b90611c90565b8015610d985780601f10610d6d57610100808354040283529160200191610d98565b820191906000526020600020905b815481529060010190602001808311610d7b57829003601f168201915b5050505050908060010154908060020160009054906101000a900473ffffffffffffffffffffffffffffffffffffffff16908060020160149054906101000a900460ff16908060020160159054906101000a900460ff16908060030154905086565b600354600460003373ffffffffffffffffffffffffffffffffffffffff1673ffffffffffffffffffffffffffffffffffffffff168152602001908152602001600020541015610e7e576040517f08c379a0000000000000000000000000000000000000000000000000000000008152600401610e7590611e4a565b60405180910390fd5b6000808281548110610e9357610e92611e6a565b5b906000526020600020906004020190506000600560003373ffffffffffffffffffffffffffffffffffffffff1673ffffffffffffffffffffffffffffffffffffffff168152602001908152602001600020805480602002602001604051908101604052809291908181526020016000905b8282101561106857838290600052602060002090600402016040518060c0016040529081600082018054610f3790611c90565b80601f0160208091040260200160405190810160405280929190818152602001828054610f6390611c90565b8015610fb05780601f10610f8557610100808354040283529160200191610fb0565b820191906000526020600020905b815481529060010190602001808311610f9357829003601f168201915b50505050508152602001600182015481526020016002820160009054906101000a900473ffffffffffffffffffffffffffffffffffffffff1673ffffffffffffffffffffffffffffffffffffffff1673ffffffffffffffffffffffffffffffffffffffff1681526020016002820160149054906101000a900460ff161515151581526020016002820160159054906101000a900460ff1615151515815260200160038201548152505081526020019060010190610f04565b50505050905060005b81518110156111355781818151811061108d5761108c611e6a565b5b60200260200101516040516020016110a59190611f22565b60405160208183030381529060405280519060200120836040516020016110cc9190612152565b6040516020818303038152906040528051906020012014611122576040517f08c379a0000000000000000000000000000000000000000000000000000000008152600401611119906121e6565b60405180910390fd5b808061112d90612206565b915050611071565b50600182600301600082825461114b9190611d82565b92505081905550600560003373ffffffffffffffffffffffffffffffffffffffff1673ffffffffffffffffffffffffffffffffffffffff16815260200190815260200160002082908060018154018082558091505060019003906000526020600020906004020160009091909190915060008201816000019080546111cf90611c90565b6111da92919061133d565b50600182015481600101556002820160009054906101000a900473ffffffffffffffffffffffffffffffffffffffff168160020160006101000a81548173ffffffffffffffffffffffffffffffffffffffff021916908373ffffffffffffffffffffffffffffffffffffffff1602179055506002820160149054906101000a900460ff168160020160146101000a81548160ff0219169083151502179055506002820160159054906101000a900460ff168160020160156101000a81548160ff021916908315150217905550600382015481600301555050505050565b8280546112c390611c90565b90600052602060002090601f0160209004810192826112e5576000855561132c565b82601f106112fe57805160ff191683800117855561132c565b8280016001018555821561132c579182015b8281111561132b578251825591602001919060010190611310565b5b50905061133991906113ca565b5090565b82805461134990611c90565b90600052602060002090601f01602090048101928261136b57600085556113b9565b82601f1061137c57805485556113b9565b828001600101855582156113b957600052602060002091601f016020900482015b828111156113b857825482559160010191906001019061139d565b5b5090506113c691906113ca565b5090565b5b808211156113e35760008160009055506001016113cb565b5090565b6000604051905090565b600080fd5b600080fd5b600073ffffffffffffffffffffffffffffffffffffffff82169050919050565b6000611426826113fb565b9050919050565b6114368161141b565b811461144157600080fd5b50565b6000813590506114538161142d565b92915050565b60006020828403121561146f5761146e6113f1565b5b600061147d84828501611444565b91505092915050565b600081519050919050565b600082825260208201905092915050565b6000819050602082019050919050565b600081519050919050565b600082825260208201905092915050565b60005b838110156114ec5780820151818401526020810190506114d1565b838111156114fb576000848401525b50505050565b6000601f19601f8301169050919050565b600061151d826114b2565b61152781856114bd565b93506115378185602086016114ce565b61154081611501565b840191505092915050565b6000819050919050565b61155e8161154b565b82525050565b61156d8161141b565b82525050565b60008115159050919050565b61158881611573565b82525050565b600060c08301600083015184820360008601526115ab8282611512565b91505060208301516115c06020860182611555565b5060408301516115d36040860182611564565b5060608301516115e6606086018261157f565b5060808301516115f9608086018261157f565b5060a083015161160c60a0860182611555565b508091505092915050565b6000611623838361158e565b905092915050565b6000602082019050919050565b600061164382611486565b61164d8185611491565b93508360208202850161165f856114a2565b8060005b8581101561169b578484038952815161167c8582611617565b94506116878361162b565b925060208a01995050600181019050611663565b50829750879550505050505092915050565b600060208201905081810360008301526116c78184611638565b905092915050565b600081519050919050565b600082825260208201905092915050565b6000819050602082019050919050565b6000611706826113fb565b9050919050565b611716816116fb565b82525050565b6000611728838361170d565b60208301905092915050565b6000602082019050919050565b600061174c826116cf565b61175681856116da565b9350611761836116eb565b8060005b83811015611792578151611779888261171c565b975061178483611734565b925050600181019050611765565b5085935050505092915050565b600060208201905081810360008301526117b98184611741565b905092915050565b6117ca8161141b565b82525050565b60006020820190506117e560008301846117c1565b92915050565b6117f48161154b565b81146117ff57600080fd5b50565b600081359050611811816117eb565b92915050565b60006020828403121561182d5761182c6113f1565b5b600061183b84828501611802565b91505092915050565b600082825260208201905092915050565b6000611860826114b2565b61186a8185611844565b935061187a8185602086016114ce565b61188381611501565b840191505092915050565b6118978161154b565b82525050565b6118a681611573565b82525050565b600060c08201905081810360008301526118c68189611855565b90506118d5602083018861188e565b6118e260408301876117c1565b6118ef606083018661189d565b6118fc608083018561189d565b61190960a083018461188e565b979650505050505050565b600080fd5b600080fd5b7f4e487b7100000000000000000000000000000000000000000000000000000000600052604160045260246000fd5b61195682611501565b810181811067ffffffffffffffff821117156119755761197461191e565b5b80604052505050565b60006119886113e7565b9050611994828261194d565b919050565b600067ffffffffffffffff8211156119b4576119b361191e565b5b6119bd82611501565b9050602081019050919050565b82818337600083830152505050565b60006119ec6119e784611999565b61197e565b905082815260208101848484011115611a0857611a07611919565b5b611a138482856119ca565b509392505050565b600082601f830112611a3057611a2f611914565b5b8135611a408482602086016119d9565b91505092915050565b600080600060608486031215611a6257611a616113f1565b5b600084013567ffffffffffffffff811115611a8057611a7f6113f6565b5b611a8c86828701611a1b565b9350506020611a9d86828701611802565b9250506040611aae86828701611444565b9150509250925092565b6000602082019050611acd600083018461188e565b92915050565b611adc816116fb565b82525050565b6000602082019050611af76000830184611ad3565b92915050565b60008060408385031215611b1457611b136113f1565b5b6000611b2285828601611444565b9250506020611b3385828601611802565b9150509250929050565b7f546869732066756e6374696f6e2063616e206f6e6c792062652063616c6c656460008201527f20627920746865206d616e616765720000000000000000000000000000000000602082015250565b6000611b99602f83611844565b9150611ba482611b3d565b604082019050919050565b60006020820190508181036000830152611bc881611b8c565b9050919050565b7f54686520676976656e2061646472657373206973206e6f742061206261636b6560008201527f7200000000000000000000000000000000000000000000000000000000000000602082015250565b6000611c2b602183611844565b9150611c3682611bcf565b604082019050919050565b60006020820190508181036000830152611c5a81611c1e565b9050919050565b7f4e487b7100000000000000000000000000000000000000000000000000000000600052602260045260246000fd5b60006002820490506001821680611ca857607f821691505b602082108103611cbb57611cba611c61565b5b50919050565b7f596f75206e65656420746f2073656e64206174206c6561737420746865206d6960008201527f6e696d756d20636f6e747269627574696f6e0000000000000000000000000000602082015250565b6000611d1d603283611844565b9150611d2882611cc1565b604082019050919050565b60006020820190508181036000830152611d4c81611d10565b9050919050565b7f4e487b7100000000000000000000000000000000000000000000000000000000600052601160045260246000fd5b6000611d8d8261154b565b9150611d988361154b565b9250827fffffffffffffffffffffffffffffffffffffffffffffffffffffffffffffffff03821115611dcd57611dcc611d53565b5b828201905092915050565b7f546869732066756e6374696f6e2063616e206f6e6c792062652063616c6c656460008201527f2062792061206261636b65720000000000000000000000000000000000000000602082015250565b6000611e34602c83611844565b9150611e3f82611dd8565b604082019050919050565b60006020820190508181036000830152611e6381611e27565b9050919050565b7f4e487b7100000000000000000000000000000000000000000000000000000000600052603260045260246000fd5b600060c0830160008301518482036000860152611eb68282611512565b9150506020830151611ecb6020860182611555565b506040830151611ede6040860182611564565b506060830151611ef1606086018261157f565b506080830151611f04608086018261157f565b5060a0830151611f1760a0860182611555565b508091505092915050565b60006020820190508181036000830152611f3c8184611e99565b905092915050565b60008190508160005260206000209050919050565b60008154611f6681611c90565b611f7081866114bd565b94506001821660008114611f8b5760018114611f9d57611fd0565b60ff1983168652602086019350611fd0565b611fa685611f44565b60005b83811015611fc857815481890152600182019150602081019050611fa9565b808801955050505b50505092915050565b60008160001c9050919050565b6000819050919050565b6000612003611ffe83611fd9565b611fe6565b9050919050565b600073ffffffffffffffffffffffffffffffffffffffff82169050919050565b600061203d61203883611fd9565b61200a565b9050919050565b60008160a01c9050919050565b600060ff82169050919050565b600061207161206c83612044565b612051565b9050919050565b60008160a81c9050919050565b600061209861209383612078565b612051565b9050919050565b600060c08301600080840185830360008701526120bc8382611f59565b925050600184015490506120cf81611ff0565b6120dc6020870182611555565b50600284015490506120ed8161202a565b6120fa6040870182611564565b506121048161205e565b612111606087018261157f565b5061211b81612085565b612128608087018261157f565b506003840154905061213981611ff0565b61214660a0870182611555565b50819250505092915050565b6000602082019050818103600083015261216c818461209f565b905092915050565b7f596f75206861766520616c7265616479206261636b656420746869732072657160008201527f7565737400000000000000000000000000000000000000000000000000000000602082015250565b60006121d0602483611844565b91506121db82612174565b604082019050919050565b600060208201905081810360008301526121ff816121c3565b9050919050565b60006122118261154b565b91507fffffffffffffffffffffffffffffffffffffffffffffffffffffffffffffffff820361224357612242611d53565b5b60018201905091905056fea2646970667358221220317605c3cecd6d05e4e94f2051234c22ba10c6dd1103829fed6941d87ad148c364736f6c634300080d0033","opcodes":"PUSH1 0x80 PUSH1 0x40 MSTORE CALLVALUE DUP1 ISZERO PUSH3 0x11 JUMPI PUSH1 0x0 DUP1 REVERT JUMPDEST POP PUSH1 0x40 MLOAD PUSH3 0x2407 CODESIZE SUB DUP1 PUSH3 0x2407 DUP4 CODECOPY DUP2 DUP2 ADD PUSH1 0x40 MSTORE DUP2 ADD SWAP1 PUSH3 0x37 SWAP2 SWAP1 PUSH3 0x12C JUMP JUMPDEST DUP1 PUSH1 0x1 PUSH1 0x0 PUSH2 0x100 EXP DUP2 SLOAD DUP2 PUSH20 0xFFFFFFFFFFFFFFFFFFFFFFFFFFFFFFFFFFFFFFFF MUL NOT AND SWAP1 DUP4 PUSH20 0xFFFFFFFFFFFFFFFFFFFFFFFFFFFFFFFFFFFFFFFF AND MUL OR SWAP1 SSTORE POP DUP2 PUSH1 0x3 DUP2 SWAP1 SSTORE POP POP POP PUSH3 0x173 JUMP JUMPDEST PUSH1 0x0 DUP1 REVERT JUMPDEST PUSH1 0x0 DUP2 SWAP1 POP SWAP2 SWAP1 POP JUMP JUMPDEST PUSH3 0xA1 DUP2 PUSH3 0x8C JUMP JUMPDEST DUP2 EQ PUSH3 0xAD JUMPI PUSH1 0x0 DUP1 REVERT JUMPDEST POP JUMP JUMPDEST PUSH1 0x0 DUP2 MLOAD SWAP1 POP PUSH3 0xC1 DUP2 PUSH3 0x96 JUMP JUMPDEST SWAP3 SWAP2 POP POP JUMP JUMPDEST PUSH1 0x0 PUSH20 0xFFFFFFFFFFFFFFFFFFFFFFFFFFFFFFFFFFFFFFFF DUP3 AND SWAP1 POP SWAP2 SWAP1 POP JUMP JUMPDEST PUSH1 0x0 PUSH3 0xF4 DUP3 PUSH3 0xC7 JUMP JUMPDEST SWAP1 POP SWAP2 SWAP1 POP JUMP JUMPDEST PUSH3 0x106 DUP2 PUSH3 0xE7 JUMP JUMPDEST DUP2 EQ PUSH3 0x112 JUMPI PUSH1 0x0 DUP1 REVERT JUMPDEST POP JUMP JUMPDEST PUSH1 0x0 DUP2 MLOAD SWAP1 POP PUSH3 0x126 DUP2 PUSH3 0xFB JUMP JUMPDEST SWAP3 SWAP2 POP POP JUMP JUMPDEST PUSH1 0x0 DUP1 PUSH1 0x40 DUP4 DUP6 SUB SLT ISZERO PUSH3 0x146 JUMPI PUSH3 0x145 PUSH3 0x87 JUMP JUMPDEST JUMPDEST PUSH1 0x0 PUSH3 0x156 DUP6 DUP3 DUP7 ADD PUSH3 0xB0 JUMP JUMPDEST SWAP3 POP POP PUSH1 0x20 PUSH3 0x169 DUP6 DUP3 DUP7 ADD PUSH3 0x115 JUMP JUMPDEST SWAP2 POP POP SWAP3 POP SWAP3 SWAP1 POP JUMP JUMPDEST PUSH2 0x2284 DUP1 PUSH3 0x183 PUSH1 0x0 CODECOPY PUSH1 0x0 RETURN INVALID PUSH1 0x80 PUSH1 0x40 MSTORE PUSH1 0x4 CALLDATASIZE LT PUSH2 0xA7 JUMPI PUSH1 0x0 CALLDATALOAD PUSH1 0xE0 SHR DUP1 PUSH4 0x8DDE0840 GT PUSH2 0x64 JUMPI DUP1 PUSH4 0x8DDE0840 EQ PUSH2 0x1D5 JUMPI DUP1 PUSH4 0x900551A8 EQ PUSH2 0x1DF JUMPI DUP1 PUSH4 0x9213AA33 EQ PUSH2 0x20A JUMPI DUP1 PUSH4 0xB85DFB80 EQ PUSH2 0x247 JUMPI DUP1 PUSH4 0xB8F4BA03 EQ PUSH2 0x284 JUMPI DUP1 PUSH4 0xD7D1BBDB EQ PUSH2 0x2C6 JUMPI PUSH2 0xA7 JUMP JUMPDEST DUP1 PUSH4 0x18513993 EQ PUSH2 0xAC JUMPI DUP1 PUSH4 0x30F3E3DA EQ PUSH2 0xE9 JUMPI DUP1 PUSH4 0x481C6A75 EQ PUSH2 0x114 JUMPI DUP1 PUSH4 0x81D12C58 EQ PUSH2 0x13F JUMPI DUP1 PUSH4 0x8813CE12 EQ PUSH2 0x181 JUMPI DUP1 PUSH4 0x8A9CFD55 EQ PUSH2 0x1AC JUMPI JUMPDEST PUSH1 0x0 DUP1 REVERT JUMPDEST CALLVALUE DUP1 ISZERO PUSH2 0xB8 JUMPI PUSH1 0x0 DUP1 REVERT JUMPDEST POP PUSH2 0xD3 PUSH1 0x4 DUP1 CALLDATASIZE SUB DUP2 ADD SWAP1 PUSH2 0xCE SWAP2 SWAP1 PUSH2 0x1459 JUMP JUMPDEST PUSH2 0x2EF JUMP JUMPDEST PUSH1 0x40 MLOAD PUSH2 0xE0 SWAP2 SWAP1 PUSH2 0x16AD JUMP JUMPDEST PUSH1 0x40 MLOAD DUP1 SWAP2 SUB SWAP1 RETURN JUMPDEST CALLVALUE DUP1 ISZERO PUSH2 0xF5 JUMPI PUSH1 0x0 DUP1 REVERT JUMPDEST POP PUSH2 0xFE PUSH2 0x5D3 JUMP JUMPDEST PUSH1 0x40 MLOAD PUSH2 0x10B SWAP2 SWAP1 PUSH2 0x179F JUMP JUMPDEST PUSH1 0x40 MLOAD DUP1 SWAP2 SUB SWAP1 RETURN JUMPDEST CALLVALUE DUP1 ISZERO PUSH2 0x120 JUMPI PUSH1 0x0 DUP1 REVERT JUMPDEST POP PUSH2 0x129 PUSH2 0x661 JUMP JUMPDEST PUSH1 0x40 MLOAD PUSH2 0x136 SWAP2 SWAP1 PUSH2 0x17D0 JUMP JUMPDEST PUSH1 0x40 MLOAD DUP1 SWAP2 SUB SWAP1 RETURN JUMPDEST CALLVALUE DUP1 ISZERO PUSH2 0x14B JUMPI PUSH1 0x0 DUP1 REVERT JUMPDEST POP PUSH2 0x166 PUSH1 0x4 DUP1 CALLDATASIZE SUB DUP2 ADD SWAP1 PUSH2 0x161 SWAP2 SWAP1 PUSH2 0x1817 JUMP JUMPDEST PUSH2 0x687 JUMP JUMPDEST PUSH1 0x40 MLOAD PUSH2 0x178 SWAP7 SWAP6 SWAP5 SWAP4 SWAP3 SWAP2 SWAP1 PUSH2 0x18AC JUMP JUMPDEST PUSH1 0x40 MLOAD DUP1 SWAP2 SUB SWAP1 RETURN JUMPDEST CALLVALUE DUP1 ISZERO PUSH2 0x18D JUMPI PUSH1 0x0 DUP1 REVERT JUMPDEST POP PUSH2 0x196 PUSH2 0x795 JUMP JUMPDEST PUSH1 0x40 MLOAD PUSH2 0x1A3 SWAP2 SWAP1 PUSH2 0x16AD JUMP JUMPDEST PUSH1 0x40 MLOAD DUP1 SWAP2 SUB SWAP1 RETURN JUMPDEST CALLVALUE DUP1 ISZERO PUSH2 0x1B8 JUMPI PUSH1 0x0 DUP1 REVERT JUMPDEST POP PUSH2 0x1D3 PUSH1 0x4 DUP1 CALLDATASIZE SUB DUP2 ADD SWAP1 PUSH2 0x1CE SWAP2 SWAP1 PUSH2 0x1A49 JUMP JUMPDEST PUSH2 0x926 JUMP JUMPDEST STOP JUMPDEST PUSH2 0x1DD PUSH2 0xAF0 JUMP JUMPDEST STOP JUMPDEST CALLVALUE DUP1 ISZERO PUSH2 0x1EB JUMPI PUSH1 0x0 DUP1 REVERT JUMPDEST POP PUSH2 0x1F4 PUSH2 0xBF0 JUMP JUMPDEST PUSH1 0x40 MLOAD PUSH2 0x201 SWAP2 SWAP1 PUSH2 0x1AB8 JUMP JUMPDEST PUSH1 0x40 MLOAD DUP1 SWAP2 SUB SWAP1 RETURN JUMPDEST CALLVALUE DUP1 ISZERO PUSH2 0x216 JUMPI PUSH1 0x0 DUP1 REVERT JUMPDEST POP PUSH2 0x231 PUSH1 0x4 DUP1 CALLDATASIZE SUB DUP2 ADD SWAP1 PUSH2 0x22C SWAP2 SWAP1 PUSH2 0x1817 JUMP JUMPDEST PUSH2 0xC88 JUMP JUMPDEST PUSH1 0x40 MLOAD PUSH2 0x23E SWAP2 SWAP1 PUSH2 0x1AE2 JUMP JUMPDEST PUSH1 0x40 MLOAD DUP1 SWAP2 SUB SWAP1 RETURN JUMPDEST CALLVALUE DUP1 ISZERO PUSH2 0x253 JUMPI PUSH1 0x0 DUP1 REVERT JUMPDEST POP PUSH2 0x26E PUSH1 0x4 DUP1 CALLDATASIZE SUB DUP2 ADD SWAP1 PUSH2 0x269 SWAP2 SWAP1 PUSH2 0x1459 JUMP JUMPDEST PUSH2 0xCC7 JUMP JUMPDEST PUSH1 0x40 MLOAD PUSH2 0x27B SWAP2 SWAP1 PUSH2 0x1AB8 JUMP JUMPDEST PUSH1 0x40 MLOAD DUP1 SWAP2 SUB SWAP1 RETURN JUMPDEST CALLVALUE DUP1 ISZERO PUSH2 0x290 JUMPI PUSH1 0x0 DUP1 REVERT JUMPDEST POP PUSH2 0x2AB PUSH1 0x4 DUP1 CALLDATASIZE SUB DUP2 ADD SWAP1 PUSH2 0x2A6 SWAP2 SWAP1 PUSH2 0x1AFD JUMP JUMPDEST PUSH2 0xCDF JUMP JUMPDEST PUSH1 0x40 MLOAD PUSH2 0x2BD SWAP7 SWAP6 SWAP5 SWAP4 SWAP3 SWAP2 SWAP1 PUSH2 0x18AC JUMP JUMPDEST PUSH1 0x40 MLOAD DUP1 SWAP2 SUB SWAP1 RETURN JUMPDEST CALLVALUE DUP1 ISZERO PUSH2 0x2D2 JUMPI PUSH1 0x0 DUP1 REVERT JUMPDEST POP PUSH2 0x2ED PUSH1 0x4 DUP1 CALLDATASIZE SUB DUP2 ADD SWAP1 PUSH2 0x2E8 SWAP2 SWAP1 PUSH2 0x1817 JUMP JUMPDEST PUSH2 0xDFA JUMP JUMPDEST STOP JUMPDEST PUSH1 0x60 PUSH1 0x1 PUSH1 0x0 SWAP1 SLOAD SWAP1 PUSH2 0x100 EXP SWAP1 DIV PUSH20 0xFFFFFFFFFFFFFFFFFFFFFFFFFFFFFFFFFFFFFFFF AND PUSH20 0xFFFFFFFFFFFFFFFFFFFFFFFFFFFFFFFFFFFFFFFF AND CALLER PUSH20 0xFFFFFFFFFFFFFFFFFFFFFFFFFFFFFFFFFFFFFFFF AND EQ PUSH2 0x381 JUMPI PUSH1 0x40 MLOAD PUSH32 0x8C379A000000000000000000000000000000000000000000000000000000000 DUP2 MSTORE PUSH1 0x4 ADD PUSH2 0x378 SWAP1 PUSH2 0x1BAF JUMP JUMPDEST PUSH1 0x40 MLOAD DUP1 SWAP2 SUB SWAP1 REVERT JUMPDEST PUSH1 0x3 SLOAD PUSH1 0x4 PUSH1 0x0 DUP5 PUSH20 0xFFFFFFFFFFFFFFFFFFFFFFFFFFFFFFFFFFFFFFFF AND PUSH20 0xFFFFFFFFFFFFFFFFFFFFFFFFFFFFFFFFFFFFFFFF AND DUP2 MSTORE PUSH1 0x20 ADD SWAP1 DUP2 MSTORE PUSH1 0x20 ADD PUSH1 0x0 KECCAK256 SLOAD LT ISZERO PUSH2 0x405 JUMPI PUSH1 0x40 MLOAD PUSH32 0x8C379A000000000000000000000000000000000000000000000000000000000 DUP2 MSTORE PUSH1 0x4 ADD PUSH2 0x3FC SWAP1 PUSH2 0x1C41 JUMP JUMPDEST PUSH1 0x40 MLOAD DUP1 SWAP2 SUB SWAP1 REVERT JUMPDEST PUSH1 0x5 PUSH1 0x0 DUP4 PUSH20 0xFFFFFFFFFFFFFFFFFFFFFFFFFFFFFFFFFFFFFFFF AND PUSH20 0xFFFFFFFFFFFFFFFFFFFFFFFFFFFFFFFFFFFFFFFF AND DUP2 MSTORE PUSH1 0x20 ADD SWAP1 DUP2 MSTORE PUSH1 0x20 ADD PUSH1 0x0 KECCAK256 DUP1 SLOAD DUP1 PUSH1 0x20 MUL PUSH1 0x20 ADD PUSH1 0x40 MLOAD SWAP1 DUP2 ADD PUSH1 0x40 MSTORE DUP1 SWAP3 SWAP2 SWAP1 DUP2 DUP2 MSTORE PUSH1 0x20 ADD PUSH1 0x0 SWAP1 JUMPDEST DUP3 DUP3 LT ISZERO PUSH2 0x5C8 JUMPI DUP4 DUP3 SWAP1 PUSH1 0x0 MSTORE PUSH1 0x20 PUSH1 0x0 KECCAK256 SWAP1 PUSH1 0x4 MUL ADD PUSH1 0x40 MLOAD DUP1 PUSH1 0xC0 ADD PUSH1 0x40 MSTORE SWAP1 DUP2 PUSH1 0x0 DUP3 ADD DUP1 SLOAD PUSH2 0x497 SWAP1 PUSH2 0x1C90 JUMP JUMPDEST DUP1 PUSH1 0x1F ADD PUSH1 0x20 DUP1 SWAP2 DIV MUL PUSH1 0x20 ADD PUSH1 0x40 MLOAD SWAP1 DUP2 ADD PUSH1 0x40 MSTORE DUP1 SWAP3 SWAP2 SWAP1 DUP2 DUP2 MSTORE PUSH1 0x20 ADD DUP3 DUP1 SLOAD PUSH2 0x4C3 SWAP1 PUSH2 0x1C90 JUMP JUMPDEST DUP1 ISZERO PUSH2 0x510 JUMPI DUP1 PUSH1 0x1F LT PUSH2 0x4E5 JUMPI PUSH2 0x100 DUP1 DUP4 SLOAD DIV MUL DUP4 MSTORE SWAP2 PUSH1 0x20 ADD SWAP2 PUSH2 0x510 JUMP JUMPDEST DUP3 ADD SWAP2 SWAP1 PUSH1 0x0 MSTORE PUSH1 0x20 PUSH1 0x0 KECCAK256 SWAP1 JUMPDEST DUP2 SLOAD DUP2 MSTORE SWAP1 PUSH1 0x1 ADD SWAP1 PUSH1 0x20 ADD DUP1 DUP4 GT PUSH2 0x4F3 JUMPI DUP3 SWAP1 SUB PUSH1 0x1F AND DUP3 ADD SWAP2 JUMPDEST POP POP POP POP POP DUP2 MSTORE PUSH1 0x20 ADD PUSH1 0x1 DUP3 ADD SLOAD DUP2 MSTORE PUSH1 0x20 ADD PUSH1 0x2 DUP3 ADD PUSH1 0x0 SWAP1 SLOAD SWAP1 PUSH2 0x100 EXP SWAP1 DIV PUSH20 0xFFFFFFFFFFFFFFFFFFFFFFFFFFFFFFFFFFFFFFFF AND PUSH20 0xFFFFFFFFFFFFFFFFFFFFFFFFFFFFFFFFFFFFFFFF AND PUSH20 0xFFFFFFFFFFFFFFFFFFFFFFFFFFFFFFFFFFFFFFFF AND DUP2 MSTORE PUSH1 0x20 ADD PUSH1 0x2 DUP3 ADD PUSH1 0x14 SWAP1 SLOAD SWAP1 PUSH2 0x100 EXP SWAP1 DIV PUSH1 0xFF AND ISZERO ISZERO ISZERO ISZERO DUP2 MSTORE PUSH1 0x20 ADD PUSH1 0x2 DUP3 ADD PUSH1 0x15 SWAP1 SLOAD SWAP1 PUSH2 0x100 EXP SWAP1 DIV PUSH1 0xFF AND ISZERO ISZERO ISZERO ISZERO DUP2 MSTORE PUSH1 0x20 ADD PUSH1 0x3 DUP3 ADD SLOAD DUP2 MSTORE POP POP DUP2 MSTORE PUSH1 0x20 ADD SWAP1 PUSH1 0x1 ADD SWAP1 PUSH2 0x464 JUMP JUMPDEST POP POP POP POP SWAP1 POP SWAP2 SWAP1 POP JUMP JUMPDEST PUSH1 0x60 PUSH1 0x2 DUP1 SLOAD DUP1 PUSH1 0x20 MUL PUSH1 0x20 ADD PUSH1 0x40 MLOAD SWAP1 DUP2 ADD PUSH1 0x40 MSTORE DUP1 SWAP3 SWAP2 SWAP1 DUP2 DUP2 MSTORE PUSH1 0x20 ADD DUP3 DUP1 SLOAD DUP1 ISZERO PUSH2 0x657 JUMPI PUSH1 0x20 MUL DUP3 ADD SWAP2 SWAP1 PUSH1 0x0 MSTORE PUSH1 0x20 PUSH1 0x0 KECCAK256 SWAP1 JUMPDEST DUP2 PUSH1 0x0 SWAP1 SLOAD SWAP1 PUSH2 0x100 EXP SWAP1 DIV PUSH20 0xFFFFFFFFFFFFFFFFFFFFFFFFFFFFFFFFFFFFFFFF AND PUSH20 0xFFFFFFFFFFFFFFFFFFFFFFFFFFFFFFFFFFFFFFFF AND DUP2 MSTORE PUSH1 0x20 ADD SWAP1 PUSH1 0x1 ADD SWAP1 DUP1 DUP4 GT PUSH2 0x60D JUMPI JUMPDEST POP POP POP POP POP SWAP1 POP SWAP1 JUMP JUMPDEST PUSH1 0x1 PUSH1 0x0 SWAP1 SLOAD SWAP1 PUSH2 0x100 EXP SWAP1 DIV PUSH20 0xFFFFFFFFFFFFFFFFFFFFFFFFFFFFFFFFFFFFFFFF AND DUP2 JUMP JUMPDEST PUSH1 0x0 DUP2 DUP2 SLOAD DUP2 LT PUSH2 0x697 JUMPI PUSH1 0x0 DUP1 REVERT JUMPDEST SWAP1 PUSH1 0x0 MSTORE PUSH1 0x20 PUSH1 0x0 KECCAK256 SWAP1 PUSH1 0x4 MUL ADD PUSH1 0x0 SWAP2 POP SWAP1 POP DUP1 PUSH1 0x0 ADD DUP1 SLOAD PUSH2 0x6BA SWAP1 PUSH2 0x1C90 JUMP JUMPDEST DUP1 PUSH1 0x1F ADD PUSH1 0x20 DUP1 SWAP2 DIV MUL PUSH1 0x20 ADD PUSH1 0x40 MLOAD SWAP1 DUP2 ADD PUSH1 0x40 MSTORE DUP1 SWAP3 SWAP2 SWAP1 DUP2 DUP2 MSTORE PUSH1 0x20 ADD DUP3 DUP1 SLOAD PUSH2 0x6E6 SWAP1 PUSH2 0x1C90 JUMP JUMPDEST DUP1 ISZERO PUSH2 0x733 JUMPI DUP1 PUSH1 0x1F LT PUSH2 0x708 JUMPI PUSH2 0x100 DUP1 DUP4 SLOAD DIV MUL DUP4 MSTORE SWAP2 PUSH1 0x20 ADD SWAP2 PUSH2 0x733 JUMP JUMPDEST DUP3 ADD SWAP2 SWAP1 PUSH1 0x0 MSTORE PUSH1 0x20 PUSH1 0x0 KECCAK256 SWAP1 JUMPDEST DUP2 SLOAD DUP2 MSTORE SWAP1 PUSH1 0x1 ADD SWAP1 PUSH1 0x20 ADD DUP1 DUP4 GT PUSH2 0x716 JUMPI DUP3 SWAP1 SUB PUSH1 0x1F AND DUP3 ADD SWAP2 JUMPDEST POP POP POP POP POP SWAP1 DUP1 PUSH1 0x1 ADD SLOAD SWAP1 DUP1 PUSH1 0x2 ADD PUSH1 0x0 SWAP1 SLOAD SWAP1 PUSH2 0x100 EXP SWAP1 DIV PUSH20 0xFFFFFFFFFFFFFFFFFFFFFFFFFFFFFFFFFFFFFFFF AND SWAP1 DUP1 PUSH1 0x2 ADD PUSH1 0x14 SWAP1 SLOAD SWAP1 PUSH2 0x100 EXP SWAP1 DIV PUSH1 0xFF AND SWAP1 DUP1 PUSH1 0x2 ADD PUSH1 0x15 SWAP1 SLOAD SWAP1 PUSH2 0x100 EXP SWAP1 DIV PUSH1 0xFF AND SWAP1 DUP1 PUSH1 0x3 ADD SLOAD SWAP1 POP DUP7 JUMP JUMPDEST PUSH1 0x60 PUSH1 0x0 DUP1 SLOAD DUP1 PUSH1 0x20 MUL PUSH1 0x20 ADD PUSH1 0x40 MLOAD SWAP1 DUP2 ADD PUSH1 0x40 MSTORE DUP1 SWAP3 SWAP2 SWAP1 DUP2 DUP2 MSTORE PUSH1 0x20 ADD PUSH1 0x0 SWAP1 JUMPDEST DUP3 DUP3 LT ISZERO PUSH2 0x91D JUMPI DUP4 DUP3 SWAP1 PUSH1 0x0 MSTORE PUSH1 0x20 PUSH1 0x0 KECCAK256 SWAP1 PUSH1 0x4 MUL ADD PUSH1 0x40 MLOAD DUP1 PUSH1 0xC0 ADD PUSH1 0x40 MSTORE SWAP1 DUP2 PUSH1 0x0 DUP3 ADD DUP1 SLOAD PUSH2 0x7EC SWAP1 PUSH2 0x1C90 JUMP JUMPDEST DUP1 PUSH1 0x1F ADD PUSH1 0x20 DUP1 SWAP2 DIV MUL PUSH1 0x20 ADD PUSH1 0x40 MLOAD SWAP1 DUP2 ADD PUSH1 0x40 MSTORE DUP1 SWAP3 SWAP2 SWAP1 DUP2 DUP2 MSTORE PUSH1 0x20 ADD DUP3 DUP1 SLOAD PUSH2 0x818 SWAP1 PUSH2 0x1C90 JUMP JUMPDEST DUP1 ISZERO PUSH2 0x865 JUMPI DUP1 PUSH1 0x1F LT PUSH2 0x83A JUMPI PUSH2 0x100 DUP1 DUP4 SLOAD DIV MUL DUP4 MSTORE SWAP2 PUSH1 0x20 ADD SWAP2 PUSH2 0x865 JUMP JUMPDEST DUP3 ADD SWAP2 SWAP1 PUSH1 0x0 MSTORE PUSH1 0x20 PUSH1 0x0 KECCAK256 SWAP1 JUMPDEST DUP2 SLOAD DUP2 MSTORE SWAP1 PUSH1 0x1 ADD SWAP1 PUSH1 0x20 ADD DUP1 DUP4 GT PUSH2 0x848 JUMPI DUP3 SWAP1 SUB PUSH1 0x1F AND DUP3 ADD SWAP2 JUMPDEST POP POP POP POP POP DUP2 MSTORE PUSH1 0x20 ADD PUSH1 0x1 DUP3 ADD SLOAD DUP2 MSTORE PUSH1 0x20 ADD PUSH1 0x2 DUP3 ADD PUSH1 0x0 SWAP1 SLOAD SWAP1 PUSH2 0x100 EXP SWAP1 DIV PUSH20 0xFFFFFFFFFFFFFFFFFFFFFFFFFFFFFFFFFFFFFFFF AND PUSH20 0xFFFFFFFFFFFFFFFFFFFFFFFFFFFFFFFFFFFFFFFF AND PUSH20 0xFFFFFFFFFFFFFFFFFFFFFFFFFFFFFFFFFFFFFFFF AND DUP2 MSTORE PUSH1 0x20 ADD PUSH1 0x2 DUP3 ADD PUSH1 0x14 SWAP1 SLOAD SWAP1 PUSH2 0x100 EXP SWAP1 DIV PUSH1 0xFF AND ISZERO ISZERO ISZERO ISZERO DUP2 MSTORE PUSH1 0x20 ADD PUSH1 0x2 DUP3 ADD PUSH1 0x15 SWAP1 SLOAD SWAP1 PUSH2 0x100 EXP SWAP1 DIV PUSH1 0xFF AND ISZERO ISZERO ISZERO ISZERO DUP2 MSTORE PUSH1 0x20 ADD PUSH1 0x3 DUP3 ADD SLOAD DUP2 MSTORE POP POP DUP2 MSTORE PUSH1 0x20 ADD SWAP1 PUSH1 0x1 ADD SWAP1 PUSH2 0x7B9 JUMP JUMPDEST POP POP POP POP SWAP1 POP SWAP1 JUMP JUMPDEST PUSH1 0x1 PUSH1 0x0 SWAP1 SLOAD SWAP1 PUSH2 0x100 EXP SWAP1 DIV PUSH20 0xFFFFFFFFFFFFFFFFFFFFFFFFFFFFFFFFFFFFFFFF AND PUSH20 0xFFFFFFFFFFFFFFFFFFFFFFFFFFFFFFFFFFFFFFFF AND CALLER PUSH20 0xFFFFFFFFFFFFFFFFFFFFFFFFFFFFFFFFFFFFFFFF AND EQ PUSH2 0x9B6 JUMPI PUSH1 0x40 MLOAD PUSH32 0x8C379A000000000000000000000000000000000000000000000000000000000 DUP2 MSTORE PUSH1 0x4 ADD PUSH2 0x9AD SWAP1 PUSH2 0x1BAF JUMP JUMPDEST PUSH1 0x40 MLOAD DUP1 SWAP2 SUB SWAP1 REVERT JUMPDEST PUSH1 0x0 PUSH1 0x40 MLOAD DUP1 PUSH1 0xC0 ADD PUSH1 0x40 MSTORE DUP1 DUP6 DUP2 MSTORE PUSH1 0x20 ADD DUP5 DUP2 MSTORE PUSH1 0x20 ADD DUP4 PUSH20 0xFFFFFFFFFFFFFFFFFFFFFFFFFFFFFFFFFFFFFFFF AND DUP2 MSTORE PUSH1 0x20 ADD PUSH1 0x0 ISZERO ISZERO DUP2 MSTORE PUSH1 0x20 ADD PUSH1 0x0 ISZERO ISZERO DUP2 MSTORE PUSH1 0x20 ADD PUSH1 0x0 DUP2 MSTORE POP SWAP1 POP PUSH1 0x0 DUP2 SWAP1 DUP1 PUSH1 0x1 DUP2 SLOAD ADD DUP1 DUP3 SSTORE DUP1 SWAP2 POP POP PUSH1 0x1 SWAP1 SUB SWAP1 PUSH1 0x0 MSTORE PUSH1 0x20 PUSH1 0x0 KECCAK256 SWAP1 PUSH1 0x4 MUL ADD PUSH1 0x0 SWAP1 SWAP2 SWAP1 SWAP2 SWAP1 SWAP2 POP PUSH1 0x0 DUP3 ADD MLOAD DUP2 PUSH1 0x0 ADD SWAP1 DUP1 MLOAD SWAP1 PUSH1 0x20 ADD SWAP1 PUSH2 0xA4C SWAP3 SWAP2 SWAP1 PUSH2 0x12B7 JUMP JUMPDEST POP PUSH1 0x20 DUP3 ADD MLOAD DUP2 PUSH1 0x1 ADD SSTORE PUSH1 0x40 DUP3 ADD MLOAD DUP2 PUSH1 0x2 ADD PUSH1 0x0 PUSH2 0x100 EXP DUP2 SLOAD DUP2 PUSH20 0xFFFFFFFFFFFFFFFFFFFFFFFFFFFFFFFFFFFFFFFF MUL NOT AND SWAP1 DUP4 PUSH20 0xFFFFFFFFFFFFFFFFFFFFFFFFFFFFFFFFFFFFFFFF AND MUL OR SWAP1 SSTORE POP PUSH1 0x60 DUP3 ADD MLOAD DUP2 PUSH1 0x2 ADD PUSH1 0x14 PUSH2 0x100 EXP DUP2 SLOAD DUP2 PUSH1 0xFF MUL NOT AND SWAP1 DUP4 ISZERO ISZERO MUL OR SWAP1 SSTORE POP PUSH1 0x80 DUP3 ADD MLOAD DUP2 PUSH1 0x2 ADD PUSH1 0x15 PUSH2 0x100 EXP DUP2 SLOAD DUP2 PUSH1 0xFF MUL NOT AND SWAP1 DUP4 ISZERO ISZERO MUL OR SWAP1 SSTORE POP PUSH1 0xA0 DUP3 ADD MLOAD DUP2 PUSH1 0x3 ADD SSTORE POP POP POP POP POP POP JUMP JUMPDEST PUSH1 0x3 SLOAD CALLVALUE LT ISZERO PUSH2 0xB35 JUMPI PUSH1 0x40 MLOAD PUSH32 0x8C379A000000000000000000000000000000000000000000000000000000000 DUP2 MSTORE PUSH1 0x4 ADD PUSH2 0xB2C SWAP1 PUSH2 0x1D33 JUMP JUMPDEST PUSH1 0x40 MLOAD DUP1 SWAP2 SUB SWAP1 REVERT JUMPDEST PUSH1 0x2 CALLER SWAP1 DUP1 PUSH1 0x1 DUP2 SLOAD ADD DUP1 DUP3 SSTORE DUP1 SWAP2 POP POP PUSH1 0x1 SWAP1 SUB SWAP1 PUSH1 0x0 MSTORE PUSH1 0x20 PUSH1 0x0 KECCAK256 ADD PUSH1 0x0 SWAP1 SWAP2 SWAP1 SWAP2 SWAP1 SWAP2 PUSH2 0x100 EXP DUP2 SLOAD DUP2 PUSH20 0xFFFFFFFFFFFFFFFFFFFFFFFFFFFFFFFFFFFFFFFF MUL NOT AND SWAP1 DUP4 PUSH20 0xFFFFFFFFFFFFFFFFFFFFFFFFFFFFFFFFFFFFFFFF AND MUL OR SWAP1 SSTORE POP CALLVALUE PUSH1 0x4 PUSH1 0x0 CALLER PUSH20 0xFFFFFFFFFFFFFFFFFFFFFFFFFFFFFFFFFFFFFFFF AND PUSH20 0xFFFFFFFFFFFFFFFFFFFFFFFFFFFFFFFFFFFFFFFF AND DUP2 MSTORE PUSH1 0x20 ADD SWAP1 DUP2 MSTORE PUSH1 0x20 ADD PUSH1 0x0 KECCAK256 PUSH1 0x0 DUP3 DUP3 SLOAD PUSH2 0xBE7 SWAP2 SWAP1 PUSH2 0x1D82 JUMP JUMPDEST SWAP3 POP POP DUP2 SWAP1 SSTORE POP JUMP JUMPDEST PUSH1 0x0 PUSH1 0x1 PUSH1 0x0 SWAP1 SLOAD SWAP1 PUSH2 0x100 EXP SWAP1 DIV PUSH20 0xFFFFFFFFFFFFFFFFFFFFFFFFFFFFFFFFFFFFFFFF AND PUSH20 0xFFFFFFFFFFFFFFFFFFFFFFFFFFFFFFFFFFFFFFFF AND CALLER PUSH20 0xFFFFFFFFFFFFFFFFFFFFFFFFFFFFFFFFFFFFFFFF AND EQ PUSH2 0xC82 JUMPI PUSH1 0x40 MLOAD PUSH32 0x8C379A000000000000000000000000000000000000000000000000000000000 DUP2 MSTORE PUSH1 0x4 ADD PUSH2 0xC79 SWAP1 PUSH2 0x1BAF JUMP JUMPDEST PUSH1 0x40 MLOAD DUP1 SWAP2 SUB SWAP1 REVERT JUMPDEST SELFBALANCE SWAP1 POP SWAP1 JUMP JUMPDEST PUSH1 0x2 DUP2 DUP2 SLOAD DUP2 LT PUSH2 0xC98 JUMPI PUSH1 0x0 DUP1 REVERT JUMPDEST SWAP1 PUSH1 0x0 MSTORE PUSH1 0x20 PUSH1 0x0 KECCAK256 ADD PUSH1 0x0 SWAP2 POP SLOAD SWAP1 PUSH2 0x100 EXP SWAP1 DIV PUSH20 0xFFFFFFFFFFFFFFFFFFFFFFFFFFFFFFFFFFFFFFFF AND DUP2 JUMP JUMPDEST PUSH1 0x4 PUSH1 0x20 MSTORE DUP1 PUSH1 0x0 MSTORE PUSH1 0x40 PUSH1 0x0 KECCAK256 PUSH1 0x0 SWAP2 POP SWAP1 POP SLOAD DUP2 JUMP JUMPDEST PUSH1 0x5 PUSH1 0x20 MSTORE DUP2 PUSH1 0x0 MSTORE PUSH1 0x40 PUSH1 0x0 KECCAK256 DUP2 DUP2 SLOAD DUP2 LT PUSH2 0xCFB JUMPI PUSH1 0x0 DUP1 REVERT JUMPDEST SWAP1 PUSH1 0x0 MSTORE PUSH1 0x20 PUSH1 0x0 KECCAK256 SWAP1 PUSH1 0x4 MUL ADD PUSH1 0x0 SWAP2 POP SWAP2 POP POP DUP1 PUSH1 0x0 ADD DUP1 SLOAD PUSH2 0xD1F SWAP1 PUSH2 0x1C90 JUMP JUMPDEST DUP1 PUSH1 0x1F ADD PUSH1 0x20 DUP1 SWAP2 DIV MUL PUSH1 0x20 ADD PUSH1 0x40 MLOAD SWAP1 DUP2 ADD PUSH1 0x40 MSTORE DUP1 SWAP3 SWAP2 SWAP1 DUP2 DUP2 MSTORE PUSH1 0x20 ADD DUP3 DUP1 SLOAD PUSH2 0xD4B SWAP1 PUSH2 0x1C90 JUMP JUMPDEST DUP1 ISZERO PUSH2 0xD98 JUMPI DUP1 PUSH1 0x1F LT PUSH2 0xD6D JUMPI PUSH2 0x100 DUP1 DUP4 SLOAD DIV MUL DUP4 MSTORE SWAP2 PUSH1 0x20 ADD SWAP2 PUSH2 0xD98 JUMP JUMPDEST DUP3 ADD SWAP2 SWAP1 PUSH1 0x0 MSTORE PUSH1 0x20 PUSH1 0x0 KECCAK256 SWAP1 JUMPDEST DUP2 SLOAD DUP2 MSTORE SWAP1 PUSH1 0x1 ADD SWAP1 PUSH1 0x20 ADD DUP1 DUP4 GT PUSH2 0xD7B JUMPI DUP3 SWAP1 SUB PUSH1 0x1F AND DUP3 ADD SWAP2 JUMPDEST POP POP POP POP POP SWAP1 DUP1 PUSH1 0x1 ADD SLOAD SWAP1 DUP1 PUSH1 0x2 ADD PUSH1 0x0 SWAP1 SLOAD SWAP1 PUSH2 0x100 EXP SWAP1 DIV PUSH20 0xFFFFFFFFFFFFFFFFFFFFFFFFFFFFFFFFFFFFFFFF AND SWAP1 DUP1 PUSH1 0x2 ADD PUSH1 0x14 SWAP1 SLOAD SWAP1 PUSH2 0x100 EXP SWAP1 DIV PUSH1 0xFF AND SWAP1 DUP1 PUSH1 0x2 ADD PUSH1 0x15 SWAP1 SLOAD SWAP1 PUSH2 0x100 EXP SWAP1 DIV PUSH1 0xFF AND SWAP1 DUP1 PUSH1 0x3 ADD SLOAD SWAP1 POP DUP7 JUMP JUMPDEST PUSH1 0x3 SLOAD PUSH1 0x4 PUSH1 0x0 CALLER PUSH20 0xFFFFFFFFFFFFFFFFFFFFFFFFFFFFFFFFFFFFFFFF AND PUSH20 0xFFFFFFFFFFFFFFFFFFFFFFFFFFFFFFFFFFFFFFFF AND DUP2 MSTORE PUSH1 0x20 ADD SWAP1 DUP2 MSTORE PUSH1 0x20 ADD PUSH1 0x0 KECCAK256 SLOAD LT ISZERO PUSH2 0xE7E JUMPI PUSH1 0x40 MLOAD PUSH32 0x8C379A000000000000000000000000000000000000000000000000000000000 DUP2 MSTORE PUSH1 0x4 ADD PUSH2 0xE75 SWAP1 PUSH2 0x1E4A JUMP JUMPDEST PUSH1 0x40 MLOAD DUP1 SWAP2 SUB SWAP1 REVERT JUMPDEST PUSH1 0x0 DUP1 DUP3 DUP2 SLOAD DUP2 LT PUSH2 0xE93 JUMPI PUSH2 0xE92 PUSH2 0x1E6A JUMP JUMPDEST JUMPDEST SWAP1 PUSH1 0x0 MSTORE PUSH1 0x20 PUSH1 0x0 KECCAK256 SWAP1 PUSH1 0x4 MUL ADD SWAP1 POP PUSH1 0x0 PUSH1 0x5 PUSH1 0x0 CALLER PUSH20 0xFFFFFFFFFFFFFFFFFFFFFFFFFFFFFFFFFFFFFFFF AND PUSH20 0xFFFFFFFFFFFFFFFFFFFFFFFFFFFFFFFFFFFFFFFF AND DUP2 MSTORE PUSH1 0x20 ADD SWAP1 DUP2 MSTORE PUSH1 0x20 ADD PUSH1 0x0 KECCAK256 DUP1 SLOAD DUP1 PUSH1 0x20 MUL PUSH1 0x20 ADD PUSH1 0x40 MLOAD SWAP1 DUP2 ADD PUSH1 0x40 MSTORE DUP1 SWAP3 SWAP2 SWAP1 DUP2 DUP2 MSTORE PUSH1 0x20 ADD PUSH1 0x0 SWAP1 JUMPDEST DUP3 DUP3 LT ISZERO PUSH2 0x1068 JUMPI DUP4 DUP3 SWAP1 PUSH1 0x0 MSTORE PUSH1 0x20 PUSH1 0x0 KECCAK256 SWAP1 PUSH1 0x4 MUL ADD PUSH1 0x40 MLOAD DUP1 PUSH1 0xC0 ADD PUSH1 0x40 MSTORE SWAP1 DUP2 PUSH1 0x0 DUP3 ADD DUP1 SLOAD PUSH2 0xF37 SWAP1 PUSH2 0x1C90 JUMP JUMPDEST DUP1 PUSH1 0x1F ADD PUSH1 0x20 DUP1 SWAP2 DIV MUL PUSH1 0x20 ADD PUSH1 0x40 MLOAD SWAP1 DUP2 ADD PUSH1 0x40 MSTORE DUP1 SWAP3 SWAP2 SWAP1 DUP2 DUP2 MSTORE PUSH1 0x20 ADD DUP3 DUP1 SLOAD PUSH2 0xF63 SWAP1 PUSH2 0x1C90 JUMP JUMPDEST DUP1 ISZERO PUSH2 0xFB0 JUMPI DUP1 PUSH1 0x1F LT PUSH2 0xF85 JUMPI PUSH2 0x100 DUP1 DUP4 SLOAD DIV MUL DUP4 MSTORE SWAP2 PUSH1 0x20 ADD SWAP2 PUSH2 0xFB0 JUMP JUMPDEST DUP3 ADD SWAP2 SWAP1 PUSH1 0x0 MSTORE PUSH1 0x20 PUSH1 0x0 KECCAK256 SWAP1 JUMPDEST DUP2 SLOAD DUP2 MSTORE SWAP1 PUSH1 0x1 ADD SWAP1 PUSH1 0x20 ADD DUP1 DUP4 GT PUSH2 0xF93 JUMPI DUP3 SWAP1 SUB PUSH1 0x1F AND DUP3 ADD SWAP2 JUMPDEST POP POP POP POP POP DUP2 MSTORE PUSH1 0x20 ADD PUSH1 0x1 DUP3 ADD SLOAD DUP2 MSTORE PUSH1 0x20 ADD PUSH1 0x2 DUP3 ADD PUSH1 0x0 SWAP1 SLOAD SWAP1 PUSH2 0x100 EXP SWAP1 DIV PUSH20 0xFFFFFFFFFFFFFFFFFFFFFFFFFFFFFFFFFFFFFFFF AND PUSH20 0xFFFFFFFFFFFFFFFFFFFFFFFFFFFFFFFFFFFFFFFF AND PUSH20 0xFFFFFFFFFFFFFFFFFFFFFFFFFFFFFFFFFFFFFFFF AND DUP2 MSTORE PUSH1 0x20 ADD PUSH1 0x2 DUP3 ADD PUSH1 0x14 SWAP1 SLOAD SWAP1 PUSH2 0x100 EXP SWAP1 DIV PUSH1 0xFF AND ISZERO ISZERO ISZERO ISZERO DUP2 MSTORE PUSH1 0x20 ADD PUSH1 0x2 DUP3 ADD PUSH1 0x15 SWAP1 SLOAD SWAP1 PUSH2 0x100 EXP SWAP1 DIV PUSH1 0xFF AND ISZERO ISZERO ISZERO ISZERO DUP2 MSTORE PUSH1 0x20 ADD PUSH1 0x3 DUP3 ADD SLOAD DUP2 MSTORE POP POP DUP2 MSTORE PUSH1 0x20 ADD SWAP1 PUSH1 0x1 ADD SWAP1 PUSH2 0xF04 JUMP JUMPDEST POP POP POP POP SWAP1 POP PUSH1 0x0 JUMPDEST DUP2 MLOAD DUP2 LT ISZERO PUSH2 0x1135 JUMPI DUP2 DUP2 DUP2 MLOAD DUP2 LT PUSH2 0x108D JUMPI PUSH2 0x108C PUSH2 0x1E6A JUMP JUMPDEST JUMPDEST PUSH1 0x20 MUL PUSH1 0x20 ADD ADD MLOAD PUSH1 0x40 MLOAD PUSH1 0x20 ADD PUSH2 0x10A5 SWAP2 SWAP1 PUSH2 0x1F22 JUMP JUMPDEST PUSH1 0x40 MLOAD PUSH1 0x20 DUP2 DUP4 SUB SUB DUP2 MSTORE SWAP1 PUSH1 0x40 MSTORE DUP1 MLOAD SWAP1 PUSH1 0x20 ADD KECCAK256 DUP4 PUSH1 0x40 MLOAD PUSH1 0x20 ADD PUSH2 0x10CC SWAP2 SWAP1 PUSH2 0x2152 JUMP JUMPDEST PUSH1 0x40 MLOAD PUSH1 0x20 DUP2 DUP4 SUB SUB DUP2 MSTORE SWAP1 PUSH1 0x40 MSTORE DUP1 MLOAD SWAP1 PUSH1 0x20 ADD KECCAK256 EQ PUSH2 0x1122 JUMPI PUSH1 0x40 MLOAD PUSH32 0x8C379A000000000000000000000000000000000000000000000000000000000 DUP2 MSTORE PUSH1 0x4 ADD PUSH2 0x1119 SWAP1 PUSH2 0x21E6 JUMP JUMPDEST PUSH1 0x40 MLOAD DUP1 SWAP2 SUB SWAP1 REVERT JUMPDEST DUP1 DUP1 PUSH2 0x112D SWAP1 PUSH2 0x2206 JUMP JUMPDEST SWAP2 POP POP PUSH2 0x1071 JUMP JUMPDEST POP PUSH1 0x1 DUP3 PUSH1 0x3 ADD PUSH1 0x0 DUP3 DUP3 SLOAD PUSH2 0x114B SWAP2 SWAP1 PUSH2 0x1D82 JUMP JUMPDEST SWAP3 POP POP DUP2 SWAP1 SSTORE POP PUSH1 0x5 PUSH1 0x0 CALLER PUSH20 0xFFFFFFFFFFFFFFFFFFFFFFFFFFFFFFFFFFFFFFFF AND PUSH20 0xFFFFFFFFFFFFFFFFFFFFFFFFFFFFFFFFFFFFFFFF AND DUP2 MSTORE PUSH1 0x20 ADD SWAP1 DUP2 MSTORE PUSH1 0x20 ADD PUSH1 0x0 KECCAK256 DUP3 SWAP1 DUP1 PUSH1 0x1 DUP2 SLOAD ADD DUP1 DUP3 SSTORE DUP1 SWAP2 POP POP PUSH1 0x1 SWAP1 SUB SWAP1 PUSH1 0x0 MSTORE PUSH1 0x20 PUSH1 0x0 KECCAK256 SWAP1 PUSH1 0x4 MUL ADD PUSH1 0x0 SWAP1 SWAP2 SWAP1 SWAP2 SWAP1 SWAP2 POP PUSH1 0x0 DUP3 ADD DUP2 PUSH1 0x0 ADD SWAP1 DUP1 SLOAD PUSH2 0x11CF SWAP1 PUSH2 0x1C90 JUMP JUMPDEST PUSH2 0x11DA SWAP3 SWAP2 SWAP1 PUSH2 0x133D JUMP JUMPDEST POP PUSH1 0x1 DUP3 ADD SLOAD DUP2 PUSH1 0x1 ADD SSTORE PUSH1 0x2 DUP3 ADD PUSH1 0x0 SWAP1 SLOAD SWAP1 PUSH2 0x100 EXP SWAP1 DIV PUSH20 0xFFFFFFFFFFFFFFFFFFFFFFFFFFFFFFFFFFFFFFFF AND DUP2 PUSH1 0x2 ADD PUSH1 0x0 PUSH2 0x100 EXP DUP2 SLOAD DUP2 PUSH20 0xFFFFFFFFFFFFFFFFFFFFFFFFFFFFFFFFFFFFFFFF MUL NOT AND SWAP1 DUP4 PUSH20 0xFFFFFFFFFFFFFFFFFFFFFFFFFFFFFFFFFFFFFFFF AND MUL OR SWAP1 SSTORE POP PUSH1 0x2 DUP3 ADD PUSH1 0x14 SWAP1 SLOAD SWAP1 PUSH2 0x100 EXP SWAP1 DIV PUSH1 0xFF AND DUP2 PUSH1 0x2 ADD PUSH1 0x14 PUSH2 0x100 EXP DUP2 SLOAD DUP2 PUSH1 0xFF MUL NOT AND SWAP1 DUP4 ISZERO ISZERO MUL OR SWAP1 SSTORE POP PUSH1 0x2 DUP3 ADD PUSH1 0x15 SWAP1 SLOAD SWAP1 PUSH2 0x100 EXP SWAP1 DIV PUSH1 0xFF AND DUP2 PUSH1 0x2 ADD PUSH1 0x15 PUSH2 0x100 EXP DUP2 SLOAD DUP2 PUSH1 0xFF MUL NOT AND SWAP1 DUP4 ISZERO ISZERO MUL OR SWAP1 SSTORE POP PUSH1 0x3 DUP3 ADD SLOAD DUP2 PUSH1 0x3 ADD SSTORE POP POP POP POP POP JUMP JUMPDEST DUP3 DUP1 SLOAD PUSH2 0x12C3 SWAP1 PUSH2 0x1C90 JUMP JUMPDEST SWAP1 PUSH1 0x0 MSTORE PUSH1 0x20 PUSH1 0x0 KECCAK256 SWAP1 PUSH1 0x1F ADD PUSH1 0x20 SWAP1 DIV DUP2 ADD SWAP3 DUP3 PUSH2 0x12E5 JUMPI PUSH1 0x0 DUP6 SSTORE PUSH2 0x132C JUMP JUMPDEST DUP3 PUSH1 0x1F LT PUSH2 0x12FE JUMPI DUP1 MLOAD PUSH1 0xFF NOT AND DUP4 DUP1 ADD OR DUP6 SSTORE PUSH2 0x132C JUMP JUMPDEST DUP3 DUP1 ADD PUSH1 0x1 ADD DUP6 SSTORE DUP3 ISZERO PUSH2 0x132C JUMPI SWAP2 DUP3 ADD JUMPDEST DUP3 DUP2 GT ISZERO PUSH2 0x132B JUMPI DUP3 MLOAD DUP3 SSTORE SWAP2 PUSH1 0x20 ADD SWAP2 SWAP1 PUSH1 0x1 ADD SWAP1 PUSH2 0x1310 JUMP JUMPDEST JUMPDEST POP SWAP1 POP PUSH2 0x1339 SWAP2 SWAP1 PUSH2 0x13CA JUMP JUMPDEST POP SWAP1 JUMP JUMPDEST DUP3 DUP1 SLOAD PUSH2 0x1349 SWAP1 PUSH2 0x1C90 JUMP JUMPDEST SWAP1 PUSH1 0x0 MSTORE PUSH1 0x20 PUSH1 0x0 KECCAK256 SWAP1 PUSH1 0x1F ADD PUSH1 0x20 SWAP1 DIV DUP2 ADD SWAP3 DUP3 PUSH2 0x136B JUMPI PUSH1 0x0 DUP6 SSTORE PUSH2 0x13B9 JUMP JUMPDEST DUP3 PUSH1 0x1F LT PUSH2 0x137C JUMPI DUP1 SLOAD DUP6 SSTORE PUSH2 0x13B9 JUMP JUMPDEST DUP3 DUP1 ADD PUSH1 0x1 ADD DUP6 SSTORE DUP3 ISZERO PUSH2 0x13B9 JUMPI PUSH1 0x0 MSTORE PUSH1 0x20 PUSH1 0x0 KECCAK256 SWAP2 PUSH1 0x1F ADD PUSH1 0x20 SWAP1 DIV DUP3 ADD JUMPDEST DUP3 DUP2 GT ISZERO PUSH2 0x13B8 JUMPI DUP3 SLOAD DUP3 SSTORE SWAP2 PUSH1 0x1 ADD SWAP2 SWAP1 PUSH1 0x1 ADD SWAP1 PUSH2 0x139D JUMP JUMPDEST JUMPDEST POP SWAP1 POP PUSH2 0x13C6 SWAP2 SWAP1 PUSH2 0x13CA JUMP JUMPDEST POP SWAP1 JUMP JUMPDEST JUMPDEST DUP1 DUP3 GT ISZERO PUSH2 0x13E3 JUMPI PUSH1 0x0 DUP2 PUSH1 0x0 SWAP1 SSTORE POP PUSH1 0x1 ADD PUSH2 0x13CB JUMP JUMPDEST POP SWAP1 JUMP JUMPDEST PUSH1 0x0 PUSH1 0x40 MLOAD SWAP1 POP SWAP1 JUMP JUMPDEST PUSH1 0x0 DUP1 REVERT JUMPDEST PUSH1 0x0 DUP1 REVERT JUMPDEST PUSH1 0x0 PUSH20 0xFFFFFFFFFFFFFFFFFFFFFFFFFFFFFFFFFFFFFFFF DUP3 AND SWAP1 POP SWAP2 SWAP1 POP JUMP JUMPDEST PUSH1 0x0 PUSH2 0x1426 DUP3 PUSH2 0x13FB JUMP JUMPDEST SWAP1 POP SWAP2 SWAP1 POP JUMP JUMPDEST PUSH2 0x1436 DUP2 PUSH2 0x141B JUMP JUMPDEST DUP2 EQ PUSH2 0x1441 JUMPI PUSH1 0x0 DUP1 REVERT JUMPDEST POP JUMP JUMPDEST PUSH1 0x0 DUP2 CALLDATALOAD SWAP1 POP PUSH2 0x1453 DUP2 PUSH2 0x142D JUMP JUMPDEST SWAP3 SWAP2 POP POP JUMP JUMPDEST PUSH1 0x0 PUSH1 0x20 DUP3 DUP5 SUB SLT ISZERO PUSH2 0x146F JUMPI PUSH2 0x146E PUSH2 0x13F1 JUMP JUMPDEST JUMPDEST PUSH1 0x0 PUSH2 0x147D DUP5 DUP3 DUP6 ADD PUSH2 0x1444 JUMP JUMPDEST SWAP2 POP POP SWAP3 SWAP2 POP POP JUMP JUMPDEST PUSH1 0x0 DUP2 MLOAD SWAP1 POP SWAP2 SWAP1 POP JUMP JUMPDEST PUSH1 0x0 DUP3 DUP3 MSTORE PUSH1 0x20 DUP3 ADD SWAP1 POP SWAP3 SWAP2 POP POP JUMP JUMPDEST PUSH1 0x0 DUP2 SWAP1 POP PUSH1 0x20 DUP3 ADD SWAP1 POP SWAP2 SWAP1 POP JUMP JUMPDEST PUSH1 0x0 DUP2 MLOAD SWAP1 POP SWAP2 SWAP1 POP JUMP JUMPDEST PUSH1 0x0 DUP3 DUP3 MSTORE PUSH1 0x20 DUP3 ADD SWAP1 POP SWAP3 SWAP2 POP POP JUMP JUMPDEST PUSH1 0x0 JUMPDEST DUP4 DUP2 LT ISZERO PUSH2 0x14EC JUMPI DUP1 DUP3 ADD MLOAD DUP2 DUP5 ADD MSTORE PUSH1 0x20 DUP2 ADD SWAP1 POP PUSH2 0x14D1 JUMP JUMPDEST DUP4 DUP2 GT ISZERO PUSH2 0x14FB JUMPI PUSH1 0x0 DUP5 DUP5 ADD MSTORE JUMPDEST POP POP POP POP JUMP JUMPDEST PUSH1 0x0 PUSH1 0x1F NOT PUSH1 0x1F DUP4 ADD AND SWAP1 POP SWAP2 SWAP1 POP JUMP JUMPDEST PUSH1 0x0 PUSH2 0x151D DUP3 PUSH2 0x14B2 JUMP JUMPDEST PUSH2 0x1527 DUP2 DUP6 PUSH2 0x14BD JUMP JUMPDEST SWAP4 POP PUSH2 0x1537 DUP2 DUP6 PUSH1 0x20 DUP7 ADD PUSH2 0x14CE JUMP JUMPDEST PUSH2 0x1540 DUP2 PUSH2 0x1501 JUMP JUMPDEST DUP5 ADD SWAP2 POP POP SWAP3 SWAP2 POP POP JUMP JUMPDEST PUSH1 0x0 DUP2 SWAP1 POP SWAP2 SWAP1 POP JUMP JUMPDEST PUSH2 0x155E DUP2 PUSH2 0x154B JUMP JUMPDEST DUP3 MSTORE POP POP JUMP JUMPDEST PUSH2 0x156D DUP2 PUSH2 0x141B JUMP JUMPDEST DUP3 MSTORE POP POP JUMP JUMPDEST PUSH1 0x0 DUP2 ISZERO ISZERO SWAP1 POP SWAP2 SWAP1 POP JUMP JUMPDEST PUSH2 0x1588 DUP2 PUSH2 0x1573 JUMP JUMPDEST DUP3 MSTORE POP POP JUMP JUMPDEST PUSH1 0x0 PUSH1 0xC0 DUP4 ADD PUSH1 0x0 DUP4 ADD MLOAD DUP5 DUP3 SUB PUSH1 0x0 DUP7 ADD MSTORE PUSH2 0x15AB DUP3 DUP3 PUSH2 0x1512 JUMP JUMPDEST SWAP2 POP POP PUSH1 0x20 DUP4 ADD MLOAD PUSH2 0x15C0 PUSH1 0x20 DUP7 ADD DUP3 PUSH2 0x1555 JUMP JUMPDEST POP PUSH1 0x40 DUP4 ADD MLOAD PUSH2 0x15D3 PUSH1 0x40 DUP7 ADD DUP3 PUSH2 0x1564 JUMP JUMPDEST POP PUSH1 0x60 DUP4 ADD MLOAD PUSH2 0x15E6 PUSH1 0x60 DUP7 ADD DUP3 PUSH2 0x157F JUMP JUMPDEST POP PUSH1 0x80 DUP4 ADD MLOAD PUSH2 0x15F9 PUSH1 0x80 DUP7 ADD DUP3 PUSH2 0x157F JUMP JUMPDEST POP PUSH1 0xA0 DUP4 ADD MLOAD PUSH2 0x160C PUSH1 0xA0 DUP7 ADD DUP3 PUSH2 0x1555 JUMP JUMPDEST POP DUP1 SWAP2 POP POP SWAP3 SWAP2 POP POP JUMP JUMPDEST PUSH1 0x0 PUSH2 0x1623 DUP4 DUP4 PUSH2 0x158E JUMP JUMPDEST SWAP1 POP SWAP3 SWAP2 POP POP JUMP JUMPDEST PUSH1 0x0 PUSH1 0x20 DUP3 ADD SWAP1 POP SWAP2 SWAP1 POP JUMP JUMPDEST PUSH1 0x0 PUSH2 0x1643 DUP3 PUSH2 0x1486 JUMP JUMPDEST PUSH2 0x164D DUP2 DUP6 PUSH2 0x1491 JUMP JUMPDEST SWAP4 POP DUP4 PUSH1 0x20 DUP3 MUL DUP6 ADD PUSH2 0x165F DUP6 PUSH2 0x14A2 JUMP JUMPDEST DUP1 PUSH1 0x0 JUMPDEST DUP6 DUP2 LT ISZERO PUSH2 0x169B JUMPI DUP5 DUP5 SUB DUP10 MSTORE DUP2 MLOAD PUSH2 0x167C DUP6 DUP3 PUSH2 0x1617 JUMP JUMPDEST SWAP5 POP PUSH2 0x1687 DUP4 PUSH2 0x162B JUMP JUMPDEST SWAP3 POP PUSH1 0x20 DUP11 ADD SWAP10 POP POP PUSH1 0x1 DUP2 ADD SWAP1 POP PUSH2 0x1663 JUMP JUMPDEST POP DUP3 SWAP8 POP DUP8 SWAP6 POP POP POP POP POP POP SWAP3 SWAP2 POP POP JUMP JUMPDEST PUSH1 0x0 PUSH1 0x20 DUP3 ADD SWAP1 POP DUP2 DUP2 SUB PUSH1 0x0 DUP4 ADD MSTORE PUSH2 0x16C7 DUP2 DUP5 PUSH2 0x1638 JUMP JUMPDEST SWAP1 POP SWAP3 SWAP2 POP POP JUMP JUMPDEST PUSH1 0x0 DUP2 MLOAD SWAP1 POP SWAP2 SWAP1 POP JUMP JUMPDEST PUSH1 0x0 DUP3 DUP3 MSTORE PUSH1 0x20 DUP3 ADD SWAP1 POP SWAP3 SWAP2 POP POP JUMP JUMPDEST PUSH1 0x0 DUP2 SWAP1 POP PUSH1 0x20 DUP3 ADD SWAP1 POP SWAP2 SWAP1 POP JUMP JUMPDEST PUSH1 0x0 PUSH2 0x1706 DUP3 PUSH2 0x13FB JUMP JUMPDEST SWAP1 POP SWAP2 SWAP1 POP JUMP JUMPDEST PUSH2 0x1716 DUP2 PUSH2 0x16FB JUMP JUMPDEST DUP3 MSTORE POP POP JUMP JUMPDEST PUSH1 0x0 PUSH2 0x1728 DUP4 DUP4 PUSH2 0x170D JUMP JUMPDEST PUSH1 0x20 DUP4 ADD SWAP1 POP SWAP3 SWAP2 POP POP JUMP JUMPDEST PUSH1 0x0 PUSH1 0x20 DUP3 ADD SWAP1 POP SWAP2 SWAP1 POP JUMP JUMPDEST PUSH1 0x0 PUSH2 0x174C DUP3 PUSH2 0x16CF JUMP JUMPDEST PUSH2 0x1756 DUP2 DUP6 PUSH2 0x16DA JUMP JUMPDEST SWAP4 POP PUSH2 0x1761 DUP4 PUSH2 0x16EB JUMP JUMPDEST DUP1 PUSH1 0x0 JUMPDEST DUP4 DUP2 LT ISZERO PUSH2 0x1792 JUMPI DUP2 MLOAD PUSH2 0x1779 DUP9 DUP3 PUSH2 0x171C JUMP JUMPDEST SWAP8 POP PUSH2 0x1784 DUP4 PUSH2 0x1734 JUMP JUMPDEST SWAP3 POP POP PUSH1 0x1 DUP2 ADD SWAP1 POP PUSH2 0x1765 JUMP JUMPDEST POP DUP6 SWAP4 POP POP POP POP SWAP3 SWAP2 POP POP JUMP JUMPDEST PUSH1 0x0 PUSH1 0x20 DUP3 ADD SWAP1 POP DUP2 DUP2 SUB PUSH1 0x0 DUP4 ADD MSTORE PUSH2 0x17B9 DUP2 DUP5 PUSH2 0x1741 JUMP JUMPDEST SWAP1 POP SWAP3 SWAP2 POP POP JUMP JUMPDEST PUSH2 0x17CA DUP2 PUSH2 0x141B JUMP JUMPDEST DUP3 MSTORE POP POP JUMP JUMPDEST PUSH1 0x0 PUSH1 0x20 DUP3 ADD SWAP1 POP PUSH2 0x17E5 PUSH1 0x0 DUP4 ADD DUP5 PUSH2 0x17C1 JUMP JUMPDEST SWAP3 SWAP2 POP POP JUMP JUMPDEST PUSH2 0x17F4 DUP2 PUSH2 0x154B JUMP JUMPDEST DUP2 EQ PUSH2 0x17FF JUMPI PUSH1 0x0 DUP1 REVERT JUMPDEST POP JUMP JUMPDEST PUSH1 0x0 DUP2 CALLDATALOAD SWAP1 POP PUSH2 0x1811 DUP2 PUSH2 0x17EB JUMP JUMPDEST SWAP3 SWAP2 POP POP JUMP JUMPDEST PUSH1 0x0 PUSH1 0x20 DUP3 DUP5 SUB SLT ISZERO PUSH2 0x182D JUMPI PUSH2 0x182C PUSH2 0x13F1 JUMP JUMPDEST JUMPDEST PUSH1 0x0 PUSH2 0x183B DUP5 DUP3 DUP6 ADD PUSH2 0x1802 JUMP JUMPDEST SWAP2 POP POP SWAP3 SWAP2 POP POP JUMP JUMPDEST PUSH1 0x0 DUP3 DUP3 MSTORE PUSH1 0x20 DUP3 ADD SWAP1 POP SWAP3 SWAP2 POP POP JUMP JUMPDEST PUSH1 0x0 PUSH2 0x1860 DUP3 PUSH2 0x14B2 JUMP JUMPDEST PUSH2 0x186A DUP2 DUP6 PUSH2 0x1844 JUMP JUMPDEST SWAP4 POP PUSH2 0x187A DUP2 DUP6 PUSH1 0x20 DUP7 ADD PUSH2 0x14CE JUMP JUMPDEST PUSH2 0x1883 DUP2 PUSH2 0x1501 JUMP JUMPDEST DUP5 ADD SWAP2 POP POP SWAP3 SWAP2 POP POP JUMP JUMPDEST PUSH2 0x1897 DUP2 PUSH2 0x154B JUMP JUMPDEST DUP3 MSTORE POP POP JUMP JUMPDEST PUSH2 0x18A6 DUP2 PUSH2 0x1573 JUMP JUMPDEST DUP3 MSTORE POP POP JUMP JUMPDEST PUSH1 0x0 PUSH1 0xC0 DUP3 ADD SWAP1 POP DUP2 DUP2 SUB PUSH1 0x0 DUP4 ADD MSTORE PUSH2 0x18C6 DUP2 DUP10 PUSH2 0x1855 JUMP JUMPDEST SWAP1 POP PUSH2 0x18D5 PUSH1 0x20 DUP4 ADD DUP9 PUSH2 0x188E JUMP JUMPDEST PUSH2 0x18E2 PUSH1 0x40 DUP4 ADD DUP8 PUSH2 0x17C1 JUMP JUMPDEST PUSH2 0x18EF PUSH1 0x60 DUP4 ADD DUP7 PUSH2 0x189D JUMP JUMPDEST PUSH2 0x18FC PUSH1 0x80 DUP4 ADD DUP6 PUSH2 0x189D JUMP JUMPDEST PUSH2 0x1909 PUSH1 0xA0 DUP4 ADD DUP5 PUSH2 0x188E JUMP JUMPDEST SWAP8 SWAP7 POP POP POP POP POP POP POP JUMP JUMPDEST PUSH1 0x0 DUP1 REVERT JUMPDEST PUSH1 0x0 DUP1 REVERT JUMPDEST PUSH32 0x4E487B7100000000000000000000000000000000000000000000000000000000 PUSH1 0x0 MSTORE PUSH1 0x41 PUSH1 0x4 MSTORE PUSH1 0x24 PUSH1 0x0 REVERT JUMPDEST PUSH2 0x1956 DUP3 PUSH2 0x1501 JUMP JUMPDEST DUP2 ADD DUP2 DUP2 LT PUSH8 0xFFFFFFFFFFFFFFFF DUP3 GT OR ISZERO PUSH2 0x1975 JUMPI PUSH2 0x1974 PUSH2 0x191E JUMP JUMPDEST JUMPDEST DUP1 PUSH1 0x40 MSTORE POP POP POP JUMP JUMPDEST PUSH1 0x0 PUSH2 0x1988 PUSH2 0x13E7 JUMP JUMPDEST SWAP1 POP PUSH2 0x1994 DUP3 DUP3 PUSH2 0x194D JUMP JUMPDEST SWAP2 SWAP1 POP JUMP JUMPDEST PUSH1 0x0 PUSH8 0xFFFFFFFFFFFFFFFF DUP3 GT ISZERO PUSH2 0x19B4 JUMPI PUSH2 0x19B3 PUSH2 0x191E JUMP JUMPDEST JUMPDEST PUSH2 0x19BD DUP3 PUSH2 0x1501 JUMP JUMPDEST SWAP1 POP PUSH1 0x20 DUP2 ADD SWAP1 POP SWAP2 SWAP1 POP JUMP JUMPDEST DUP3 DUP2 DUP4 CALLDATACOPY PUSH1 0x0 DUP4 DUP4 ADD MSTORE POP POP POP JUMP JUMPDEST PUSH1 0x0 PUSH2 0x19EC PUSH2 0x19E7 DUP5 PUSH2 0x1999 JUMP JUMPDEST PUSH2 0x197E JUMP JUMPDEST SWAP1 POP DUP3 DUP2 MSTORE PUSH1 0x20 DUP2 ADD DUP5 DUP5 DUP5 ADD GT ISZERO PUSH2 0x1A08 JUMPI PUSH2 0x1A07 PUSH2 0x1919 JUMP JUMPDEST JUMPDEST PUSH2 0x1A13 DUP5 DUP3 DUP6 PUSH2 0x19CA JUMP JUMPDEST POP SWAP4 SWAP3 POP POP POP JUMP JUMPDEST PUSH1 0x0 DUP3 PUSH1 0x1F DUP4 ADD SLT PUSH2 0x1A30 JUMPI PUSH2 0x1A2F PUSH2 0x1914 JUMP JUMPDEST JUMPDEST DUP2 CALLDATALOAD PUSH2 0x1A40 DUP5 DUP3 PUSH1 0x20 DUP7 ADD PUSH2 0x19D9 JUMP JUMPDEST SWAP2 POP POP SWAP3 SWAP2 POP POP JUMP JUMPDEST PUSH1 0x0 DUP1 PUSH1 0x0 PUSH1 0x60 DUP5 DUP7 SUB SLT ISZERO PUSH2 0x1A62 JUMPI PUSH2 0x1A61 PUSH2 0x13F1 JUMP JUMPDEST JUMPDEST PUSH1 0x0 DUP5 ADD CALLDATALOAD PUSH8 0xFFFFFFFFFFFFFFFF DUP2 GT ISZERO PUSH2 0x1A80 JUMPI PUSH2 0x1A7F PUSH2 0x13F6 JUMP JUMPDEST JUMPDEST PUSH2 0x1A8C DUP7 DUP3 DUP8 ADD PUSH2 0x1A1B JUMP JUMPDEST SWAP4 POP POP PUSH1 0x20 PUSH2 0x1A9D DUP7 DUP3 DUP8 ADD PUSH2 0x1802 JUMP JUMPDEST SWAP3 POP POP PUSH1 0x40 PUSH2 0x1AAE DUP7 DUP3 DUP8 ADD PUSH2 0x1444 JUMP JUMPDEST SWAP2 POP POP SWAP3 POP SWAP3 POP SWAP3 JUMP JUMPDEST PUSH1 0x0 PUSH1 0x20 DUP3 ADD SWAP1 POP PUSH2 0x1ACD PUSH1 0x0 DUP4 ADD DUP5 PUSH2 0x188E JUMP JUMPDEST SWAP3 SWAP2 POP POP JUMP JUMPDEST PUSH2 0x1ADC DUP2 PUSH2 0x16FB JUMP JUMPDEST DUP3 MSTORE POP POP JUMP JUMPDEST PUSH1 0x0 PUSH1 0x20 DUP3 ADD SWAP1 POP PUSH2 0x1AF7 PUSH1 0x0 DUP4 ADD DUP5 PUSH2 0x1AD3 JUMP JUMPDEST SWAP3 SWAP2 POP POP JUMP JUMPDEST PUSH1 0x0 DUP1 PUSH1 0x40 DUP4 DUP6 SUB SLT ISZERO PUSH2 0x1B14 JUMPI PUSH2 0x1B13 PUSH2 0x13F1 JUMP JUMPDEST JUMPDEST PUSH1 0x0 PUSH2 0x1B22 DUP6 DUP3 DUP7 ADD PUSH2 0x1444 JUMP JUMPDEST SWAP3 POP POP PUSH1 0x20 PUSH2 0x1B33 DUP6 DUP3 DUP7 ADD PUSH2 0x1802 JUMP JUMPDEST SWAP2 POP POP SWAP3 POP SWAP3 SWAP1 POP JUMP JUMPDEST PUSH32 0x546869732066756E6374696F6E2063616E206F6E6C792062652063616C6C6564 PUSH1 0x0 DUP3 ADD MSTORE PUSH32 0x20627920746865206D616E616765720000000000000000000000000000000000 PUSH1 0x20 DUP3 ADD MSTORE POP JUMP JUMPDEST PUSH1 0x0 PUSH2 0x1B99 PUSH1 0x2F DUP4 PUSH2 0x1844 JUMP JUMPDEST SWAP2 POP PUSH2 0x1BA4 DUP3 PUSH2 0x1B3D JUMP JUMPDEST PUSH1 0x40 DUP3 ADD SWAP1 POP SWAP2 SWAP1 POP JUMP JUMPDEST PUSH1 0x0 PUSH1 0x20 DUP3 ADD SWAP1 POP DUP2 DUP2 SUB PUSH1 0x0 DUP4 ADD MSTORE PUSH2 0x1BC8 DUP2 PUSH2 0x1B8C JUMP JUMPDEST SWAP1 POP SWAP2 SWAP1 POP JUMP JUMPDEST PUSH32 0x54686520676976656E2061646472657373206973206E6F742061206261636B65 PUSH1 0x0 DUP3 ADD MSTORE PUSH32 0x7200000000000000000000000000000000000000000000000000000000000000 PUSH1 0x20 DUP3 ADD MSTORE POP JUMP JUMPDEST PUSH1 0x0 PUSH2 0x1C2B PUSH1 0x21 DUP4 PUSH2 0x1844 JUMP JUMPDEST SWAP2 POP PUSH2 0x1C36 DUP3 PUSH2 0x1BCF JUMP JUMPDEST PUSH1 0x40 DUP3 ADD SWAP1 POP SWAP2 SWAP1 POP JUMP JUMPDEST PUSH1 0x0 PUSH1 0x20 DUP3 ADD SWAP1 POP DUP2 DUP2 SUB PUSH1 0x0 DUP4 ADD MSTORE PUSH2 0x1C5A DUP2 PUSH2 0x1C1E JUMP JUMPDEST SWAP1 POP SWAP2 SWAP1 POP JUMP JUMPDEST PUSH32 0x4E487B7100000000000000000000000000000000000000000000000000000000 PUSH1 0x0 MSTORE PUSH1 0x22 PUSH1 0x4 MSTORE PUSH1 0x24 PUSH1 0x0 REVERT JUMPDEST PUSH1 0x0 PUSH1 0x2 DUP3 DIV SWAP1 POP PUSH1 0x1 DUP3 AND DUP1 PUSH2 0x1CA8 JUMPI PUSH1 0x7F DUP3 AND SWAP2 POP JUMPDEST PUSH1 0x20 DUP3 LT DUP2 SUB PUSH2 0x1CBB JUMPI PUSH2 0x1CBA PUSH2 0x1C61 JUMP JUMPDEST JUMPDEST POP SWAP2 SWAP1 POP JUMP JUMPDEST PUSH32 0x596F75206E65656420746F2073656E64206174206C6561737420746865206D69 PUSH1 0x0 DUP3 ADD MSTORE PUSH32 0x6E696D756D20636F6E747269627574696F6E0000000000000000000000000000 PUSH1 0x20 DUP3 ADD MSTORE POP JUMP JUMPDEST PUSH1 0x0 PUSH2 0x1D1D PUSH1 0x32 DUP4 PUSH2 0x1844 JUMP JUMPDEST SWAP2 POP PUSH2 0x1D28 DUP3 PUSH2 0x1CC1 JUMP JUMPDEST PUSH1 0x40 DUP3 ADD SWAP1 POP SWAP2 SWAP1 POP JUMP JUMPDEST PUSH1 0x0 PUSH1 0x20 DUP3 ADD SWAP1 POP DUP2 DUP2 SUB PUSH1 0x0 DUP4 ADD MSTORE PUSH2 0x1D4C DUP2 PUSH2 0x1D10 JUMP JUMPDEST SWAP1 POP SWAP2 SWAP1 POP JUMP JUMPDEST PUSH32 0x4E487B7100000000000000000000000000000000000000000000000000000000 PUSH1 0x0 MSTORE PUSH1 0x11 PUSH1 0x4 MSTORE PUSH1 0x24 PUSH1 0x0 REVERT JUMPDEST PUSH1 0x0 PUSH2 0x1D8D DUP3 PUSH2 0x154B JUMP JUMPDEST SWAP2 POP PUSH2 0x1D98 DUP4 PUSH2 0x154B JUMP JUMPDEST SWAP3 POP DUP3 PUSH32 0xFFFFFFFFFFFFFFFFFFFFFFFFFFFFFFFFFFFFFFFFFFFFFFFFFFFFFFFFFFFFFFFF SUB DUP3 GT ISZERO PUSH2 0x1DCD JUMPI PUSH2 0x1DCC PUSH2 0x1D53 JUMP JUMPDEST JUMPDEST DUP3 DUP3 ADD SWAP1 POP SWAP3 SWAP2 POP POP JUMP JUMPDEST PUSH32 0x546869732066756E6374696F6E2063616E206F6E6C792062652063616C6C6564 PUSH1 0x0 DUP3 ADD MSTORE PUSH32 0x2062792061206261636B65720000000000000000000000000000000000000000 PUSH1 0x20 DUP3 ADD MSTORE POP JUMP JUMPDEST PUSH1 0x0 PUSH2 0x1E34 PUSH1 0x2C DUP4 PUSH2 0x1844 JUMP JUMPDEST SWAP2 POP PUSH2 0x1E3F DUP3 PUSH2 0x1DD8 JUMP JUMPDEST PUSH1 0x40 DUP3 ADD SWAP1 POP SWAP2 SWAP1 POP JUMP JUMPDEST PUSH1 0x0 PUSH1 0x20 DUP3 ADD SWAP1 POP DUP2 DUP2 SUB PUSH1 0x0 DUP4 ADD MSTORE PUSH2 0x1E63 DUP2 PUSH2 0x1E27 JUMP JUMPDEST SWAP1 POP SWAP2 SWAP1 POP JUMP JUMPDEST PUSH32 0x4E487B7100000000000000000000000000000000000000000000000000000000 PUSH1 0x0 MSTORE PUSH1 0x32 PUSH1 0x4 MSTORE PUSH1 0x24 PUSH1 0x0 REVERT JUMPDEST PUSH1 0x0 PUSH1 0xC0 DUP4 ADD PUSH1 0x0 DUP4 ADD MLOAD DUP5 DUP3 SUB PUSH1 0x0 DUP7 ADD MSTORE PUSH2 0x1EB6 DUP3 DUP3 PUSH2 0x1512 JUMP JUMPDEST SWAP2 POP POP PUSH1 0x20 DUP4 ADD MLOAD PUSH2 0x1ECB PUSH1 0x20 DUP7 ADD DUP3 PUSH2 0x1555 JUMP JUMPDEST POP PUSH1 0x40 DUP4 ADD MLOAD PUSH2 0x1EDE PUSH1 0x40 DUP7 ADD DUP3 PUSH2 0x1564 JUMP JUMPDEST POP PUSH1 0x60 DUP4 ADD MLOAD PUSH2 0x1EF1 PUSH1 0x60 DUP7 ADD DUP3 PUSH2 0x157F JUMP JUMPDEST POP PUSH1 0x80 DUP4 ADD MLOAD PUSH2 0x1F04 PUSH1 0x80 DUP7 ADD DUP3 PUSH2 0x157F JUMP JUMPDEST POP PUSH1 0xA0 DUP4 ADD MLOAD PUSH2 0x1F17 PUSH1 0xA0 DUP7 ADD DUP3 PUSH2 0x1555 JUMP JUMPDEST POP DUP1 SWAP2 POP POP SWAP3 SWAP2 POP POP JUMP JUMPDEST PUSH1 0x0 PUSH1 0x20 DUP3 ADD SWAP1 POP DUP2 DUP2 SUB PUSH1 0x0 DUP4 ADD MSTORE PUSH2 0x1F3C DUP2 DUP5 PUSH2 0x1E99 JUMP JUMPDEST SWAP1 POP SWAP3 SWAP2 POP POP JUMP JUMPDEST PUSH1 0x0 DUP2 SWAP1 POP DUP2 PUSH1 0x0 MSTORE PUSH1 0x20 PUSH1 0x0 KECCAK256 SWAP1 POP SWAP2 SWAP1 POP JUMP JUMPDEST PUSH1 0x0 DUP2 SLOAD PUSH2 0x1F66 DUP2 PUSH2 0x1C90 JUMP JUMPDEST PUSH2 0x1F70 DUP2 DUP7 PUSH2 0x14BD JUMP JUMPDEST SWAP5 POP PUSH1 0x1 DUP3 AND PUSH1 0x0 DUP2 EQ PUSH2 0x1F8B JUMPI PUSH1 0x1 DUP2 EQ PUSH2 0x1F9D JUMPI PUSH2 0x1FD0 JUMP JUMPDEST PUSH1 0xFF NOT DUP4 AND DUP7 MSTORE PUSH1 0x20 DUP7 ADD SWAP4 POP PUSH2 0x1FD0 JUMP JUMPDEST PUSH2 0x1FA6 DUP6 PUSH2 0x1F44 JUMP JUMPDEST PUSH1 0x0 JUMPDEST DUP4 DUP2 LT ISZERO PUSH2 0x1FC8 JUMPI DUP2 SLOAD DUP2 DUP10 ADD MSTORE PUSH1 0x1 DUP3 ADD SWAP2 POP PUSH1 0x20 DUP2 ADD SWAP1 POP PUSH2 0x1FA9 JUMP JUMPDEST DUP1 DUP9 ADD SWAP6 POP POP POP JUMPDEST POP POP POP SWAP3 SWAP2 POP POP JUMP JUMPDEST PUSH1 0x0 DUP2 PUSH1 0x0 SHR SWAP1 POP SWAP2 SWAP1 POP JUMP JUMPDEST PUSH1 0x0 DUP2 SWAP1 POP SWAP2 SWAP1 POP JUMP JUMPDEST PUSH1 0x0 PUSH2 0x2003 PUSH2 0x1FFE DUP4 PUSH2 0x1FD9 JUMP JUMPDEST PUSH2 0x1FE6 JUMP JUMPDEST SWAP1 POP SWAP2 SWAP1 POP JUMP JUMPDEST PUSH1 0x0 PUSH20 0xFFFFFFFFFFFFFFFFFFFFFFFFFFFFFFFFFFFFFFFF DUP3 AND SWAP1 POP SWAP2 SWAP1 POP JUMP JUMPDEST PUSH1 0x0 PUSH2 0x203D PUSH2 0x2038 DUP4 PUSH2 0x1FD9 JUMP JUMPDEST PUSH2 0x200A JUMP JUMPDEST SWAP1 POP SWAP2 SWAP1 POP JUMP JUMPDEST PUSH1 0x0 DUP2 PUSH1 0xA0 SHR SWAP1 POP SWAP2 SWAP1 POP JUMP JUMPDEST PUSH1 0x0 PUSH1 0xFF DUP3 AND SWAP1 POP SWAP2 SWAP1 POP JUMP JUMPDEST PUSH1 0x0 PUSH2 0x2071 PUSH2 0x206C DUP4 PUSH2 0x2044 JUMP JUMPDEST PUSH2 0x2051 JUMP JUMPDEST SWAP1 POP SWAP2 SWAP1 POP JUMP JUMPDEST PUSH1 0x0 DUP2 PUSH1 0xA8 SHR SWAP1 POP SWAP2 SWAP1 POP JUMP JUMPDEST PUSH1 0x0 PUSH2 0x2098 PUSH2 0x2093 DUP4 PUSH2 0x2078 JUMP JUMPDEST PUSH2 0x2051 JUMP JUMPDEST SWAP1 POP SWAP2 SWAP1 POP JUMP JUMPDEST PUSH1 0x0 PUSH1 0xC0 DUP4 ADD PUSH1 0x0 DUP1 DUP5 ADD DUP6 DUP4 SUB PUSH1 0x0 DUP8 ADD MSTORE PUSH2 0x20BC DUP4 DUP3 PUSH2 0x1F59 JUMP JUMPDEST SWAP3 POP POP PUSH1 0x1 DUP5 ADD SLOAD SWAP1 POP PUSH2 0x20CF DUP2 PUSH2 0x1FF0 JUMP JUMPDEST PUSH2 0x20DC PUSH1 0x20 DUP8 ADD DUP3 PUSH2 0x1555 JUMP JUMPDEST POP PUSH1 0x2 DUP5 ADD SLOAD SWAP1 POP PUSH2 0x20ED DUP2 PUSH2 0x202A JUMP JUMPDEST PUSH2 0x20FA PUSH1 0x40 DUP8 ADD DUP3 PUSH2 0x1564 JUMP JUMPDEST POP PUSH2 0x2104 DUP2 PUSH2 0x205E JUMP JUMPDEST PUSH2 0x2111 PUSH1 0x60 DUP8 ADD DUP3 PUSH2 0x157F JUMP JUMPDEST POP PUSH2 0x211B DUP2 PUSH2 0x2085 JUMP JUMPDEST PUSH2 0x2128 PUSH1 0x80 DUP8 ADD DUP3 PUSH2 0x157F JUMP JUMPDEST POP PUSH1 0x3 DUP5 ADD SLOAD SWAP1 POP PUSH2 0x2139 DUP2 PUSH2 0x1FF0 JUMP JUMPDEST PUSH2 0x2146 PUSH1 0xA0 DUP8 ADD DUP3 PUSH2 0x1555 JUMP JUMPDEST POP DUP2 SWAP3 POP POP POP SWAP3 SWAP2 POP POP JUMP JUMPDEST PUSH1 0x0 PUSH1 0x20 DUP3 ADD SWAP1 POP DUP2 DUP2 SUB PUSH1 0x0 DUP4 ADD MSTORE PUSH2 0x216C DUP2 DUP5 PUSH2 0x209F JUMP JUMPDEST SWAP1 POP SWAP3 SWAP2 POP POP JUMP JUMPDEST PUSH32 0x596F75206861766520616C7265616479206261636B6564207468697320726571 PUSH1 0x0 DUP3 ADD MSTORE PUSH32 0x7565737400000000000000000000000000000000000000000000000000000000 PUSH1 0x20 DUP3 ADD MSTORE POP JUMP JUMPDEST PUSH1 0x0 PUSH2 0x21D0 PUSH1 0x24 DUP4 PUSH2 0x1844 JUMP JUMPDEST SWAP2 POP PUSH2 0x21DB DUP3 PUSH2 0x2174 JUMP JUMPDEST PUSH1 0x40 DUP3 ADD SWAP1 POP SWAP2 SWAP1 POP JUMP JUMPDEST PUSH1 0x0 PUSH1 0x20 DUP3 ADD SWAP1 POP DUP2 DUP2 SUB PUSH1 0x0 DUP4 ADD MSTORE PUSH2 0x21FF DUP2 PUSH2 0x21C3 JUMP JUMPDEST SWAP1 POP SWAP2 SWAP1 POP JUMP JUMPDEST PUSH1 0x0 PUSH2 0x2211 DUP3 PUSH2 0x154B JUMP JUMPDEST SWAP2 POP PUSH32 0xFFFFFFFFFFFFFFFFFFFFFFFFFFFFFFFFFFFFFFFFFFFFFFFFFFFFFFFFFFFFFFFF DUP3 SUB PUSH2 0x2243 JUMPI PUSH2 0x2242 PUSH2 0x1D53 JUMP JUMPDEST JUMPDEST PUSH1 0x1 DUP3 ADD SWAP1 POP SWAP2 SWAP1 POP JUMP INVALID LOG2 PUSH5 0x6970667358 0x22 SLT KECCAK256 BALANCE PUSH23 0x5C3CECD6D05E4E94F2051234C22BA10C6DD1103829FED PUSH10 0x41D87AD148C364736F6C PUSH4 0x4300080D STOP CALLER "},"gasEstimates":{"creation":{"codeDepositCost":"1767200","executionCost":"infinite","totalCost":"infinite"},"external":{"approveRequest(uint256)":"infinite","back()":"infinite","backers(address)":"2880","backersArr(uint256)":"5000","createRequest(string,uint256,address)":"infinite","getBackerApprovedRequests(address)":"infinite","getBackers()":"infinite","getRequests()":"infinite","manager()":"2559","requestBackerRelations(address,uint256)":"infinite","requests(uint256)":"infinite","returnBalance()":"2646"}},"methodIdentifiers":{"approveRequest(uint256)":"d7d1bbdb","back()":"8dde0840","backers(address)":"b85dfb80","backersArr(uint256)":"9213aa33","createRequest(string,uint256,address)":"8a9cfd55","getBackerApprovedRequests(address)":"18513993","getBackers()":"30f3e3da","getRequests()":"8813ce12","manager()":"481c6a75","requestBackerRelations(address,uint256)":"b8f4ba03","requests(uint256)":"81d12c58","returnBalance()":"900551a8"}},"storageLayout":{"storage":[{"astId":64,"contract":"output:campaign","label":"requests","offset":0,"slot":"0","type":"t_array(t_struct(Request)60_storage)dyn_storage"},{"astId":66,"contract":"output:campaign","label":"manager","offset":0,"slot":"1","type":"t_address"},{"astId":69,"contract":"output:campaign","label":"backersArr","offset":0,"slot":"2","type":"t_array(t_address_payable)dyn_storage"},{"astId":71,"contract":"output:campaign","label":"minimumContribution","offset":0,"slot":"3","type":"t_uint256"},{"astId":75,"contract":"output:campaign","label":"backers","offset":0,"slot":"4","type":"t_mapping(t_address,t_uint256)"},{"astId":81,"contract":"output:campaign","label":"requestBackerRelations","offset":0,"slot":"5","type":"t_mapping(t_address,t_array(t_struct(Request)60_storage)dyn_storage)"}],"types":{"t_address":{"encoding":"inplace","label":"address","numberOfBytes":"20"},"t_address_payable":{"encoding":"inplace","label":"address payable","numberOfBytes":"20"},"t_array(t_address_payable)dyn_storage":{"base":"t_address_payable","encoding":"dynamic_array","label":"address payable[]","numberOfBytes":"32"},"t_array(t_struct(Request)60_storage)dyn_storage":{"base":"t_struct(Request)60_storage","encoding":"dynamic_array","label":"struct campaign.Request[]","numberOfBytes":"32"},"t_bool":{"encoding":"inplace","label":"bool","numberOfBytes":"1"},"t_mapping(t_address,t_array(t_struct(Request)60_storage)dyn_storage)":{"encoding":"mapping","key":"t_address","label":"mapping(address => struct campaign.Request[])","numberOfBytes":"32","value":"t_array(t_struct(Request)60_storage)dyn_storage"},"t_mapping(t_address,t_uint256)":{"encoding":"mapping","key":"t_address","label":"mapping(address => uint256)","numberOfBytes":"32","value":"t_uint256"},"t_string_storage":{"encoding":"bytes","label":"string","numberOfBytes":"32"},"t_struct(Request)60_storage":{"encoding":"inplace","label":"struct campaign.Request","members":[{"astId":49,"contract":"output:campaign","label":"description","offset":0,"slot":"0","type":"t_string_storage"},{"astId":51,"contract":"output:campaign","label":"value","offset":0,"slot":"1","type":"t_uint256"},{"astId":53,"contract":"output:campaign","label":"recipient","offset":0,"slot":"2","type":"t_address"},{"astId":55,"contract":"output:campaign","label":"isCompleted","offset":20,"slot":"2","type":"t_bool"},{"astId":57,"contract":"output:campaign","label":"isCanceled","offset":21,"slot":"2","type":"t_bool"},{"astId":59,"contract":"output:campaign","label":"approvers","offset":0,"slot":"3","type":"t_uint256"}],"numberOfBytes":"128"},"t_uint256":{"encoding":"inplace","label":"uint256","numberOfBytes":"32"}}},"userdoc":{"kind":"user","methods":{},"version":1}}