{"abi":[{"inputs":[{"internalType":"uint256","name":"minimumContribution","type":"uint256"}],"name":"createCampaign","outputs":[],"stateMutability":"payable","type":"function"},{"inputs":[{"internalType":"uint256","name":"","type":"uint256"}],"name":"deployedCampaigns","outputs":[{"internalType":"address","name":"","type":"address"}],"stateMutability":"view","type":"function"},{"inputs":[],"name":"getDeployedCampaigns","outputs":[{"internalType":"address[]","name":"","type":"address[]"}],"stateMutability":"view","type":"function"}],"devdoc":{"kind":"dev","methods":{},"version":1},"evm":{"assembly":"    /* \"output\":63:591  contract campaignFactory {... */\n  mstore(0x40, 0x80)\n  callvalue\n  dup1\n  iszero\n  tag_1\n  jumpi\n  0x00\n  dup1\n  revert\ntag_1:\n  pop\n  dataSize(sub_0)\n  dup1\n  dataOffset(sub_0)\n  0x00\n  codecopy\n  0x00\n  return\nstop\n\nsub_0: assembly {\n        /* \"output\":63:591  contract campaignFactory {... */\n      mstore(0x40, 0x80)\n      jumpi(tag_1, lt(calldatasize, 0x04))\n      shr(0xe0, calldataload(0x00))\n      dup1\n      0x339d50a5\n      eq\n      tag_2\n      jumpi\n      dup1\n      0x4acb9d4f\n      eq\n      tag_3\n      jumpi\n      dup1\n      0xa3303a75\n      eq\n      tag_4\n      jumpi\n    tag_1:\n      0x00\n      dup1\n      revert\n        /* \"output\":95:130  address [] public deployedCampaigns */\n    tag_2:\n      callvalue\n      dup1\n      iszero\n      tag_5\n      jumpi\n      0x00\n      dup1\n      revert\n    tag_5:\n      pop\n      tag_6\n      0x04\n      dup1\n      calldatasize\n      sub\n      dup2\n      add\n      swap1\n      tag_7\n      swap2\n      swap1\n      tag_8\n      jump\t// in\n    tag_7:\n      tag_9\n      jump\t// in\n    tag_6:\n      mload(0x40)\n      tag_10\n      swap2\n      swap1\n      tag_11\n      jump\t// in\n    tag_10:\n      mload(0x40)\n      dup1\n      swap2\n      sub\n      swap1\n      return\n        /* \"output\":474:588  function getDeployedCampaigns() public view returns (address [] memory){... */\n    tag_3:\n      callvalue\n      dup1\n      iszero\n      tag_12\n      jumpi\n      0x00\n      dup1\n      revert\n    tag_12:\n      pop\n      tag_13\n      tag_14\n      jump\t// in\n    tag_13:\n      mload(0x40)\n      tag_15\n      swap2\n      swap1\n      tag_16\n      jump\t// in\n    tag_15:\n      mload(0x40)\n      dup1\n      swap2\n      sub\n      swap1\n      return\n        /* \"output\":139:466  function createCampaign(uint minimumContribution) public payable {... */\n    tag_4:\n      tag_17\n      0x04\n      dup1\n      calldatasize\n      sub\n      dup2\n      add\n      swap1\n      tag_18\n      swap2\n      swap1\n      tag_8\n      jump\t// in\n    tag_18:\n      tag_19\n      jump\t// in\n    tag_17:\n      stop\n        /* \"output\":95:130  address [] public deployedCampaigns */\n    tag_9:\n      0x00\n      dup2\n      dup2\n      sload\n      dup2\n      lt\n      tag_20\n      jumpi\n      0x00\n      dup1\n      revert\n    tag_20:\n      swap1\n      0x00\n      mstore\n      keccak256(0x00, 0x20)\n      add\n      0x00\n      swap2\n      pop\n      sload\n      swap1\n      0x0100\n      exp\n      swap1\n      div\n      0xffffffffffffffffffffffffffffffffffffffff\n      and\n      dup2\n      jump\t// out\n        /* \"output\":474:588  function getDeployedCampaigns() public view returns (address [] memory){... */\n    tag_14:\n        /* \"output\":527:544  address [] memory */\n      0x60\n        /* \"output\":563:580  deployedCampaigns */\n      0x00\n        /* \"output\":556:580  return deployedCampaigns */\n      dup1\n      sload\n      dup1\n      0x20\n      mul\n      0x20\n      add\n      mload(0x40)\n      swap1\n      dup2\n      add\n      0x40\n      mstore\n      dup1\n      swap3\n      swap2\n      swap1\n      dup2\n      dup2\n      mstore\n      0x20\n      add\n      dup3\n      dup1\n      sload\n      dup1\n      iszero\n      tag_23\n      jumpi\n      0x20\n      mul\n      dup3\n      add\n      swap2\n      swap1\n      0x00\n      mstore\n      keccak256(0x00, 0x20)\n      swap1\n    tag_24:\n      dup2\n      0x00\n      swap1\n      sload\n      swap1\n      0x0100\n      exp\n      swap1\n      div\n      0xffffffffffffffffffffffffffffffffffffffff\n      and\n      0xffffffffffffffffffffffffffffffffffffffff\n      and\n      dup2\n      mstore\n      0x20\n      add\n      swap1\n      0x01\n      add\n      swap1\n      dup1\n      dup4\n      gt\n      tag_24\n      jumpi\n    tag_23:\n      pop\n      pop\n      pop\n      pop\n      pop\n      swap1\n      pop\n        /* \"output\":474:588  function getDeployedCampaigns() public view returns (address [] memory){... */\n      swap1\n      jump\t// out\n        /* \"output\":139:466  function createCampaign(uint minimumContribution) public payable {... */\n    tag_19:\n        /* \"output\":235:236  0 */\n      0x00\n        /* \"output\":223:232  msg.value */\n      callvalue\n        /* \"output\":223:236  msg.value > 0 */\n      gt\n        /* \"output\":215:313  require(msg.value > 0, \"To create a campaign, you need to transfer funds to pay for the gas fees\") */\n      tag_26\n      jumpi\n      mload(0x40)\n      0x08c379a000000000000000000000000000000000000000000000000000000000\n      dup2\n      mstore\n      0x04\n      add\n      tag_27\n      swap1\n      tag_28\n      jump\t// in\n    tag_27:\n      mload(0x40)\n      dup1\n      swap2\n      sub\n      swap1\n      revert\n    tag_26:\n        /* \"output\":326:350  address deployedCampaign */\n      0x00\n        /* \"output\":374:393  minimumContribution */\n      dup2\n        /* \"output\":395:405  msg.sender */\n      caller\n        /* \"output\":361:406  new campaign(minimumContribution, msg.sender) */\n      mload(0x40)\n      tag_29\n      swap1\n      tag_30\n      jump\t// in\n    tag_29:\n      tag_31\n      swap3\n      swap2\n      swap1\n      tag_32\n      jump\t// in\n    tag_31:\n      mload(0x40)\n      dup1\n      swap2\n      sub\n      swap1\n      0x00\n      create\n      dup1\n      iszero\n      dup1\n      iszero\n      tag_33\n      jumpi\n      returndatasize\n      0x00\n      dup1\n      returndatacopy\n      revert(0x00, returndatasize)\n    tag_33:\n      pop\n        /* \"output\":326:407  address deployedCampaign = address(new campaign(minimumContribution, msg.sender)) */\n      swap1\n      pop\n        /* \"output\":418:435  deployedCampaigns */\n      0x00\n        /* \"output\":441:457  deployedCampaign */\n      dup2\n        /* \"output\":418:458  deployedCampaigns.push(deployedCampaign) */\n      swap1\n      dup1\n      0x01\n      dup2\n      sload\n      add\n      dup1\n      dup3\n      sstore\n      dup1\n      swap2\n      pop\n      pop\n      0x01\n      swap1\n      sub\n      swap1\n      0x00\n      mstore\n      keccak256(0x00, 0x20)\n      add\n      0x00\n      swap1\n      swap2\n      swap1\n      swap2\n      swap1\n      swap2\n      0x0100\n      exp\n      dup2\n      sload\n      dup2\n      0xffffffffffffffffffffffffffffffffffffffff\n      mul\n      not\n      and\n      swap1\n      dup4\n      0xffffffffffffffffffffffffffffffffffffffff\n      and\n      mul\n      or\n      swap1\n      sstore\n      pop\n        /* \"output\":204:466  {... */\n      pop\n        /* \"output\":139:466  function createCampaign(uint minimumContribution) public payable {... */\n      pop\n      jump\t// out\n    tag_30:\n      dataSize(sub_0)\n      dup1\n      dataOffset(sub_0)\n      dup4\n      codecopy\n      add\n      swap1\n      jump\t// out\n        /* \"#utility.yul\":88:205   */\n    tag_36:\n        /* \"#utility.yul\":197:198   */\n      0x00\n        /* \"#utility.yul\":194:195   */\n      dup1\n        /* \"#utility.yul\":187:199   */\n      revert\n        /* \"#utility.yul\":334:411   */\n    tag_38:\n        /* \"#utility.yul\":371:378   */\n      0x00\n        /* \"#utility.yul\":400:405   */\n      dup2\n        /* \"#utility.yul\":389:405   */\n      swap1\n      pop\n        /* \"#utility.yul\":334:411   */\n      swap2\n      swap1\n      pop\n      jump\t// out\n        /* \"#utility.yul\":417:539   */\n    tag_39:\n        /* \"#utility.yul\":490:514   */\n      tag_61\n        /* \"#utility.yul\":508:513   */\n      dup2\n        /* \"#utility.yul\":490:514   */\n      tag_38\n      jump\t// in\n    tag_61:\n        /* \"#utility.yul\":483:488   */\n      dup2\n        /* \"#utility.yul\":480:515   */\n      eq\n        /* \"#utility.yul\":470:533   */\n      tag_62\n      jumpi\n        /* \"#utility.yul\":529:530   */\n      0x00\n        /* \"#utility.yul\":526:527   */\n      dup1\n        /* \"#utility.yul\":519:531   */\n      revert\n        /* \"#utility.yul\":470:533   */\n    tag_62:\n        /* \"#utility.yul\":417:539   */\n      pop\n      jump\t// out\n        /* \"#utility.yul\":545:684   */\n    tag_40:\n        /* \"#utility.yul\":591:596   */\n      0x00\n        /* \"#utility.yul\":629:635   */\n      dup2\n        /* \"#utility.yul\":616:636   */\n      calldataload\n        /* \"#utility.yul\":607:636   */\n      swap1\n      pop\n        /* \"#utility.yul\":645:678   */\n      tag_64\n        /* \"#utility.yul\":672:677   */\n      dup2\n        /* \"#utility.yul\":645:678   */\n      tag_39\n      jump\t// in\n    tag_64:\n        /* \"#utility.yul\":545:684   */\n      swap3\n      swap2\n      pop\n      pop\n      jump\t// out\n        /* \"#utility.yul\":690:1019   */\n    tag_8:\n        /* \"#utility.yul\":749:755   */\n      0x00\n        /* \"#utility.yul\":798:800   */\n      0x20\n        /* \"#utility.yul\":786:795   */\n      dup3\n        /* \"#utility.yul\":777:784   */\n      dup5\n        /* \"#utility.yul\":773:796   */\n      sub\n        /* \"#utility.yul\":769:801   */\n      slt\n        /* \"#utility.yul\":766:885   */\n      iszero\n      tag_66\n      jumpi\n        /* \"#utility.yul\":804:883   */\n      tag_67\n      tag_36\n      jump\t// in\n    tag_67:\n        /* \"#utility.yul\":766:885   */\n    tag_66:\n        /* \"#utility.yul\":924:925   */\n      0x00\n        /* \"#utility.yul\":949:1002   */\n      tag_68\n        /* \"#utility.yul\":994:1001   */\n      dup5\n        /* \"#utility.yul\":985:991   */\n      dup3\n        /* \"#utility.yul\":974:983   */\n      dup6\n        /* \"#utility.yul\":970:992   */\n      add\n        /* \"#utility.yul\":949:1002   */\n      tag_40\n      jump\t// in\n    tag_68:\n        /* \"#utility.yul\":939:1002   */\n      swap2\n      pop\n        /* \"#utility.yul\":895:1012   */\n      pop\n        /* \"#utility.yul\":690:1019   */\n      swap3\n      swap2\n      pop\n      pop\n      jump\t// out\n        /* \"#utility.yul\":1025:1151   */\n    tag_41:\n        /* \"#utility.yul\":1062:1069   */\n      0x00\n        /* \"#utility.yul\":1102:1144   */\n      0xffffffffffffffffffffffffffffffffffffffff\n        /* \"#utility.yul\":1095:1100   */\n      dup3\n        /* \"#utility.yul\":1091:1145   */\n      and\n        /* \"#utility.yul\":1080:1145   */\n      swap1\n      pop\n        /* \"#utility.yul\":1025:1151   */\n      swap2\n      swap1\n      pop\n      jump\t// out\n        /* \"#utility.yul\":1157:1253   */\n    tag_42:\n        /* \"#utility.yul\":1194:1201   */\n      0x00\n        /* \"#utility.yul\":1223:1247   */\n      tag_71\n        /* \"#utility.yul\":1241:1246   */\n      dup3\n        /* \"#utility.yul\":1223:1247   */\n      tag_41\n      jump\t// in\n    tag_71:\n        /* \"#utility.yul\":1212:1247   */\n      swap1\n      pop\n        /* \"#utility.yul\":1157:1253   */\n      swap2\n      swap1\n      pop\n      jump\t// out\n        /* \"#utility.yul\":1259:1377   */\n    tag_43:\n        /* \"#utility.yul\":1346:1370   */\n      tag_73\n        /* \"#utility.yul\":1364:1369   */\n      dup2\n        /* \"#utility.yul\":1346:1370   */\n      tag_42\n      jump\t// in\n    tag_73:\n        /* \"#utility.yul\":1341:1344   */\n      dup3\n        /* \"#utility.yul\":1334:1371   */\n      mstore\n        /* \"#utility.yul\":1259:1377   */\n      pop\n      pop\n      jump\t// out\n        /* \"#utility.yul\":1383:1605   */\n    tag_11:\n        /* \"#utility.yul\":1476:1480   */\n      0x00\n        /* \"#utility.yul\":1514:1516   */\n      0x20\n        /* \"#utility.yul\":1503:1512   */\n      dup3\n        /* \"#utility.yul\":1499:1517   */\n      add\n        /* \"#utility.yul\":1491:1517   */\n      swap1\n      pop\n        /* \"#utility.yul\":1527:1598   */\n      tag_75\n        /* \"#utility.yul\":1595:1596   */\n      0x00\n        /* \"#utility.yul\":1584:1593   */\n      dup4\n        /* \"#utility.yul\":1580:1597   */\n      add\n        /* \"#utility.yul\":1571:1577   */\n      dup5\n        /* \"#utility.yul\":1527:1598   */\n      tag_43\n      jump\t// in\n    tag_75:\n        /* \"#utility.yul\":1383:1605   */\n      swap3\n      swap2\n      pop\n      pop\n      jump\t// out\n        /* \"#utility.yul\":1611:1725   */\n    tag_44:\n        /* \"#utility.yul\":1678:1684   */\n      0x00\n        /* \"#utility.yul\":1712:1717   */\n      dup2\n        /* \"#utility.yul\":1706:1718   */\n      mload\n        /* \"#utility.yul\":1696:1718   */\n      swap1\n      pop\n        /* \"#utility.yul\":1611:1725   */\n      swap2\n      swap1\n      pop\n      jump\t// out\n        /* \"#utility.yul\":1731:1915   */\n    tag_45:\n        /* \"#utility.yul\":1830:1841   */\n      0x00\n        /* \"#utility.yul\":1864:1870   */\n      dup3\n        /* \"#utility.yul\":1859:1862   */\n      dup3\n        /* \"#utility.yul\":1852:1871   */\n      mstore\n        /* \"#utility.yul\":1904:1908   */\n      0x20\n        /* \"#utility.yul\":1899:1902   */\n      dup3\n        /* \"#utility.yul\":1895:1909   */\n      add\n        /* \"#utility.yul\":1880:1909   */\n      swap1\n      pop\n        /* \"#utility.yul\":1731:1915   */\n      swap3\n      swap2\n      pop\n      pop\n      jump\t// out\n        /* \"#utility.yul\":1921:2053   */\n    tag_46:\n        /* \"#utility.yul\":1988:1992   */\n      0x00\n        /* \"#utility.yul\":2011:2014   */\n      dup2\n        /* \"#utility.yul\":2003:2014   */\n      swap1\n      pop\n        /* \"#utility.yul\":2041:2045   */\n      0x20\n        /* \"#utility.yul\":2036:2039   */\n      dup3\n        /* \"#utility.yul\":2032:2046   */\n      add\n        /* \"#utility.yul\":2024:2046   */\n      swap1\n      pop\n        /* \"#utility.yul\":1921:2053   */\n      swap2\n      swap1\n      pop\n      jump\t// out\n        /* \"#utility.yul\":2059:2167   */\n    tag_47:\n        /* \"#utility.yul\":2136:2160   */\n      tag_80\n        /* \"#utility.yul\":2154:2159   */\n      dup2\n        /* \"#utility.yul\":2136:2160   */\n      tag_42\n      jump\t// in\n    tag_80:\n        /* \"#utility.yul\":2131:2134   */\n      dup3\n        /* \"#utility.yul\":2124:2161   */\n      mstore\n        /* \"#utility.yul\":2059:2167   */\n      pop\n      pop\n      jump\t// out\n        /* \"#utility.yul\":2173:2352   */\n    tag_48:\n        /* \"#utility.yul\":2242:2252   */\n      0x00\n        /* \"#utility.yul\":2263:2309   */\n      tag_82\n        /* \"#utility.yul\":2305:2308   */\n      dup4\n        /* \"#utility.yul\":2297:2303   */\n      dup4\n        /* \"#utility.yul\":2263:2309   */\n      tag_47\n      jump\t// in\n    tag_82:\n        /* \"#utility.yul\":2341:2345   */\n      0x20\n        /* \"#utility.yul\":2336:2339   */\n      dup4\n        /* \"#utility.yul\":2332:2346   */\n      add\n        /* \"#utility.yul\":2318:2346   */\n      swap1\n      pop\n        /* \"#utility.yul\":2173:2352   */\n      swap3\n      swap2\n      pop\n      pop\n      jump\t// out\n        /* \"#utility.yul\":2358:2471   */\n    tag_49:\n        /* \"#utility.yul\":2428:2432   */\n      0x00\n        /* \"#utility.yul\":2460:2464   */\n      0x20\n        /* \"#utility.yul\":2455:2458   */\n      dup3\n        /* \"#utility.yul\":2451:2465   */\n      add\n        /* \"#utility.yul\":2443:2465   */\n      swap1\n      pop\n        /* \"#utility.yul\":2358:2471   */\n      swap2\n      swap1\n      pop\n      jump\t// out\n        /* \"#utility.yul\":2507:3239   */\n    tag_50:\n        /* \"#utility.yul\":2626:2629   */\n      0x00\n        /* \"#utility.yul\":2655:2709   */\n      tag_85\n        /* \"#utility.yul\":2703:2708   */\n      dup3\n        /* \"#utility.yul\":2655:2709   */\n      tag_44\n      jump\t// in\n    tag_85:\n        /* \"#utility.yul\":2725:2811   */\n      tag_86\n        /* \"#utility.yul\":2804:2810   */\n      dup2\n        /* \"#utility.yul\":2799:2802   */\n      dup6\n        /* \"#utility.yul\":2725:2811   */\n      tag_45\n      jump\t// in\n    tag_86:\n        /* \"#utility.yul\":2718:2811   */\n      swap4\n      pop\n        /* \"#utility.yul\":2835:2891   */\n      tag_87\n        /* \"#utility.yul\":2885:2890   */\n      dup4\n        /* \"#utility.yul\":2835:2891   */\n      tag_46\n      jump\t// in\n    tag_87:\n        /* \"#utility.yul\":2914:2921   */\n      dup1\n        /* \"#utility.yul\":2945:2946   */\n      0x00\n        /* \"#utility.yul\":2930:3214   */\n    tag_88:\n        /* \"#utility.yul\":2955:2961   */\n      dup4\n        /* \"#utility.yul\":2952:2953   */\n      dup2\n        /* \"#utility.yul\":2949:2962   */\n      lt\n        /* \"#utility.yul\":2930:3214   */\n      iszero\n      tag_90\n      jumpi\n        /* \"#utility.yul\":3031:3037   */\n      dup2\n        /* \"#utility.yul\":3025:3038   */\n      mload\n        /* \"#utility.yul\":3058:3121   */\n      tag_91\n        /* \"#utility.yul\":3117:3120   */\n      dup9\n        /* \"#utility.yul\":3102:3115   */\n      dup3\n        /* \"#utility.yul\":3058:3121   */\n      tag_48\n      jump\t// in\n    tag_91:\n        /* \"#utility.yul\":3051:3121   */\n      swap8\n      pop\n        /* \"#utility.yul\":3144:3204   */\n      tag_92\n        /* \"#utility.yul\":3197:3203   */\n      dup4\n        /* \"#utility.yul\":3144:3204   */\n      tag_49\n      jump\t// in\n    tag_92:\n        /* \"#utility.yul\":3134:3204   */\n      swap3\n      pop\n        /* \"#utility.yul\":2990:3214   */\n      pop\n        /* \"#utility.yul\":2977:2978   */\n      0x01\n        /* \"#utility.yul\":2974:2975   */\n      dup2\n        /* \"#utility.yul\":2970:2979   */\n      add\n        /* \"#utility.yul\":2965:2979   */\n      swap1\n      pop\n        /* \"#utility.yul\":2930:3214   */\n      jump(tag_88)\n    tag_90:\n        /* \"#utility.yul\":2934:2948   */\n      pop\n        /* \"#utility.yul\":3230:3233   */\n      dup6\n        /* \"#utility.yul\":3223:3233   */\n      swap4\n      pop\n        /* \"#utility.yul\":2631:3239   */\n      pop\n      pop\n      pop\n        /* \"#utility.yul\":2507:3239   */\n      swap3\n      swap2\n      pop\n      pop\n      jump\t// out\n        /* \"#utility.yul\":3245:3618   */\n    tag_16:\n        /* \"#utility.yul\":3388:3392   */\n      0x00\n        /* \"#utility.yul\":3426:3428   */\n      0x20\n        /* \"#utility.yul\":3415:3424   */\n      dup3\n        /* \"#utility.yul\":3411:3429   */\n      add\n        /* \"#utility.yul\":3403:3429   */\n      swap1\n      pop\n        /* \"#utility.yul\":3475:3484   */\n      dup2\n        /* \"#utility.yul\":3469:3473   */\n      dup2\n        /* \"#utility.yul\":3465:3485   */\n      sub\n        /* \"#utility.yul\":3461:3462   */\n      0x00\n        /* \"#utility.yul\":3450:3459   */\n      dup4\n        /* \"#utility.yul\":3446:3463   */\n      add\n        /* \"#utility.yul\":3439:3486   */\n      mstore\n        /* \"#utility.yul\":3503:3611   */\n      tag_94\n        /* \"#utility.yul\":3606:3610   */\n      dup2\n        /* \"#utility.yul\":3597:3603   */\n      dup5\n        /* \"#utility.yul\":3503:3611   */\n      tag_50\n      jump\t// in\n    tag_94:\n        /* \"#utility.yul\":3495:3611   */\n      swap1\n      pop\n        /* \"#utility.yul\":3245:3618   */\n      swap3\n      swap2\n      pop\n      pop\n      jump\t// out\n        /* \"#utility.yul\":3624:3793   */\n    tag_51:\n        /* \"#utility.yul\":3708:3719   */\n      0x00\n        /* \"#utility.yul\":3742:3748   */\n      dup3\n        /* \"#utility.yul\":3737:3740   */\n      dup3\n        /* \"#utility.yul\":3730:3749   */\n      mstore\n        /* \"#utility.yul\":3782:3786   */\n      0x20\n        /* \"#utility.yul\":3777:3780   */\n      dup3\n        /* \"#utility.yul\":3773:3787   */\n      add\n        /* \"#utility.yul\":3758:3787   */\n      swap1\n      pop\n        /* \"#utility.yul\":3624:3793   */\n      swap3\n      swap2\n      pop\n      pop\n      jump\t// out\n        /* \"#utility.yul\":3799:4095   */\n    tag_52:\n        /* \"#utility.yul\":3939:3973   */\n      0x546f2063726561746520612063616d706169676e2c20796f75206e6565642074\n        /* \"#utility.yul\":3935:3936   */\n      0x00\n        /* \"#utility.yul\":3927:3933   */\n      dup3\n        /* \"#utility.yul\":3923:3937   */\n      add\n        /* \"#utility.yul\":3916:3974   */\n      mstore\n        /* \"#utility.yul\":4008:4042   */\n      0x6f207472616e736665722066756e647320746f2070617920666f722074686520\n        /* \"#utility.yul\":4003:4005   */\n      0x20\n        /* \"#utility.yul\":3995:4001   */\n      dup3\n        /* \"#utility.yul\":3991:4006   */\n      add\n        /* \"#utility.yul\":3984:4043   */\n      mstore\n        /* \"#utility.yul\":4077:4087   */\n      0x6761732066656573000000000000000000000000000000000000000000000000\n        /* \"#utility.yul\":4072:4074   */\n      0x40\n        /* \"#utility.yul\":4064:4070   */\n      dup3\n        /* \"#utility.yul\":4060:4075   */\n      add\n        /* \"#utility.yul\":4053:4088   */\n      mstore\n        /* \"#utility.yul\":3799:4095   */\n      pop\n      jump\t// out\n        /* \"#utility.yul\":4101:4467   */\n    tag_53:\n        /* \"#utility.yul\":4243:4246   */\n      0x00\n        /* \"#utility.yul\":4264:4331   */\n      tag_98\n        /* \"#utility.yul\":4328:4330   */\n      0x48\n        /* \"#utility.yul\":4323:4326   */\n      dup4\n        /* \"#utility.yul\":4264:4331   */\n      tag_51\n      jump\t// in\n    tag_98:\n        /* \"#utility.yul\":4257:4331   */\n      swap2\n      pop\n        /* \"#utility.yul\":4340:4433   */\n      tag_99\n        /* \"#utility.yul\":4429:4432   */\n      dup3\n        /* \"#utility.yul\":4340:4433   */\n      tag_52\n      jump\t// in\n    tag_99:\n        /* \"#utility.yul\":4458:4460   */\n      0x60\n        /* \"#utility.yul\":4453:4456   */\n      dup3\n        /* \"#utility.yul\":4449:4461   */\n      add\n        /* \"#utility.yul\":4442:4461   */\n      swap1\n      pop\n        /* \"#utility.yul\":4101:4467   */\n      swap2\n      swap1\n      pop\n      jump\t// out\n        /* \"#utility.yul\":4473:4892   */\n    tag_28:\n        /* \"#utility.yul\":4639:4643   */\n      0x00\n        /* \"#utility.yul\":4677:4679   */\n      0x20\n        /* \"#utility.yul\":4666:4675   */\n      dup3\n        /* \"#utility.yul\":4662:4680   */\n      add\n        /* \"#utility.yul\":4654:4680   */\n      swap1\n      pop\n        /* \"#utility.yul\":4726:4735   */\n      dup2\n        /* \"#utility.yul\":4720:4724   */\n      dup2\n        /* \"#utility.yul\":4716:4736   */\n      sub\n        /* \"#utility.yul\":4712:4713   */\n      0x00\n        /* \"#utility.yul\":4701:4710   */\n      dup4\n        /* \"#utility.yul\":4697:4714   */\n      add\n        /* \"#utility.yul\":4690:4737   */\n      mstore\n        /* \"#utility.yul\":4754:4885   */\n      tag_101\n        /* \"#utility.yul\":4880:4884   */\n      dup2\n        /* \"#utility.yul\":4754:4885   */\n      tag_53\n      jump\t// in\n    tag_101:\n        /* \"#utility.yul\":4746:4885   */\n      swap1\n      pop\n        /* \"#utility.yul\":4473:4892   */\n      swap2\n      swap1\n      pop\n      jump\t// out\n        /* \"#utility.yul\":4898:5016   */\n    tag_54:\n        /* \"#utility.yul\":4985:5009   */\n      tag_103\n        /* \"#utility.yul\":5003:5008   */\n      dup2\n        /* \"#utility.yul\":4985:5009   */\n      tag_38\n      jump\t// in\n    tag_103:\n        /* \"#utility.yul\":4980:4983   */\n      dup3\n        /* \"#utility.yul\":4973:5010   */\n      mstore\n        /* \"#utility.yul\":4898:5016   */\n      pop\n      pop\n      jump\t// out\n        /* \"#utility.yul\":5022:5354   */\n    tag_32:\n        /* \"#utility.yul\":5143:5147   */\n      0x00\n        /* \"#utility.yul\":5181:5183   */\n      0x40\n        /* \"#utility.yul\":5170:5179   */\n      dup3\n        /* \"#utility.yul\":5166:5184   */\n      add\n        /* \"#utility.yul\":5158:5184   */\n      swap1\n      pop\n        /* \"#utility.yul\":5194:5265   */\n      tag_105\n        /* \"#utility.yul\":5262:5263   */\n      0x00\n        /* \"#utility.yul\":5251:5260   */\n      dup4\n        /* \"#utility.yul\":5247:5264   */\n      add\n        /* \"#utility.yul\":5238:5244   */\n      dup6\n        /* \"#utility.yul\":5194:5265   */\n      tag_54\n      jump\t// in\n    tag_105:\n        /* \"#utility.yul\":5275:5347   */\n      tag_106\n        /* \"#utility.yul\":5343:5345   */\n      0x20\n        /* \"#utility.yul\":5332:5341   */\n      dup4\n        /* \"#utility.yul\":5328:5346   */\n      add\n        /* \"#utility.yul\":5319:5325   */\n      dup5\n        /* \"#utility.yul\":5275:5347   */\n      tag_43\n      jump\t// in\n    tag_106:\n        /* \"#utility.yul\":5022:5354   */\n      swap4\n      swap3\n      pop\n      pop\n      pop\n      jump\t// out\n    stop\n\n    sub_0: assembly {\n            /* \"output\":595:5984  contract campaign {... */\n          mstore(0x40, 0x80)\n            /* \"output\":2308:2450  constructor (uint minContribution, address newManager) {... */\n          callvalue\n          dup1\n          iszero\n          tag_1\n          jumpi\n          0x00\n          dup1\n          revert\n        tag_1:\n          pop\n          mload(0x40)\n          sub(codesize, bytecodeSize)\n          dup1\n          bytecodeSize\n          dup4\n          codecopy\n          dup2\n          dup2\n          add\n          0x40\n          mstore\n          dup2\n          add\n          swap1\n          tag_2\n          swap2\n          swap1\n          tag_3\n          jump\t// in\n        tag_2:\n            /* \"output\":2384:2394  newManager */\n          dup1\n            /* \"output\":2374:2381  manager */\n          0x01\n          0x00\n            /* \"output\":2374:2394  manager = newManager */\n          0x0100\n          exp\n          dup2\n          sload\n          dup2\n          0xffffffffffffffffffffffffffffffffffffffff\n          mul\n          not\n          and\n          swap1\n          dup4\n          0xffffffffffffffffffffffffffffffffffffffff\n          and\n          mul\n          or\n          swap1\n          sstore\n          pop\n            /* \"output\":2427:2442  minContribution */\n          dup2\n            /* \"output\":2405:2424  minimumContribution */\n          0x03\n            /* \"output\":2405:2442  minimumContribution = minContribution */\n          dup2\n          swap1\n          sstore\n          pop\n            /* \"output\":2308:2450  constructor (uint minContribution, address newManager) {... */\n          pop\n          pop\n            /* \"output\":595:5984  contract campaign {... */\n          jump(tag_6)\n            /* \"#utility.yul\":88:205   */\n        tag_8:\n            /* \"#utility.yul\":197:198   */\n          0x00\n            /* \"#utility.yul\":194:195   */\n          dup1\n            /* \"#utility.yul\":187:199   */\n          revert\n            /* \"#utility.yul\":334:411   */\n        tag_10:\n            /* \"#utility.yul\":371:378   */\n          0x00\n            /* \"#utility.yul\":400:405   */\n          dup2\n            /* \"#utility.yul\":389:405   */\n          swap1\n          pop\n            /* \"#utility.yul\":334:411   */\n          swap2\n          swap1\n          pop\n          jump\t// out\n            /* \"#utility.yul\":417:539   */\n        tag_11:\n            /* \"#utility.yul\":490:514   */\n          tag_23\n            /* \"#utility.yul\":508:513   */\n          dup2\n            /* \"#utility.yul\":490:514   */\n          tag_10\n          jump\t// in\n        tag_23:\n            /* \"#utility.yul\":483:488   */\n          dup2\n            /* \"#utility.yul\":480:515   */\n          eq\n            /* \"#utility.yul\":470:533   */\n          tag_24\n          jumpi\n            /* \"#utility.yul\":529:530   */\n          0x00\n            /* \"#utility.yul\":526:527   */\n          dup1\n            /* \"#utility.yul\":519:531   */\n          revert\n            /* \"#utility.yul\":470:533   */\n        tag_24:\n            /* \"#utility.yul\":417:539   */\n          pop\n          jump\t// out\n            /* \"#utility.yul\":545:688   */\n        tag_12:\n            /* \"#utility.yul\":602:607   */\n          0x00\n            /* \"#utility.yul\":633:639   */\n          dup2\n            /* \"#utility.yul\":627:640   */\n          mload\n            /* \"#utility.yul\":618:640   */\n          swap1\n          pop\n            /* \"#utility.yul\":649:682   */\n          tag_26\n            /* \"#utility.yul\":676:681   */\n          dup2\n            /* \"#utility.yul\":649:682   */\n          tag_11\n          jump\t// in\n        tag_26:\n            /* \"#utility.yul\":545:688   */\n          swap3\n          swap2\n          pop\n          pop\n          jump\t// out\n            /* \"#utility.yul\":694:820   */\n        tag_13:\n            /* \"#utility.yul\":731:738   */\n          0x00\n            /* \"#utility.yul\":771:813   */\n          0xffffffffffffffffffffffffffffffffffffffff\n            /* \"#utility.yul\":764:769   */\n          dup3\n            /* \"#utility.yul\":760:814   */\n          and\n            /* \"#utility.yul\":749:814   */\n          swap1\n          pop\n            /* \"#utility.yul\":694:820   */\n          swap2\n          swap1\n          pop\n          jump\t// out\n            /* \"#utility.yul\":826:922   */\n        tag_14:\n            /* \"#utility.yul\":863:870   */\n          0x00\n            /* \"#utility.yul\":892:916   */\n          tag_29\n            /* \"#utility.yul\":910:915   */\n          dup3\n            /* \"#utility.yul\":892:916   */\n          tag_13\n          jump\t// in\n        tag_29:\n            /* \"#utility.yul\":881:916   */\n          swap1\n          pop\n            /* \"#utility.yul\":826:922   */\n          swap2\n          swap1\n          pop\n          jump\t// out\n            /* \"#utility.yul\":928:1050   */\n        tag_15:\n            /* \"#utility.yul\":1001:1025   */\n          tag_31\n            /* \"#utility.yul\":1019:1024   */\n          dup2\n            /* \"#utility.yul\":1001:1025   */\n          tag_14\n          jump\t// in\n        tag_31:\n            /* \"#utility.yul\":994:999   */\n          dup2\n            /* \"#utility.yul\":991:1026   */\n          eq\n            /* \"#utility.yul\":981:1044   */\n          tag_32\n          jumpi\n            /* \"#utility.yul\":1040:1041   */\n          0x00\n            /* \"#utility.yul\":1037:1038   */\n          dup1\n            /* \"#utility.yul\":1030:1042   */\n          revert\n            /* \"#utility.yul\":981:1044   */\n        tag_32:\n            /* \"#utility.yul\":928:1050   */\n          pop\n          jump\t// out\n            /* \"#utility.yul\":1056:1199   */\n        tag_16:\n            /* \"#utility.yul\":1113:1118   */\n          0x00\n            /* \"#utility.yul\":1144:1150   */\n          dup2\n            /* \"#utility.yul\":1138:1151   */\n          mload\n            /* \"#utility.yul\":1129:1151   */\n          swap1\n          pop\n            /* \"#utility.yul\":1160:1193   */\n          tag_34\n            /* \"#utility.yul\":1187:1192   */\n          dup2\n            /* \"#utility.yul\":1160:1193   */\n          tag_15\n          jump\t// in\n        tag_34:\n            /* \"#utility.yul\":1056:1199   */\n          swap3\n          swap2\n          pop\n          pop\n          jump\t// out\n            /* \"#utility.yul\":1205:1712   */\n        tag_3:\n            /* \"#utility.yul\":1284:1290   */\n          0x00\n            /* \"#utility.yul\":1292:1298   */\n          dup1\n            /* \"#utility.yul\":1341:1343   */\n          0x40\n            /* \"#utility.yul\":1329:1338   */\n          dup4\n            /* \"#utility.yul\":1320:1327   */\n          dup6\n            /* \"#utility.yul\":1316:1339   */\n          sub\n            /* \"#utility.yul\":1312:1344   */\n          slt\n            /* \"#utility.yul\":1309:1428   */\n          iszero\n          tag_36\n          jumpi\n            /* \"#utility.yul\":1347:1426   */\n          tag_37\n          tag_8\n          jump\t// in\n        tag_37:\n            /* \"#utility.yul\":1309:1428   */\n        tag_36:\n            /* \"#utility.yul\":1467:1468   */\n          0x00\n            /* \"#utility.yul\":1492:1556   */\n          tag_38\n            /* \"#utility.yul\":1548:1555   */\n          dup6\n            /* \"#utility.yul\":1539:1545   */\n          dup3\n            /* \"#utility.yul\":1528:1537   */\n          dup7\n            /* \"#utility.yul\":1524:1546   */\n          add\n            /* \"#utility.yul\":1492:1556   */\n          tag_12\n          jump\t// in\n        tag_38:\n            /* \"#utility.yul\":1482:1556   */\n          swap3\n          pop\n            /* \"#utility.yul\":1438:1566   */\n          pop\n            /* \"#utility.yul\":1605:1607   */\n          0x20\n            /* \"#utility.yul\":1631:1695   */\n          tag_39\n            /* \"#utility.yul\":1687:1694   */\n          dup6\n            /* \"#utility.yul\":1678:1684   */\n          dup3\n            /* \"#utility.yul\":1667:1676   */\n          dup7\n            /* \"#utility.yul\":1663:1685   */\n          add\n            /* \"#utility.yul\":1631:1695   */\n          tag_16\n          jump\t// in\n        tag_39:\n            /* \"#utility.yul\":1621:1695   */\n          swap2\n          pop\n            /* \"#utility.yul\":1576:1705   */\n          pop\n            /* \"#utility.yul\":1205:1712   */\n          swap3\n          pop\n          swap3\n          swap1\n          pop\n          jump\t// out\n            /* \"output\":595:5984  contract campaign {... */\n        tag_6:\n          dataSize(sub_0)\n          dup1\n          dataOffset(sub_0)\n          0x00\n          codecopy\n          0x00\n          return\n        stop\n\n        sub_0: assembly {\n                /* \"output\":595:5984  contract campaign {... */\n              mstore(0x40, 0x80)\n              jumpi(tag_1, lt(calldatasize, 0x04))\n              shr(0xe0, calldataload(0x00))\n              dup1\n              0x8a9cfd55\n              gt\n              tag_15\n              jumpi\n              dup1\n              0x9213aa33\n              gt\n              tag_16\n              jumpi\n              dup1\n              0x9213aa33\n              eq\n              tag_11\n              jumpi\n              dup1\n              0xb85dfb80\n              eq\n              tag_12\n              jumpi\n              dup1\n              0xb8f4ba03\n              eq\n              tag_13\n              jumpi\n              dup1\n              0xd7d1bbdb\n              eq\n              tag_14\n              jumpi\n              jump(tag_1)\n            tag_16:\n              dup1\n              0x8a9cfd55\n              eq\n              tag_8\n              jumpi\n              dup1\n              0x8dde0840\n              eq\n              tag_9\n              jumpi\n              dup1\n              0x900551a8\n              eq\n              tag_10\n              jumpi\n              jump(tag_1)\n            tag_15:\n              dup1\n              0x03441006\n              eq\n              tag_2\n              jumpi\n              dup1\n              0x18513993\n              eq\n              tag_3\n              jumpi\n              dup1\n              0x30f3e3da\n              eq\n              tag_4\n              jumpi\n              dup1\n              0x481c6a75\n              eq\n              tag_5\n              jumpi\n              dup1\n              0x81d12c58\n              eq\n              tag_6\n              jumpi\n              dup1\n              0x8813ce12\n              eq\n              tag_7\n              jumpi\n            tag_1:\n              0x00\n              dup1\n              revert\n                /* \"output\":4950:5981  function finalizeRequest(uint index) public managerOnly {... */\n            tag_2:\n              callvalue\n              dup1\n              iszero\n              tag_17\n              jumpi\n              0x00\n              dup1\n              revert\n            tag_17:\n              pop\n              tag_18\n              0x04\n              dup1\n              calldatasize\n              sub\n              dup2\n              add\n              swap1\n              tag_19\n              swap2\n              swap1\n              tag_20\n              jump\t// in\n            tag_19:\n              tag_21\n              jump\t// in\n            tag_18:\n              stop\n                /* \"output\":4665:4942  function getBackerApprovedRequests(address backerAddress) public view managerOnly returns (Request [] memory) {... */\n            tag_3:\n              callvalue\n              dup1\n              iszero\n              tag_22\n              jumpi\n              0x00\n              dup1\n              revert\n            tag_22:\n              pop\n              tag_23\n              0x04\n              dup1\n              calldatasize\n              sub\n              dup2\n              add\n              swap1\n              tag_24\n              swap2\n              swap1\n              tag_25\n              jump\t// in\n            tag_24:\n              tag_26\n              jump\t// in\n            tag_23:\n              mload(0x40)\n              tag_27\n              swap2\n              swap1\n              tag_28\n              jump\t// in\n            tag_27:\n              mload(0x40)\n              dup1\n              swap2\n              sub\n              swap1\n              return\n                /* \"output\":3554:3660  function getBackers() public view returns (address payable [] memory) {... */\n            tag_4:\n              callvalue\n              dup1\n              iszero\n              tag_29\n              jumpi\n              0x00\n              dup1\n              revert\n            tag_29:\n              pop\n              tag_30\n              tag_31\n              jump\t// in\n            tag_30:\n              mload(0x40)\n              tag_32\n              swap2\n              swap1\n              tag_33\n              jump\t// in\n            tag_32:\n              mload(0x40)\n              dup1\n              swap2\n              sub\n              swap1\n              return\n                /* \"output\":1116:1138  address public manager */\n            tag_5:\n              callvalue\n              dup1\n              iszero\n              tag_34\n              jumpi\n              0x00\n              dup1\n              revert\n            tag_34:\n              pop\n              tag_35\n              tag_36\n              jump\t// in\n            tag_35:\n              mload(0x40)\n              tag_37\n              swap2\n              swap1\n              tag_38\n              jump\t// in\n            tag_37:\n              mload(0x40)\n              dup1\n              swap2\n              sub\n              swap1\n              return\n                /* \"output\":1083:1109  Request [] public requests */\n            tag_6:\n              callvalue\n              dup1\n              iszero\n              tag_39\n              jumpi\n              0x00\n              dup1\n              revert\n            tag_39:\n              pop\n              tag_40\n              0x04\n              dup1\n              calldatasize\n              sub\n              dup2\n              add\n              swap1\n              tag_41\n              swap2\n              swap1\n              tag_20\n              jump\t// in\n            tag_41:\n              tag_42\n              jump\t// in\n            tag_40:\n              mload(0x40)\n              tag_43\n              swap7\n              swap6\n              swap5\n              swap4\n              swap3\n              swap2\n              swap1\n              tag_44\n              jump\t// in\n            tag_43:\n              mload(0x40)\n              dup1\n              swap2\n              sub\n              swap1\n              return\n                /* \"output\":3705:3802  function getRequests() public view returns (Request [] memory) {... */\n            tag_7:\n              callvalue\n              dup1\n              iszero\n              tag_45\n              jumpi\n              0x00\n              dup1\n              revert\n            tag_45:\n              pop\n              tag_46\n              tag_47\n              jump\t// in\n            tag_46:\n              mload(0x40)\n              tag_48\n              swap2\n              swap1\n              tag_28\n              jump\t// in\n            tag_48:\n              mload(0x40)\n              dup1\n              swap2\n              sub\n              swap1\n              return\n                /* \"output\":2458:2911  function createRequest(string memory description, uint value, address recipient) public managerOnly returns (Request memory){... */\n            tag_8:\n              callvalue\n              dup1\n              iszero\n              tag_49\n              jumpi\n              0x00\n              dup1\n              revert\n            tag_49:\n              pop\n              tag_50\n              0x04\n              dup1\n              calldatasize\n              sub\n              dup2\n              add\n              swap1\n              tag_51\n              swap2\n              swap1\n              tag_52\n              jump\t// in\n            tag_51:\n              tag_53\n              jump\t// in\n            tag_50:\n              mload(0x40)\n              tag_54\n              swap2\n              swap1\n              tag_55\n              jump\t// in\n            tag_54:\n              mload(0x40)\n              dup1\n              swap2\n              sub\n              swap1\n              return\n                /* \"output\":2961:3355  function back() public payable {... */\n            tag_9:\n              tag_56\n              tag_57\n              jump\t// in\n            tag_56:\n              stop\n                /* \"output\":3399:3510  function returnBalance() public managerOnly view returns (uint) {... */\n            tag_10:\n              callvalue\n              dup1\n              iszero\n              tag_58\n              jumpi\n              0x00\n              dup1\n              revert\n            tag_58:\n              pop\n              tag_59\n              tag_60\n              jump\t// in\n            tag_59:\n              mload(0x40)\n              tag_61\n              swap2\n              swap1\n              tag_62\n              jump\t// in\n            tag_61:\n              mload(0x40)\n              dup1\n              swap2\n              sub\n              swap1\n              return\n                /* \"output\":1145:1181  address payable [] public backersArr */\n            tag_11:\n              callvalue\n              dup1\n              iszero\n              tag_63\n              jumpi\n              0x00\n              dup1\n              revert\n            tag_63:\n              pop\n              tag_64\n              0x04\n              dup1\n              calldatasize\n              sub\n              dup2\n              add\n              swap1\n              tag_65\n              swap2\n              swap1\n              tag_20\n              jump\t// in\n            tag_65:\n              tag_66\n              jump\t// in\n            tag_64:\n              mload(0x40)\n              tag_67\n              swap2\n              swap1\n              tag_68\n              jump\t// in\n            tag_67:\n              mload(0x40)\n              dup1\n              swap2\n              sub\n              swap1\n              return\n                /* \"output\":1399:1439  mapping (address => uint) public backers */\n            tag_12:\n              callvalue\n              dup1\n              iszero\n              tag_69\n              jumpi\n              0x00\n              dup1\n              revert\n            tag_69:\n              pop\n              tag_70\n              0x04\n              dup1\n              calldatasize\n              sub\n              dup2\n              add\n              swap1\n              tag_71\n              swap2\n              swap1\n              tag_25\n              jump\t// in\n            tag_71:\n              tag_72\n              jump\t// in\n            tag_70:\n              mload(0x40)\n              tag_73\n              swap2\n              swap1\n              tag_62\n              jump\t// in\n            tag_73:\n              mload(0x40)\n              dup1\n              swap2\n              sub\n              swap1\n              return\n                /* \"output\":1527:1588  mapping (address => Request []) public requestBackerRelations */\n            tag_13:\n              callvalue\n              dup1\n              iszero\n              tag_74\n              jumpi\n              0x00\n              dup1\n              revert\n            tag_74:\n              pop\n              tag_75\n              0x04\n              dup1\n              calldatasize\n              sub\n              dup2\n              add\n              swap1\n              tag_76\n              swap2\n              swap1\n              tag_77\n              jump\t// in\n            tag_76:\n              tag_78\n              jump\t// in\n            tag_75:\n              mload(0x40)\n              tag_79\n              swap7\n              swap6\n              swap5\n              swap4\n              swap3\n              swap2\n              swap1\n              tag_44\n              jump\t// in\n            tag_79:\n              mload(0x40)\n              dup1\n              swap2\n              sub\n              swap1\n              return\n                /* \"output\":3876:4577  function approveRequest(uint index) public backerOnly {... */\n            tag_14:\n              callvalue\n              dup1\n              iszero\n              tag_80\n              jumpi\n              0x00\n              dup1\n              revert\n            tag_80:\n              pop\n              tag_81\n              0x04\n              dup1\n              calldatasize\n              sub\n              dup2\n              add\n              swap1\n              tag_82\n              swap2\n              swap1\n              tag_20\n              jump\t// in\n            tag_82:\n              tag_83\n              jump\t// in\n            tag_81:\n              stop\n                /* \"output\":4950:5981  function finalizeRequest(uint index) public managerOnly {... */\n            tag_21:\n                /* \"output\":1749:1756  manager */\n              0x01\n              0x00\n              swap1\n              sload\n              swap1\n              0x0100\n              exp\n              swap1\n              div\n              0xffffffffffffffffffffffffffffffffffffffff\n              and\n                /* \"output\":1735:1756  msg.sender == manager */\n              0xffffffffffffffffffffffffffffffffffffffff\n              and\n                /* \"output\":1735:1745  msg.sender */\n              caller\n                /* \"output\":1735:1756  msg.sender == manager */\n              0xffffffffffffffffffffffffffffffffffffffff\n              and\n              eq\n                /* \"output\":1727:1808  require(msg.sender == manager, \"This function can only be called by the manager\") */\n              tag_85\n              jumpi\n              mload(0x40)\n              0x08c379a000000000000000000000000000000000000000000000000000000000\n              dup2\n              mstore\n              0x04\n              add\n              tag_86\n              swap1\n              tag_87\n              jump\t// in\n            tag_86:\n              mload(0x40)\n              dup1\n              swap2\n              sub\n              swap1\n              revert\n            tag_85:\n                /* \"output\":5017:5050  Request storage requestToFinalize */\n              0x00\n                /* \"output\":5053:5061  requests */\n              dup1\n                /* \"output\":5062:5067  index */\n              dup3\n                /* \"output\":5053:5068  requests[index] */\n              dup2\n              sload\n              dup2\n              lt\n              tag_89\n              jumpi\n              tag_90\n              tag_91\n              jump\t// in\n            tag_90:\n            tag_89:\n              swap1\n              0x00\n              mstore\n              keccak256(0x00, 0x20)\n              swap1\n              0x04\n              mul\n              add\n                /* \"output\":5017:5068  Request storage requestToFinalize = requests[index] */\n              swap1\n              pop\n                /* \"output\":5248:5249  2 */\n              0x02\n                /* \"output\":5228:5238  backersArr */\n              dup1\n                /* \"output\":5228:5245  backersArr.length */\n              dup1\n              sload\n              swap1\n              pop\n                /* \"output\":5228:5249  backersArr.length / 2 */\n              tag_93\n              swap2\n              swap1\n              tag_94\n              jump\t// in\n            tag_93:\n                /* \"output\":5198:5215  requestToFinalize */\n              dup2\n                /* \"output\":5198:5225  requestToFinalize.approvers */\n              0x03\n              add\n              sload\n                /* \"output\":5198:5249  requestToFinalize.approvers > backersArr.length / 2 */\n              gt\n                /* \"output\":5190:5290  require(requestToFinalize.approvers > backersArr.length / 2, \"There are not enough positives votes\") */\n              tag_95\n              jumpi\n              mload(0x40)\n              0x08c379a000000000000000000000000000000000000000000000000000000000\n              dup2\n              mstore\n              0x04\n              add\n              tag_96\n              swap1\n              tag_97\n              jump\t// in\n            tag_96:\n              mload(0x40)\n              dup1\n              swap2\n              sub\n              swap1\n              revert\n            tag_95:\n                /* \"output\":5374:5391  requestToFinalize */\n              dup1\n                /* \"output\":5374:5403  requestToFinalize.isCompleted */\n              0x02\n              add\n              0x14\n              swap1\n              sload\n              swap1\n              0x0100\n              exp\n              swap1\n              div\n              0xff\n              and\n                /* \"output\":5373:5403  !requestToFinalize.isCompleted */\n              iszero\n                /* \"output\":5365:5447  require(!requestToFinalize.isCompleted, \"This request has already been completed\") */\n              tag_98\n              jumpi\n              mload(0x40)\n              0x08c379a000000000000000000000000000000000000000000000000000000000\n              dup2\n              mstore\n              0x04\n              add\n              tag_99\n              swap1\n              tag_100\n              jump\t// in\n            tag_99:\n              mload(0x40)\n              dup1\n              swap2\n              sub\n              swap1\n              revert\n            tag_98:\n                /* \"output\":5522:5539  requestToFinalize */\n              dup1\n                /* \"output\":5522:5550  requestToFinalize.isCanceled */\n              0x02\n              add\n              0x15\n              swap1\n              sload\n              swap1\n              0x0100\n              exp\n              swap1\n              div\n              0xff\n              and\n                /* \"output\":5521:5550  !requestToFinalize.isCanceled */\n              iszero\n                /* \"output\":5513:5585  require(!requestToFinalize.isCanceled, \"This request has been canceled\") */\n              tag_101\n              jumpi\n              mload(0x40)\n              0x08c379a000000000000000000000000000000000000000000000000000000000\n              dup2\n              mstore\n              0x04\n              add\n              tag_102\n              swap1\n              tag_103\n              jump\t// in\n            tag_102:\n              mload(0x40)\n              dup1\n              swap2\n              sub\n              swap1\n              revert\n            tag_101:\n                /* \"output\":5713:5730  requestToFinalize */\n              dup1\n                /* \"output\":5713:5736  requestToFinalize.value */\n              0x01\n              add\n              sload\n                /* \"output\":5689:5710  address(this).balance */\n              selfbalance\n                /* \"output\":5689:5736  address(this).balance > requestToFinalize.value */\n              gt\n                /* \"output\":5681:5780  require(address(this).balance > requestToFinalize.value, \"The campaign does not have enough funds\") */\n              tag_104\n              jumpi\n              mload(0x40)\n              0x08c379a000000000000000000000000000000000000000000000000000000000\n              dup2\n              mstore\n              0x04\n              add\n              tag_105\n              swap1\n              tag_106\n              jump\t// in\n            tag_105:\n              mload(0x40)\n              dup1\n              swap2\n              sub\n              swap1\n              revert\n            tag_104:\n                /* \"output\":5888:5892  true */\n              0x01\n                /* \"output\":5856:5873  requestToFinalize */\n              dup2\n                /* \"output\":5856:5885  requestToFinalize.isCompleted */\n              0x02\n              add\n              0x14\n                /* \"output\":5856:5892  requestToFinalize.isCompleted = true */\n              0x0100\n              exp\n              dup2\n              sload\n              dup2\n              0xff\n              mul\n              not\n              and\n              swap1\n              dup4\n              iszero\n              iszero\n              mul\n              or\n              swap1\n              sstore\n              pop\n                /* \"output\":5911:5928  requestToFinalize */\n              dup1\n                /* \"output\":5911:5938  requestToFinalize.recipient */\n              0x02\n              add\n              0x00\n              swap1\n              sload\n              swap1\n              0x0100\n              exp\n              swap1\n              div\n              0xffffffffffffffffffffffffffffffffffffffff\n              and\n                /* \"output\":5903:5948  payable(requestToFinalize.recipient).transfer */\n              0xffffffffffffffffffffffffffffffffffffffff\n              and\n                /* \"output\":5903:5973  payable(requestToFinalize.recipient).transfer(requestToFinalize.value) */\n              0x08fc\n                /* \"output\":5949:5966  requestToFinalize */\n              dup3\n                /* \"output\":5949:5972  requestToFinalize.value */\n              0x01\n              add\n              sload\n                /* \"output\":5903:5973  payable(requestToFinalize.recipient).transfer(requestToFinalize.value) */\n              swap1\n              dup2\n              iszero\n              mul\n              swap1\n              mload(0x40)\n              0x00\n              mload(0x40)\n              dup1\n              dup4\n              sub\n              dup2\n              dup6\n              dup9\n              dup9\n              call\n              swap4\n              pop\n              pop\n              pop\n              pop\n              iszero\n              dup1\n              iszero\n              tag_108\n              jumpi\n              returndatasize\n              0x00\n              dup1\n              returndatacopy\n              revert(0x00, returndatasize)\n            tag_108:\n              pop\n                /* \"output\":5006:5981  {... */\n              pop\n                /* \"output\":4950:5981  function finalizeRequest(uint index) public managerOnly {... */\n              pop\n              jump\t// out\n                /* \"output\":4665:4942  function getBackerApprovedRequests(address backerAddress) public view managerOnly returns (Request [] memory) {... */\n            tag_26:\n                /* \"output\":4756:4773  Request [] memory */\n              0x60\n                /* \"output\":1749:1756  manager */\n              0x01\n              0x00\n              swap1\n              sload\n              swap1\n              0x0100\n              exp\n              swap1\n              div\n              0xffffffffffffffffffffffffffffffffffffffff\n              and\n                /* \"output\":1735:1756  msg.sender == manager */\n              0xffffffffffffffffffffffffffffffffffffffff\n              and\n                /* \"output\":1735:1745  msg.sender */\n              caller\n                /* \"output\":1735:1756  msg.sender == manager */\n              0xffffffffffffffffffffffffffffffffffffffff\n              and\n              eq\n                /* \"output\":1727:1808  require(msg.sender == manager, \"This function can only be called by the manager\") */\n              tag_110\n              jumpi\n              mload(0x40)\n              0x08c379a000000000000000000000000000000000000000000000000000000000\n              dup2\n              mstore\n              0x04\n              add\n              tag_111\n              swap1\n              tag_87\n              jump\t// in\n            tag_111:\n              mload(0x40)\n              dup1\n              swap2\n              sub\n              swap1\n              revert\n            tag_110:\n                /* \"output\":4820:4839  minimumContribution */\n              sload(0x03)\n                /* \"output\":4794:4801  backers */\n              0x04\n                /* \"output\":4794:4816  backers[backerAddress] */\n              0x00\n                /* \"output\":4802:4815  backerAddress */\n              dup5\n                /* \"output\":4794:4816  backers[backerAddress] */\n              0xffffffffffffffffffffffffffffffffffffffff\n              and\n              0xffffffffffffffffffffffffffffffffffffffff\n              and\n              dup2\n              mstore\n              0x20\n              add\n              swap1\n              dup2\n              mstore\n              0x20\n              add\n              0x00\n              keccak256\n              sload\n                /* \"output\":4794:4839  backers[backerAddress] >= minimumContribution */\n              lt\n              iszero\n                /* \"output\":4786:4877  require(backers[backerAddress] >= minimumContribution, \"The given address is not a backer\") */\n              tag_113\n              jumpi\n              mload(0x40)\n              0x08c379a000000000000000000000000000000000000000000000000000000000\n              dup2\n              mstore\n              0x04\n              add\n              tag_114\n              swap1\n              tag_115\n              jump\t// in\n            tag_114:\n              mload(0x40)\n              dup1\n              swap2\n              sub\n              swap1\n              revert\n            tag_113:\n                /* \"output\":4897:4919  requestBackerRelations */\n              0x05\n                /* \"output\":4897:4934  requestBackerRelations[backerAddress] */\n              0x00\n                /* \"output\":4920:4933  backerAddress */\n              dup4\n                /* \"output\":4897:4934  requestBackerRelations[backerAddress] */\n              0xffffffffffffffffffffffffffffffffffffffff\n              and\n              0xffffffffffffffffffffffffffffffffffffffff\n              and\n              dup2\n              mstore\n              0x20\n              add\n              swap1\n              dup2\n              mstore\n              0x20\n              add\n              0x00\n              keccak256\n                /* \"output\":4890:4934  return requestBackerRelations[backerAddress] */\n              dup1\n              sload\n              dup1\n              0x20\n              mul\n              0x20\n              add\n              mload(0x40)\n              swap1\n              dup2\n              add\n              0x40\n              mstore\n              dup1\n              swap3\n              swap2\n              swap1\n              dup2\n              dup2\n              mstore\n              0x20\n              add\n              0x00\n              swap1\n            tag_116:\n              dup3\n              dup3\n              lt\n              iszero\n              tag_117\n              jumpi\n              dup4\n              dup3\n              swap1\n              0x00\n              mstore\n              keccak256(0x00, 0x20)\n              swap1\n              0x04\n              mul\n              add\n              mload(0x40)\n              dup1\n              0xc0\n              add\n              0x40\n              mstore\n              swap1\n              dup2\n              0x00\n              dup3\n              add\n              dup1\n              sload\n              tag_119\n              swap1\n              tag_120\n              jump\t// in\n            tag_119:\n              dup1\n              0x1f\n              add\n              0x20\n              dup1\n              swap2\n              div\n              mul\n              0x20\n              add\n              mload(0x40)\n              swap1\n              dup2\n              add\n              0x40\n              mstore\n              dup1\n              swap3\n              swap2\n              swap1\n              dup2\n              dup2\n              mstore\n              0x20\n              add\n              dup3\n              dup1\n              sload\n              tag_121\n              swap1\n              tag_120\n              jump\t// in\n            tag_121:\n              dup1\n              iszero\n              tag_122\n              jumpi\n              dup1\n              0x1f\n              lt\n              tag_123\n              jumpi\n              0x0100\n              dup1\n              dup4\n              sload\n              div\n              mul\n              dup4\n              mstore\n              swap2\n              0x20\n              add\n              swap2\n              jump(tag_122)\n            tag_123:\n              dup3\n              add\n              swap2\n              swap1\n              0x00\n              mstore\n              keccak256(0x00, 0x20)\n              swap1\n            tag_124:\n              dup2\n              sload\n              dup2\n              mstore\n              swap1\n              0x01\n              add\n              swap1\n              0x20\n              add\n              dup1\n              dup4\n              gt\n              tag_124\n              jumpi\n              dup3\n              swap1\n              sub\n              0x1f\n              and\n              dup3\n              add\n              swap2\n            tag_122:\n              pop\n              pop\n              pop\n              pop\n              pop\n              dup2\n              mstore\n              0x20\n              add\n              0x01\n              dup3\n              add\n              sload\n              dup2\n              mstore\n              0x20\n              add\n              0x02\n              dup3\n              add\n              0x00\n              swap1\n              sload\n              swap1\n              0x0100\n              exp\n              swap1\n              div\n              0xffffffffffffffffffffffffffffffffffffffff\n              and\n              0xffffffffffffffffffffffffffffffffffffffff\n              and\n              0xffffffffffffffffffffffffffffffffffffffff\n              and\n              dup2\n              mstore\n              0x20\n              add\n              0x02\n              dup3\n              add\n              0x14\n              swap1\n              sload\n              swap1\n              0x0100\n              exp\n              swap1\n              div\n              0xff\n              and\n              iszero\n              iszero\n              iszero\n              iszero\n              dup2\n              mstore\n              0x20\n              add\n              0x02\n              dup3\n              add\n              0x15\n              swap1\n              sload\n              swap1\n              0x0100\n              exp\n              swap1\n              div\n              0xff\n              and\n              iszero\n              iszero\n              iszero\n              iszero\n              dup2\n              mstore\n              0x20\n              add\n              0x03\n              dup3\n              add\n              sload\n              dup2\n              mstore\n              pop\n              pop\n              dup2\n              mstore\n              0x20\n              add\n              swap1\n              0x01\n              add\n              swap1\n              jump(tag_116)\n            tag_117:\n              pop\n              pop\n              pop\n              pop\n              swap1\n              pop\n                /* \"output\":4665:4942  function getBackerApprovedRequests(address backerAddress) public view managerOnly returns (Request [] memory) {... */\n              swap2\n              swap1\n              pop\n              jump\t// out\n                /* \"output\":3554:3660  function getBackers() public view returns (address payable [] memory) {... */\n            tag_31:\n                /* \"output\":3597:3622  address payable [] memory */\n              0x60\n                /* \"output\":3642:3652  backersArr */\n              0x02\n                /* \"output\":3635:3652  return backersArr */\n              dup1\n              sload\n              dup1\n              0x20\n              mul\n              0x20\n              add\n              mload(0x40)\n              swap1\n              dup2\n              add\n              0x40\n              mstore\n              dup1\n              swap3\n              swap2\n              swap1\n              dup2\n              dup2\n              mstore\n              0x20\n              add\n              dup3\n              dup1\n              sload\n              dup1\n              iszero\n              tag_126\n              jumpi\n              0x20\n              mul\n              dup3\n              add\n              swap2\n              swap1\n              0x00\n              mstore\n              keccak256(0x00, 0x20)\n              swap1\n            tag_127:\n              dup2\n              0x00\n              swap1\n              sload\n              swap1\n              0x0100\n              exp\n              swap1\n              div\n              0xffffffffffffffffffffffffffffffffffffffff\n              and\n              0xffffffffffffffffffffffffffffffffffffffff\n              and\n              dup2\n              mstore\n              0x20\n              add\n              swap1\n              0x01\n              add\n              swap1\n              dup1\n              dup4\n              gt\n              tag_127\n              jumpi\n            tag_126:\n              pop\n              pop\n              pop\n              pop\n              pop\n              swap1\n              pop\n                /* \"output\":3554:3660  function getBackers() public view returns (address payable [] memory) {... */\n              swap1\n              jump\t// out\n                /* \"output\":1116:1138  address public manager */\n            tag_36:\n              0x01\n              0x00\n              swap1\n              sload\n              swap1\n              0x0100\n              exp\n              swap1\n              div\n              0xffffffffffffffffffffffffffffffffffffffff\n              and\n              dup2\n              jump\t// out\n                /* \"output\":1083:1109  Request [] public requests */\n            tag_42:\n              0x00\n              dup2\n              dup2\n              sload\n              dup2\n              lt\n              tag_128\n              jumpi\n              0x00\n              dup1\n              revert\n            tag_128:\n              swap1\n              0x00\n              mstore\n              keccak256(0x00, 0x20)\n              swap1\n              0x04\n              mul\n              add\n              0x00\n              swap2\n              pop\n              swap1\n              pop\n              dup1\n              0x00\n              add\n              dup1\n              sload\n              tag_130\n              swap1\n              tag_120\n              jump\t// in\n            tag_130:\n              dup1\n              0x1f\n              add\n              0x20\n              dup1\n              swap2\n              div\n              mul\n              0x20\n              add\n              mload(0x40)\n              swap1\n              dup2\n              add\n              0x40\n              mstore\n              dup1\n              swap3\n              swap2\n              swap1\n              dup2\n              dup2\n              mstore\n              0x20\n              add\n              dup3\n              dup1\n              sload\n              tag_131\n              swap1\n              tag_120\n              jump\t// in\n            tag_131:\n              dup1\n              iszero\n              tag_132\n              jumpi\n              dup1\n              0x1f\n              lt\n              tag_133\n              jumpi\n              0x0100\n              dup1\n              dup4\n              sload\n              div\n              mul\n              dup4\n              mstore\n              swap2\n              0x20\n              add\n              swap2\n              jump(tag_132)\n            tag_133:\n              dup3\n              add\n              swap2\n              swap1\n              0x00\n              mstore\n              keccak256(0x00, 0x20)\n              swap1\n            tag_134:\n              dup2\n              sload\n              dup2\n              mstore\n              swap1\n              0x01\n              add\n              swap1\n              0x20\n              add\n              dup1\n              dup4\n              gt\n              tag_134\n              jumpi\n              dup3\n              swap1\n              sub\n              0x1f\n              and\n              dup3\n              add\n              swap2\n            tag_132:\n              pop\n              pop\n              pop\n              pop\n              pop\n              swap1\n              dup1\n              0x01\n              add\n              sload\n              swap1\n              dup1\n              0x02\n              add\n              0x00\n              swap1\n              sload\n              swap1\n              0x0100\n              exp\n              swap1\n              div\n              0xffffffffffffffffffffffffffffffffffffffff\n              and\n              swap1\n              dup1\n              0x02\n              add\n              0x14\n              swap1\n              sload\n              swap1\n              0x0100\n              exp\n              swap1\n              div\n              0xff\n              and\n              swap1\n              dup1\n              0x02\n              add\n              0x15\n              swap1\n              sload\n              swap1\n              0x0100\n              exp\n              swap1\n              div\n              0xff\n              and\n              swap1\n              dup1\n              0x03\n              add\n              sload\n              swap1\n              pop\n              dup7\n              jump\t// out\n                /* \"output\":3705:3802  function getRequests() public view returns (Request [] memory) {... */\n            tag_47:\n                /* \"output\":3749:3766  Request [] memory */\n              0x60\n                /* \"output\":3786:3794  requests */\n              0x00\n                /* \"output\":3779:3794  return requests */\n              dup1\n              sload\n              dup1\n              0x20\n              mul\n              0x20\n              add\n              mload(0x40)\n              swap1\n              dup2\n              add\n              0x40\n              mstore\n              dup1\n              swap3\n              swap2\n              swap1\n              dup2\n              dup2\n              mstore\n              0x20\n              add\n              0x00\n              swap1\n            tag_136:\n              dup3\n              dup3\n              lt\n              iszero\n              tag_137\n              jumpi\n              dup4\n              dup3\n              swap1\n              0x00\n              mstore\n              keccak256(0x00, 0x20)\n              swap1\n              0x04\n              mul\n              add\n              mload(0x40)\n              dup1\n              0xc0\n              add\n              0x40\n              mstore\n              swap1\n              dup2\n              0x00\n              dup3\n              add\n              dup1\n              sload\n              tag_139\n              swap1\n              tag_120\n              jump\t// in\n            tag_139:\n              dup1\n              0x1f\n              add\n              0x20\n              dup1\n              swap2\n              div\n              mul\n              0x20\n              add\n              mload(0x40)\n              swap1\n              dup2\n              add\n              0x40\n              mstore\n              dup1\n              swap3\n              swap2\n              swap1\n              dup2\n              dup2\n              mstore\n              0x20\n              add\n              dup3\n              dup1\n              sload\n              tag_140\n              swap1\n              tag_120\n              jump\t// in\n            tag_140:\n              dup1\n              iszero\n              tag_141\n              jumpi\n              dup1\n              0x1f\n              lt\n              tag_142\n              jumpi\n              0x0100\n              dup1\n              dup4\n              sload\n              div\n              mul\n              dup4\n              mstore\n              swap2\n              0x20\n              add\n              swap2\n              jump(tag_141)\n            tag_142:\n              dup3\n              add\n              swap2\n              swap1\n              0x00\n              mstore\n              keccak256(0x00, 0x20)\n              swap1\n            tag_143:\n              dup2\n              sload\n              dup2\n              mstore\n              swap1\n              0x01\n              add\n              swap1\n              0x20\n              add\n              dup1\n              dup4\n              gt\n              tag_143\n              jumpi\n              dup3\n              swap1\n              sub\n              0x1f\n              and\n              dup3\n              add\n              swap2\n            tag_141:\n              pop\n              pop\n              pop\n              pop\n              pop\n              dup2\n              mstore\n              0x20\n              add\n              0x01\n              dup3\n              add\n              sload\n              dup2\n              mstore\n              0x20\n              add\n              0x02\n              dup3\n              add\n              0x00\n              swap1\n              sload\n              swap1\n              0x0100\n              exp\n              swap1\n              div\n              0xffffffffffffffffffffffffffffffffffffffff\n              and\n              0xffffffffffffffffffffffffffffffffffffffff\n              and\n              0xffffffffffffffffffffffffffffffffffffffff\n              and\n              dup2\n              mstore\n              0x20\n              add\n              0x02\n              dup3\n              add\n              0x14\n              swap1\n              sload\n              swap1\n              0x0100\n              exp\n              swap1\n              div\n              0xff\n              and\n              iszero\n              iszero\n              iszero\n              iszero\n              dup2\n              mstore\n              0x20\n              add\n              0x02\n              dup3\n              add\n              0x15\n              swap1\n              sload\n              swap1\n              0x0100\n              exp\n              swap1\n              div\n              0xff\n              and\n              iszero\n              iszero\n              iszero\n              iszero\n              dup2\n              mstore\n              0x20\n              add\n              0x03\n              dup3\n              add\n              sload\n              dup2\n              mstore\n              pop\n              pop\n              dup2\n              mstore\n              0x20\n              add\n              swap1\n              0x01\n              add\n              swap1\n              jump(tag_136)\n            tag_137:\n              pop\n              pop\n              pop\n              pop\n              swap1\n              pop\n                /* \"output\":3705:3802  function getRequests() public view returns (Request [] memory) {... */\n              swap1\n              jump\t// out\n                /* \"output\":2458:2911  function createRequest(string memory description, uint value, address recipient) public managerOnly returns (Request memory){... */\n            tag_53:\n                /* \"output\":2567:2581  Request memory */\n              tag_144\n              tag_145\n              jump\t// in\n            tag_144:\n                /* \"output\":1749:1756  manager */\n              0x01\n              0x00\n              swap1\n              sload\n              swap1\n              0x0100\n              exp\n              swap1\n              div\n              0xffffffffffffffffffffffffffffffffffffffff\n              and\n                /* \"output\":1735:1756  msg.sender == manager */\n              0xffffffffffffffffffffffffffffffffffffffff\n              and\n                /* \"output\":1735:1745  msg.sender */\n              caller\n                /* \"output\":1735:1756  msg.sender == manager */\n              0xffffffffffffffffffffffffffffffffffffffff\n              and\n              eq\n                /* \"output\":1727:1808  require(msg.sender == manager, \"This function can only be called by the manager\") */\n              tag_147\n              jumpi\n              mload(0x40)\n              0x08c379a000000000000000000000000000000000000000000000000000000000\n              dup2\n              mstore\n              0x04\n              add\n              tag_148\n              swap1\n              tag_87\n              jump\t// in\n            tag_148:\n              mload(0x40)\n              dup1\n              swap2\n              sub\n              swap1\n              revert\n            tag_147:\n                /* \"output\":2593:2618  Request memory newRequest */\n              0x00\n                /* \"output\":2621:2835  Request({... */\n              mload(0x40)\n              dup1\n              0xc0\n              add\n              0x40\n              mstore\n              dup1\n                /* \"output\":2657:2668  description */\n              dup7\n                /* \"output\":2621:2835  Request({... */\n              dup2\n              mstore\n              0x20\n              add\n                /* \"output\":2690:2695  value */\n              dup6\n                /* \"output\":2621:2835  Request({... */\n              dup2\n              mstore\n              0x20\n              add\n                /* \"output\":2721:2730  recipient */\n              dup5\n                /* \"output\":2621:2835  Request({... */\n              0xffffffffffffffffffffffffffffffffffffffff\n              and\n              dup2\n              mstore\n              0x20\n              add\n                /* \"output\":2759:2764  false */\n              0x00\n                /* \"output\":2621:2835  Request({... */\n              iszero\n              iszero\n              dup2\n              mstore\n              0x20\n              add\n                /* \"output\":2791:2796  false */\n              0x00\n                /* \"output\":2621:2835  Request({... */\n              iszero\n              iszero\n              dup2\n              mstore\n              0x20\n              add\n                /* \"output\":2822:2823  0 */\n              0x00\n                /* \"output\":2621:2835  Request({... */\n              dup2\n              mstore\n              pop\n                /* \"output\":2593:2835  Request memory newRequest = Request({... */\n              swap1\n              pop\n                /* \"output\":2848:2856  requests */\n              0x00\n                /* \"output\":2862:2872  newRequest */\n              dup2\n                /* \"output\":2848:2873  requests.push(newRequest) */\n              swap1\n              dup1\n              0x01\n              dup2\n              sload\n              add\n              dup1\n              dup3\n              sstore\n              dup1\n              swap2\n              pop\n              pop\n              0x01\n              swap1\n              sub\n              swap1\n              0x00\n              mstore\n              keccak256(0x00, 0x20)\n              swap1\n              0x04\n              mul\n              add\n              0x00\n              swap1\n              swap2\n              swap1\n              swap2\n              swap1\n              swap2\n              pop\n              0x00\n              dup3\n              add\n              mload\n              dup2\n              0x00\n              add\n              swap1\n              dup1\n              mload\n              swap1\n              0x20\n              add\n              swap1\n              tag_151\n              swap3\n              swap2\n              swap1\n              tag_152\n              jump\t// in\n            tag_151:\n              pop\n              0x20\n              dup3\n              add\n              mload\n              dup2\n              0x01\n              add\n              sstore\n              0x40\n              dup3\n              add\n              mload\n              dup2\n              0x02\n              add\n              exp(0x0100, 0x00)\n              dup2\n              sload\n              dup2\n              0xffffffffffffffffffffffffffffffffffffffff\n              mul\n              not\n              and\n              swap1\n              dup4\n              0xffffffffffffffffffffffffffffffffffffffff\n              and\n              mul\n              or\n              swap1\n              sstore\n              pop\n              0x60\n              dup3\n              add\n              mload\n              dup2\n              0x02\n              add\n              exp(0x0100, 0x14)\n              dup2\n              sload\n              dup2\n              0xff\n              mul\n              not\n              and\n              swap1\n              dup4\n              iszero\n              iszero\n              mul\n              or\n              swap1\n              sstore\n              pop\n              0x80\n              dup3\n              add\n              mload\n              dup2\n              0x02\n              add\n              exp(0x0100, 0x15)\n              dup2\n              sload\n              dup2\n              0xff\n              mul\n              not\n              and\n              swap1\n              dup4\n              iszero\n              iszero\n              mul\n              or\n              swap1\n              sstore\n              pop\n              0xa0\n              dup3\n              add\n              mload\n              dup2\n              0x03\n              add\n              sstore\n              pop\n              pop\n                /* \"output\":2893:2903  newRequest */\n              dup1\n                /* \"output\":2886:2903  return newRequest */\n              swap2\n              pop\n              pop\n                /* \"output\":2458:2911  function createRequest(string memory description, uint value, address recipient) public managerOnly returns (Request memory){... */\n              swap4\n              swap3\n              pop\n              pop\n              pop\n              jump\t// out\n                /* \"output\":2961:3355  function back() public payable {... */\n            tag_57:\n                /* \"output\":3098:3117  minimumContribution */\n              sload(0x03)\n                /* \"output\":3085:3094  msg.value */\n              callvalue\n                /* \"output\":3085:3117  msg.value >= minimumContribution */\n              lt\n              iszero\n                /* \"output\":3077:3172  require(msg.value >= minimumContribution, \"You need to send at least the minimum contribution\") */\n              tag_154\n              jumpi\n              mload(0x40)\n              0x08c379a000000000000000000000000000000000000000000000000000000000\n              dup2\n              mstore\n              0x04\n              add\n              tag_155\n              swap1\n              tag_156\n              jump\t// in\n            tag_155:\n              mload(0x40)\n              dup1\n              swap2\n              sub\n              swap1\n              revert\n            tag_154:\n                /* \"output\":3218:3227  msg.value */\n              callvalue\n                /* \"output\":3186:3193  backers */\n              0x04\n                /* \"output\":3186:3214  backers[payable(msg.sender)] */\n              0x00\n                /* \"output\":3202:3212  msg.sender */\n              caller\n                /* \"output\":3186:3214  backers[payable(msg.sender)] */\n              0xffffffffffffffffffffffffffffffffffffffff\n              and\n              0xffffffffffffffffffffffffffffffffffffffff\n              and\n              dup2\n              mstore\n              0x20\n              add\n              swap1\n              dup2\n              mstore\n              0x20\n              add\n              0x00\n              keccak256\n              0x00\n                /* \"output\":3186:3227  backers[payable(msg.sender)] += msg.value */\n              dup3\n              dup3\n              sload\n              tag_157\n              swap2\n              swap1\n              tag_158\n              jump\t// in\n            tag_157:\n              swap3\n              pop\n              pop\n              dup2\n              swap1\n              sstore\n              pop\n                /* \"output\":3264:3283  minimumContribution */\n              sload(0x03)\n                /* \"output\":3242:3249  backers */\n              0x04\n                /* \"output\":3242:3261  backers[msg.sender] */\n              0x00\n                /* \"output\":3250:3260  msg.sender */\n              caller\n                /* \"output\":3242:3261  backers[msg.sender] */\n              0xffffffffffffffffffffffffffffffffffffffff\n              and\n              0xffffffffffffffffffffffffffffffffffffffff\n              and\n              dup2\n              mstore\n              0x20\n              add\n              swap1\n              dup2\n              mstore\n              0x20\n              add\n              0x00\n              keccak256\n              sload\n                /* \"output\":3242:3283  backers[msg.sender] > minimumContribution */\n              gt\n                /* \"output\":3238:3348  if (backers[msg.sender] > minimumContribution) {... */\n              iszero\n              tag_159\n              jumpi\n                /* \"output\":3300:3310  backersArr */\n              0x02\n                /* \"output\":3324:3334  msg.sender */\n              caller\n                /* \"output\":3300:3336  backersArr.push(payable(msg.sender)) */\n              swap1\n              dup1\n              0x01\n              dup2\n              sload\n              add\n              dup1\n              dup3\n              sstore\n              dup1\n              swap2\n              pop\n              pop\n              0x01\n              swap1\n              sub\n              swap1\n              0x00\n              mstore\n              keccak256(0x00, 0x20)\n              add\n              0x00\n              swap1\n              swap2\n              swap1\n              swap2\n              swap1\n              swap2\n              0x0100\n              exp\n              dup2\n              sload\n              dup2\n              0xffffffffffffffffffffffffffffffffffffffff\n              mul\n              not\n              and\n              swap1\n              dup4\n              0xffffffffffffffffffffffffffffffffffffffff\n              and\n              mul\n              or\n              swap1\n              sstore\n              pop\n                /* \"output\":3238:3348  if (backers[msg.sender] > minimumContribution) {... */\n            tag_159:\n                /* \"output\":2961:3355  function back() public payable {... */\n              jump\t// out\n                /* \"output\":3399:3510  function returnBalance() public managerOnly view returns (uint) {... */\n            tag_60:\n                /* \"output\":3457:3461  uint */\n              0x00\n                /* \"output\":1749:1756  manager */\n              0x01\n              0x00\n              swap1\n              sload\n              swap1\n              0x0100\n              exp\n              swap1\n              div\n              0xffffffffffffffffffffffffffffffffffffffff\n              and\n                /* \"output\":1735:1756  msg.sender == manager */\n              0xffffffffffffffffffffffffffffffffffffffff\n              and\n                /* \"output\":1735:1745  msg.sender */\n              caller\n                /* \"output\":1735:1756  msg.sender == manager */\n              0xffffffffffffffffffffffffffffffffffffffff\n              and\n              eq\n                /* \"output\":1727:1808  require(msg.sender == manager, \"This function can only be called by the manager\") */\n              tag_162\n              jumpi\n              mload(0x40)\n              0x08c379a000000000000000000000000000000000000000000000000000000000\n              dup2\n              mstore\n              0x04\n              add\n              tag_163\n              swap1\n              tag_87\n              jump\t// in\n            tag_163:\n              mload(0x40)\n              dup1\n              swap2\n              sub\n              swap1\n              revert\n            tag_162:\n                /* \"output\":3481:3502  address(this).balance */\n              selfbalance\n                /* \"output\":3474:3502  return address(this).balance */\n              swap1\n              pop\n                /* \"output\":3399:3510  function returnBalance() public managerOnly view returns (uint) {... */\n              swap1\n              jump\t// out\n                /* \"output\":1145:1181  address payable [] public backersArr */\n            tag_66:\n              0x02\n              dup2\n              dup2\n              sload\n              dup2\n              lt\n              tag_165\n              jumpi\n              0x00\n              dup1\n              revert\n            tag_165:\n              swap1\n              0x00\n              mstore\n              keccak256(0x00, 0x20)\n              add\n              0x00\n              swap2\n              pop\n              sload\n              swap1\n              0x0100\n              exp\n              swap1\n              div\n              0xffffffffffffffffffffffffffffffffffffffff\n              and\n              dup2\n              jump\t// out\n                /* \"output\":1399:1439  mapping (address => uint) public backers */\n            tag_72:\n              mstore(0x20, 0x04)\n              dup1\n              0x00\n              mstore\n              keccak256(0x00, 0x40)\n              0x00\n              swap2\n              pop\n              swap1\n              pop\n              sload\n              dup2\n              jump\t// out\n                /* \"output\":1527:1588  mapping (address => Request []) public requestBackerRelations */\n            tag_78:\n              mstore(0x20, 0x05)\n              dup2\n              0x00\n              mstore\n              keccak256(0x00, 0x40)\n              dup2\n              dup2\n              sload\n              dup2\n              lt\n              tag_167\n              jumpi\n              0x00\n              dup1\n              revert\n            tag_167:\n              swap1\n              0x00\n              mstore\n              keccak256(0x00, 0x20)\n              swap1\n              0x04\n              mul\n              add\n              0x00\n              swap2\n              pop\n              swap2\n              pop\n              pop\n              dup1\n              0x00\n              add\n              dup1\n              sload\n              tag_169\n              swap1\n              tag_120\n              jump\t// in\n            tag_169:\n              dup1\n              0x1f\n              add\n              0x20\n              dup1\n              swap2\n              div\n              mul\n              0x20\n              add\n              mload(0x40)\n              swap1\n              dup2\n              add\n              0x40\n              mstore\n              dup1\n              swap3\n              swap2\n              swap1\n              dup2\n              dup2\n              mstore\n              0x20\n              add\n              dup3\n              dup1\n              sload\n              tag_170\n              swap1\n              tag_120\n              jump\t// in\n            tag_170:\n              dup1\n              iszero\n              tag_171\n              jumpi\n              dup1\n              0x1f\n              lt\n              tag_172\n              jumpi\n              0x0100\n              dup1\n              dup4\n              sload\n              div\n              mul\n              dup4\n              mstore\n              swap2\n              0x20\n              add\n              swap2\n              jump(tag_171)\n            tag_172:\n              dup3\n              add\n              swap2\n              swap1\n              0x00\n              mstore\n              keccak256(0x00, 0x20)\n              swap1\n            tag_173:\n              dup2\n              sload\n              dup2\n              mstore\n              swap1\n              0x01\n              add\n              swap1\n              0x20\n              add\n              dup1\n              dup4\n              gt\n              tag_173\n              jumpi\n              dup3\n              swap1\n              sub\n              0x1f\n              and\n              dup3\n              add\n              swap2\n            tag_171:\n              pop\n              pop\n              pop\n              pop\n              pop\n              swap1\n              dup1\n              0x01\n              add\n              sload\n              swap1\n              dup1\n              0x02\n              add\n              0x00\n              swap1\n              sload\n              swap1\n              0x0100\n              exp\n              swap1\n              div\n              0xffffffffffffffffffffffffffffffffffffffff\n              and\n              swap1\n              dup1\n              0x02\n              add\n              0x14\n              swap1\n              sload\n              swap1\n              0x0100\n              exp\n              swap1\n              div\n              0xff\n              and\n              swap1\n              dup1\n              0x02\n              add\n              0x15\n              swap1\n              sload\n              swap1\n              0x0100\n              exp\n              swap1\n              div\n              0xff\n              and\n              swap1\n              dup1\n              0x03\n              add\n              sload\n              swap1\n              pop\n              dup7\n              jump\t// out\n                /* \"output\":3876:4577  function approveRequest(uint index) public backerOnly {... */\n            tag_83:\n                /* \"output\":2036:2055  minimumContribution */\n              sload(0x03)\n                /* \"output\":2013:2020  backers */\n              0x04\n                /* \"output\":2013:2032  backers[msg.sender] */\n              0x00\n                /* \"output\":2021:2031  msg.sender */\n              caller\n                /* \"output\":2013:2032  backers[msg.sender] */\n              0xffffffffffffffffffffffffffffffffffffffff\n              and\n              0xffffffffffffffffffffffffffffffffffffffff\n              and\n              dup2\n              mstore\n              0x20\n              add\n              swap1\n              dup2\n              mstore\n              0x20\n              add\n              0x00\n              keccak256\n              sload\n                /* \"output\":2013:2055  backers[msg.sender] >= minimumContribution */\n              lt\n              iszero\n                /* \"output\":2005:2104  require(backers[msg.sender] >= minimumContribution, \"This function can only be called by a backer\") */\n              tag_175\n              jumpi\n              mload(0x40)\n              0x08c379a000000000000000000000000000000000000000000000000000000000\n              dup2\n              mstore\n              0x04\n              add\n              tag_176\n              swap1\n              tag_177\n              jump\t// in\n            tag_176:\n              mload(0x40)\n              dup1\n              swap2\n              sub\n              swap1\n              revert\n            tag_175:\n                /* \"output\":4009:4038  Request storage requestToBack */\n              0x00\n                /* \"output\":4041:4049  requests */\n              dup1\n                /* \"output\":4050:4055  index */\n              dup3\n                /* \"output\":4041:4056  requests[index] */\n              dup2\n              sload\n              dup2\n              lt\n              tag_179\n              jumpi\n              tag_180\n              tag_91\n              jump\t// in\n            tag_180:\n            tag_179:\n              swap1\n              0x00\n              mstore\n              keccak256(0x00, 0x20)\n              swap1\n              0x04\n              mul\n              add\n                /* \"output\":4009:4056  Request storage requestToBack = requests[index] */\n              swap1\n              pop\n                /* \"output\":4067:4108  Request [] memory backersApprovedRequests */\n              0x00\n                /* \"output\":4111:4133  requestBackerRelations */\n              0x05\n                /* \"output\":4111:4145  requestBackerRelations[msg.sender] */\n              0x00\n                /* \"output\":4134:4144  msg.sender */\n              caller\n                /* \"output\":4111:4145  requestBackerRelations[msg.sender] */\n              0xffffffffffffffffffffffffffffffffffffffff\n              and\n              0xffffffffffffffffffffffffffffffffffffffff\n              and\n              dup2\n              mstore\n              0x20\n              add\n              swap1\n              dup2\n              mstore\n              0x20\n              add\n              0x00\n              keccak256\n                /* \"output\":4067:4145  Request [] memory backersApprovedRequests = requestBackerRelations[msg.sender] */\n              dup1\n              sload\n              dup1\n              0x20\n              mul\n              0x20\n              add\n              mload(0x40)\n              swap1\n              dup2\n              add\n              0x40\n              mstore\n              dup1\n              swap3\n              swap2\n              swap1\n              dup2\n              dup2\n              mstore\n              0x20\n              add\n              0x00\n              swap1\n            tag_182:\n              dup3\n              dup3\n              lt\n              iszero\n              tag_183\n              jumpi\n              dup4\n              dup3\n              swap1\n              0x00\n              mstore\n              keccak256(0x00, 0x20)\n              swap1\n              0x04\n              mul\n              add\n              mload(0x40)\n              dup1\n              0xc0\n              add\n              0x40\n              mstore\n              swap1\n              dup2\n              0x00\n              dup3\n              add\n              dup1\n              sload\n              tag_185\n              swap1\n              tag_120\n              jump\t// in\n            tag_185:\n              dup1\n              0x1f\n              add\n              0x20\n              dup1\n              swap2\n              div\n              mul\n              0x20\n              add\n              mload(0x40)\n              swap1\n              dup2\n              add\n              0x40\n              mstore\n              dup1\n              swap3\n              swap2\n              swap1\n              dup2\n              dup2\n              mstore\n              0x20\n              add\n              dup3\n              dup1\n              sload\n              tag_186\n              swap1\n              tag_120\n              jump\t// in\n            tag_186:\n              dup1\n              iszero\n              tag_187\n              jumpi\n              dup1\n              0x1f\n              lt\n              tag_188\n              jumpi\n              0x0100\n              dup1\n              dup4\n              sload\n              div\n              mul\n              dup4\n              mstore\n              swap2\n              0x20\n              add\n              swap2\n              jump(tag_187)\n            tag_188:\n              dup3\n              add\n              swap2\n              swap1\n              0x00\n              mstore\n              keccak256(0x00, 0x20)\n              swap1\n            tag_189:\n              dup2\n              sload\n              dup2\n              mstore\n              swap1\n              0x01\n              add\n              swap1\n              0x20\n              add\n              dup1\n              dup4\n              gt\n              tag_189\n              jumpi\n              dup3\n              swap1\n              sub\n              0x1f\n              and\n              dup3\n              add\n              swap2\n            tag_187:\n              pop\n              pop\n              pop\n              pop\n              pop\n              dup2\n              mstore\n              0x20\n              add\n              0x01\n              dup3\n              add\n              sload\n              dup2\n              mstore\n              0x20\n              add\n              0x02\n              dup3\n              add\n              0x00\n              swap1\n              sload\n              swap1\n              0x0100\n              exp\n              swap1\n              div\n              0xffffffffffffffffffffffffffffffffffffffff\n              and\n              0xffffffffffffffffffffffffffffffffffffffff\n              and\n              0xffffffffffffffffffffffffffffffffffffffff\n              and\n              dup2\n              mstore\n              0x20\n              add\n              0x02\n              dup3\n              add\n              0x14\n              swap1\n              sload\n              swap1\n              0x0100\n              exp\n              swap1\n              div\n              0xff\n              and\n              iszero\n              iszero\n              iszero\n              iszero\n              dup2\n              mstore\n              0x20\n              add\n              0x02\n              dup3\n              add\n              0x15\n              swap1\n              sload\n              swap1\n              0x0100\n              exp\n              swap1\n              div\n              0xff\n              and\n              iszero\n              iszero\n              iszero\n              iszero\n              dup2\n              mstore\n              0x20\n              add\n              0x03\n              dup3\n              add\n              sload\n              dup2\n              mstore\n              pop\n              pop\n              dup2\n              mstore\n              0x20\n              add\n              swap1\n              0x01\n              add\n              swap1\n              jump(tag_182)\n            tag_183:\n              pop\n              pop\n              pop\n              pop\n              swap1\n              pop\n                /* \"output\":4161:4167  uint i */\n              0x00\n                /* \"output\":4156:4379  for (uint i = 0; i < backersApprovedRequests.length; i++) {... */\n            tag_190:\n                /* \"output\":4177:4200  backersApprovedRequests */\n              dup2\n                /* \"output\":4177:4207  backersApprovedRequests.length */\n              mload\n                /* \"output\":4173:4174  i */\n              dup2\n                /* \"output\":4173:4207  i < backersApprovedRequests.length */\n              lt\n                /* \"output\":4156:4379  for (uint i = 0; i < backersApprovedRequests.length; i++) {... */\n              iszero\n              tag_191\n              jumpi\n                /* \"output\":4298:4321  backersApprovedRequests */\n              dup2\n                /* \"output\":4322:4323  i */\n              dup2\n                /* \"output\":4298:4324  backersApprovedRequests[i] */\n              dup2\n              mload\n              dup2\n              lt\n              tag_193\n              jumpi\n              tag_194\n              tag_91\n              jump\t// in\n            tag_194:\n            tag_193:\n              0x20\n              mul\n              0x20\n              add\n              add\n              mload\n                /* \"output\":4287:4325  abi.encode(backersApprovedRequests[i]) */\n              add(0x20, mload(0x40))\n              tag_195\n              swap2\n              swap1\n              tag_55\n              jump\t// in\n            tag_195:\n              mload(0x40)\n              0x20\n              dup2\n              dup4\n              sub\n              sub\n              dup2\n              mstore\n              swap1\n              0x40\n              mstore\n                /* \"output\":4277:4326  keccak256(abi.encode(backersApprovedRequests[i])) */\n              dup1\n              mload\n              swap1\n              0x20\n              add\n              keccak256\n                /* \"output\":4258:4271  requestToBack */\n              dup4\n                /* \"output\":4247:4272  abi.encode(requestToBack) */\n              add(0x20, mload(0x40))\n              tag_196\n              swap2\n              swap1\n              tag_197\n              jump\t// in\n            tag_196:\n              mload(0x40)\n              0x20\n              dup2\n              dup4\n              sub\n              sub\n              dup2\n              mstore\n              swap1\n              0x40\n              mstore\n                /* \"output\":4237:4273  keccak256(abi.encode(requestToBack)) */\n              dup1\n              mload\n              swap1\n              0x20\n              add\n              keccak256\n                /* \"output\":4237:4326  keccak256(abi.encode(requestToBack)) == keccak256(abi.encode(backersApprovedRequests[i])) */\n              eq\n                /* \"output\":4229:4367  require(keccak256(abi.encode(requestToBack)) == keccak256(abi.encode(backersApprovedRequests[i])), \"You have already backed this request\") */\n              tag_198\n              jumpi\n              mload(0x40)\n              0x08c379a000000000000000000000000000000000000000000000000000000000\n              dup2\n              mstore\n              0x04\n              add\n              tag_199\n              swap1\n              tag_200\n              jump\t// in\n            tag_199:\n              mload(0x40)\n              dup1\n              swap2\n              sub\n              swap1\n              revert\n            tag_198:\n                /* \"output\":4209:4212  i++ */\n              dup1\n              dup1\n              tag_201\n              swap1\n              tag_202\n              jump\t// in\n            tag_201:\n              swap2\n              pop\n              pop\n                /* \"output\":4156:4379  for (uint i = 0; i < backersApprovedRequests.length; i++) {... */\n              jump(tag_190)\n            tag_191:\n              pop\n                /* \"output\":4503:4504  1 */\n              0x01\n                /* \"output\":4476:4489  requestToBack */\n              dup3\n                /* \"output\":4476:4499  requestToBack.approvers */\n              0x03\n              add\n              0x00\n                /* \"output\":4476:4504  requestToBack.approvers += 1 */\n              dup3\n              dup3\n              sload\n              tag_203\n              swap2\n              swap1\n              tag_158\n              jump\t// in\n            tag_203:\n              swap3\n              pop\n              pop\n              dup2\n              swap1\n              sstore\n              pop\n                /* \"output\":4515:4537  requestBackerRelations */\n              0x05\n                /* \"output\":4515:4549  requestBackerRelations[msg.sender] */\n              0x00\n                /* \"output\":4538:4548  msg.sender */\n              caller\n                /* \"output\":4515:4549  requestBackerRelations[msg.sender] */\n              0xffffffffffffffffffffffffffffffffffffffff\n              and\n              0xffffffffffffffffffffffffffffffffffffffff\n              and\n              dup2\n              mstore\n              0x20\n              add\n              swap1\n              dup2\n              mstore\n              0x20\n              add\n              0x00\n              keccak256\n                /* \"output\":4555:4568  requestToBack */\n              dup3\n                /* \"output\":4515:4569  requestBackerRelations[msg.sender].push(requestToBack) */\n              swap1\n              dup1\n              0x01\n              dup2\n              sload\n              add\n              dup1\n              dup3\n              sstore\n              dup1\n              swap2\n              pop\n              pop\n              0x01\n              swap1\n              sub\n              swap1\n              0x00\n              mstore\n              keccak256(0x00, 0x20)\n              swap1\n              0x04\n              mul\n              add\n              0x00\n              swap1\n              swap2\n              swap1\n              swap2\n              swap1\n              swap2\n              pop\n              0x00\n              dup3\n              add\n              dup2\n              0x00\n              add\n              swap1\n              dup1\n              sload\n              tag_205\n              swap1\n              tag_120\n              jump\t// in\n            tag_205:\n              tag_206\n              swap3\n              swap2\n              swap1\n              tag_207\n              jump\t// in\n            tag_206:\n              pop\n              0x01\n              dup3\n              add\n              sload\n              dup2\n              0x01\n              add\n              sstore\n              0x02\n              dup3\n              add\n              0x00\n              swap1\n              sload\n              swap1\n              0x0100\n              exp\n              swap1\n              div\n              0xffffffffffffffffffffffffffffffffffffffff\n              and\n              dup2\n              0x02\n              add\n              exp(0x0100, 0x00)\n              dup2\n              sload\n              dup2\n              0xffffffffffffffffffffffffffffffffffffffff\n              mul\n              not\n              and\n              swap1\n              dup4\n              0xffffffffffffffffffffffffffffffffffffffff\n              and\n              mul\n              or\n              swap1\n              sstore\n              pop\n              0x02\n              dup3\n              add\n              0x14\n              swap1\n              sload\n              swap1\n              0x0100\n              exp\n              swap1\n              div\n              0xff\n              and\n              dup2\n              0x02\n              add\n              exp(0x0100, 0x14)\n              dup2\n              sload\n              dup2\n              0xff\n              mul\n              not\n              and\n              swap1\n              dup4\n              iszero\n              iszero\n              mul\n              or\n              swap1\n              sstore\n              pop\n              0x02\n              dup3\n              add\n              0x15\n              swap1\n              sload\n              swap1\n              0x0100\n              exp\n              swap1\n              div\n              0xff\n              and\n              dup2\n              0x02\n              add\n              exp(0x0100, 0x15)\n              dup2\n              sload\n              dup2\n              0xff\n              mul\n              not\n              and\n              swap1\n              dup4\n              iszero\n              iszero\n              mul\n              or\n              swap1\n              sstore\n              pop\n              0x03\n              dup3\n              add\n              sload\n              dup2\n              0x03\n              add\n              sstore\n              pop\n              pop\n                /* \"output\":3930:4577  {... */\n              pop\n              pop\n                /* \"output\":3876:4577  function approveRequest(uint index) public backerOnly {... */\n              pop\n              jump\t// out\n            tag_145:\n              mload(0x40)\n              dup1\n              0xc0\n              add\n              0x40\n              mstore\n              dup1\n              0x60\n              dup2\n              mstore\n              0x20\n              add\n              0x00\n              dup2\n              mstore\n              0x20\n              add\n              and(0xffffffffffffffffffffffffffffffffffffffff, 0x00)\n              dup2\n              mstore\n              0x20\n              add\n              iszero(iszero(0x00))\n              dup2\n              mstore\n              0x20\n              add\n              iszero(iszero(0x00))\n              dup2\n              mstore\n              0x20\n              add\n              0x00\n              dup2\n              mstore\n              pop\n              swap1\n              jump\t// out\n            tag_152:\n              dup3\n              dup1\n              sload\n              tag_208\n              swap1\n              tag_120\n              jump\t// in\n            tag_208:\n              swap1\n              0x00\n              mstore\n              keccak256(0x00, 0x20)\n              swap1\n              0x1f\n              add\n              0x20\n              swap1\n              div\n              dup2\n              add\n              swap3\n              dup3\n              tag_210\n              jumpi\n              0x00\n              dup6\n              sstore\n              jump(tag_209)\n            tag_210:\n              dup3\n              0x1f\n              lt\n              tag_211\n              jumpi\n              dup1\n              mload\n              not(0xff)\n              and\n              dup4\n              dup1\n              add\n              or\n              dup6\n              sstore\n              jump(tag_209)\n            tag_211:\n              dup3\n              dup1\n              add\n              0x01\n              add\n              dup6\n              sstore\n              dup3\n              iszero\n              tag_209\n              jumpi\n              swap2\n              dup3\n              add\n            tag_212:\n              dup3\n              dup2\n              gt\n              iszero\n              tag_213\n              jumpi\n              dup3\n              mload\n              dup3\n              sstore\n              swap2\n              0x20\n              add\n              swap2\n              swap1\n              0x01\n              add\n              swap1\n              jump(tag_212)\n            tag_213:\n            tag_209:\n              pop\n              swap1\n              pop\n              tag_214\n              swap2\n              swap1\n              tag_215\n              jump\t// in\n            tag_214:\n              pop\n              swap1\n              jump\t// out\n            tag_207:\n              dup3\n              dup1\n              sload\n              tag_216\n              swap1\n              tag_120\n              jump\t// in\n            tag_216:\n              swap1\n              0x00\n              mstore\n              keccak256(0x00, 0x20)\n              swap1\n              0x1f\n              add\n              0x20\n              swap1\n              div\n              dup2\n              add\n              swap3\n              dup3\n              tag_218\n              jumpi\n              0x00\n              dup6\n              sstore\n              jump(tag_217)\n            tag_218:\n              dup3\n              0x1f\n              lt\n              tag_219\n              jumpi\n              dup1\n              sload\n              dup6\n              sstore\n              jump(tag_217)\n            tag_219:\n              dup3\n              dup1\n              add\n              0x01\n              add\n              dup6\n              sstore\n              dup3\n              iszero\n              tag_217\n              jumpi\n              0x00\n              mstore\n              keccak256(0x00, 0x20)\n              swap2\n              0x1f\n              add\n              0x20\n              swap1\n              div\n              dup3\n              add\n            tag_220:\n              dup3\n              dup2\n              gt\n              iszero\n              tag_221\n              jumpi\n              dup3\n              sload\n              dup3\n              sstore\n              swap2\n              0x01\n              add\n              swap2\n              swap1\n              0x01\n              add\n              swap1\n              jump(tag_220)\n            tag_221:\n            tag_217:\n              pop\n              swap1\n              pop\n              tag_222\n              swap2\n              swap1\n              tag_215\n              jump\t// in\n            tag_222:\n              pop\n              swap1\n              jump\t// out\n            tag_215:\n            tag_223:\n              dup1\n              dup3\n              gt\n              iszero\n              tag_224\n              jumpi\n              0x00\n              dup2\n              0x00\n              swap1\n              sstore\n              pop\n              0x01\n              add\n              jump(tag_223)\n            tag_224:\n              pop\n              swap1\n              jump\t// out\n                /* \"#utility.yul\":7:82   */\n            tag_225:\n                /* \"#utility.yul\":40:46   */\n              0x00\n                /* \"#utility.yul\":73:75   */\n              0x40\n                /* \"#utility.yul\":67:76   */\n              mload\n                /* \"#utility.yul\":57:76   */\n              swap1\n              pop\n                /* \"#utility.yul\":7:82   */\n              swap1\n              jump\t// out\n                /* \"#utility.yul\":88:205   */\n            tag_226:\n                /* \"#utility.yul\":197:198   */\n              0x00\n                /* \"#utility.yul\":194:195   */\n              dup1\n                /* \"#utility.yul\":187:199   */\n              revert\n                /* \"#utility.yul\":211:328   */\n            tag_227:\n                /* \"#utility.yul\":320:321   */\n              0x00\n                /* \"#utility.yul\":317:318   */\n              dup1\n                /* \"#utility.yul\":310:322   */\n              revert\n                /* \"#utility.yul\":334:411   */\n            tag_228:\n                /* \"#utility.yul\":371:378   */\n              0x00\n                /* \"#utility.yul\":400:405   */\n              dup2\n                /* \"#utility.yul\":389:405   */\n              swap1\n              pop\n                /* \"#utility.yul\":334:411   */\n              swap2\n              swap1\n              pop\n              jump\t// out\n                /* \"#utility.yul\":417:539   */\n            tag_229:\n                /* \"#utility.yul\":490:514   */\n              tag_315\n                /* \"#utility.yul\":508:513   */\n              dup2\n                /* \"#utility.yul\":490:514   */\n              tag_228\n              jump\t// in\n            tag_315:\n                /* \"#utility.yul\":483:488   */\n              dup2\n                /* \"#utility.yul\":480:515   */\n              eq\n                /* \"#utility.yul\":470:533   */\n              tag_316\n              jumpi\n                /* \"#utility.yul\":529:530   */\n              0x00\n                /* \"#utility.yul\":526:527   */\n              dup1\n                /* \"#utility.yul\":519:531   */\n              revert\n                /* \"#utility.yul\":470:533   */\n            tag_316:\n                /* \"#utility.yul\":417:539   */\n              pop\n              jump\t// out\n                /* \"#utility.yul\":545:684   */\n            tag_230:\n                /* \"#utility.yul\":591:596   */\n              0x00\n                /* \"#utility.yul\":629:635   */\n              dup2\n                /* \"#utility.yul\":616:636   */\n              calldataload\n                /* \"#utility.yul\":607:636   */\n              swap1\n              pop\n                /* \"#utility.yul\":645:678   */\n              tag_318\n                /* \"#utility.yul\":672:677   */\n              dup2\n                /* \"#utility.yul\":645:678   */\n              tag_229\n              jump\t// in\n            tag_318:\n                /* \"#utility.yul\":545:684   */\n              swap3\n              swap2\n              pop\n              pop\n              jump\t// out\n                /* \"#utility.yul\":690:1019   */\n            tag_20:\n                /* \"#utility.yul\":749:755   */\n              0x00\n                /* \"#utility.yul\":798:800   */\n              0x20\n                /* \"#utility.yul\":786:795   */\n              dup3\n                /* \"#utility.yul\":777:784   */\n              dup5\n                /* \"#utility.yul\":773:796   */\n              sub\n                /* \"#utility.yul\":769:801   */\n              slt\n                /* \"#utility.yul\":766:885   */\n              iszero\n              tag_320\n              jumpi\n                /* \"#utility.yul\":804:883   */\n              tag_321\n              tag_226\n              jump\t// in\n            tag_321:\n                /* \"#utility.yul\":766:885   */\n            tag_320:\n                /* \"#utility.yul\":924:925   */\n              0x00\n                /* \"#utility.yul\":949:1002   */\n              tag_322\n                /* \"#utility.yul\":994:1001   */\n              dup5\n                /* \"#utility.yul\":985:991   */\n              dup3\n                /* \"#utility.yul\":974:983   */\n              dup6\n                /* \"#utility.yul\":970:992   */\n              add\n                /* \"#utility.yul\":949:1002   */\n              tag_230\n              jump\t// in\n            tag_322:\n                /* \"#utility.yul\":939:1002   */\n              swap2\n              pop\n                /* \"#utility.yul\":895:1012   */\n              pop\n                /* \"#utility.yul\":690:1019   */\n              swap3\n              swap2\n              pop\n              pop\n              jump\t// out\n                /* \"#utility.yul\":1025:1151   */\n            tag_231:\n                /* \"#utility.yul\":1062:1069   */\n              0x00\n                /* \"#utility.yul\":1102:1144   */\n              0xffffffffffffffffffffffffffffffffffffffff\n                /* \"#utility.yul\":1095:1100   */\n              dup3\n                /* \"#utility.yul\":1091:1145   */\n              and\n                /* \"#utility.yul\":1080:1145   */\n              swap1\n              pop\n                /* \"#utility.yul\":1025:1151   */\n              swap2\n              swap1\n              pop\n              jump\t// out\n                /* \"#utility.yul\":1157:1253   */\n            tag_232:\n                /* \"#utility.yul\":1194:1201   */\n              0x00\n                /* \"#utility.yul\":1223:1247   */\n              tag_325\n                /* \"#utility.yul\":1241:1246   */\n              dup3\n                /* \"#utility.yul\":1223:1247   */\n              tag_231\n              jump\t// in\n            tag_325:\n                /* \"#utility.yul\":1212:1247   */\n              swap1\n              pop\n                /* \"#utility.yul\":1157:1253   */\n              swap2\n              swap1\n              pop\n              jump\t// out\n                /* \"#utility.yul\":1259:1381   */\n            tag_233:\n                /* \"#utility.yul\":1332:1356   */\n              tag_327\n                /* \"#utility.yul\":1350:1355   */\n              dup2\n                /* \"#utility.yul\":1332:1356   */\n              tag_232\n              jump\t// in\n            tag_327:\n                /* \"#utility.yul\":1325:1330   */\n              dup2\n                /* \"#utility.yul\":1322:1357   */\n              eq\n                /* \"#utility.yul\":1312:1375   */\n              tag_328\n              jumpi\n                /* \"#utility.yul\":1371:1372   */\n              0x00\n                /* \"#utility.yul\":1368:1369   */\n              dup1\n                /* \"#utility.yul\":1361:1373   */\n              revert\n                /* \"#utility.yul\":1312:1375   */\n            tag_328:\n                /* \"#utility.yul\":1259:1381   */\n              pop\n              jump\t// out\n                /* \"#utility.yul\":1387:1526   */\n            tag_234:\n                /* \"#utility.yul\":1433:1438   */\n              0x00\n                /* \"#utility.yul\":1471:1477   */\n              dup2\n                /* \"#utility.yul\":1458:1478   */\n              calldataload\n                /* \"#utility.yul\":1449:1478   */\n              swap1\n              pop\n                /* \"#utility.yul\":1487:1520   */\n              tag_330\n                /* \"#utility.yul\":1514:1519   */\n              dup2\n                /* \"#utility.yul\":1487:1520   */\n              tag_233\n              jump\t// in\n            tag_330:\n                /* \"#utility.yul\":1387:1526   */\n              swap3\n              swap2\n              pop\n              pop\n              jump\t// out\n                /* \"#utility.yul\":1532:1861   */\n            tag_25:\n                /* \"#utility.yul\":1591:1597   */\n              0x00\n                /* \"#utility.yul\":1640:1642   */\n              0x20\n                /* \"#utility.yul\":1628:1637   */\n              dup3\n                /* \"#utility.yul\":1619:1626   */\n              dup5\n                /* \"#utility.yul\":1615:1638   */\n              sub\n                /* \"#utility.yul\":1611:1643   */\n              slt\n                /* \"#utility.yul\":1608:1727   */\n              iszero\n              tag_332\n              jumpi\n                /* \"#utility.yul\":1646:1725   */\n              tag_333\n              tag_226\n              jump\t// in\n            tag_333:\n                /* \"#utility.yul\":1608:1727   */\n            tag_332:\n                /* \"#utility.yul\":1766:1767   */\n              0x00\n                /* \"#utility.yul\":1791:1844   */\n              tag_334\n                /* \"#utility.yul\":1836:1843   */\n              dup5\n                /* \"#utility.yul\":1827:1833   */\n              dup3\n                /* \"#utility.yul\":1816:1825   */\n              dup6\n                /* \"#utility.yul\":1812:1834   */\n              add\n                /* \"#utility.yul\":1791:1844   */\n              tag_234\n              jump\t// in\n            tag_334:\n                /* \"#utility.yul\":1781:1844   */\n              swap2\n              pop\n                /* \"#utility.yul\":1737:1854   */\n              pop\n                /* \"#utility.yul\":1532:1861   */\n              swap3\n              swap2\n              pop\n              pop\n              jump\t// out\n                /* \"#utility.yul\":1867:2004   */\n            tag_235:\n                /* \"#utility.yul\":1957:1963   */\n              0x00\n                /* \"#utility.yul\":1991:1996   */\n              dup2\n                /* \"#utility.yul\":1985:1997   */\n              mload\n                /* \"#utility.yul\":1975:1997   */\n              swap1\n              pop\n                /* \"#utility.yul\":1867:2004   */\n              swap2\n              swap1\n              pop\n              jump\t// out\n                /* \"#utility.yul\":2010:2217   */\n            tag_236:\n                /* \"#utility.yul\":2132:2143   */\n              0x00\n                /* \"#utility.yul\":2166:2172   */\n              dup3\n                /* \"#utility.yul\":2161:2164   */\n              dup3\n                /* \"#utility.yul\":2154:2173   */\n              mstore\n                /* \"#utility.yul\":2206:2210   */\n              0x20\n                /* \"#utility.yul\":2201:2204   */\n              dup3\n                /* \"#utility.yul\":2197:2211   */\n              add\n                /* \"#utility.yul\":2182:2211   */\n              swap1\n              pop\n                /* \"#utility.yul\":2010:2217   */\n              swap3\n              swap2\n              pop\n              pop\n              jump\t// out\n                /* \"#utility.yul\":2223:2378   */\n            tag_237:\n                /* \"#utility.yul\":2313:2317   */\n              0x00\n                /* \"#utility.yul\":2336:2339   */\n              dup2\n                /* \"#utility.yul\":2328:2339   */\n              swap1\n              pop\n                /* \"#utility.yul\":2366:2370   */\n              0x20\n                /* \"#utility.yul\":2361:2364   */\n              dup3\n                /* \"#utility.yul\":2357:2371   */\n              add\n                /* \"#utility.yul\":2349:2371   */\n              swap1\n              pop\n                /* \"#utility.yul\":2223:2378   */\n              swap2\n              swap1\n              pop\n              jump\t// out\n                /* \"#utility.yul\":2384:2483   */\n            tag_238:\n                /* \"#utility.yul\":2436:2442   */\n              0x00\n                /* \"#utility.yul\":2470:2475   */\n              dup2\n                /* \"#utility.yul\":2464:2476   */\n              mload\n                /* \"#utility.yul\":2454:2476   */\n              swap1\n              pop\n                /* \"#utility.yul\":2384:2483   */\n              swap2\n              swap1\n              pop\n              jump\t// out\n                /* \"#utility.yul\":2489:2648   */\n            tag_239:\n                /* \"#utility.yul\":2563:2574   */\n              0x00\n                /* \"#utility.yul\":2597:2603   */\n              dup3\n                /* \"#utility.yul\":2592:2595   */\n              dup3\n                /* \"#utility.yul\":2585:2604   */\n              mstore\n                /* \"#utility.yul\":2637:2641   */\n              0x20\n                /* \"#utility.yul\":2632:2635   */\n              dup3\n                /* \"#utility.yul\":2628:2642   */\n              add\n                /* \"#utility.yul\":2613:2642   */\n              swap1\n              pop\n                /* \"#utility.yul\":2489:2648   */\n              swap3\n              swap2\n              pop\n              pop\n              jump\t// out\n                /* \"#utility.yul\":2654:2961   */\n            tag_240:\n                /* \"#utility.yul\":2722:2723   */\n              0x00\n                /* \"#utility.yul\":2732:2845   */\n            tag_341:\n                /* \"#utility.yul\":2746:2752   */\n              dup4\n                /* \"#utility.yul\":2743:2744   */\n              dup2\n                /* \"#utility.yul\":2740:2753   */\n              lt\n                /* \"#utility.yul\":2732:2845   */\n              iszero\n              tag_343\n              jumpi\n                /* \"#utility.yul\":2831:2832   */\n              dup1\n                /* \"#utility.yul\":2826:2829   */\n              dup3\n                /* \"#utility.yul\":2822:2833   */\n              add\n                /* \"#utility.yul\":2816:2834   */\n              mload\n                /* \"#utility.yul\":2812:2813   */\n              dup2\n                /* \"#utility.yul\":2807:2810   */\n              dup5\n                /* \"#utility.yul\":2803:2814   */\n              add\n                /* \"#utility.yul\":2796:2835   */\n              mstore\n                /* \"#utility.yul\":2768:2770   */\n              0x20\n                /* \"#utility.yul\":2765:2766   */\n              dup2\n                /* \"#utility.yul\":2761:2771   */\n              add\n                /* \"#utility.yul\":2756:2771   */\n              swap1\n              pop\n                /* \"#utility.yul\":2732:2845   */\n              jump(tag_341)\n            tag_343:\n                /* \"#utility.yul\":2863:2869   */\n              dup4\n                /* \"#utility.yul\":2860:2861   */\n              dup2\n                /* \"#utility.yul\":2857:2870   */\n              gt\n                /* \"#utility.yul\":2854:2955   */\n              iszero\n              tag_344\n              jumpi\n                /* \"#utility.yul\":2943:2944   */\n              0x00\n                /* \"#utility.yul\":2934:2940   */\n              dup5\n                /* \"#utility.yul\":2929:2932   */\n              dup5\n                /* \"#utility.yul\":2925:2941   */\n              add\n                /* \"#utility.yul\":2918:2945   */\n              mstore\n                /* \"#utility.yul\":2854:2955   */\n            tag_344:\n                /* \"#utility.yul\":2703:2961   */\n              pop\n                /* \"#utility.yul\":2654:2961   */\n              pop\n              pop\n              pop\n              jump\t// out\n                /* \"#utility.yul\":2967:3069   */\n            tag_241:\n                /* \"#utility.yul\":3008:3014   */\n              0x00\n                /* \"#utility.yul\":3059:3061   */\n              0x1f\n                /* \"#utility.yul\":3055:3062   */\n              not\n                /* \"#utility.yul\":3050:3052   */\n              0x1f\n                /* \"#utility.yul\":3043:3048   */\n              dup4\n                /* \"#utility.yul\":3039:3053   */\n              add\n                /* \"#utility.yul\":3035:3063   */\n              and\n                /* \"#utility.yul\":3025:3063   */\n              swap1\n              pop\n                /* \"#utility.yul\":2967:3069   */\n              swap2\n              swap1\n              pop\n              jump\t// out\n                /* \"#utility.yul\":3075:3419   */\n            tag_242:\n                /* \"#utility.yul\":3153:3156   */\n              0x00\n                /* \"#utility.yul\":3181:3220   */\n              tag_347\n                /* \"#utility.yul\":3214:3219   */\n              dup3\n                /* \"#utility.yul\":3181:3220   */\n              tag_238\n              jump\t// in\n            tag_347:\n                /* \"#utility.yul\":3236:3297   */\n              tag_348\n                /* \"#utility.yul\":3290:3296   */\n              dup2\n                /* \"#utility.yul\":3285:3288   */\n              dup6\n                /* \"#utility.yul\":3236:3297   */\n              tag_239\n              jump\t// in\n            tag_348:\n                /* \"#utility.yul\":3229:3297   */\n              swap4\n              pop\n                /* \"#utility.yul\":3306:3358   */\n              tag_349\n                /* \"#utility.yul\":3351:3357   */\n              dup2\n                /* \"#utility.yul\":3346:3349   */\n              dup6\n                /* \"#utility.yul\":3339:3343   */\n              0x20\n                /* \"#utility.yul\":3332:3337   */\n              dup7\n                /* \"#utility.yul\":3328:3344   */\n              add\n                /* \"#utility.yul\":3306:3358   */\n              tag_240\n              jump\t// in\n            tag_349:\n                /* \"#utility.yul\":3383:3412   */\n              tag_350\n                /* \"#utility.yul\":3405:3411   */\n              dup2\n                /* \"#utility.yul\":3383:3412   */\n              tag_241\n              jump\t// in\n            tag_350:\n                /* \"#utility.yul\":3378:3381   */\n              dup5\n                /* \"#utility.yul\":3374:3413   */\n              add\n                /* \"#utility.yul\":3367:3413   */\n              swap2\n              pop\n                /* \"#utility.yul\":3157:3419   */\n              pop\n                /* \"#utility.yul\":3075:3419   */\n              swap3\n              swap2\n              pop\n              pop\n              jump\t// out\n                /* \"#utility.yul\":3425:3533   */\n            tag_243:\n                /* \"#utility.yul\":3502:3526   */\n              tag_352\n                /* \"#utility.yul\":3520:3525   */\n              dup2\n                /* \"#utility.yul\":3502:3526   */\n              tag_228\n              jump\t// in\n            tag_352:\n                /* \"#utility.yul\":3497:3500   */\n              dup3\n                /* \"#utility.yul\":3490:3527   */\n              mstore\n                /* \"#utility.yul\":3425:3533   */\n              pop\n              pop\n              jump\t// out\n                /* \"#utility.yul\":3539:3647   */\n            tag_244:\n                /* \"#utility.yul\":3616:3640   */\n              tag_354\n                /* \"#utility.yul\":3634:3639   */\n              dup2\n                /* \"#utility.yul\":3616:3640   */\n              tag_232\n              jump\t// in\n            tag_354:\n                /* \"#utility.yul\":3611:3614   */\n              dup3\n                /* \"#utility.yul\":3604:3641   */\n              mstore\n                /* \"#utility.yul\":3539:3647   */\n              pop\n              pop\n              jump\t// out\n                /* \"#utility.yul\":3653:3743   */\n            tag_245:\n                /* \"#utility.yul\":3687:3694   */\n              0x00\n                /* \"#utility.yul\":3730:3735   */\n              dup2\n                /* \"#utility.yul\":3723:3736   */\n              iszero\n                /* \"#utility.yul\":3716:3737   */\n              iszero\n                /* \"#utility.yul\":3705:3737   */\n              swap1\n              pop\n                /* \"#utility.yul\":3653:3743   */\n              swap2\n              swap1\n              pop\n              jump\t// out\n                /* \"#utility.yul\":3749:3848   */\n            tag_246:\n                /* \"#utility.yul\":3820:3841   */\n              tag_357\n                /* \"#utility.yul\":3835:3840   */\n              dup2\n                /* \"#utility.yul\":3820:3841   */\n              tag_245\n              jump\t// in\n            tag_357:\n                /* \"#utility.yul\":3815:3818   */\n              dup3\n                /* \"#utility.yul\":3808:3842   */\n              mstore\n                /* \"#utility.yul\":3749:3848   */\n              pop\n              pop\n              jump\t// out\n                /* \"#utility.yul\":3912:5219   */\n            tag_247:\n                /* \"#utility.yul\":4017:4020   */\n              0x00\n                /* \"#utility.yul\":4053:4057   */\n              0xc0\n                /* \"#utility.yul\":4048:4051   */\n              dup4\n                /* \"#utility.yul\":4044:4058   */\n              add\n                /* \"#utility.yul\":4147:4151   */\n              0x00\n                /* \"#utility.yul\":4140:4145   */\n              dup4\n                /* \"#utility.yul\":4136:4152   */\n              add\n                /* \"#utility.yul\":4130:4153   */\n              mload\n                /* \"#utility.yul\":4200:4203   */\n              dup5\n                /* \"#utility.yul\":4194:4198   */\n              dup3\n                /* \"#utility.yul\":4190:4204   */\n              sub\n                /* \"#utility.yul\":4183:4187   */\n              0x00\n                /* \"#utility.yul\":4178:4181   */\n              dup7\n                /* \"#utility.yul\":4174:4188   */\n              add\n                /* \"#utility.yul\":4167:4205   */\n              mstore\n                /* \"#utility.yul\":4226:4299   */\n              tag_359\n                /* \"#utility.yul\":4294:4298   */\n              dup3\n                /* \"#utility.yul\":4280:4292   */\n              dup3\n                /* \"#utility.yul\":4226:4299   */\n              tag_242\n              jump\t// in\n            tag_359:\n                /* \"#utility.yul\":4218:4299   */\n              swap2\n              pop\n                /* \"#utility.yul\":4068:4310   */\n              pop\n                /* \"#utility.yul\":4393:4397   */\n              0x20\n                /* \"#utility.yul\":4386:4391   */\n              dup4\n                /* \"#utility.yul\":4382:4398   */\n              add\n                /* \"#utility.yul\":4376:4399   */\n              mload\n                /* \"#utility.yul\":4412:4475   */\n              tag_360\n                /* \"#utility.yul\":4469:4473   */\n              0x20\n                /* \"#utility.yul\":4464:4467   */\n              dup7\n                /* \"#utility.yul\":4460:4474   */\n              add\n                /* \"#utility.yul\":4446:4458   */\n              dup3\n                /* \"#utility.yul\":4412:4475   */\n              tag_243\n              jump\t// in\n            tag_360:\n                /* \"#utility.yul\":4320:4485   */\n              pop\n                /* \"#utility.yul\":4572:4576   */\n              0x40\n                /* \"#utility.yul\":4565:4570   */\n              dup4\n                /* \"#utility.yul\":4561:4577   */\n              add\n                /* \"#utility.yul\":4555:4578   */\n              mload\n                /* \"#utility.yul\":4591:4654   */\n              tag_361\n                /* \"#utility.yul\":4648:4652   */\n              0x40\n                /* \"#utility.yul\":4643:4646   */\n              dup7\n                /* \"#utility.yul\":4639:4653   */\n              add\n                /* \"#utility.yul\":4625:4637   */\n              dup3\n                /* \"#utility.yul\":4591:4654   */\n              tag_244\n              jump\t// in\n            tag_361:\n                /* \"#utility.yul\":4495:4664   */\n              pop\n                /* \"#utility.yul\":4753:4757   */\n              0x60\n                /* \"#utility.yul\":4746:4751   */\n              dup4\n                /* \"#utility.yul\":4742:4758   */\n              add\n                /* \"#utility.yul\":4736:4759   */\n              mload\n                /* \"#utility.yul\":4772:4829   */\n              tag_362\n                /* \"#utility.yul\":4823:4827   */\n              0x60\n                /* \"#utility.yul\":4818:4821   */\n              dup7\n                /* \"#utility.yul\":4814:4828   */\n              add\n                /* \"#utility.yul\":4800:4812   */\n              dup3\n                /* \"#utility.yul\":4772:4829   */\n              tag_246\n              jump\t// in\n            tag_362:\n                /* \"#utility.yul\":4674:4839   */\n              pop\n                /* \"#utility.yul\":4927:4931   */\n              0x80\n                /* \"#utility.yul\":4920:4925   */\n              dup4\n                /* \"#utility.yul\":4916:4932   */\n              add\n                /* \"#utility.yul\":4910:4933   */\n              mload\n                /* \"#utility.yul\":4946:5003   */\n              tag_363\n                /* \"#utility.yul\":4997:5001   */\n              0x80\n                /* \"#utility.yul\":4992:4995   */\n              dup7\n                /* \"#utility.yul\":4988:5002   */\n              add\n                /* \"#utility.yul\":4974:4986   */\n              dup3\n                /* \"#utility.yul\":4946:5003   */\n              tag_246\n              jump\t// in\n            tag_363:\n                /* \"#utility.yul\":4849:5013   */\n              pop\n                /* \"#utility.yul\":5100:5104   */\n              0xa0\n                /* \"#utility.yul\":5093:5098   */\n              dup4\n                /* \"#utility.yul\":5089:5105   */\n              add\n                /* \"#utility.yul\":5083:5106   */\n              mload\n                /* \"#utility.yul\":5119:5182   */\n              tag_364\n                /* \"#utility.yul\":5176:5180   */\n              0xa0\n                /* \"#utility.yul\":5171:5174   */\n              dup7\n                /* \"#utility.yul\":5167:5181   */\n              add\n                /* \"#utility.yul\":5153:5165   */\n              dup3\n                /* \"#utility.yul\":5119:5182   */\n              tag_243\n              jump\t// in\n            tag_364:\n                /* \"#utility.yul\":5023:5192   */\n              pop\n                /* \"#utility.yul\":5209:5213   */\n              dup1\n                /* \"#utility.yul\":5202:5213   */\n              swap2\n              pop\n                /* \"#utility.yul\":4022:5219   */\n              pop\n                /* \"#utility.yul\":3912:5219   */\n              swap3\n              swap2\n              pop\n              pop\n              jump\t// out\n                /* \"#utility.yul\":5225:5473   */\n            tag_248:\n                /* \"#utility.yul\":5340:5350   */\n              0x00\n                /* \"#utility.yul\":5375:5467   */\n              tag_366\n                /* \"#utility.yul\":5463:5466   */\n              dup4\n                /* \"#utility.yul\":5455:5461   */\n              dup4\n                /* \"#utility.yul\":5375:5467   */\n              tag_247\n              jump\t// in\n            tag_366:\n                /* \"#utility.yul\":5361:5467   */\n              swap1\n              pop\n                /* \"#utility.yul\":5225:5473   */\n              swap3\n              swap2\n              pop\n              pop\n              jump\t// out\n                /* \"#utility.yul\":5479:5615   */\n            tag_249:\n                /* \"#utility.yul\":5572:5576   */\n              0x00\n                /* \"#utility.yul\":5604:5608   */\n              0x20\n                /* \"#utility.yul\":5599:5602   */\n              dup3\n                /* \"#utility.yul\":5595:5609   */\n              add\n                /* \"#utility.yul\":5587:5609   */\n              swap1\n              pop\n                /* \"#utility.yul\":5479:5615   */\n              swap2\n              swap1\n              pop\n              jump\t// out\n                /* \"#utility.yul\":5683:6778   */\n            tag_250:\n                /* \"#utility.yul\":5848:5851   */\n              0x00\n                /* \"#utility.yul\":5877:5954   */\n              tag_369\n                /* \"#utility.yul\":5948:5953   */\n              dup3\n                /* \"#utility.yul\":5877:5954   */\n              tag_235\n              jump\t// in\n            tag_369:\n                /* \"#utility.yul\":5970:6079   */\n              tag_370\n                /* \"#utility.yul\":6072:6078   */\n              dup2\n                /* \"#utility.yul\":6067:6070   */\n              dup6\n                /* \"#utility.yul\":5970:6079   */\n              tag_236\n              jump\t// in\n            tag_370:\n                /* \"#utility.yul\":5963:6079   */\n              swap4\n              pop\n                /* \"#utility.yul\":6105:6108   */\n              dup4\n                /* \"#utility.yul\":6150:6154   */\n              0x20\n                /* \"#utility.yul\":6142:6148   */\n              dup3\n                /* \"#utility.yul\":6138:6155   */\n              mul\n                /* \"#utility.yul\":6133:6136   */\n              dup6\n                /* \"#utility.yul\":6129:6156   */\n              add\n                /* \"#utility.yul\":6180:6259   */\n              tag_371\n                /* \"#utility.yul\":6253:6258   */\n              dup6\n                /* \"#utility.yul\":6180:6259   */\n              tag_237\n              jump\t// in\n            tag_371:\n                /* \"#utility.yul\":6282:6289   */\n              dup1\n                /* \"#utility.yul\":6313:6314   */\n              0x00\n                /* \"#utility.yul\":6298:6733   */\n            tag_372:\n                /* \"#utility.yul\":6323:6329   */\n              dup6\n                /* \"#utility.yul\":6320:6321   */\n              dup2\n                /* \"#utility.yul\":6317:6330   */\n              lt\n                /* \"#utility.yul\":6298:6733   */\n              iszero\n              tag_374\n              jumpi\n                /* \"#utility.yul\":6394:6403   */\n              dup5\n                /* \"#utility.yul\":6388:6392   */\n              dup5\n                /* \"#utility.yul\":6384:6404   */\n              sub\n                /* \"#utility.yul\":6379:6382   */\n              dup10\n                /* \"#utility.yul\":6372:6405   */\n              mstore\n                /* \"#utility.yul\":6445:6451   */\n              dup2\n                /* \"#utility.yul\":6439:6452   */\n              mload\n                /* \"#utility.yul\":6473:6583   */\n              tag_375\n                /* \"#utility.yul\":6578:6582   */\n              dup6\n                /* \"#utility.yul\":6563:6576   */\n              dup3\n                /* \"#utility.yul\":6473:6583   */\n              tag_248\n              jump\t// in\n            tag_375:\n                /* \"#utility.yul\":6465:6583   */\n              swap5\n              pop\n                /* \"#utility.yul\":6606:6689   */\n              tag_376\n                /* \"#utility.yul\":6682:6688   */\n              dup4\n                /* \"#utility.yul\":6606:6689   */\n              tag_249\n              jump\t// in\n            tag_376:\n                /* \"#utility.yul\":6596:6689   */\n              swap3\n              pop\n                /* \"#utility.yul\":6718:6722   */\n              0x20\n                /* \"#utility.yul\":6713:6716   */\n              dup11\n                /* \"#utility.yul\":6709:6723   */\n              add\n                /* \"#utility.yul\":6702:6723   */\n              swap10\n              pop\n                /* \"#utility.yul\":6358:6733   */\n              pop\n                /* \"#utility.yul\":6345:6346   */\n              0x01\n                /* \"#utility.yul\":6342:6343   */\n              dup2\n                /* \"#utility.yul\":6338:6347   */\n              add\n                /* \"#utility.yul\":6333:6347   */\n              swap1\n              pop\n                /* \"#utility.yul\":6298:6733   */\n              jump(tag_372)\n            tag_374:\n                /* \"#utility.yul\":6302:6316   */\n              pop\n                /* \"#utility.yul\":6749:6753   */\n              dup3\n                /* \"#utility.yul\":6742:6753   */\n              swap8\n              pop\n                /* \"#utility.yul\":6769:6772   */\n              dup8\n                /* \"#utility.yul\":6762:6772   */\n              swap6\n              pop\n                /* \"#utility.yul\":5853:6778   */\n              pop\n              pop\n              pop\n              pop\n              pop\n                /* \"#utility.yul\":5683:6778   */\n              swap3\n              swap2\n              pop\n              pop\n              jump\t// out\n                /* \"#utility.yul\":6784:7249   */\n            tag_28:\n                /* \"#utility.yul\":6973:6977   */\n              0x00\n                /* \"#utility.yul\":7011:7013   */\n              0x20\n                /* \"#utility.yul\":7000:7009   */\n              dup3\n                /* \"#utility.yul\":6996:7014   */\n              add\n                /* \"#utility.yul\":6988:7014   */\n              swap1\n              pop\n                /* \"#utility.yul\":7060:7069   */\n              dup2\n                /* \"#utility.yul\":7054:7058   */\n              dup2\n                /* \"#utility.yul\":7050:7070   */\n              sub\n                /* \"#utility.yul\":7046:7047   */\n              0x00\n                /* \"#utility.yul\":7035:7044   */\n              dup4\n                /* \"#utility.yul\":7031:7048   */\n              add\n                /* \"#utility.yul\":7024:7071   */\n              mstore\n                /* \"#utility.yul\":7088:7242   */\n              tag_378\n                /* \"#utility.yul\":7237:7241   */\n              dup2\n                /* \"#utility.yul\":7228:7234   */\n              dup5\n                /* \"#utility.yul\":7088:7242   */\n              tag_250\n              jump\t// in\n            tag_378:\n                /* \"#utility.yul\":7080:7242   */\n              swap1\n              pop\n                /* \"#utility.yul\":6784:7249   */\n              swap3\n              swap2\n              pop\n              pop\n              jump\t// out\n                /* \"#utility.yul\":7255:7377   */\n            tag_251:\n                /* \"#utility.yul\":7330:7336   */\n              0x00\n                /* \"#utility.yul\":7364:7369   */\n              dup2\n                /* \"#utility.yul\":7358:7370   */\n              mload\n                /* \"#utility.yul\":7348:7370   */\n              swap1\n              pop\n                /* \"#utility.yul\":7255:7377   */\n              swap2\n              swap1\n              pop\n              jump\t// out\n                /* \"#utility.yul\":7383:7575   */\n            tag_252:\n                /* \"#utility.yul\":7490:7501   */\n              0x00\n                /* \"#utility.yul\":7524:7530   */\n              dup3\n                /* \"#utility.yul\":7519:7522   */\n              dup3\n                /* \"#utility.yul\":7512:7531   */\n              mstore\n                /* \"#utility.yul\":7564:7568   */\n              0x20\n                /* \"#utility.yul\":7559:7562   */\n              dup3\n                /* \"#utility.yul\":7555:7569   */\n              add\n                /* \"#utility.yul\":7540:7569   */\n              swap1\n              pop\n                /* \"#utility.yul\":7383:7575   */\n              swap3\n              swap2\n              pop\n              pop\n              jump\t// out\n                /* \"#utility.yul\":7581:7721   */\n            tag_253:\n                /* \"#utility.yul\":7656:7660   */\n              0x00\n                /* \"#utility.yul\":7679:7682   */\n              dup2\n                /* \"#utility.yul\":7671:7682   */\n              swap1\n              pop\n                /* \"#utility.yul\":7709:7713   */\n              0x20\n                /* \"#utility.yul\":7704:7707   */\n              dup3\n                /* \"#utility.yul\":7700:7714   */\n              add\n                /* \"#utility.yul\":7692:7714   */\n              swap1\n              pop\n                /* \"#utility.yul\":7581:7721   */\n              swap2\n              swap1\n              pop\n              jump\t// out\n                /* \"#utility.yul\":7727:7831   */\n            tag_254:\n                /* \"#utility.yul\":7772:7779   */\n              0x00\n                /* \"#utility.yul\":7801:7825   */\n              tag_383\n                /* \"#utility.yul\":7819:7824   */\n              dup3\n                /* \"#utility.yul\":7801:7825   */\n              tag_231\n              jump\t// in\n            tag_383:\n                /* \"#utility.yul\":7790:7825   */\n              swap1\n              pop\n                /* \"#utility.yul\":7727:7831   */\n              swap2\n              swap1\n              pop\n              jump\t// out\n                /* \"#utility.yul\":7837:7969   */\n            tag_255:\n                /* \"#utility.yul\":7930:7962   */\n              tag_385\n                /* \"#utility.yul\":7956:7961   */\n              dup2\n                /* \"#utility.yul\":7930:7962   */\n              tag_254\n              jump\t// in\n            tag_385:\n                /* \"#utility.yul\":7925:7928   */\n              dup3\n                /* \"#utility.yul\":7918:7963   */\n              mstore\n                /* \"#utility.yul\":7837:7969   */\n              pop\n              pop\n              jump\t// out\n                /* \"#utility.yul\":7975:8186   */\n            tag_256:\n                /* \"#utility.yul\":8060:8070   */\n              0x00\n                /* \"#utility.yul\":8081:8143   */\n              tag_387\n                /* \"#utility.yul\":8139:8142   */\n              dup4\n                /* \"#utility.yul\":8131:8137   */\n              dup4\n                /* \"#utility.yul\":8081:8143   */\n              tag_255\n              jump\t// in\n            tag_387:\n                /* \"#utility.yul\":8175:8179   */\n              0x20\n                /* \"#utility.yul\":8170:8173   */\n              dup4\n                /* \"#utility.yul\":8166:8180   */\n              add\n                /* \"#utility.yul\":8152:8180   */\n              swap1\n              pop\n                /* \"#utility.yul\":7975:8186   */\n              swap3\n              swap2\n              pop\n              pop\n              jump\t// out\n                /* \"#utility.yul\":8192:8313   */\n            tag_257:\n                /* \"#utility.yul\":8270:8274   */\n              0x00\n                /* \"#utility.yul\":8302:8306   */\n              0x20\n                /* \"#utility.yul\":8297:8300   */\n              dup3\n                /* \"#utility.yul\":8293:8307   */\n              add\n                /* \"#utility.yul\":8285:8307   */\n              swap1\n              pop\n                /* \"#utility.yul\":8192:8313   */\n              swap2\n              swap1\n              pop\n              jump\t// out\n                /* \"#utility.yul\":8365:9161   */\n            tag_258:\n                /* \"#utility.yul\":8500:8503   */\n              0x00\n                /* \"#utility.yul\":8529:8591   */\n              tag_390\n                /* \"#utility.yul\":8585:8590   */\n              dup3\n                /* \"#utility.yul\":8529:8591   */\n              tag_251\n              jump\t// in\n            tag_390:\n                /* \"#utility.yul\":8607:8701   */\n              tag_391\n                /* \"#utility.yul\":8694:8700   */\n              dup2\n                /* \"#utility.yul\":8689:8692   */\n              dup6\n                /* \"#utility.yul\":8607:8701   */\n              tag_252\n              jump\t// in\n            tag_391:\n                /* \"#utility.yul\":8600:8701   */\n              swap4\n              pop\n                /* \"#utility.yul\":8725:8789   */\n              tag_392\n                /* \"#utility.yul\":8783:8788   */\n              dup4\n                /* \"#utility.yul\":8725:8789   */\n              tag_253\n              jump\t// in\n            tag_392:\n                /* \"#utility.yul\":8812:8819   */\n              dup1\n                /* \"#utility.yul\":8843:8844   */\n              0x00\n                /* \"#utility.yul\":8828:9136   */\n            tag_393:\n                /* \"#utility.yul\":8853:8859   */\n              dup4\n                /* \"#utility.yul\":8850:8851   */\n              dup2\n                /* \"#utility.yul\":8847:8860   */\n              lt\n                /* \"#utility.yul\":8828:9136   */\n              iszero\n              tag_395\n              jumpi\n                /* \"#utility.yul\":8929:8935   */\n              dup2\n                /* \"#utility.yul\":8923:8936   */\n              mload\n                /* \"#utility.yul\":8956:9035   */\n              tag_396\n                /* \"#utility.yul\":9031:9034   */\n              dup9\n                /* \"#utility.yul\":9016:9029   */\n              dup3\n                /* \"#utility.yul\":8956:9035   */\n              tag_256\n              jump\t// in\n            tag_396:\n                /* \"#utility.yul\":8949:9035   */\n              swap8\n              pop\n                /* \"#utility.yul\":9058:9126   */\n              tag_397\n                /* \"#utility.yul\":9119:9125   */\n              dup4\n                /* \"#utility.yul\":9058:9126   */\n              tag_257\n              jump\t// in\n            tag_397:\n                /* \"#utility.yul\":9048:9126   */\n              swap3\n              pop\n                /* \"#utility.yul\":8888:9136   */\n              pop\n                /* \"#utility.yul\":8875:8876   */\n              0x01\n                /* \"#utility.yul\":8872:8873   */\n              dup2\n                /* \"#utility.yul\":8868:8877   */\n              add\n                /* \"#utility.yul\":8863:8877   */\n              swap1\n              pop\n                /* \"#utility.yul\":8828:9136   */\n              jump(tag_393)\n            tag_395:\n                /* \"#utility.yul\":8832:8846   */\n              pop\n                /* \"#utility.yul\":9152:9155   */\n              dup6\n                /* \"#utility.yul\":9145:9155   */\n              swap4\n              pop\n                /* \"#utility.yul\":8505:9161   */\n              pop\n              pop\n              pop\n                /* \"#utility.yul\":8365:9161   */\n              swap3\n              swap2\n              pop\n              pop\n              jump\t// out\n                /* \"#utility.yul\":9167:9572   */\n            tag_33:\n                /* \"#utility.yul\":9326:9330   */\n              0x00\n                /* \"#utility.yul\":9364:9366   */\n              0x20\n                /* \"#utility.yul\":9353:9362   */\n              dup3\n                /* \"#utility.yul\":9349:9367   */\n              add\n                /* \"#utility.yul\":9341:9367   */\n              swap1\n              pop\n                /* \"#utility.yul\":9413:9422   */\n              dup2\n                /* \"#utility.yul\":9407:9411   */\n              dup2\n                /* \"#utility.yul\":9403:9423   */\n              sub\n                /* \"#utility.yul\":9399:9400   */\n              0x00\n                /* \"#utility.yul\":9388:9397   */\n              dup4\n                /* \"#utility.yul\":9384:9401   */\n              add\n                /* \"#utility.yul\":9377:9424   */\n              mstore\n                /* \"#utility.yul\":9441:9565   */\n              tag_399\n                /* \"#utility.yul\":9560:9564   */\n              dup2\n                /* \"#utility.yul\":9551:9557   */\n              dup5\n                /* \"#utility.yul\":9441:9565   */\n              tag_258\n              jump\t// in\n            tag_399:\n                /* \"#utility.yul\":9433:9565   */\n              swap1\n              pop\n                /* \"#utility.yul\":9167:9572   */\n              swap3\n              swap2\n              pop\n              pop\n              jump\t// out\n                /* \"#utility.yul\":9578:9696   */\n            tag_259:\n                /* \"#utility.yul\":9665:9689   */\n              tag_401\n                /* \"#utility.yul\":9683:9688   */\n              dup2\n                /* \"#utility.yul\":9665:9689   */\n              tag_232\n              jump\t// in\n            tag_401:\n                /* \"#utility.yul\":9660:9663   */\n              dup3\n                /* \"#utility.yul\":9653:9690   */\n              mstore\n                /* \"#utility.yul\":9578:9696   */\n              pop\n              pop\n              jump\t// out\n                /* \"#utility.yul\":9702:9924   */\n            tag_38:\n                /* \"#utility.yul\":9795:9799   */\n              0x00\n                /* \"#utility.yul\":9833:9835   */\n              0x20\n                /* \"#utility.yul\":9822:9831   */\n              dup3\n                /* \"#utility.yul\":9818:9836   */\n              add\n                /* \"#utility.yul\":9810:9836   */\n              swap1\n              pop\n                /* \"#utility.yul\":9846:9917   */\n              tag_403\n                /* \"#utility.yul\":9914:9915   */\n              0x00\n                /* \"#utility.yul\":9903:9912   */\n              dup4\n                /* \"#utility.yul\":9899:9916   */\n              add\n                /* \"#utility.yul\":9890:9896   */\n              dup5\n                /* \"#utility.yul\":9846:9917   */\n              tag_259\n              jump\t// in\n            tag_403:\n                /* \"#utility.yul\":9702:9924   */\n              swap3\n              swap2\n              pop\n              pop\n              jump\t// out\n                /* \"#utility.yul\":9930:10099   */\n            tag_260:\n                /* \"#utility.yul\":10014:10025   */\n              0x00\n                /* \"#utility.yul\":10048:10054   */\n              dup3\n                /* \"#utility.yul\":10043:10046   */\n              dup3\n                /* \"#utility.yul\":10036:10055   */\n              mstore\n                /* \"#utility.yul\":10088:10092   */\n              0x20\n                /* \"#utility.yul\":10083:10086   */\n              dup3\n                /* \"#utility.yul\":10079:10093   */\n              add\n                /* \"#utility.yul\":10064:10093   */\n              swap1\n              pop\n                /* \"#utility.yul\":9930:10099   */\n              swap3\n              swap2\n              pop\n              pop\n              jump\t// out\n                /* \"#utility.yul\":10105:10469   */\n            tag_261:\n                /* \"#utility.yul\":10193:10196   */\n              0x00\n                /* \"#utility.yul\":10221:10260   */\n              tag_406\n                /* \"#utility.yul\":10254:10259   */\n              dup3\n                /* \"#utility.yul\":10221:10260   */\n              tag_238\n              jump\t// in\n            tag_406:\n                /* \"#utility.yul\":10276:10347   */\n              tag_407\n                /* \"#utility.yul\":10340:10346   */\n              dup2\n                /* \"#utility.yul\":10335:10338   */\n              dup6\n                /* \"#utility.yul\":10276:10347   */\n              tag_260\n              jump\t// in\n            tag_407:\n                /* \"#utility.yul\":10269:10347   */\n              swap4\n              pop\n                /* \"#utility.yul\":10356:10408   */\n              tag_408\n                /* \"#utility.yul\":10401:10407   */\n              dup2\n                /* \"#utility.yul\":10396:10399   */\n              dup6\n                /* \"#utility.yul\":10389:10393   */\n              0x20\n                /* \"#utility.yul\":10382:10387   */\n              dup7\n                /* \"#utility.yul\":10378:10394   */\n              add\n                /* \"#utility.yul\":10356:10408   */\n              tag_240\n              jump\t// in\n            tag_408:\n                /* \"#utility.yul\":10433:10462   */\n              tag_409\n                /* \"#utility.yul\":10455:10461   */\n              dup2\n                /* \"#utility.yul\":10433:10462   */\n              tag_241\n              jump\t// in\n            tag_409:\n                /* \"#utility.yul\":10428:10431   */\n              dup5\n                /* \"#utility.yul\":10424:10463   */\n              add\n                /* \"#utility.yul\":10417:10463   */\n              swap2\n              pop\n                /* \"#utility.yul\":10197:10469   */\n              pop\n                /* \"#utility.yul\":10105:10469   */\n              swap3\n              swap2\n              pop\n              pop\n              jump\t// out\n                /* \"#utility.yul\":10475:10593   */\n            tag_262:\n                /* \"#utility.yul\":10562:10586   */\n              tag_411\n                /* \"#utility.yul\":10580:10585   */\n              dup2\n                /* \"#utility.yul\":10562:10586   */\n              tag_228\n              jump\t// in\n            tag_411:\n                /* \"#utility.yul\":10557:10560   */\n              dup3\n                /* \"#utility.yul\":10550:10587   */\n              mstore\n                /* \"#utility.yul\":10475:10593   */\n              pop\n              pop\n              jump\t// out\n                /* \"#utility.yul\":10599:10708   */\n            tag_263:\n                /* \"#utility.yul\":10680:10701   */\n              tag_413\n                /* \"#utility.yul\":10695:10700   */\n              dup2\n                /* \"#utility.yul\":10680:10701   */\n              tag_245\n              jump\t// in\n            tag_413:\n                /* \"#utility.yul\":10675:10678   */\n              dup3\n                /* \"#utility.yul\":10668:10702   */\n              mstore\n                /* \"#utility.yul\":10599:10708   */\n              pop\n              pop\n              jump\t// out\n                /* \"#utility.yul\":10714:11556   */\n            tag_44:\n                /* \"#utility.yul\":10955:10959   */\n              0x00\n                /* \"#utility.yul\":10993:10996   */\n              0xc0\n                /* \"#utility.yul\":10982:10991   */\n              dup3\n                /* \"#utility.yul\":10978:10997   */\n              add\n                /* \"#utility.yul\":10970:10997   */\n              swap1\n              pop\n                /* \"#utility.yul\":11043:11052   */\n              dup2\n                /* \"#utility.yul\":11037:11041   */\n              dup2\n                /* \"#utility.yul\":11033:11053   */\n              sub\n                /* \"#utility.yul\":11029:11030   */\n              0x00\n                /* \"#utility.yul\":11018:11027   */\n              dup4\n                /* \"#utility.yul\":11014:11031   */\n              add\n                /* \"#utility.yul\":11007:11054   */\n              mstore\n                /* \"#utility.yul\":11071:11149   */\n              tag_415\n                /* \"#utility.yul\":11144:11148   */\n              dup2\n                /* \"#utility.yul\":11135:11141   */\n              dup10\n                /* \"#utility.yul\":11071:11149   */\n              tag_261\n              jump\t// in\n            tag_415:\n                /* \"#utility.yul\":11063:11149   */\n              swap1\n              pop\n                /* \"#utility.yul\":11159:11231   */\n              tag_416\n                /* \"#utility.yul\":11227:11229   */\n              0x20\n                /* \"#utility.yul\":11216:11225   */\n              dup4\n                /* \"#utility.yul\":11212:11230   */\n              add\n                /* \"#utility.yul\":11203:11209   */\n              dup9\n                /* \"#utility.yul\":11159:11231   */\n              tag_262\n              jump\t// in\n            tag_416:\n                /* \"#utility.yul\":11241:11313   */\n              tag_417\n                /* \"#utility.yul\":11309:11311   */\n              0x40\n                /* \"#utility.yul\":11298:11307   */\n              dup4\n                /* \"#utility.yul\":11294:11312   */\n              add\n                /* \"#utility.yul\":11285:11291   */\n              dup8\n                /* \"#utility.yul\":11241:11313   */\n              tag_259\n              jump\t// in\n            tag_417:\n                /* \"#utility.yul\":11323:11389   */\n              tag_418\n                /* \"#utility.yul\":11385:11387   */\n              0x60\n                /* \"#utility.yul\":11374:11383   */\n              dup4\n                /* \"#utility.yul\":11370:11388   */\n              add\n                /* \"#utility.yul\":11361:11367   */\n              dup7\n                /* \"#utility.yul\":11323:11389   */\n              tag_263\n              jump\t// in\n            tag_418:\n                /* \"#utility.yul\":11399:11466   */\n              tag_419\n                /* \"#utility.yul\":11461:11464   */\n              0x80\n                /* \"#utility.yul\":11450:11459   */\n              dup4\n                /* \"#utility.yul\":11446:11465   */\n              add\n                /* \"#utility.yul\":11437:11443   */\n              dup6\n                /* \"#utility.yul\":11399:11466   */\n              tag_263\n              jump\t// in\n            tag_419:\n                /* \"#utility.yul\":11476:11549   */\n              tag_420\n                /* \"#utility.yul\":11544:11547   */\n              0xa0\n                /* \"#utility.yul\":11533:11542   */\n              dup4\n                /* \"#utility.yul\":11529:11548   */\n              add\n                /* \"#utility.yul\":11520:11526   */\n              dup5\n                /* \"#utility.yul\":11476:11549   */\n              tag_262\n              jump\t// in\n            tag_420:\n                /* \"#utility.yul\":10714:11556   */\n              swap8\n              swap7\n              pop\n              pop\n              pop\n              pop\n              pop\n              pop\n              pop\n              jump\t// out\n                /* \"#utility.yul\":11562:11679   */\n            tag_264:\n                /* \"#utility.yul\":11671:11672   */\n              0x00\n                /* \"#utility.yul\":11668:11669   */\n              dup1\n                /* \"#utility.yul\":11661:11673   */\n              revert\n                /* \"#utility.yul\":11685:11802   */\n            tag_265:\n                /* \"#utility.yul\":11794:11795   */\n              0x00\n                /* \"#utility.yul\":11791:11792   */\n              dup1\n                /* \"#utility.yul\":11784:11796   */\n              revert\n                /* \"#utility.yul\":11808:11988   */\n            tag_266:\n                /* \"#utility.yul\":11856:11933   */\n              0x4e487b7100000000000000000000000000000000000000000000000000000000\n                /* \"#utility.yul\":11853:11854   */\n              0x00\n                /* \"#utility.yul\":11846:11934   */\n              mstore\n                /* \"#utility.yul\":11953:11957   */\n              0x41\n                /* \"#utility.yul\":11950:11951   */\n              0x04\n                /* \"#utility.yul\":11943:11958   */\n              mstore\n                /* \"#utility.yul\":11977:11981   */\n              0x24\n                /* \"#utility.yul\":11974:11975   */\n              0x00\n                /* \"#utility.yul\":11967:11982   */\n              revert\n                /* \"#utility.yul\":11994:12275   */\n            tag_267:\n                /* \"#utility.yul\":12077:12104   */\n              tag_425\n                /* \"#utility.yul\":12099:12103   */\n              dup3\n                /* \"#utility.yul\":12077:12104   */\n              tag_241\n              jump\t// in\n            tag_425:\n                /* \"#utility.yul\":12069:12075   */\n              dup2\n                /* \"#utility.yul\":12065:12105   */\n              add\n                /* \"#utility.yul\":12207:12213   */\n              dup2\n                /* \"#utility.yul\":12195:12205   */\n              dup2\n                /* \"#utility.yul\":12192:12214   */\n              lt\n                /* \"#utility.yul\":12171:12189   */\n              0xffffffffffffffff\n                /* \"#utility.yul\":12159:12169   */\n              dup3\n                /* \"#utility.yul\":12156:12190   */\n              gt\n                /* \"#utility.yul\":12153:12215   */\n              or\n                /* \"#utility.yul\":12150:12238   */\n              iszero\n              tag_426\n              jumpi\n                /* \"#utility.yul\":12218:12236   */\n              tag_427\n              tag_266\n              jump\t// in\n            tag_427:\n                /* \"#utility.yul\":12150:12238   */\n            tag_426:\n                /* \"#utility.yul\":12258:12268   */\n              dup1\n                /* \"#utility.yul\":12254:12256   */\n              0x40\n                /* \"#utility.yul\":12247:12269   */\n              mstore\n                /* \"#utility.yul\":12037:12275   */\n              pop\n                /* \"#utility.yul\":11994:12275   */\n              pop\n              pop\n              jump\t// out\n                /* \"#utility.yul\":12281:12410   */\n            tag_268:\n                /* \"#utility.yul\":12315:12321   */\n              0x00\n                /* \"#utility.yul\":12342:12362   */\n              tag_429\n              tag_225\n              jump\t// in\n            tag_429:\n                /* \"#utility.yul\":12332:12362   */\n              swap1\n              pop\n                /* \"#utility.yul\":12371:12404   */\n              tag_430\n                /* \"#utility.yul\":12399:12403   */\n              dup3\n                /* \"#utility.yul\":12391:12397   */\n              dup3\n                /* \"#utility.yul\":12371:12404   */\n              tag_267\n              jump\t// in\n            tag_430:\n                /* \"#utility.yul\":12281:12410   */\n              swap2\n              swap1\n              pop\n              jump\t// out\n                /* \"#utility.yul\":12416:12724   */\n            tag_269:\n                /* \"#utility.yul\":12478:12482   */\n              0x00\n                /* \"#utility.yul\":12568:12586   */\n              0xffffffffffffffff\n                /* \"#utility.yul\":12560:12566   */\n              dup3\n                /* \"#utility.yul\":12557:12587   */\n              gt\n                /* \"#utility.yul\":12554:12610   */\n              iszero\n              tag_432\n              jumpi\n                /* \"#utility.yul\":12590:12608   */\n              tag_433\n              tag_266\n              jump\t// in\n            tag_433:\n                /* \"#utility.yul\":12554:12610   */\n            tag_432:\n                /* \"#utility.yul\":12628:12657   */\n              tag_434\n                /* \"#utility.yul\":12650:12656   */\n              dup3\n                /* \"#utility.yul\":12628:12657   */\n              tag_241\n              jump\t// in\n            tag_434:\n                /* \"#utility.yul\":12620:12657   */\n              swap1\n              pop\n                /* \"#utility.yul\":12712:12716   */\n              0x20\n                /* \"#utility.yul\":12706:12710   */\n              dup2\n                /* \"#utility.yul\":12702:12717   */\n              add\n                /* \"#utility.yul\":12694:12717   */\n              swap1\n              pop\n                /* \"#utility.yul\":12416:12724   */\n              swap2\n              swap1\n              pop\n              jump\t// out\n                /* \"#utility.yul\":12730:12884   */\n            tag_270:\n                /* \"#utility.yul\":12814:12820   */\n              dup3\n                /* \"#utility.yul\":12809:12812   */\n              dup2\n                /* \"#utility.yul\":12804:12807   */\n              dup4\n                /* \"#utility.yul\":12791:12821   */\n              calldatacopy\n                /* \"#utility.yul\":12876:12877   */\n              0x00\n                /* \"#utility.yul\":12867:12873   */\n              dup4\n                /* \"#utility.yul\":12862:12865   */\n              dup4\n                /* \"#utility.yul\":12858:12874   */\n              add\n                /* \"#utility.yul\":12851:12878   */\n              mstore\n                /* \"#utility.yul\":12730:12884   */\n              pop\n              pop\n              pop\n              jump\t// out\n                /* \"#utility.yul\":12890:13302   */\n            tag_271:\n                /* \"#utility.yul\":12968:12973   */\n              0x00\n                /* \"#utility.yul\":12993:13059   */\n              tag_437\n                /* \"#utility.yul\":13009:13058   */\n              tag_438\n                /* \"#utility.yul\":13051:13057   */\n              dup5\n                /* \"#utility.yul\":13009:13058   */\n              tag_269\n              jump\t// in\n            tag_438:\n                /* \"#utility.yul\":12993:13059   */\n              tag_268\n              jump\t// in\n            tag_437:\n                /* \"#utility.yul\":12984:13059   */\n              swap1\n              pop\n                /* \"#utility.yul\":13082:13088   */\n              dup3\n                /* \"#utility.yul\":13075:13080   */\n              dup2\n                /* \"#utility.yul\":13068:13089   */\n              mstore\n                /* \"#utility.yul\":13120:13124   */\n              0x20\n                /* \"#utility.yul\":13113:13118   */\n              dup2\n                /* \"#utility.yul\":13109:13125   */\n              add\n                /* \"#utility.yul\":13158:13161   */\n              dup5\n                /* \"#utility.yul\":13149:13155   */\n              dup5\n                /* \"#utility.yul\":13144:13147   */\n              dup5\n                /* \"#utility.yul\":13140:13156   */\n              add\n                /* \"#utility.yul\":13137:13162   */\n              gt\n                /* \"#utility.yul\":13134:13246   */\n              iszero\n              tag_439\n              jumpi\n                /* \"#utility.yul\":13165:13244   */\n              tag_440\n              tag_265\n              jump\t// in\n            tag_440:\n                /* \"#utility.yul\":13134:13246   */\n            tag_439:\n                /* \"#utility.yul\":13255:13296   */\n              tag_441\n                /* \"#utility.yul\":13289:13295   */\n              dup5\n                /* \"#utility.yul\":13284:13287   */\n              dup3\n                /* \"#utility.yul\":13279:13282   */\n              dup6\n                /* \"#utility.yul\":13255:13296   */\n              tag_270\n              jump\t// in\n            tag_441:\n                /* \"#utility.yul\":12974:13302   */\n              pop\n                /* \"#utility.yul\":12890:13302   */\n              swap4\n              swap3\n              pop\n              pop\n              pop\n              jump\t// out\n                /* \"#utility.yul\":13322:13662   */\n            tag_272:\n                /* \"#utility.yul\":13378:13383   */\n              0x00\n                /* \"#utility.yul\":13427:13430   */\n              dup3\n                /* \"#utility.yul\":13420:13424   */\n              0x1f\n                /* \"#utility.yul\":13412:13418   */\n              dup4\n                /* \"#utility.yul\":13408:13425   */\n              add\n                /* \"#utility.yul\":13404:13431   */\n              slt\n                /* \"#utility.yul\":13394:13516   */\n              tag_443\n              jumpi\n                /* \"#utility.yul\":13435:13514   */\n              tag_444\n              tag_264\n              jump\t// in\n            tag_444:\n                /* \"#utility.yul\":13394:13516   */\n            tag_443:\n                /* \"#utility.yul\":13552:13558   */\n              dup2\n                /* \"#utility.yul\":13539:13559   */\n              calldataload\n                /* \"#utility.yul\":13577:13656   */\n              tag_445\n                /* \"#utility.yul\":13652:13655   */\n              dup5\n                /* \"#utility.yul\":13644:13650   */\n              dup3\n                /* \"#utility.yul\":13637:13641   */\n              0x20\n                /* \"#utility.yul\":13629:13635   */\n              dup7\n                /* \"#utility.yul\":13625:13642   */\n              add\n                /* \"#utility.yul\":13577:13656   */\n              tag_271\n              jump\t// in\n            tag_445:\n                /* \"#utility.yul\":13568:13656   */\n              swap2\n              pop\n                /* \"#utility.yul\":13384:13662   */\n              pop\n                /* \"#utility.yul\":13322:13662   */\n              swap3\n              swap2\n              pop\n              pop\n              jump\t// out\n                /* \"#utility.yul\":13668:14467   */\n            tag_52:\n                /* \"#utility.yul\":13755:13761   */\n              0x00\n                /* \"#utility.yul\":13763:13769   */\n              dup1\n                /* \"#utility.yul\":13771:13777   */\n              0x00\n                /* \"#utility.yul\":13820:13822   */\n              0x60\n                /* \"#utility.yul\":13808:13817   */\n              dup5\n                /* \"#utility.yul\":13799:13806   */\n              dup7\n                /* \"#utility.yul\":13795:13818   */\n              sub\n                /* \"#utility.yul\":13791:13823   */\n              slt\n                /* \"#utility.yul\":13788:13907   */\n              iszero\n              tag_447\n              jumpi\n                /* \"#utility.yul\":13826:13905   */\n              tag_448\n              tag_226\n              jump\t// in\n            tag_448:\n                /* \"#utility.yul\":13788:13907   */\n            tag_447:\n                /* \"#utility.yul\":13974:13975   */\n              0x00\n                /* \"#utility.yul\":13963:13972   */\n              dup5\n                /* \"#utility.yul\":13959:13976   */\n              add\n                /* \"#utility.yul\":13946:13977   */\n              calldataload\n                /* \"#utility.yul\":14004:14022   */\n              0xffffffffffffffff\n                /* \"#utility.yul\":13996:14002   */\n              dup2\n                /* \"#utility.yul\":13993:14023   */\n              gt\n                /* \"#utility.yul\":13990:14107   */\n              iszero\n              tag_449\n              jumpi\n                /* \"#utility.yul\":14026:14105   */\n              tag_450\n              tag_227\n              jump\t// in\n            tag_450:\n                /* \"#utility.yul\":13990:14107   */\n            tag_449:\n                /* \"#utility.yul\":14131:14194   */\n              tag_451\n                /* \"#utility.yul\":14186:14193   */\n              dup7\n                /* \"#utility.yul\":14177:14183   */\n              dup3\n                /* \"#utility.yul\":14166:14175   */\n              dup8\n                /* \"#utility.yul\":14162:14184   */\n              add\n                /* \"#utility.yul\":14131:14194   */\n              tag_272\n              jump\t// in\n            tag_451:\n                /* \"#utility.yul\":14121:14194   */\n              swap4\n              pop\n                /* \"#utility.yul\":13917:14204   */\n              pop\n                /* \"#utility.yul\":14243:14245   */\n              0x20\n                /* \"#utility.yul\":14269:14322   */\n              tag_452\n                /* \"#utility.yul\":14314:14321   */\n              dup7\n                /* \"#utility.yul\":14305:14311   */\n              dup3\n                /* \"#utility.yul\":14294:14303   */\n              dup8\n                /* \"#utility.yul\":14290:14312   */\n              add\n                /* \"#utility.yul\":14269:14322   */\n              tag_230\n              jump\t// in\n            tag_452:\n                /* \"#utility.yul\":14259:14322   */\n              swap3\n              pop\n                /* \"#utility.yul\":14214:14332   */\n              pop\n                /* \"#utility.yul\":14371:14373   */\n              0x40\n                /* \"#utility.yul\":14397:14450   */\n              tag_453\n                /* \"#utility.yul\":14442:14449   */\n              dup7\n                /* \"#utility.yul\":14433:14439   */\n              dup3\n                /* \"#utility.yul\":14422:14431   */\n              dup8\n                /* \"#utility.yul\":14418:14440   */\n              add\n                /* \"#utility.yul\":14397:14450   */\n              tag_234\n              jump\t// in\n            tag_453:\n                /* \"#utility.yul\":14387:14450   */\n              swap2\n              pop\n                /* \"#utility.yul\":14342:14460   */\n              pop\n                /* \"#utility.yul\":13668:14467   */\n              swap3\n              pop\n              swap3\n              pop\n              swap3\n              jump\t// out\n                /* \"#utility.yul\":14531:15848   */\n            tag_273:\n                /* \"#utility.yul\":14646:14649   */\n              0x00\n                /* \"#utility.yul\":14682:14686   */\n              0xc0\n                /* \"#utility.yul\":14677:14680   */\n              dup4\n                /* \"#utility.yul\":14673:14687   */\n              add\n                /* \"#utility.yul\":14776:14780   */\n              0x00\n                /* \"#utility.yul\":14769:14774   */\n              dup4\n                /* \"#utility.yul\":14765:14781   */\n              add\n                /* \"#utility.yul\":14759:14782   */\n              mload\n                /* \"#utility.yul\":14829:14832   */\n              dup5\n                /* \"#utility.yul\":14823:14827   */\n              dup3\n                /* \"#utility.yul\":14819:14833   */\n              sub\n                /* \"#utility.yul\":14812:14816   */\n              0x00\n                /* \"#utility.yul\":14807:14810   */\n              dup7\n                /* \"#utility.yul\":14803:14817   */\n              add\n                /* \"#utility.yul\":14796:14834   */\n              mstore\n                /* \"#utility.yul\":14855:14928   */\n              tag_455\n                /* \"#utility.yul\":14923:14927   */\n              dup3\n                /* \"#utility.yul\":14909:14921   */\n              dup3\n                /* \"#utility.yul\":14855:14928   */\n              tag_242\n              jump\t// in\n            tag_455:\n                /* \"#utility.yul\":14847:14928   */\n              swap2\n              pop\n                /* \"#utility.yul\":14697:14939   */\n              pop\n                /* \"#utility.yul\":15022:15026   */\n              0x20\n                /* \"#utility.yul\":15015:15020   */\n              dup4\n                /* \"#utility.yul\":15011:15027   */\n              add\n                /* \"#utility.yul\":15005:15028   */\n              mload\n                /* \"#utility.yul\":15041:15104   */\n              tag_456\n                /* \"#utility.yul\":15098:15102   */\n              0x20\n                /* \"#utility.yul\":15093:15096   */\n              dup7\n                /* \"#utility.yul\":15089:15103   */\n              add\n                /* \"#utility.yul\":15075:15087   */\n              dup3\n                /* \"#utility.yul\":15041:15104   */\n              tag_243\n              jump\t// in\n            tag_456:\n                /* \"#utility.yul\":14949:15114   */\n              pop\n                /* \"#utility.yul\":15201:15205   */\n              0x40\n                /* \"#utility.yul\":15194:15199   */\n              dup4\n                /* \"#utility.yul\":15190:15206   */\n              add\n                /* \"#utility.yul\":15184:15207   */\n              mload\n                /* \"#utility.yul\":15220:15283   */\n              tag_457\n                /* \"#utility.yul\":15277:15281   */\n              0x40\n                /* \"#utility.yul\":15272:15275   */\n              dup7\n                /* \"#utility.yul\":15268:15282   */\n              add\n                /* \"#utility.yul\":15254:15266   */\n              dup3\n                /* \"#utility.yul\":15220:15283   */\n              tag_244\n              jump\t// in\n            tag_457:\n                /* \"#utility.yul\":15124:15293   */\n              pop\n                /* \"#utility.yul\":15382:15386   */\n              0x60\n                /* \"#utility.yul\":15375:15380   */\n              dup4\n                /* \"#utility.yul\":15371:15387   */\n              add\n                /* \"#utility.yul\":15365:15388   */\n              mload\n                /* \"#utility.yul\":15401:15458   */\n              tag_458\n                /* \"#utility.yul\":15452:15456   */\n              0x60\n                /* \"#utility.yul\":15447:15450   */\n              dup7\n                /* \"#utility.yul\":15443:15457   */\n              add\n                /* \"#utility.yul\":15429:15441   */\n              dup3\n                /* \"#utility.yul\":15401:15458   */\n              tag_246\n              jump\t// in\n            tag_458:\n                /* \"#utility.yul\":15303:15468   */\n              pop\n                /* \"#utility.yul\":15556:15560   */\n              0x80\n                /* \"#utility.yul\":15549:15554   */\n              dup4\n                /* \"#utility.yul\":15545:15561   */\n              add\n                /* \"#utility.yul\":15539:15562   */\n              mload\n                /* \"#utility.yul\":15575:15632   */\n              tag_459\n                /* \"#utility.yul\":15626:15630   */\n              0x80\n                /* \"#utility.yul\":15621:15624   */\n              dup7\n                /* \"#utility.yul\":15617:15631   */\n              add\n                /* \"#utility.yul\":15603:15615   */\n              dup3\n                /* \"#utility.yul\":15575:15632   */\n              tag_246\n              jump\t// in\n            tag_459:\n                /* \"#utility.yul\":15478:15642   */\n              pop\n                /* \"#utility.yul\":15729:15733   */\n              0xa0\n                /* \"#utility.yul\":15722:15727   */\n              dup4\n                /* \"#utility.yul\":15718:15734   */\n              add\n                /* \"#utility.yul\":15712:15735   */\n              mload\n                /* \"#utility.yul\":15748:15811   */\n              tag_460\n                /* \"#utility.yul\":15805:15809   */\n              0xa0\n                /* \"#utility.yul\":15800:15803   */\n              dup7\n                /* \"#utility.yul\":15796:15810   */\n              add\n                /* \"#utility.yul\":15782:15794   */\n              dup3\n                /* \"#utility.yul\":15748:15811   */\n              tag_243\n              jump\t// in\n            tag_460:\n                /* \"#utility.yul\":15652:15821   */\n              pop\n                /* \"#utility.yul\":15838:15842   */\n              dup1\n                /* \"#utility.yul\":15831:15842   */\n              swap2\n              pop\n                /* \"#utility.yul\":14651:15848   */\n              pop\n                /* \"#utility.yul\":14531:15848   */\n              swap3\n              swap2\n              pop\n              pop\n              jump\t// out\n                /* \"#utility.yul\":15854:16219   */\n            tag_55:\n                /* \"#utility.yul\":15993:15997   */\n              0x00\n                /* \"#utility.yul\":16031:16033   */\n              0x20\n                /* \"#utility.yul\":16020:16029   */\n              dup3\n                /* \"#utility.yul\":16016:16034   */\n              add\n                /* \"#utility.yul\":16008:16034   */\n              swap1\n              pop\n                /* \"#utility.yul\":16080:16089   */\n              dup2\n                /* \"#utility.yul\":16074:16078   */\n              dup2\n                /* \"#utility.yul\":16070:16090   */\n              sub\n                /* \"#utility.yul\":16066:16067   */\n              0x00\n                /* \"#utility.yul\":16055:16064   */\n              dup4\n                /* \"#utility.yul\":16051:16068   */\n              add\n                /* \"#utility.yul\":16044:16091   */\n              mstore\n                /* \"#utility.yul\":16108:16212   */\n              tag_462\n                /* \"#utility.yul\":16207:16211   */\n              dup2\n                /* \"#utility.yul\":16198:16204   */\n              dup5\n                /* \"#utility.yul\":16108:16212   */\n              tag_273\n              jump\t// in\n            tag_462:\n                /* \"#utility.yul\":16100:16212   */\n              swap1\n              pop\n                /* \"#utility.yul\":15854:16219   */\n              swap3\n              swap2\n              pop\n              pop\n              jump\t// out\n                /* \"#utility.yul\":16225:16447   */\n            tag_62:\n                /* \"#utility.yul\":16318:16322   */\n              0x00\n                /* \"#utility.yul\":16356:16358   */\n              0x20\n                /* \"#utility.yul\":16345:16354   */\n              dup3\n                /* \"#utility.yul\":16341:16359   */\n              add\n                /* \"#utility.yul\":16333:16359   */\n              swap1\n              pop\n                /* \"#utility.yul\":16369:16440   */\n              tag_464\n                /* \"#utility.yul\":16437:16438   */\n              0x00\n                /* \"#utility.yul\":16426:16435   */\n              dup4\n                /* \"#utility.yul\":16422:16439   */\n              add\n                /* \"#utility.yul\":16413:16419   */\n              dup5\n                /* \"#utility.yul\":16369:16440   */\n              tag_262\n              jump\t// in\n            tag_464:\n                /* \"#utility.yul\":16225:16447   */\n              swap3\n              swap2\n              pop\n              pop\n              jump\t// out\n                /* \"#utility.yul\":16453:16595   */\n            tag_274:\n                /* \"#utility.yul\":16556:16588   */\n              tag_466\n                /* \"#utility.yul\":16582:16587   */\n              dup2\n                /* \"#utility.yul\":16556:16588   */\n              tag_254\n              jump\t// in\n            tag_466:\n                /* \"#utility.yul\":16551:16554   */\n              dup3\n                /* \"#utility.yul\":16544:16589   */\n              mstore\n                /* \"#utility.yul\":16453:16595   */\n              pop\n              pop\n              jump\t// out\n                /* \"#utility.yul\":16601:16855   */\n            tag_68:\n                /* \"#utility.yul\":16710:16714   */\n              0x00\n                /* \"#utility.yul\":16748:16750   */\n              0x20\n                /* \"#utility.yul\":16737:16746   */\n              dup3\n                /* \"#utility.yul\":16733:16751   */\n              add\n                /* \"#utility.yul\":16725:16751   */\n              swap1\n              pop\n                /* \"#utility.yul\":16761:16848   */\n              tag_468\n                /* \"#utility.yul\":16845:16846   */\n              0x00\n                /* \"#utility.yul\":16834:16843   */\n              dup4\n                /* \"#utility.yul\":16830:16847   */\n              add\n                /* \"#utility.yul\":16821:16827   */\n              dup5\n                /* \"#utility.yul\":16761:16848   */\n              tag_274\n              jump\t// in\n            tag_468:\n                /* \"#utility.yul\":16601:16855   */\n              swap3\n              swap2\n              pop\n              pop\n              jump\t// out\n                /* \"#utility.yul\":16861:17335   */\n            tag_77:\n                /* \"#utility.yul\":16929:16935   */\n              0x00\n                /* \"#utility.yul\":16937:16943   */\n              dup1\n                /* \"#utility.yul\":16986:16988   */\n              0x40\n                /* \"#utility.yul\":16974:16983   */\n              dup4\n                /* \"#utility.yul\":16965:16972   */\n              dup6\n                /* \"#utility.yul\":16961:16984   */\n              sub\n                /* \"#utility.yul\":16957:16989   */\n              slt\n                /* \"#utility.yul\":16954:17073   */\n              iszero\n              tag_470\n              jumpi\n                /* \"#utility.yul\":16992:17071   */\n              tag_471\n              tag_226\n              jump\t// in\n            tag_471:\n                /* \"#utility.yul\":16954:17073   */\n            tag_470:\n                /* \"#utility.yul\":17112:17113   */\n              0x00\n                /* \"#utility.yul\":17137:17190   */\n              tag_472\n                /* \"#utility.yul\":17182:17189   */\n              dup6\n                /* \"#utility.yul\":17173:17179   */\n              dup3\n                /* \"#utility.yul\":17162:17171   */\n              dup7\n                /* \"#utility.yul\":17158:17180   */\n              add\n                /* \"#utility.yul\":17137:17190   */\n              tag_234\n              jump\t// in\n            tag_472:\n                /* \"#utility.yul\":17127:17190   */\n              swap3\n              pop\n                /* \"#utility.yul\":17083:17200   */\n              pop\n                /* \"#utility.yul\":17239:17241   */\n              0x20\n                /* \"#utility.yul\":17265:17318   */\n              tag_473\n                /* \"#utility.yul\":17310:17317   */\n              dup6\n                /* \"#utility.yul\":17301:17307   */\n              dup3\n                /* \"#utility.yul\":17290:17299   */\n              dup7\n                /* \"#utility.yul\":17286:17308   */\n              add\n                /* \"#utility.yul\":17265:17318   */\n              tag_230\n              jump\t// in\n            tag_473:\n                /* \"#utility.yul\":17255:17318   */\n              swap2\n              pop\n                /* \"#utility.yul\":17210:17328   */\n              pop\n                /* \"#utility.yul\":16861:17335   */\n              swap3\n              pop\n              swap3\n              swap1\n              pop\n              jump\t// out\n                /* \"#utility.yul\":17341:17575   */\n            tag_275:\n                /* \"#utility.yul\":17481:17515   */\n              0x546869732066756e6374696f6e2063616e206f6e6c792062652063616c6c6564\n                /* \"#utility.yul\":17477:17478   */\n              0x00\n                /* \"#utility.yul\":17469:17475   */\n              dup3\n                /* \"#utility.yul\":17465:17479   */\n              add\n                /* \"#utility.yul\":17458:17516   */\n              mstore\n                /* \"#utility.yul\":17550:17567   */\n              0x20627920746865206d616e616765720000000000000000000000000000000000\n                /* \"#utility.yul\":17545:17547   */\n              0x20\n                /* \"#utility.yul\":17537:17543   */\n              dup3\n                /* \"#utility.yul\":17533:17548   */\n              add\n                /* \"#utility.yul\":17526:17568   */\n              mstore\n                /* \"#utility.yul\":17341:17575   */\n              pop\n              jump\t// out\n                /* \"#utility.yul\":17581:17947   */\n            tag_276:\n                /* \"#utility.yul\":17723:17726   */\n              0x00\n                /* \"#utility.yul\":17744:17811   */\n              tag_476\n                /* \"#utility.yul\":17808:17810   */\n              0x2f\n                /* \"#utility.yul\":17803:17806   */\n              dup4\n                /* \"#utility.yul\":17744:17811   */\n              tag_260\n              jump\t// in\n            tag_476:\n                /* \"#utility.yul\":17737:17811   */\n              swap2\n              pop\n                /* \"#utility.yul\":17820:17913   */\n              tag_477\n                /* \"#utility.yul\":17909:17912   */\n              dup3\n                /* \"#utility.yul\":17820:17913   */\n              tag_275\n              jump\t// in\n            tag_477:\n                /* \"#utility.yul\":17938:17940   */\n              0x40\n                /* \"#utility.yul\":17933:17936   */\n              dup3\n                /* \"#utility.yul\":17929:17941   */\n              add\n                /* \"#utility.yul\":17922:17941   */\n              swap1\n              pop\n                /* \"#utility.yul\":17581:17947   */\n              swap2\n              swap1\n              pop\n              jump\t// out\n                /* \"#utility.yul\":17953:18372   */\n            tag_87:\n                /* \"#utility.yul\":18119:18123   */\n              0x00\n                /* \"#utility.yul\":18157:18159   */\n              0x20\n                /* \"#utility.yul\":18146:18155   */\n              dup3\n                /* \"#utility.yul\":18142:18160   */\n              add\n                /* \"#utility.yul\":18134:18160   */\n              swap1\n              pop\n                /* \"#utility.yul\":18206:18215   */\n              dup2\n                /* \"#utility.yul\":18200:18204   */\n              dup2\n                /* \"#utility.yul\":18196:18216   */\n              sub\n                /* \"#utility.yul\":18192:18193   */\n              0x00\n                /* \"#utility.yul\":18181:18190   */\n              dup4\n                /* \"#utility.yul\":18177:18194   */\n              add\n                /* \"#utility.yul\":18170:18217   */\n              mstore\n                /* \"#utility.yul\":18234:18365   */\n              tag_479\n                /* \"#utility.yul\":18360:18364   */\n              dup2\n                /* \"#utility.yul\":18234:18365   */\n              tag_276\n              jump\t// in\n            tag_479:\n                /* \"#utility.yul\":18226:18365   */\n              swap1\n              pop\n                /* \"#utility.yul\":17953:18372   */\n              swap2\n              swap1\n              pop\n              jump\t// out\n                /* \"#utility.yul\":18378:18558   */\n            tag_91:\n                /* \"#utility.yul\":18426:18503   */\n              0x4e487b7100000000000000000000000000000000000000000000000000000000\n                /* \"#utility.yul\":18423:18424   */\n              0x00\n                /* \"#utility.yul\":18416:18504   */\n              mstore\n                /* \"#utility.yul\":18523:18527   */\n              0x32\n                /* \"#utility.yul\":18520:18521   */\n              0x04\n                /* \"#utility.yul\":18513:18528   */\n              mstore\n                /* \"#utility.yul\":18547:18551   */\n              0x24\n                /* \"#utility.yul\":18544:18545   */\n              0x00\n                /* \"#utility.yul\":18537:18552   */\n              revert\n                /* \"#utility.yul\":18564:18744   */\n            tag_277:\n                /* \"#utility.yul\":18612:18689   */\n              0x4e487b7100000000000000000000000000000000000000000000000000000000\n                /* \"#utility.yul\":18609:18610   */\n              0x00\n                /* \"#utility.yul\":18602:18690   */\n              mstore\n                /* \"#utility.yul\":18709:18713   */\n              0x12\n                /* \"#utility.yul\":18706:18707   */\n              0x04\n                /* \"#utility.yul\":18699:18714   */\n              mstore\n                /* \"#utility.yul\":18733:18737   */\n              0x24\n                /* \"#utility.yul\":18730:18731   */\n              0x00\n                /* \"#utility.yul\":18723:18738   */\n              revert\n                /* \"#utility.yul\":18750:18930   */\n            tag_278:\n                /* \"#utility.yul\":18798:18875   */\n              0x4e487b7100000000000000000000000000000000000000000000000000000000\n                /* \"#utility.yul\":18795:18796   */\n              0x00\n                /* \"#utility.yul\":18788:18876   */\n              mstore\n                /* \"#utility.yul\":18895:18899   */\n              0x11\n                /* \"#utility.yul\":18892:18893   */\n              0x04\n                /* \"#utility.yul\":18885:18900   */\n              mstore\n                /* \"#utility.yul\":18919:18923   */\n              0x24\n                /* \"#utility.yul\":18916:18917   */\n              0x00\n                /* \"#utility.yul\":18909:18924   */\n              revert\n                /* \"#utility.yul\":18936:19121   */\n            tag_94:\n                /* \"#utility.yul\":18976:18977   */\n              0x00\n                /* \"#utility.yul\":18993:19013   */\n              tag_484\n                /* \"#utility.yul\":19011:19012   */\n              dup3\n                /* \"#utility.yul\":18993:19013   */\n              tag_228\n              jump\t// in\n            tag_484:\n                /* \"#utility.yul\":18988:19013   */\n              swap2\n              pop\n                /* \"#utility.yul\":19027:19047   */\n              tag_485\n                /* \"#utility.yul\":19045:19046   */\n              dup4\n                /* \"#utility.yul\":19027:19047   */\n              tag_228\n              jump\t// in\n            tag_485:\n                /* \"#utility.yul\":19022:19047   */\n              swap3\n              pop\n                /* \"#utility.yul\":19066:19067   */\n              dup3\n                /* \"#utility.yul\":19056:19091   */\n              tag_486\n              jumpi\n                /* \"#utility.yul\":19071:19089   */\n              tag_487\n              tag_277\n              jump\t// in\n            tag_487:\n                /* \"#utility.yul\":19056:19091   */\n            tag_486:\n                /* \"#utility.yul\":19113:19114   */\n              dup3\n                /* \"#utility.yul\":19110:19111   */\n              dup3\n                /* \"#utility.yul\":19106:19115   */\n              div\n                /* \"#utility.yul\":19101:19115   */\n              swap1\n              pop\n                /* \"#utility.yul\":18936:19121   */\n              swap3\n              swap2\n              pop\n              pop\n              jump\t// out\n                /* \"#utility.yul\":19127:19350   */\n            tag_279:\n                /* \"#utility.yul\":19267:19301   */\n              0x546865726520617265206e6f7420656e6f75676820706f736974697665732076\n                /* \"#utility.yul\":19263:19264   */\n              0x00\n                /* \"#utility.yul\":19255:19261   */\n              dup3\n                /* \"#utility.yul\":19251:19265   */\n              add\n                /* \"#utility.yul\":19244:19302   */\n              mstore\n                /* \"#utility.yul\":19336:19342   */\n              0x6f74657300000000000000000000000000000000000000000000000000000000\n                /* \"#utility.yul\":19331:19333   */\n              0x20\n                /* \"#utility.yul\":19323:19329   */\n              dup3\n                /* \"#utility.yul\":19319:19334   */\n              add\n                /* \"#utility.yul\":19312:19343   */\n              mstore\n                /* \"#utility.yul\":19127:19350   */\n              pop\n              jump\t// out\n                /* \"#utility.yul\":19356:19722   */\n            tag_280:\n                /* \"#utility.yul\":19498:19501   */\n              0x00\n                /* \"#utility.yul\":19519:19586   */\n              tag_490\n                /* \"#utility.yul\":19583:19585   */\n              0x24\n                /* \"#utility.yul\":19578:19581   */\n              dup4\n                /* \"#utility.yul\":19519:19586   */\n              tag_260\n              jump\t// in\n            tag_490:\n                /* \"#utility.yul\":19512:19586   */\n              swap2\n              pop\n                /* \"#utility.yul\":19595:19688   */\n              tag_491\n                /* \"#utility.yul\":19684:19687   */\n              dup3\n                /* \"#utility.yul\":19595:19688   */\n              tag_279\n              jump\t// in\n            tag_491:\n                /* \"#utility.yul\":19713:19715   */\n              0x40\n                /* \"#utility.yul\":19708:19711   */\n              dup3\n                /* \"#utility.yul\":19704:19716   */\n              add\n                /* \"#utility.yul\":19697:19716   */\n              swap1\n              pop\n                /* \"#utility.yul\":19356:19722   */\n              swap2\n              swap1\n              pop\n              jump\t// out\n                /* \"#utility.yul\":19728:20147   */\n            tag_97:\n                /* \"#utility.yul\":19894:19898   */\n              0x00\n                /* \"#utility.yul\":19932:19934   */\n              0x20\n                /* \"#utility.yul\":19921:19930   */\n              dup3\n                /* \"#utility.yul\":19917:19935   */\n              add\n                /* \"#utility.yul\":19909:19935   */\n              swap1\n              pop\n                /* \"#utility.yul\":19981:19990   */\n              dup2\n                /* \"#utility.yul\":19975:19979   */\n              dup2\n                /* \"#utility.yul\":19971:19991   */\n              sub\n                /* \"#utility.yul\":19967:19968   */\n              0x00\n                /* \"#utility.yul\":19956:19965   */\n              dup4\n                /* \"#utility.yul\":19952:19969   */\n              add\n                /* \"#utility.yul\":19945:19992   */\n              mstore\n                /* \"#utility.yul\":20009:20140   */\n              tag_493\n                /* \"#utility.yul\":20135:20139   */\n              dup2\n                /* \"#utility.yul\":20009:20140   */\n              tag_280\n              jump\t// in\n            tag_493:\n                /* \"#utility.yul\":20001:20140   */\n              swap1\n              pop\n                /* \"#utility.yul\":19728:20147   */\n              swap2\n              swap1\n              pop\n              jump\t// out\n                /* \"#utility.yul\":20153:20379   */\n            tag_281:\n                /* \"#utility.yul\":20293:20327   */\n              0x5468697320726571756573742068617320616c7265616479206265656e20636f\n                /* \"#utility.yul\":20289:20290   */\n              0x00\n                /* \"#utility.yul\":20281:20287   */\n              dup3\n                /* \"#utility.yul\":20277:20291   */\n              add\n                /* \"#utility.yul\":20270:20328   */\n              mstore\n                /* \"#utility.yul\":20362:20371   */\n              0x6d706c6574656400000000000000000000000000000000000000000000000000\n                /* \"#utility.yul\":20357:20359   */\n              0x20\n                /* \"#utility.yul\":20349:20355   */\n              dup3\n                /* \"#utility.yul\":20345:20360   */\n              add\n                /* \"#utility.yul\":20338:20372   */\n              mstore\n                /* \"#utility.yul\":20153:20379   */\n              pop\n              jump\t// out\n                /* \"#utility.yul\":20385:20751   */\n            tag_282:\n                /* \"#utility.yul\":20527:20530   */\n              0x00\n                /* \"#utility.yul\":20548:20615   */\n              tag_496\n                /* \"#utility.yul\":20612:20614   */\n              0x27\n                /* \"#utility.yul\":20607:20610   */\n              dup4\n                /* \"#utility.yul\":20548:20615   */\n              tag_260\n              jump\t// in\n            tag_496:\n                /* \"#utility.yul\":20541:20615   */\n              swap2\n              pop\n                /* \"#utility.yul\":20624:20717   */\n              tag_497\n                /* \"#utility.yul\":20713:20716   */\n              dup3\n                /* \"#utility.yul\":20624:20717   */\n              tag_281\n              jump\t// in\n            tag_497:\n                /* \"#utility.yul\":20742:20744   */\n              0x40\n                /* \"#utility.yul\":20737:20740   */\n              dup3\n                /* \"#utility.yul\":20733:20745   */\n              add\n                /* \"#utility.yul\":20726:20745   */\n              swap1\n              pop\n                /* \"#utility.yul\":20385:20751   */\n              swap2\n              swap1\n              pop\n              jump\t// out\n                /* \"#utility.yul\":20757:21176   */\n            tag_100:\n                /* \"#utility.yul\":20923:20927   */\n              0x00\n                /* \"#utility.yul\":20961:20963   */\n              0x20\n                /* \"#utility.yul\":20950:20959   */\n              dup3\n                /* \"#utility.yul\":20946:20964   */\n              add\n                /* \"#utility.yul\":20938:20964   */\n              swap1\n              pop\n                /* \"#utility.yul\":21010:21019   */\n              dup2\n                /* \"#utility.yul\":21004:21008   */\n              dup2\n                /* \"#utility.yul\":21000:21020   */\n              sub\n                /* \"#utility.yul\":20996:20997   */\n              0x00\n                /* \"#utility.yul\":20985:20994   */\n              dup4\n                /* \"#utility.yul\":20981:20998   */\n              add\n                /* \"#utility.yul\":20974:21021   */\n              mstore\n                /* \"#utility.yul\":21038:21169   */\n              tag_499\n                /* \"#utility.yul\":21164:21168   */\n              dup2\n                /* \"#utility.yul\":21038:21169   */\n              tag_282\n              jump\t// in\n            tag_499:\n                /* \"#utility.yul\":21030:21169   */\n              swap1\n              pop\n                /* \"#utility.yul\":20757:21176   */\n              swap2\n              swap1\n              pop\n              jump\t// out\n                /* \"#utility.yul\":21182:21362   */\n            tag_283:\n                /* \"#utility.yul\":21322:21354   */\n              0x54686973207265717565737420686173206265656e2063616e63656c65640000\n                /* \"#utility.yul\":21318:21319   */\n              0x00\n                /* \"#utility.yul\":21310:21316   */\n              dup3\n                /* \"#utility.yul\":21306:21320   */\n              add\n                /* \"#utility.yul\":21299:21355   */\n              mstore\n                /* \"#utility.yul\":21182:21362   */\n              pop\n              jump\t// out\n                /* \"#utility.yul\":21368:21734   */\n            tag_284:\n                /* \"#utility.yul\":21510:21513   */\n              0x00\n                /* \"#utility.yul\":21531:21598   */\n              tag_502\n                /* \"#utility.yul\":21595:21597   */\n              0x1e\n                /* \"#utility.yul\":21590:21593   */\n              dup4\n                /* \"#utility.yul\":21531:21598   */\n              tag_260\n              jump\t// in\n            tag_502:\n                /* \"#utility.yul\":21524:21598   */\n              swap2\n              pop\n                /* \"#utility.yul\":21607:21700   */\n              tag_503\n                /* \"#utility.yul\":21696:21699   */\n              dup3\n                /* \"#utility.yul\":21607:21700   */\n              tag_283\n              jump\t// in\n            tag_503:\n                /* \"#utility.yul\":21725:21727   */\n              0x20\n                /* \"#utility.yul\":21720:21723   */\n              dup3\n                /* \"#utility.yul\":21716:21728   */\n              add\n                /* \"#utility.yul\":21709:21728   */\n              swap1\n              pop\n                /* \"#utility.yul\":21368:21734   */\n              swap2\n              swap1\n              pop\n              jump\t// out\n                /* \"#utility.yul\":21740:22159   */\n            tag_103:\n                /* \"#utility.yul\":21906:21910   */\n              0x00\n                /* \"#utility.yul\":21944:21946   */\n              0x20\n                /* \"#utility.yul\":21933:21942   */\n              dup3\n                /* \"#utility.yul\":21929:21947   */\n              add\n                /* \"#utility.yul\":21921:21947   */\n              swap1\n              pop\n                /* \"#utility.yul\":21993:22002   */\n              dup2\n                /* \"#utility.yul\":21987:21991   */\n              dup2\n                /* \"#utility.yul\":21983:22003   */\n              sub\n                /* \"#utility.yul\":21979:21980   */\n              0x00\n                /* \"#utility.yul\":21968:21977   */\n              dup4\n                /* \"#utility.yul\":21964:21981   */\n              add\n                /* \"#utility.yul\":21957:22004   */\n              mstore\n                /* \"#utility.yul\":22021:22152   */\n              tag_505\n                /* \"#utility.yul\":22147:22151   */\n              dup2\n                /* \"#utility.yul\":22021:22152   */\n              tag_284\n              jump\t// in\n            tag_505:\n                /* \"#utility.yul\":22013:22152   */\n              swap1\n              pop\n                /* \"#utility.yul\":21740:22159   */\n              swap2\n              swap1\n              pop\n              jump\t// out\n                /* \"#utility.yul\":22165:22391   */\n            tag_285:\n                /* \"#utility.yul\":22305:22339   */\n              0x5468652063616d706169676e20646f6573206e6f74206861766520656e6f7567\n                /* \"#utility.yul\":22301:22302   */\n              0x00\n                /* \"#utility.yul\":22293:22299   */\n              dup3\n                /* \"#utility.yul\":22289:22303   */\n              add\n                /* \"#utility.yul\":22282:22340   */\n              mstore\n                /* \"#utility.yul\":22374:22383   */\n              0x682066756e647300000000000000000000000000000000000000000000000000\n                /* \"#utility.yul\":22369:22371   */\n              0x20\n                /* \"#utility.yul\":22361:22367   */\n              dup3\n                /* \"#utility.yul\":22357:22372   */\n              add\n                /* \"#utility.yul\":22350:22384   */\n              mstore\n                /* \"#utility.yul\":22165:22391   */\n              pop\n              jump\t// out\n                /* \"#utility.yul\":22397:22763   */\n            tag_286:\n                /* \"#utility.yul\":22539:22542   */\n              0x00\n                /* \"#utility.yul\":22560:22627   */\n              tag_508\n                /* \"#utility.yul\":22624:22626   */\n              0x27\n                /* \"#utility.yul\":22619:22622   */\n              dup4\n                /* \"#utility.yul\":22560:22627   */\n              tag_260\n              jump\t// in\n            tag_508:\n                /* \"#utility.yul\":22553:22627   */\n              swap2\n              pop\n                /* \"#utility.yul\":22636:22729   */\n              tag_509\n                /* \"#utility.yul\":22725:22728   */\n              dup3\n                /* \"#utility.yul\":22636:22729   */\n              tag_285\n              jump\t// in\n            tag_509:\n                /* \"#utility.yul\":22754:22756   */\n              0x40\n                /* \"#utility.yul\":22749:22752   */\n              dup3\n                /* \"#utility.yul\":22745:22757   */\n              add\n                /* \"#utility.yul\":22738:22757   */\n              swap1\n              pop\n                /* \"#utility.yul\":22397:22763   */\n              swap2\n              swap1\n              pop\n              jump\t// out\n                /* \"#utility.yul\":22769:23188   */\n            tag_106:\n                /* \"#utility.yul\":22935:22939   */\n              0x00\n                /* \"#utility.yul\":22973:22975   */\n              0x20\n                /* \"#utility.yul\":22962:22971   */\n              dup3\n                /* \"#utility.yul\":22958:22976   */\n              add\n                /* \"#utility.yul\":22950:22976   */\n              swap1\n              pop\n                /* \"#utility.yul\":23022:23031   */\n              dup2\n                /* \"#utility.yul\":23016:23020   */\n              dup2\n                /* \"#utility.yul\":23012:23032   */\n              sub\n                /* \"#utility.yul\":23008:23009   */\n              0x00\n                /* \"#utility.yul\":22997:23006   */\n              dup4\n                /* \"#utility.yul\":22993:23010   */\n              add\n                /* \"#utility.yul\":22986:23033   */\n              mstore\n                /* \"#utility.yul\":23050:23181   */\n              tag_511\n                /* \"#utility.yul\":23176:23180   */\n              dup2\n                /* \"#utility.yul\":23050:23181   */\n              tag_286\n              jump\t// in\n            tag_511:\n                /* \"#utility.yul\":23042:23181   */\n              swap1\n              pop\n                /* \"#utility.yul\":22769:23188   */\n              swap2\n              swap1\n              pop\n              jump\t// out\n                /* \"#utility.yul\":23194:23414   */\n            tag_287:\n                /* \"#utility.yul\":23334:23368   */\n              0x54686520676976656e2061646472657373206973206e6f742061206261636b65\n                /* \"#utility.yul\":23330:23331   */\n              0x00\n                /* \"#utility.yul\":23322:23328   */\n              dup3\n                /* \"#utility.yul\":23318:23332   */\n              add\n                /* \"#utility.yul\":23311:23369   */\n              mstore\n                /* \"#utility.yul\":23403:23406   */\n              0x7200000000000000000000000000000000000000000000000000000000000000\n                /* \"#utility.yul\":23398:23400   */\n              0x20\n                /* \"#utility.yul\":23390:23396   */\n              dup3\n                /* \"#utility.yul\":23386:23401   */\n              add\n                /* \"#utility.yul\":23379:23407   */\n              mstore\n                /* \"#utility.yul\":23194:23414   */\n              pop\n              jump\t// out\n                /* \"#utility.yul\":23420:23786   */\n            tag_288:\n                /* \"#utility.yul\":23562:23565   */\n              0x00\n                /* \"#utility.yul\":23583:23650   */\n              tag_514\n                /* \"#utility.yul\":23647:23649   */\n              0x21\n                /* \"#utility.yul\":23642:23645   */\n              dup4\n                /* \"#utility.yul\":23583:23650   */\n              tag_260\n              jump\t// in\n            tag_514:\n                /* \"#utility.yul\":23576:23650   */\n              swap2\n              pop\n                /* \"#utility.yul\":23659:23752   */\n              tag_515\n                /* \"#utility.yul\":23748:23751   */\n              dup3\n                /* \"#utility.yul\":23659:23752   */\n              tag_287\n              jump\t// in\n            tag_515:\n                /* \"#utility.yul\":23777:23779   */\n              0x40\n                /* \"#utility.yul\":23772:23775   */\n              dup3\n                /* \"#utility.yul\":23768:23780   */\n              add\n                /* \"#utility.yul\":23761:23780   */\n              swap1\n              pop\n                /* \"#utility.yul\":23420:23786   */\n              swap2\n              swap1\n              pop\n              jump\t// out\n                /* \"#utility.yul\":23792:24211   */\n            tag_115:\n                /* \"#utility.yul\":23958:23962   */\n              0x00\n                /* \"#utility.yul\":23996:23998   */\n              0x20\n                /* \"#utility.yul\":23985:23994   */\n              dup3\n                /* \"#utility.yul\":23981:23999   */\n              add\n                /* \"#utility.yul\":23973:23999   */\n              swap1\n              pop\n                /* \"#utility.yul\":24045:24054   */\n              dup2\n                /* \"#utility.yul\":24039:24043   */\n              dup2\n                /* \"#utility.yul\":24035:24055   */\n              sub\n                /* \"#utility.yul\":24031:24032   */\n              0x00\n                /* \"#utility.yul\":24020:24029   */\n              dup4\n                /* \"#utility.yul\":24016:24033   */\n              add\n                /* \"#utility.yul\":24009:24056   */\n              mstore\n                /* \"#utility.yul\":24073:24204   */\n              tag_517\n                /* \"#utility.yul\":24199:24203   */\n              dup2\n                /* \"#utility.yul\":24073:24204   */\n              tag_288\n              jump\t// in\n            tag_517:\n                /* \"#utility.yul\":24065:24204   */\n              swap1\n              pop\n                /* \"#utility.yul\":23792:24211   */\n              swap2\n              swap1\n              pop\n              jump\t// out\n                /* \"#utility.yul\":24217:24397   */\n            tag_289:\n                /* \"#utility.yul\":24265:24342   */\n              0x4e487b7100000000000000000000000000000000000000000000000000000000\n                /* \"#utility.yul\":24262:24263   */\n              0x00\n                /* \"#utility.yul\":24255:24343   */\n              mstore\n                /* \"#utility.yul\":24362:24366   */\n              0x22\n                /* \"#utility.yul\":24359:24360   */\n              0x04\n                /* \"#utility.yul\":24352:24367   */\n              mstore\n                /* \"#utility.yul\":24386:24390   */\n              0x24\n                /* \"#utility.yul\":24383:24384   */\n              0x00\n                /* \"#utility.yul\":24376:24391   */\n              revert\n                /* \"#utility.yul\":24403:24723   */\n            tag_120:\n                /* \"#utility.yul\":24447:24453   */\n              0x00\n                /* \"#utility.yul\":24484:24485   */\n              0x02\n                /* \"#utility.yul\":24478:24482   */\n              dup3\n                /* \"#utility.yul\":24474:24486   */\n              div\n                /* \"#utility.yul\":24464:24486   */\n              swap1\n              pop\n                /* \"#utility.yul\":24531:24532   */\n              0x01\n                /* \"#utility.yul\":24525:24529   */\n              dup3\n                /* \"#utility.yul\":24521:24533   */\n              and\n                /* \"#utility.yul\":24552:24570   */\n              dup1\n                /* \"#utility.yul\":24542:24623   */\n              tag_520\n              jumpi\n                /* \"#utility.yul\":24608:24612   */\n              0x7f\n                /* \"#utility.yul\":24600:24606   */\n              dup3\n                /* \"#utility.yul\":24596:24613   */\n              and\n                /* \"#utility.yul\":24586:24613   */\n              swap2\n              pop\n                /* \"#utility.yul\":24542:24623   */\n            tag_520:\n                /* \"#utility.yul\":24670:24672   */\n              0x20\n                /* \"#utility.yul\":24662:24668   */\n              dup3\n                /* \"#utility.yul\":24659:24673   */\n              lt\n                /* \"#utility.yul\":24639:24657   */\n              dup2\n                /* \"#utility.yul\":24636:24674   */\n              sub\n                /* \"#utility.yul\":24633:24717   */\n              tag_521\n              jumpi\n                /* \"#utility.yul\":24689:24707   */\n              tag_522\n              tag_289\n              jump\t// in\n            tag_522:\n                /* \"#utility.yul\":24633:24717   */\n            tag_521:\n                /* \"#utility.yul\":24454:24723   */\n              pop\n                /* \"#utility.yul\":24403:24723   */\n              swap2\n              swap1\n              pop\n              jump\t// out\n                /* \"#utility.yul\":24729:24966   */\n            tag_290:\n                /* \"#utility.yul\":24869:24903   */\n              0x596f75206e65656420746f2073656e64206174206c6561737420746865206d69\n                /* \"#utility.yul\":24865:24866   */\n              0x00\n                /* \"#utility.yul\":24857:24863   */\n              dup3\n                /* \"#utility.yul\":24853:24867   */\n              add\n                /* \"#utility.yul\":24846:24904   */\n              mstore\n                /* \"#utility.yul\":24938:24958   */\n              0x6e696d756d20636f6e747269627574696f6e0000000000000000000000000000\n                /* \"#utility.yul\":24933:24935   */\n              0x20\n                /* \"#utility.yul\":24925:24931   */\n              dup3\n                /* \"#utility.yul\":24921:24936   */\n              add\n                /* \"#utility.yul\":24914:24959   */\n              mstore\n                /* \"#utility.yul\":24729:24966   */\n              pop\n              jump\t// out\n                /* \"#utility.yul\":24972:25338   */\n            tag_291:\n                /* \"#utility.yul\":25114:25117   */\n              0x00\n                /* \"#utility.yul\":25135:25202   */\n              tag_525\n                /* \"#utility.yul\":25199:25201   */\n              0x32\n                /* \"#utility.yul\":25194:25197   */\n              dup4\n                /* \"#utility.yul\":25135:25202   */\n              tag_260\n              jump\t// in\n            tag_525:\n                /* \"#utility.yul\":25128:25202   */\n              swap2\n              pop\n                /* \"#utility.yul\":25211:25304   */\n              tag_526\n                /* \"#utility.yul\":25300:25303   */\n              dup3\n                /* \"#utility.yul\":25211:25304   */\n              tag_290\n              jump\t// in\n            tag_526:\n                /* \"#utility.yul\":25329:25331   */\n              0x40\n                /* \"#utility.yul\":25324:25327   */\n              dup3\n                /* \"#utility.yul\":25320:25332   */\n              add\n                /* \"#utility.yul\":25313:25332   */\n              swap1\n              pop\n                /* \"#utility.yul\":24972:25338   */\n              swap2\n              swap1\n              pop\n              jump\t// out\n                /* \"#utility.yul\":25344:25763   */\n            tag_156:\n                /* \"#utility.yul\":25510:25514   */\n              0x00\n                /* \"#utility.yul\":25548:25550   */\n              0x20\n                /* \"#utility.yul\":25537:25546   */\n              dup3\n                /* \"#utility.yul\":25533:25551   */\n              add\n                /* \"#utility.yul\":25525:25551   */\n              swap1\n              pop\n                /* \"#utility.yul\":25597:25606   */\n              dup2\n                /* \"#utility.yul\":25591:25595   */\n              dup2\n                /* \"#utility.yul\":25587:25607   */\n              sub\n                /* \"#utility.yul\":25583:25584   */\n              0x00\n                /* \"#utility.yul\":25572:25581   */\n              dup4\n                /* \"#utility.yul\":25568:25585   */\n              add\n                /* \"#utility.yul\":25561:25608   */\n              mstore\n                /* \"#utility.yul\":25625:25756   */\n              tag_528\n                /* \"#utility.yul\":25751:25755   */\n              dup2\n                /* \"#utility.yul\":25625:25756   */\n              tag_291\n              jump\t// in\n            tag_528:\n                /* \"#utility.yul\":25617:25756   */\n              swap1\n              pop\n                /* \"#utility.yul\":25344:25763   */\n              swap2\n              swap1\n              pop\n              jump\t// out\n                /* \"#utility.yul\":25769:26074   */\n            tag_158:\n                /* \"#utility.yul\":25809:25812   */\n              0x00\n                /* \"#utility.yul\":25828:25848   */\n              tag_530\n                /* \"#utility.yul\":25846:25847   */\n              dup3\n                /* \"#utility.yul\":25828:25848   */\n              tag_228\n              jump\t// in\n            tag_530:\n                /* \"#utility.yul\":25823:25848   */\n              swap2\n              pop\n                /* \"#utility.yul\":25862:25882   */\n              tag_531\n                /* \"#utility.yul\":25880:25881   */\n              dup4\n                /* \"#utility.yul\":25862:25882   */\n              tag_228\n              jump\t// in\n            tag_531:\n                /* \"#utility.yul\":25857:25882   */\n              swap3\n              pop\n                /* \"#utility.yul\":26016:26017   */\n              dup3\n                /* \"#utility.yul\":25948:26014   */\n              0xffffffffffffffffffffffffffffffffffffffffffffffffffffffffffffffff\n                /* \"#utility.yul\":25944:26018   */\n              sub\n                /* \"#utility.yul\":25941:25942   */\n              dup3\n                /* \"#utility.yul\":25938:26019   */\n              gt\n                /* \"#utility.yul\":25935:26042   */\n              iszero\n              tag_532\n              jumpi\n                /* \"#utility.yul\":26022:26040   */\n              tag_533\n              tag_278\n              jump\t// in\n            tag_533:\n                /* \"#utility.yul\":25935:26042   */\n            tag_532:\n                /* \"#utility.yul\":26066:26067   */\n              dup3\n                /* \"#utility.yul\":26063:26064   */\n              dup3\n                /* \"#utility.yul\":26059:26068   */\n              add\n                /* \"#utility.yul\":26052:26068   */\n              swap1\n              pop\n                /* \"#utility.yul\":25769:26074   */\n              swap3\n              swap2\n              pop\n              pop\n              jump\t// out\n                /* \"#utility.yul\":26080:26311   */\n            tag_292:\n                /* \"#utility.yul\":26220:26254   */\n              0x546869732066756e6374696f6e2063616e206f6e6c792062652063616c6c6564\n                /* \"#utility.yul\":26216:26217   */\n              0x00\n                /* \"#utility.yul\":26208:26214   */\n              dup3\n                /* \"#utility.yul\":26204:26218   */\n              add\n                /* \"#utility.yul\":26197:26255   */\n              mstore\n                /* \"#utility.yul\":26289:26303   */\n              0x2062792061206261636b65720000000000000000000000000000000000000000\n                /* \"#utility.yul\":26284:26286   */\n              0x20\n                /* \"#utility.yul\":26276:26282   */\n              dup3\n                /* \"#utility.yul\":26272:26287   */\n              add\n                /* \"#utility.yul\":26265:26304   */\n              mstore\n                /* \"#utility.yul\":26080:26311   */\n              pop\n              jump\t// out\n                /* \"#utility.yul\":26317:26683   */\n            tag_293:\n                /* \"#utility.yul\":26459:26462   */\n              0x00\n                /* \"#utility.yul\":26480:26547   */\n              tag_536\n                /* \"#utility.yul\":26544:26546   */\n              0x2c\n                /* \"#utility.yul\":26539:26542   */\n              dup4\n                /* \"#utility.yul\":26480:26547   */\n              tag_260\n              jump\t// in\n            tag_536:\n                /* \"#utility.yul\":26473:26547   */\n              swap2\n              pop\n                /* \"#utility.yul\":26556:26649   */\n              tag_537\n                /* \"#utility.yul\":26645:26648   */\n              dup3\n                /* \"#utility.yul\":26556:26649   */\n              tag_292\n              jump\t// in\n            tag_537:\n                /* \"#utility.yul\":26674:26676   */\n              0x40\n                /* \"#utility.yul\":26669:26672   */\n              dup3\n                /* \"#utility.yul\":26665:26677   */\n              add\n                /* \"#utility.yul\":26658:26677   */\n              swap1\n              pop\n                /* \"#utility.yul\":26317:26683   */\n              swap2\n              swap1\n              pop\n              jump\t// out\n                /* \"#utility.yul\":26689:27108   */\n            tag_177:\n                /* \"#utility.yul\":26855:26859   */\n              0x00\n                /* \"#utility.yul\":26893:26895   */\n              0x20\n                /* \"#utility.yul\":26882:26891   */\n              dup3\n                /* \"#utility.yul\":26878:26896   */\n              add\n                /* \"#utility.yul\":26870:26896   */\n              swap1\n              pop\n                /* \"#utility.yul\":26942:26951   */\n              dup2\n                /* \"#utility.yul\":26936:26940   */\n              dup2\n                /* \"#utility.yul\":26932:26952   */\n              sub\n                /* \"#utility.yul\":26928:26929   */\n              0x00\n                /* \"#utility.yul\":26917:26926   */\n              dup4\n                /* \"#utility.yul\":26913:26930   */\n              add\n                /* \"#utility.yul\":26906:26953   */\n              mstore\n                /* \"#utility.yul\":26970:27101   */\n              tag_539\n                /* \"#utility.yul\":27096:27100   */\n              dup2\n                /* \"#utility.yul\":26970:27101   */\n              tag_293\n              jump\t// in\n            tag_539:\n                /* \"#utility.yul\":26962:27101   */\n              swap1\n              pop\n                /* \"#utility.yul\":26689:27108   */\n              swap2\n              swap1\n              pop\n              jump\t// out\n                /* \"#utility.yul\":27114:27255   */\n            tag_294:\n                /* \"#utility.yul\":27163:27167   */\n              0x00\n                /* \"#utility.yul\":27186:27189   */\n              dup2\n                /* \"#utility.yul\":27178:27189   */\n              swap1\n              pop\n                /* \"#utility.yul\":27209:27212   */\n              dup2\n                /* \"#utility.yul\":27206:27207   */\n              0x00\n                /* \"#utility.yul\":27199:27213   */\n              mstore\n                /* \"#utility.yul\":27243:27247   */\n              0x20\n                /* \"#utility.yul\":27240:27241   */\n              0x00\n                /* \"#utility.yul\":27230:27248   */\n              keccak256\n                /* \"#utility.yul\":27222:27248   */\n              swap1\n              pop\n                /* \"#utility.yul\":27114:27255   */\n              swap2\n              swap1\n              pop\n              jump\t// out\n                /* \"#utility.yul\":27285:28067   */\n            tag_295:\n                /* \"#utility.yul\":27360:27363   */\n              0x00\n                /* \"#utility.yul\":27397:27402   */\n              dup2\n                /* \"#utility.yul\":27391:27403   */\n              sload\n                /* \"#utility.yul\":27426:27462   */\n              tag_542\n                /* \"#utility.yul\":27452:27461   */\n              dup2\n                /* \"#utility.yul\":27426:27462   */\n              tag_120\n              jump\t// in\n            tag_542:\n                /* \"#utility.yul\":27478:27539   */\n              tag_543\n                /* \"#utility.yul\":27532:27538   */\n              dup2\n                /* \"#utility.yul\":27527:27530   */\n              dup7\n                /* \"#utility.yul\":27478:27539   */\n              tag_239\n              jump\t// in\n            tag_543:\n                /* \"#utility.yul\":27471:27539   */\n              swap5\n              pop\n                /* \"#utility.yul\":27570:27571   */\n              0x01\n                /* \"#utility.yul\":27559:27568   */\n              dup3\n                /* \"#utility.yul\":27555:27572   */\n              and\n                /* \"#utility.yul\":27586:27587   */\n              0x00\n                /* \"#utility.yul\":27581:27716   */\n              dup2\n              eq\n              tag_545\n              jumpi\n                /* \"#utility.yul\":27730:27731   */\n              0x01\n                /* \"#utility.yul\":27725:28061   */\n              dup2\n              eq\n              tag_546\n              jumpi\n                /* \"#utility.yul\":27548:28061   */\n              jump(tag_544)\n                /* \"#utility.yul\":27581:27716   */\n            tag_545:\n                /* \"#utility.yul\":27665:27669   */\n              0xff\n                /* \"#utility.yul\":27661:27670   */\n              not\n                /* \"#utility.yul\":27650:27659   */\n              dup4\n                /* \"#utility.yul\":27646:27671   */\n              and\n                /* \"#utility.yul\":27641:27644   */\n              dup7\n                /* \"#utility.yul\":27634:27672   */\n              mstore\n                /* \"#utility.yul\":27701:27705   */\n              0x20\n                /* \"#utility.yul\":27696:27699   */\n              dup7\n                /* \"#utility.yul\":27692:27706   */\n              add\n                /* \"#utility.yul\":27685:27706   */\n              swap4\n              pop\n                /* \"#utility.yul\":27581:27716   */\n              jump(tag_544)\n                /* \"#utility.yul\":27725:28061   */\n            tag_546:\n                /* \"#utility.yul\":27792:27830   */\n              tag_547\n                /* \"#utility.yul\":27824:27829   */\n              dup6\n                /* \"#utility.yul\":27792:27830   */\n              tag_294\n              jump\t// in\n            tag_547:\n                /* \"#utility.yul\":27852:27853   */\n              0x00\n                /* \"#utility.yul\":27866:28020   */\n            tag_548:\n                /* \"#utility.yul\":27880:27886   */\n              dup4\n                /* \"#utility.yul\":27877:27878   */\n              dup2\n                /* \"#utility.yul\":27874:27887   */\n              lt\n                /* \"#utility.yul\":27866:28020   */\n              iszero\n              tag_550\n              jumpi\n                /* \"#utility.yul\":27954:27961   */\n              dup2\n                /* \"#utility.yul\":27948:27962   */\n              sload\n                /* \"#utility.yul\":27944:27945   */\n              dup2\n                /* \"#utility.yul\":27939:27942   */\n              dup10\n                /* \"#utility.yul\":27935:27946   */\n              add\n                /* \"#utility.yul\":27928:27963   */\n              mstore\n                /* \"#utility.yul\":28004:28005   */\n              0x01\n                /* \"#utility.yul\":27995:28002   */\n              dup3\n                /* \"#utility.yul\":27991:28006   */\n              add\n                /* \"#utility.yul\":27980:28006   */\n              swap2\n              pop\n                /* \"#utility.yul\":27902:27906   */\n              0x20\n                /* \"#utility.yul\":27899:27900   */\n              dup2\n                /* \"#utility.yul\":27895:27907   */\n              add\n                /* \"#utility.yul\":27890:27907   */\n              swap1\n              pop\n                /* \"#utility.yul\":27866:28020   */\n              jump(tag_548)\n            tag_550:\n                /* \"#utility.yul\":28049:28050   */\n              dup1\n                /* \"#utility.yul\":28044:28047   */\n              dup9\n                /* \"#utility.yul\":28040:28051   */\n              add\n                /* \"#utility.yul\":28033:28051   */\n              swap6\n              pop\n                /* \"#utility.yul\":27732:28061   */\n              pop\n              pop\n                /* \"#utility.yul\":27548:28061   */\n            tag_544:\n              pop\n                /* \"#utility.yul\":27364:28067   */\n              pop\n              pop\n                /* \"#utility.yul\":27285:28067   */\n              swap3\n              swap2\n              pop\n              pop\n              jump\t// out\n                /* \"#utility.yul\":28073:28175   */\n            tag_296:\n                /* \"#utility.yul\":28115:28123   */\n              0x00\n                /* \"#utility.yul\":28162:28167   */\n              dup2\n                /* \"#utility.yul\":28159:28160   */\n              0x00\n                /* \"#utility.yul\":28155:28168   */\n              shr\n                /* \"#utility.yul\":28134:28168   */\n              swap1\n              pop\n                /* \"#utility.yul\":28073:28175   */\n              swap2\n              swap1\n              pop\n              jump\t// out\n                /* \"#utility.yul\":28181:28271   */\n            tag_297:\n                /* \"#utility.yul\":28231:28238   */\n              0x00\n                /* \"#utility.yul\":28260:28265   */\n              dup2\n                /* \"#utility.yul\":28249:28265   */\n              swap1\n              pop\n                /* \"#utility.yul\":28181:28271   */\n              swap2\n              swap1\n              pop\n              jump\t// out\n                /* \"#utility.yul\":28277:28443   */\n            tag_298:\n                /* \"#utility.yul\":28346:28351   */\n              0x00\n                /* \"#utility.yul\":28371:28437   */\n              tag_554\n                /* \"#utility.yul\":28402:28436   */\n              tag_555\n                /* \"#utility.yul\":28425:28435   */\n              dup4\n                /* \"#utility.yul\":28402:28436   */\n              tag_296\n              jump\t// in\n            tag_555:\n                /* \"#utility.yul\":28371:28437   */\n              tag_297\n              jump\t// in\n            tag_554:\n                /* \"#utility.yul\":28362:28437   */\n              swap1\n              pop\n                /* \"#utility.yul\":28277:28443   */\n              swap2\n              swap1\n              pop\n              jump\t// out\n                /* \"#utility.yul\":28449:28588   */\n            tag_299:\n                /* \"#utility.yul\":28499:28506   */\n              0x00\n                /* \"#utility.yul\":28539:28581   */\n              0xffffffffffffffffffffffffffffffffffffffff\n                /* \"#utility.yul\":28532:28537   */\n              dup3\n                /* \"#utility.yul\":28528:28582   */\n              and\n                /* \"#utility.yul\":28517:28582   */\n              swap1\n              pop\n                /* \"#utility.yul\":28449:28588   */\n              swap2\n              swap1\n              pop\n              jump\t// out\n                /* \"#utility.yul\":28594:28760   */\n            tag_300:\n                /* \"#utility.yul\":28663:28668   */\n              0x00\n                /* \"#utility.yul\":28688:28754   */\n              tag_558\n                /* \"#utility.yul\":28719:28753   */\n              tag_559\n                /* \"#utility.yul\":28742:28752   */\n              dup4\n                /* \"#utility.yul\":28719:28753   */\n              tag_296\n              jump\t// in\n            tag_559:\n                /* \"#utility.yul\":28688:28754   */\n              tag_299\n              jump\t// in\n            tag_558:\n                /* \"#utility.yul\":28679:28754   */\n              swap1\n              pop\n                /* \"#utility.yul\":28594:28760   */\n              swap2\n              swap1\n              pop\n              jump\t// out\n                /* \"#utility.yul\":28766:28872   */\n            tag_301:\n                /* \"#utility.yul\":28810:28818   */\n              0x00\n                /* \"#utility.yul\":28859:28864   */\n              dup2\n                /* \"#utility.yul\":28854:28857   */\n              0xa0\n                /* \"#utility.yul\":28850:28865   */\n              shr\n                /* \"#utility.yul\":28829:28865   */\n              swap1\n              pop\n                /* \"#utility.yul\":28766:28872   */\n              swap2\n              swap1\n              pop\n              jump\t// out\n                /* \"#utility.yul\":28878:28976   */\n            tag_302:\n                /* \"#utility.yul\":28925:28932   */\n              0x00\n                /* \"#utility.yul\":28965:28969   */\n              0xff\n                /* \"#utility.yul\":28958:28963   */\n              dup3\n                /* \"#utility.yul\":28954:28970   */\n              and\n                /* \"#utility.yul\":28943:28970   */\n              swap1\n              pop\n                /* \"#utility.yul\":28878:28976   */\n              swap2\n              swap1\n              pop\n              jump\t// out\n                /* \"#utility.yul\":28982:29145   */\n            tag_303:\n                /* \"#utility.yul\":29049:29054   */\n              0x00\n                /* \"#utility.yul\":29074:29139   */\n              tag_563\n                /* \"#utility.yul\":29102:29138   */\n              tag_564\n                /* \"#utility.yul\":29127:29137   */\n              dup4\n                /* \"#utility.yul\":29102:29138   */\n              tag_301\n              jump\t// in\n            tag_564:\n                /* \"#utility.yul\":29074:29139   */\n              tag_302\n              jump\t// in\n            tag_563:\n                /* \"#utility.yul\":29065:29139   */\n              swap1\n              pop\n                /* \"#utility.yul\":28982:29145   */\n              swap2\n              swap1\n              pop\n              jump\t// out\n                /* \"#utility.yul\":29151:29257   */\n            tag_304:\n                /* \"#utility.yul\":29195:29203   */\n              0x00\n                /* \"#utility.yul\":29244:29249   */\n              dup2\n                /* \"#utility.yul\":29239:29242   */\n              0xa8\n                /* \"#utility.yul\":29235:29250   */\n              shr\n                /* \"#utility.yul\":29214:29250   */\n              swap1\n              pop\n                /* \"#utility.yul\":29151:29257   */\n              swap2\n              swap1\n              pop\n              jump\t// out\n                /* \"#utility.yul\":29263:29426   */\n            tag_305:\n                /* \"#utility.yul\":29330:29335   */\n              0x00\n                /* \"#utility.yul\":29355:29420   */\n              tag_567\n                /* \"#utility.yul\":29383:29419   */\n              tag_568\n                /* \"#utility.yul\":29408:29418   */\n              dup4\n                /* \"#utility.yul\":29383:29419   */\n              tag_304\n              jump\t// in\n            tag_568:\n                /* \"#utility.yul\":29355:29420   */\n              tag_302\n              jump\t// in\n            tag_567:\n                /* \"#utility.yul\":29346:29420   */\n              swap1\n              pop\n                /* \"#utility.yul\":29263:29426   */\n              swap2\n              swap1\n              pop\n              jump\t// out\n                /* \"#utility.yul\":29490:31125   */\n            tag_306:\n                /* \"#utility.yul\":29606:29609   */\n              0x00\n                /* \"#utility.yul\":29642:29646   */\n              0xc0\n                /* \"#utility.yul\":29637:29640   */\n              dup4\n                /* \"#utility.yul\":29633:29647   */\n              add\n                /* \"#utility.yul\":29673:29674   */\n              0x00\n                /* \"#utility.yul\":29757:29761   */\n              dup1\n                /* \"#utility.yul\":29750:29755   */\n              dup5\n                /* \"#utility.yul\":29746:29762   */\n              add\n                /* \"#utility.yul\":29809:29812   */\n              dup6\n                /* \"#utility.yul\":29803:29807   */\n              dup4\n                /* \"#utility.yul\":29799:29813   */\n              sub\n                /* \"#utility.yul\":29792:29796   */\n              0x00\n                /* \"#utility.yul\":29787:29790   */\n              dup8\n                /* \"#utility.yul\":29783:29797   */\n              add\n                /* \"#utility.yul\":29776:29814   */\n              mstore\n                /* \"#utility.yul\":29835:29905   */\n              tag_570\n                /* \"#utility.yul\":29900:29904   */\n              dup4\n                /* \"#utility.yul\":29886:29898   */\n              dup3\n                /* \"#utility.yul\":29835:29905   */\n              tag_295\n              jump\t// in\n            tag_570:\n                /* \"#utility.yul\":29827:29905   */\n              swap3\n              pop\n                /* \"#utility.yul\":29684:29916   */\n              pop\n                /* \"#utility.yul\":29991:29995   */\n              0x01\n                /* \"#utility.yul\":29984:29989   */\n              dup5\n                /* \"#utility.yul\":29980:29996   */\n              add\n                /* \"#utility.yul\":29974:29997   */\n              sload\n                /* \"#utility.yul\":29961:29997   */\n              swap1\n              pop\n                /* \"#utility.yul\":30030:30085   */\n              tag_571\n                /* \"#utility.yul\":30075:30084   */\n              dup2\n                /* \"#utility.yul\":30030:30085   */\n              tag_298\n              jump\t// in\n            tag_571:\n                /* \"#utility.yul\":30098:30161   */\n              tag_572\n                /* \"#utility.yul\":30155:30159   */\n              0x20\n                /* \"#utility.yul\":30150:30153   */\n              dup8\n                /* \"#utility.yul\":30146:30160   */\n              add\n                /* \"#utility.yul\":30132:30144   */\n              dup3\n                /* \"#utility.yul\":30098:30161   */\n              tag_243\n              jump\t// in\n            tag_572:\n                /* \"#utility.yul\":29926:30171   */\n              pop\n                /* \"#utility.yul\":30250:30254   */\n              0x02\n                /* \"#utility.yul\":30243:30248   */\n              dup5\n                /* \"#utility.yul\":30239:30255   */\n              add\n                /* \"#utility.yul\":30233:30256   */\n              sload\n                /* \"#utility.yul\":30220:30256   */\n              swap1\n              pop\n                /* \"#utility.yul\":30289:30344   */\n              tag_573\n                /* \"#utility.yul\":30334:30343   */\n              dup2\n                /* \"#utility.yul\":30289:30344   */\n              tag_300\n              jump\t// in\n            tag_573:\n                /* \"#utility.yul\":30357:30420   */\n              tag_574\n                /* \"#utility.yul\":30414:30418   */\n              0x40\n                /* \"#utility.yul\":30409:30412   */\n              dup8\n                /* \"#utility.yul\":30405:30419   */\n              add\n                /* \"#utility.yul\":30391:30403   */\n              dup3\n                /* \"#utility.yul\":30357:30420   */\n              tag_244\n              jump\t// in\n            tag_574:\n                /* \"#utility.yul\":30181:30430   */\n              pop\n                /* \"#utility.yul\":30502:30555   */\n              tag_575\n                /* \"#utility.yul\":30545:30554   */\n              dup2\n                /* \"#utility.yul\":30502:30555   */\n              tag_303\n              jump\t// in\n            tag_575:\n                /* \"#utility.yul\":30568:30625   */\n              tag_576\n                /* \"#utility.yul\":30619:30623   */\n              0x60\n                /* \"#utility.yul\":30614:30617   */\n              dup8\n                /* \"#utility.yul\":30610:30624   */\n              add\n                /* \"#utility.yul\":30596:30608   */\n              dup3\n                /* \"#utility.yul\":30568:30625   */\n              tag_246\n              jump\t// in\n            tag_576:\n                /* \"#utility.yul\":30440:30635   */\n              pop\n                /* \"#utility.yul\":30706:30759   */\n              tag_577\n                /* \"#utility.yul\":30749:30758   */\n              dup2\n                /* \"#utility.yul\":30706:30759   */\n              tag_305\n              jump\t// in\n            tag_577:\n                /* \"#utility.yul\":30772:30829   */\n              tag_578\n                /* \"#utility.yul\":30823:30827   */\n              0x80\n                /* \"#utility.yul\":30818:30821   */\n              dup8\n                /* \"#utility.yul\":30814:30828   */\n              add\n                /* \"#utility.yul\":30800:30812   */\n              dup3\n                /* \"#utility.yul\":30772:30829   */\n              tag_246\n              jump\t// in\n            tag_578:\n                /* \"#utility.yul\":30645:30839   */\n              pop\n                /* \"#utility.yul\":30918:30922   */\n              0x03\n                /* \"#utility.yul\":30911:30916   */\n              dup5\n                /* \"#utility.yul\":30907:30923   */\n              add\n                /* \"#utility.yul\":30901:30924   */\n              sload\n                /* \"#utility.yul\":30888:30924   */\n              swap1\n              pop\n                /* \"#utility.yul\":30957:31012   */\n              tag_579\n                /* \"#utility.yul\":31002:31011   */\n              dup2\n                /* \"#utility.yul\":30957:31012   */\n              tag_298\n              jump\t// in\n            tag_579:\n                /* \"#utility.yul\":31025:31088   */\n              tag_580\n                /* \"#utility.yul\":31082:31086   */\n              0xa0\n                /* \"#utility.yul\":31077:31080   */\n              dup8\n                /* \"#utility.yul\":31073:31087   */\n              add\n                /* \"#utility.yul\":31059:31071   */\n              dup3\n                /* \"#utility.yul\":31025:31088   */\n              tag_243\n              jump\t// in\n            tag_580:\n                /* \"#utility.yul\":30849:31098   */\n              pop\n                /* \"#utility.yul\":31115:31119   */\n              dup2\n                /* \"#utility.yul\":31108:31119   */\n              swap3\n              pop\n                /* \"#utility.yul\":29611:31125   */\n              pop\n              pop\n                /* \"#utility.yul\":29490:31125   */\n              swap3\n              swap2\n              pop\n              pop\n              jump\t// out\n                /* \"#utility.yul\":31131:31498   */\n            tag_197:\n                /* \"#utility.yul\":31271:31275   */\n              0x00\n                /* \"#utility.yul\":31309:31311   */\n              0x20\n                /* \"#utility.yul\":31298:31307   */\n              dup3\n                /* \"#utility.yul\":31294:31312   */\n              add\n                /* \"#utility.yul\":31286:31312   */\n              swap1\n              pop\n                /* \"#utility.yul\":31358:31367   */\n              dup2\n                /* \"#utility.yul\":31352:31356   */\n              dup2\n                /* \"#utility.yul\":31348:31368   */\n              sub\n                /* \"#utility.yul\":31344:31345   */\n              0x00\n                /* \"#utility.yul\":31333:31342   */\n              dup4\n                /* \"#utility.yul\":31329:31346   */\n              add\n                /* \"#utility.yul\":31322:31369   */\n              mstore\n                /* \"#utility.yul\":31386:31491   */\n              tag_582\n                /* \"#utility.yul\":31486:31490   */\n              dup2\n                /* \"#utility.yul\":31477:31483   */\n              dup5\n                /* \"#utility.yul\":31386:31491   */\n              tag_306\n              jump\t// in\n            tag_582:\n                /* \"#utility.yul\":31378:31491   */\n              swap1\n              pop\n                /* \"#utility.yul\":31131:31498   */\n              swap3\n              swap2\n              pop\n              pop\n              jump\t// out\n                /* \"#utility.yul\":31504:31727   */\n            tag_307:\n                /* \"#utility.yul\":31644:31678   */\n              0x596f75206861766520616c7265616479206261636b6564207468697320726571\n                /* \"#utility.yul\":31640:31641   */\n              0x00\n                /* \"#utility.yul\":31632:31638   */\n              dup3\n                /* \"#utility.yul\":31628:31642   */\n              add\n                /* \"#utility.yul\":31621:31679   */\n              mstore\n                /* \"#utility.yul\":31713:31719   */\n              0x7565737400000000000000000000000000000000000000000000000000000000\n                /* \"#utility.yul\":31708:31710   */\n              0x20\n                /* \"#utility.yul\":31700:31706   */\n              dup3\n                /* \"#utility.yul\":31696:31711   */\n              add\n                /* \"#utility.yul\":31689:31720   */\n              mstore\n                /* \"#utility.yul\":31504:31727   */\n              pop\n              jump\t// out\n                /* \"#utility.yul\":31733:32099   */\n            tag_308:\n                /* \"#utility.yul\":31875:31878   */\n              0x00\n                /* \"#utility.yul\":31896:31963   */\n              tag_585\n                /* \"#utility.yul\":31960:31962   */\n              0x24\n                /* \"#utility.yul\":31955:31958   */\n              dup4\n                /* \"#utility.yul\":31896:31963   */\n              tag_260\n              jump\t// in\n            tag_585:\n                /* \"#utility.yul\":31889:31963   */\n              swap2\n              pop\n                /* \"#utility.yul\":31972:32065   */\n              tag_586\n                /* \"#utility.yul\":32061:32064   */\n              dup3\n                /* \"#utility.yul\":31972:32065   */\n              tag_307\n              jump\t// in\n            tag_586:\n                /* \"#utility.yul\":32090:32092   */\n              0x40\n                /* \"#utility.yul\":32085:32088   */\n              dup3\n                /* \"#utility.yul\":32081:32093   */\n              add\n                /* \"#utility.yul\":32074:32093   */\n              swap1\n              pop\n                /* \"#utility.yul\":31733:32099   */\n              swap2\n              swap1\n              pop\n              jump\t// out\n                /* \"#utility.yul\":32105:32524   */\n            tag_200:\n                /* \"#utility.yul\":32271:32275   */\n              0x00\n                /* \"#utility.yul\":32309:32311   */\n              0x20\n                /* \"#utility.yul\":32298:32307   */\n              dup3\n                /* \"#utility.yul\":32294:32312   */\n              add\n                /* \"#utility.yul\":32286:32312   */\n              swap1\n              pop\n                /* \"#utility.yul\":32358:32367   */\n              dup2\n                /* \"#utility.yul\":32352:32356   */\n              dup2\n                /* \"#utility.yul\":32348:32368   */\n              sub\n                /* \"#utility.yul\":32344:32345   */\n              0x00\n                /* \"#utility.yul\":32333:32342   */\n              dup4\n                /* \"#utility.yul\":32329:32346   */\n              add\n                /* \"#utility.yul\":32322:32369   */\n              mstore\n                /* \"#utility.yul\":32386:32517   */\n              tag_588\n                /* \"#utility.yul\":32512:32516   */\n              dup2\n                /* \"#utility.yul\":32386:32517   */\n              tag_308\n              jump\t// in\n            tag_588:\n                /* \"#utility.yul\":32378:32517   */\n              swap1\n              pop\n                /* \"#utility.yul\":32105:32524   */\n              swap2\n              swap1\n              pop\n              jump\t// out\n                /* \"#utility.yul\":32530:32763   */\n            tag_202:\n                /* \"#utility.yul\":32569:32572   */\n              0x00\n                /* \"#utility.yul\":32592:32616   */\n              tag_590\n                /* \"#utility.yul\":32610:32615   */\n              dup3\n                /* \"#utility.yul\":32592:32616   */\n              tag_228\n              jump\t// in\n            tag_590:\n                /* \"#utility.yul\":32583:32616   */\n              swap2\n              pop\n                /* \"#utility.yul\":32638:32704   */\n              0xffffffffffffffffffffffffffffffffffffffffffffffffffffffffffffffff\n                /* \"#utility.yul\":32631:32636   */\n              dup3\n                /* \"#utility.yul\":32628:32705   */\n              sub\n                /* \"#utility.yul\":32625:32728   */\n              tag_591\n              jumpi\n                /* \"#utility.yul\":32708:32726   */\n              tag_592\n              tag_278\n              jump\t// in\n            tag_592:\n                /* \"#utility.yul\":32625:32728   */\n            tag_591:\n                /* \"#utility.yul\":32755:32756   */\n              0x01\n                /* \"#utility.yul\":32748:32753   */\n              dup3\n                /* \"#utility.yul\":32744:32757   */\n              add\n                /* \"#utility.yul\":32737:32757   */\n              swap1\n              pop\n                /* \"#utility.yul\":32530:32763   */\n              swap2\n              swap1\n              pop\n              jump\t// out\n\n            auxdata: 0xa2646970667358221220eb348585f166299c38b9acc3cdd4e1cc85efcaa61a0f840ded865a657541fdde64736f6c634300080d0033\n        }\n    }\n\n    auxdata: 0xa26469706673582212201d293578519a3c06d4c1c87d3cc795ca33783c41031bb6c40bc3f3b3f6b011e464736f6c634300080d0033\n}\n","bytecode":{"linkReferences":{},"object":"608060405234801561001057600080fd5b50612f63806100206000396000f3fe6080604052600436106100345760003560e01c8063339d50a5146100395780634acb9d4f14610076578063a3303a75146100a1575b600080fd5b34801561004557600080fd5b50610060600480360381019061005b91906102b6565b6100bd565b60405161006d9190610324565b60405180910390f35b34801561008257600080fd5b5061008b6100fc565b60405161009891906103fd565b60405180910390f35b6100bb60048036038101906100b691906102b6565b61018a565b005b600081815481106100cd57600080fd5b906000526020600020016000915054906101000a900473ffffffffffffffffffffffffffffffffffffffff1681565b6060600080548060200260200160405190810160405280929190818152602001828054801561018057602002820191906000526020600020905b8160009054906101000a900473ffffffffffffffffffffffffffffffffffffffff1673ffffffffffffffffffffffffffffffffffffffff1681526020019060010190808311610136575b5050505050905090565b600034116101cd576040517f08c379a00000000000000000000000000000000000000000000000000000000081526004016101c4906104c8565b60405180910390fd5b600081336040516101dd9061026e565b6101e89291906104f7565b604051809103906000f080158015610204573d6000803e3d6000fd5b5090506000819080600181540180825580915050600190039060005260206000200160009091909190916101000a81548173ffffffffffffffffffffffffffffffffffffffff021916908373ffffffffffffffffffffffffffffffffffffffff1602179055505050565b612a0d8061052183390190565b600080fd5b6000819050919050565b61029381610280565b811461029e57600080fd5b50565b6000813590506102b08161028a565b92915050565b6000602082840312156102cc576102cb61027b565b5b60006102da848285016102a1565b91505092915050565b600073ffffffffffffffffffffffffffffffffffffffff82169050919050565b600061030e826102e3565b9050919050565b61031e81610303565b82525050565b60006020820190506103396000830184610315565b92915050565b600081519050919050565b600082825260208201905092915050565b6000819050602082019050919050565b61037481610303565b82525050565b6000610386838361036b565b60208301905092915050565b6000602082019050919050565b60006103aa8261033f565b6103b4818561034a565b93506103bf8361035b565b8060005b838110156103f05781516103d7888261037a565b97506103e283610392565b9250506001810190506103c3565b5085935050505092915050565b60006020820190508181036000830152610417818461039f565b905092915050565b600082825260208201905092915050565b7f546f2063726561746520612063616d706169676e2c20796f75206e656564207460008201527f6f207472616e736665722066756e647320746f2070617920666f72207468652060208201527f6761732066656573000000000000000000000000000000000000000000000000604082015250565b60006104b260488361041f565b91506104bd82610430565b606082019050919050565b600060208201905081810360008301526104e1816104a5565b9050919050565b6104f181610280565b82525050565b600060408201905061050c60008301856104e8565b6105196020830184610315565b939250505056fe60806040523480156200001157600080fd5b5060405162002a0d38038062002a0d83398181016040528101906200003791906200012c565b80600160006101000a81548173ffffffffffffffffffffffffffffffffffffffff021916908373ffffffffffffffffffffffffffffffffffffffff16021790555081600381905550505062000173565b600080fd5b6000819050919050565b620000a1816200008c565b8114620000ad57600080fd5b50565b600081519050620000c18162000096565b92915050565b600073ffffffffffffffffffffffffffffffffffffffff82169050919050565b6000620000f482620000c7565b9050919050565b6200010681620000e7565b81146200011257600080fd5b50565b6000815190506200012681620000fb565b92915050565b6000806040838503121562000146576200014562000087565b5b60006200015685828601620000b0565b9250506020620001698582860162000115565b9150509250929050565b61288a80620001836000396000f3fe6080604052600436106100c25760003560e01c80638a9cfd551161007f5780639213aa33116100595780639213aa3314610262578063b85dfb801461029f578063b8f4ba03146102dc578063d7d1bbdb1461031e576100c2565b80638a9cfd55146101f05780638dde08401461022d578063900551a814610237576100c2565b806303441006146100c757806318513993146100f057806330f3e3da1461012d578063481c6a751461015857806381d12c58146101835780638813ce12146101c5575b600080fd5b3480156100d357600080fd5b506100ee60048036038101906100e991906117b5565b610347565b005b3480156100fc57600080fd5b5061011760048036038101906101129190611840565b6105cc565b6040516101249190611a8a565b60405180910390f35b34801561013957600080fd5b506101426108b0565b60405161014f9190611b7c565b60405180910390f35b34801561016457600080fd5b5061016d61093e565b60405161017a9190611bad565b60405180910390f35b34801561018f57600080fd5b506101aa60048036038101906101a591906117b5565b610964565b6040516101bc96959493929190611c30565b60405180910390f35b3480156101d157600080fd5b506101da610a72565b6040516101e79190611a8a565b60405180910390f35b3480156101fc57600080fd5b5061021760048036038101906102129190611dcd565b610c03565b6040516102249190611ec5565b60405180910390f35b610235610dda565b005b34801561024357600080fd5b5061024c610f24565b6040516102599190611ee7565b60405180910390f35b34801561026e57600080fd5b50610289600480360381019061028491906117b5565b610fbc565b6040516102969190611f11565b60405180910390f35b3480156102ab57600080fd5b506102c660048036038101906102c19190611840565b610ffb565b6040516102d39190611ee7565b60405180910390f35b3480156102e857600080fd5b5061030360048036038101906102fe9190611f2c565b611013565b60405161031596959493929190611c30565b60405180910390f35b34801561032a57600080fd5b50610345600480360381019061034091906117b5565b61112e565b005b600160009054906101000a900473ffffffffffffffffffffffffffffffffffffffff1673ffffffffffffffffffffffffffffffffffffffff163373ffffffffffffffffffffffffffffffffffffffff16146103d7576040517f08c379a00000000000000000000000000000000000000000000000000000000081526004016103ce90611fde565b60405180910390fd5b60008082815481106103ec576103eb611ffe565b5b906000526020600020906004020190506002808054905061040d919061208b565b816003015411610452576040517f08c379a00000000000000000000000000000000000000000000000000000000081526004016104499061212e565b60405180910390fd5b8060020160149054906101000a900460ff16156104a4576040517f08c379a000000000000000000000000000000000000000000000000000000000815260040161049b906121c0565b60405180910390fd5b8060020160159054906101000a900460ff16156104f6576040517f08c379a00000000000000000000000000000000000000000000000000000000081526004016104ed9061222c565b60405180910390fd5b8060010154471161053c576040517f08c379a0000000000000000000000000000000000000000000000000000000008152600401610533906122be565b60405180910390fd5b60018160020160146101000a81548160ff0219169083151502179055508060020160009054906101000a900473ffffffffffffffffffffffffffffffffffffffff1673ffffffffffffffffffffffffffffffffffffffff166108fc82600101549081150290604051600060405180830381858888f193505050501580156105c7573d6000803e3d6000fd5b505050565b6060600160009054906101000a900473ffffffffffffffffffffffffffffffffffffffff1673ffffffffffffffffffffffffffffffffffffffff163373ffffffffffffffffffffffffffffffffffffffff161461065e576040517f08c379a000000000000000000000000000000000000000000000000000000000815260040161065590611fde565b60405180910390fd5b600354600460008473ffffffffffffffffffffffffffffffffffffffff1673ffffffffffffffffffffffffffffffffffffffff1681526020019081526020016000205410156106e2576040517f08c379a00000000000000000000000000000000000000000000000000000000081526004016106d990612350565b60405180910390fd5b600560008373ffffffffffffffffffffffffffffffffffffffff1673ffffffffffffffffffffffffffffffffffffffff168152602001908152602001600020805480602002602001604051908101604052809291908181526020016000905b828210156108a557838290600052602060002090600402016040518060c00160405290816000820180546107749061239f565b80601f01602080910402602001604051908101604052809291908181526020018280546107a09061239f565b80156107ed5780601f106107c2576101008083540402835291602001916107ed565b820191906000526020600020905b8154815290600101906020018083116107d057829003601f168201915b50505050508152602001600182015481526020016002820160009054906101000a900473ffffffffffffffffffffffffffffffffffffffff1673ffffffffffffffffffffffffffffffffffffffff1673ffffffffffffffffffffffffffffffffffffffff1681526020016002820160149054906101000a900460ff161515151581526020016002820160159054906101000a900460ff1615151515815260200160038201548152505081526020019060010190610741565b505050509050919050565b6060600280548060200260200160405190810160405280929190818152602001828054801561093457602002820191906000526020600020905b8160009054906101000a900473ffffffffffffffffffffffffffffffffffffffff1673ffffffffffffffffffffffffffffffffffffffff16815260200190600101908083116108ea575b5050505050905090565b600160009054906101000a900473ffffffffffffffffffffffffffffffffffffffff1681565b6000818154811061097457600080fd5b90600052602060002090600402016000915090508060000180546109979061239f565b80601f01602080910402602001604051908101604052809291908181526020018280546109c39061239f565b8015610a105780601f106109e557610100808354040283529160200191610a10565b820191906000526020600020905b8154815290600101906020018083116109f357829003601f168201915b5050505050908060010154908060020160009054906101000a900473ffffffffffffffffffffffffffffffffffffffff16908060020160149054906101000a900460ff16908060020160159054906101000a900460ff16908060030154905086565b60606000805480602002602001604051908101604052809291908181526020016000905b82821015610bfa57838290600052602060002090600402016040518060c0016040529081600082018054610ac99061239f565b80601f0160208091040260200160405190810160405280929190818152602001828054610af59061239f565b8015610b425780601f10610b1757610100808354040283529160200191610b42565b820191906000526020600020905b815481529060010190602001808311610b2557829003601f168201915b50505050508152602001600182015481526020016002820160009054906101000a900473ffffffffffffffffffffffffffffffffffffffff1673ffffffffffffffffffffffffffffffffffffffff1673ffffffffffffffffffffffffffffffffffffffff1681526020016002820160149054906101000a900460ff161515151581526020016002820160159054906101000a900460ff1615151515815260200160038201548152505081526020019060010190610a96565b50505050905090565b610c0b6115eb565b600160009054906101000a900473ffffffffffffffffffffffffffffffffffffffff1673ffffffffffffffffffffffffffffffffffffffff163373ffffffffffffffffffffffffffffffffffffffff1614610c9b576040517f08c379a0000000000000000000000000000000000000000000000000000000008152600401610c9290611fde565b60405180910390fd5b60006040518060c001604052808681526020018581526020018473ffffffffffffffffffffffffffffffffffffffff1681526020016000151581526020016000151581526020016000815250905060008190806001815401808255809150506001900390600052602060002090600402016000909190919091506000820151816000019080519060200190610d3192919061163b565b506020820151816001015560408201518160020160006101000a81548173ffffffffffffffffffffffffffffffffffffffff021916908373ffffffffffffffffffffffffffffffffffffffff16021790555060608201518160020160146101000a81548160ff02191690831515021790555060808201518160020160156101000a81548160ff02191690831515021790555060a082015181600301555050809150509392505050565b600354341015610e1f576040517f08c379a0000000000000000000000000000000000000000000000000000000008152600401610e1690612442565b60405180910390fd5b34600460003373ffffffffffffffffffffffffffffffffffffffff1673ffffffffffffffffffffffffffffffffffffffff1681526020019081526020016000206000828254610e6e9190612462565b92505081905550600354600460003373ffffffffffffffffffffffffffffffffffffffff1673ffffffffffffffffffffffffffffffffffffffff168152602001908152602001600020541115610f22576002339080600181540180825580915050600190039060005260206000200160009091909190916101000a81548173ffffffffffffffffffffffffffffffffffffffff021916908373ffffffffffffffffffffffffffffffffffffffff1602179055505b565b6000600160009054906101000a900473ffffffffffffffffffffffffffffffffffffffff1673ffffffffffffffffffffffffffffffffffffffff163373ffffffffffffffffffffffffffffffffffffffff1614610fb6576040517f08c379a0000000000000000000000000000000000000000000000000000000008152600401610fad90611fde565b60405180910390fd5b47905090565b60028181548110610fcc57600080fd5b906000526020600020016000915054906101000a900473ffffffffffffffffffffffffffffffffffffffff1681565b60046020528060005260406000206000915090505481565b6005602052816000526040600020818154811061102f57600080fd5b9060005260206000209060040201600091509150508060000180546110539061239f565b80601f016020809104026020016040519081016040528092919081815260200182805461107f9061239f565b80156110cc5780601f106110a1576101008083540402835291602001916110cc565b820191906000526020600020905b8154815290600101906020018083116110af57829003601f168201915b5050505050908060010154908060020160009054906101000a900473ffffffffffffffffffffffffffffffffffffffff16908060020160149054906101000a900460ff16908060020160159054906101000a900460ff16908060030154905086565b600354600460003373ffffffffffffffffffffffffffffffffffffffff1673ffffffffffffffffffffffffffffffffffffffff1681526020019081526020016000205410156111b2576040517f08c379a00000000000000000000000000000000000000000000000000000000081526004016111a99061252a565b60405180910390fd5b60008082815481106111c7576111c6611ffe565b5b906000526020600020906004020190506000600560003373ffffffffffffffffffffffffffffffffffffffff1673ffffffffffffffffffffffffffffffffffffffff168152602001908152602001600020805480602002602001604051908101604052809291908181526020016000905b8282101561139c57838290600052602060002090600402016040518060c001604052908160008201805461126b9061239f565b80601f01602080910402602001604051908101604052809291908181526020018280546112979061239f565b80156112e45780601f106112b9576101008083540402835291602001916112e4565b820191906000526020600020905b8154815290600101906020018083116112c757829003601f168201915b50505050508152602001600182015481526020016002820160009054906101000a900473ffffffffffffffffffffffffffffffffffffffff1673ffffffffffffffffffffffffffffffffffffffff1673ffffffffffffffffffffffffffffffffffffffff1681526020016002820160149054906101000a900460ff161515151581526020016002820160159054906101000a900460ff1615151515815260200160038201548152505081526020019060010190611238565b50505050905060005b8151811015611469578181815181106113c1576113c0611ffe565b5b60200260200101516040516020016113d99190611ec5565b60405160208183030381529060405280519060200120836040516020016114009190612758565b6040516020818303038152906040528051906020012014611456576040517f08c379a000000000000000000000000000000000000000000000000000000000815260040161144d906127ec565b60405180910390fd5b80806114619061280c565b9150506113a5565b50600182600301600082825461147f9190612462565b92505081905550600560003373ffffffffffffffffffffffffffffffffffffffff1673ffffffffffffffffffffffffffffffffffffffff16815260200190815260200160002082908060018154018082558091505060019003906000526020600020906004020160009091909190915060008201816000019080546115039061239f565b61150e9291906116c1565b50600182015481600101556002820160009054906101000a900473ffffffffffffffffffffffffffffffffffffffff168160020160006101000a81548173ffffffffffffffffffffffffffffffffffffffff021916908373ffffffffffffffffffffffffffffffffffffffff1602179055506002820160149054906101000a900460ff168160020160146101000a81548160ff0219169083151502179055506002820160159054906101000a900460ff168160020160156101000a81548160ff021916908315150217905550600382015481600301555050505050565b6040518060c001604052806060815260200160008152602001600073ffffffffffffffffffffffffffffffffffffffff168152602001600015158152602001600015158152602001600081525090565b8280546116479061239f565b90600052602060002090601f01602090048101928261166957600085556116b0565b82601f1061168257805160ff19168380011785556116b0565b828001600101855582156116b0579182015b828111156116af578251825591602001919060010190611694565b5b5090506116bd919061174e565b5090565b8280546116cd9061239f565b90600052602060002090601f0160209004810192826116ef576000855561173d565b82601f10611700578054855561173d565b8280016001018555821561173d57600052602060002091601f016020900482015b8281111561173c578254825591600101919060010190611721565b5b50905061174a919061174e565b5090565b5b8082111561176757600081600090555060010161174f565b5090565b6000604051905090565b600080fd5b600080fd5b6000819050919050565b6117928161177f565b811461179d57600080fd5b50565b6000813590506117af81611789565b92915050565b6000602082840312156117cb576117ca611775565b5b60006117d9848285016117a0565b91505092915050565b600073ffffffffffffffffffffffffffffffffffffffff82169050919050565b600061180d826117e2565b9050919050565b61181d81611802565b811461182857600080fd5b50565b60008135905061183a81611814565b92915050565b60006020828403121561185657611855611775565b5b60006118648482850161182b565b91505092915050565b600081519050919050565b600082825260208201905092915050565b6000819050602082019050919050565b600081519050919050565b600082825260208201905092915050565b60005b838110156118d35780820151818401526020810190506118b8565b838111156118e2576000848401525b50505050565b6000601f19601f8301169050919050565b600061190482611899565b61190e81856118a4565b935061191e8185602086016118b5565b611927816118e8565b840191505092915050565b61193b8161177f565b82525050565b61194a81611802565b82525050565b60008115159050919050565b61196581611950565b82525050565b600060c083016000830151848203600086015261198882826118f9565b915050602083015161199d6020860182611932565b5060408301516119b06040860182611941565b5060608301516119c3606086018261195c565b5060808301516119d6608086018261195c565b5060a08301516119e960a0860182611932565b508091505092915050565b6000611a00838361196b565b905092915050565b6000602082019050919050565b6000611a208261186d565b611a2a8185611878565b935083602082028501611a3c85611889565b8060005b85811015611a785784840389528151611a5985826119f4565b9450611a6483611a08565b925060208a01995050600181019050611a40565b50829750879550505050505092915050565b60006020820190508181036000830152611aa48184611a15565b905092915050565b600081519050919050565b600082825260208201905092915050565b6000819050602082019050919050565b6000611ae3826117e2565b9050919050565b611af381611ad8565b82525050565b6000611b058383611aea565b60208301905092915050565b6000602082019050919050565b6000611b2982611aac565b611b338185611ab7565b9350611b3e83611ac8565b8060005b83811015611b6f578151611b568882611af9565b9750611b6183611b11565b925050600181019050611b42565b5085935050505092915050565b60006020820190508181036000830152611b968184611b1e565b905092915050565b611ba781611802565b82525050565b6000602082019050611bc26000830184611b9e565b92915050565b600082825260208201905092915050565b6000611be482611899565b611bee8185611bc8565b9350611bfe8185602086016118b5565b611c07816118e8565b840191505092915050565b611c1b8161177f565b82525050565b611c2a81611950565b82525050565b600060c0820190508181036000830152611c4a8189611bd9565b9050611c596020830188611c12565b611c666040830187611b9e565b611c736060830186611c21565b611c806080830185611c21565b611c8d60a0830184611c12565b979650505050505050565b600080fd5b600080fd5b7f4e487b7100000000000000000000000000000000000000000000000000000000600052604160045260246000fd5b611cda826118e8565b810181811067ffffffffffffffff82111715611cf957611cf8611ca2565b5b80604052505050565b6000611d0c61176b565b9050611d188282611cd1565b919050565b600067ffffffffffffffff821115611d3857611d37611ca2565b5b611d41826118e8565b9050602081019050919050565b82818337600083830152505050565b6000611d70611d6b84611d1d565b611d02565b905082815260208101848484011115611d8c57611d8b611c9d565b5b611d97848285611d4e565b509392505050565b600082601f830112611db457611db3611c98565b5b8135611dc4848260208601611d5d565b91505092915050565b600080600060608486031215611de657611de5611775565b5b600084013567ffffffffffffffff811115611e0457611e0361177a565b5b611e1086828701611d9f565b9350506020611e21868287016117a0565b9250506040611e328682870161182b565b9150509250925092565b600060c0830160008301518482036000860152611e5982826118f9565b9150506020830151611e6e6020860182611932565b506040830151611e816040860182611941565b506060830151611e94606086018261195c565b506080830151611ea7608086018261195c565b5060a0830151611eba60a0860182611932565b508091505092915050565b60006020820190508181036000830152611edf8184611e3c565b905092915050565b6000602082019050611efc6000830184611c12565b92915050565b611f0b81611ad8565b82525050565b6000602082019050611f266000830184611f02565b92915050565b60008060408385031215611f4357611f42611775565b5b6000611f518582860161182b565b9250506020611f62858286016117a0565b9150509250929050565b7f546869732066756e6374696f6e2063616e206f6e6c792062652063616c6c656460008201527f20627920746865206d616e616765720000000000000000000000000000000000602082015250565b6000611fc8602f83611bc8565b9150611fd382611f6c565b604082019050919050565b60006020820190508181036000830152611ff781611fbb565b9050919050565b7f4e487b7100000000000000000000000000000000000000000000000000000000600052603260045260246000fd5b7f4e487b7100000000000000000000000000000000000000000000000000000000600052601260045260246000fd5b7f4e487b7100000000000000000000000000000000000000000000000000000000600052601160045260246000fd5b60006120968261177f565b91506120a18361177f565b9250826120b1576120b061202d565b5b828204905092915050565b7f546865726520617265206e6f7420656e6f75676820706f73697469766573207660008201527f6f74657300000000000000000000000000000000000000000000000000000000602082015250565b6000612118602483611bc8565b9150612123826120bc565b604082019050919050565b600060208201905081810360008301526121478161210b565b9050919050565b7f5468697320726571756573742068617320616c7265616479206265656e20636f60008201527f6d706c6574656400000000000000000000000000000000000000000000000000602082015250565b60006121aa602783611bc8565b91506121b58261214e565b604082019050919050565b600060208201905081810360008301526121d98161219d565b9050919050565b7f54686973207265717565737420686173206265656e2063616e63656c65640000600082015250565b6000612216601e83611bc8565b9150612221826121e0565b602082019050919050565b6000602082019050818103600083015261224581612209565b9050919050565b7f5468652063616d706169676e20646f6573206e6f74206861766520656e6f756760008201527f682066756e647300000000000000000000000000000000000000000000000000602082015250565b60006122a8602783611bc8565b91506122b38261224c565b604082019050919050565b600060208201905081810360008301526122d78161229b565b9050919050565b7f54686520676976656e2061646472657373206973206e6f742061206261636b6560008201527f7200000000000000000000000000000000000000000000000000000000000000602082015250565b600061233a602183611bc8565b9150612345826122de565b604082019050919050565b600060208201905081810360008301526123698161232d565b9050919050565b7f4e487b7100000000000000000000000000000000000000000000000000000000600052602260045260246000fd5b600060028204905060018216806123b757607f821691505b6020821081036123ca576123c9612370565b5b50919050565b7f596f75206e65656420746f2073656e64206174206c6561737420746865206d6960008201527f6e696d756d20636f6e747269627574696f6e0000000000000000000000000000602082015250565b600061242c603283611bc8565b9150612437826123d0565b604082019050919050565b6000602082019050818103600083015261245b8161241f565b9050919050565b600061246d8261177f565b91506124788361177f565b9250827fffffffffffffffffffffffffffffffffffffffffffffffffffffffffffffffff038211156124ad576124ac61205c565b5b828201905092915050565b7f546869732066756e6374696f6e2063616e206f6e6c792062652063616c6c656460008201527f2062792061206261636b65720000000000000000000000000000000000000000602082015250565b6000612514602c83611bc8565b915061251f826124b8565b604082019050919050565b6000602082019050818103600083015261254381612507565b9050919050565b60008190508160005260206000209050919050565b6000815461256c8161239f565b61257681866118a4565b9450600182166000811461259157600181146125a3576125d6565b60ff19831686526020860193506125d6565b6125ac8561254a565b60005b838110156125ce578154818901526001820191506020810190506125af565b808801955050505b50505092915050565b60008160001c9050919050565b6000819050919050565b6000612609612604836125df565b6125ec565b9050919050565b600073ffffffffffffffffffffffffffffffffffffffff82169050919050565b600061264361263e836125df565b612610565b9050919050565b60008160a01c9050919050565b600060ff82169050919050565b60006126776126728361264a565b612657565b9050919050565b60008160a81c9050919050565b600061269e6126998361267e565b612657565b9050919050565b600060c08301600080840185830360008701526126c2838261255f565b925050600184015490506126d5816125f6565b6126e26020870182611932565b50600284015490506126f381612630565b6127006040870182611941565b5061270a81612664565b612717606087018261195c565b506127218161268b565b61272e608087018261195c565b506003840154905061273f816125f6565b61274c60a0870182611932565b50819250505092915050565b6000602082019050818103600083015261277281846126a5565b905092915050565b7f596f75206861766520616c7265616479206261636b656420746869732072657160008201527f7565737400000000000000000000000000000000000000000000000000000000602082015250565b60006127d6602483611bc8565b91506127e18261277a565b604082019050919050565b60006020820190508181036000830152612805816127c9565b9050919050565b60006128178261177f565b91507fffffffffffffffffffffffffffffffffffffffffffffffffffffffffffffffff82036128495761284861205c565b5b60018201905091905056fea2646970667358221220eb348585f166299c38b9acc3cdd4e1cc85efcaa61a0f840ded865a657541fdde64736f6c634300080d0033a26469706673582212201d293578519a3c06d4c1c87d3cc795ca33783c41031bb6c40bc3f3b3f6b011e464736f6c634300080d0033","opcodes":"PUSH1 0x80 PUSH1 0x40 MSTORE CALLVALUE DUP1 ISZERO PUSH2 0x10 JUMPI PUSH1 0x0 DUP1 REVERT JUMPDEST POP PUSH2 0x2F63 DUP1 PUSH2 0x20 PUSH1 0x0 CODECOPY PUSH1 0x0 RETURN INVALID PUSH1 0x80 PUSH1 0x40 MSTORE PUSH1 0x4 CALLDATASIZE LT PUSH2 0x34 JUMPI PUSH1 0x0 CALLDATALOAD PUSH1 0xE0 SHR DUP1 PUSH4 0x339D50A5 EQ PUSH2 0x39 JUMPI DUP1 PUSH4 0x4ACB9D4F EQ PUSH2 0x76 JUMPI DUP1 PUSH4 0xA3303A75 EQ PUSH2 0xA1 JUMPI JUMPDEST PUSH1 0x0 DUP1 REVERT JUMPDEST CALLVALUE DUP1 ISZERO PUSH2 0x45 JUMPI PUSH1 0x0 DUP1 REVERT JUMPDEST POP PUSH2 0x60 PUSH1 0x4 DUP1 CALLDATASIZE SUB DUP2 ADD SWAP1 PUSH2 0x5B SWAP2 SWAP1 PUSH2 0x2B6 JUMP JUMPDEST PUSH2 0xBD JUMP JUMPDEST PUSH1 0x40 MLOAD PUSH2 0x6D SWAP2 SWAP1 PUSH2 0x324 JUMP JUMPDEST PUSH1 0x40 MLOAD DUP1 SWAP2 SUB SWAP1 RETURN JUMPDEST CALLVALUE DUP1 ISZERO PUSH2 0x82 JUMPI PUSH1 0x0 DUP1 REVERT JUMPDEST POP PUSH2 0x8B PUSH2 0xFC JUMP JUMPDEST PUSH1 0x40 MLOAD PUSH2 0x98 SWAP2 SWAP1 PUSH2 0x3FD JUMP JUMPDEST PUSH1 0x40 MLOAD DUP1 SWAP2 SUB SWAP1 RETURN JUMPDEST PUSH2 0xBB PUSH1 0x4 DUP1 CALLDATASIZE SUB DUP2 ADD SWAP1 PUSH2 0xB6 SWAP2 SWAP1 PUSH2 0x2B6 JUMP JUMPDEST PUSH2 0x18A JUMP JUMPDEST STOP JUMPDEST PUSH1 0x0 DUP2 DUP2 SLOAD DUP2 LT PUSH2 0xCD JUMPI PUSH1 0x0 DUP1 REVERT JUMPDEST SWAP1 PUSH1 0x0 MSTORE PUSH1 0x20 PUSH1 0x0 KECCAK256 ADD PUSH1 0x0 SWAP2 POP SLOAD SWAP1 PUSH2 0x100 EXP SWAP1 DIV PUSH20 0xFFFFFFFFFFFFFFFFFFFFFFFFFFFFFFFFFFFFFFFF AND DUP2 JUMP JUMPDEST PUSH1 0x60 PUSH1 0x0 DUP1 SLOAD DUP1 PUSH1 0x20 MUL PUSH1 0x20 ADD PUSH1 0x40 MLOAD SWAP1 DUP2 ADD PUSH1 0x40 MSTORE DUP1 SWAP3 SWAP2 SWAP1 DUP2 DUP2 MSTORE PUSH1 0x20 ADD DUP3 DUP1 SLOAD DUP1 ISZERO PUSH2 0x180 JUMPI PUSH1 0x20 MUL DUP3 ADD SWAP2 SWAP1 PUSH1 0x0 MSTORE PUSH1 0x20 PUSH1 0x0 KECCAK256 SWAP1 JUMPDEST DUP2 PUSH1 0x0 SWAP1 SLOAD SWAP1 PUSH2 0x100 EXP SWAP1 DIV PUSH20 0xFFFFFFFFFFFFFFFFFFFFFFFFFFFFFFFFFFFFFFFF AND PUSH20 0xFFFFFFFFFFFFFFFFFFFFFFFFFFFFFFFFFFFFFFFF AND DUP2 MSTORE PUSH1 0x20 ADD SWAP1 PUSH1 0x1 ADD SWAP1 DUP1 DUP4 GT PUSH2 0x136 JUMPI JUMPDEST POP POP POP POP POP SWAP1 POP SWAP1 JUMP JUMPDEST PUSH1 0x0 CALLVALUE GT PUSH2 0x1CD JUMPI PUSH1 0x40 MLOAD PUSH32 0x8C379A000000000000000000000000000000000000000000000000000000000 DUP2 MSTORE PUSH1 0x4 ADD PUSH2 0x1C4 SWAP1 PUSH2 0x4C8 JUMP JUMPDEST PUSH1 0x40 MLOAD DUP1 SWAP2 SUB SWAP1 REVERT JUMPDEST PUSH1 0x0 DUP2 CALLER PUSH1 0x40 MLOAD PUSH2 0x1DD SWAP1 PUSH2 0x26E JUMP JUMPDEST PUSH2 0x1E8 SWAP3 SWAP2 SWAP1 PUSH2 0x4F7 JUMP JUMPDEST PUSH1 0x40 MLOAD DUP1 SWAP2 SUB SWAP1 PUSH1 0x0 CREATE DUP1 ISZERO DUP1 ISZERO PUSH2 0x204 JUMPI RETURNDATASIZE PUSH1 0x0 DUP1 RETURNDATACOPY RETURNDATASIZE PUSH1 0x0 REVERT JUMPDEST POP SWAP1 POP PUSH1 0x0 DUP2 SWAP1 DUP1 PUSH1 0x1 DUP2 SLOAD ADD DUP1 DUP3 SSTORE DUP1 SWAP2 POP POP PUSH1 0x1 SWAP1 SUB SWAP1 PUSH1 0x0 MSTORE PUSH1 0x20 PUSH1 0x0 KECCAK256 ADD PUSH1 0x0 SWAP1 SWAP2 SWAP1 SWAP2 SWAP1 SWAP2 PUSH2 0x100 EXP DUP2 SLOAD DUP2 PUSH20 0xFFFFFFFFFFFFFFFFFFFFFFFFFFFFFFFFFFFFFFFF MUL NOT AND SWAP1 DUP4 PUSH20 0xFFFFFFFFFFFFFFFFFFFFFFFFFFFFFFFFFFFFFFFF AND MUL OR SWAP1 SSTORE POP POP POP JUMP JUMPDEST PUSH2 0x2A0D DUP1 PUSH2 0x521 DUP4 CODECOPY ADD SWAP1 JUMP JUMPDEST PUSH1 0x0 DUP1 REVERT JUMPDEST PUSH1 0x0 DUP2 SWAP1 POP SWAP2 SWAP1 POP JUMP JUMPDEST PUSH2 0x293 DUP2 PUSH2 0x280 JUMP JUMPDEST DUP2 EQ PUSH2 0x29E JUMPI PUSH1 0x0 DUP1 REVERT JUMPDEST POP JUMP JUMPDEST PUSH1 0x0 DUP2 CALLDATALOAD SWAP1 POP PUSH2 0x2B0 DUP2 PUSH2 0x28A JUMP JUMPDEST SWAP3 SWAP2 POP POP JUMP JUMPDEST PUSH1 0x0 PUSH1 0x20 DUP3 DUP5 SUB SLT ISZERO PUSH2 0x2CC JUMPI PUSH2 0x2CB PUSH2 0x27B JUMP JUMPDEST JUMPDEST PUSH1 0x0 PUSH2 0x2DA DUP5 DUP3 DUP6 ADD PUSH2 0x2A1 JUMP JUMPDEST SWAP2 POP POP SWAP3 SWAP2 POP POP JUMP JUMPDEST PUSH1 0x0 PUSH20 0xFFFFFFFFFFFFFFFFFFFFFFFFFFFFFFFFFFFFFFFF DUP3 AND SWAP1 POP SWAP2 SWAP1 POP JUMP JUMPDEST PUSH1 0x0 PUSH2 0x30E DUP3 PUSH2 0x2E3 JUMP JUMPDEST SWAP1 POP SWAP2 SWAP1 POP JUMP JUMPDEST PUSH2 0x31E DUP2 PUSH2 0x303 JUMP JUMPDEST DUP3 MSTORE POP POP JUMP JUMPDEST PUSH1 0x0 PUSH1 0x20 DUP3 ADD SWAP1 POP PUSH2 0x339 PUSH1 0x0 DUP4 ADD DUP5 PUSH2 0x315 JUMP JUMPDEST SWAP3 SWAP2 POP POP JUMP JUMPDEST PUSH1 0x0 DUP2 MLOAD SWAP1 POP SWAP2 SWAP1 POP JUMP JUMPDEST PUSH1 0x0 DUP3 DUP3 MSTORE PUSH1 0x20 DUP3 ADD SWAP1 POP SWAP3 SWAP2 POP POP JUMP JUMPDEST PUSH1 0x0 DUP2 SWAP1 POP PUSH1 0x20 DUP3 ADD SWAP1 POP SWAP2 SWAP1 POP JUMP JUMPDEST PUSH2 0x374 DUP2 PUSH2 0x303 JUMP JUMPDEST DUP3 MSTORE POP POP JUMP JUMPDEST PUSH1 0x0 PUSH2 0x386 DUP4 DUP4 PUSH2 0x36B JUMP JUMPDEST PUSH1 0x20 DUP4 ADD SWAP1 POP SWAP3 SWAP2 POP POP JUMP JUMPDEST PUSH1 0x0 PUSH1 0x20 DUP3 ADD SWAP1 POP SWAP2 SWAP1 POP JUMP JUMPDEST PUSH1 0x0 PUSH2 0x3AA DUP3 PUSH2 0x33F JUMP JUMPDEST PUSH2 0x3B4 DUP2 DUP6 PUSH2 0x34A JUMP JUMPDEST SWAP4 POP PUSH2 0x3BF DUP4 PUSH2 0x35B JUMP JUMPDEST DUP1 PUSH1 0x0 JUMPDEST DUP4 DUP2 LT ISZERO PUSH2 0x3F0 JUMPI DUP2 MLOAD PUSH2 0x3D7 DUP9 DUP3 PUSH2 0x37A JUMP JUMPDEST SWAP8 POP PUSH2 0x3E2 DUP4 PUSH2 0x392 JUMP JUMPDEST SWAP3 POP POP PUSH1 0x1 DUP2 ADD SWAP1 POP PUSH2 0x3C3 JUMP JUMPDEST POP DUP6 SWAP4 POP POP POP POP SWAP3 SWAP2 POP POP JUMP JUMPDEST PUSH1 0x0 PUSH1 0x20 DUP3 ADD SWAP1 POP DUP2 DUP2 SUB PUSH1 0x0 DUP4 ADD MSTORE PUSH2 0x417 DUP2 DUP5 PUSH2 0x39F JUMP JUMPDEST SWAP1 POP SWAP3 SWAP2 POP POP JUMP JUMPDEST PUSH1 0x0 DUP3 DUP3 MSTORE PUSH1 0x20 DUP3 ADD SWAP1 POP SWAP3 SWAP2 POP POP JUMP JUMPDEST PUSH32 0x546F2063726561746520612063616D706169676E2C20796F75206E6565642074 PUSH1 0x0 DUP3 ADD MSTORE PUSH32 0x6F207472616E736665722066756E647320746F2070617920666F722074686520 PUSH1 0x20 DUP3 ADD MSTORE PUSH32 0x6761732066656573000000000000000000000000000000000000000000000000 PUSH1 0x40 DUP3 ADD MSTORE POP JUMP JUMPDEST PUSH1 0x0 PUSH2 0x4B2 PUSH1 0x48 DUP4 PUSH2 0x41F JUMP JUMPDEST SWAP2 POP PUSH2 0x4BD DUP3 PUSH2 0x430 JUMP JUMPDEST PUSH1 0x60 DUP3 ADD SWAP1 POP SWAP2 SWAP1 POP JUMP JUMPDEST PUSH1 0x0 PUSH1 0x20 DUP3 ADD SWAP1 POP DUP2 DUP2 SUB PUSH1 0x0 DUP4 ADD MSTORE PUSH2 0x4E1 DUP2 PUSH2 0x4A5 JUMP JUMPDEST SWAP1 POP SWAP2 SWAP1 POP JUMP JUMPDEST PUSH2 0x4F1 DUP2 PUSH2 0x280 JUMP JUMPDEST DUP3 MSTORE POP POP JUMP JUMPDEST PUSH1 0x0 PUSH1 0x40 DUP3 ADD SWAP1 POP PUSH2 0x50C PUSH1 0x0 DUP4 ADD DUP6 PUSH2 0x4E8 JUMP JUMPDEST PUSH2 0x519 PUSH1 0x20 DUP4 ADD DUP5 PUSH2 0x315 JUMP JUMPDEST SWAP4 SWAP3 POP POP POP JUMP INVALID PUSH1 0x80 PUSH1 0x40 MSTORE CALLVALUE DUP1 ISZERO PUSH3 0x11 JUMPI PUSH1 0x0 DUP1 REVERT JUMPDEST POP PUSH1 0x40 MLOAD PUSH3 0x2A0D CODESIZE SUB DUP1 PUSH3 0x2A0D DUP4 CODECOPY DUP2 DUP2 ADD PUSH1 0x40 MSTORE DUP2 ADD SWAP1 PUSH3 0x37 SWAP2 SWAP1 PUSH3 0x12C JUMP JUMPDEST DUP1 PUSH1 0x1 PUSH1 0x0 PUSH2 0x100 EXP DUP2 SLOAD DUP2 PUSH20 0xFFFFFFFFFFFFFFFFFFFFFFFFFFFFFFFFFFFFFFFF MUL NOT AND SWAP1 DUP4 PUSH20 0xFFFFFFFFFFFFFFFFFFFFFFFFFFFFFFFFFFFFFFFF AND MUL OR SWAP1 SSTORE POP DUP2 PUSH1 0x3 DUP2 SWAP1 SSTORE POP POP POP PUSH3 0x173 JUMP JUMPDEST PUSH1 0x0 DUP1 REVERT JUMPDEST PUSH1 0x0 DUP2 SWAP1 POP SWAP2 SWAP1 POP JUMP JUMPDEST PUSH3 0xA1 DUP2 PUSH3 0x8C JUMP JUMPDEST DUP2 EQ PUSH3 0xAD JUMPI PUSH1 0x0 DUP1 REVERT JUMPDEST POP JUMP JUMPDEST PUSH1 0x0 DUP2 MLOAD SWAP1 POP PUSH3 0xC1 DUP2 PUSH3 0x96 JUMP JUMPDEST SWAP3 SWAP2 POP POP JUMP JUMPDEST PUSH1 0x0 PUSH20 0xFFFFFFFFFFFFFFFFFFFFFFFFFFFFFFFFFFFFFFFF DUP3 AND SWAP1 POP SWAP2 SWAP1 POP JUMP JUMPDEST PUSH1 0x0 PUSH3 0xF4 DUP3 PUSH3 0xC7 JUMP JUMPDEST SWAP1 POP SWAP2 SWAP1 POP JUMP JUMPDEST PUSH3 0x106 DUP2 PUSH3 0xE7 JUMP JUMPDEST DUP2 EQ PUSH3 0x112 JUMPI PUSH1 0x0 DUP1 REVERT JUMPDEST POP JUMP JUMPDEST PUSH1 0x0 DUP2 MLOAD SWAP1 POP PUSH3 0x126 DUP2 PUSH3 0xFB JUMP JUMPDEST SWAP3 SWAP2 POP POP JUMP JUMPDEST PUSH1 0x0 DUP1 PUSH1 0x40 DUP4 DUP6 SUB SLT ISZERO PUSH3 0x146 JUMPI PUSH3 0x145 PUSH3 0x87 JUMP JUMPDEST JUMPDEST PUSH1 0x0 PUSH3 0x156 DUP6 DUP3 DUP7 ADD PUSH3 0xB0 JUMP JUMPDEST SWAP3 POP POP PUSH1 0x20 PUSH3 0x169 DUP6 DUP3 DUP7 ADD PUSH3 0x115 JUMP JUMPDEST SWAP2 POP POP SWAP3 POP SWAP3 SWAP1 POP JUMP JUMPDEST PUSH2 0x288A DUP1 PUSH3 0x183 PUSH1 0x0 CODECOPY PUSH1 0x0 RETURN INVALID PUSH1 0x80 PUSH1 0x40 MSTORE PUSH1 0x4 CALLDATASIZE LT PUSH2 0xC2 JUMPI PUSH1 0x0 CALLDATALOAD PUSH1 0xE0 SHR DUP1 PUSH4 0x8A9CFD55 GT PUSH2 0x7F JUMPI DUP1 PUSH4 0x9213AA33 GT PUSH2 0x59 JUMPI DUP1 PUSH4 0x9213AA33 EQ PUSH2 0x262 JUMPI DUP1 PUSH4 0xB85DFB80 EQ PUSH2 0x29F JUMPI DUP1 PUSH4 0xB8F4BA03 EQ PUSH2 0x2DC JUMPI DUP1 PUSH4 0xD7D1BBDB EQ PUSH2 0x31E JUMPI PUSH2 0xC2 JUMP JUMPDEST DUP1 PUSH4 0x8A9CFD55 EQ PUSH2 0x1F0 JUMPI DUP1 PUSH4 0x8DDE0840 EQ PUSH2 0x22D JUMPI DUP1 PUSH4 0x900551A8 EQ PUSH2 0x237 JUMPI PUSH2 0xC2 JUMP JUMPDEST DUP1 PUSH4 0x3441006 EQ PUSH2 0xC7 JUMPI DUP1 PUSH4 0x18513993 EQ PUSH2 0xF0 JUMPI DUP1 PUSH4 0x30F3E3DA EQ PUSH2 0x12D JUMPI DUP1 PUSH4 0x481C6A75 EQ PUSH2 0x158 JUMPI DUP1 PUSH4 0x81D12C58 EQ PUSH2 0x183 JUMPI DUP1 PUSH4 0x8813CE12 EQ PUSH2 0x1C5 JUMPI JUMPDEST PUSH1 0x0 DUP1 REVERT JUMPDEST CALLVALUE DUP1 ISZERO PUSH2 0xD3 JUMPI PUSH1 0x0 DUP1 REVERT JUMPDEST POP PUSH2 0xEE PUSH1 0x4 DUP1 CALLDATASIZE SUB DUP2 ADD SWAP1 PUSH2 0xE9 SWAP2 SWAP1 PUSH2 0x17B5 JUMP JUMPDEST PUSH2 0x347 JUMP JUMPDEST STOP JUMPDEST CALLVALUE DUP1 ISZERO PUSH2 0xFC JUMPI PUSH1 0x0 DUP1 REVERT JUMPDEST POP PUSH2 0x117 PUSH1 0x4 DUP1 CALLDATASIZE SUB DUP2 ADD SWAP1 PUSH2 0x112 SWAP2 SWAP1 PUSH2 0x1840 JUMP JUMPDEST PUSH2 0x5CC JUMP JUMPDEST PUSH1 0x40 MLOAD PUSH2 0x124 SWAP2 SWAP1 PUSH2 0x1A8A JUMP JUMPDEST PUSH1 0x40 MLOAD DUP1 SWAP2 SUB SWAP1 RETURN JUMPDEST CALLVALUE DUP1 ISZERO PUSH2 0x139 JUMPI PUSH1 0x0 DUP1 REVERT JUMPDEST POP PUSH2 0x142 PUSH2 0x8B0 JUMP JUMPDEST PUSH1 0x40 MLOAD PUSH2 0x14F SWAP2 SWAP1 PUSH2 0x1B7C JUMP JUMPDEST PUSH1 0x40 MLOAD DUP1 SWAP2 SUB SWAP1 RETURN JUMPDEST CALLVALUE DUP1 ISZERO PUSH2 0x164 JUMPI PUSH1 0x0 DUP1 REVERT JUMPDEST POP PUSH2 0x16D PUSH2 0x93E JUMP JUMPDEST PUSH1 0x40 MLOAD PUSH2 0x17A SWAP2 SWAP1 PUSH2 0x1BAD JUMP JUMPDEST PUSH1 0x40 MLOAD DUP1 SWAP2 SUB SWAP1 RETURN JUMPDEST CALLVALUE DUP1 ISZERO PUSH2 0x18F JUMPI PUSH1 0x0 DUP1 REVERT JUMPDEST POP PUSH2 0x1AA PUSH1 0x4 DUP1 CALLDATASIZE SUB DUP2 ADD SWAP1 PUSH2 0x1A5 SWAP2 SWAP1 PUSH2 0x17B5 JUMP JUMPDEST PUSH2 0x964 JUMP JUMPDEST PUSH1 0x40 MLOAD PUSH2 0x1BC SWAP7 SWAP6 SWAP5 SWAP4 SWAP3 SWAP2 SWAP1 PUSH2 0x1C30 JUMP JUMPDEST PUSH1 0x40 MLOAD DUP1 SWAP2 SUB SWAP1 RETURN JUMPDEST CALLVALUE DUP1 ISZERO PUSH2 0x1D1 JUMPI PUSH1 0x0 DUP1 REVERT JUMPDEST POP PUSH2 0x1DA PUSH2 0xA72 JUMP JUMPDEST PUSH1 0x40 MLOAD PUSH2 0x1E7 SWAP2 SWAP1 PUSH2 0x1A8A JUMP JUMPDEST PUSH1 0x40 MLOAD DUP1 SWAP2 SUB SWAP1 RETURN JUMPDEST CALLVALUE DUP1 ISZERO PUSH2 0x1FC JUMPI PUSH1 0x0 DUP1 REVERT JUMPDEST POP PUSH2 0x217 PUSH1 0x4 DUP1 CALLDATASIZE SUB DUP2 ADD SWAP1 PUSH2 0x212 SWAP2 SWAP1 PUSH2 0x1DCD JUMP JUMPDEST PUSH2 0xC03 JUMP JUMPDEST PUSH1 0x40 MLOAD PUSH2 0x224 SWAP2 SWAP1 PUSH2 0x1EC5 JUMP JUMPDEST PUSH1 0x40 MLOAD DUP1 SWAP2 SUB SWAP1 RETURN JUMPDEST PUSH2 0x235 PUSH2 0xDDA JUMP JUMPDEST STOP JUMPDEST CALLVALUE DUP1 ISZERO PUSH2 0x243 JUMPI PUSH1 0x0 DUP1 REVERT JUMPDEST POP PUSH2 0x24C PUSH2 0xF24 JUMP JUMPDEST PUSH1 0x40 MLOAD PUSH2 0x259 SWAP2 SWAP1 PUSH2 0x1EE7 JUMP JUMPDEST PUSH1 0x40 MLOAD DUP1 SWAP2 SUB SWAP1 RETURN JUMPDEST CALLVALUE DUP1 ISZERO PUSH2 0x26E JUMPI PUSH1 0x0 DUP1 REVERT JUMPDEST POP PUSH2 0x289 PUSH1 0x4 DUP1 CALLDATASIZE SUB DUP2 ADD SWAP1 PUSH2 0x284 SWAP2 SWAP1 PUSH2 0x17B5 JUMP JUMPDEST PUSH2 0xFBC JUMP JUMPDEST PUSH1 0x40 MLOAD PUSH2 0x296 SWAP2 SWAP1 PUSH2 0x1F11 JUMP JUMPDEST PUSH1 0x40 MLOAD DUP1 SWAP2 SUB SWAP1 RETURN JUMPDEST CALLVALUE DUP1 ISZERO PUSH2 0x2AB JUMPI PUSH1 0x0 DUP1 REVERT JUMPDEST POP PUSH2 0x2C6 PUSH1 0x4 DUP1 CALLDATASIZE SUB DUP2 ADD SWAP1 PUSH2 0x2C1 SWAP2 SWAP1 PUSH2 0x1840 JUMP JUMPDEST PUSH2 0xFFB JUMP JUMPDEST PUSH1 0x40 MLOAD PUSH2 0x2D3 SWAP2 SWAP1 PUSH2 0x1EE7 JUMP JUMPDEST PUSH1 0x40 MLOAD DUP1 SWAP2 SUB SWAP1 RETURN JUMPDEST CALLVALUE DUP1 ISZERO PUSH2 0x2E8 JUMPI PUSH1 0x0 DUP1 REVERT JUMPDEST POP PUSH2 0x303 PUSH1 0x4 DUP1 CALLDATASIZE SUB DUP2 ADD SWAP1 PUSH2 0x2FE SWAP2 SWAP1 PUSH2 0x1F2C JUMP JUMPDEST PUSH2 0x1013 JUMP JUMPDEST PUSH1 0x40 MLOAD PUSH2 0x315 SWAP7 SWAP6 SWAP5 SWAP4 SWAP3 SWAP2 SWAP1 PUSH2 0x1C30 JUMP JUMPDEST PUSH1 0x40 MLOAD DUP1 SWAP2 SUB SWAP1 RETURN JUMPDEST CALLVALUE DUP1 ISZERO PUSH2 0x32A JUMPI PUSH1 0x0 DUP1 REVERT JUMPDEST POP PUSH2 0x345 PUSH1 0x4 DUP1 CALLDATASIZE SUB DUP2 ADD SWAP1 PUSH2 0x340 SWAP2 SWAP1 PUSH2 0x17B5 JUMP JUMPDEST PUSH2 0x112E JUMP JUMPDEST STOP JUMPDEST PUSH1 0x1 PUSH1 0x0 SWAP1 SLOAD SWAP1 PUSH2 0x100 EXP SWAP1 DIV PUSH20 0xFFFFFFFFFFFFFFFFFFFFFFFFFFFFFFFFFFFFFFFF AND PUSH20 0xFFFFFFFFFFFFFFFFFFFFFFFFFFFFFFFFFFFFFFFF AND CALLER PUSH20 0xFFFFFFFFFFFFFFFFFFFFFFFFFFFFFFFFFFFFFFFF AND EQ PUSH2 0x3D7 JUMPI PUSH1 0x40 MLOAD PUSH32 0x8C379A000000000000000000000000000000000000000000000000000000000 DUP2 MSTORE PUSH1 0x4 ADD PUSH2 0x3CE SWAP1 PUSH2 0x1FDE JUMP JUMPDEST PUSH1 0x40 MLOAD DUP1 SWAP2 SUB SWAP1 REVERT JUMPDEST PUSH1 0x0 DUP1 DUP3 DUP2 SLOAD DUP2 LT PUSH2 0x3EC JUMPI PUSH2 0x3EB PUSH2 0x1FFE JUMP JUMPDEST JUMPDEST SWAP1 PUSH1 0x0 MSTORE PUSH1 0x20 PUSH1 0x0 KECCAK256 SWAP1 PUSH1 0x4 MUL ADD SWAP1 POP PUSH1 0x2 DUP1 DUP1 SLOAD SWAP1 POP PUSH2 0x40D SWAP2 SWAP1 PUSH2 0x208B JUMP JUMPDEST DUP2 PUSH1 0x3 ADD SLOAD GT PUSH2 0x452 JUMPI PUSH1 0x40 MLOAD PUSH32 0x8C379A000000000000000000000000000000000000000000000000000000000 DUP2 MSTORE PUSH1 0x4 ADD PUSH2 0x449 SWAP1 PUSH2 0x212E JUMP JUMPDEST PUSH1 0x40 MLOAD DUP1 SWAP2 SUB SWAP1 REVERT JUMPDEST DUP1 PUSH1 0x2 ADD PUSH1 0x14 SWAP1 SLOAD SWAP1 PUSH2 0x100 EXP SWAP1 DIV PUSH1 0xFF AND ISZERO PUSH2 0x4A4 JUMPI PUSH1 0x40 MLOAD PUSH32 0x8C379A000000000000000000000000000000000000000000000000000000000 DUP2 MSTORE PUSH1 0x4 ADD PUSH2 0x49B SWAP1 PUSH2 0x21C0 JUMP JUMPDEST PUSH1 0x40 MLOAD DUP1 SWAP2 SUB SWAP1 REVERT JUMPDEST DUP1 PUSH1 0x2 ADD PUSH1 0x15 SWAP1 SLOAD SWAP1 PUSH2 0x100 EXP SWAP1 DIV PUSH1 0xFF AND ISZERO PUSH2 0x4F6 JUMPI PUSH1 0x40 MLOAD PUSH32 0x8C379A000000000000000000000000000000000000000000000000000000000 DUP2 MSTORE PUSH1 0x4 ADD PUSH2 0x4ED SWAP1 PUSH2 0x222C JUMP JUMPDEST PUSH1 0x40 MLOAD DUP1 SWAP2 SUB SWAP1 REVERT JUMPDEST DUP1 PUSH1 0x1 ADD SLOAD SELFBALANCE GT PUSH2 0x53C JUMPI PUSH1 0x40 MLOAD PUSH32 0x8C379A000000000000000000000000000000000000000000000000000000000 DUP2 MSTORE PUSH1 0x4 ADD PUSH2 0x533 SWAP1 PUSH2 0x22BE JUMP JUMPDEST PUSH1 0x40 MLOAD DUP1 SWAP2 SUB SWAP1 REVERT JUMPDEST PUSH1 0x1 DUP2 PUSH1 0x2 ADD PUSH1 0x14 PUSH2 0x100 EXP DUP2 SLOAD DUP2 PUSH1 0xFF MUL NOT AND SWAP1 DUP4 ISZERO ISZERO MUL OR SWAP1 SSTORE POP DUP1 PUSH1 0x2 ADD PUSH1 0x0 SWAP1 SLOAD SWAP1 PUSH2 0x100 EXP SWAP1 DIV PUSH20 0xFFFFFFFFFFFFFFFFFFFFFFFFFFFFFFFFFFFFFFFF AND PUSH20 0xFFFFFFFFFFFFFFFFFFFFFFFFFFFFFFFFFFFFFFFF AND PUSH2 0x8FC DUP3 PUSH1 0x1 ADD SLOAD SWAP1 DUP2 ISZERO MUL SWAP1 PUSH1 0x40 MLOAD PUSH1 0x0 PUSH1 0x40 MLOAD DUP1 DUP4 SUB DUP2 DUP6 DUP9 DUP9 CALL SWAP4 POP POP POP POP ISZERO DUP1 ISZERO PUSH2 0x5C7 JUMPI RETURNDATASIZE PUSH1 0x0 DUP1 RETURNDATACOPY RETURNDATASIZE PUSH1 0x0 REVERT JUMPDEST POP POP POP JUMP JUMPDEST PUSH1 0x60 PUSH1 0x1 PUSH1 0x0 SWAP1 SLOAD SWAP1 PUSH2 0x100 EXP SWAP1 DIV PUSH20 0xFFFFFFFFFFFFFFFFFFFFFFFFFFFFFFFFFFFFFFFF AND PUSH20 0xFFFFFFFFFFFFFFFFFFFFFFFFFFFFFFFFFFFFFFFF AND CALLER PUSH20 0xFFFFFFFFFFFFFFFFFFFFFFFFFFFFFFFFFFFFFFFF AND EQ PUSH2 0x65E JUMPI PUSH1 0x40 MLOAD PUSH32 0x8C379A000000000000000000000000000000000000000000000000000000000 DUP2 MSTORE PUSH1 0x4 ADD PUSH2 0x655 SWAP1 PUSH2 0x1FDE JUMP JUMPDEST PUSH1 0x40 MLOAD DUP1 SWAP2 SUB SWAP1 REVERT JUMPDEST PUSH1 0x3 SLOAD PUSH1 0x4 PUSH1 0x0 DUP5 PUSH20 0xFFFFFFFFFFFFFFFFFFFFFFFFFFFFFFFFFFFFFFFF AND PUSH20 0xFFFFFFFFFFFFFFFFFFFFFFFFFFFFFFFFFFFFFFFF AND DUP2 MSTORE PUSH1 0x20 ADD SWAP1 DUP2 MSTORE PUSH1 0x20 ADD PUSH1 0x0 KECCAK256 SLOAD LT ISZERO PUSH2 0x6E2 JUMPI PUSH1 0x40 MLOAD PUSH32 0x8C379A000000000000000000000000000000000000000000000000000000000 DUP2 MSTORE PUSH1 0x4 ADD PUSH2 0x6D9 SWAP1 PUSH2 0x2350 JUMP JUMPDEST PUSH1 0x40 MLOAD DUP1 SWAP2 SUB SWAP1 REVERT JUMPDEST PUSH1 0x5 PUSH1 0x0 DUP4 PUSH20 0xFFFFFFFFFFFFFFFFFFFFFFFFFFFFFFFFFFFFFFFF AND PUSH20 0xFFFFFFFFFFFFFFFFFFFFFFFFFFFFFFFFFFFFFFFF AND DUP2 MSTORE PUSH1 0x20 ADD SWAP1 DUP2 MSTORE PUSH1 0x20 ADD PUSH1 0x0 KECCAK256 DUP1 SLOAD DUP1 PUSH1 0x20 MUL PUSH1 0x20 ADD PUSH1 0x40 MLOAD SWAP1 DUP2 ADD PUSH1 0x40 MSTORE DUP1 SWAP3 SWAP2 SWAP1 DUP2 DUP2 MSTORE PUSH1 0x20 ADD PUSH1 0x0 SWAP1 JUMPDEST DUP3 DUP3 LT ISZERO PUSH2 0x8A5 JUMPI DUP4 DUP3 SWAP1 PUSH1 0x0 MSTORE PUSH1 0x20 PUSH1 0x0 KECCAK256 SWAP1 PUSH1 0x4 MUL ADD PUSH1 0x40 MLOAD DUP1 PUSH1 0xC0 ADD PUSH1 0x40 MSTORE SWAP1 DUP2 PUSH1 0x0 DUP3 ADD DUP1 SLOAD PUSH2 0x774 SWAP1 PUSH2 0x239F JUMP JUMPDEST DUP1 PUSH1 0x1F ADD PUSH1 0x20 DUP1 SWAP2 DIV MUL PUSH1 0x20 ADD PUSH1 0x40 MLOAD SWAP1 DUP2 ADD PUSH1 0x40 MSTORE DUP1 SWAP3 SWAP2 SWAP1 DUP2 DUP2 MSTORE PUSH1 0x20 ADD DUP3 DUP1 SLOAD PUSH2 0x7A0 SWAP1 PUSH2 0x239F JUMP JUMPDEST DUP1 ISZERO PUSH2 0x7ED JUMPI DUP1 PUSH1 0x1F LT PUSH2 0x7C2 JUMPI PUSH2 0x100 DUP1 DUP4 SLOAD DIV MUL DUP4 MSTORE SWAP2 PUSH1 0x20 ADD SWAP2 PUSH2 0x7ED JUMP JUMPDEST DUP3 ADD SWAP2 SWAP1 PUSH1 0x0 MSTORE PUSH1 0x20 PUSH1 0x0 KECCAK256 SWAP1 JUMPDEST DUP2 SLOAD DUP2 MSTORE SWAP1 PUSH1 0x1 ADD SWAP1 PUSH1 0x20 ADD DUP1 DUP4 GT PUSH2 0x7D0 JUMPI DUP3 SWAP1 SUB PUSH1 0x1F AND DUP3 ADD SWAP2 JUMPDEST POP POP POP POP POP DUP2 MSTORE PUSH1 0x20 ADD PUSH1 0x1 DUP3 ADD SLOAD DUP2 MSTORE PUSH1 0x20 ADD PUSH1 0x2 DUP3 ADD PUSH1 0x0 SWAP1 SLOAD SWAP1 PUSH2 0x100 EXP SWAP1 DIV PUSH20 0xFFFFFFFFFFFFFFFFFFFFFFFFFFFFFFFFFFFFFFFF AND PUSH20 0xFFFFFFFFFFFFFFFFFFFFFFFFFFFFFFFFFFFFFFFF AND PUSH20 0xFFFFFFFFFFFFFFFFFFFFFFFFFFFFFFFFFFFFFFFF AND DUP2 MSTORE PUSH1 0x20 ADD PUSH1 0x2 DUP3 ADD PUSH1 0x14 SWAP1 SLOAD SWAP1 PUSH2 0x100 EXP SWAP1 DIV PUSH1 0xFF AND ISZERO ISZERO ISZERO ISZERO DUP2 MSTORE PUSH1 0x20 ADD PUSH1 0x2 DUP3 ADD PUSH1 0x15 SWAP1 SLOAD SWAP1 PUSH2 0x100 EXP SWAP1 DIV PUSH1 0xFF AND ISZERO ISZERO ISZERO ISZERO DUP2 MSTORE PUSH1 0x20 ADD PUSH1 0x3 DUP3 ADD SLOAD DUP2 MSTORE POP POP DUP2 MSTORE PUSH1 0x20 ADD SWAP1 PUSH1 0x1 ADD SWAP1 PUSH2 0x741 JUMP JUMPDEST POP POP POP POP SWAP1 POP SWAP2 SWAP1 POP JUMP JUMPDEST PUSH1 0x60 PUSH1 0x2 DUP1 SLOAD DUP1 PUSH1 0x20 MUL PUSH1 0x20 ADD PUSH1 0x40 MLOAD SWAP1 DUP2 ADD PUSH1 0x40 MSTORE DUP1 SWAP3 SWAP2 SWAP1 DUP2 DUP2 MSTORE PUSH1 0x20 ADD DUP3 DUP1 SLOAD DUP1 ISZERO PUSH2 0x934 JUMPI PUSH1 0x20 MUL DUP3 ADD SWAP2 SWAP1 PUSH1 0x0 MSTORE PUSH1 0x20 PUSH1 0x0 KECCAK256 SWAP1 JUMPDEST DUP2 PUSH1 0x0 SWAP1 SLOAD SWAP1 PUSH2 0x100 EXP SWAP1 DIV PUSH20 0xFFFFFFFFFFFFFFFFFFFFFFFFFFFFFFFFFFFFFFFF AND PUSH20 0xFFFFFFFFFFFFFFFFFFFFFFFFFFFFFFFFFFFFFFFF AND DUP2 MSTORE PUSH1 0x20 ADD SWAP1 PUSH1 0x1 ADD SWAP1 DUP1 DUP4 GT PUSH2 0x8EA JUMPI JUMPDEST POP POP POP POP POP SWAP1 POP SWAP1 JUMP JUMPDEST PUSH1 0x1 PUSH1 0x0 SWAP1 SLOAD SWAP1 PUSH2 0x100 EXP SWAP1 DIV PUSH20 0xFFFFFFFFFFFFFFFFFFFFFFFFFFFFFFFFFFFFFFFF AND DUP2 JUMP JUMPDEST PUSH1 0x0 DUP2 DUP2 SLOAD DUP2 LT PUSH2 0x974 JUMPI PUSH1 0x0 DUP1 REVERT JUMPDEST SWAP1 PUSH1 0x0 MSTORE PUSH1 0x20 PUSH1 0x0 KECCAK256 SWAP1 PUSH1 0x4 MUL ADD PUSH1 0x0 SWAP2 POP SWAP1 POP DUP1 PUSH1 0x0 ADD DUP1 SLOAD PUSH2 0x997 SWAP1 PUSH2 0x239F JUMP JUMPDEST DUP1 PUSH1 0x1F ADD PUSH1 0x20 DUP1 SWAP2 DIV MUL PUSH1 0x20 ADD PUSH1 0x40 MLOAD SWAP1 DUP2 ADD PUSH1 0x40 MSTORE DUP1 SWAP3 SWAP2 SWAP1 DUP2 DUP2 MSTORE PUSH1 0x20 ADD DUP3 DUP1 SLOAD PUSH2 0x9C3 SWAP1 PUSH2 0x239F JUMP JUMPDEST DUP1 ISZERO PUSH2 0xA10 JUMPI DUP1 PUSH1 0x1F LT PUSH2 0x9E5 JUMPI PUSH2 0x100 DUP1 DUP4 SLOAD DIV MUL DUP4 MSTORE SWAP2 PUSH1 0x20 ADD SWAP2 PUSH2 0xA10 JUMP JUMPDEST DUP3 ADD SWAP2 SWAP1 PUSH1 0x0 MSTORE PUSH1 0x20 PUSH1 0x0 KECCAK256 SWAP1 JUMPDEST DUP2 SLOAD DUP2 MSTORE SWAP1 PUSH1 0x1 ADD SWAP1 PUSH1 0x20 ADD DUP1 DUP4 GT PUSH2 0x9F3 JUMPI DUP3 SWAP1 SUB PUSH1 0x1F AND DUP3 ADD SWAP2 JUMPDEST POP POP POP POP POP SWAP1 DUP1 PUSH1 0x1 ADD SLOAD SWAP1 DUP1 PUSH1 0x2 ADD PUSH1 0x0 SWAP1 SLOAD SWAP1 PUSH2 0x100 EXP SWAP1 DIV PUSH20 0xFFFFFFFFFFFFFFFFFFFFFFFFFFFFFFFFFFFFFFFF AND SWAP1 DUP1 PUSH1 0x2 ADD PUSH1 0x14 SWAP1 SLOAD SWAP1 PUSH2 0x100 EXP SWAP1 DIV PUSH1 0xFF AND SWAP1 DUP1 PUSH1 0x2 ADD PUSH1 0x15 SWAP1 SLOAD SWAP1 PUSH2 0x100 EXP SWAP1 DIV PUSH1 0xFF AND SWAP1 DUP1 PUSH1 0x3 ADD SLOAD SWAP1 POP DUP7 JUMP JUMPDEST PUSH1 0x60 PUSH1 0x0 DUP1 SLOAD DUP1 PUSH1 0x20 MUL PUSH1 0x20 ADD PUSH1 0x40 MLOAD SWAP1 DUP2 ADD PUSH1 0x40 MSTORE DUP1 SWAP3 SWAP2 SWAP1 DUP2 DUP2 MSTORE PUSH1 0x20 ADD PUSH1 0x0 SWAP1 JUMPDEST DUP3 DUP3 LT ISZERO PUSH2 0xBFA JUMPI DUP4 DUP3 SWAP1 PUSH1 0x0 MSTORE PUSH1 0x20 PUSH1 0x0 KECCAK256 SWAP1 PUSH1 0x4 MUL ADD PUSH1 0x40 MLOAD DUP1 PUSH1 0xC0 ADD PUSH1 0x40 MSTORE SWAP1 DUP2 PUSH1 0x0 DUP3 ADD DUP1 SLOAD PUSH2 0xAC9 SWAP1 PUSH2 0x239F JUMP JUMPDEST DUP1 PUSH1 0x1F ADD PUSH1 0x20 DUP1 SWAP2 DIV MUL PUSH1 0x20 ADD PUSH1 0x40 MLOAD SWAP1 DUP2 ADD PUSH1 0x40 MSTORE DUP1 SWAP3 SWAP2 SWAP1 DUP2 DUP2 MSTORE PUSH1 0x20 ADD DUP3 DUP1 SLOAD PUSH2 0xAF5 SWAP1 PUSH2 0x239F JUMP JUMPDEST DUP1 ISZERO PUSH2 0xB42 JUMPI DUP1 PUSH1 0x1F LT PUSH2 0xB17 JUMPI PUSH2 0x100 DUP1 DUP4 SLOAD DIV MUL DUP4 MSTORE SWAP2 PUSH1 0x20 ADD SWAP2 PUSH2 0xB42 JUMP JUMPDEST DUP3 ADD SWAP2 SWAP1 PUSH1 0x0 MSTORE PUSH1 0x20 PUSH1 0x0 KECCAK256 SWAP1 JUMPDEST DUP2 SLOAD DUP2 MSTORE SWAP1 PUSH1 0x1 ADD SWAP1 PUSH1 0x20 ADD DUP1 DUP4 GT PUSH2 0xB25 JUMPI DUP3 SWAP1 SUB PUSH1 0x1F AND DUP3 ADD SWAP2 JUMPDEST POP POP POP POP POP DUP2 MSTORE PUSH1 0x20 ADD PUSH1 0x1 DUP3 ADD SLOAD DUP2 MSTORE PUSH1 0x20 ADD PUSH1 0x2 DUP3 ADD PUSH1 0x0 SWAP1 SLOAD SWAP1 PUSH2 0x100 EXP SWAP1 DIV PUSH20 0xFFFFFFFFFFFFFFFFFFFFFFFFFFFFFFFFFFFFFFFF AND PUSH20 0xFFFFFFFFFFFFFFFFFFFFFFFFFFFFFFFFFFFFFFFF AND PUSH20 0xFFFFFFFFFFFFFFFFFFFFFFFFFFFFFFFFFFFFFFFF AND DUP2 MSTORE PUSH1 0x20 ADD PUSH1 0x2 DUP3 ADD PUSH1 0x14 SWAP1 SLOAD SWAP1 PUSH2 0x100 EXP SWAP1 DIV PUSH1 0xFF AND ISZERO ISZERO ISZERO ISZERO DUP2 MSTORE PUSH1 0x20 ADD PUSH1 0x2 DUP3 ADD PUSH1 0x15 SWAP1 SLOAD SWAP1 PUSH2 0x100 EXP SWAP1 DIV PUSH1 0xFF AND ISZERO ISZERO ISZERO ISZERO DUP2 MSTORE PUSH1 0x20 ADD PUSH1 0x3 DUP3 ADD SLOAD DUP2 MSTORE POP POP DUP2 MSTORE PUSH1 0x20 ADD SWAP1 PUSH1 0x1 ADD SWAP1 PUSH2 0xA96 JUMP JUMPDEST POP POP POP POP SWAP1 POP SWAP1 JUMP JUMPDEST PUSH2 0xC0B PUSH2 0x15EB JUMP JUMPDEST PUSH1 0x1 PUSH1 0x0 SWAP1 SLOAD SWAP1 PUSH2 0x100 EXP SWAP1 DIV PUSH20 0xFFFFFFFFFFFFFFFFFFFFFFFFFFFFFFFFFFFFFFFF AND PUSH20 0xFFFFFFFFFFFFFFFFFFFFFFFFFFFFFFFFFFFFFFFF AND CALLER PUSH20 0xFFFFFFFFFFFFFFFFFFFFFFFFFFFFFFFFFFFFFFFF AND EQ PUSH2 0xC9B JUMPI PUSH1 0x40 MLOAD PUSH32 0x8C379A000000000000000000000000000000000000000000000000000000000 DUP2 MSTORE PUSH1 0x4 ADD PUSH2 0xC92 SWAP1 PUSH2 0x1FDE JUMP JUMPDEST PUSH1 0x40 MLOAD DUP1 SWAP2 SUB SWAP1 REVERT JUMPDEST PUSH1 0x0 PUSH1 0x40 MLOAD DUP1 PUSH1 0xC0 ADD PUSH1 0x40 MSTORE DUP1 DUP7 DUP2 MSTORE PUSH1 0x20 ADD DUP6 DUP2 MSTORE PUSH1 0x20 ADD DUP5 PUSH20 0xFFFFFFFFFFFFFFFFFFFFFFFFFFFFFFFFFFFFFFFF AND DUP2 MSTORE PUSH1 0x20 ADD PUSH1 0x0 ISZERO ISZERO DUP2 MSTORE PUSH1 0x20 ADD PUSH1 0x0 ISZERO ISZERO DUP2 MSTORE PUSH1 0x20 ADD PUSH1 0x0 DUP2 MSTORE POP SWAP1 POP PUSH1 0x0 DUP2 SWAP1 DUP1 PUSH1 0x1 DUP2 SLOAD ADD DUP1 DUP3 SSTORE DUP1 SWAP2 POP POP PUSH1 0x1 SWAP1 SUB SWAP1 PUSH1 0x0 MSTORE PUSH1 0x20 PUSH1 0x0 KECCAK256 SWAP1 PUSH1 0x4 MUL ADD PUSH1 0x0 SWAP1 SWAP2 SWAP1 SWAP2 SWAP1 SWAP2 POP PUSH1 0x0 DUP3 ADD MLOAD DUP2 PUSH1 0x0 ADD SWAP1 DUP1 MLOAD SWAP1 PUSH1 0x20 ADD SWAP1 PUSH2 0xD31 SWAP3 SWAP2 SWAP1 PUSH2 0x163B JUMP JUMPDEST POP PUSH1 0x20 DUP3 ADD MLOAD DUP2 PUSH1 0x1 ADD SSTORE PUSH1 0x40 DUP3 ADD MLOAD DUP2 PUSH1 0x2 ADD PUSH1 0x0 PUSH2 0x100 EXP DUP2 SLOAD DUP2 PUSH20 0xFFFFFFFFFFFFFFFFFFFFFFFFFFFFFFFFFFFFFFFF MUL NOT AND SWAP1 DUP4 PUSH20 0xFFFFFFFFFFFFFFFFFFFFFFFFFFFFFFFFFFFFFFFF AND MUL OR SWAP1 SSTORE POP PUSH1 0x60 DUP3 ADD MLOAD DUP2 PUSH1 0x2 ADD PUSH1 0x14 PUSH2 0x100 EXP DUP2 SLOAD DUP2 PUSH1 0xFF MUL NOT AND SWAP1 DUP4 ISZERO ISZERO MUL OR SWAP1 SSTORE POP PUSH1 0x80 DUP3 ADD MLOAD DUP2 PUSH1 0x2 ADD PUSH1 0x15 PUSH2 0x100 EXP DUP2 SLOAD DUP2 PUSH1 0xFF MUL NOT AND SWAP1 DUP4 ISZERO ISZERO MUL OR SWAP1 SSTORE POP PUSH1 0xA0 DUP3 ADD MLOAD DUP2 PUSH1 0x3 ADD SSTORE POP POP DUP1 SWAP2 POP POP SWAP4 SWAP3 POP POP POP JUMP JUMPDEST PUSH1 0x3 SLOAD CALLVALUE LT ISZERO PUSH2 0xE1F JUMPI PUSH1 0x40 MLOAD PUSH32 0x8C379A000000000000000000000000000000000000000000000000000000000 DUP2 MSTORE PUSH1 0x4 ADD PUSH2 0xE16 SWAP1 PUSH2 0x2442 JUMP JUMPDEST PUSH1 0x40 MLOAD DUP1 SWAP2 SUB SWAP1 REVERT JUMPDEST CALLVALUE PUSH1 0x4 PUSH1 0x0 CALLER PUSH20 0xFFFFFFFFFFFFFFFFFFFFFFFFFFFFFFFFFFFFFFFF AND PUSH20 0xFFFFFFFFFFFFFFFFFFFFFFFFFFFFFFFFFFFFFFFF AND DUP2 MSTORE PUSH1 0x20 ADD SWAP1 DUP2 MSTORE PUSH1 0x20 ADD PUSH1 0x0 KECCAK256 PUSH1 0x0 DUP3 DUP3 SLOAD PUSH2 0xE6E SWAP2 SWAP1 PUSH2 0x2462 JUMP JUMPDEST SWAP3 POP POP DUP2 SWAP1 SSTORE POP PUSH1 0x3 SLOAD PUSH1 0x4 PUSH1 0x0 CALLER PUSH20 0xFFFFFFFFFFFFFFFFFFFFFFFFFFFFFFFFFFFFFFFF AND PUSH20 0xFFFFFFFFFFFFFFFFFFFFFFFFFFFFFFFFFFFFFFFF AND DUP2 MSTORE PUSH1 0x20 ADD SWAP1 DUP2 MSTORE PUSH1 0x20 ADD PUSH1 0x0 KECCAK256 SLOAD GT ISZERO PUSH2 0xF22 JUMPI PUSH1 0x2 CALLER SWAP1 DUP1 PUSH1 0x1 DUP2 SLOAD ADD DUP1 DUP3 SSTORE DUP1 SWAP2 POP POP PUSH1 0x1 SWAP1 SUB SWAP1 PUSH1 0x0 MSTORE PUSH1 0x20 PUSH1 0x0 KECCAK256 ADD PUSH1 0x0 SWAP1 SWAP2 SWAP1 SWAP2 SWAP1 SWAP2 PUSH2 0x100 EXP DUP2 SLOAD DUP2 PUSH20 0xFFFFFFFFFFFFFFFFFFFFFFFFFFFFFFFFFFFFFFFF MUL NOT AND SWAP1 DUP4 PUSH20 0xFFFFFFFFFFFFFFFFFFFFFFFFFFFFFFFFFFFFFFFF AND MUL OR SWAP1 SSTORE POP JUMPDEST JUMP JUMPDEST PUSH1 0x0 PUSH1 0x1 PUSH1 0x0 SWAP1 SLOAD SWAP1 PUSH2 0x100 EXP SWAP1 DIV PUSH20 0xFFFFFFFFFFFFFFFFFFFFFFFFFFFFFFFFFFFFFFFF AND PUSH20 0xFFFFFFFFFFFFFFFFFFFFFFFFFFFFFFFFFFFFFFFF AND CALLER PUSH20 0xFFFFFFFFFFFFFFFFFFFFFFFFFFFFFFFFFFFFFFFF AND EQ PUSH2 0xFB6 JUMPI PUSH1 0x40 MLOAD PUSH32 0x8C379A000000000000000000000000000000000000000000000000000000000 DUP2 MSTORE PUSH1 0x4 ADD PUSH2 0xFAD SWAP1 PUSH2 0x1FDE JUMP JUMPDEST PUSH1 0x40 MLOAD DUP1 SWAP2 SUB SWAP1 REVERT JUMPDEST SELFBALANCE SWAP1 POP SWAP1 JUMP JUMPDEST PUSH1 0x2 DUP2 DUP2 SLOAD DUP2 LT PUSH2 0xFCC JUMPI PUSH1 0x0 DUP1 REVERT JUMPDEST SWAP1 PUSH1 0x0 MSTORE PUSH1 0x20 PUSH1 0x0 KECCAK256 ADD PUSH1 0x0 SWAP2 POP SLOAD SWAP1 PUSH2 0x100 EXP SWAP1 DIV PUSH20 0xFFFFFFFFFFFFFFFFFFFFFFFFFFFFFFFFFFFFFFFF AND DUP2 JUMP JUMPDEST PUSH1 0x4 PUSH1 0x20 MSTORE DUP1 PUSH1 0x0 MSTORE PUSH1 0x40 PUSH1 0x0 KECCAK256 PUSH1 0x0 SWAP2 POP SWAP1 POP SLOAD DUP2 JUMP JUMPDEST PUSH1 0x5 PUSH1 0x20 MSTORE DUP2 PUSH1 0x0 MSTORE PUSH1 0x40 PUSH1 0x0 KECCAK256 DUP2 DUP2 SLOAD DUP2 LT PUSH2 0x102F JUMPI PUSH1 0x0 DUP1 REVERT JUMPDEST SWAP1 PUSH1 0x0 MSTORE PUSH1 0x20 PUSH1 0x0 KECCAK256 SWAP1 PUSH1 0x4 MUL ADD PUSH1 0x0 SWAP2 POP SWAP2 POP POP DUP1 PUSH1 0x0 ADD DUP1 SLOAD PUSH2 0x1053 SWAP1 PUSH2 0x239F JUMP JUMPDEST DUP1 PUSH1 0x1F ADD PUSH1 0x20 DUP1 SWAP2 DIV MUL PUSH1 0x20 ADD PUSH1 0x40 MLOAD SWAP1 DUP2 ADD PUSH1 0x40 MSTORE DUP1 SWAP3 SWAP2 SWAP1 DUP2 DUP2 MSTORE PUSH1 0x20 ADD DUP3 DUP1 SLOAD PUSH2 0x107F SWAP1 PUSH2 0x239F JUMP JUMPDEST DUP1 ISZERO PUSH2 0x10CC JUMPI DUP1 PUSH1 0x1F LT PUSH2 0x10A1 JUMPI PUSH2 0x100 DUP1 DUP4 SLOAD DIV MUL DUP4 MSTORE SWAP2 PUSH1 0x20 ADD SWAP2 PUSH2 0x10CC JUMP JUMPDEST DUP3 ADD SWAP2 SWAP1 PUSH1 0x0 MSTORE PUSH1 0x20 PUSH1 0x0 KECCAK256 SWAP1 JUMPDEST DUP2 SLOAD DUP2 MSTORE SWAP1 PUSH1 0x1 ADD SWAP1 PUSH1 0x20 ADD DUP1 DUP4 GT PUSH2 0x10AF JUMPI DUP3 SWAP1 SUB PUSH1 0x1F AND DUP3 ADD SWAP2 JUMPDEST POP POP POP POP POP SWAP1 DUP1 PUSH1 0x1 ADD SLOAD SWAP1 DUP1 PUSH1 0x2 ADD PUSH1 0x0 SWAP1 SLOAD SWAP1 PUSH2 0x100 EXP SWAP1 DIV PUSH20 0xFFFFFFFFFFFFFFFFFFFFFFFFFFFFFFFFFFFFFFFF AND SWAP1 DUP1 PUSH1 0x2 ADD PUSH1 0x14 SWAP1 SLOAD SWAP1 PUSH2 0x100 EXP SWAP1 DIV PUSH1 0xFF AND SWAP1 DUP1 PUSH1 0x2 ADD PUSH1 0x15 SWAP1 SLOAD SWAP1 PUSH2 0x100 EXP SWAP1 DIV PUSH1 0xFF AND SWAP1 DUP1 PUSH1 0x3 ADD SLOAD SWAP1 POP DUP7 JUMP JUMPDEST PUSH1 0x3 SLOAD PUSH1 0x4 PUSH1 0x0 CALLER PUSH20 0xFFFFFFFFFFFFFFFFFFFFFFFFFFFFFFFFFFFFFFFF AND PUSH20 0xFFFFFFFFFFFFFFFFFFFFFFFFFFFFFFFFFFFFFFFF AND DUP2 MSTORE PUSH1 0x20 ADD SWAP1 DUP2 MSTORE PUSH1 0x20 ADD PUSH1 0x0 KECCAK256 SLOAD LT ISZERO PUSH2 0x11B2 JUMPI PUSH1 0x40 MLOAD PUSH32 0x8C379A000000000000000000000000000000000000000000000000000000000 DUP2 MSTORE PUSH1 0x4 ADD PUSH2 0x11A9 SWAP1 PUSH2 0x252A JUMP JUMPDEST PUSH1 0x40 MLOAD DUP1 SWAP2 SUB SWAP1 REVERT JUMPDEST PUSH1 0x0 DUP1 DUP3 DUP2 SLOAD DUP2 LT PUSH2 0x11C7 JUMPI PUSH2 0x11C6 PUSH2 0x1FFE JUMP JUMPDEST JUMPDEST SWAP1 PUSH1 0x0 MSTORE PUSH1 0x20 PUSH1 0x0 KECCAK256 SWAP1 PUSH1 0x4 MUL ADD SWAP1 POP PUSH1 0x0 PUSH1 0x5 PUSH1 0x0 CALLER PUSH20 0xFFFFFFFFFFFFFFFFFFFFFFFFFFFFFFFFFFFFFFFF AND PUSH20 0xFFFFFFFFFFFFFFFFFFFFFFFFFFFFFFFFFFFFFFFF AND DUP2 MSTORE PUSH1 0x20 ADD SWAP1 DUP2 MSTORE PUSH1 0x20 ADD PUSH1 0x0 KECCAK256 DUP1 SLOAD DUP1 PUSH1 0x20 MUL PUSH1 0x20 ADD PUSH1 0x40 MLOAD SWAP1 DUP2 ADD PUSH1 0x40 MSTORE DUP1 SWAP3 SWAP2 SWAP1 DUP2 DUP2 MSTORE PUSH1 0x20 ADD PUSH1 0x0 SWAP1 JUMPDEST DUP3 DUP3 LT ISZERO PUSH2 0x139C JUMPI DUP4 DUP3 SWAP1 PUSH1 0x0 MSTORE PUSH1 0x20 PUSH1 0x0 KECCAK256 SWAP1 PUSH1 0x4 MUL ADD PUSH1 0x40 MLOAD DUP1 PUSH1 0xC0 ADD PUSH1 0x40 MSTORE SWAP1 DUP2 PUSH1 0x0 DUP3 ADD DUP1 SLOAD PUSH2 0x126B SWAP1 PUSH2 0x239F JUMP JUMPDEST DUP1 PUSH1 0x1F ADD PUSH1 0x20 DUP1 SWAP2 DIV MUL PUSH1 0x20 ADD PUSH1 0x40 MLOAD SWAP1 DUP2 ADD PUSH1 0x40 MSTORE DUP1 SWAP3 SWAP2 SWAP1 DUP2 DUP2 MSTORE PUSH1 0x20 ADD DUP3 DUP1 SLOAD PUSH2 0x1297 SWAP1 PUSH2 0x239F JUMP JUMPDEST DUP1 ISZERO PUSH2 0x12E4 JUMPI DUP1 PUSH1 0x1F LT PUSH2 0x12B9 JUMPI PUSH2 0x100 DUP1 DUP4 SLOAD DIV MUL DUP4 MSTORE SWAP2 PUSH1 0x20 ADD SWAP2 PUSH2 0x12E4 JUMP JUMPDEST DUP3 ADD SWAP2 SWAP1 PUSH1 0x0 MSTORE PUSH1 0x20 PUSH1 0x0 KECCAK256 SWAP1 JUMPDEST DUP2 SLOAD DUP2 MSTORE SWAP1 PUSH1 0x1 ADD SWAP1 PUSH1 0x20 ADD DUP1 DUP4 GT PUSH2 0x12C7 JUMPI DUP3 SWAP1 SUB PUSH1 0x1F AND DUP3 ADD SWAP2 JUMPDEST POP POP POP POP POP DUP2 MSTORE PUSH1 0x20 ADD PUSH1 0x1 DUP3 ADD SLOAD DUP2 MSTORE PUSH1 0x20 ADD PUSH1 0x2 DUP3 ADD PUSH1 0x0 SWAP1 SLOAD SWAP1 PUSH2 0x100 EXP SWAP1 DIV PUSH20 0xFFFFFFFFFFFFFFFFFFFFFFFFFFFFFFFFFFFFFFFF AND PUSH20 0xFFFFFFFFFFFFFFFFFFFFFFFFFFFFFFFFFFFFFFFF AND PUSH20 0xFFFFFFFFFFFFFFFFFFFFFFFFFFFFFFFFFFFFFFFF AND DUP2 MSTORE PUSH1 0x20 ADD PUSH1 0x2 DUP3 ADD PUSH1 0x14 SWAP1 SLOAD SWAP1 PUSH2 0x100 EXP SWAP1 DIV PUSH1 0xFF AND ISZERO ISZERO ISZERO ISZERO DUP2 MSTORE PUSH1 0x20 ADD PUSH1 0x2 DUP3 ADD PUSH1 0x15 SWAP1 SLOAD SWAP1 PUSH2 0x100 EXP SWAP1 DIV PUSH1 0xFF AND ISZERO ISZERO ISZERO ISZERO DUP2 MSTORE PUSH1 0x20 ADD PUSH1 0x3 DUP3 ADD SLOAD DUP2 MSTORE POP POP DUP2 MSTORE PUSH1 0x20 ADD SWAP1 PUSH1 0x1 ADD SWAP1 PUSH2 0x1238 JUMP JUMPDEST POP POP POP POP SWAP1 POP PUSH1 0x0 JUMPDEST DUP2 MLOAD DUP2 LT ISZERO PUSH2 0x1469 JUMPI DUP2 DUP2 DUP2 MLOAD DUP2 LT PUSH2 0x13C1 JUMPI PUSH2 0x13C0 PUSH2 0x1FFE JUMP JUMPDEST JUMPDEST PUSH1 0x20 MUL PUSH1 0x20 ADD ADD MLOAD PUSH1 0x40 MLOAD PUSH1 0x20 ADD PUSH2 0x13D9 SWAP2 SWAP1 PUSH2 0x1EC5 JUMP JUMPDEST PUSH1 0x40 MLOAD PUSH1 0x20 DUP2 DUP4 SUB SUB DUP2 MSTORE SWAP1 PUSH1 0x40 MSTORE DUP1 MLOAD SWAP1 PUSH1 0x20 ADD KECCAK256 DUP4 PUSH1 0x40 MLOAD PUSH1 0x20 ADD PUSH2 0x1400 SWAP2 SWAP1 PUSH2 0x2758 JUMP JUMPDEST PUSH1 0x40 MLOAD PUSH1 0x20 DUP2 DUP4 SUB SUB DUP2 MSTORE SWAP1 PUSH1 0x40 MSTORE DUP1 MLOAD SWAP1 PUSH1 0x20 ADD KECCAK256 EQ PUSH2 0x1456 JUMPI PUSH1 0x40 MLOAD PUSH32 0x8C379A000000000000000000000000000000000000000000000000000000000 DUP2 MSTORE PUSH1 0x4 ADD PUSH2 0x144D SWAP1 PUSH2 0x27EC JUMP JUMPDEST PUSH1 0x40 MLOAD DUP1 SWAP2 SUB SWAP1 REVERT JUMPDEST DUP1 DUP1 PUSH2 0x1461 SWAP1 PUSH2 0x280C JUMP JUMPDEST SWAP2 POP POP PUSH2 0x13A5 JUMP JUMPDEST POP PUSH1 0x1 DUP3 PUSH1 0x3 ADD PUSH1 0x0 DUP3 DUP3 SLOAD PUSH2 0x147F SWAP2 SWAP1 PUSH2 0x2462 JUMP JUMPDEST SWAP3 POP POP DUP2 SWAP1 SSTORE POP PUSH1 0x5 PUSH1 0x0 CALLER PUSH20 0xFFFFFFFFFFFFFFFFFFFFFFFFFFFFFFFFFFFFFFFF AND PUSH20 0xFFFFFFFFFFFFFFFFFFFFFFFFFFFFFFFFFFFFFFFF AND DUP2 MSTORE PUSH1 0x20 ADD SWAP1 DUP2 MSTORE PUSH1 0x20 ADD PUSH1 0x0 KECCAK256 DUP3 SWAP1 DUP1 PUSH1 0x1 DUP2 SLOAD ADD DUP1 DUP3 SSTORE DUP1 SWAP2 POP POP PUSH1 0x1 SWAP1 SUB SWAP1 PUSH1 0x0 MSTORE PUSH1 0x20 PUSH1 0x0 KECCAK256 SWAP1 PUSH1 0x4 MUL ADD PUSH1 0x0 SWAP1 SWAP2 SWAP1 SWAP2 SWAP1 SWAP2 POP PUSH1 0x0 DUP3 ADD DUP2 PUSH1 0x0 ADD SWAP1 DUP1 SLOAD PUSH2 0x1503 SWAP1 PUSH2 0x239F JUMP JUMPDEST PUSH2 0x150E SWAP3 SWAP2 SWAP1 PUSH2 0x16C1 JUMP JUMPDEST POP PUSH1 0x1 DUP3 ADD SLOAD DUP2 PUSH1 0x1 ADD SSTORE PUSH1 0x2 DUP3 ADD PUSH1 0x0 SWAP1 SLOAD SWAP1 PUSH2 0x100 EXP SWAP1 DIV PUSH20 0xFFFFFFFFFFFFFFFFFFFFFFFFFFFFFFFFFFFFFFFF AND DUP2 PUSH1 0x2 ADD PUSH1 0x0 PUSH2 0x100 EXP DUP2 SLOAD DUP2 PUSH20 0xFFFFFFFFFFFFFFFFFFFFFFFFFFFFFFFFFFFFFFFF MUL NOT AND SWAP1 DUP4 PUSH20 0xFFFFFFFFFFFFFFFFFFFFFFFFFFFFFFFFFFFFFFFF AND MUL OR SWAP1 SSTORE POP PUSH1 0x2 DUP3 ADD PUSH1 0x14 SWAP1 SLOAD SWAP1 PUSH2 0x100 EXP SWAP1 DIV PUSH1 0xFF AND DUP2 PUSH1 0x2 ADD PUSH1 0x14 PUSH2 0x100 EXP DUP2 SLOAD DUP2 PUSH1 0xFF MUL NOT AND SWAP1 DUP4 ISZERO ISZERO MUL OR SWAP1 SSTORE POP PUSH1 0x2 DUP3 ADD PUSH1 0x15 SWAP1 SLOAD SWAP1 PUSH2 0x100 EXP SWAP1 DIV PUSH1 0xFF AND DUP2 PUSH1 0x2 ADD PUSH1 0x15 PUSH2 0x100 EXP DUP2 SLOAD DUP2 PUSH1 0xFF MUL NOT AND SWAP1 DUP4 ISZERO ISZERO MUL OR SWAP1 SSTORE POP PUSH1 0x3 DUP3 ADD SLOAD DUP2 PUSH1 0x3 ADD SSTORE POP POP POP POP POP JUMP JUMPDEST PUSH1 0x40 MLOAD DUP1 PUSH1 0xC0 ADD PUSH1 0x40 MSTORE DUP1 PUSH1 0x60 DUP2 MSTORE PUSH1 0x20 ADD PUSH1 0x0 DUP2 MSTORE PUSH1 0x20 ADD PUSH1 0x0 PUSH20 0xFFFFFFFFFFFFFFFFFFFFFFFFFFFFFFFFFFFFFFFF AND DUP2 MSTORE PUSH1 0x20 ADD PUSH1 0x0 ISZERO ISZERO DUP2 MSTORE PUSH1 0x20 ADD PUSH1 0x0 ISZERO ISZERO DUP2 MSTORE PUSH1 0x20 ADD PUSH1 0x0 DUP2 MSTORE POP SWAP1 JUMP JUMPDEST DUP3 DUP1 SLOAD PUSH2 0x1647 SWAP1 PUSH2 0x239F JUMP JUMPDEST SWAP1 PUSH1 0x0 MSTORE PUSH1 0x20 PUSH1 0x0 KECCAK256 SWAP1 PUSH1 0x1F ADD PUSH1 0x20 SWAP1 DIV DUP2 ADD SWAP3 DUP3 PUSH2 0x1669 JUMPI PUSH1 0x0 DUP6 SSTORE PUSH2 0x16B0 JUMP JUMPDEST DUP3 PUSH1 0x1F LT PUSH2 0x1682 JUMPI DUP1 MLOAD PUSH1 0xFF NOT AND DUP4 DUP1 ADD OR DUP6 SSTORE PUSH2 0x16B0 JUMP JUMPDEST DUP3 DUP1 ADD PUSH1 0x1 ADD DUP6 SSTORE DUP3 ISZERO PUSH2 0x16B0 JUMPI SWAP2 DUP3 ADD JUMPDEST DUP3 DUP2 GT ISZERO PUSH2 0x16AF JUMPI DUP3 MLOAD DUP3 SSTORE SWAP2 PUSH1 0x20 ADD SWAP2 SWAP1 PUSH1 0x1 ADD SWAP1 PUSH2 0x1694 JUMP JUMPDEST JUMPDEST POP SWAP1 POP PUSH2 0x16BD SWAP2 SWAP1 PUSH2 0x174E JUMP JUMPDEST POP SWAP1 JUMP JUMPDEST DUP3 DUP1 SLOAD PUSH2 0x16CD SWAP1 PUSH2 0x239F JUMP JUMPDEST SWAP1 PUSH1 0x0 MSTORE PUSH1 0x20 PUSH1 0x0 KECCAK256 SWAP1 PUSH1 0x1F ADD PUSH1 0x20 SWAP1 DIV DUP2 ADD SWAP3 DUP3 PUSH2 0x16EF JUMPI PUSH1 0x0 DUP6 SSTORE PUSH2 0x173D JUMP JUMPDEST DUP3 PUSH1 0x1F LT PUSH2 0x1700 JUMPI DUP1 SLOAD DUP6 SSTORE PUSH2 0x173D JUMP JUMPDEST DUP3 DUP1 ADD PUSH1 0x1 ADD DUP6 SSTORE DUP3 ISZERO PUSH2 0x173D JUMPI PUSH1 0x0 MSTORE PUSH1 0x20 PUSH1 0x0 KECCAK256 SWAP2 PUSH1 0x1F ADD PUSH1 0x20 SWAP1 DIV DUP3 ADD JUMPDEST DUP3 DUP2 GT ISZERO PUSH2 0x173C JUMPI DUP3 SLOAD DUP3 SSTORE SWAP2 PUSH1 0x1 ADD SWAP2 SWAP1 PUSH1 0x1 ADD SWAP1 PUSH2 0x1721 JUMP JUMPDEST JUMPDEST POP SWAP1 POP PUSH2 0x174A SWAP2 SWAP1 PUSH2 0x174E JUMP JUMPDEST POP SWAP1 JUMP JUMPDEST JUMPDEST DUP1 DUP3 GT ISZERO PUSH2 0x1767 JUMPI PUSH1 0x0 DUP2 PUSH1 0x0 SWAP1 SSTORE POP PUSH1 0x1 ADD PUSH2 0x174F JUMP JUMPDEST POP SWAP1 JUMP JUMPDEST PUSH1 0x0 PUSH1 0x40 MLOAD SWAP1 POP SWAP1 JUMP JUMPDEST PUSH1 0x0 DUP1 REVERT JUMPDEST PUSH1 0x0 DUP1 REVERT JUMPDEST PUSH1 0x0 DUP2 SWAP1 POP SWAP2 SWAP1 POP JUMP JUMPDEST PUSH2 0x1792 DUP2 PUSH2 0x177F JUMP JUMPDEST DUP2 EQ PUSH2 0x179D JUMPI PUSH1 0x0 DUP1 REVERT JUMPDEST POP JUMP JUMPDEST PUSH1 0x0 DUP2 CALLDATALOAD SWAP1 POP PUSH2 0x17AF DUP2 PUSH2 0x1789 JUMP JUMPDEST SWAP3 SWAP2 POP POP JUMP JUMPDEST PUSH1 0x0 PUSH1 0x20 DUP3 DUP5 SUB SLT ISZERO PUSH2 0x17CB JUMPI PUSH2 0x17CA PUSH2 0x1775 JUMP JUMPDEST JUMPDEST PUSH1 0x0 PUSH2 0x17D9 DUP5 DUP3 DUP6 ADD PUSH2 0x17A0 JUMP JUMPDEST SWAP2 POP POP SWAP3 SWAP2 POP POP JUMP JUMPDEST PUSH1 0x0 PUSH20 0xFFFFFFFFFFFFFFFFFFFFFFFFFFFFFFFFFFFFFFFF DUP3 AND SWAP1 POP SWAP2 SWAP1 POP JUMP JUMPDEST PUSH1 0x0 PUSH2 0x180D DUP3 PUSH2 0x17E2 JUMP JUMPDEST SWAP1 POP SWAP2 SWAP1 POP JUMP JUMPDEST PUSH2 0x181D DUP2 PUSH2 0x1802 JUMP JUMPDEST DUP2 EQ PUSH2 0x1828 JUMPI PUSH1 0x0 DUP1 REVERT JUMPDEST POP JUMP JUMPDEST PUSH1 0x0 DUP2 CALLDATALOAD SWAP1 POP PUSH2 0x183A DUP2 PUSH2 0x1814 JUMP JUMPDEST SWAP3 SWAP2 POP POP JUMP JUMPDEST PUSH1 0x0 PUSH1 0x20 DUP3 DUP5 SUB SLT ISZERO PUSH2 0x1856 JUMPI PUSH2 0x1855 PUSH2 0x1775 JUMP JUMPDEST JUMPDEST PUSH1 0x0 PUSH2 0x1864 DUP5 DUP3 DUP6 ADD PUSH2 0x182B JUMP JUMPDEST SWAP2 POP POP SWAP3 SWAP2 POP POP JUMP JUMPDEST PUSH1 0x0 DUP2 MLOAD SWAP1 POP SWAP2 SWAP1 POP JUMP JUMPDEST PUSH1 0x0 DUP3 DUP3 MSTORE PUSH1 0x20 DUP3 ADD SWAP1 POP SWAP3 SWAP2 POP POP JUMP JUMPDEST PUSH1 0x0 DUP2 SWAP1 POP PUSH1 0x20 DUP3 ADD SWAP1 POP SWAP2 SWAP1 POP JUMP JUMPDEST PUSH1 0x0 DUP2 MLOAD SWAP1 POP SWAP2 SWAP1 POP JUMP JUMPDEST PUSH1 0x0 DUP3 DUP3 MSTORE PUSH1 0x20 DUP3 ADD SWAP1 POP SWAP3 SWAP2 POP POP JUMP JUMPDEST PUSH1 0x0 JUMPDEST DUP4 DUP2 LT ISZERO PUSH2 0x18D3 JUMPI DUP1 DUP3 ADD MLOAD DUP2 DUP5 ADD MSTORE PUSH1 0x20 DUP2 ADD SWAP1 POP PUSH2 0x18B8 JUMP JUMPDEST DUP4 DUP2 GT ISZERO PUSH2 0x18E2 JUMPI PUSH1 0x0 DUP5 DUP5 ADD MSTORE JUMPDEST POP POP POP POP JUMP JUMPDEST PUSH1 0x0 PUSH1 0x1F NOT PUSH1 0x1F DUP4 ADD AND SWAP1 POP SWAP2 SWAP1 POP JUMP JUMPDEST PUSH1 0x0 PUSH2 0x1904 DUP3 PUSH2 0x1899 JUMP JUMPDEST PUSH2 0x190E DUP2 DUP6 PUSH2 0x18A4 JUMP JUMPDEST SWAP4 POP PUSH2 0x191E DUP2 DUP6 PUSH1 0x20 DUP7 ADD PUSH2 0x18B5 JUMP JUMPDEST PUSH2 0x1927 DUP2 PUSH2 0x18E8 JUMP JUMPDEST DUP5 ADD SWAP2 POP POP SWAP3 SWAP2 POP POP JUMP JUMPDEST PUSH2 0x193B DUP2 PUSH2 0x177F JUMP JUMPDEST DUP3 MSTORE POP POP JUMP JUMPDEST PUSH2 0x194A DUP2 PUSH2 0x1802 JUMP JUMPDEST DUP3 MSTORE POP POP JUMP JUMPDEST PUSH1 0x0 DUP2 ISZERO ISZERO SWAP1 POP SWAP2 SWAP1 POP JUMP JUMPDEST PUSH2 0x1965 DUP2 PUSH2 0x1950 JUMP JUMPDEST DUP3 MSTORE POP POP JUMP JUMPDEST PUSH1 0x0 PUSH1 0xC0 DUP4 ADD PUSH1 0x0 DUP4 ADD MLOAD DUP5 DUP3 SUB PUSH1 0x0 DUP7 ADD MSTORE PUSH2 0x1988 DUP3 DUP3 PUSH2 0x18F9 JUMP JUMPDEST SWAP2 POP POP PUSH1 0x20 DUP4 ADD MLOAD PUSH2 0x199D PUSH1 0x20 DUP7 ADD DUP3 PUSH2 0x1932 JUMP JUMPDEST POP PUSH1 0x40 DUP4 ADD MLOAD PUSH2 0x19B0 PUSH1 0x40 DUP7 ADD DUP3 PUSH2 0x1941 JUMP JUMPDEST POP PUSH1 0x60 DUP4 ADD MLOAD PUSH2 0x19C3 PUSH1 0x60 DUP7 ADD DUP3 PUSH2 0x195C JUMP JUMPDEST POP PUSH1 0x80 DUP4 ADD MLOAD PUSH2 0x19D6 PUSH1 0x80 DUP7 ADD DUP3 PUSH2 0x195C JUMP JUMPDEST POP PUSH1 0xA0 DUP4 ADD MLOAD PUSH2 0x19E9 PUSH1 0xA0 DUP7 ADD DUP3 PUSH2 0x1932 JUMP JUMPDEST POP DUP1 SWAP2 POP POP SWAP3 SWAP2 POP POP JUMP JUMPDEST PUSH1 0x0 PUSH2 0x1A00 DUP4 DUP4 PUSH2 0x196B JUMP JUMPDEST SWAP1 POP SWAP3 SWAP2 POP POP JUMP JUMPDEST PUSH1 0x0 PUSH1 0x20 DUP3 ADD SWAP1 POP SWAP2 SWAP1 POP JUMP JUMPDEST PUSH1 0x0 PUSH2 0x1A20 DUP3 PUSH2 0x186D JUMP JUMPDEST PUSH2 0x1A2A DUP2 DUP6 PUSH2 0x1878 JUMP JUMPDEST SWAP4 POP DUP4 PUSH1 0x20 DUP3 MUL DUP6 ADD PUSH2 0x1A3C DUP6 PUSH2 0x1889 JUMP JUMPDEST DUP1 PUSH1 0x0 JUMPDEST DUP6 DUP2 LT ISZERO PUSH2 0x1A78 JUMPI DUP5 DUP5 SUB DUP10 MSTORE DUP2 MLOAD PUSH2 0x1A59 DUP6 DUP3 PUSH2 0x19F4 JUMP JUMPDEST SWAP5 POP PUSH2 0x1A64 DUP4 PUSH2 0x1A08 JUMP JUMPDEST SWAP3 POP PUSH1 0x20 DUP11 ADD SWAP10 POP POP PUSH1 0x1 DUP2 ADD SWAP1 POP PUSH2 0x1A40 JUMP JUMPDEST POP DUP3 SWAP8 POP DUP8 SWAP6 POP POP POP POP POP POP SWAP3 SWAP2 POP POP JUMP JUMPDEST PUSH1 0x0 PUSH1 0x20 DUP3 ADD SWAP1 POP DUP2 DUP2 SUB PUSH1 0x0 DUP4 ADD MSTORE PUSH2 0x1AA4 DUP2 DUP5 PUSH2 0x1A15 JUMP JUMPDEST SWAP1 POP SWAP3 SWAP2 POP POP JUMP JUMPDEST PUSH1 0x0 DUP2 MLOAD SWAP1 POP SWAP2 SWAP1 POP JUMP JUMPDEST PUSH1 0x0 DUP3 DUP3 MSTORE PUSH1 0x20 DUP3 ADD SWAP1 POP SWAP3 SWAP2 POP POP JUMP JUMPDEST PUSH1 0x0 DUP2 SWAP1 POP PUSH1 0x20 DUP3 ADD SWAP1 POP SWAP2 SWAP1 POP JUMP JUMPDEST PUSH1 0x0 PUSH2 0x1AE3 DUP3 PUSH2 0x17E2 JUMP JUMPDEST SWAP1 POP SWAP2 SWAP1 POP JUMP JUMPDEST PUSH2 0x1AF3 DUP2 PUSH2 0x1AD8 JUMP JUMPDEST DUP3 MSTORE POP POP JUMP JUMPDEST PUSH1 0x0 PUSH2 0x1B05 DUP4 DUP4 PUSH2 0x1AEA JUMP JUMPDEST PUSH1 0x20 DUP4 ADD SWAP1 POP SWAP3 SWAP2 POP POP JUMP JUMPDEST PUSH1 0x0 PUSH1 0x20 DUP3 ADD SWAP1 POP SWAP2 SWAP1 POP JUMP JUMPDEST PUSH1 0x0 PUSH2 0x1B29 DUP3 PUSH2 0x1AAC JUMP JUMPDEST PUSH2 0x1B33 DUP2 DUP6 PUSH2 0x1AB7 JUMP JUMPDEST SWAP4 POP PUSH2 0x1B3E DUP4 PUSH2 0x1AC8 JUMP JUMPDEST DUP1 PUSH1 0x0 JUMPDEST DUP4 DUP2 LT ISZERO PUSH2 0x1B6F JUMPI DUP2 MLOAD PUSH2 0x1B56 DUP9 DUP3 PUSH2 0x1AF9 JUMP JUMPDEST SWAP8 POP PUSH2 0x1B61 DUP4 PUSH2 0x1B11 JUMP JUMPDEST SWAP3 POP POP PUSH1 0x1 DUP2 ADD SWAP1 POP PUSH2 0x1B42 JUMP JUMPDEST POP DUP6 SWAP4 POP POP POP POP SWAP3 SWAP2 POP POP JUMP JUMPDEST PUSH1 0x0 PUSH1 0x20 DUP3 ADD SWAP1 POP DUP2 DUP2 SUB PUSH1 0x0 DUP4 ADD MSTORE PUSH2 0x1B96 DUP2 DUP5 PUSH2 0x1B1E JUMP JUMPDEST SWAP1 POP SWAP3 SWAP2 POP POP JUMP JUMPDEST PUSH2 0x1BA7 DUP2 PUSH2 0x1802 JUMP JUMPDEST DUP3 MSTORE POP POP JUMP JUMPDEST PUSH1 0x0 PUSH1 0x20 DUP3 ADD SWAP1 POP PUSH2 0x1BC2 PUSH1 0x0 DUP4 ADD DUP5 PUSH2 0x1B9E JUMP JUMPDEST SWAP3 SWAP2 POP POP JUMP JUMPDEST PUSH1 0x0 DUP3 DUP3 MSTORE PUSH1 0x20 DUP3 ADD SWAP1 POP SWAP3 SWAP2 POP POP JUMP JUMPDEST PUSH1 0x0 PUSH2 0x1BE4 DUP3 PUSH2 0x1899 JUMP JUMPDEST PUSH2 0x1BEE DUP2 DUP6 PUSH2 0x1BC8 JUMP JUMPDEST SWAP4 POP PUSH2 0x1BFE DUP2 DUP6 PUSH1 0x20 DUP7 ADD PUSH2 0x18B5 JUMP JUMPDEST PUSH2 0x1C07 DUP2 PUSH2 0x18E8 JUMP JUMPDEST DUP5 ADD SWAP2 POP POP SWAP3 SWAP2 POP POP JUMP JUMPDEST PUSH2 0x1C1B DUP2 PUSH2 0x177F JUMP JUMPDEST DUP3 MSTORE POP POP JUMP JUMPDEST PUSH2 0x1C2A DUP2 PUSH2 0x1950 JUMP JUMPDEST DUP3 MSTORE POP POP JUMP JUMPDEST PUSH1 0x0 PUSH1 0xC0 DUP3 ADD SWAP1 POP DUP2 DUP2 SUB PUSH1 0x0 DUP4 ADD MSTORE PUSH2 0x1C4A DUP2 DUP10 PUSH2 0x1BD9 JUMP JUMPDEST SWAP1 POP PUSH2 0x1C59 PUSH1 0x20 DUP4 ADD DUP9 PUSH2 0x1C12 JUMP JUMPDEST PUSH2 0x1C66 PUSH1 0x40 DUP4 ADD DUP8 PUSH2 0x1B9E JUMP JUMPDEST PUSH2 0x1C73 PUSH1 0x60 DUP4 ADD DUP7 PUSH2 0x1C21 JUMP JUMPDEST PUSH2 0x1C80 PUSH1 0x80 DUP4 ADD DUP6 PUSH2 0x1C21 JUMP JUMPDEST PUSH2 0x1C8D PUSH1 0xA0 DUP4 ADD DUP5 PUSH2 0x1C12 JUMP JUMPDEST SWAP8 SWAP7 POP POP POP POP POP POP POP JUMP JUMPDEST PUSH1 0x0 DUP1 REVERT JUMPDEST PUSH1 0x0 DUP1 REVERT JUMPDEST PUSH32 0x4E487B7100000000000000000000000000000000000000000000000000000000 PUSH1 0x0 MSTORE PUSH1 0x41 PUSH1 0x4 MSTORE PUSH1 0x24 PUSH1 0x0 REVERT JUMPDEST PUSH2 0x1CDA DUP3 PUSH2 0x18E8 JUMP JUMPDEST DUP2 ADD DUP2 DUP2 LT PUSH8 0xFFFFFFFFFFFFFFFF DUP3 GT OR ISZERO PUSH2 0x1CF9 JUMPI PUSH2 0x1CF8 PUSH2 0x1CA2 JUMP JUMPDEST JUMPDEST DUP1 PUSH1 0x40 MSTORE POP POP POP JUMP JUMPDEST PUSH1 0x0 PUSH2 0x1D0C PUSH2 0x176B JUMP JUMPDEST SWAP1 POP PUSH2 0x1D18 DUP3 DUP3 PUSH2 0x1CD1 JUMP JUMPDEST SWAP2 SWAP1 POP JUMP JUMPDEST PUSH1 0x0 PUSH8 0xFFFFFFFFFFFFFFFF DUP3 GT ISZERO PUSH2 0x1D38 JUMPI PUSH2 0x1D37 PUSH2 0x1CA2 JUMP JUMPDEST JUMPDEST PUSH2 0x1D41 DUP3 PUSH2 0x18E8 JUMP JUMPDEST SWAP1 POP PUSH1 0x20 DUP2 ADD SWAP1 POP SWAP2 SWAP1 POP JUMP JUMPDEST DUP3 DUP2 DUP4 CALLDATACOPY PUSH1 0x0 DUP4 DUP4 ADD MSTORE POP POP POP JUMP JUMPDEST PUSH1 0x0 PUSH2 0x1D70 PUSH2 0x1D6B DUP5 PUSH2 0x1D1D JUMP JUMPDEST PUSH2 0x1D02 JUMP JUMPDEST SWAP1 POP DUP3 DUP2 MSTORE PUSH1 0x20 DUP2 ADD DUP5 DUP5 DUP5 ADD GT ISZERO PUSH2 0x1D8C JUMPI PUSH2 0x1D8B PUSH2 0x1C9D JUMP JUMPDEST JUMPDEST PUSH2 0x1D97 DUP5 DUP3 DUP6 PUSH2 0x1D4E JUMP JUMPDEST POP SWAP4 SWAP3 POP POP POP JUMP JUMPDEST PUSH1 0x0 DUP3 PUSH1 0x1F DUP4 ADD SLT PUSH2 0x1DB4 JUMPI PUSH2 0x1DB3 PUSH2 0x1C98 JUMP JUMPDEST JUMPDEST DUP2 CALLDATALOAD PUSH2 0x1DC4 DUP5 DUP3 PUSH1 0x20 DUP7 ADD PUSH2 0x1D5D JUMP JUMPDEST SWAP2 POP POP SWAP3 SWAP2 POP POP JUMP JUMPDEST PUSH1 0x0 DUP1 PUSH1 0x0 PUSH1 0x60 DUP5 DUP7 SUB SLT ISZERO PUSH2 0x1DE6 JUMPI PUSH2 0x1DE5 PUSH2 0x1775 JUMP JUMPDEST JUMPDEST PUSH1 0x0 DUP5 ADD CALLDATALOAD PUSH8 0xFFFFFFFFFFFFFFFF DUP2 GT ISZERO PUSH2 0x1E04 JUMPI PUSH2 0x1E03 PUSH2 0x177A JUMP JUMPDEST JUMPDEST PUSH2 0x1E10 DUP7 DUP3 DUP8 ADD PUSH2 0x1D9F JUMP JUMPDEST SWAP4 POP POP PUSH1 0x20 PUSH2 0x1E21 DUP7 DUP3 DUP8 ADD PUSH2 0x17A0 JUMP JUMPDEST SWAP3 POP POP PUSH1 0x40 PUSH2 0x1E32 DUP7 DUP3 DUP8 ADD PUSH2 0x182B JUMP JUMPDEST SWAP2 POP POP SWAP3 POP SWAP3 POP SWAP3 JUMP JUMPDEST PUSH1 0x0 PUSH1 0xC0 DUP4 ADD PUSH1 0x0 DUP4 ADD MLOAD DUP5 DUP3 SUB PUSH1 0x0 DUP7 ADD MSTORE PUSH2 0x1E59 DUP3 DUP3 PUSH2 0x18F9 JUMP JUMPDEST SWAP2 POP POP PUSH1 0x20 DUP4 ADD MLOAD PUSH2 0x1E6E PUSH1 0x20 DUP7 ADD DUP3 PUSH2 0x1932 JUMP JUMPDEST POP PUSH1 0x40 DUP4 ADD MLOAD PUSH2 0x1E81 PUSH1 0x40 DUP7 ADD DUP3 PUSH2 0x1941 JUMP JUMPDEST POP PUSH1 0x60 DUP4 ADD MLOAD PUSH2 0x1E94 PUSH1 0x60 DUP7 ADD DUP3 PUSH2 0x195C JUMP JUMPDEST POP PUSH1 0x80 DUP4 ADD MLOAD PUSH2 0x1EA7 PUSH1 0x80 DUP7 ADD DUP3 PUSH2 0x195C JUMP JUMPDEST POP PUSH1 0xA0 DUP4 ADD MLOAD PUSH2 0x1EBA PUSH1 0xA0 DUP7 ADD DUP3 PUSH2 0x1932 JUMP JUMPDEST POP DUP1 SWAP2 POP POP SWAP3 SWAP2 POP POP JUMP JUMPDEST PUSH1 0x0 PUSH1 0x20 DUP3 ADD SWAP1 POP DUP2 DUP2 SUB PUSH1 0x0 DUP4 ADD MSTORE PUSH2 0x1EDF DUP2 DUP5 PUSH2 0x1E3C JUMP JUMPDEST SWAP1 POP SWAP3 SWAP2 POP POP JUMP JUMPDEST PUSH1 0x0 PUSH1 0x20 DUP3 ADD SWAP1 POP PUSH2 0x1EFC PUSH1 0x0 DUP4 ADD DUP5 PUSH2 0x1C12 JUMP JUMPDEST SWAP3 SWAP2 POP POP JUMP JUMPDEST PUSH2 0x1F0B DUP2 PUSH2 0x1AD8 JUMP JUMPDEST DUP3 MSTORE POP POP JUMP JUMPDEST PUSH1 0x0 PUSH1 0x20 DUP3 ADD SWAP1 POP PUSH2 0x1F26 PUSH1 0x0 DUP4 ADD DUP5 PUSH2 0x1F02 JUMP JUMPDEST SWAP3 SWAP2 POP POP JUMP JUMPDEST PUSH1 0x0 DUP1 PUSH1 0x40 DUP4 DUP6 SUB SLT ISZERO PUSH2 0x1F43 JUMPI PUSH2 0x1F42 PUSH2 0x1775 JUMP JUMPDEST JUMPDEST PUSH1 0x0 PUSH2 0x1F51 DUP6 DUP3 DUP7 ADD PUSH2 0x182B JUMP JUMPDEST SWAP3 POP POP PUSH1 0x20 PUSH2 0x1F62 DUP6 DUP3 DUP7 ADD PUSH2 0x17A0 JUMP JUMPDEST SWAP2 POP POP SWAP3 POP SWAP3 SWAP1 POP JUMP JUMPDEST PUSH32 0x546869732066756E6374696F6E2063616E206F6E6C792062652063616C6C6564 PUSH1 0x0 DUP3 ADD MSTORE PUSH32 0x20627920746865206D616E616765720000000000000000000000000000000000 PUSH1 0x20 DUP3 ADD MSTORE POP JUMP JUMPDEST PUSH1 0x0 PUSH2 0x1FC8 PUSH1 0x2F DUP4 PUSH2 0x1BC8 JUMP JUMPDEST SWAP2 POP PUSH2 0x1FD3 DUP3 PUSH2 0x1F6C JUMP JUMPDEST PUSH1 0x40 DUP3 ADD SWAP1 POP SWAP2 SWAP1 POP JUMP JUMPDEST PUSH1 0x0 PUSH1 0x20 DUP3 ADD SWAP1 POP DUP2 DUP2 SUB PUSH1 0x0 DUP4 ADD MSTORE PUSH2 0x1FF7 DUP2 PUSH2 0x1FBB JUMP JUMPDEST SWAP1 POP SWAP2 SWAP1 POP JUMP JUMPDEST PUSH32 0x4E487B7100000000000000000000000000000000000000000000000000000000 PUSH1 0x0 MSTORE PUSH1 0x32 PUSH1 0x4 MSTORE PUSH1 0x24 PUSH1 0x0 REVERT JUMPDEST PUSH32 0x4E487B7100000000000000000000000000000000000000000000000000000000 PUSH1 0x0 MSTORE PUSH1 0x12 PUSH1 0x4 MSTORE PUSH1 0x24 PUSH1 0x0 REVERT JUMPDEST PUSH32 0x4E487B7100000000000000000000000000000000000000000000000000000000 PUSH1 0x0 MSTORE PUSH1 0x11 PUSH1 0x4 MSTORE PUSH1 0x24 PUSH1 0x0 REVERT JUMPDEST PUSH1 0x0 PUSH2 0x2096 DUP3 PUSH2 0x177F JUMP JUMPDEST SWAP2 POP PUSH2 0x20A1 DUP4 PUSH2 0x177F JUMP JUMPDEST SWAP3 POP DUP3 PUSH2 0x20B1 JUMPI PUSH2 0x20B0 PUSH2 0x202D JUMP JUMPDEST JUMPDEST DUP3 DUP3 DIV SWAP1 POP SWAP3 SWAP2 POP POP JUMP JUMPDEST PUSH32 0x546865726520617265206E6F7420656E6F75676820706F736974697665732076 PUSH1 0x0 DUP3 ADD MSTORE PUSH32 0x6F74657300000000000000000000000000000000000000000000000000000000 PUSH1 0x20 DUP3 ADD MSTORE POP JUMP JUMPDEST PUSH1 0x0 PUSH2 0x2118 PUSH1 0x24 DUP4 PUSH2 0x1BC8 JUMP JUMPDEST SWAP2 POP PUSH2 0x2123 DUP3 PUSH2 0x20BC JUMP JUMPDEST PUSH1 0x40 DUP3 ADD SWAP1 POP SWAP2 SWAP1 POP JUMP JUMPDEST PUSH1 0x0 PUSH1 0x20 DUP3 ADD SWAP1 POP DUP2 DUP2 SUB PUSH1 0x0 DUP4 ADD MSTORE PUSH2 0x2147 DUP2 PUSH2 0x210B JUMP JUMPDEST SWAP1 POP SWAP2 SWAP1 POP JUMP JUMPDEST PUSH32 0x5468697320726571756573742068617320616C7265616479206265656E20636F PUSH1 0x0 DUP3 ADD MSTORE PUSH32 0x6D706C6574656400000000000000000000000000000000000000000000000000 PUSH1 0x20 DUP3 ADD MSTORE POP JUMP JUMPDEST PUSH1 0x0 PUSH2 0x21AA PUSH1 0x27 DUP4 PUSH2 0x1BC8 JUMP JUMPDEST SWAP2 POP PUSH2 0x21B5 DUP3 PUSH2 0x214E JUMP JUMPDEST PUSH1 0x40 DUP3 ADD SWAP1 POP SWAP2 SWAP1 POP JUMP JUMPDEST PUSH1 0x0 PUSH1 0x20 DUP3 ADD SWAP1 POP DUP2 DUP2 SUB PUSH1 0x0 DUP4 ADD MSTORE PUSH2 0x21D9 DUP2 PUSH2 0x219D JUMP JUMPDEST SWAP1 POP SWAP2 SWAP1 POP JUMP JUMPDEST PUSH32 0x54686973207265717565737420686173206265656E2063616E63656C65640000 PUSH1 0x0 DUP3 ADD MSTORE POP JUMP JUMPDEST PUSH1 0x0 PUSH2 0x2216 PUSH1 0x1E DUP4 PUSH2 0x1BC8 JUMP JUMPDEST SWAP2 POP PUSH2 0x2221 DUP3 PUSH2 0x21E0 JUMP JUMPDEST PUSH1 0x20 DUP3 ADD SWAP1 POP SWAP2 SWAP1 POP JUMP JUMPDEST PUSH1 0x0 PUSH1 0x20 DUP3 ADD SWAP1 POP DUP2 DUP2 SUB PUSH1 0x0 DUP4 ADD MSTORE PUSH2 0x2245 DUP2 PUSH2 0x2209 JUMP JUMPDEST SWAP1 POP SWAP2 SWAP1 POP JUMP JUMPDEST PUSH32 0x5468652063616D706169676E20646F6573206E6F74206861766520656E6F7567 PUSH1 0x0 DUP3 ADD MSTORE PUSH32 0x682066756E647300000000000000000000000000000000000000000000000000 PUSH1 0x20 DUP3 ADD MSTORE POP JUMP JUMPDEST PUSH1 0x0 PUSH2 0x22A8 PUSH1 0x27 DUP4 PUSH2 0x1BC8 JUMP JUMPDEST SWAP2 POP PUSH2 0x22B3 DUP3 PUSH2 0x224C JUMP JUMPDEST PUSH1 0x40 DUP3 ADD SWAP1 POP SWAP2 SWAP1 POP JUMP JUMPDEST PUSH1 0x0 PUSH1 0x20 DUP3 ADD SWAP1 POP DUP2 DUP2 SUB PUSH1 0x0 DUP4 ADD MSTORE PUSH2 0x22D7 DUP2 PUSH2 0x229B JUMP JUMPDEST SWAP1 POP SWAP2 SWAP1 POP JUMP JUMPDEST PUSH32 0x54686520676976656E2061646472657373206973206E6F742061206261636B65 PUSH1 0x0 DUP3 ADD MSTORE PUSH32 0x7200000000000000000000000000000000000000000000000000000000000000 PUSH1 0x20 DUP3 ADD MSTORE POP JUMP JUMPDEST PUSH1 0x0 PUSH2 0x233A PUSH1 0x21 DUP4 PUSH2 0x1BC8 JUMP JUMPDEST SWAP2 POP PUSH2 0x2345 DUP3 PUSH2 0x22DE JUMP JUMPDEST PUSH1 0x40 DUP3 ADD SWAP1 POP SWAP2 SWAP1 POP JUMP JUMPDEST PUSH1 0x0 PUSH1 0x20 DUP3 ADD SWAP1 POP DUP2 DUP2 SUB PUSH1 0x0 DUP4 ADD MSTORE PUSH2 0x2369 DUP2 PUSH2 0x232D JUMP JUMPDEST SWAP1 POP SWAP2 SWAP1 POP JUMP JUMPDEST PUSH32 0x4E487B7100000000000000000000000000000000000000000000000000000000 PUSH1 0x0 MSTORE PUSH1 0x22 PUSH1 0x4 MSTORE PUSH1 0x24 PUSH1 0x0 REVERT JUMPDEST PUSH1 0x0 PUSH1 0x2 DUP3 DIV SWAP1 POP PUSH1 0x1 DUP3 AND DUP1 PUSH2 0x23B7 JUMPI PUSH1 0x7F DUP3 AND SWAP2 POP JUMPDEST PUSH1 0x20 DUP3 LT DUP2 SUB PUSH2 0x23CA JUMPI PUSH2 0x23C9 PUSH2 0x2370 JUMP JUMPDEST JUMPDEST POP SWAP2 SWAP1 POP JUMP JUMPDEST PUSH32 0x596F75206E65656420746F2073656E64206174206C6561737420746865206D69 PUSH1 0x0 DUP3 ADD MSTORE PUSH32 0x6E696D756D20636F6E747269627574696F6E0000000000000000000000000000 PUSH1 0x20 DUP3 ADD MSTORE POP JUMP JUMPDEST PUSH1 0x0 PUSH2 0x242C PUSH1 0x32 DUP4 PUSH2 0x1BC8 JUMP JUMPDEST SWAP2 POP PUSH2 0x2437 DUP3 PUSH2 0x23D0 JUMP JUMPDEST PUSH1 0x40 DUP3 ADD SWAP1 POP SWAP2 SWAP1 POP JUMP JUMPDEST PUSH1 0x0 PUSH1 0x20 DUP3 ADD SWAP1 POP DUP2 DUP2 SUB PUSH1 0x0 DUP4 ADD MSTORE PUSH2 0x245B DUP2 PUSH2 0x241F JUMP JUMPDEST SWAP1 POP SWAP2 SWAP1 POP JUMP JUMPDEST PUSH1 0x0 PUSH2 0x246D DUP3 PUSH2 0x177F JUMP JUMPDEST SWAP2 POP PUSH2 0x2478 DUP4 PUSH2 0x177F JUMP JUMPDEST SWAP3 POP DUP3 PUSH32 0xFFFFFFFFFFFFFFFFFFFFFFFFFFFFFFFFFFFFFFFFFFFFFFFFFFFFFFFFFFFFFFFF SUB DUP3 GT ISZERO PUSH2 0x24AD JUMPI PUSH2 0x24AC PUSH2 0x205C JUMP JUMPDEST JUMPDEST DUP3 DUP3 ADD SWAP1 POP SWAP3 SWAP2 POP POP JUMP JUMPDEST PUSH32 0x546869732066756E6374696F6E2063616E206F6E6C792062652063616C6C6564 PUSH1 0x0 DUP3 ADD MSTORE PUSH32 0x2062792061206261636B65720000000000000000000000000000000000000000 PUSH1 0x20 DUP3 ADD MSTORE POP JUMP JUMPDEST PUSH1 0x0 PUSH2 0x2514 PUSH1 0x2C DUP4 PUSH2 0x1BC8 JUMP JUMPDEST SWAP2 POP PUSH2 0x251F DUP3 PUSH2 0x24B8 JUMP JUMPDEST PUSH1 0x40 DUP3 ADD SWAP1 POP SWAP2 SWAP1 POP JUMP JUMPDEST PUSH1 0x0 PUSH1 0x20 DUP3 ADD SWAP1 POP DUP2 DUP2 SUB PUSH1 0x0 DUP4 ADD MSTORE PUSH2 0x2543 DUP2 PUSH2 0x2507 JUMP JUMPDEST SWAP1 POP SWAP2 SWAP1 POP JUMP JUMPDEST PUSH1 0x0 DUP2 SWAP1 POP DUP2 PUSH1 0x0 MSTORE PUSH1 0x20 PUSH1 0x0 KECCAK256 SWAP1 POP SWAP2 SWAP1 POP JUMP JUMPDEST PUSH1 0x0 DUP2 SLOAD PUSH2 0x256C DUP2 PUSH2 0x239F JUMP JUMPDEST PUSH2 0x2576 DUP2 DUP7 PUSH2 0x18A4 JUMP JUMPDEST SWAP5 POP PUSH1 0x1 DUP3 AND PUSH1 0x0 DUP2 EQ PUSH2 0x2591 JUMPI PUSH1 0x1 DUP2 EQ PUSH2 0x25A3 JUMPI PUSH2 0x25D6 JUMP JUMPDEST PUSH1 0xFF NOT DUP4 AND DUP7 MSTORE PUSH1 0x20 DUP7 ADD SWAP4 POP PUSH2 0x25D6 JUMP JUMPDEST PUSH2 0x25AC DUP6 PUSH2 0x254A JUMP JUMPDEST PUSH1 0x0 JUMPDEST DUP4 DUP2 LT ISZERO PUSH2 0x25CE JUMPI DUP2 SLOAD DUP2 DUP10 ADD MSTORE PUSH1 0x1 DUP3 ADD SWAP2 POP PUSH1 0x20 DUP2 ADD SWAP1 POP PUSH2 0x25AF JUMP JUMPDEST DUP1 DUP9 ADD SWAP6 POP POP POP JUMPDEST POP POP POP SWAP3 SWAP2 POP POP JUMP JUMPDEST PUSH1 0x0 DUP2 PUSH1 0x0 SHR SWAP1 POP SWAP2 SWAP1 POP JUMP JUMPDEST PUSH1 0x0 DUP2 SWAP1 POP SWAP2 SWAP1 POP JUMP JUMPDEST PUSH1 0x0 PUSH2 0x2609 PUSH2 0x2604 DUP4 PUSH2 0x25DF JUMP JUMPDEST PUSH2 0x25EC JUMP JUMPDEST SWAP1 POP SWAP2 SWAP1 POP JUMP JUMPDEST PUSH1 0x0 PUSH20 0xFFFFFFFFFFFFFFFFFFFFFFFFFFFFFFFFFFFFFFFF DUP3 AND SWAP1 POP SWAP2 SWAP1 POP JUMP JUMPDEST PUSH1 0x0 PUSH2 0x2643 PUSH2 0x263E DUP4 PUSH2 0x25DF JUMP JUMPDEST PUSH2 0x2610 JUMP JUMPDEST SWAP1 POP SWAP2 SWAP1 POP JUMP JUMPDEST PUSH1 0x0 DUP2 PUSH1 0xA0 SHR SWAP1 POP SWAP2 SWAP1 POP JUMP JUMPDEST PUSH1 0x0 PUSH1 0xFF DUP3 AND SWAP1 POP SWAP2 SWAP1 POP JUMP JUMPDEST PUSH1 0x0 PUSH2 0x2677 PUSH2 0x2672 DUP4 PUSH2 0x264A JUMP JUMPDEST PUSH2 0x2657 JUMP JUMPDEST SWAP1 POP SWAP2 SWAP1 POP JUMP JUMPDEST PUSH1 0x0 DUP2 PUSH1 0xA8 SHR SWAP1 POP SWAP2 SWAP1 POP JUMP JUMPDEST PUSH1 0x0 PUSH2 0x269E PUSH2 0x2699 DUP4 PUSH2 0x267E JUMP JUMPDEST PUSH2 0x2657 JUMP JUMPDEST SWAP1 POP SWAP2 SWAP1 POP JUMP JUMPDEST PUSH1 0x0 PUSH1 0xC0 DUP4 ADD PUSH1 0x0 DUP1 DUP5 ADD DUP6 DUP4 SUB PUSH1 0x0 DUP8 ADD MSTORE PUSH2 0x26C2 DUP4 DUP3 PUSH2 0x255F JUMP JUMPDEST SWAP3 POP POP PUSH1 0x1 DUP5 ADD SLOAD SWAP1 POP PUSH2 0x26D5 DUP2 PUSH2 0x25F6 JUMP JUMPDEST PUSH2 0x26E2 PUSH1 0x20 DUP8 ADD DUP3 PUSH2 0x1932 JUMP JUMPDEST POP PUSH1 0x2 DUP5 ADD SLOAD SWAP1 POP PUSH2 0x26F3 DUP2 PUSH2 0x2630 JUMP JUMPDEST PUSH2 0x2700 PUSH1 0x40 DUP8 ADD DUP3 PUSH2 0x1941 JUMP JUMPDEST POP PUSH2 0x270A DUP2 PUSH2 0x2664 JUMP JUMPDEST PUSH2 0x2717 PUSH1 0x60 DUP8 ADD DUP3 PUSH2 0x195C JUMP JUMPDEST POP PUSH2 0x2721 DUP2 PUSH2 0x268B JUMP JUMPDEST PUSH2 0x272E PUSH1 0x80 DUP8 ADD DUP3 PUSH2 0x195C JUMP JUMPDEST POP PUSH1 0x3 DUP5 ADD SLOAD SWAP1 POP PUSH2 0x273F DUP2 PUSH2 0x25F6 JUMP JUMPDEST PUSH2 0x274C PUSH1 0xA0 DUP8 ADD DUP3 PUSH2 0x1932 JUMP JUMPDEST POP DUP2 SWAP3 POP POP POP SWAP3 SWAP2 POP POP JUMP JUMPDEST PUSH1 0x0 PUSH1 0x20 DUP3 ADD SWAP1 POP DUP2 DUP2 SUB PUSH1 0x0 DUP4 ADD MSTORE PUSH2 0x2772 DUP2 DUP5 PUSH2 0x26A5 JUMP JUMPDEST SWAP1 POP SWAP3 SWAP2 POP POP JUMP JUMPDEST PUSH32 0x596F75206861766520616C7265616479206261636B6564207468697320726571 PUSH1 0x0 DUP3 ADD MSTORE PUSH32 0x7565737400000000000000000000000000000000000000000000000000000000 PUSH1 0x20 DUP3 ADD MSTORE POP JUMP JUMPDEST PUSH1 0x0 PUSH2 0x27D6 PUSH1 0x24 DUP4 PUSH2 0x1BC8 JUMP JUMPDEST SWAP2 POP PUSH2 0x27E1 DUP3 PUSH2 0x277A JUMP JUMPDEST PUSH1 0x40 DUP3 ADD SWAP1 POP SWAP2 SWAP1 POP JUMP JUMPDEST PUSH1 0x0 PUSH1 0x20 DUP3 ADD SWAP1 POP DUP2 DUP2 SUB PUSH1 0x0 DUP4 ADD MSTORE PUSH2 0x2805 DUP2 PUSH2 0x27C9 JUMP JUMPDEST SWAP1 POP SWAP2 SWAP1 POP JUMP JUMPDEST PUSH1 0x0 PUSH2 0x2817 DUP3 PUSH2 0x177F JUMP JUMPDEST SWAP2 POP PUSH32 0xFFFFFFFFFFFFFFFFFFFFFFFFFFFFFFFFFFFFFFFFFFFFFFFFFFFFFFFFFFFFFFFF DUP3 SUB PUSH2 0x2849 JUMPI PUSH2 0x2848 PUSH2 0x205C JUMP JUMPDEST JUMPDEST PUSH1 0x1 DUP3 ADD SWAP1 POP SWAP2 SWAP1 POP JUMP INVALID LOG2 PUSH5 0x6970667358 0x22 SLT KECCAK256 0xEB CALLVALUE DUP6 DUP6 CALL PUSH7 0x299C38B9ACC3CD 0xD4 0xE1 0xCC DUP6 0xEF 0xCA 0xA6 BYTE 0xF DUP5 0xD 0xED DUP7 GAS PUSH6 0x7541FDDE6473 PUSH16 0x6C634300080D0033A264697066735822 SLT KECCAK256 SAR 0x29 CALLDATALOAD PUSH25 0x519A3C06D4C1C87D3CC795CA33783C41031BB6C40BC3F3B3F6 0xB0 GT 0xE4 PUSH5 0x736F6C6343 STOP ADDMOD 0xD STOP CALLER "},"gasEstimates":{"creation":{"codeDepositCost":"2426200","executionCost":"2613","totalCost":"2428813"},"external":{"createCampaign(uint256)":"infinite","deployedCampaigns(uint256)":"4934","getDeployedCampaigns()":"infinite"}},"methodIdentifiers":{"createCampaign(uint256)":"a3303a75","deployedCampaigns(uint256)":"339d50a5","getDeployedCampaigns()":"4acb9d4f"}},"storageLayout":{"storage":[{"astId":4,"contract":"output:campaignFactory","label":"deployedCampaigns","offset":0,"slot":"0","type":"t_array(t_address)dyn_storage"}],"types":{"t_address":{"encoding":"inplace","label":"address","numberOfBytes":"20"},"t_array(t_address)dyn_storage":{"base":"t_address","encoding":"dynamic_array","label":"address[]","numberOfBytes":"32"}}},"userdoc":{"kind":"user","methods":{},"version":1}}